{
	"contracts/defi.sol": {
		"Cheddar": {
			"abi": [
				{
					"inputs": [
						{
							"internalType": "address[]",
							"name": "_tokens",
							"type": "address[]"
						},
						{
							"internalType": "contract IUniswapV2Router02",
							"name": "_router",
							"type": "address"
						},
						{
							"internalType": "address",
							"name": "_wrappedMatic",
							"type": "address"
						}
					],
					"name": "initialize",
					"outputs": [],
					"stateMutability": "nonpayable",
					"type": "function"
				},
				{
					"inputs": [
						{
							"internalType": "address[]",
							"name": "_tokens",
							"type": "address[]"
						},
						{
							"internalType": "uint256[]",
							"name": "bp",
							"type": "uint256[]"
						},
						{
							"internalType": "uint256",
							"name": "matic",
							"type": "uint256"
						}
					],
					"name": "swapAndPay",
					"outputs": [],
					"stateMutability": "payable",
					"type": "function"
				}
			],
			"devdoc": {
				"kind": "dev",
				"methods": {},
				"version": 1
			},
			"evm": {
				"assembly": "    /* \"contracts/defi.sol\":232:1398  contract Cheddar is Initializable {... */\n  mstore(0x40, 0x80)\n  callvalue\n  dup1\n  iszero\n  tag_1\n  jumpi\n  0x00\n  dup1\n  revert\ntag_1:\n  pop\n  dataSize(sub_0)\n  dup1\n  dataOffset(sub_0)\n  0x00\n  codecopy\n  0x00\n  return\nstop\n\nsub_0: assembly {\n        /* \"contracts/defi.sol\":232:1398  contract Cheddar is Initializable {... */\n      mstore(0x40, 0x80)\n      jumpi(tag_1, lt(calldatasize, 0x04))\n      shr(0xe0, calldataload(0x00))\n      dup1\n      0x90482d72\n      eq\n      tag_2\n      jumpi\n      dup1\n      0xf9d5d560\n      eq\n      tag_3\n      jumpi\n    tag_1:\n      0x00\n      dup1\n      revert\n        /* \"contracts/defi.sol\":337:522  function initialize(address[] memory _tokens, IUniswapV2Router02 _router, address _wrappedMatic) public {... */\n    tag_2:\n      callvalue\n      dup1\n      iszero\n      tag_4\n      jumpi\n      0x00\n      dup1\n      revert\n    tag_4:\n      pop\n      tag_5\n      0x04\n      dup1\n      calldatasize\n      sub\n      dup2\n      add\n      swap1\n      tag_6\n      swap2\n      swap1\n      tag_7\n      jump\t// in\n    tag_6:\n      tag_8\n      jump\t// in\n    tag_5:\n      stop\n        /* \"contracts/defi.sol\":524:1395  function swapAndPay(address[] memory _tokens, uint[] memory bp, uint matic ) public payable {... */\n    tag_3:\n      tag_9\n      0x04\n      dup1\n      calldatasize\n      sub\n      dup2\n      add\n      swap1\n      tag_10\n      swap2\n      swap1\n      tag_11\n      jump\t// in\n    tag_10:\n      tag_12\n      jump\t// in\n    tag_9:\n      stop\n        /* \"contracts/defi.sol\":337:522  function initialize(address[] memory _tokens, IUniswapV2Router02 _router, address _wrappedMatic) public {... */\n    tag_8:\n        /* \"contracts/defi.sol\":456:463  _tokens */\n      dup3\n        /* \"contracts/defi.sol\":447:453  tokens */\n      0x01\n        /* \"contracts/defi.sol\":447:463  tokens = _tokens */\n      swap1\n      dup1\n      mload\n      swap1\n      0x20\n      add\n      swap1\n      tag_14\n      swap3\n      swap2\n      swap1\n      tag_15\n      jump\t// in\n    tag_14:\n      pop\n        /* \"contracts/defi.sol\":478:485  _router */\n      dup2\n        /* \"contracts/defi.sol\":469:475  router */\n      0x02\n      0x00\n        /* \"contracts/defi.sol\":469:485  router = _router */\n      0x0100\n      exp\n      dup2\n      sload\n      dup2\n      0xffffffffffffffffffffffffffffffffffffffff\n      mul\n      not\n      and\n      swap1\n      dup4\n      0xffffffffffffffffffffffffffffffffffffffff\n      and\n      mul\n      or\n      swap1\n      sstore\n      pop\n        /* \"contracts/defi.sol\":506:519  _wrappedMatic */\n      dup1\n        /* \"contracts/defi.sol\":491:503  wrappedMatic */\n      0x03\n      0x00\n        /* \"contracts/defi.sol\":491:519  wrappedMatic = _wrappedMatic */\n      0x0100\n      exp\n      dup2\n      sload\n      dup2\n      0xffffffffffffffffffffffffffffffffffffffff\n      mul\n      not\n      and\n      swap1\n      dup4\n      0xffffffffffffffffffffffffffffffffffffffff\n      and\n      mul\n      or\n      swap1\n      sstore\n      pop\n        /* \"contracts/defi.sol\":337:522  function initialize(address[] memory _tokens, IUniswapV2Router02 _router, address _wrappedMatic) public {... */\n      pop\n      pop\n      pop\n      jump\t// out\n        /* \"contracts/defi.sol\":524:1395  function swapAndPay(address[] memory _tokens, uint[] memory bp, uint matic ) public payable {... */\n    tag_12:\n        /* \"contracts/defi.sol\":623:639  uint totalTokens */\n      0x00\n        /* \"contracts/defi.sol\":642:649  _tokens */\n      dup4\n        /* \"contracts/defi.sol\":642:656  _tokens.length */\n      mload\n        /* \"contracts/defi.sol\":623:656  uint totalTokens = _tokens.length */\n      swap1\n      pop\n        /* \"contracts/defi.sol\":681:686  matic */\n      dup2\n        /* \"contracts/defi.sol\":670:679  msg.value */\n      callvalue\n        /* \"contracts/defi.sol\":670:686  msg.value==matic */\n      eq\n        /* \"contracts/defi.sol\":662:704  require(msg.value==matic,\"Invalid Matic!\") */\n      tag_17\n      jumpi\n      mload(0x40)\n      0x08c379a000000000000000000000000000000000000000000000000000000000\n      dup2\n      mstore\n      0x04\n      add\n      tag_18\n      swap1\n      tag_19\n      jump\t// in\n    tag_18:\n      mload(0x40)\n      dup1\n      swap2\n      sub\n      swap1\n      revert\n    tag_17:\n        /* \"contracts/defi.sol\":714:720  uint i */\n      0x00\n        /* \"contracts/defi.sol\":710:1071  for(uint i=0; i<totalTokens; i++){... */\n    tag_20:\n        /* \"contracts/defi.sol\":726:737  totalTokens */\n      dup2\n        /* \"contracts/defi.sol\":724:725  i */\n      dup2\n        /* \"contracts/defi.sol\":724:737  i<totalTokens */\n      lt\n        /* \"contracts/defi.sol\":710:1071  for(uint i=0; i<totalTokens; i++){... */\n      iszero\n      tag_21\n      jumpi\n        /* \"contracts/defi.sol\":754:775  address[] memory path */\n      0x00\n        /* \"contracts/defi.sol\":792:793  2 */\n      0x02\n        /* \"contracts/defi.sol\":778:794  new address[](2) */\n      0xffffffffffffffff\n      dup2\n      gt\n      iszero\n      tag_23\n      jumpi\n      tag_24\n      tag_25\n      jump\t// in\n    tag_24:\n    tag_23:\n      mload(0x40)\n      swap1\n      dup1\n      dup3\n      mstore\n      dup1\n      0x20\n      mul\n      0x20\n      add\n      dup3\n      add\n      0x40\n      mstore\n      dup1\n      iszero\n      tag_26\n      jumpi\n      dup2\n      0x20\n      add\n      0x20\n      dup3\n      mul\n      dup1\n      calldatasize\n      dup4\n      calldatacopy\n      dup1\n      dup3\n      add\n      swap2\n      pop\n      pop\n      swap1\n      pop\n    tag_26:\n      pop\n        /* \"contracts/defi.sol\":754:794  address[] memory path = new address[](2) */\n      swap1\n      pop\n        /* \"contracts/defi.sol\":826:838  wrappedMatic */\n      0x03\n      0x00\n      swap1\n      sload\n      swap1\n      0x0100\n      exp\n      swap1\n      div\n      0xffffffffffffffffffffffffffffffffffffffff\n      and\n        /* \"contracts/defi.sol\":808:812  path */\n      dup2\n        /* \"contracts/defi.sol\":813:814  0 */\n      0x00\n        /* \"contracts/defi.sol\":808:815  path[0] */\n      dup2\n      mload\n      dup2\n      lt\n      tag_27\n      jumpi\n      tag_28\n      tag_29\n      jump\t// in\n    tag_28:\n    tag_27:\n      0x20\n      mul\n      0x20\n      add\n      add\n        /* \"contracts/defi.sol\":808:839  path[0] = address(wrappedMatic) */\n      swap1\n      0xffffffffffffffffffffffffffffffffffffffff\n      and\n      swap1\n      dup2\n      0xffffffffffffffffffffffffffffffffffffffff\n      and\n      dup2\n      mstore\n      pop\n      pop\n        /* \"contracts/defi.sol\":871:878  _tokens */\n      dup6\n        /* \"contracts/defi.sol\":879:880  i */\n      dup3\n        /* \"contracts/defi.sol\":871:881  _tokens[i] */\n      dup2\n      mload\n      dup2\n      lt\n      tag_30\n      jumpi\n      tag_31\n      tag_29\n      jump\t// in\n    tag_31:\n    tag_30:\n      0x20\n      mul\n      0x20\n      add\n      add\n      mload\n        /* \"contracts/defi.sol\":853:857  path */\n      dup2\n        /* \"contracts/defi.sol\":858:859  1 */\n      0x01\n        /* \"contracts/defi.sol\":853:860  path[1] */\n      dup2\n      mload\n      dup2\n      lt\n      tag_32\n      jumpi\n      tag_33\n      tag_29\n      jump\t// in\n    tag_33:\n    tag_32:\n      0x20\n      mul\n      0x20\n      add\n      add\n        /* \"contracts/defi.sol\":853:882  path[1] = address(_tokens[i]) */\n      swap1\n      0xffffffffffffffffffffffffffffffffffffffff\n      and\n      swap1\n      dup2\n      0xffffffffffffffffffffffffffffffffffffffff\n      and\n      dup2\n      mstore\n      pop\n      pop\n        /* \"contracts/defi.sol\":896:920  uint[] memory amountsOut */\n      0x00\n        /* \"contracts/defi.sol\":923:929  router */\n      0x02\n      0x00\n      swap1\n      sload\n      swap1\n      0x0100\n      exp\n      swap1\n      div\n      0xffffffffffffffffffffffffffffffffffffffff\n      and\n        /* \"contracts/defi.sol\":923:943  router.getAmountsOut */\n      0xffffffffffffffffffffffffffffffffffffffff\n      and\n      0xd06ca61f\n        /* \"contracts/defi.sol\":957:962  10000 */\n      0x2710\n        /* \"contracts/defi.sol\":951:953  bp */\n      dup9\n        /* \"contracts/defi.sol\":954:955  i */\n      dup7\n        /* \"contracts/defi.sol\":951:956  bp[i] */\n      dup2\n      mload\n      dup2\n      lt\n      tag_34\n      jumpi\n      tag_35\n      tag_29\n      jump\t// in\n    tag_35:\n    tag_34:\n      0x20\n      mul\n      0x20\n      add\n      add\n      mload\n        /* \"contracts/defi.sol\":945:950  matic */\n      dup9\n        /* \"contracts/defi.sol\":945:956  matic*bp[i] */\n      tag_36\n      swap2\n      swap1\n      tag_37\n      jump\t// in\n    tag_36:\n        /* \"contracts/defi.sol\":945:962  matic*bp[i]/10000 */\n      tag_38\n      swap2\n      swap1\n      tag_39\n      jump\t// in\n    tag_38:\n        /* \"contracts/defi.sol\":965:969  path */\n      dup5\n        /* \"contracts/defi.sol\":923:970  router.getAmountsOut((matic*bp[i]/10000), path) */\n      mload(0x40)\n      dup4\n      0xffffffff\n      and\n      0xe0\n      shl\n      dup2\n      mstore\n      0x04\n      add\n      tag_40\n      swap3\n      swap2\n      swap1\n      tag_41\n      jump\t// in\n    tag_40:\n      0x00\n      mload(0x40)\n      dup1\n      dup4\n      sub\n      dup2\n      dup7\n      dup1\n      extcodesize\n      iszero\n      dup1\n      iszero\n      tag_42\n      jumpi\n      0x00\n      dup1\n      revert\n    tag_42:\n      pop\n      gas\n      staticcall\n      iszero\n      dup1\n      iszero\n      tag_44\n      jumpi\n      returndatasize\n      0x00\n      dup1\n      returndatacopy\n      revert(0x00, returndatasize)\n    tag_44:\n      pop\n      pop\n      pop\n      pop\n      mload(0x40)\n      returndatasize\n      0x00\n      dup3\n      returndatacopy\n      returndatasize\n      not(0x1f)\n      0x1f\n      dup3\n      add\n      and\n      dup3\n      add\n      dup1\n      0x40\n      mstore\n      pop\n      dup2\n      add\n      swap1\n      tag_45\n      swap2\n      swap1\n      tag_46\n      jump\t// in\n    tag_45:\n        /* \"contracts/defi.sol\":896:970  uint[] memory amountsOut = router.getAmountsOut((matic*bp[i]/10000), path) */\n      swap1\n      pop\n        /* \"contracts/defi.sol\":984:990  router */\n      0x02\n      0x00\n      swap1\n      sload\n      swap1\n      0x0100\n      exp\n      swap1\n      div\n      0xffffffffffffffffffffffffffffffffffffffff\n      and\n        /* \"contracts/defi.sol\":984:1012  router.swapETHForExactTokens */\n      0xffffffffffffffffffffffffffffffffffffffff\n      and\n      0xfb3bdb41\n        /* \"contracts/defi.sol\":1013:1023  amountsOut */\n      dup3\n        /* \"contracts/defi.sol\":1024:1025  1 */\n      0x01\n        /* \"contracts/defi.sol\":1013:1026  amountsOut[1] */\n      dup2\n      mload\n      dup2\n      lt\n      tag_47\n      jumpi\n      tag_48\n      tag_29\n      jump\t// in\n    tag_48:\n    tag_47:\n      0x20\n      mul\n      0x20\n      add\n      add\n      mload\n        /* \"contracts/defi.sol\":1028:1032  path */\n      dup5\n        /* \"contracts/defi.sol\":1034:1044  msg.sender */\n      caller\n        /* \"contracts/defi.sol\":1062:1066  3600 */\n      0x0e10\n        /* \"contracts/defi.sol\":1046:1061  block.timestamp */\n      timestamp\n        /* \"contracts/defi.sol\":1046:1066  block.timestamp+3600 */\n      tag_49\n      swap2\n      swap1\n      tag_50\n      jump\t// in\n    tag_49:\n        /* \"contracts/defi.sol\":984:1067  router.swapETHForExactTokens(amountsOut[1], path, msg.sender, block.timestamp+3600) */\n      mload(0x40)\n      dup6\n      0xffffffff\n      and\n      0xe0\n      shl\n      dup2\n      mstore\n      0x04\n      add\n      tag_51\n      swap5\n      swap4\n      swap3\n      swap2\n      swap1\n      tag_52\n      jump\t// in\n    tag_51:\n      0x00\n      mload(0x40)\n      dup1\n      dup4\n      sub\n      dup2\n      0x00\n      dup8\n      dup1\n      extcodesize\n      iszero\n      dup1\n      iszero\n      tag_53\n      jumpi\n      0x00\n      dup1\n      revert\n    tag_53:\n      pop\n      gas\n      call\n      iszero\n      dup1\n      iszero\n      tag_55\n      jumpi\n      returndatasize\n      0x00\n      dup1\n      returndatacopy\n      revert(0x00, returndatasize)\n    tag_55:\n      pop\n      pop\n      pop\n      pop\n      mload(0x40)\n      returndatasize\n      0x00\n      dup3\n      returndatacopy\n      returndatasize\n      not(0x1f)\n      0x1f\n      dup3\n      add\n      and\n      dup3\n      add\n      dup1\n      0x40\n      mstore\n      pop\n      dup2\n      add\n      swap1\n      tag_56\n      swap2\n      swap1\n      tag_46\n      jump\t// in\n    tag_56:\n      pop\n        /* \"contracts/defi.sol\":743:1071  {... */\n      pop\n      pop\n        /* \"contracts/defi.sol\":739:742  i++ */\n      dup1\n      dup1\n      tag_57\n      swap1\n      tag_58\n      jump\t// in\n    tag_57:\n      swap2\n      pop\n      pop\n        /* \"contracts/defi.sol\":710:1071  for(uint i=0; i<totalTokens; i++){... */\n      jump(tag_20)\n    tag_21:\n      pop\n        /* \"contracts/defi.sol\":616:1395  {... */\n      pop\n        /* \"contracts/defi.sol\":524:1395  function swapAndPay(address[] memory _tokens, uint[] memory bp, uint matic ) public payable {... */\n      pop\n      pop\n      pop\n      jump\t// out\n    tag_15:\n      dup3\n      dup1\n      sload\n      dup3\n      dup3\n      sstore\n      swap1\n      0x00\n      mstore\n      keccak256(0x00, 0x20)\n      swap1\n      dup2\n      add\n      swap3\n      dup3\n      iszero\n      tag_59\n      jumpi\n      swap2\n      0x20\n      mul\n      dup3\n      add\n    tag_60:\n      dup3\n      dup2\n      gt\n      iszero\n      tag_61\n      jumpi\n      dup3\n      mload\n      dup3\n      exp(0x0100, 0x00)\n      dup2\n      sload\n      dup2\n      0xffffffffffffffffffffffffffffffffffffffff\n      mul\n      not\n      and\n      swap1\n      dup4\n      0xffffffffffffffffffffffffffffffffffffffff\n      and\n      mul\n      or\n      swap1\n      sstore\n      pop\n      swap2\n      0x20\n      add\n      swap2\n      swap1\n      0x01\n      add\n      swap1\n      jump(tag_60)\n    tag_61:\n    tag_59:\n      pop\n      swap1\n      pop\n      tag_62\n      swap2\n      swap1\n      tag_63\n      jump\t// in\n    tag_62:\n      pop\n      swap1\n      jump\t// out\n    tag_63:\n    tag_64:\n      dup1\n      dup3\n      gt\n      iszero\n      tag_65\n      jumpi\n      0x00\n      dup2\n      0x00\n      swap1\n      sstore\n      pop\n      0x01\n      add\n      jump(tag_64)\n    tag_65:\n      pop\n      swap1\n      jump\t// out\n        /* \"#utility.yul\":24:746   */\n    tag_67:\n        /* \"#utility.yul\":120:125   */\n      0x00\n        /* \"#utility.yul\":145:226   */\n      tag_69\n        /* \"#utility.yul\":161:225   */\n      tag_70\n        /* \"#utility.yul\":218:224   */\n      dup5\n        /* \"#utility.yul\":161:225   */\n      tag_71\n      jump\t// in\n    tag_70:\n        /* \"#utility.yul\":145:226   */\n      tag_72\n      jump\t// in\n    tag_69:\n        /* \"#utility.yul\":136:226   */\n      swap1\n      pop\n        /* \"#utility.yul\":246:251   */\n      dup1\n        /* \"#utility.yul\":275:281   */\n      dup4\n        /* \"#utility.yul\":268:273   */\n      dup3\n        /* \"#utility.yul\":261:282   */\n      mstore\n        /* \"#utility.yul\":309:313   */\n      0x20\n        /* \"#utility.yul\":302:307   */\n      dup3\n        /* \"#utility.yul\":298:314   */\n      add\n        /* \"#utility.yul\":291:314   */\n      swap1\n      pop\n        /* \"#utility.yul\":335:341   */\n      dup3\n        /* \"#utility.yul\":385:388   */\n      dup6\n        /* \"#utility.yul\":377:381   */\n      0x20\n        /* \"#utility.yul\":369:375   */\n      dup7\n        /* \"#utility.yul\":365:382   */\n      mul\n        /* \"#utility.yul\":360:363   */\n      dup3\n        /* \"#utility.yul\":356:383   */\n      add\n        /* \"#utility.yul\":353:389   */\n      gt\n        /* \"#utility.yul\":350:493   */\n      iszero\n      tag_73\n      jumpi\n        /* \"#utility.yul\":404:483   */\n      tag_74\n      tag_75\n      jump\t// in\n    tag_74:\n        /* \"#utility.yul\":350:493   */\n    tag_73:\n        /* \"#utility.yul\":517:518   */\n      0x00\n        /* \"#utility.yul\":502:740   */\n    tag_76:\n        /* \"#utility.yul\":527:533   */\n      dup6\n        /* \"#utility.yul\":524:525   */\n      dup2\n        /* \"#utility.yul\":521:534   */\n      lt\n        /* \"#utility.yul\":502:740   */\n      iszero\n      tag_78\n      jumpi\n        /* \"#utility.yul\":595:598   */\n      dup2\n        /* \"#utility.yul\":624:661   */\n      tag_79\n        /* \"#utility.yul\":657:660   */\n      dup9\n        /* \"#utility.yul\":645:655   */\n      dup3\n        /* \"#utility.yul\":624:661   */\n      tag_80\n      jump\t// in\n    tag_79:\n        /* \"#utility.yul\":619:622   */\n      dup5\n        /* \"#utility.yul\":612:662   */\n      mstore\n        /* \"#utility.yul\":691:695   */\n      0x20\n        /* \"#utility.yul\":686:689   */\n      dup5\n        /* \"#utility.yul\":682:696   */\n      add\n        /* \"#utility.yul\":675:696   */\n      swap4\n      pop\n        /* \"#utility.yul\":725:729   */\n      0x20\n        /* \"#utility.yul\":720:723   */\n      dup4\n        /* \"#utility.yul\":716:730   */\n      add\n        /* \"#utility.yul\":709:730   */\n      swap3\n      pop\n        /* \"#utility.yul\":562:740   */\n      pop\n        /* \"#utility.yul\":549:550   */\n      0x01\n        /* \"#utility.yul\":546:547   */\n      dup2\n        /* \"#utility.yul\":542:551   */\n      add\n        /* \"#utility.yul\":537:551   */\n      swap1\n      pop\n        /* \"#utility.yul\":502:740   */\n      jump(tag_76)\n    tag_78:\n        /* \"#utility.yul\":506:520   */\n      pop\n        /* \"#utility.yul\":126:746   */\n      pop\n      pop\n        /* \"#utility.yul\":24:746   */\n      swap4\n      swap3\n      pop\n      pop\n      pop\n      jump\t// out\n        /* \"#utility.yul\":769:1491   */\n    tag_81:\n        /* \"#utility.yul\":865:870   */\n      0x00\n        /* \"#utility.yul\":890:971   */\n      tag_83\n        /* \"#utility.yul\":906:970   */\n      tag_84\n        /* \"#utility.yul\":963:969   */\n      dup5\n        /* \"#utility.yul\":906:970   */\n      tag_85\n      jump\t// in\n    tag_84:\n        /* \"#utility.yul\":890:971   */\n      tag_72\n      jump\t// in\n    tag_83:\n        /* \"#utility.yul\":881:971   */\n      swap1\n      pop\n        /* \"#utility.yul\":991:996   */\n      dup1\n        /* \"#utility.yul\":1020:1026   */\n      dup4\n        /* \"#utility.yul\":1013:1018   */\n      dup3\n        /* \"#utility.yul\":1006:1027   */\n      mstore\n        /* \"#utility.yul\":1054:1058   */\n      0x20\n        /* \"#utility.yul\":1047:1052   */\n      dup3\n        /* \"#utility.yul\":1043:1059   */\n      add\n        /* \"#utility.yul\":1036:1059   */\n      swap1\n      pop\n        /* \"#utility.yul\":1080:1086   */\n      dup3\n        /* \"#utility.yul\":1130:1133   */\n      dup6\n        /* \"#utility.yul\":1122:1126   */\n      0x20\n        /* \"#utility.yul\":1114:1120   */\n      dup7\n        /* \"#utility.yul\":1110:1127   */\n      mul\n        /* \"#utility.yul\":1105:1108   */\n      dup3\n        /* \"#utility.yul\":1101:1128   */\n      add\n        /* \"#utility.yul\":1098:1134   */\n      gt\n        /* \"#utility.yul\":1095:1238   */\n      iszero\n      tag_86\n      jumpi\n        /* \"#utility.yul\":1149:1228   */\n      tag_87\n      tag_75\n      jump\t// in\n    tag_87:\n        /* \"#utility.yul\":1095:1238   */\n    tag_86:\n        /* \"#utility.yul\":1262:1263   */\n      0x00\n        /* \"#utility.yul\":1247:1485   */\n    tag_88:\n        /* \"#utility.yul\":1272:1278   */\n      dup6\n        /* \"#utility.yul\":1269:1270   */\n      dup2\n        /* \"#utility.yul\":1266:1279   */\n      lt\n        /* \"#utility.yul\":1247:1485   */\n      iszero\n      tag_90\n      jumpi\n        /* \"#utility.yul\":1340:1343   */\n      dup2\n        /* \"#utility.yul\":1369:1406   */\n      tag_91\n        /* \"#utility.yul\":1402:1405   */\n      dup9\n        /* \"#utility.yul\":1390:1400   */\n      dup3\n        /* \"#utility.yul\":1369:1406   */\n      tag_92\n      jump\t// in\n    tag_91:\n        /* \"#utility.yul\":1364:1367   */\n      dup5\n        /* \"#utility.yul\":1357:1407   */\n      mstore\n        /* \"#utility.yul\":1436:1440   */\n      0x20\n        /* \"#utility.yul\":1431:1434   */\n      dup5\n        /* \"#utility.yul\":1427:1441   */\n      add\n        /* \"#utility.yul\":1420:1441   */\n      swap4\n      pop\n        /* \"#utility.yul\":1470:1474   */\n      0x20\n        /* \"#utility.yul\":1465:1468   */\n      dup4\n        /* \"#utility.yul\":1461:1475   */\n      add\n        /* \"#utility.yul\":1454:1475   */\n      swap3\n      pop\n        /* \"#utility.yul\":1307:1485   */\n      pop\n        /* \"#utility.yul\":1294:1295   */\n      0x01\n        /* \"#utility.yul\":1291:1292   */\n      dup2\n        /* \"#utility.yul\":1287:1296   */\n      add\n        /* \"#utility.yul\":1282:1296   */\n      swap1\n      pop\n        /* \"#utility.yul\":1247:1485   */\n      jump(tag_88)\n    tag_90:\n        /* \"#utility.yul\":1251:1265   */\n      pop\n        /* \"#utility.yul\":871:1491   */\n      pop\n      pop\n        /* \"#utility.yul\":769:1491   */\n      swap4\n      swap3\n      pop\n      pop\n      pop\n      jump\t// out\n        /* \"#utility.yul\":1514:2258   */\n    tag_93:\n        /* \"#utility.yul\":1621:1626   */\n      0x00\n        /* \"#utility.yul\":1646:1727   */\n      tag_95\n        /* \"#utility.yul\":1662:1726   */\n      tag_96\n        /* \"#utility.yul\":1719:1725   */\n      dup5\n        /* \"#utility.yul\":1662:1726   */\n      tag_85\n      jump\t// in\n    tag_96:\n        /* \"#utility.yul\":1646:1727   */\n      tag_72\n      jump\t// in\n    tag_95:\n        /* \"#utility.yul\":1637:1727   */\n      swap1\n      pop\n        /* \"#utility.yul\":1747:1752   */\n      dup1\n        /* \"#utility.yul\":1776:1782   */\n      dup4\n        /* \"#utility.yul\":1769:1774   */\n      dup3\n        /* \"#utility.yul\":1762:1783   */\n      mstore\n        /* \"#utility.yul\":1810:1814   */\n      0x20\n        /* \"#utility.yul\":1803:1808   */\n      dup3\n        /* \"#utility.yul\":1799:1815   */\n      add\n        /* \"#utility.yul\":1792:1815   */\n      swap1\n      pop\n        /* \"#utility.yul\":1836:1842   */\n      dup3\n        /* \"#utility.yul\":1886:1889   */\n      dup6\n        /* \"#utility.yul\":1878:1882   */\n      0x20\n        /* \"#utility.yul\":1870:1876   */\n      dup7\n        /* \"#utility.yul\":1866:1883   */\n      mul\n        /* \"#utility.yul\":1861:1864   */\n      dup3\n        /* \"#utility.yul\":1857:1884   */\n      add\n        /* \"#utility.yul\":1854:1890   */\n      gt\n        /* \"#utility.yul\":1851:1994   */\n      iszero\n      tag_97\n      jumpi\n        /* \"#utility.yul\":1905:1984   */\n      tag_98\n      tag_75\n      jump\t// in\n    tag_98:\n        /* \"#utility.yul\":1851:1994   */\n    tag_97:\n        /* \"#utility.yul\":2018:2019   */\n      0x00\n        /* \"#utility.yul\":2003:2252   */\n    tag_99:\n        /* \"#utility.yul\":2028:2034   */\n      dup6\n        /* \"#utility.yul\":2025:2026   */\n      dup2\n        /* \"#utility.yul\":2022:2035   */\n      lt\n        /* \"#utility.yul\":2003:2252   */\n      iszero\n      tag_101\n      jumpi\n        /* \"#utility.yul\":2096:2099   */\n      dup2\n        /* \"#utility.yul\":2125:2173   */\n      tag_102\n        /* \"#utility.yul\":2169:2172   */\n      dup9\n        /* \"#utility.yul\":2157:2167   */\n      dup3\n        /* \"#utility.yul\":2125:2173   */\n      tag_103\n      jump\t// in\n    tag_102:\n        /* \"#utility.yul\":2120:2123   */\n      dup5\n        /* \"#utility.yul\":2113:2174   */\n      mstore\n        /* \"#utility.yul\":2203:2207   */\n      0x20\n        /* \"#utility.yul\":2198:2201   */\n      dup5\n        /* \"#utility.yul\":2194:2208   */\n      add\n        /* \"#utility.yul\":2187:2208   */\n      swap4\n      pop\n        /* \"#utility.yul\":2237:2241   */\n      0x20\n        /* \"#utility.yul\":2232:2235   */\n      dup4\n        /* \"#utility.yul\":2228:2242   */\n      add\n        /* \"#utility.yul\":2221:2242   */\n      swap3\n      pop\n        /* \"#utility.yul\":2063:2252   */\n      pop\n        /* \"#utility.yul\":2050:2051   */\n      0x01\n        /* \"#utility.yul\":2047:2048   */\n      dup2\n        /* \"#utility.yul\":2043:2052   */\n      add\n        /* \"#utility.yul\":2038:2052   */\n      swap1\n      pop\n        /* \"#utility.yul\":2003:2252   */\n      jump(tag_99)\n    tag_101:\n        /* \"#utility.yul\":2007:2021   */\n      pop\n        /* \"#utility.yul\":1627:2258   */\n      pop\n      pop\n        /* \"#utility.yul\":1514:2258   */\n      swap4\n      swap3\n      pop\n      pop\n      pop\n      jump\t// out\n        /* \"#utility.yul\":2264:2403   */\n    tag_80:\n        /* \"#utility.yul\":2310:2315   */\n      0x00\n        /* \"#utility.yul\":2348:2354   */\n      dup2\n        /* \"#utility.yul\":2335:2355   */\n      calldataload\n        /* \"#utility.yul\":2326:2355   */\n      swap1\n      pop\n        /* \"#utility.yul\":2364:2397   */\n      tag_105\n        /* \"#utility.yul\":2391:2396   */\n      dup2\n        /* \"#utility.yul\":2364:2397   */\n      tag_106\n      jump\t// in\n    tag_105:\n        /* \"#utility.yul\":2264:2403   */\n      swap3\n      swap2\n      pop\n      pop\n      jump\t// out\n        /* \"#utility.yul\":2426:2796   */\n    tag_107:\n        /* \"#utility.yul\":2497:2502   */\n      0x00\n        /* \"#utility.yul\":2546:2549   */\n      dup3\n        /* \"#utility.yul\":2539:2543   */\n      0x1f\n        /* \"#utility.yul\":2531:2537   */\n      dup4\n        /* \"#utility.yul\":2527:2544   */\n      add\n        /* \"#utility.yul\":2523:2550   */\n      slt\n        /* \"#utility.yul\":2513:2635   */\n      tag_109\n      jumpi\n        /* \"#utility.yul\":2554:2633   */\n      tag_110\n      tag_111\n      jump\t// in\n    tag_110:\n        /* \"#utility.yul\":2513:2635   */\n    tag_109:\n        /* \"#utility.yul\":2671:2677   */\n      dup2\n        /* \"#utility.yul\":2658:2678   */\n      calldataload\n        /* \"#utility.yul\":2696:2790   */\n      tag_112\n        /* \"#utility.yul\":2786:2789   */\n      dup5\n        /* \"#utility.yul\":2778:2784   */\n      dup3\n        /* \"#utility.yul\":2771:2775   */\n      0x20\n        /* \"#utility.yul\":2763:2769   */\n      dup7\n        /* \"#utility.yul\":2759:2776   */\n      add\n        /* \"#utility.yul\":2696:2790   */\n      tag_67\n      jump\t// in\n    tag_112:\n        /* \"#utility.yul\":2687:2790   */\n      swap2\n      pop\n        /* \"#utility.yul\":2503:2796   */\n      pop\n        /* \"#utility.yul\":2426:2796   */\n      swap3\n      swap2\n      pop\n      pop\n      jump\t// out\n        /* \"#utility.yul\":2819:3189   */\n    tag_113:\n        /* \"#utility.yul\":2890:2895   */\n      0x00\n        /* \"#utility.yul\":2939:2942   */\n      dup3\n        /* \"#utility.yul\":2932:2936   */\n      0x1f\n        /* \"#utility.yul\":2924:2930   */\n      dup4\n        /* \"#utility.yul\":2920:2937   */\n      add\n        /* \"#utility.yul\":2916:2943   */\n      slt\n        /* \"#utility.yul\":2906:3028   */\n      tag_115\n      jumpi\n        /* \"#utility.yul\":2947:3026   */\n      tag_116\n      tag_111\n      jump\t// in\n    tag_116:\n        /* \"#utility.yul\":2906:3028   */\n    tag_115:\n        /* \"#utility.yul\":3064:3070   */\n      dup2\n        /* \"#utility.yul\":3051:3071   */\n      calldataload\n        /* \"#utility.yul\":3089:3183   */\n      tag_117\n        /* \"#utility.yul\":3179:3182   */\n      dup5\n        /* \"#utility.yul\":3171:3177   */\n      dup3\n        /* \"#utility.yul\":3164:3168   */\n      0x20\n        /* \"#utility.yul\":3156:3162   */\n      dup7\n        /* \"#utility.yul\":3152:3169   */\n      add\n        /* \"#utility.yul\":3089:3183   */\n      tag_81\n      jump\t// in\n    tag_117:\n        /* \"#utility.yul\":3080:3183   */\n      swap2\n      pop\n        /* \"#utility.yul\":2896:3189   */\n      pop\n        /* \"#utility.yul\":2819:3189   */\n      swap3\n      swap2\n      pop\n      pop\n      jump\t// out\n        /* \"#utility.yul\":3212:3597   */\n    tag_118:\n        /* \"#utility.yul\":3294:3299   */\n      0x00\n        /* \"#utility.yul\":3343:3346   */\n      dup3\n        /* \"#utility.yul\":3336:3340   */\n      0x1f\n        /* \"#utility.yul\":3328:3334   */\n      dup4\n        /* \"#utility.yul\":3324:3341   */\n      add\n        /* \"#utility.yul\":3320:3347   */\n      slt\n        /* \"#utility.yul\":3310:3432   */\n      tag_120\n      jumpi\n        /* \"#utility.yul\":3351:3430   */\n      tag_121\n      tag_111\n      jump\t// in\n    tag_121:\n        /* \"#utility.yul\":3310:3432   */\n    tag_120:\n        /* \"#utility.yul\":3461:3467   */\n      dup2\n        /* \"#utility.yul\":3455:3468   */\n      mload\n        /* \"#utility.yul\":3486:3591   */\n      tag_122\n        /* \"#utility.yul\":3587:3590   */\n      dup5\n        /* \"#utility.yul\":3579:3585   */\n      dup3\n        /* \"#utility.yul\":3572:3576   */\n      0x20\n        /* \"#utility.yul\":3564:3570   */\n      dup7\n        /* \"#utility.yul\":3560:3577   */\n      add\n        /* \"#utility.yul\":3486:3591   */\n      tag_93\n      jump\t// in\n    tag_122:\n        /* \"#utility.yul\":3477:3591   */\n      swap2\n      pop\n        /* \"#utility.yul\":3300:3597   */\n      pop\n        /* \"#utility.yul\":3212:3597   */\n      swap3\n      swap2\n      pop\n      pop\n      jump\t// out\n        /* \"#utility.yul\":3603:3794   */\n    tag_123:\n        /* \"#utility.yul\":3675:3680   */\n      0x00\n        /* \"#utility.yul\":3713:3719   */\n      dup2\n        /* \"#utility.yul\":3700:3720   */\n      calldataload\n        /* \"#utility.yul\":3691:3720   */\n      swap1\n      pop\n        /* \"#utility.yul\":3729:3788   */\n      tag_125\n        /* \"#utility.yul\":3782:3787   */\n      dup2\n        /* \"#utility.yul\":3729:3788   */\n      tag_126\n      jump\t// in\n    tag_125:\n        /* \"#utility.yul\":3603:3794   */\n      swap3\n      swap2\n      pop\n      pop\n      jump\t// out\n        /* \"#utility.yul\":3800:3939   */\n    tag_92:\n        /* \"#utility.yul\":3846:3851   */\n      0x00\n        /* \"#utility.yul\":3884:3890   */\n      dup2\n        /* \"#utility.yul\":3871:3891   */\n      calldataload\n        /* \"#utility.yul\":3862:3891   */\n      swap1\n      pop\n        /* \"#utility.yul\":3900:3933   */\n      tag_128\n        /* \"#utility.yul\":3927:3932   */\n      dup2\n        /* \"#utility.yul\":3900:3933   */\n      tag_129\n      jump\t// in\n    tag_128:\n        /* \"#utility.yul\":3800:3939   */\n      swap3\n      swap2\n      pop\n      pop\n      jump\t// out\n        /* \"#utility.yul\":3945:4088   */\n    tag_103:\n        /* \"#utility.yul\":4002:4007   */\n      0x00\n        /* \"#utility.yul\":4033:4039   */\n      dup2\n        /* \"#utility.yul\":4027:4040   */\n      mload\n        /* \"#utility.yul\":4018:4040   */\n      swap1\n      pop\n        /* \"#utility.yul\":4049:4082   */\n      tag_131\n        /* \"#utility.yul\":4076:4081   */\n      dup2\n        /* \"#utility.yul\":4049:4082   */\n      tag_129\n      jump\t// in\n    tag_131:\n        /* \"#utility.yul\":3945:4088   */\n      swap3\n      swap2\n      pop\n      pop\n      jump\t// out\n        /* \"#utility.yul\":4094:5133   */\n    tag_11:\n        /* \"#utility.yul\":4221:4227   */\n      0x00\n        /* \"#utility.yul\":4229:4235   */\n      dup1\n        /* \"#utility.yul\":4237:4243   */\n      0x00\n        /* \"#utility.yul\":4286:4288   */\n      0x60\n        /* \"#utility.yul\":4274:4283   */\n      dup5\n        /* \"#utility.yul\":4265:4272   */\n      dup7\n        /* \"#utility.yul\":4261:4284   */\n      sub\n        /* \"#utility.yul\":4257:4289   */\n      slt\n        /* \"#utility.yul\":4254:4373   */\n      iszero\n      tag_133\n      jumpi\n        /* \"#utility.yul\":4292:4371   */\n      tag_134\n      tag_135\n      jump\t// in\n    tag_134:\n        /* \"#utility.yul\":4254:4373   */\n    tag_133:\n        /* \"#utility.yul\":4440:4441   */\n      0x00\n        /* \"#utility.yul\":4429:4438   */\n      dup5\n        /* \"#utility.yul\":4425:4442   */\n      add\n        /* \"#utility.yul\":4412:4443   */\n      calldataload\n        /* \"#utility.yul\":4470:4488   */\n      0xffffffffffffffff\n        /* \"#utility.yul\":4462:4468   */\n      dup2\n        /* \"#utility.yul\":4459:4489   */\n      gt\n        /* \"#utility.yul\":4456:4573   */\n      iszero\n      tag_136\n      jumpi\n        /* \"#utility.yul\":4492:4571   */\n      tag_137\n      tag_138\n      jump\t// in\n    tag_137:\n        /* \"#utility.yul\":4456:4573   */\n    tag_136:\n        /* \"#utility.yul\":4597:4675   */\n      tag_139\n        /* \"#utility.yul\":4667:4674   */\n      dup7\n        /* \"#utility.yul\":4658:4664   */\n      dup3\n        /* \"#utility.yul\":4647:4656   */\n      dup8\n        /* \"#utility.yul\":4643:4665   */\n      add\n        /* \"#utility.yul\":4597:4675   */\n      tag_107\n      jump\t// in\n    tag_139:\n        /* \"#utility.yul\":4587:4675   */\n      swap4\n      pop\n        /* \"#utility.yul\":4383:4685   */\n      pop\n        /* \"#utility.yul\":4752:4754   */\n      0x20\n        /* \"#utility.yul\":4741:4750   */\n      dup5\n        /* \"#utility.yul\":4737:4755   */\n      add\n        /* \"#utility.yul\":4724:4756   */\n      calldataload\n        /* \"#utility.yul\":4783:4801   */\n      0xffffffffffffffff\n        /* \"#utility.yul\":4775:4781   */\n      dup2\n        /* \"#utility.yul\":4772:4802   */\n      gt\n        /* \"#utility.yul\":4769:4886   */\n      iszero\n      tag_140\n      jumpi\n        /* \"#utility.yul\":4805:4884   */\n      tag_141\n      tag_138\n      jump\t// in\n    tag_141:\n        /* \"#utility.yul\":4769:4886   */\n    tag_140:\n        /* \"#utility.yul\":4910:4988   */\n      tag_142\n        /* \"#utility.yul\":4980:4987   */\n      dup7\n        /* \"#utility.yul\":4971:4977   */\n      dup3\n        /* \"#utility.yul\":4960:4969   */\n      dup8\n        /* \"#utility.yul\":4956:4978   */\n      add\n        /* \"#utility.yul\":4910:4988   */\n      tag_113\n      jump\t// in\n    tag_142:\n        /* \"#utility.yul\":4900:4988   */\n      swap3\n      pop\n        /* \"#utility.yul\":4695:4998   */\n      pop\n        /* \"#utility.yul\":5037:5039   */\n      0x40\n        /* \"#utility.yul\":5063:5116   */\n      tag_143\n        /* \"#utility.yul\":5108:5115   */\n      dup7\n        /* \"#utility.yul\":5099:5105   */\n      dup3\n        /* \"#utility.yul\":5088:5097   */\n      dup8\n        /* \"#utility.yul\":5084:5106   */\n      add\n        /* \"#utility.yul\":5063:5116   */\n      tag_92\n      jump\t// in\n    tag_143:\n        /* \"#utility.yul\":5053:5116   */\n      swap2\n      pop\n        /* \"#utility.yul\":5008:5126   */\n      pop\n        /* \"#utility.yul\":4094:5133   */\n      swap3\n      pop\n      swap3\n      pop\n      swap3\n      jump\t// out\n        /* \"#utility.yul\":5139:6020   */\n    tag_7:\n        /* \"#utility.yul\":5267:5273   */\n      0x00\n        /* \"#utility.yul\":5275:5281   */\n      dup1\n        /* \"#utility.yul\":5283:5289   */\n      0x00\n        /* \"#utility.yul\":5332:5334   */\n      0x60\n        /* \"#utility.yul\":5320:5329   */\n      dup5\n        /* \"#utility.yul\":5311:5318   */\n      dup7\n        /* \"#utility.yul\":5307:5330   */\n      sub\n        /* \"#utility.yul\":5303:5335   */\n      slt\n        /* \"#utility.yul\":5300:5419   */\n      iszero\n      tag_145\n      jumpi\n        /* \"#utility.yul\":5338:5417   */\n      tag_146\n      tag_135\n      jump\t// in\n    tag_146:\n        /* \"#utility.yul\":5300:5419   */\n    tag_145:\n        /* \"#utility.yul\":5486:5487   */\n      0x00\n        /* \"#utility.yul\":5475:5484   */\n      dup5\n        /* \"#utility.yul\":5471:5488   */\n      add\n        /* \"#utility.yul\":5458:5489   */\n      calldataload\n        /* \"#utility.yul\":5516:5534   */\n      0xffffffffffffffff\n        /* \"#utility.yul\":5508:5514   */\n      dup2\n        /* \"#utility.yul\":5505:5535   */\n      gt\n        /* \"#utility.yul\":5502:5619   */\n      iszero\n      tag_147\n      jumpi\n        /* \"#utility.yul\":5538:5617   */\n      tag_148\n      tag_138\n      jump\t// in\n    tag_148:\n        /* \"#utility.yul\":5502:5619   */\n    tag_147:\n        /* \"#utility.yul\":5643:5721   */\n      tag_149\n        /* \"#utility.yul\":5713:5720   */\n      dup7\n        /* \"#utility.yul\":5704:5710   */\n      dup3\n        /* \"#utility.yul\":5693:5702   */\n      dup8\n        /* \"#utility.yul\":5689:5711   */\n      add\n        /* \"#utility.yul\":5643:5721   */\n      tag_107\n      jump\t// in\n    tag_149:\n        /* \"#utility.yul\":5633:5721   */\n      swap4\n      pop\n        /* \"#utility.yul\":5429:5731   */\n      pop\n        /* \"#utility.yul\":5770:5772   */\n      0x20\n        /* \"#utility.yul\":5796:5875   */\n      tag_150\n        /* \"#utility.yul\":5867:5874   */\n      dup7\n        /* \"#utility.yul\":5858:5864   */\n      dup3\n        /* \"#utility.yul\":5847:5856   */\n      dup8\n        /* \"#utility.yul\":5843:5865   */\n      add\n        /* \"#utility.yul\":5796:5875   */\n      tag_123\n      jump\t// in\n    tag_150:\n        /* \"#utility.yul\":5786:5875   */\n      swap3\n      pop\n        /* \"#utility.yul\":5741:5885   */\n      pop\n        /* \"#utility.yul\":5924:5926   */\n      0x40\n        /* \"#utility.yul\":5950:6003   */\n      tag_151\n        /* \"#utility.yul\":5995:6002   */\n      dup7\n        /* \"#utility.yul\":5986:5992   */\n      dup3\n        /* \"#utility.yul\":5975:5984   */\n      dup8\n        /* \"#utility.yul\":5971:5993   */\n      add\n        /* \"#utility.yul\":5950:6003   */\n      tag_80\n      jump\t// in\n    tag_151:\n        /* \"#utility.yul\":5940:6003   */\n      swap2\n      pop\n        /* \"#utility.yul\":5895:6013   */\n      pop\n        /* \"#utility.yul\":5139:6020   */\n      swap3\n      pop\n      swap3\n      pop\n      swap3\n      jump\t// out\n        /* \"#utility.yul\":6026:6580   */\n    tag_46:\n        /* \"#utility.yul\":6121:6127   */\n      0x00\n        /* \"#utility.yul\":6170:6172   */\n      0x20\n        /* \"#utility.yul\":6158:6167   */\n      dup3\n        /* \"#utility.yul\":6149:6156   */\n      dup5\n        /* \"#utility.yul\":6145:6168   */\n      sub\n        /* \"#utility.yul\":6141:6173   */\n      slt\n        /* \"#utility.yul\":6138:6257   */\n      iszero\n      tag_153\n      jumpi\n        /* \"#utility.yul\":6176:6255   */\n      tag_154\n      tag_135\n      jump\t// in\n    tag_154:\n        /* \"#utility.yul\":6138:6257   */\n    tag_153:\n        /* \"#utility.yul\":6317:6318   */\n      0x00\n        /* \"#utility.yul\":6306:6315   */\n      dup3\n        /* \"#utility.yul\":6302:6319   */\n      add\n        /* \"#utility.yul\":6296:6320   */\n      mload\n        /* \"#utility.yul\":6347:6365   */\n      0xffffffffffffffff\n        /* \"#utility.yul\":6339:6345   */\n      dup2\n        /* \"#utility.yul\":6336:6366   */\n      gt\n        /* \"#utility.yul\":6333:6450   */\n      iszero\n      tag_155\n      jumpi\n        /* \"#utility.yul\":6369:6448   */\n      tag_156\n      tag_138\n      jump\t// in\n    tag_156:\n        /* \"#utility.yul\":6333:6450   */\n    tag_155:\n        /* \"#utility.yul\":6474:6563   */\n      tag_157\n        /* \"#utility.yul\":6555:6562   */\n      dup5\n        /* \"#utility.yul\":6546:6552   */\n      dup3\n        /* \"#utility.yul\":6535:6544   */\n      dup6\n        /* \"#utility.yul\":6531:6553   */\n      add\n        /* \"#utility.yul\":6474:6563   */\n      tag_118\n      jump\t// in\n    tag_157:\n        /* \"#utility.yul\":6464:6563   */\n      swap2\n      pop\n        /* \"#utility.yul\":6267:6573   */\n      pop\n        /* \"#utility.yul\":6026:6580   */\n      swap3\n      swap2\n      pop\n      pop\n      jump\t// out\n        /* \"#utility.yul\":6586:6765   */\n    tag_158:\n        /* \"#utility.yul\":6655:6665   */\n      0x00\n        /* \"#utility.yul\":6676:6722   */\n      tag_160\n        /* \"#utility.yul\":6718:6721   */\n      dup4\n        /* \"#utility.yul\":6710:6716   */\n      dup4\n        /* \"#utility.yul\":6676:6722   */\n      tag_161\n      jump\t// in\n    tag_160:\n        /* \"#utility.yul\":6754:6758   */\n      0x20\n        /* \"#utility.yul\":6749:6752   */\n      dup4\n        /* \"#utility.yul\":6745:6759   */\n      add\n        /* \"#utility.yul\":6731:6759   */\n      swap1\n      pop\n        /* \"#utility.yul\":6586:6765   */\n      swap3\n      swap2\n      pop\n      pop\n      jump\t// out\n        /* \"#utility.yul\":6771:6879   */\n    tag_161:\n        /* \"#utility.yul\":6848:6872   */\n      tag_163\n        /* \"#utility.yul\":6866:6871   */\n      dup2\n        /* \"#utility.yul\":6848:6872   */\n      tag_164\n      jump\t// in\n    tag_163:\n        /* \"#utility.yul\":6843:6846   */\n      dup3\n        /* \"#utility.yul\":6836:6873   */\n      mstore\n        /* \"#utility.yul\":6771:6879   */\n      pop\n      pop\n      jump\t// out\n        /* \"#utility.yul\":6885:7003   */\n    tag_165:\n        /* \"#utility.yul\":6972:6996   */\n      tag_167\n        /* \"#utility.yul\":6990:6995   */\n      dup2\n        /* \"#utility.yul\":6972:6996   */\n      tag_164\n      jump\t// in\n    tag_167:\n        /* \"#utility.yul\":6967:6970   */\n      dup3\n        /* \"#utility.yul\":6960:6997   */\n      mstore\n        /* \"#utility.yul\":6885:7003   */\n      pop\n      pop\n      jump\t// out\n        /* \"#utility.yul\":7039:7771   */\n    tag_168:\n        /* \"#utility.yul\":7158:7161   */\n      0x00\n        /* \"#utility.yul\":7187:7241   */\n      tag_170\n        /* \"#utility.yul\":7235:7240   */\n      dup3\n        /* \"#utility.yul\":7187:7241   */\n      tag_171\n      jump\t// in\n    tag_170:\n        /* \"#utility.yul\":7257:7343   */\n      tag_172\n        /* \"#utility.yul\":7336:7342   */\n      dup2\n        /* \"#utility.yul\":7331:7334   */\n      dup6\n        /* \"#utility.yul\":7257:7343   */\n      tag_173\n      jump\t// in\n    tag_172:\n        /* \"#utility.yul\":7250:7343   */\n      swap4\n      pop\n        /* \"#utility.yul\":7367:7423   */\n      tag_174\n        /* \"#utility.yul\":7417:7422   */\n      dup4\n        /* \"#utility.yul\":7367:7423   */\n      tag_175\n      jump\t// in\n    tag_174:\n        /* \"#utility.yul\":7446:7453   */\n      dup1\n        /* \"#utility.yul\":7477:7478   */\n      0x00\n        /* \"#utility.yul\":7462:7746   */\n    tag_176:\n        /* \"#utility.yul\":7487:7493   */\n      dup4\n        /* \"#utility.yul\":7484:7485   */\n      dup2\n        /* \"#utility.yul\":7481:7494   */\n      lt\n        /* \"#utility.yul\":7462:7746   */\n      iszero\n      tag_178\n      jumpi\n        /* \"#utility.yul\":7563:7569   */\n      dup2\n        /* \"#utility.yul\":7557:7570   */\n      mload\n        /* \"#utility.yul\":7590:7653   */\n      tag_179\n        /* \"#utility.yul\":7649:7652   */\n      dup9\n        /* \"#utility.yul\":7634:7647   */\n      dup3\n        /* \"#utility.yul\":7590:7653   */\n      tag_158\n      jump\t// in\n    tag_179:\n        /* \"#utility.yul\":7583:7653   */\n      swap8\n      pop\n        /* \"#utility.yul\":7676:7736   */\n      tag_180\n        /* \"#utility.yul\":7729:7735   */\n      dup4\n        /* \"#utility.yul\":7676:7736   */\n      tag_181\n      jump\t// in\n    tag_180:\n        /* \"#utility.yul\":7666:7736   */\n      swap3\n      pop\n        /* \"#utility.yul\":7522:7746   */\n      pop\n        /* \"#utility.yul\":7509:7510   */\n      0x01\n        /* \"#utility.yul\":7506:7507   */\n      dup2\n        /* \"#utility.yul\":7502:7511   */\n      add\n        /* \"#utility.yul\":7497:7511   */\n      swap1\n      pop\n        /* \"#utility.yul\":7462:7746   */\n      jump(tag_176)\n    tag_178:\n        /* \"#utility.yul\":7466:7480   */\n      pop\n        /* \"#utility.yul\":7762:7765   */\n      dup6\n        /* \"#utility.yul\":7755:7765   */\n      swap4\n      pop\n        /* \"#utility.yul\":7163:7771   */\n      pop\n      pop\n      pop\n        /* \"#utility.yul\":7039:7771   */\n      swap3\n      swap2\n      pop\n      pop\n      jump\t// out\n        /* \"#utility.yul\":7777:8143   */\n    tag_182:\n        /* \"#utility.yul\":7919:7922   */\n      0x00\n        /* \"#utility.yul\":7940:8007   */\n      tag_184\n        /* \"#utility.yul\":8004:8006   */\n      0x0e\n        /* \"#utility.yul\":7999:8002   */\n      dup4\n        /* \"#utility.yul\":7940:8007   */\n      tag_185\n      jump\t// in\n    tag_184:\n        /* \"#utility.yul\":7933:8007   */\n      swap2\n      pop\n        /* \"#utility.yul\":8016:8109   */\n      tag_186\n        /* \"#utility.yul\":8105:8108   */\n      dup3\n        /* \"#utility.yul\":8016:8109   */\n      tag_187\n      jump\t// in\n    tag_186:\n        /* \"#utility.yul\":8134:8136   */\n      0x20\n        /* \"#utility.yul\":8129:8132   */\n      dup3\n        /* \"#utility.yul\":8125:8137   */\n      add\n        /* \"#utility.yul\":8118:8137   */\n      swap1\n      pop\n        /* \"#utility.yul\":7777:8143   */\n      swap2\n      swap1\n      pop\n      jump\t// out\n        /* \"#utility.yul\":8149:8267   */\n    tag_188:\n        /* \"#utility.yul\":8236:8260   */\n      tag_190\n        /* \"#utility.yul\":8254:8259   */\n      dup2\n        /* \"#utility.yul\":8236:8260   */\n      tag_191\n      jump\t// in\n    tag_190:\n        /* \"#utility.yul\":8231:8234   */\n      dup3\n        /* \"#utility.yul\":8224:8261   */\n      mstore\n        /* \"#utility.yul\":8149:8267   */\n      pop\n      pop\n      jump\t// out\n        /* \"#utility.yul\":8273:8692   */\n    tag_19:\n        /* \"#utility.yul\":8439:8443   */\n      0x00\n        /* \"#utility.yul\":8477:8479   */\n      0x20\n        /* \"#utility.yul\":8466:8475   */\n      dup3\n        /* \"#utility.yul\":8462:8480   */\n      add\n        /* \"#utility.yul\":8454:8480   */\n      swap1\n      pop\n        /* \"#utility.yul\":8526:8535   */\n      dup2\n        /* \"#utility.yul\":8520:8524   */\n      dup2\n        /* \"#utility.yul\":8516:8536   */\n      sub\n        /* \"#utility.yul\":8512:8513   */\n      0x00\n        /* \"#utility.yul\":8501:8510   */\n      dup4\n        /* \"#utility.yul\":8497:8514   */\n      add\n        /* \"#utility.yul\":8490:8537   */\n      mstore\n        /* \"#utility.yul\":8554:8685   */\n      tag_193\n        /* \"#utility.yul\":8680:8684   */\n      dup2\n        /* \"#utility.yul\":8554:8685   */\n      tag_182\n      jump\t// in\n    tag_193:\n        /* \"#utility.yul\":8546:8685   */\n      swap1\n      pop\n        /* \"#utility.yul\":8273:8692   */\n      swap2\n      swap1\n      pop\n      jump\t// out\n        /* \"#utility.yul\":8698:9181   */\n    tag_41:\n        /* \"#utility.yul\":8869:8873   */\n      0x00\n        /* \"#utility.yul\":8907:8909   */\n      0x40\n        /* \"#utility.yul\":8896:8905   */\n      dup3\n        /* \"#utility.yul\":8892:8910   */\n      add\n        /* \"#utility.yul\":8884:8910   */\n      swap1\n      pop\n        /* \"#utility.yul\":8920:8991   */\n      tag_195\n        /* \"#utility.yul\":8988:8989   */\n      0x00\n        /* \"#utility.yul\":8977:8986   */\n      dup4\n        /* \"#utility.yul\":8973:8990   */\n      add\n        /* \"#utility.yul\":8964:8970   */\n      dup6\n        /* \"#utility.yul\":8920:8991   */\n      tag_188\n      jump\t// in\n    tag_195:\n        /* \"#utility.yul\":9038:9047   */\n      dup2\n        /* \"#utility.yul\":9032:9036   */\n      dup2\n        /* \"#utility.yul\":9028:9048   */\n      sub\n        /* \"#utility.yul\":9023:9025   */\n      0x20\n        /* \"#utility.yul\":9012:9021   */\n      dup4\n        /* \"#utility.yul\":9008:9026   */\n      add\n        /* \"#utility.yul\":9001:9049   */\n      mstore\n        /* \"#utility.yul\":9066:9174   */\n      tag_196\n        /* \"#utility.yul\":9169:9173   */\n      dup2\n        /* \"#utility.yul\":9160:9166   */\n      dup5\n        /* \"#utility.yul\":9066:9174   */\n      tag_168\n      jump\t// in\n    tag_196:\n        /* \"#utility.yul\":9058:9174   */\n      swap1\n      pop\n        /* \"#utility.yul\":8698:9181   */\n      swap4\n      swap3\n      pop\n      pop\n      pop\n      jump\t// out\n        /* \"#utility.yul\":9187:9891   */\n    tag_52:\n        /* \"#utility.yul\":9414:9418   */\n      0x00\n        /* \"#utility.yul\":9452:9455   */\n      0x80\n        /* \"#utility.yul\":9441:9450   */\n      dup3\n        /* \"#utility.yul\":9437:9456   */\n      add\n        /* \"#utility.yul\":9429:9456   */\n      swap1\n      pop\n        /* \"#utility.yul\":9466:9537   */\n      tag_198\n        /* \"#utility.yul\":9534:9535   */\n      0x00\n        /* \"#utility.yul\":9523:9532   */\n      dup4\n        /* \"#utility.yul\":9519:9536   */\n      add\n        /* \"#utility.yul\":9510:9516   */\n      dup8\n        /* \"#utility.yul\":9466:9537   */\n      tag_188\n      jump\t// in\n    tag_198:\n        /* \"#utility.yul\":9584:9593   */\n      dup2\n        /* \"#utility.yul\":9578:9582   */\n      dup2\n        /* \"#utility.yul\":9574:9594   */\n      sub\n        /* \"#utility.yul\":9569:9571   */\n      0x20\n        /* \"#utility.yul\":9558:9567   */\n      dup4\n        /* \"#utility.yul\":9554:9572   */\n      add\n        /* \"#utility.yul\":9547:9595   */\n      mstore\n        /* \"#utility.yul\":9612:9720   */\n      tag_199\n        /* \"#utility.yul\":9715:9719   */\n      dup2\n        /* \"#utility.yul\":9706:9712   */\n      dup7\n        /* \"#utility.yul\":9612:9720   */\n      tag_168\n      jump\t// in\n    tag_199:\n        /* \"#utility.yul\":9604:9720   */\n      swap1\n      pop\n        /* \"#utility.yul\":9730:9802   */\n      tag_200\n        /* \"#utility.yul\":9798:9800   */\n      0x40\n        /* \"#utility.yul\":9787:9796   */\n      dup4\n        /* \"#utility.yul\":9783:9801   */\n      add\n        /* \"#utility.yul\":9774:9780   */\n      dup6\n        /* \"#utility.yul\":9730:9802   */\n      tag_165\n      jump\t// in\n    tag_200:\n        /* \"#utility.yul\":9812:9884   */\n      tag_201\n        /* \"#utility.yul\":9880:9882   */\n      0x60\n        /* \"#utility.yul\":9869:9878   */\n      dup4\n        /* \"#utility.yul\":9865:9883   */\n      add\n        /* \"#utility.yul\":9856:9862   */\n      dup5\n        /* \"#utility.yul\":9812:9884   */\n      tag_188\n      jump\t// in\n    tag_201:\n        /* \"#utility.yul\":9187:9891   */\n      swap6\n      swap5\n      pop\n      pop\n      pop\n      pop\n      pop\n      jump\t// out\n        /* \"#utility.yul\":9897:10026   */\n    tag_72:\n        /* \"#utility.yul\":9931:9937   */\n      0x00\n        /* \"#utility.yul\":9958:9978   */\n      tag_203\n      tag_204\n      jump\t// in\n    tag_203:\n        /* \"#utility.yul\":9948:9978   */\n      swap1\n      pop\n        /* \"#utility.yul\":9987:10020   */\n      tag_205\n        /* \"#utility.yul\":10015:10019   */\n      dup3\n        /* \"#utility.yul\":10007:10013   */\n      dup3\n        /* \"#utility.yul\":9987:10020   */\n      tag_206\n      jump\t// in\n    tag_205:\n        /* \"#utility.yul\":9897:10026   */\n      swap2\n      swap1\n      pop\n      jump\t// out\n        /* \"#utility.yul\":10032:10107   */\n    tag_204:\n        /* \"#utility.yul\":10065:10071   */\n      0x00\n        /* \"#utility.yul\":10098:10100   */\n      0x40\n        /* \"#utility.yul\":10092:10101   */\n      mload\n        /* \"#utility.yul\":10082:10101   */\n      swap1\n      pop\n        /* \"#utility.yul\":10032:10107   */\n      swap1\n      jump\t// out\n        /* \"#utility.yul\":10113:10424   */\n    tag_71:\n        /* \"#utility.yul\":10190:10194   */\n      0x00\n        /* \"#utility.yul\":10280:10298   */\n      0xffffffffffffffff\n        /* \"#utility.yul\":10272:10278   */\n      dup3\n        /* \"#utility.yul\":10269:10299   */\n      gt\n        /* \"#utility.yul\":10266:10322   */\n      iszero\n      tag_209\n      jumpi\n        /* \"#utility.yul\":10302:10320   */\n      tag_210\n      tag_25\n      jump\t// in\n    tag_210:\n        /* \"#utility.yul\":10266:10322   */\n    tag_209:\n        /* \"#utility.yul\":10352:10356   */\n      0x20\n        /* \"#utility.yul\":10344:10350   */\n      dup3\n        /* \"#utility.yul\":10340:10357   */\n      mul\n        /* \"#utility.yul\":10332:10357   */\n      swap1\n      pop\n        /* \"#utility.yul\":10412:10416   */\n      0x20\n        /* \"#utility.yul\":10406:10410   */\n      dup2\n        /* \"#utility.yul\":10402:10417   */\n      add\n        /* \"#utility.yul\":10394:10417   */\n      swap1\n      pop\n        /* \"#utility.yul\":10113:10424   */\n      swap2\n      swap1\n      pop\n      jump\t// out\n        /* \"#utility.yul\":10430:10741   */\n    tag_85:\n        /* \"#utility.yul\":10507:10511   */\n      0x00\n        /* \"#utility.yul\":10597:10615   */\n      0xffffffffffffffff\n        /* \"#utility.yul\":10589:10595   */\n      dup3\n        /* \"#utility.yul\":10586:10616   */\n      gt\n        /* \"#utility.yul\":10583:10639   */\n      iszero\n      tag_212\n      jumpi\n        /* \"#utility.yul\":10619:10637   */\n      tag_213\n      tag_25\n      jump\t// in\n    tag_213:\n        /* \"#utility.yul\":10583:10639   */\n    tag_212:\n        /* \"#utility.yul\":10669:10673   */\n      0x20\n        /* \"#utility.yul\":10661:10667   */\n      dup3\n        /* \"#utility.yul\":10657:10674   */\n      mul\n        /* \"#utility.yul\":10649:10674   */\n      swap1\n      pop\n        /* \"#utility.yul\":10729:10733   */\n      0x20\n        /* \"#utility.yul\":10723:10727   */\n      dup2\n        /* \"#utility.yul\":10719:10734   */\n      add\n        /* \"#utility.yul\":10711:10734   */\n      swap1\n      pop\n        /* \"#utility.yul\":10430:10741   */\n      swap2\n      swap1\n      pop\n      jump\t// out\n        /* \"#utility.yul\":10747:10879   */\n    tag_175:\n        /* \"#utility.yul\":10814:10818   */\n      0x00\n        /* \"#utility.yul\":10837:10840   */\n      dup2\n        /* \"#utility.yul\":10829:10840   */\n      swap1\n      pop\n        /* \"#utility.yul\":10867:10871   */\n      0x20\n        /* \"#utility.yul\":10862:10865   */\n      dup3\n        /* \"#utility.yul\":10858:10872   */\n      add\n        /* \"#utility.yul\":10850:10872   */\n      swap1\n      pop\n        /* \"#utility.yul\":10747:10879   */\n      swap2\n      swap1\n      pop\n      jump\t// out\n        /* \"#utility.yul\":10885:10999   */\n    tag_171:\n        /* \"#utility.yul\":10952:10958   */\n      0x00\n        /* \"#utility.yul\":10986:10991   */\n      dup2\n        /* \"#utility.yul\":10980:10992   */\n      mload\n        /* \"#utility.yul\":10970:10992   */\n      swap1\n      pop\n        /* \"#utility.yul\":10885:10999   */\n      swap2\n      swap1\n      pop\n      jump\t// out\n        /* \"#utility.yul\":11005:11118   */\n    tag_181:\n        /* \"#utility.yul\":11075:11079   */\n      0x00\n        /* \"#utility.yul\":11107:11111   */\n      0x20\n        /* \"#utility.yul\":11102:11105   */\n      dup3\n        /* \"#utility.yul\":11098:11112   */\n      add\n        /* \"#utility.yul\":11090:11112   */\n      swap1\n      pop\n        /* \"#utility.yul\":11005:11118   */\n      swap2\n      swap1\n      pop\n      jump\t// out\n        /* \"#utility.yul\":11124:11308   */\n    tag_173:\n        /* \"#utility.yul\":11223:11234   */\n      0x00\n        /* \"#utility.yul\":11257:11263   */\n      dup3\n        /* \"#utility.yul\":11252:11255   */\n      dup3\n        /* \"#utility.yul\":11245:11264   */\n      mstore\n        /* \"#utility.yul\":11297:11301   */\n      0x20\n        /* \"#utility.yul\":11292:11295   */\n      dup3\n        /* \"#utility.yul\":11288:11302   */\n      add\n        /* \"#utility.yul\":11273:11302   */\n      swap1\n      pop\n        /* \"#utility.yul\":11124:11308   */\n      swap3\n      swap2\n      pop\n      pop\n      jump\t// out\n        /* \"#utility.yul\":11314:11483   */\n    tag_185:\n        /* \"#utility.yul\":11398:11409   */\n      0x00\n        /* \"#utility.yul\":11432:11438   */\n      dup3\n        /* \"#utility.yul\":11427:11430   */\n      dup3\n        /* \"#utility.yul\":11420:11439   */\n      mstore\n        /* \"#utility.yul\":11472:11476   */\n      0x20\n        /* \"#utility.yul\":11467:11470   */\n      dup3\n        /* \"#utility.yul\":11463:11477   */\n      add\n        /* \"#utility.yul\":11448:11477   */\n      swap1\n      pop\n        /* \"#utility.yul\":11314:11483   */\n      swap3\n      swap2\n      pop\n      pop\n      jump\t// out\n        /* \"#utility.yul\":11489:11794   */\n    tag_50:\n        /* \"#utility.yul\":11529:11532   */\n      0x00\n        /* \"#utility.yul\":11548:11568   */\n      tag_220\n        /* \"#utility.yul\":11566:11567   */\n      dup3\n        /* \"#utility.yul\":11548:11568   */\n      tag_191\n      jump\t// in\n    tag_220:\n        /* \"#utility.yul\":11543:11568   */\n      swap2\n      pop\n        /* \"#utility.yul\":11582:11602   */\n      tag_221\n        /* \"#utility.yul\":11600:11601   */\n      dup4\n        /* \"#utility.yul\":11582:11602   */\n      tag_191\n      jump\t// in\n    tag_221:\n        /* \"#utility.yul\":11577:11602   */\n      swap3\n      pop\n        /* \"#utility.yul\":11736:11737   */\n      dup3\n        /* \"#utility.yul\":11668:11734   */\n      0xffffffffffffffffffffffffffffffffffffffffffffffffffffffffffffffff\n        /* \"#utility.yul\":11664:11738   */\n      sub\n        /* \"#utility.yul\":11661:11662   */\n      dup3\n        /* \"#utility.yul\":11658:11739   */\n      gt\n        /* \"#utility.yul\":11655:11762   */\n      iszero\n      tag_222\n      jumpi\n        /* \"#utility.yul\":11742:11760   */\n      tag_223\n      tag_224\n      jump\t// in\n    tag_223:\n        /* \"#utility.yul\":11655:11762   */\n    tag_222:\n        /* \"#utility.yul\":11786:11787   */\n      dup3\n        /* \"#utility.yul\":11783:11784   */\n      dup3\n        /* \"#utility.yul\":11779:11788   */\n      add\n        /* \"#utility.yul\":11772:11788   */\n      swap1\n      pop\n        /* \"#utility.yul\":11489:11794   */\n      swap3\n      swap2\n      pop\n      pop\n      jump\t// out\n        /* \"#utility.yul\":11800:11985   */\n    tag_39:\n        /* \"#utility.yul\":11840:11841   */\n      0x00\n        /* \"#utility.yul\":11857:11877   */\n      tag_226\n        /* \"#utility.yul\":11875:11876   */\n      dup3\n        /* \"#utility.yul\":11857:11877   */\n      tag_191\n      jump\t// in\n    tag_226:\n        /* \"#utility.yul\":11852:11877   */\n      swap2\n      pop\n        /* \"#utility.yul\":11891:11911   */\n      tag_227\n        /* \"#utility.yul\":11909:11910   */\n      dup4\n        /* \"#utility.yul\":11891:11911   */\n      tag_191\n      jump\t// in\n    tag_227:\n        /* \"#utility.yul\":11886:11911   */\n      swap3\n      pop\n        /* \"#utility.yul\":11930:11931   */\n      dup3\n        /* \"#utility.yul\":11920:11955   */\n      tag_228\n      jumpi\n        /* \"#utility.yul\":11935:11953   */\n      tag_229\n      tag_230\n      jump\t// in\n    tag_229:\n        /* \"#utility.yul\":11920:11955   */\n    tag_228:\n        /* \"#utility.yul\":11977:11978   */\n      dup3\n        /* \"#utility.yul\":11974:11975   */\n      dup3\n        /* \"#utility.yul\":11970:11979   */\n      div\n        /* \"#utility.yul\":11965:11979   */\n      swap1\n      pop\n        /* \"#utility.yul\":11800:11985   */\n      swap3\n      swap2\n      pop\n      pop\n      jump\t// out\n        /* \"#utility.yul\":11991:12339   */\n    tag_37:\n        /* \"#utility.yul\":12031:12038   */\n      0x00\n        /* \"#utility.yul\":12054:12074   */\n      tag_232\n        /* \"#utility.yul\":12072:12073   */\n      dup3\n        /* \"#utility.yul\":12054:12074   */\n      tag_191\n      jump\t// in\n    tag_232:\n        /* \"#utility.yul\":12049:12074   */\n      swap2\n      pop\n        /* \"#utility.yul\":12088:12108   */\n      tag_233\n        /* \"#utility.yul\":12106:12107   */\n      dup4\n        /* \"#utility.yul\":12088:12108   */\n      tag_191\n      jump\t// in\n    tag_233:\n        /* \"#utility.yul\":12083:12108   */\n      swap3\n      pop\n        /* \"#utility.yul\":12276:12277   */\n      dup2\n        /* \"#utility.yul\":12208:12274   */\n      0xffffffffffffffffffffffffffffffffffffffffffffffffffffffffffffffff\n        /* \"#utility.yul\":12204:12278   */\n      div\n        /* \"#utility.yul\":12201:12202   */\n      dup4\n        /* \"#utility.yul\":12198:12279   */\n      gt\n        /* \"#utility.yul\":12193:12194   */\n      dup3\n        /* \"#utility.yul\":12186:12195   */\n      iszero\n        /* \"#utility.yul\":12179:12196   */\n      iszero\n        /* \"#utility.yul\":12175:12280   */\n      and\n        /* \"#utility.yul\":12172:12303   */\n      iszero\n      tag_234\n      jumpi\n        /* \"#utility.yul\":12283:12301   */\n      tag_235\n      tag_224\n      jump\t// in\n    tag_235:\n        /* \"#utility.yul\":12172:12303   */\n    tag_234:\n        /* \"#utility.yul\":12331:12332   */\n      dup3\n        /* \"#utility.yul\":12328:12329   */\n      dup3\n        /* \"#utility.yul\":12324:12333   */\n      mul\n        /* \"#utility.yul\":12313:12333   */\n      swap1\n      pop\n        /* \"#utility.yul\":11991:12339   */\n      swap3\n      swap2\n      pop\n      pop\n      jump\t// out\n        /* \"#utility.yul\":12345:12441   */\n    tag_164:\n        /* \"#utility.yul\":12382:12389   */\n      0x00\n        /* \"#utility.yul\":12411:12435   */\n      tag_237\n        /* \"#utility.yul\":12429:12434   */\n      dup3\n        /* \"#utility.yul\":12411:12435   */\n      tag_238\n      jump\t// in\n    tag_237:\n        /* \"#utility.yul\":12400:12435   */\n      swap1\n      pop\n        /* \"#utility.yul\":12345:12441   */\n      swap2\n      swap1\n      pop\n      jump\t// out\n        /* \"#utility.yul\":12447:12569   */\n    tag_239:\n        /* \"#utility.yul\":12510:12517   */\n      0x00\n        /* \"#utility.yul\":12539:12563   */\n      tag_241\n        /* \"#utility.yul\":12557:12562   */\n      dup3\n        /* \"#utility.yul\":12539:12563   */\n      tag_164\n      jump\t// in\n    tag_241:\n        /* \"#utility.yul\":12528:12563   */\n      swap1\n      pop\n        /* \"#utility.yul\":12447:12569   */\n      swap2\n      swap1\n      pop\n      jump\t// out\n        /* \"#utility.yul\":12575:12701   */\n    tag_238:\n        /* \"#utility.yul\":12612:12619   */\n      0x00\n        /* \"#utility.yul\":12652:12694   */\n      0xffffffffffffffffffffffffffffffffffffffff\n        /* \"#utility.yul\":12645:12650   */\n      dup3\n        /* \"#utility.yul\":12641:12695   */\n      and\n        /* \"#utility.yul\":12630:12695   */\n      swap1\n      pop\n        /* \"#utility.yul\":12575:12701   */\n      swap2\n      swap1\n      pop\n      jump\t// out\n        /* \"#utility.yul\":12707:12784   */\n    tag_191:\n        /* \"#utility.yul\":12744:12751   */\n      0x00\n        /* \"#utility.yul\":12773:12778   */\n      dup2\n        /* \"#utility.yul\":12762:12778   */\n      swap1\n      pop\n        /* \"#utility.yul\":12707:12784   */\n      swap2\n      swap1\n      pop\n      jump\t// out\n        /* \"#utility.yul\":12790:13071   */\n    tag_206:\n        /* \"#utility.yul\":12873:12900   */\n      tag_245\n        /* \"#utility.yul\":12895:12899   */\n      dup3\n        /* \"#utility.yul\":12873:12900   */\n      tag_246\n      jump\t// in\n    tag_245:\n        /* \"#utility.yul\":12865:12871   */\n      dup2\n        /* \"#utility.yul\":12861:12901   */\n      add\n        /* \"#utility.yul\":13003:13009   */\n      dup2\n        /* \"#utility.yul\":12991:13001   */\n      dup2\n        /* \"#utility.yul\":12988:13010   */\n      lt\n        /* \"#utility.yul\":12967:12985   */\n      0xffffffffffffffff\n        /* \"#utility.yul\":12955:12965   */\n      dup3\n        /* \"#utility.yul\":12952:12986   */\n      gt\n        /* \"#utility.yul\":12949:13011   */\n      or\n        /* \"#utility.yul\":12946:13034   */\n      iszero\n      tag_247\n      jumpi\n        /* \"#utility.yul\":13014:13032   */\n      tag_248\n      tag_25\n      jump\t// in\n    tag_248:\n        /* \"#utility.yul\":12946:13034   */\n    tag_247:\n        /* \"#utility.yul\":13054:13064   */\n      dup1\n        /* \"#utility.yul\":13050:13052   */\n      0x40\n        /* \"#utility.yul\":13043:13065   */\n      mstore\n        /* \"#utility.yul\":12833:13071   */\n      pop\n        /* \"#utility.yul\":12790:13071   */\n      pop\n      pop\n      jump\t// out\n        /* \"#utility.yul\":13077:13310   */\n    tag_58:\n        /* \"#utility.yul\":13116:13119   */\n      0x00\n        /* \"#utility.yul\":13139:13163   */\n      tag_250\n        /* \"#utility.yul\":13157:13162   */\n      dup3\n        /* \"#utility.yul\":13139:13163   */\n      tag_191\n      jump\t// in\n    tag_250:\n        /* \"#utility.yul\":13130:13163   */\n      swap2\n      pop\n        /* \"#utility.yul\":13185:13251   */\n      0xffffffffffffffffffffffffffffffffffffffffffffffffffffffffffffffff\n        /* \"#utility.yul\":13178:13183   */\n      dup3\n        /* \"#utility.yul\":13175:13252   */\n      eq\n        /* \"#utility.yul\":13172:13275   */\n      iszero\n      tag_251\n      jumpi\n        /* \"#utility.yul\":13255:13273   */\n      tag_252\n      tag_224\n      jump\t// in\n    tag_252:\n        /* \"#utility.yul\":13172:13275   */\n    tag_251:\n        /* \"#utility.yul\":13302:13303   */\n      0x01\n        /* \"#utility.yul\":13295:13300   */\n      dup3\n        /* \"#utility.yul\":13291:13304   */\n      add\n        /* \"#utility.yul\":13284:13304   */\n      swap1\n      pop\n        /* \"#utility.yul\":13077:13310   */\n      swap2\n      swap1\n      pop\n      jump\t// out\n        /* \"#utility.yul\":13316:13496   */\n    tag_224:\n        /* \"#utility.yul\":13364:13441   */\n      0x4e487b7100000000000000000000000000000000000000000000000000000000\n        /* \"#utility.yul\":13361:13362   */\n      0x00\n        /* \"#utility.yul\":13354:13442   */\n      mstore\n        /* \"#utility.yul\":13461:13465   */\n      0x11\n        /* \"#utility.yul\":13458:13459   */\n      0x04\n        /* \"#utility.yul\":13451:13466   */\n      mstore\n        /* \"#utility.yul\":13485:13489   */\n      0x24\n        /* \"#utility.yul\":13482:13483   */\n      0x00\n        /* \"#utility.yul\":13475:13490   */\n      revert\n        /* \"#utility.yul\":13502:13682   */\n    tag_230:\n        /* \"#utility.yul\":13550:13627   */\n      0x4e487b7100000000000000000000000000000000000000000000000000000000\n        /* \"#utility.yul\":13547:13548   */\n      0x00\n        /* \"#utility.yul\":13540:13628   */\n      mstore\n        /* \"#utility.yul\":13647:13651   */\n      0x12\n        /* \"#utility.yul\":13644:13645   */\n      0x04\n        /* \"#utility.yul\":13637:13652   */\n      mstore\n        /* \"#utility.yul\":13671:13675   */\n      0x24\n        /* \"#utility.yul\":13668:13669   */\n      0x00\n        /* \"#utility.yul\":13661:13676   */\n      revert\n        /* \"#utility.yul\":13688:13868   */\n    tag_29:\n        /* \"#utility.yul\":13736:13813   */\n      0x4e487b7100000000000000000000000000000000000000000000000000000000\n        /* \"#utility.yul\":13733:13734   */\n      0x00\n        /* \"#utility.yul\":13726:13814   */\n      mstore\n        /* \"#utility.yul\":13833:13837   */\n      0x32\n        /* \"#utility.yul\":13830:13831   */\n      0x04\n        /* \"#utility.yul\":13823:13838   */\n      mstore\n        /* \"#utility.yul\":13857:13861   */\n      0x24\n        /* \"#utility.yul\":13854:13855   */\n      0x00\n        /* \"#utility.yul\":13847:13862   */\n      revert\n        /* \"#utility.yul\":13874:14054   */\n    tag_25:\n        /* \"#utility.yul\":13922:13999   */\n      0x4e487b7100000000000000000000000000000000000000000000000000000000\n        /* \"#utility.yul\":13919:13920   */\n      0x00\n        /* \"#utility.yul\":13912:14000   */\n      mstore\n        /* \"#utility.yul\":14019:14023   */\n      0x41\n        /* \"#utility.yul\":14016:14017   */\n      0x04\n        /* \"#utility.yul\":14009:14024   */\n      mstore\n        /* \"#utility.yul\":14043:14047   */\n      0x24\n        /* \"#utility.yul\":14040:14041   */\n      0x00\n        /* \"#utility.yul\":14033:14048   */\n      revert\n        /* \"#utility.yul\":14060:14177   */\n    tag_111:\n        /* \"#utility.yul\":14169:14170   */\n      0x00\n        /* \"#utility.yul\":14166:14167   */\n      dup1\n        /* \"#utility.yul\":14159:14171   */\n      revert\n        /* \"#utility.yul\":14183:14300   */\n    tag_75:\n        /* \"#utility.yul\":14292:14293   */\n      0x00\n        /* \"#utility.yul\":14289:14290   */\n      dup1\n        /* \"#utility.yul\":14282:14294   */\n      revert\n        /* \"#utility.yul\":14306:14423   */\n    tag_138:\n        /* \"#utility.yul\":14415:14416   */\n      0x00\n        /* \"#utility.yul\":14412:14413   */\n      dup1\n        /* \"#utility.yul\":14405:14417   */\n      revert\n        /* \"#utility.yul\":14429:14546   */\n    tag_135:\n        /* \"#utility.yul\":14538:14539   */\n      0x00\n        /* \"#utility.yul\":14535:14536   */\n      dup1\n        /* \"#utility.yul\":14528:14540   */\n      revert\n        /* \"#utility.yul\":14552:14654   */\n    tag_246:\n        /* \"#utility.yul\":14593:14599   */\n      0x00\n        /* \"#utility.yul\":14644:14646   */\n      0x1f\n        /* \"#utility.yul\":14640:14647   */\n      not\n        /* \"#utility.yul\":14635:14637   */\n      0x1f\n        /* \"#utility.yul\":14628:14633   */\n      dup4\n        /* \"#utility.yul\":14624:14638   */\n      add\n        /* \"#utility.yul\":14620:14648   */\n      and\n        /* \"#utility.yul\":14610:14648   */\n      swap1\n      pop\n        /* \"#utility.yul\":14552:14654   */\n      swap2\n      swap1\n      pop\n      jump\t// out\n        /* \"#utility.yul\":14660:14824   */\n    tag_187:\n        /* \"#utility.yul\":14800:14816   */\n      0x496e76616c6964204d6174696321000000000000000000000000000000000000\n        /* \"#utility.yul\":14796:14797   */\n      0x00\n        /* \"#utility.yul\":14788:14794   */\n      dup3\n        /* \"#utility.yul\":14784:14798   */\n      add\n        /* \"#utility.yul\":14777:14817   */\n      mstore\n        /* \"#utility.yul\":14660:14824   */\n      pop\n      jump\t// out\n        /* \"#utility.yul\":14830:14952   */\n    tag_106:\n        /* \"#utility.yul\":14903:14927   */\n      tag_264\n        /* \"#utility.yul\":14921:14926   */\n      dup2\n        /* \"#utility.yul\":14903:14927   */\n      tag_164\n      jump\t// in\n    tag_264:\n        /* \"#utility.yul\":14896:14901   */\n      dup2\n        /* \"#utility.yul\":14893:14928   */\n      eq\n        /* \"#utility.yul\":14883:14946   */\n      tag_265\n      jumpi\n        /* \"#utility.yul\":14942:14943   */\n      0x00\n        /* \"#utility.yul\":14939:14940   */\n      dup1\n        /* \"#utility.yul\":14932:14944   */\n      revert\n        /* \"#utility.yul\":14883:14946   */\n    tag_265:\n        /* \"#utility.yul\":14830:14952   */\n      pop\n      jump\t// out\n        /* \"#utility.yul\":14958:15132   */\n    tag_126:\n        /* \"#utility.yul\":15057:15107   */\n      tag_267\n        /* \"#utility.yul\":15101:15106   */\n      dup2\n        /* \"#utility.yul\":15057:15107   */\n      tag_239\n      jump\t// in\n    tag_267:\n        /* \"#utility.yul\":15050:15055   */\n      dup2\n        /* \"#utility.yul\":15047:15108   */\n      eq\n        /* \"#utility.yul\":15037:15126   */\n      tag_268\n      jumpi\n        /* \"#utility.yul\":15122:15123   */\n      0x00\n        /* \"#utility.yul\":15119:15120   */\n      dup1\n        /* \"#utility.yul\":15112:15124   */\n      revert\n        /* \"#utility.yul\":15037:15126   */\n    tag_268:\n        /* \"#utility.yul\":14958:15132   */\n      pop\n      jump\t// out\n        /* \"#utility.yul\":15138:15260   */\n    tag_129:\n        /* \"#utility.yul\":15211:15235   */\n      tag_270\n        /* \"#utility.yul\":15229:15234   */\n      dup2\n        /* \"#utility.yul\":15211:15235   */\n      tag_191\n      jump\t// in\n    tag_270:\n        /* \"#utility.yul\":15204:15209   */\n      dup2\n        /* \"#utility.yul\":15201:15236   */\n      eq\n        /* \"#utility.yul\":15191:15254   */\n      tag_271\n      jumpi\n        /* \"#utility.yul\":15250:15251   */\n      0x00\n        /* \"#utility.yul\":15247:15248   */\n      dup1\n        /* \"#utility.yul\":15240:15252   */\n      revert\n        /* \"#utility.yul\":15191:15254   */\n    tag_271:\n        /* \"#utility.yul\":15138:15260   */\n      pop\n      jump\t// out\n\n    auxdata: 0xa2646970667358221220cdd5a8cef528281718f0ed86d4485f3030dd49df8afe468adc4d27bf78ecd9a564736f6c63430008070033\n}\n",
				"bytecode": {
					"linkReferences": {},
					"object": "608060405234801561001057600080fd5b50610de0806100206000396000f3fe6080604052600436106100295760003560e01c806390482d721461002e578063f9d5d56014610057575b600080fd5b34801561003a57600080fd5b50610055600480360381019061005091906107d1565b610073565b005b610071600480360381019061006c9190610746565b610111565b005b8260019080519060200190610089929190610471565b5081600260006101000a81548173ffffffffffffffffffffffffffffffffffffffff021916908373ffffffffffffffffffffffffffffffffffffffff16021790555080600360006101000a81548173ffffffffffffffffffffffffffffffffffffffff021916908373ffffffffffffffffffffffffffffffffffffffff160217905550505050565b600083519050813414610159576040517f08c379a00000000000000000000000000000000000000000000000000000000081526004016101509061094f565b60405180910390fd5b60005b8181101561046a576000600267ffffffffffffffff81111561018157610180610ce8565b5b6040519080825280602002602001820160405280156101af5781602001602082028036833780820191505090505b509050600360009054906101000a900473ffffffffffffffffffffffffffffffffffffffff16816000815181106101e9576101e8610cb9565b5b602002602001019073ffffffffffffffffffffffffffffffffffffffff16908173ffffffffffffffffffffffffffffffffffffffff168152505085828151811061023657610235610cb9565b5b60200260200101518160018151811061025257610251610cb9565b5b602002602001019073ffffffffffffffffffffffffffffffffffffffff16908173ffffffffffffffffffffffffffffffffffffffff16815250506000600260009054906101000a900473ffffffffffffffffffffffffffffffffffffffff1673ffffffffffffffffffffffffffffffffffffffff1663d06ca61f6127108886815181106102e2576102e1610cb9565b5b6020026020010151886102f59190610b39565b6102ff9190610b08565b846040518363ffffffff1660e01b815260040161031d92919061096f565b60006040518083038186803b15801561033557600080fd5b505afa158015610349573d6000803e3d6000fd5b505050506040513d6000823e3d601f19601f820116820180604052508101906103729190610840565b9050600260009054906101000a900473ffffffffffffffffffffffffffffffffffffffff1673ffffffffffffffffffffffffffffffffffffffff1663fb3bdb41826001815181106103c6576103c5610cb9565b5b60200260200101518433610e10426103de9190610ab2565b6040518563ffffffff1660e01b81526004016103fd949392919061099f565b600060405180830381600087803b15801561041757600080fd5b505af115801561042b573d6000803e3d6000fd5b505050506040513d6000823e3d601f19601f820116820180604052508101906104549190610840565b505050808061046290610c12565b91505061015c565b5050505050565b8280548282559060005260206000209081019282156104ea579160200282015b828111156104e95782518260006101000a81548173ffffffffffffffffffffffffffffffffffffffff021916908373ffffffffffffffffffffffffffffffffffffffff16021790555091602001919060010190610491565b5b5090506104f791906104fb565b5090565b5b808211156105145760008160009055506001016104fc565b5090565b600061052b61052684610a10565b6109eb565b9050808382526020820190508285602086028201111561054e5761054d610d1c565b5b60005b8581101561057e57816105648882610668565b845260208401935060208301925050600181019050610551565b5050509392505050565b600061059b61059684610a3c565b6109eb565b905080838252602082019050828560208602820111156105be576105bd610d1c565b5b60005b858110156105ee57816105d4888261071c565b8452602084019350602083019250506001810190506105c1565b5050509392505050565b600061060b61060684610a3c565b6109eb565b9050808382526020820190508285602086028201111561062e5761062d610d1c565b5b60005b8581101561065e57816106448882610731565b845260208401935060208301925050600181019050610631565b5050509392505050565b60008135905061067781610d65565b92915050565b600082601f83011261069257610691610d17565b5b81356106a2848260208601610518565b91505092915050565b600082601f8301126106c0576106bf610d17565b5b81356106d0848260208601610588565b91505092915050565b600082601f8301126106ee576106ed610d17565b5b81516106fe8482602086016105f8565b91505092915050565b60008135905061071681610d7c565b92915050565b60008135905061072b81610d93565b92915050565b60008151905061074081610d93565b92915050565b60008060006060848603121561075f5761075e610d26565b5b600084013567ffffffffffffffff81111561077d5761077c610d21565b5b6107898682870161067d565b935050602084013567ffffffffffffffff8111156107aa576107a9610d21565b5b6107b6868287016106ab565b92505060406107c78682870161071c565b9150509250925092565b6000806000606084860312156107ea576107e9610d26565b5b600084013567ffffffffffffffff81111561080857610807610d21565b5b6108148682870161067d565b935050602061082586828701610707565b925050604061083686828701610668565b9150509250925092565b60006020828403121561085657610855610d26565b5b600082015167ffffffffffffffff81111561087457610873610d21565b5b610880848285016106d9565b91505092915050565b600061089583836108a1565b60208301905092915050565b6108aa81610b93565b82525050565b6108b981610b93565b82525050565b60006108ca82610a78565b6108d48185610a90565b93506108df83610a68565b8060005b838110156109105781516108f78882610889565b975061090283610a83565b9250506001810190506108e3565b5085935050505092915050565b600061092a600e83610aa1565b915061093582610d3c565b602082019050919050565b61094981610bd7565b82525050565b600060208201905081810360008301526109688161091d565b9050919050565b60006040820190506109846000830185610940565b818103602083015261099681846108bf565b90509392505050565b60006080820190506109b46000830187610940565b81810360208301526109c681866108bf565b90506109d560408301856108b0565b6109e26060830184610940565b95945050505050565b60006109f5610a06565b9050610a018282610be1565b919050565b6000604051905090565b600067ffffffffffffffff821115610a2b57610a2a610ce8565b5b602082029050602081019050919050565b600067ffffffffffffffff821115610a5757610a56610ce8565b5b602082029050602081019050919050565b6000819050602082019050919050565b600081519050919050565b6000602082019050919050565b600082825260208201905092915050565b600082825260208201905092915050565b6000610abd82610bd7565b9150610ac883610bd7565b9250827fffffffffffffffffffffffffffffffffffffffffffffffffffffffffffffffff03821115610afd57610afc610c5b565b5b828201905092915050565b6000610b1382610bd7565b9150610b1e83610bd7565b925082610b2e57610b2d610c8a565b5b828204905092915050565b6000610b4482610bd7565b9150610b4f83610bd7565b9250817fffffffffffffffffffffffffffffffffffffffffffffffffffffffffffffffff0483118215151615610b8857610b87610c5b565b5b828202905092915050565b6000610b9e82610bb7565b9050919050565b6000610bb082610b93565b9050919050565b600073ffffffffffffffffffffffffffffffffffffffff82169050919050565b6000819050919050565b610bea82610d2b565b810181811067ffffffffffffffff82111715610c0957610c08610ce8565b5b80604052505050565b6000610c1d82610bd7565b91507fffffffffffffffffffffffffffffffffffffffffffffffffffffffffffffffff821415610c5057610c4f610c5b565b5b600182019050919050565b7f4e487b7100000000000000000000000000000000000000000000000000000000600052601160045260246000fd5b7f4e487b7100000000000000000000000000000000000000000000000000000000600052601260045260246000fd5b7f4e487b7100000000000000000000000000000000000000000000000000000000600052603260045260246000fd5b7f4e487b7100000000000000000000000000000000000000000000000000000000600052604160045260246000fd5b600080fd5b600080fd5b600080fd5b600080fd5b6000601f19601f8301169050919050565b7f496e76616c6964204d6174696321000000000000000000000000000000000000600082015250565b610d6e81610b93565b8114610d7957600080fd5b50565b610d8581610ba5565b8114610d9057600080fd5b50565b610d9c81610bd7565b8114610da757600080fd5b5056fea2646970667358221220cdd5a8cef528281718f0ed86d4485f3030dd49df8afe468adc4d27bf78ecd9a564736f6c63430008070033",
					"opcodes": "PUSH1 0x80 PUSH1 0x40 MSTORE CALLVALUE DUP1 ISZERO PUSH2 0x10 JUMPI PUSH1 0x0 DUP1 REVERT JUMPDEST POP PUSH2 0xDE0 DUP1 PUSH2 0x20 PUSH1 0x0 CODECOPY PUSH1 0x0 RETURN INVALID PUSH1 0x80 PUSH1 0x40 MSTORE PUSH1 0x4 CALLDATASIZE LT PUSH2 0x29 JUMPI PUSH1 0x0 CALLDATALOAD PUSH1 0xE0 SHR DUP1 PUSH4 0x90482D72 EQ PUSH2 0x2E JUMPI DUP1 PUSH4 0xF9D5D560 EQ PUSH2 0x57 JUMPI JUMPDEST PUSH1 0x0 DUP1 REVERT JUMPDEST CALLVALUE DUP1 ISZERO PUSH2 0x3A JUMPI PUSH1 0x0 DUP1 REVERT JUMPDEST POP PUSH2 0x55 PUSH1 0x4 DUP1 CALLDATASIZE SUB DUP2 ADD SWAP1 PUSH2 0x50 SWAP2 SWAP1 PUSH2 0x7D1 JUMP JUMPDEST PUSH2 0x73 JUMP JUMPDEST STOP JUMPDEST PUSH2 0x71 PUSH1 0x4 DUP1 CALLDATASIZE SUB DUP2 ADD SWAP1 PUSH2 0x6C SWAP2 SWAP1 PUSH2 0x746 JUMP JUMPDEST PUSH2 0x111 JUMP JUMPDEST STOP JUMPDEST DUP3 PUSH1 0x1 SWAP1 DUP1 MLOAD SWAP1 PUSH1 0x20 ADD SWAP1 PUSH2 0x89 SWAP3 SWAP2 SWAP1 PUSH2 0x471 JUMP JUMPDEST POP DUP2 PUSH1 0x2 PUSH1 0x0 PUSH2 0x100 EXP DUP2 SLOAD DUP2 PUSH20 0xFFFFFFFFFFFFFFFFFFFFFFFFFFFFFFFFFFFFFFFF MUL NOT AND SWAP1 DUP4 PUSH20 0xFFFFFFFFFFFFFFFFFFFFFFFFFFFFFFFFFFFFFFFF AND MUL OR SWAP1 SSTORE POP DUP1 PUSH1 0x3 PUSH1 0x0 PUSH2 0x100 EXP DUP2 SLOAD DUP2 PUSH20 0xFFFFFFFFFFFFFFFFFFFFFFFFFFFFFFFFFFFFFFFF MUL NOT AND SWAP1 DUP4 PUSH20 0xFFFFFFFFFFFFFFFFFFFFFFFFFFFFFFFFFFFFFFFF AND MUL OR SWAP1 SSTORE POP POP POP POP JUMP JUMPDEST PUSH1 0x0 DUP4 MLOAD SWAP1 POP DUP2 CALLVALUE EQ PUSH2 0x159 JUMPI PUSH1 0x40 MLOAD PUSH32 0x8C379A000000000000000000000000000000000000000000000000000000000 DUP2 MSTORE PUSH1 0x4 ADD PUSH2 0x150 SWAP1 PUSH2 0x94F JUMP JUMPDEST PUSH1 0x40 MLOAD DUP1 SWAP2 SUB SWAP1 REVERT JUMPDEST PUSH1 0x0 JUMPDEST DUP2 DUP2 LT ISZERO PUSH2 0x46A JUMPI PUSH1 0x0 PUSH1 0x2 PUSH8 0xFFFFFFFFFFFFFFFF DUP2 GT ISZERO PUSH2 0x181 JUMPI PUSH2 0x180 PUSH2 0xCE8 JUMP JUMPDEST JUMPDEST PUSH1 0x40 MLOAD SWAP1 DUP1 DUP3 MSTORE DUP1 PUSH1 0x20 MUL PUSH1 0x20 ADD DUP3 ADD PUSH1 0x40 MSTORE DUP1 ISZERO PUSH2 0x1AF JUMPI DUP2 PUSH1 0x20 ADD PUSH1 0x20 DUP3 MUL DUP1 CALLDATASIZE DUP4 CALLDATACOPY DUP1 DUP3 ADD SWAP2 POP POP SWAP1 POP JUMPDEST POP SWAP1 POP PUSH1 0x3 PUSH1 0x0 SWAP1 SLOAD SWAP1 PUSH2 0x100 EXP SWAP1 DIV PUSH20 0xFFFFFFFFFFFFFFFFFFFFFFFFFFFFFFFFFFFFFFFF AND DUP2 PUSH1 0x0 DUP2 MLOAD DUP2 LT PUSH2 0x1E9 JUMPI PUSH2 0x1E8 PUSH2 0xCB9 JUMP JUMPDEST JUMPDEST PUSH1 0x20 MUL PUSH1 0x20 ADD ADD SWAP1 PUSH20 0xFFFFFFFFFFFFFFFFFFFFFFFFFFFFFFFFFFFFFFFF AND SWAP1 DUP2 PUSH20 0xFFFFFFFFFFFFFFFFFFFFFFFFFFFFFFFFFFFFFFFF AND DUP2 MSTORE POP POP DUP6 DUP3 DUP2 MLOAD DUP2 LT PUSH2 0x236 JUMPI PUSH2 0x235 PUSH2 0xCB9 JUMP JUMPDEST JUMPDEST PUSH1 0x20 MUL PUSH1 0x20 ADD ADD MLOAD DUP2 PUSH1 0x1 DUP2 MLOAD DUP2 LT PUSH2 0x252 JUMPI PUSH2 0x251 PUSH2 0xCB9 JUMP JUMPDEST JUMPDEST PUSH1 0x20 MUL PUSH1 0x20 ADD ADD SWAP1 PUSH20 0xFFFFFFFFFFFFFFFFFFFFFFFFFFFFFFFFFFFFFFFF AND SWAP1 DUP2 PUSH20 0xFFFFFFFFFFFFFFFFFFFFFFFFFFFFFFFFFFFFFFFF AND DUP2 MSTORE POP POP PUSH1 0x0 PUSH1 0x2 PUSH1 0x0 SWAP1 SLOAD SWAP1 PUSH2 0x100 EXP SWAP1 DIV PUSH20 0xFFFFFFFFFFFFFFFFFFFFFFFFFFFFFFFFFFFFFFFF AND PUSH20 0xFFFFFFFFFFFFFFFFFFFFFFFFFFFFFFFFFFFFFFFF AND PUSH4 0xD06CA61F PUSH2 0x2710 DUP9 DUP7 DUP2 MLOAD DUP2 LT PUSH2 0x2E2 JUMPI PUSH2 0x2E1 PUSH2 0xCB9 JUMP JUMPDEST JUMPDEST PUSH1 0x20 MUL PUSH1 0x20 ADD ADD MLOAD DUP9 PUSH2 0x2F5 SWAP2 SWAP1 PUSH2 0xB39 JUMP JUMPDEST PUSH2 0x2FF SWAP2 SWAP1 PUSH2 0xB08 JUMP JUMPDEST DUP5 PUSH1 0x40 MLOAD DUP4 PUSH4 0xFFFFFFFF AND PUSH1 0xE0 SHL DUP2 MSTORE PUSH1 0x4 ADD PUSH2 0x31D SWAP3 SWAP2 SWAP1 PUSH2 0x96F JUMP JUMPDEST PUSH1 0x0 PUSH1 0x40 MLOAD DUP1 DUP4 SUB DUP2 DUP7 DUP1 EXTCODESIZE ISZERO DUP1 ISZERO PUSH2 0x335 JUMPI PUSH1 0x0 DUP1 REVERT JUMPDEST POP GAS STATICCALL ISZERO DUP1 ISZERO PUSH2 0x349 JUMPI RETURNDATASIZE PUSH1 0x0 DUP1 RETURNDATACOPY RETURNDATASIZE PUSH1 0x0 REVERT JUMPDEST POP POP POP POP PUSH1 0x40 MLOAD RETURNDATASIZE PUSH1 0x0 DUP3 RETURNDATACOPY RETURNDATASIZE PUSH1 0x1F NOT PUSH1 0x1F DUP3 ADD AND DUP3 ADD DUP1 PUSH1 0x40 MSTORE POP DUP2 ADD SWAP1 PUSH2 0x372 SWAP2 SWAP1 PUSH2 0x840 JUMP JUMPDEST SWAP1 POP PUSH1 0x2 PUSH1 0x0 SWAP1 SLOAD SWAP1 PUSH2 0x100 EXP SWAP1 DIV PUSH20 0xFFFFFFFFFFFFFFFFFFFFFFFFFFFFFFFFFFFFFFFF AND PUSH20 0xFFFFFFFFFFFFFFFFFFFFFFFFFFFFFFFFFFFFFFFF AND PUSH4 0xFB3BDB41 DUP3 PUSH1 0x1 DUP2 MLOAD DUP2 LT PUSH2 0x3C6 JUMPI PUSH2 0x3C5 PUSH2 0xCB9 JUMP JUMPDEST JUMPDEST PUSH1 0x20 MUL PUSH1 0x20 ADD ADD MLOAD DUP5 CALLER PUSH2 0xE10 TIMESTAMP PUSH2 0x3DE SWAP2 SWAP1 PUSH2 0xAB2 JUMP JUMPDEST PUSH1 0x40 MLOAD DUP6 PUSH4 0xFFFFFFFF AND PUSH1 0xE0 SHL DUP2 MSTORE PUSH1 0x4 ADD PUSH2 0x3FD SWAP5 SWAP4 SWAP3 SWAP2 SWAP1 PUSH2 0x99F JUMP JUMPDEST PUSH1 0x0 PUSH1 0x40 MLOAD DUP1 DUP4 SUB DUP2 PUSH1 0x0 DUP8 DUP1 EXTCODESIZE ISZERO DUP1 ISZERO PUSH2 0x417 JUMPI PUSH1 0x0 DUP1 REVERT JUMPDEST POP GAS CALL ISZERO DUP1 ISZERO PUSH2 0x42B JUMPI RETURNDATASIZE PUSH1 0x0 DUP1 RETURNDATACOPY RETURNDATASIZE PUSH1 0x0 REVERT JUMPDEST POP POP POP POP PUSH1 0x40 MLOAD RETURNDATASIZE PUSH1 0x0 DUP3 RETURNDATACOPY RETURNDATASIZE PUSH1 0x1F NOT PUSH1 0x1F DUP3 ADD AND DUP3 ADD DUP1 PUSH1 0x40 MSTORE POP DUP2 ADD SWAP1 PUSH2 0x454 SWAP2 SWAP1 PUSH2 0x840 JUMP JUMPDEST POP POP POP DUP1 DUP1 PUSH2 0x462 SWAP1 PUSH2 0xC12 JUMP JUMPDEST SWAP2 POP POP PUSH2 0x15C JUMP JUMPDEST POP POP POP POP POP JUMP JUMPDEST DUP3 DUP1 SLOAD DUP3 DUP3 SSTORE SWAP1 PUSH1 0x0 MSTORE PUSH1 0x20 PUSH1 0x0 KECCAK256 SWAP1 DUP2 ADD SWAP3 DUP3 ISZERO PUSH2 0x4EA JUMPI SWAP2 PUSH1 0x20 MUL DUP3 ADD JUMPDEST DUP3 DUP2 GT ISZERO PUSH2 0x4E9 JUMPI DUP3 MLOAD DUP3 PUSH1 0x0 PUSH2 0x100 EXP DUP2 SLOAD DUP2 PUSH20 0xFFFFFFFFFFFFFFFFFFFFFFFFFFFFFFFFFFFFFFFF MUL NOT AND SWAP1 DUP4 PUSH20 0xFFFFFFFFFFFFFFFFFFFFFFFFFFFFFFFFFFFFFFFF AND MUL OR SWAP1 SSTORE POP SWAP2 PUSH1 0x20 ADD SWAP2 SWAP1 PUSH1 0x1 ADD SWAP1 PUSH2 0x491 JUMP JUMPDEST JUMPDEST POP SWAP1 POP PUSH2 0x4F7 SWAP2 SWAP1 PUSH2 0x4FB JUMP JUMPDEST POP SWAP1 JUMP JUMPDEST JUMPDEST DUP1 DUP3 GT ISZERO PUSH2 0x514 JUMPI PUSH1 0x0 DUP2 PUSH1 0x0 SWAP1 SSTORE POP PUSH1 0x1 ADD PUSH2 0x4FC JUMP JUMPDEST POP SWAP1 JUMP JUMPDEST PUSH1 0x0 PUSH2 0x52B PUSH2 0x526 DUP5 PUSH2 0xA10 JUMP JUMPDEST PUSH2 0x9EB JUMP JUMPDEST SWAP1 POP DUP1 DUP4 DUP3 MSTORE PUSH1 0x20 DUP3 ADD SWAP1 POP DUP3 DUP6 PUSH1 0x20 DUP7 MUL DUP3 ADD GT ISZERO PUSH2 0x54E JUMPI PUSH2 0x54D PUSH2 0xD1C JUMP JUMPDEST JUMPDEST PUSH1 0x0 JUMPDEST DUP6 DUP2 LT ISZERO PUSH2 0x57E JUMPI DUP2 PUSH2 0x564 DUP9 DUP3 PUSH2 0x668 JUMP JUMPDEST DUP5 MSTORE PUSH1 0x20 DUP5 ADD SWAP4 POP PUSH1 0x20 DUP4 ADD SWAP3 POP POP PUSH1 0x1 DUP2 ADD SWAP1 POP PUSH2 0x551 JUMP JUMPDEST POP POP POP SWAP4 SWAP3 POP POP POP JUMP JUMPDEST PUSH1 0x0 PUSH2 0x59B PUSH2 0x596 DUP5 PUSH2 0xA3C JUMP JUMPDEST PUSH2 0x9EB JUMP JUMPDEST SWAP1 POP DUP1 DUP4 DUP3 MSTORE PUSH1 0x20 DUP3 ADD SWAP1 POP DUP3 DUP6 PUSH1 0x20 DUP7 MUL DUP3 ADD GT ISZERO PUSH2 0x5BE JUMPI PUSH2 0x5BD PUSH2 0xD1C JUMP JUMPDEST JUMPDEST PUSH1 0x0 JUMPDEST DUP6 DUP2 LT ISZERO PUSH2 0x5EE JUMPI DUP2 PUSH2 0x5D4 DUP9 DUP3 PUSH2 0x71C JUMP JUMPDEST DUP5 MSTORE PUSH1 0x20 DUP5 ADD SWAP4 POP PUSH1 0x20 DUP4 ADD SWAP3 POP POP PUSH1 0x1 DUP2 ADD SWAP1 POP PUSH2 0x5C1 JUMP JUMPDEST POP POP POP SWAP4 SWAP3 POP POP POP JUMP JUMPDEST PUSH1 0x0 PUSH2 0x60B PUSH2 0x606 DUP5 PUSH2 0xA3C JUMP JUMPDEST PUSH2 0x9EB JUMP JUMPDEST SWAP1 POP DUP1 DUP4 DUP3 MSTORE PUSH1 0x20 DUP3 ADD SWAP1 POP DUP3 DUP6 PUSH1 0x20 DUP7 MUL DUP3 ADD GT ISZERO PUSH2 0x62E JUMPI PUSH2 0x62D PUSH2 0xD1C JUMP JUMPDEST JUMPDEST PUSH1 0x0 JUMPDEST DUP6 DUP2 LT ISZERO PUSH2 0x65E JUMPI DUP2 PUSH2 0x644 DUP9 DUP3 PUSH2 0x731 JUMP JUMPDEST DUP5 MSTORE PUSH1 0x20 DUP5 ADD SWAP4 POP PUSH1 0x20 DUP4 ADD SWAP3 POP POP PUSH1 0x1 DUP2 ADD SWAP1 POP PUSH2 0x631 JUMP JUMPDEST POP POP POP SWAP4 SWAP3 POP POP POP JUMP JUMPDEST PUSH1 0x0 DUP2 CALLDATALOAD SWAP1 POP PUSH2 0x677 DUP2 PUSH2 0xD65 JUMP JUMPDEST SWAP3 SWAP2 POP POP JUMP JUMPDEST PUSH1 0x0 DUP3 PUSH1 0x1F DUP4 ADD SLT PUSH2 0x692 JUMPI PUSH2 0x691 PUSH2 0xD17 JUMP JUMPDEST JUMPDEST DUP2 CALLDATALOAD PUSH2 0x6A2 DUP5 DUP3 PUSH1 0x20 DUP7 ADD PUSH2 0x518 JUMP JUMPDEST SWAP2 POP POP SWAP3 SWAP2 POP POP JUMP JUMPDEST PUSH1 0x0 DUP3 PUSH1 0x1F DUP4 ADD SLT PUSH2 0x6C0 JUMPI PUSH2 0x6BF PUSH2 0xD17 JUMP JUMPDEST JUMPDEST DUP2 CALLDATALOAD PUSH2 0x6D0 DUP5 DUP3 PUSH1 0x20 DUP7 ADD PUSH2 0x588 JUMP JUMPDEST SWAP2 POP POP SWAP3 SWAP2 POP POP JUMP JUMPDEST PUSH1 0x0 DUP3 PUSH1 0x1F DUP4 ADD SLT PUSH2 0x6EE JUMPI PUSH2 0x6ED PUSH2 0xD17 JUMP JUMPDEST JUMPDEST DUP2 MLOAD PUSH2 0x6FE DUP5 DUP3 PUSH1 0x20 DUP7 ADD PUSH2 0x5F8 JUMP JUMPDEST SWAP2 POP POP SWAP3 SWAP2 POP POP JUMP JUMPDEST PUSH1 0x0 DUP2 CALLDATALOAD SWAP1 POP PUSH2 0x716 DUP2 PUSH2 0xD7C JUMP JUMPDEST SWAP3 SWAP2 POP POP JUMP JUMPDEST PUSH1 0x0 DUP2 CALLDATALOAD SWAP1 POP PUSH2 0x72B DUP2 PUSH2 0xD93 JUMP JUMPDEST SWAP3 SWAP2 POP POP JUMP JUMPDEST PUSH1 0x0 DUP2 MLOAD SWAP1 POP PUSH2 0x740 DUP2 PUSH2 0xD93 JUMP JUMPDEST SWAP3 SWAP2 POP POP JUMP JUMPDEST PUSH1 0x0 DUP1 PUSH1 0x0 PUSH1 0x60 DUP5 DUP7 SUB SLT ISZERO PUSH2 0x75F JUMPI PUSH2 0x75E PUSH2 0xD26 JUMP JUMPDEST JUMPDEST PUSH1 0x0 DUP5 ADD CALLDATALOAD PUSH8 0xFFFFFFFFFFFFFFFF DUP2 GT ISZERO PUSH2 0x77D JUMPI PUSH2 0x77C PUSH2 0xD21 JUMP JUMPDEST JUMPDEST PUSH2 0x789 DUP7 DUP3 DUP8 ADD PUSH2 0x67D JUMP JUMPDEST SWAP4 POP POP PUSH1 0x20 DUP5 ADD CALLDATALOAD PUSH8 0xFFFFFFFFFFFFFFFF DUP2 GT ISZERO PUSH2 0x7AA JUMPI PUSH2 0x7A9 PUSH2 0xD21 JUMP JUMPDEST JUMPDEST PUSH2 0x7B6 DUP7 DUP3 DUP8 ADD PUSH2 0x6AB JUMP JUMPDEST SWAP3 POP POP PUSH1 0x40 PUSH2 0x7C7 DUP7 DUP3 DUP8 ADD PUSH2 0x71C JUMP JUMPDEST SWAP2 POP POP SWAP3 POP SWAP3 POP SWAP3 JUMP JUMPDEST PUSH1 0x0 DUP1 PUSH1 0x0 PUSH1 0x60 DUP5 DUP7 SUB SLT ISZERO PUSH2 0x7EA JUMPI PUSH2 0x7E9 PUSH2 0xD26 JUMP JUMPDEST JUMPDEST PUSH1 0x0 DUP5 ADD CALLDATALOAD PUSH8 0xFFFFFFFFFFFFFFFF DUP2 GT ISZERO PUSH2 0x808 JUMPI PUSH2 0x807 PUSH2 0xD21 JUMP JUMPDEST JUMPDEST PUSH2 0x814 DUP7 DUP3 DUP8 ADD PUSH2 0x67D JUMP JUMPDEST SWAP4 POP POP PUSH1 0x20 PUSH2 0x825 DUP7 DUP3 DUP8 ADD PUSH2 0x707 JUMP JUMPDEST SWAP3 POP POP PUSH1 0x40 PUSH2 0x836 DUP7 DUP3 DUP8 ADD PUSH2 0x668 JUMP JUMPDEST SWAP2 POP POP SWAP3 POP SWAP3 POP SWAP3 JUMP JUMPDEST PUSH1 0x0 PUSH1 0x20 DUP3 DUP5 SUB SLT ISZERO PUSH2 0x856 JUMPI PUSH2 0x855 PUSH2 0xD26 JUMP JUMPDEST JUMPDEST PUSH1 0x0 DUP3 ADD MLOAD PUSH8 0xFFFFFFFFFFFFFFFF DUP2 GT ISZERO PUSH2 0x874 JUMPI PUSH2 0x873 PUSH2 0xD21 JUMP JUMPDEST JUMPDEST PUSH2 0x880 DUP5 DUP3 DUP6 ADD PUSH2 0x6D9 JUMP JUMPDEST SWAP2 POP POP SWAP3 SWAP2 POP POP JUMP JUMPDEST PUSH1 0x0 PUSH2 0x895 DUP4 DUP4 PUSH2 0x8A1 JUMP JUMPDEST PUSH1 0x20 DUP4 ADD SWAP1 POP SWAP3 SWAP2 POP POP JUMP JUMPDEST PUSH2 0x8AA DUP2 PUSH2 0xB93 JUMP JUMPDEST DUP3 MSTORE POP POP JUMP JUMPDEST PUSH2 0x8B9 DUP2 PUSH2 0xB93 JUMP JUMPDEST DUP3 MSTORE POP POP JUMP JUMPDEST PUSH1 0x0 PUSH2 0x8CA DUP3 PUSH2 0xA78 JUMP JUMPDEST PUSH2 0x8D4 DUP2 DUP6 PUSH2 0xA90 JUMP JUMPDEST SWAP4 POP PUSH2 0x8DF DUP4 PUSH2 0xA68 JUMP JUMPDEST DUP1 PUSH1 0x0 JUMPDEST DUP4 DUP2 LT ISZERO PUSH2 0x910 JUMPI DUP2 MLOAD PUSH2 0x8F7 DUP9 DUP3 PUSH2 0x889 JUMP JUMPDEST SWAP8 POP PUSH2 0x902 DUP4 PUSH2 0xA83 JUMP JUMPDEST SWAP3 POP POP PUSH1 0x1 DUP2 ADD SWAP1 POP PUSH2 0x8E3 JUMP JUMPDEST POP DUP6 SWAP4 POP POP POP POP SWAP3 SWAP2 POP POP JUMP JUMPDEST PUSH1 0x0 PUSH2 0x92A PUSH1 0xE DUP4 PUSH2 0xAA1 JUMP JUMPDEST SWAP2 POP PUSH2 0x935 DUP3 PUSH2 0xD3C JUMP JUMPDEST PUSH1 0x20 DUP3 ADD SWAP1 POP SWAP2 SWAP1 POP JUMP JUMPDEST PUSH2 0x949 DUP2 PUSH2 0xBD7 JUMP JUMPDEST DUP3 MSTORE POP POP JUMP JUMPDEST PUSH1 0x0 PUSH1 0x20 DUP3 ADD SWAP1 POP DUP2 DUP2 SUB PUSH1 0x0 DUP4 ADD MSTORE PUSH2 0x968 DUP2 PUSH2 0x91D JUMP JUMPDEST SWAP1 POP SWAP2 SWAP1 POP JUMP JUMPDEST PUSH1 0x0 PUSH1 0x40 DUP3 ADD SWAP1 POP PUSH2 0x984 PUSH1 0x0 DUP4 ADD DUP6 PUSH2 0x940 JUMP JUMPDEST DUP2 DUP2 SUB PUSH1 0x20 DUP4 ADD MSTORE PUSH2 0x996 DUP2 DUP5 PUSH2 0x8BF JUMP JUMPDEST SWAP1 POP SWAP4 SWAP3 POP POP POP JUMP JUMPDEST PUSH1 0x0 PUSH1 0x80 DUP3 ADD SWAP1 POP PUSH2 0x9B4 PUSH1 0x0 DUP4 ADD DUP8 PUSH2 0x940 JUMP JUMPDEST DUP2 DUP2 SUB PUSH1 0x20 DUP4 ADD MSTORE PUSH2 0x9C6 DUP2 DUP7 PUSH2 0x8BF JUMP JUMPDEST SWAP1 POP PUSH2 0x9D5 PUSH1 0x40 DUP4 ADD DUP6 PUSH2 0x8B0 JUMP JUMPDEST PUSH2 0x9E2 PUSH1 0x60 DUP4 ADD DUP5 PUSH2 0x940 JUMP JUMPDEST SWAP6 SWAP5 POP POP POP POP POP JUMP JUMPDEST PUSH1 0x0 PUSH2 0x9F5 PUSH2 0xA06 JUMP JUMPDEST SWAP1 POP PUSH2 0xA01 DUP3 DUP3 PUSH2 0xBE1 JUMP JUMPDEST SWAP2 SWAP1 POP JUMP JUMPDEST PUSH1 0x0 PUSH1 0x40 MLOAD SWAP1 POP SWAP1 JUMP JUMPDEST PUSH1 0x0 PUSH8 0xFFFFFFFFFFFFFFFF DUP3 GT ISZERO PUSH2 0xA2B JUMPI PUSH2 0xA2A PUSH2 0xCE8 JUMP JUMPDEST JUMPDEST PUSH1 0x20 DUP3 MUL SWAP1 POP PUSH1 0x20 DUP2 ADD SWAP1 POP SWAP2 SWAP1 POP JUMP JUMPDEST PUSH1 0x0 PUSH8 0xFFFFFFFFFFFFFFFF DUP3 GT ISZERO PUSH2 0xA57 JUMPI PUSH2 0xA56 PUSH2 0xCE8 JUMP JUMPDEST JUMPDEST PUSH1 0x20 DUP3 MUL SWAP1 POP PUSH1 0x20 DUP2 ADD SWAP1 POP SWAP2 SWAP1 POP JUMP JUMPDEST PUSH1 0x0 DUP2 SWAP1 POP PUSH1 0x20 DUP3 ADD SWAP1 POP SWAP2 SWAP1 POP JUMP JUMPDEST PUSH1 0x0 DUP2 MLOAD SWAP1 POP SWAP2 SWAP1 POP JUMP JUMPDEST PUSH1 0x0 PUSH1 0x20 DUP3 ADD SWAP1 POP SWAP2 SWAP1 POP JUMP JUMPDEST PUSH1 0x0 DUP3 DUP3 MSTORE PUSH1 0x20 DUP3 ADD SWAP1 POP SWAP3 SWAP2 POP POP JUMP JUMPDEST PUSH1 0x0 DUP3 DUP3 MSTORE PUSH1 0x20 DUP3 ADD SWAP1 POP SWAP3 SWAP2 POP POP JUMP JUMPDEST PUSH1 0x0 PUSH2 0xABD DUP3 PUSH2 0xBD7 JUMP JUMPDEST SWAP2 POP PUSH2 0xAC8 DUP4 PUSH2 0xBD7 JUMP JUMPDEST SWAP3 POP DUP3 PUSH32 0xFFFFFFFFFFFFFFFFFFFFFFFFFFFFFFFFFFFFFFFFFFFFFFFFFFFFFFFFFFFFFFFF SUB DUP3 GT ISZERO PUSH2 0xAFD JUMPI PUSH2 0xAFC PUSH2 0xC5B JUMP JUMPDEST JUMPDEST DUP3 DUP3 ADD SWAP1 POP SWAP3 SWAP2 POP POP JUMP JUMPDEST PUSH1 0x0 PUSH2 0xB13 DUP3 PUSH2 0xBD7 JUMP JUMPDEST SWAP2 POP PUSH2 0xB1E DUP4 PUSH2 0xBD7 JUMP JUMPDEST SWAP3 POP DUP3 PUSH2 0xB2E JUMPI PUSH2 0xB2D PUSH2 0xC8A JUMP JUMPDEST JUMPDEST DUP3 DUP3 DIV SWAP1 POP SWAP3 SWAP2 POP POP JUMP JUMPDEST PUSH1 0x0 PUSH2 0xB44 DUP3 PUSH2 0xBD7 JUMP JUMPDEST SWAP2 POP PUSH2 0xB4F DUP4 PUSH2 0xBD7 JUMP JUMPDEST SWAP3 POP DUP2 PUSH32 0xFFFFFFFFFFFFFFFFFFFFFFFFFFFFFFFFFFFFFFFFFFFFFFFFFFFFFFFFFFFFFFFF DIV DUP4 GT DUP3 ISZERO ISZERO AND ISZERO PUSH2 0xB88 JUMPI PUSH2 0xB87 PUSH2 0xC5B JUMP JUMPDEST JUMPDEST DUP3 DUP3 MUL SWAP1 POP SWAP3 SWAP2 POP POP JUMP JUMPDEST PUSH1 0x0 PUSH2 0xB9E DUP3 PUSH2 0xBB7 JUMP JUMPDEST SWAP1 POP SWAP2 SWAP1 POP JUMP JUMPDEST PUSH1 0x0 PUSH2 0xBB0 DUP3 PUSH2 0xB93 JUMP JUMPDEST SWAP1 POP SWAP2 SWAP1 POP JUMP JUMPDEST PUSH1 0x0 PUSH20 0xFFFFFFFFFFFFFFFFFFFFFFFFFFFFFFFFFFFFFFFF DUP3 AND SWAP1 POP SWAP2 SWAP1 POP JUMP JUMPDEST PUSH1 0x0 DUP2 SWAP1 POP SWAP2 SWAP1 POP JUMP JUMPDEST PUSH2 0xBEA DUP3 PUSH2 0xD2B JUMP JUMPDEST DUP2 ADD DUP2 DUP2 LT PUSH8 0xFFFFFFFFFFFFFFFF DUP3 GT OR ISZERO PUSH2 0xC09 JUMPI PUSH2 0xC08 PUSH2 0xCE8 JUMP JUMPDEST JUMPDEST DUP1 PUSH1 0x40 MSTORE POP POP POP JUMP JUMPDEST PUSH1 0x0 PUSH2 0xC1D DUP3 PUSH2 0xBD7 JUMP JUMPDEST SWAP2 POP PUSH32 0xFFFFFFFFFFFFFFFFFFFFFFFFFFFFFFFFFFFFFFFFFFFFFFFFFFFFFFFFFFFFFFFF DUP3 EQ ISZERO PUSH2 0xC50 JUMPI PUSH2 0xC4F PUSH2 0xC5B JUMP JUMPDEST JUMPDEST PUSH1 0x1 DUP3 ADD SWAP1 POP SWAP2 SWAP1 POP JUMP JUMPDEST PUSH32 0x4E487B7100000000000000000000000000000000000000000000000000000000 PUSH1 0x0 MSTORE PUSH1 0x11 PUSH1 0x4 MSTORE PUSH1 0x24 PUSH1 0x0 REVERT JUMPDEST PUSH32 0x4E487B7100000000000000000000000000000000000000000000000000000000 PUSH1 0x0 MSTORE PUSH1 0x12 PUSH1 0x4 MSTORE PUSH1 0x24 PUSH1 0x0 REVERT JUMPDEST PUSH32 0x4E487B7100000000000000000000000000000000000000000000000000000000 PUSH1 0x0 MSTORE PUSH1 0x32 PUSH1 0x4 MSTORE PUSH1 0x24 PUSH1 0x0 REVERT JUMPDEST PUSH32 0x4E487B7100000000000000000000000000000000000000000000000000000000 PUSH1 0x0 MSTORE PUSH1 0x41 PUSH1 0x4 MSTORE PUSH1 0x24 PUSH1 0x0 REVERT JUMPDEST PUSH1 0x0 DUP1 REVERT JUMPDEST PUSH1 0x0 DUP1 REVERT JUMPDEST PUSH1 0x0 DUP1 REVERT JUMPDEST PUSH1 0x0 DUP1 REVERT JUMPDEST PUSH1 0x0 PUSH1 0x1F NOT PUSH1 0x1F DUP4 ADD AND SWAP1 POP SWAP2 SWAP1 POP JUMP JUMPDEST PUSH32 0x496E76616C6964204D6174696321000000000000000000000000000000000000 PUSH1 0x0 DUP3 ADD MSTORE POP JUMP JUMPDEST PUSH2 0xD6E DUP2 PUSH2 0xB93 JUMP JUMPDEST DUP2 EQ PUSH2 0xD79 JUMPI PUSH1 0x0 DUP1 REVERT JUMPDEST POP JUMP JUMPDEST PUSH2 0xD85 DUP2 PUSH2 0xBA5 JUMP JUMPDEST DUP2 EQ PUSH2 0xD90 JUMPI PUSH1 0x0 DUP1 REVERT JUMPDEST POP JUMP JUMPDEST PUSH2 0xD9C DUP2 PUSH2 0xBD7 JUMP JUMPDEST DUP2 EQ PUSH2 0xDA7 JUMPI PUSH1 0x0 DUP1 REVERT JUMPDEST POP JUMP INVALID LOG2 PUSH5 0x6970667358 0x22 SLT KECCAK256 0xCD 0xD5 0xA8 0xCE CREATE2 0x28 0x28 OR XOR CREATE 0xED DUP7 0xD4 BASEFEE 0x5F ADDRESS ADDRESS 0xDD 0x49 0xDF DUP11 INVALID CHAINID DUP11 0xDC 0x4D 0x27 0xBF PUSH25 0xECD9A564736F6C634300080700330000000000000000000000 "
				},
				"gasEstimates": {
					"creation": {
						"codeDepositCost": "710400",
						"executionCost": "741",
						"totalCost": "711141"
					},
					"external": {
						"initialize(address[],address,address)": "infinite",
						"swapAndPay(address[],uint256[],uint256)": "infinite"
					}
				},
				"methodIdentifiers": {
					"initialize(address[],address,address)": "90482d72",
					"swapAndPay(address[],uint256[],uint256)": "f9d5d560"
				}
			},
			"storageLayout": {
				"storage": [
					{
						"astId": 6,
						"contract": "contracts/defi.sol:Cheddar",
						"label": "_initialized",
						"offset": 0,
						"slot": "0",
						"type": "t_bool"
					},
					{
						"astId": 9,
						"contract": "contracts/defi.sol:Cheddar",
						"label": "_initializing",
						"offset": 1,
						"slot": "0",
						"type": "t_bool"
					},
					{
						"astId": 456,
						"contract": "contracts/defi.sol:Cheddar",
						"label": "tokens",
						"offset": 0,
						"slot": "1",
						"type": "t_array(t_address)dyn_storage"
					},
					{
						"astId": 459,
						"contract": "contracts/defi.sol:Cheddar",
						"label": "router",
						"offset": 0,
						"slot": "2",
						"type": "t_contract(IUniswapV2Router02)983"
					},
					{
						"astId": 461,
						"contract": "contracts/defi.sol:Cheddar",
						"label": "wrappedMatic",
						"offset": 0,
						"slot": "3",
						"type": "t_address"
					}
				],
				"types": {
					"t_address": {
						"encoding": "inplace",
						"label": "address",
						"numberOfBytes": "20"
					},
					"t_array(t_address)dyn_storage": {
						"base": "t_address",
						"encoding": "dynamic_array",
						"label": "address[]",
						"numberOfBytes": "32"
					},
					"t_bool": {
						"encoding": "inplace",
						"label": "bool",
						"numberOfBytes": "1"
					},
					"t_contract(IUniswapV2Router02)983": {
						"encoding": "inplace",
						"label": "contract IUniswapV2Router02",
						"numberOfBytes": "20"
					}
				}
			},
			"userdoc": {
				"kind": "user",
				"methods": {},
				"version": 1
			}
		}
	}
}