{
	"contracts/defi.sol": {
		"Cheddar": {
			"abi": [
				{
					"inputs": [
						{
							"internalType": "address[]",
							"name": "_tokens",
							"type": "address[]"
						},
						{
							"internalType": "contract IUniswapV2Router02",
							"name": "_router",
							"type": "address"
						},
						{
							"internalType": "address",
							"name": "_wrappedMatic",
							"type": "address"
						}
					],
					"name": "initialize",
					"outputs": [],
					"stateMutability": "nonpayable",
					"type": "function"
				},
				{
					"inputs": [
						{
							"internalType": "address[]",
							"name": "_tokens",
							"type": "address[]"
						},
						{
							"internalType": "uint256[]",
							"name": "bp",
							"type": "uint256[]"
						},
						{
							"internalType": "uint256",
							"name": "matic",
							"type": "uint256"
						}
					],
					"name": "swapAndPay",
					"outputs": [],
					"stateMutability": "payable",
					"type": "function"
				}
			],
			"devdoc": {
				"kind": "dev",
				"methods": {},
				"version": 1
			},
			"evm": {
				"assembly": "    /* \"contracts/defi.sol\":232:1401  contract Cheddar is Initializable {... */\n  mstore(0x40, 0x80)\n  callvalue\n  dup1\n  iszero\n  tag_1\n  jumpi\n  0x00\n  dup1\n  revert\ntag_1:\n  pop\n  dataSize(sub_0)\n  dup1\n  dataOffset(sub_0)\n  0x00\n  codecopy\n  0x00\n  return\nstop\n\nsub_0: assembly {\n        /* \"contracts/defi.sol\":232:1401  contract Cheddar is Initializable {... */\n      mstore(0x40, 0x80)\n      jumpi(tag_1, lt(calldatasize, 0x04))\n      shr(0xe0, calldataload(0x00))\n      dup1\n      0x90482d72\n      eq\n      tag_2\n      jumpi\n      dup1\n      0xf9d5d560\n      eq\n      tag_3\n      jumpi\n    tag_1:\n      0x00\n      dup1\n      revert\n        /* \"contracts/defi.sol\":337:522  function initialize(address[] memory _tokens, IUniswapV2Router02 _router, address _wrappedMatic) public {... */\n    tag_2:\n      callvalue\n      dup1\n      iszero\n      tag_4\n      jumpi\n      0x00\n      dup1\n      revert\n    tag_4:\n      pop\n      tag_5\n      0x04\n      dup1\n      calldatasize\n      sub\n      dup2\n      add\n      swap1\n      tag_6\n      swap2\n      swap1\n      tag_7\n      jump\t// in\n    tag_6:\n      tag_8\n      jump\t// in\n    tag_5:\n      stop\n        /* \"contracts/defi.sol\":524:1398  function swapAndPay(address[] memory _tokens, uint[] memory bp, uint matic ) public payable {... */\n    tag_3:\n      tag_9\n      0x04\n      dup1\n      calldatasize\n      sub\n      dup2\n      add\n      swap1\n      tag_10\n      swap2\n      swap1\n      tag_11\n      jump\t// in\n    tag_10:\n      tag_12\n      jump\t// in\n    tag_9:\n      stop\n        /* \"contracts/defi.sol\":337:522  function initialize(address[] memory _tokens, IUniswapV2Router02 _router, address _wrappedMatic) public {... */\n    tag_8:\n        /* \"contracts/defi.sol\":456:463  _tokens */\n      dup3\n        /* \"contracts/defi.sol\":447:453  tokens */\n      0x01\n        /* \"contracts/defi.sol\":447:463  tokens = _tokens */\n      swap1\n      dup1\n      mload\n      swap1\n      0x20\n      add\n      swap1\n      tag_14\n      swap3\n      swap2\n      swap1\n      tag_15\n      jump\t// in\n    tag_14:\n      pop\n        /* \"contracts/defi.sol\":478:485  _router */\n      dup2\n        /* \"contracts/defi.sol\":469:475  router */\n      0x02\n      0x00\n        /* \"contracts/defi.sol\":469:485  router = _router */\n      0x0100\n      exp\n      dup2\n      sload\n      dup2\n      0xffffffffffffffffffffffffffffffffffffffff\n      mul\n      not\n      and\n      swap1\n      dup4\n      0xffffffffffffffffffffffffffffffffffffffff\n      and\n      mul\n      or\n      swap1\n      sstore\n      pop\n        /* \"contracts/defi.sol\":506:519  _wrappedMatic */\n      dup1\n        /* \"contracts/defi.sol\":491:503  wrappedMatic */\n      0x03\n      0x00\n        /* \"contracts/defi.sol\":491:519  wrappedMatic = _wrappedMatic */\n      0x0100\n      exp\n      dup2\n      sload\n      dup2\n      0xffffffffffffffffffffffffffffffffffffffff\n      mul\n      not\n      and\n      swap1\n      dup4\n      0xffffffffffffffffffffffffffffffffffffffff\n      and\n      mul\n      or\n      swap1\n      sstore\n      pop\n        /* \"contracts/defi.sol\":337:522  function initialize(address[] memory _tokens, IUniswapV2Router02 _router, address _wrappedMatic) public {... */\n      pop\n      pop\n      pop\n      jump\t// out\n        /* \"contracts/defi.sol\":524:1398  function swapAndPay(address[] memory _tokens, uint[] memory bp, uint matic ) public payable {... */\n    tag_12:\n        /* \"contracts/defi.sol\":623:639  uint totalTokens */\n      0x00\n        /* \"contracts/defi.sol\":642:649  _tokens */\n      dup4\n        /* \"contracts/defi.sol\":642:656  _tokens.length */\n      mload\n        /* \"contracts/defi.sol\":623:656  uint totalTokens = _tokens.length */\n      swap1\n      pop\n        /* \"contracts/defi.sol\":681:686  matic */\n      dup2\n        /* \"contracts/defi.sol\":670:679  msg.value */\n      callvalue\n        /* \"contracts/defi.sol\":670:686  msg.value==matic */\n      eq\n        /* \"contracts/defi.sol\":662:704  require(msg.value==matic,\"Invalid Matic!\") */\n      tag_17\n      jumpi\n      mload(0x40)\n      0x08c379a000000000000000000000000000000000000000000000000000000000\n      dup2\n      mstore\n      0x04\n      add\n      tag_18\n      swap1\n      tag_19\n      jump\t// in\n    tag_18:\n      mload(0x40)\n      dup1\n      swap2\n      sub\n      swap1\n      revert\n    tag_17:\n        /* \"contracts/defi.sol\":714:720  uint i */\n      0x00\n        /* \"contracts/defi.sol\":710:1074  for(uint i=0; i<totalTokens; i++){... */\n    tag_20:\n        /* \"contracts/defi.sol\":726:737  totalTokens */\n      dup2\n        /* \"contracts/defi.sol\":724:725  i */\n      dup2\n        /* \"contracts/defi.sol\":724:737  i<totalTokens */\n      lt\n        /* \"contracts/defi.sol\":710:1074  for(uint i=0; i<totalTokens; i++){... */\n      iszero\n      tag_21\n      jumpi\n        /* \"contracts/defi.sol\":754:775  address[] memory path */\n      0x00\n        /* \"contracts/defi.sol\":792:793  2 */\n      0x02\n        /* \"contracts/defi.sol\":778:794  new address[](2) */\n      0xffffffffffffffff\n      dup2\n      gt\n      iszero\n      tag_23\n      jumpi\n      tag_24\n      tag_25\n      jump\t// in\n    tag_24:\n    tag_23:\n      mload(0x40)\n      swap1\n      dup1\n      dup3\n      mstore\n      dup1\n      0x20\n      mul\n      0x20\n      add\n      dup3\n      add\n      0x40\n      mstore\n      dup1\n      iszero\n      tag_26\n      jumpi\n      dup2\n      0x20\n      add\n      0x20\n      dup3\n      mul\n      dup1\n      calldatasize\n      dup4\n      calldatacopy\n      dup1\n      dup3\n      add\n      swap2\n      pop\n      pop\n      swap1\n      pop\n    tag_26:\n      pop\n        /* \"contracts/defi.sol\":754:794  address[] memory path = new address[](2) */\n      swap1\n      pop\n        /* \"contracts/defi.sol\":826:838  wrappedMatic */\n      0x03\n      0x00\n      swap1\n      sload\n      swap1\n      0x0100\n      exp\n      swap1\n      div\n      0xffffffffffffffffffffffffffffffffffffffff\n      and\n        /* \"contracts/defi.sol\":808:812  path */\n      dup2\n        /* \"contracts/defi.sol\":813:814  0 */\n      0x00\n        /* \"contracts/defi.sol\":808:815  path[0] */\n      dup2\n      mload\n      dup2\n      lt\n      tag_27\n      jumpi\n      tag_28\n      tag_29\n      jump\t// in\n    tag_28:\n    tag_27:\n      0x20\n      mul\n      0x20\n      add\n      add\n        /* \"contracts/defi.sol\":808:839  path[0] = address(wrappedMatic) */\n      swap1\n      0xffffffffffffffffffffffffffffffffffffffff\n      and\n      swap1\n      dup2\n      0xffffffffffffffffffffffffffffffffffffffff\n      and\n      dup2\n      mstore\n      pop\n      pop\n        /* \"contracts/defi.sol\":871:878  _tokens */\n      dup6\n        /* \"contracts/defi.sol\":879:880  i */\n      dup3\n        /* \"contracts/defi.sol\":871:881  _tokens[i] */\n      dup2\n      mload\n      dup2\n      lt\n      tag_30\n      jumpi\n      tag_31\n      tag_29\n      jump\t// in\n    tag_31:\n    tag_30:\n      0x20\n      mul\n      0x20\n      add\n      add\n      mload\n        /* \"contracts/defi.sol\":853:857  path */\n      dup2\n        /* \"contracts/defi.sol\":858:859  1 */\n      0x01\n        /* \"contracts/defi.sol\":853:860  path[1] */\n      dup2\n      mload\n      dup2\n      lt\n      tag_32\n      jumpi\n      tag_33\n      tag_29\n      jump\t// in\n    tag_33:\n    tag_32:\n      0x20\n      mul\n      0x20\n      add\n      add\n        /* \"contracts/defi.sol\":853:882  path[1] = address(_tokens[i]) */\n      swap1\n      0xffffffffffffffffffffffffffffffffffffffff\n      and\n      swap1\n      dup2\n      0xffffffffffffffffffffffffffffffffffffffff\n      and\n      dup2\n      mstore\n      pop\n      pop\n        /* \"contracts/defi.sol\":896:920  uint[] memory amountsOut */\n      0x00\n        /* \"contracts/defi.sol\":923:929  router */\n      0x02\n      0x00\n      swap1\n      sload\n      swap1\n      0x0100\n      exp\n      swap1\n      div\n      0xffffffffffffffffffffffffffffffffffffffff\n      and\n        /* \"contracts/defi.sol\":923:943  router.getAmountsOut */\n      0xffffffffffffffffffffffffffffffffffffffff\n      and\n      0xd06ca61f\n        /* \"contracts/defi.sol\":957:962  10000 */\n      0x2710\n        /* \"contracts/defi.sol\":951:953  bp */\n      dup9\n        /* \"contracts/defi.sol\":954:955  i */\n      dup7\n        /* \"contracts/defi.sol\":951:956  bp[i] */\n      dup2\n      mload\n      dup2\n      lt\n      tag_34\n      jumpi\n      tag_35\n      tag_29\n      jump\t// in\n    tag_35:\n    tag_34:\n      0x20\n      mul\n      0x20\n      add\n      add\n      mload\n        /* \"contracts/defi.sol\":945:950  matic */\n      dup9\n        /* \"contracts/defi.sol\":945:956  matic*bp[i] */\n      tag_36\n      swap2\n      swap1\n      tag_37\n      jump\t// in\n    tag_36:\n        /* \"contracts/defi.sol\":945:962  matic*bp[i]/10000 */\n      tag_38\n      swap2\n      swap1\n      tag_39\n      jump\t// in\n    tag_38:\n        /* \"contracts/defi.sol\":965:969  path */\n      dup5\n        /* \"contracts/defi.sol\":923:970  router.getAmountsOut((matic*bp[i]/10000), path) */\n      mload(0x40)\n      dup4\n      0xffffffff\n      and\n      0xe0\n      shl\n      dup2\n      mstore\n      0x04\n      add\n      tag_40\n      swap3\n      swap2\n      swap1\n      tag_41\n      jump\t// in\n    tag_40:\n      0x00\n      mload(0x40)\n      dup1\n      dup4\n      sub\n      dup2\n      dup7\n      dup1\n      extcodesize\n      iszero\n      dup1\n      iszero\n      tag_42\n      jumpi\n      0x00\n      dup1\n      revert\n    tag_42:\n      pop\n      gas\n      staticcall\n      iszero\n      dup1\n      iszero\n      tag_44\n      jumpi\n      returndatasize\n      0x00\n      dup1\n      returndatacopy\n      revert(0x00, returndatasize)\n    tag_44:\n      pop\n      pop\n      pop\n      pop\n      mload(0x40)\n      returndatasize\n      0x00\n      dup3\n      returndatacopy\n      returndatasize\n      not(0x1f)\n      0x1f\n      dup3\n      add\n      and\n      dup3\n      add\n      dup1\n      0x40\n      mstore\n      pop\n      dup2\n      add\n      swap1\n      tag_45\n      swap2\n      swap1\n      tag_46\n      jump\t// in\n    tag_45:\n        /* \"contracts/defi.sol\":896:970  uint[] memory amountsOut = router.getAmountsOut((matic*bp[i]/10000), path) */\n      swap1\n      pop\n        /* \"contracts/defi.sol\":743:1074  {... */\n      pop\n      pop\n        /* \"contracts/defi.sol\":739:742  i++ */\n      dup1\n      dup1\n      tag_47\n      swap1\n      tag_48\n      jump\t// in\n    tag_47:\n      swap2\n      pop\n      pop\n        /* \"contracts/defi.sol\":710:1074  for(uint i=0; i<totalTokens; i++){... */\n      jump(tag_20)\n    tag_21:\n      pop\n        /* \"contracts/defi.sol\":616:1398  {... */\n      pop\n        /* \"contracts/defi.sol\":524:1398  function swapAndPay(address[] memory _tokens, uint[] memory bp, uint matic ) public payable {... */\n      pop\n      pop\n      pop\n      jump\t// out\n    tag_15:\n      dup3\n      dup1\n      sload\n      dup3\n      dup3\n      sstore\n      swap1\n      0x00\n      mstore\n      keccak256(0x00, 0x20)\n      swap1\n      dup2\n      add\n      swap3\n      dup3\n      iszero\n      tag_49\n      jumpi\n      swap2\n      0x20\n      mul\n      dup3\n      add\n    tag_50:\n      dup3\n      dup2\n      gt\n      iszero\n      tag_51\n      jumpi\n      dup3\n      mload\n      dup3\n      exp(0x0100, 0x00)\n      dup2\n      sload\n      dup2\n      0xffffffffffffffffffffffffffffffffffffffff\n      mul\n      not\n      and\n      swap1\n      dup4\n      0xffffffffffffffffffffffffffffffffffffffff\n      and\n      mul\n      or\n      swap1\n      sstore\n      pop\n      swap2\n      0x20\n      add\n      swap2\n      swap1\n      0x01\n      add\n      swap1\n      jump(tag_50)\n    tag_51:\n    tag_49:\n      pop\n      swap1\n      pop\n      tag_52\n      swap2\n      swap1\n      tag_53\n      jump\t// in\n    tag_52:\n      pop\n      swap1\n      jump\t// out\n    tag_53:\n    tag_54:\n      dup1\n      dup3\n      gt\n      iszero\n      tag_55\n      jumpi\n      0x00\n      dup2\n      0x00\n      swap1\n      sstore\n      pop\n      0x01\n      add\n      jump(tag_54)\n    tag_55:\n      pop\n      swap1\n      jump\t// out\n        /* \"#utility.yul\":24:746   */\n    tag_57:\n        /* \"#utility.yul\":120:125   */\n      0x00\n        /* \"#utility.yul\":145:226   */\n      tag_59\n        /* \"#utility.yul\":161:225   */\n      tag_60\n        /* \"#utility.yul\":218:224   */\n      dup5\n        /* \"#utility.yul\":161:225   */\n      tag_61\n      jump\t// in\n    tag_60:\n        /* \"#utility.yul\":145:226   */\n      tag_62\n      jump\t// in\n    tag_59:\n        /* \"#utility.yul\":136:226   */\n      swap1\n      pop\n        /* \"#utility.yul\":246:251   */\n      dup1\n        /* \"#utility.yul\":275:281   */\n      dup4\n        /* \"#utility.yul\":268:273   */\n      dup3\n        /* \"#utility.yul\":261:282   */\n      mstore\n        /* \"#utility.yul\":309:313   */\n      0x20\n        /* \"#utility.yul\":302:307   */\n      dup3\n        /* \"#utility.yul\":298:314   */\n      add\n        /* \"#utility.yul\":291:314   */\n      swap1\n      pop\n        /* \"#utility.yul\":335:341   */\n      dup3\n        /* \"#utility.yul\":385:388   */\n      dup6\n        /* \"#utility.yul\":377:381   */\n      0x20\n        /* \"#utility.yul\":369:375   */\n      dup7\n        /* \"#utility.yul\":365:382   */\n      mul\n        /* \"#utility.yul\":360:363   */\n      dup3\n        /* \"#utility.yul\":356:383   */\n      add\n        /* \"#utility.yul\":353:389   */\n      gt\n        /* \"#utility.yul\":350:493   */\n      iszero\n      tag_63\n      jumpi\n        /* \"#utility.yul\":404:483   */\n      tag_64\n      tag_65\n      jump\t// in\n    tag_64:\n        /* \"#utility.yul\":350:493   */\n    tag_63:\n        /* \"#utility.yul\":517:518   */\n      0x00\n        /* \"#utility.yul\":502:740   */\n    tag_66:\n        /* \"#utility.yul\":527:533   */\n      dup6\n        /* \"#utility.yul\":524:525   */\n      dup2\n        /* \"#utility.yul\":521:534   */\n      lt\n        /* \"#utility.yul\":502:740   */\n      iszero\n      tag_68\n      jumpi\n        /* \"#utility.yul\":595:598   */\n      dup2\n        /* \"#utility.yul\":624:661   */\n      tag_69\n        /* \"#utility.yul\":657:660   */\n      dup9\n        /* \"#utility.yul\":645:655   */\n      dup3\n        /* \"#utility.yul\":624:661   */\n      tag_70\n      jump\t// in\n    tag_69:\n        /* \"#utility.yul\":619:622   */\n      dup5\n        /* \"#utility.yul\":612:662   */\n      mstore\n        /* \"#utility.yul\":691:695   */\n      0x20\n        /* \"#utility.yul\":686:689   */\n      dup5\n        /* \"#utility.yul\":682:696   */\n      add\n        /* \"#utility.yul\":675:696   */\n      swap4\n      pop\n        /* \"#utility.yul\":725:729   */\n      0x20\n        /* \"#utility.yul\":720:723   */\n      dup4\n        /* \"#utility.yul\":716:730   */\n      add\n        /* \"#utility.yul\":709:730   */\n      swap3\n      pop\n        /* \"#utility.yul\":562:740   */\n      pop\n        /* \"#utility.yul\":549:550   */\n      0x01\n        /* \"#utility.yul\":546:547   */\n      dup2\n        /* \"#utility.yul\":542:551   */\n      add\n        /* \"#utility.yul\":537:551   */\n      swap1\n      pop\n        /* \"#utility.yul\":502:740   */\n      jump(tag_66)\n    tag_68:\n        /* \"#utility.yul\":506:520   */\n      pop\n        /* \"#utility.yul\":126:746   */\n      pop\n      pop\n        /* \"#utility.yul\":24:746   */\n      swap4\n      swap3\n      pop\n      pop\n      pop\n      jump\t// out\n        /* \"#utility.yul\":769:1491   */\n    tag_71:\n        /* \"#utility.yul\":865:870   */\n      0x00\n        /* \"#utility.yul\":890:971   */\n      tag_73\n        /* \"#utility.yul\":906:970   */\n      tag_74\n        /* \"#utility.yul\":963:969   */\n      dup5\n        /* \"#utility.yul\":906:970   */\n      tag_75\n      jump\t// in\n    tag_74:\n        /* \"#utility.yul\":890:971   */\n      tag_62\n      jump\t// in\n    tag_73:\n        /* \"#utility.yul\":881:971   */\n      swap1\n      pop\n        /* \"#utility.yul\":991:996   */\n      dup1\n        /* \"#utility.yul\":1020:1026   */\n      dup4\n        /* \"#utility.yul\":1013:1018   */\n      dup3\n        /* \"#utility.yul\":1006:1027   */\n      mstore\n        /* \"#utility.yul\":1054:1058   */\n      0x20\n        /* \"#utility.yul\":1047:1052   */\n      dup3\n        /* \"#utility.yul\":1043:1059   */\n      add\n        /* \"#utility.yul\":1036:1059   */\n      swap1\n      pop\n        /* \"#utility.yul\":1080:1086   */\n      dup3\n        /* \"#utility.yul\":1130:1133   */\n      dup6\n        /* \"#utility.yul\":1122:1126   */\n      0x20\n        /* \"#utility.yul\":1114:1120   */\n      dup7\n        /* \"#utility.yul\":1110:1127   */\n      mul\n        /* \"#utility.yul\":1105:1108   */\n      dup3\n        /* \"#utility.yul\":1101:1128   */\n      add\n        /* \"#utility.yul\":1098:1134   */\n      gt\n        /* \"#utility.yul\":1095:1238   */\n      iszero\n      tag_76\n      jumpi\n        /* \"#utility.yul\":1149:1228   */\n      tag_77\n      tag_65\n      jump\t// in\n    tag_77:\n        /* \"#utility.yul\":1095:1238   */\n    tag_76:\n        /* \"#utility.yul\":1262:1263   */\n      0x00\n        /* \"#utility.yul\":1247:1485   */\n    tag_78:\n        /* \"#utility.yul\":1272:1278   */\n      dup6\n        /* \"#utility.yul\":1269:1270   */\n      dup2\n        /* \"#utility.yul\":1266:1279   */\n      lt\n        /* \"#utility.yul\":1247:1485   */\n      iszero\n      tag_80\n      jumpi\n        /* \"#utility.yul\":1340:1343   */\n      dup2\n        /* \"#utility.yul\":1369:1406   */\n      tag_81\n        /* \"#utility.yul\":1402:1405   */\n      dup9\n        /* \"#utility.yul\":1390:1400   */\n      dup3\n        /* \"#utility.yul\":1369:1406   */\n      tag_82\n      jump\t// in\n    tag_81:\n        /* \"#utility.yul\":1364:1367   */\n      dup5\n        /* \"#utility.yul\":1357:1407   */\n      mstore\n        /* \"#utility.yul\":1436:1440   */\n      0x20\n        /* \"#utility.yul\":1431:1434   */\n      dup5\n        /* \"#utility.yul\":1427:1441   */\n      add\n        /* \"#utility.yul\":1420:1441   */\n      swap4\n      pop\n        /* \"#utility.yul\":1470:1474   */\n      0x20\n        /* \"#utility.yul\":1465:1468   */\n      dup4\n        /* \"#utility.yul\":1461:1475   */\n      add\n        /* \"#utility.yul\":1454:1475   */\n      swap3\n      pop\n        /* \"#utility.yul\":1307:1485   */\n      pop\n        /* \"#utility.yul\":1294:1295   */\n      0x01\n        /* \"#utility.yul\":1291:1292   */\n      dup2\n        /* \"#utility.yul\":1287:1296   */\n      add\n        /* \"#utility.yul\":1282:1296   */\n      swap1\n      pop\n        /* \"#utility.yul\":1247:1485   */\n      jump(tag_78)\n    tag_80:\n        /* \"#utility.yul\":1251:1265   */\n      pop\n        /* \"#utility.yul\":871:1491   */\n      pop\n      pop\n        /* \"#utility.yul\":769:1491   */\n      swap4\n      swap3\n      pop\n      pop\n      pop\n      jump\t// out\n        /* \"#utility.yul\":1514:2258   */\n    tag_83:\n        /* \"#utility.yul\":1621:1626   */\n      0x00\n        /* \"#utility.yul\":1646:1727   */\n      tag_85\n        /* \"#utility.yul\":1662:1726   */\n      tag_86\n        /* \"#utility.yul\":1719:1725   */\n      dup5\n        /* \"#utility.yul\":1662:1726   */\n      tag_75\n      jump\t// in\n    tag_86:\n        /* \"#utility.yul\":1646:1727   */\n      tag_62\n      jump\t// in\n    tag_85:\n        /* \"#utility.yul\":1637:1727   */\n      swap1\n      pop\n        /* \"#utility.yul\":1747:1752   */\n      dup1\n        /* \"#utility.yul\":1776:1782   */\n      dup4\n        /* \"#utility.yul\":1769:1774   */\n      dup3\n        /* \"#utility.yul\":1762:1783   */\n      mstore\n        /* \"#utility.yul\":1810:1814   */\n      0x20\n        /* \"#utility.yul\":1803:1808   */\n      dup3\n        /* \"#utility.yul\":1799:1815   */\n      add\n        /* \"#utility.yul\":1792:1815   */\n      swap1\n      pop\n        /* \"#utility.yul\":1836:1842   */\n      dup3\n        /* \"#utility.yul\":1886:1889   */\n      dup6\n        /* \"#utility.yul\":1878:1882   */\n      0x20\n        /* \"#utility.yul\":1870:1876   */\n      dup7\n        /* \"#utility.yul\":1866:1883   */\n      mul\n        /* \"#utility.yul\":1861:1864   */\n      dup3\n        /* \"#utility.yul\":1857:1884   */\n      add\n        /* \"#utility.yul\":1854:1890   */\n      gt\n        /* \"#utility.yul\":1851:1994   */\n      iszero\n      tag_87\n      jumpi\n        /* \"#utility.yul\":1905:1984   */\n      tag_88\n      tag_65\n      jump\t// in\n    tag_88:\n        /* \"#utility.yul\":1851:1994   */\n    tag_87:\n        /* \"#utility.yul\":2018:2019   */\n      0x00\n        /* \"#utility.yul\":2003:2252   */\n    tag_89:\n        /* \"#utility.yul\":2028:2034   */\n      dup6\n        /* \"#utility.yul\":2025:2026   */\n      dup2\n        /* \"#utility.yul\":2022:2035   */\n      lt\n        /* \"#utility.yul\":2003:2252   */\n      iszero\n      tag_91\n      jumpi\n        /* \"#utility.yul\":2096:2099   */\n      dup2\n        /* \"#utility.yul\":2125:2173   */\n      tag_92\n        /* \"#utility.yul\":2169:2172   */\n      dup9\n        /* \"#utility.yul\":2157:2167   */\n      dup3\n        /* \"#utility.yul\":2125:2173   */\n      tag_93\n      jump\t// in\n    tag_92:\n        /* \"#utility.yul\":2120:2123   */\n      dup5\n        /* \"#utility.yul\":2113:2174   */\n      mstore\n        /* \"#utility.yul\":2203:2207   */\n      0x20\n        /* \"#utility.yul\":2198:2201   */\n      dup5\n        /* \"#utility.yul\":2194:2208   */\n      add\n        /* \"#utility.yul\":2187:2208   */\n      swap4\n      pop\n        /* \"#utility.yul\":2237:2241   */\n      0x20\n        /* \"#utility.yul\":2232:2235   */\n      dup4\n        /* \"#utility.yul\":2228:2242   */\n      add\n        /* \"#utility.yul\":2221:2242   */\n      swap3\n      pop\n        /* \"#utility.yul\":2063:2252   */\n      pop\n        /* \"#utility.yul\":2050:2051   */\n      0x01\n        /* \"#utility.yul\":2047:2048   */\n      dup2\n        /* \"#utility.yul\":2043:2052   */\n      add\n        /* \"#utility.yul\":2038:2052   */\n      swap1\n      pop\n        /* \"#utility.yul\":2003:2252   */\n      jump(tag_89)\n    tag_91:\n        /* \"#utility.yul\":2007:2021   */\n      pop\n        /* \"#utility.yul\":1627:2258   */\n      pop\n      pop\n        /* \"#utility.yul\":1514:2258   */\n      swap4\n      swap3\n      pop\n      pop\n      pop\n      jump\t// out\n        /* \"#utility.yul\":2264:2403   */\n    tag_70:\n        /* \"#utility.yul\":2310:2315   */\n      0x00\n        /* \"#utility.yul\":2348:2354   */\n      dup2\n        /* \"#utility.yul\":2335:2355   */\n      calldataload\n        /* \"#utility.yul\":2326:2355   */\n      swap1\n      pop\n        /* \"#utility.yul\":2364:2397   */\n      tag_95\n        /* \"#utility.yul\":2391:2396   */\n      dup2\n        /* \"#utility.yul\":2364:2397   */\n      tag_96\n      jump\t// in\n    tag_95:\n        /* \"#utility.yul\":2264:2403   */\n      swap3\n      swap2\n      pop\n      pop\n      jump\t// out\n        /* \"#utility.yul\":2426:2796   */\n    tag_97:\n        /* \"#utility.yul\":2497:2502   */\n      0x00\n        /* \"#utility.yul\":2546:2549   */\n      dup3\n        /* \"#utility.yul\":2539:2543   */\n      0x1f\n        /* \"#utility.yul\":2531:2537   */\n      dup4\n        /* \"#utility.yul\":2527:2544   */\n      add\n        /* \"#utility.yul\":2523:2550   */\n      slt\n        /* \"#utility.yul\":2513:2635   */\n      tag_99\n      jumpi\n        /* \"#utility.yul\":2554:2633   */\n      tag_100\n      tag_101\n      jump\t// in\n    tag_100:\n        /* \"#utility.yul\":2513:2635   */\n    tag_99:\n        /* \"#utility.yul\":2671:2677   */\n      dup2\n        /* \"#utility.yul\":2658:2678   */\n      calldataload\n        /* \"#utility.yul\":2696:2790   */\n      tag_102\n        /* \"#utility.yul\":2786:2789   */\n      dup5\n        /* \"#utility.yul\":2778:2784   */\n      dup3\n        /* \"#utility.yul\":2771:2775   */\n      0x20\n        /* \"#utility.yul\":2763:2769   */\n      dup7\n        /* \"#utility.yul\":2759:2776   */\n      add\n        /* \"#utility.yul\":2696:2790   */\n      tag_57\n      jump\t// in\n    tag_102:\n        /* \"#utility.yul\":2687:2790   */\n      swap2\n      pop\n        /* \"#utility.yul\":2503:2796   */\n      pop\n        /* \"#utility.yul\":2426:2796   */\n      swap3\n      swap2\n      pop\n      pop\n      jump\t// out\n        /* \"#utility.yul\":2819:3189   */\n    tag_103:\n        /* \"#utility.yul\":2890:2895   */\n      0x00\n        /* \"#utility.yul\":2939:2942   */\n      dup3\n        /* \"#utility.yul\":2932:2936   */\n      0x1f\n        /* \"#utility.yul\":2924:2930   */\n      dup4\n        /* \"#utility.yul\":2920:2937   */\n      add\n        /* \"#utility.yul\":2916:2943   */\n      slt\n        /* \"#utility.yul\":2906:3028   */\n      tag_105\n      jumpi\n        /* \"#utility.yul\":2947:3026   */\n      tag_106\n      tag_101\n      jump\t// in\n    tag_106:\n        /* \"#utility.yul\":2906:3028   */\n    tag_105:\n        /* \"#utility.yul\":3064:3070   */\n      dup2\n        /* \"#utility.yul\":3051:3071   */\n      calldataload\n        /* \"#utility.yul\":3089:3183   */\n      tag_107\n        /* \"#utility.yul\":3179:3182   */\n      dup5\n        /* \"#utility.yul\":3171:3177   */\n      dup3\n        /* \"#utility.yul\":3164:3168   */\n      0x20\n        /* \"#utility.yul\":3156:3162   */\n      dup7\n        /* \"#utility.yul\":3152:3169   */\n      add\n        /* \"#utility.yul\":3089:3183   */\n      tag_71\n      jump\t// in\n    tag_107:\n        /* \"#utility.yul\":3080:3183   */\n      swap2\n      pop\n        /* \"#utility.yul\":2896:3189   */\n      pop\n        /* \"#utility.yul\":2819:3189   */\n      swap3\n      swap2\n      pop\n      pop\n      jump\t// out\n        /* \"#utility.yul\":3212:3597   */\n    tag_108:\n        /* \"#utility.yul\":3294:3299   */\n      0x00\n        /* \"#utility.yul\":3343:3346   */\n      dup3\n        /* \"#utility.yul\":3336:3340   */\n      0x1f\n        /* \"#utility.yul\":3328:3334   */\n      dup4\n        /* \"#utility.yul\":3324:3341   */\n      add\n        /* \"#utility.yul\":3320:3347   */\n      slt\n        /* \"#utility.yul\":3310:3432   */\n      tag_110\n      jumpi\n        /* \"#utility.yul\":3351:3430   */\n      tag_111\n      tag_101\n      jump\t// in\n    tag_111:\n        /* \"#utility.yul\":3310:3432   */\n    tag_110:\n        /* \"#utility.yul\":3461:3467   */\n      dup2\n        /* \"#utility.yul\":3455:3468   */\n      mload\n        /* \"#utility.yul\":3486:3591   */\n      tag_112\n        /* \"#utility.yul\":3587:3590   */\n      dup5\n        /* \"#utility.yul\":3579:3585   */\n      dup3\n        /* \"#utility.yul\":3572:3576   */\n      0x20\n        /* \"#utility.yul\":3564:3570   */\n      dup7\n        /* \"#utility.yul\":3560:3577   */\n      add\n        /* \"#utility.yul\":3486:3591   */\n      tag_83\n      jump\t// in\n    tag_112:\n        /* \"#utility.yul\":3477:3591   */\n      swap2\n      pop\n        /* \"#utility.yul\":3300:3597   */\n      pop\n        /* \"#utility.yul\":3212:3597   */\n      swap3\n      swap2\n      pop\n      pop\n      jump\t// out\n        /* \"#utility.yul\":3603:3794   */\n    tag_113:\n        /* \"#utility.yul\":3675:3680   */\n      0x00\n        /* \"#utility.yul\":3713:3719   */\n      dup2\n        /* \"#utility.yul\":3700:3720   */\n      calldataload\n        /* \"#utility.yul\":3691:3720   */\n      swap1\n      pop\n        /* \"#utility.yul\":3729:3788   */\n      tag_115\n        /* \"#utility.yul\":3782:3787   */\n      dup2\n        /* \"#utility.yul\":3729:3788   */\n      tag_116\n      jump\t// in\n    tag_115:\n        /* \"#utility.yul\":3603:3794   */\n      swap3\n      swap2\n      pop\n      pop\n      jump\t// out\n        /* \"#utility.yul\":3800:3939   */\n    tag_82:\n        /* \"#utility.yul\":3846:3851   */\n      0x00\n        /* \"#utility.yul\":3884:3890   */\n      dup2\n        /* \"#utility.yul\":3871:3891   */\n      calldataload\n        /* \"#utility.yul\":3862:3891   */\n      swap1\n      pop\n        /* \"#utility.yul\":3900:3933   */\n      tag_118\n        /* \"#utility.yul\":3927:3932   */\n      dup2\n        /* \"#utility.yul\":3900:3933   */\n      tag_119\n      jump\t// in\n    tag_118:\n        /* \"#utility.yul\":3800:3939   */\n      swap3\n      swap2\n      pop\n      pop\n      jump\t// out\n        /* \"#utility.yul\":3945:4088   */\n    tag_93:\n        /* \"#utility.yul\":4002:4007   */\n      0x00\n        /* \"#utility.yul\":4033:4039   */\n      dup2\n        /* \"#utility.yul\":4027:4040   */\n      mload\n        /* \"#utility.yul\":4018:4040   */\n      swap1\n      pop\n        /* \"#utility.yul\":4049:4082   */\n      tag_121\n        /* \"#utility.yul\":4076:4081   */\n      dup2\n        /* \"#utility.yul\":4049:4082   */\n      tag_119\n      jump\t// in\n    tag_121:\n        /* \"#utility.yul\":3945:4088   */\n      swap3\n      swap2\n      pop\n      pop\n      jump\t// out\n        /* \"#utility.yul\":4094:5133   */\n    tag_11:\n        /* \"#utility.yul\":4221:4227   */\n      0x00\n        /* \"#utility.yul\":4229:4235   */\n      dup1\n        /* \"#utility.yul\":4237:4243   */\n      0x00\n        /* \"#utility.yul\":4286:4288   */\n      0x60\n        /* \"#utility.yul\":4274:4283   */\n      dup5\n        /* \"#utility.yul\":4265:4272   */\n      dup7\n        /* \"#utility.yul\":4261:4284   */\n      sub\n        /* \"#utility.yul\":4257:4289   */\n      slt\n        /* \"#utility.yul\":4254:4373   */\n      iszero\n      tag_123\n      jumpi\n        /* \"#utility.yul\":4292:4371   */\n      tag_124\n      tag_125\n      jump\t// in\n    tag_124:\n        /* \"#utility.yul\":4254:4373   */\n    tag_123:\n        /* \"#utility.yul\":4440:4441   */\n      0x00\n        /* \"#utility.yul\":4429:4438   */\n      dup5\n        /* \"#utility.yul\":4425:4442   */\n      add\n        /* \"#utility.yul\":4412:4443   */\n      calldataload\n        /* \"#utility.yul\":4470:4488   */\n      0xffffffffffffffff\n        /* \"#utility.yul\":4462:4468   */\n      dup2\n        /* \"#utility.yul\":4459:4489   */\n      gt\n        /* \"#utility.yul\":4456:4573   */\n      iszero\n      tag_126\n      jumpi\n        /* \"#utility.yul\":4492:4571   */\n      tag_127\n      tag_128\n      jump\t// in\n    tag_127:\n        /* \"#utility.yul\":4456:4573   */\n    tag_126:\n        /* \"#utility.yul\":4597:4675   */\n      tag_129\n        /* \"#utility.yul\":4667:4674   */\n      dup7\n        /* \"#utility.yul\":4658:4664   */\n      dup3\n        /* \"#utility.yul\":4647:4656   */\n      dup8\n        /* \"#utility.yul\":4643:4665   */\n      add\n        /* \"#utility.yul\":4597:4675   */\n      tag_97\n      jump\t// in\n    tag_129:\n        /* \"#utility.yul\":4587:4675   */\n      swap4\n      pop\n        /* \"#utility.yul\":4383:4685   */\n      pop\n        /* \"#utility.yul\":4752:4754   */\n      0x20\n        /* \"#utility.yul\":4741:4750   */\n      dup5\n        /* \"#utility.yul\":4737:4755   */\n      add\n        /* \"#utility.yul\":4724:4756   */\n      calldataload\n        /* \"#utility.yul\":4783:4801   */\n      0xffffffffffffffff\n        /* \"#utility.yul\":4775:4781   */\n      dup2\n        /* \"#utility.yul\":4772:4802   */\n      gt\n        /* \"#utility.yul\":4769:4886   */\n      iszero\n      tag_130\n      jumpi\n        /* \"#utility.yul\":4805:4884   */\n      tag_131\n      tag_128\n      jump\t// in\n    tag_131:\n        /* \"#utility.yul\":4769:4886   */\n    tag_130:\n        /* \"#utility.yul\":4910:4988   */\n      tag_132\n        /* \"#utility.yul\":4980:4987   */\n      dup7\n        /* \"#utility.yul\":4971:4977   */\n      dup3\n        /* \"#utility.yul\":4960:4969   */\n      dup8\n        /* \"#utility.yul\":4956:4978   */\n      add\n        /* \"#utility.yul\":4910:4988   */\n      tag_103\n      jump\t// in\n    tag_132:\n        /* \"#utility.yul\":4900:4988   */\n      swap3\n      pop\n        /* \"#utility.yul\":4695:4998   */\n      pop\n        /* \"#utility.yul\":5037:5039   */\n      0x40\n        /* \"#utility.yul\":5063:5116   */\n      tag_133\n        /* \"#utility.yul\":5108:5115   */\n      dup7\n        /* \"#utility.yul\":5099:5105   */\n      dup3\n        /* \"#utility.yul\":5088:5097   */\n      dup8\n        /* \"#utility.yul\":5084:5106   */\n      add\n        /* \"#utility.yul\":5063:5116   */\n      tag_82\n      jump\t// in\n    tag_133:\n        /* \"#utility.yul\":5053:5116   */\n      swap2\n      pop\n        /* \"#utility.yul\":5008:5126   */\n      pop\n        /* \"#utility.yul\":4094:5133   */\n      swap3\n      pop\n      swap3\n      pop\n      swap3\n      jump\t// out\n        /* \"#utility.yul\":5139:6020   */\n    tag_7:\n        /* \"#utility.yul\":5267:5273   */\n      0x00\n        /* \"#utility.yul\":5275:5281   */\n      dup1\n        /* \"#utility.yul\":5283:5289   */\n      0x00\n        /* \"#utility.yul\":5332:5334   */\n      0x60\n        /* \"#utility.yul\":5320:5329   */\n      dup5\n        /* \"#utility.yul\":5311:5318   */\n      dup7\n        /* \"#utility.yul\":5307:5330   */\n      sub\n        /* \"#utility.yul\":5303:5335   */\n      slt\n        /* \"#utility.yul\":5300:5419   */\n      iszero\n      tag_135\n      jumpi\n        /* \"#utility.yul\":5338:5417   */\n      tag_136\n      tag_125\n      jump\t// in\n    tag_136:\n        /* \"#utility.yul\":5300:5419   */\n    tag_135:\n        /* \"#utility.yul\":5486:5487   */\n      0x00\n        /* \"#utility.yul\":5475:5484   */\n      dup5\n        /* \"#utility.yul\":5471:5488   */\n      add\n        /* \"#utility.yul\":5458:5489   */\n      calldataload\n        /* \"#utility.yul\":5516:5534   */\n      0xffffffffffffffff\n        /* \"#utility.yul\":5508:5514   */\n      dup2\n        /* \"#utility.yul\":5505:5535   */\n      gt\n        /* \"#utility.yul\":5502:5619   */\n      iszero\n      tag_137\n      jumpi\n        /* \"#utility.yul\":5538:5617   */\n      tag_138\n      tag_128\n      jump\t// in\n    tag_138:\n        /* \"#utility.yul\":5502:5619   */\n    tag_137:\n        /* \"#utility.yul\":5643:5721   */\n      tag_139\n        /* \"#utility.yul\":5713:5720   */\n      dup7\n        /* \"#utility.yul\":5704:5710   */\n      dup3\n        /* \"#utility.yul\":5693:5702   */\n      dup8\n        /* \"#utility.yul\":5689:5711   */\n      add\n        /* \"#utility.yul\":5643:5721   */\n      tag_97\n      jump\t// in\n    tag_139:\n        /* \"#utility.yul\":5633:5721   */\n      swap4\n      pop\n        /* \"#utility.yul\":5429:5731   */\n      pop\n        /* \"#utility.yul\":5770:5772   */\n      0x20\n        /* \"#utility.yul\":5796:5875   */\n      tag_140\n        /* \"#utility.yul\":5867:5874   */\n      dup7\n        /* \"#utility.yul\":5858:5864   */\n      dup3\n        /* \"#utility.yul\":5847:5856   */\n      dup8\n        /* \"#utility.yul\":5843:5865   */\n      add\n        /* \"#utility.yul\":5796:5875   */\n      tag_113\n      jump\t// in\n    tag_140:\n        /* \"#utility.yul\":5786:5875   */\n      swap3\n      pop\n        /* \"#utility.yul\":5741:5885   */\n      pop\n        /* \"#utility.yul\":5924:5926   */\n      0x40\n        /* \"#utility.yul\":5950:6003   */\n      tag_141\n        /* \"#utility.yul\":5995:6002   */\n      dup7\n        /* \"#utility.yul\":5986:5992   */\n      dup3\n        /* \"#utility.yul\":5975:5984   */\n      dup8\n        /* \"#utility.yul\":5971:5993   */\n      add\n        /* \"#utility.yul\":5950:6003   */\n      tag_70\n      jump\t// in\n    tag_141:\n        /* \"#utility.yul\":5940:6003   */\n      swap2\n      pop\n        /* \"#utility.yul\":5895:6013   */\n      pop\n        /* \"#utility.yul\":5139:6020   */\n      swap3\n      pop\n      swap3\n      pop\n      swap3\n      jump\t// out\n        /* \"#utility.yul\":6026:6580   */\n    tag_46:\n        /* \"#utility.yul\":6121:6127   */\n      0x00\n        /* \"#utility.yul\":6170:6172   */\n      0x20\n        /* \"#utility.yul\":6158:6167   */\n      dup3\n        /* \"#utility.yul\":6149:6156   */\n      dup5\n        /* \"#utility.yul\":6145:6168   */\n      sub\n        /* \"#utility.yul\":6141:6173   */\n      slt\n        /* \"#utility.yul\":6138:6257   */\n      iszero\n      tag_143\n      jumpi\n        /* \"#utility.yul\":6176:6255   */\n      tag_144\n      tag_125\n      jump\t// in\n    tag_144:\n        /* \"#utility.yul\":6138:6257   */\n    tag_143:\n        /* \"#utility.yul\":6317:6318   */\n      0x00\n        /* \"#utility.yul\":6306:6315   */\n      dup3\n        /* \"#utility.yul\":6302:6319   */\n      add\n        /* \"#utility.yul\":6296:6320   */\n      mload\n        /* \"#utility.yul\":6347:6365   */\n      0xffffffffffffffff\n        /* \"#utility.yul\":6339:6345   */\n      dup2\n        /* \"#utility.yul\":6336:6366   */\n      gt\n        /* \"#utility.yul\":6333:6450   */\n      iszero\n      tag_145\n      jumpi\n        /* \"#utility.yul\":6369:6448   */\n      tag_146\n      tag_128\n      jump\t// in\n    tag_146:\n        /* \"#utility.yul\":6333:6450   */\n    tag_145:\n        /* \"#utility.yul\":6474:6563   */\n      tag_147\n        /* \"#utility.yul\":6555:6562   */\n      dup5\n        /* \"#utility.yul\":6546:6552   */\n      dup3\n        /* \"#utility.yul\":6535:6544   */\n      dup6\n        /* \"#utility.yul\":6531:6553   */\n      add\n        /* \"#utility.yul\":6474:6563   */\n      tag_108\n      jump\t// in\n    tag_147:\n        /* \"#utility.yul\":6464:6563   */\n      swap2\n      pop\n        /* \"#utility.yul\":6267:6573   */\n      pop\n        /* \"#utility.yul\":6026:6580   */\n      swap3\n      swap2\n      pop\n      pop\n      jump\t// out\n        /* \"#utility.yul\":6586:6765   */\n    tag_148:\n        /* \"#utility.yul\":6655:6665   */\n      0x00\n        /* \"#utility.yul\":6676:6722   */\n      tag_150\n        /* \"#utility.yul\":6718:6721   */\n      dup4\n        /* \"#utility.yul\":6710:6716   */\n      dup4\n        /* \"#utility.yul\":6676:6722   */\n      tag_151\n      jump\t// in\n    tag_150:\n        /* \"#utility.yul\":6754:6758   */\n      0x20\n        /* \"#utility.yul\":6749:6752   */\n      dup4\n        /* \"#utility.yul\":6745:6759   */\n      add\n        /* \"#utility.yul\":6731:6759   */\n      swap1\n      pop\n        /* \"#utility.yul\":6586:6765   */\n      swap3\n      swap2\n      pop\n      pop\n      jump\t// out\n        /* \"#utility.yul\":6771:6879   */\n    tag_151:\n        /* \"#utility.yul\":6848:6872   */\n      tag_153\n        /* \"#utility.yul\":6866:6871   */\n      dup2\n        /* \"#utility.yul\":6848:6872   */\n      tag_154\n      jump\t// in\n    tag_153:\n        /* \"#utility.yul\":6843:6846   */\n      dup3\n        /* \"#utility.yul\":6836:6873   */\n      mstore\n        /* \"#utility.yul\":6771:6879   */\n      pop\n      pop\n      jump\t// out\n        /* \"#utility.yul\":6915:7647   */\n    tag_155:\n        /* \"#utility.yul\":7034:7037   */\n      0x00\n        /* \"#utility.yul\":7063:7117   */\n      tag_157\n        /* \"#utility.yul\":7111:7116   */\n      dup3\n        /* \"#utility.yul\":7063:7117   */\n      tag_158\n      jump\t// in\n    tag_157:\n        /* \"#utility.yul\":7133:7219   */\n      tag_159\n        /* \"#utility.yul\":7212:7218   */\n      dup2\n        /* \"#utility.yul\":7207:7210   */\n      dup6\n        /* \"#utility.yul\":7133:7219   */\n      tag_160\n      jump\t// in\n    tag_159:\n        /* \"#utility.yul\":7126:7219   */\n      swap4\n      pop\n        /* \"#utility.yul\":7243:7299   */\n      tag_161\n        /* \"#utility.yul\":7293:7298   */\n      dup4\n        /* \"#utility.yul\":7243:7299   */\n      tag_162\n      jump\t// in\n    tag_161:\n        /* \"#utility.yul\":7322:7329   */\n      dup1\n        /* \"#utility.yul\":7353:7354   */\n      0x00\n        /* \"#utility.yul\":7338:7622   */\n    tag_163:\n        /* \"#utility.yul\":7363:7369   */\n      dup4\n        /* \"#utility.yul\":7360:7361   */\n      dup2\n        /* \"#utility.yul\":7357:7370   */\n      lt\n        /* \"#utility.yul\":7338:7622   */\n      iszero\n      tag_165\n      jumpi\n        /* \"#utility.yul\":7439:7445   */\n      dup2\n        /* \"#utility.yul\":7433:7446   */\n      mload\n        /* \"#utility.yul\":7466:7529   */\n      tag_166\n        /* \"#utility.yul\":7525:7528   */\n      dup9\n        /* \"#utility.yul\":7510:7523   */\n      dup3\n        /* \"#utility.yul\":7466:7529   */\n      tag_148\n      jump\t// in\n    tag_166:\n        /* \"#utility.yul\":7459:7529   */\n      swap8\n      pop\n        /* \"#utility.yul\":7552:7612   */\n      tag_167\n        /* \"#utility.yul\":7605:7611   */\n      dup4\n        /* \"#utility.yul\":7552:7612   */\n      tag_168\n      jump\t// in\n    tag_167:\n        /* \"#utility.yul\":7542:7612   */\n      swap3\n      pop\n        /* \"#utility.yul\":7398:7622   */\n      pop\n        /* \"#utility.yul\":7385:7386   */\n      0x01\n        /* \"#utility.yul\":7382:7383   */\n      dup2\n        /* \"#utility.yul\":7378:7387   */\n      add\n        /* \"#utility.yul\":7373:7387   */\n      swap1\n      pop\n        /* \"#utility.yul\":7338:7622   */\n      jump(tag_163)\n    tag_165:\n        /* \"#utility.yul\":7342:7356   */\n      pop\n        /* \"#utility.yul\":7638:7641   */\n      dup6\n        /* \"#utility.yul\":7631:7641   */\n      swap4\n      pop\n        /* \"#utility.yul\":7039:7647   */\n      pop\n      pop\n      pop\n        /* \"#utility.yul\":6915:7647   */\n      swap3\n      swap2\n      pop\n      pop\n      jump\t// out\n        /* \"#utility.yul\":7653:8019   */\n    tag_169:\n        /* \"#utility.yul\":7795:7798   */\n      0x00\n        /* \"#utility.yul\":7816:7883   */\n      tag_171\n        /* \"#utility.yul\":7880:7882   */\n      0x0e\n        /* \"#utility.yul\":7875:7878   */\n      dup4\n        /* \"#utility.yul\":7816:7883   */\n      tag_172\n      jump\t// in\n    tag_171:\n        /* \"#utility.yul\":7809:7883   */\n      swap2\n      pop\n        /* \"#utility.yul\":7892:7985   */\n      tag_173\n        /* \"#utility.yul\":7981:7984   */\n      dup3\n        /* \"#utility.yul\":7892:7985   */\n      tag_174\n      jump\t// in\n    tag_173:\n        /* \"#utility.yul\":8010:8012   */\n      0x20\n        /* \"#utility.yul\":8005:8008   */\n      dup3\n        /* \"#utility.yul\":8001:8013   */\n      add\n        /* \"#utility.yul\":7994:8013   */\n      swap1\n      pop\n        /* \"#utility.yul\":7653:8019   */\n      swap2\n      swap1\n      pop\n      jump\t// out\n        /* \"#utility.yul\":8025:8143   */\n    tag_175:\n        /* \"#utility.yul\":8112:8136   */\n      tag_177\n        /* \"#utility.yul\":8130:8135   */\n      dup2\n        /* \"#utility.yul\":8112:8136   */\n      tag_178\n      jump\t// in\n    tag_177:\n        /* \"#utility.yul\":8107:8110   */\n      dup3\n        /* \"#utility.yul\":8100:8137   */\n      mstore\n        /* \"#utility.yul\":8025:8143   */\n      pop\n      pop\n      jump\t// out\n        /* \"#utility.yul\":8149:8568   */\n    tag_19:\n        /* \"#utility.yul\":8315:8319   */\n      0x00\n        /* \"#utility.yul\":8353:8355   */\n      0x20\n        /* \"#utility.yul\":8342:8351   */\n      dup3\n        /* \"#utility.yul\":8338:8356   */\n      add\n        /* \"#utility.yul\":8330:8356   */\n      swap1\n      pop\n        /* \"#utility.yul\":8402:8411   */\n      dup2\n        /* \"#utility.yul\":8396:8400   */\n      dup2\n        /* \"#utility.yul\":8392:8412   */\n      sub\n        /* \"#utility.yul\":8388:8389   */\n      0x00\n        /* \"#utility.yul\":8377:8386   */\n      dup4\n        /* \"#utility.yul\":8373:8390   */\n      add\n        /* \"#utility.yul\":8366:8413   */\n      mstore\n        /* \"#utility.yul\":8430:8561   */\n      tag_180\n        /* \"#utility.yul\":8556:8560   */\n      dup2\n        /* \"#utility.yul\":8430:8561   */\n      tag_169\n      jump\t// in\n    tag_180:\n        /* \"#utility.yul\":8422:8561   */\n      swap1\n      pop\n        /* \"#utility.yul\":8149:8568   */\n      swap2\n      swap1\n      pop\n      jump\t// out\n        /* \"#utility.yul\":8574:9057   */\n    tag_41:\n        /* \"#utility.yul\":8745:8749   */\n      0x00\n        /* \"#utility.yul\":8783:8785   */\n      0x40\n        /* \"#utility.yul\":8772:8781   */\n      dup3\n        /* \"#utility.yul\":8768:8786   */\n      add\n        /* \"#utility.yul\":8760:8786   */\n      swap1\n      pop\n        /* \"#utility.yul\":8796:8867   */\n      tag_182\n        /* \"#utility.yul\":8864:8865   */\n      0x00\n        /* \"#utility.yul\":8853:8862   */\n      dup4\n        /* \"#utility.yul\":8849:8866   */\n      add\n        /* \"#utility.yul\":8840:8846   */\n      dup6\n        /* \"#utility.yul\":8796:8867   */\n      tag_175\n      jump\t// in\n    tag_182:\n        /* \"#utility.yul\":8914:8923   */\n      dup2\n        /* \"#utility.yul\":8908:8912   */\n      dup2\n        /* \"#utility.yul\":8904:8924   */\n      sub\n        /* \"#utility.yul\":8899:8901   */\n      0x20\n        /* \"#utility.yul\":8888:8897   */\n      dup4\n        /* \"#utility.yul\":8884:8902   */\n      add\n        /* \"#utility.yul\":8877:8925   */\n      mstore\n        /* \"#utility.yul\":8942:9050   */\n      tag_183\n        /* \"#utility.yul\":9045:9049   */\n      dup2\n        /* \"#utility.yul\":9036:9042   */\n      dup5\n        /* \"#utility.yul\":8942:9050   */\n      tag_155\n      jump\t// in\n    tag_183:\n        /* \"#utility.yul\":8934:9050   */\n      swap1\n      pop\n        /* \"#utility.yul\":8574:9057   */\n      swap4\n      swap3\n      pop\n      pop\n      pop\n      jump\t// out\n        /* \"#utility.yul\":9063:9192   */\n    tag_62:\n        /* \"#utility.yul\":9097:9103   */\n      0x00\n        /* \"#utility.yul\":9124:9144   */\n      tag_185\n      tag_186\n      jump\t// in\n    tag_185:\n        /* \"#utility.yul\":9114:9144   */\n      swap1\n      pop\n        /* \"#utility.yul\":9153:9186   */\n      tag_187\n        /* \"#utility.yul\":9181:9185   */\n      dup3\n        /* \"#utility.yul\":9173:9179   */\n      dup3\n        /* \"#utility.yul\":9153:9186   */\n      tag_188\n      jump\t// in\n    tag_187:\n        /* \"#utility.yul\":9063:9192   */\n      swap2\n      swap1\n      pop\n      jump\t// out\n        /* \"#utility.yul\":9198:9273   */\n    tag_186:\n        /* \"#utility.yul\":9231:9237   */\n      0x00\n        /* \"#utility.yul\":9264:9266   */\n      0x40\n        /* \"#utility.yul\":9258:9267   */\n      mload\n        /* \"#utility.yul\":9248:9267   */\n      swap1\n      pop\n        /* \"#utility.yul\":9198:9273   */\n      swap1\n      jump\t// out\n        /* \"#utility.yul\":9279:9590   */\n    tag_61:\n        /* \"#utility.yul\":9356:9360   */\n      0x00\n        /* \"#utility.yul\":9446:9464   */\n      0xffffffffffffffff\n        /* \"#utility.yul\":9438:9444   */\n      dup3\n        /* \"#utility.yul\":9435:9465   */\n      gt\n        /* \"#utility.yul\":9432:9488   */\n      iszero\n      tag_191\n      jumpi\n        /* \"#utility.yul\":9468:9486   */\n      tag_192\n      tag_25\n      jump\t// in\n    tag_192:\n        /* \"#utility.yul\":9432:9488   */\n    tag_191:\n        /* \"#utility.yul\":9518:9522   */\n      0x20\n        /* \"#utility.yul\":9510:9516   */\n      dup3\n        /* \"#utility.yul\":9506:9523   */\n      mul\n        /* \"#utility.yul\":9498:9523   */\n      swap1\n      pop\n        /* \"#utility.yul\":9578:9582   */\n      0x20\n        /* \"#utility.yul\":9572:9576   */\n      dup2\n        /* \"#utility.yul\":9568:9583   */\n      add\n        /* \"#utility.yul\":9560:9583   */\n      swap1\n      pop\n        /* \"#utility.yul\":9279:9590   */\n      swap2\n      swap1\n      pop\n      jump\t// out\n        /* \"#utility.yul\":9596:9907   */\n    tag_75:\n        /* \"#utility.yul\":9673:9677   */\n      0x00\n        /* \"#utility.yul\":9763:9781   */\n      0xffffffffffffffff\n        /* \"#utility.yul\":9755:9761   */\n      dup3\n        /* \"#utility.yul\":9752:9782   */\n      gt\n        /* \"#utility.yul\":9749:9805   */\n      iszero\n      tag_194\n      jumpi\n        /* \"#utility.yul\":9785:9803   */\n      tag_195\n      tag_25\n      jump\t// in\n    tag_195:\n        /* \"#utility.yul\":9749:9805   */\n    tag_194:\n        /* \"#utility.yul\":9835:9839   */\n      0x20\n        /* \"#utility.yul\":9827:9833   */\n      dup3\n        /* \"#utility.yul\":9823:9840   */\n      mul\n        /* \"#utility.yul\":9815:9840   */\n      swap1\n      pop\n        /* \"#utility.yul\":9895:9899   */\n      0x20\n        /* \"#utility.yul\":9889:9893   */\n      dup2\n        /* \"#utility.yul\":9885:9900   */\n      add\n        /* \"#utility.yul\":9877:9900   */\n      swap1\n      pop\n        /* \"#utility.yul\":9596:9907   */\n      swap2\n      swap1\n      pop\n      jump\t// out\n        /* \"#utility.yul\":9913:10045   */\n    tag_162:\n        /* \"#utility.yul\":9980:9984   */\n      0x00\n        /* \"#utility.yul\":10003:10006   */\n      dup2\n        /* \"#utility.yul\":9995:10006   */\n      swap1\n      pop\n        /* \"#utility.yul\":10033:10037   */\n      0x20\n        /* \"#utility.yul\":10028:10031   */\n      dup3\n        /* \"#utility.yul\":10024:10038   */\n      add\n        /* \"#utility.yul\":10016:10038   */\n      swap1\n      pop\n        /* \"#utility.yul\":9913:10045   */\n      swap2\n      swap1\n      pop\n      jump\t// out\n        /* \"#utility.yul\":10051:10165   */\n    tag_158:\n        /* \"#utility.yul\":10118:10124   */\n      0x00\n        /* \"#utility.yul\":10152:10157   */\n      dup2\n        /* \"#utility.yul\":10146:10158   */\n      mload\n        /* \"#utility.yul\":10136:10158   */\n      swap1\n      pop\n        /* \"#utility.yul\":10051:10165   */\n      swap2\n      swap1\n      pop\n      jump\t// out\n        /* \"#utility.yul\":10171:10284   */\n    tag_168:\n        /* \"#utility.yul\":10241:10245   */\n      0x00\n        /* \"#utility.yul\":10273:10277   */\n      0x20\n        /* \"#utility.yul\":10268:10271   */\n      dup3\n        /* \"#utility.yul\":10264:10278   */\n      add\n        /* \"#utility.yul\":10256:10278   */\n      swap1\n      pop\n        /* \"#utility.yul\":10171:10284   */\n      swap2\n      swap1\n      pop\n      jump\t// out\n        /* \"#utility.yul\":10290:10474   */\n    tag_160:\n        /* \"#utility.yul\":10389:10400   */\n      0x00\n        /* \"#utility.yul\":10423:10429   */\n      dup3\n        /* \"#utility.yul\":10418:10421   */\n      dup3\n        /* \"#utility.yul\":10411:10430   */\n      mstore\n        /* \"#utility.yul\":10463:10467   */\n      0x20\n        /* \"#utility.yul\":10458:10461   */\n      dup3\n        /* \"#utility.yul\":10454:10468   */\n      add\n        /* \"#utility.yul\":10439:10468   */\n      swap1\n      pop\n        /* \"#utility.yul\":10290:10474   */\n      swap3\n      swap2\n      pop\n      pop\n      jump\t// out\n        /* \"#utility.yul\":10480:10649   */\n    tag_172:\n        /* \"#utility.yul\":10564:10575   */\n      0x00\n        /* \"#utility.yul\":10598:10604   */\n      dup3\n        /* \"#utility.yul\":10593:10596   */\n      dup3\n        /* \"#utility.yul\":10586:10605   */\n      mstore\n        /* \"#utility.yul\":10638:10642   */\n      0x20\n        /* \"#utility.yul\":10633:10636   */\n      dup3\n        /* \"#utility.yul\":10629:10643   */\n      add\n        /* \"#utility.yul\":10614:10643   */\n      swap1\n      pop\n        /* \"#utility.yul\":10480:10649   */\n      swap3\n      swap2\n      pop\n      pop\n      jump\t// out\n        /* \"#utility.yul\":10655:10840   */\n    tag_39:\n        /* \"#utility.yul\":10695:10696   */\n      0x00\n        /* \"#utility.yul\":10712:10732   */\n      tag_202\n        /* \"#utility.yul\":10730:10731   */\n      dup3\n        /* \"#utility.yul\":10712:10732   */\n      tag_178\n      jump\t// in\n    tag_202:\n        /* \"#utility.yul\":10707:10732   */\n      swap2\n      pop\n        /* \"#utility.yul\":10746:10766   */\n      tag_203\n        /* \"#utility.yul\":10764:10765   */\n      dup4\n        /* \"#utility.yul\":10746:10766   */\n      tag_178\n      jump\t// in\n    tag_203:\n        /* \"#utility.yul\":10741:10766   */\n      swap3\n      pop\n        /* \"#utility.yul\":10785:10786   */\n      dup3\n        /* \"#utility.yul\":10775:10810   */\n      tag_204\n      jumpi\n        /* \"#utility.yul\":10790:10808   */\n      tag_205\n      tag_206\n      jump\t// in\n    tag_205:\n        /* \"#utility.yul\":10775:10810   */\n    tag_204:\n        /* \"#utility.yul\":10832:10833   */\n      dup3\n        /* \"#utility.yul\":10829:10830   */\n      dup3\n        /* \"#utility.yul\":10825:10834   */\n      div\n        /* \"#utility.yul\":10820:10834   */\n      swap1\n      pop\n        /* \"#utility.yul\":10655:10840   */\n      swap3\n      swap2\n      pop\n      pop\n      jump\t// out\n        /* \"#utility.yul\":10846:11194   */\n    tag_37:\n        /* \"#utility.yul\":10886:10893   */\n      0x00\n        /* \"#utility.yul\":10909:10929   */\n      tag_208\n        /* \"#utility.yul\":10927:10928   */\n      dup3\n        /* \"#utility.yul\":10909:10929   */\n      tag_178\n      jump\t// in\n    tag_208:\n        /* \"#utility.yul\":10904:10929   */\n      swap2\n      pop\n        /* \"#utility.yul\":10943:10963   */\n      tag_209\n        /* \"#utility.yul\":10961:10962   */\n      dup4\n        /* \"#utility.yul\":10943:10963   */\n      tag_178\n      jump\t// in\n    tag_209:\n        /* \"#utility.yul\":10938:10963   */\n      swap3\n      pop\n        /* \"#utility.yul\":11131:11132   */\n      dup2\n        /* \"#utility.yul\":11063:11129   */\n      0xffffffffffffffffffffffffffffffffffffffffffffffffffffffffffffffff\n        /* \"#utility.yul\":11059:11133   */\n      div\n        /* \"#utility.yul\":11056:11057   */\n      dup4\n        /* \"#utility.yul\":11053:11134   */\n      gt\n        /* \"#utility.yul\":11048:11049   */\n      dup3\n        /* \"#utility.yul\":11041:11050   */\n      iszero\n        /* \"#utility.yul\":11034:11051   */\n      iszero\n        /* \"#utility.yul\":11030:11135   */\n      and\n        /* \"#utility.yul\":11027:11158   */\n      iszero\n      tag_210\n      jumpi\n        /* \"#utility.yul\":11138:11156   */\n      tag_211\n      tag_212\n      jump\t// in\n    tag_211:\n        /* \"#utility.yul\":11027:11158   */\n    tag_210:\n        /* \"#utility.yul\":11186:11187   */\n      dup3\n        /* \"#utility.yul\":11183:11184   */\n      dup3\n        /* \"#utility.yul\":11179:11188   */\n      mul\n        /* \"#utility.yul\":11168:11188   */\n      swap1\n      pop\n        /* \"#utility.yul\":10846:11194   */\n      swap3\n      swap2\n      pop\n      pop\n      jump\t// out\n        /* \"#utility.yul\":11200:11296   */\n    tag_154:\n        /* \"#utility.yul\":11237:11244   */\n      0x00\n        /* \"#utility.yul\":11266:11290   */\n      tag_214\n        /* \"#utility.yul\":11284:11289   */\n      dup3\n        /* \"#utility.yul\":11266:11290   */\n      tag_215\n      jump\t// in\n    tag_214:\n        /* \"#utility.yul\":11255:11290   */\n      swap1\n      pop\n        /* \"#utility.yul\":11200:11296   */\n      swap2\n      swap1\n      pop\n      jump\t// out\n        /* \"#utility.yul\":11302:11424   */\n    tag_216:\n        /* \"#utility.yul\":11365:11372   */\n      0x00\n        /* \"#utility.yul\":11394:11418   */\n      tag_218\n        /* \"#utility.yul\":11412:11417   */\n      dup3\n        /* \"#utility.yul\":11394:11418   */\n      tag_154\n      jump\t// in\n    tag_218:\n        /* \"#utility.yul\":11383:11418   */\n      swap1\n      pop\n        /* \"#utility.yul\":11302:11424   */\n      swap2\n      swap1\n      pop\n      jump\t// out\n        /* \"#utility.yul\":11430:11556   */\n    tag_215:\n        /* \"#utility.yul\":11467:11474   */\n      0x00\n        /* \"#utility.yul\":11507:11549   */\n      0xffffffffffffffffffffffffffffffffffffffff\n        /* \"#utility.yul\":11500:11505   */\n      dup3\n        /* \"#utility.yul\":11496:11550   */\n      and\n        /* \"#utility.yul\":11485:11550   */\n      swap1\n      pop\n        /* \"#utility.yul\":11430:11556   */\n      swap2\n      swap1\n      pop\n      jump\t// out\n        /* \"#utility.yul\":11562:11639   */\n    tag_178:\n        /* \"#utility.yul\":11599:11606   */\n      0x00\n        /* \"#utility.yul\":11628:11633   */\n      dup2\n        /* \"#utility.yul\":11617:11633   */\n      swap1\n      pop\n        /* \"#utility.yul\":11562:11639   */\n      swap2\n      swap1\n      pop\n      jump\t// out\n        /* \"#utility.yul\":11645:11926   */\n    tag_188:\n        /* \"#utility.yul\":11728:11755   */\n      tag_222\n        /* \"#utility.yul\":11750:11754   */\n      dup3\n        /* \"#utility.yul\":11728:11755   */\n      tag_223\n      jump\t// in\n    tag_222:\n        /* \"#utility.yul\":11720:11726   */\n      dup2\n        /* \"#utility.yul\":11716:11756   */\n      add\n        /* \"#utility.yul\":11858:11864   */\n      dup2\n        /* \"#utility.yul\":11846:11856   */\n      dup2\n        /* \"#utility.yul\":11843:11865   */\n      lt\n        /* \"#utility.yul\":11822:11840   */\n      0xffffffffffffffff\n        /* \"#utility.yul\":11810:11820   */\n      dup3\n        /* \"#utility.yul\":11807:11841   */\n      gt\n        /* \"#utility.yul\":11804:11866   */\n      or\n        /* \"#utility.yul\":11801:11889   */\n      iszero\n      tag_224\n      jumpi\n        /* \"#utility.yul\":11869:11887   */\n      tag_225\n      tag_25\n      jump\t// in\n    tag_225:\n        /* \"#utility.yul\":11801:11889   */\n    tag_224:\n        /* \"#utility.yul\":11909:11919   */\n      dup1\n        /* \"#utility.yul\":11905:11907   */\n      0x40\n        /* \"#utility.yul\":11898:11920   */\n      mstore\n        /* \"#utility.yul\":11688:11926   */\n      pop\n        /* \"#utility.yul\":11645:11926   */\n      pop\n      pop\n      jump\t// out\n        /* \"#utility.yul\":11932:12165   */\n    tag_48:\n        /* \"#utility.yul\":11971:11974   */\n      0x00\n        /* \"#utility.yul\":11994:12018   */\n      tag_227\n        /* \"#utility.yul\":12012:12017   */\n      dup3\n        /* \"#utility.yul\":11994:12018   */\n      tag_178\n      jump\t// in\n    tag_227:\n        /* \"#utility.yul\":11985:12018   */\n      swap2\n      pop\n        /* \"#utility.yul\":12040:12106   */\n      0xffffffffffffffffffffffffffffffffffffffffffffffffffffffffffffffff\n        /* \"#utility.yul\":12033:12038   */\n      dup3\n        /* \"#utility.yul\":12030:12107   */\n      eq\n        /* \"#utility.yul\":12027:12130   */\n      iszero\n      tag_228\n      jumpi\n        /* \"#utility.yul\":12110:12128   */\n      tag_229\n      tag_212\n      jump\t// in\n    tag_229:\n        /* \"#utility.yul\":12027:12130   */\n    tag_228:\n        /* \"#utility.yul\":12157:12158   */\n      0x01\n        /* \"#utility.yul\":12150:12155   */\n      dup3\n        /* \"#utility.yul\":12146:12159   */\n      add\n        /* \"#utility.yul\":12139:12159   */\n      swap1\n      pop\n        /* \"#utility.yul\":11932:12165   */\n      swap2\n      swap1\n      pop\n      jump\t// out\n        /* \"#utility.yul\":12171:12351   */\n    tag_212:\n        /* \"#utility.yul\":12219:12296   */\n      0x4e487b7100000000000000000000000000000000000000000000000000000000\n        /* \"#utility.yul\":12216:12217   */\n      0x00\n        /* \"#utility.yul\":12209:12297   */\n      mstore\n        /* \"#utility.yul\":12316:12320   */\n      0x11\n        /* \"#utility.yul\":12313:12314   */\n      0x04\n        /* \"#utility.yul\":12306:12321   */\n      mstore\n        /* \"#utility.yul\":12340:12344   */\n      0x24\n        /* \"#utility.yul\":12337:12338   */\n      0x00\n        /* \"#utility.yul\":12330:12345   */\n      revert\n        /* \"#utility.yul\":12357:12537   */\n    tag_206:\n        /* \"#utility.yul\":12405:12482   */\n      0x4e487b7100000000000000000000000000000000000000000000000000000000\n        /* \"#utility.yul\":12402:12403   */\n      0x00\n        /* \"#utility.yul\":12395:12483   */\n      mstore\n        /* \"#utility.yul\":12502:12506   */\n      0x12\n        /* \"#utility.yul\":12499:12500   */\n      0x04\n        /* \"#utility.yul\":12492:12507   */\n      mstore\n        /* \"#utility.yul\":12526:12530   */\n      0x24\n        /* \"#utility.yul\":12523:12524   */\n      0x00\n        /* \"#utility.yul\":12516:12531   */\n      revert\n        /* \"#utility.yul\":12543:12723   */\n    tag_29:\n        /* \"#utility.yul\":12591:12668   */\n      0x4e487b7100000000000000000000000000000000000000000000000000000000\n        /* \"#utility.yul\":12588:12589   */\n      0x00\n        /* \"#utility.yul\":12581:12669   */\n      mstore\n        /* \"#utility.yul\":12688:12692   */\n      0x32\n        /* \"#utility.yul\":12685:12686   */\n      0x04\n        /* \"#utility.yul\":12678:12693   */\n      mstore\n        /* \"#utility.yul\":12712:12716   */\n      0x24\n        /* \"#utility.yul\":12709:12710   */\n      0x00\n        /* \"#utility.yul\":12702:12717   */\n      revert\n        /* \"#utility.yul\":12729:12909   */\n    tag_25:\n        /* \"#utility.yul\":12777:12854   */\n      0x4e487b7100000000000000000000000000000000000000000000000000000000\n        /* \"#utility.yul\":12774:12775   */\n      0x00\n        /* \"#utility.yul\":12767:12855   */\n      mstore\n        /* \"#utility.yul\":12874:12878   */\n      0x41\n        /* \"#utility.yul\":12871:12872   */\n      0x04\n        /* \"#utility.yul\":12864:12879   */\n      mstore\n        /* \"#utility.yul\":12898:12902   */\n      0x24\n        /* \"#utility.yul\":12895:12896   */\n      0x00\n        /* \"#utility.yul\":12888:12903   */\n      revert\n        /* \"#utility.yul\":12915:13032   */\n    tag_101:\n        /* \"#utility.yul\":13024:13025   */\n      0x00\n        /* \"#utility.yul\":13021:13022   */\n      dup1\n        /* \"#utility.yul\":13014:13026   */\n      revert\n        /* \"#utility.yul\":13038:13155   */\n    tag_65:\n        /* \"#utility.yul\":13147:13148   */\n      0x00\n        /* \"#utility.yul\":13144:13145   */\n      dup1\n        /* \"#utility.yul\":13137:13149   */\n      revert\n        /* \"#utility.yul\":13161:13278   */\n    tag_128:\n        /* \"#utility.yul\":13270:13271   */\n      0x00\n        /* \"#utility.yul\":13267:13268   */\n      dup1\n        /* \"#utility.yul\":13260:13272   */\n      revert\n        /* \"#utility.yul\":13284:13401   */\n    tag_125:\n        /* \"#utility.yul\":13393:13394   */\n      0x00\n        /* \"#utility.yul\":13390:13391   */\n      dup1\n        /* \"#utility.yul\":13383:13395   */\n      revert\n        /* \"#utility.yul\":13407:13509   */\n    tag_223:\n        /* \"#utility.yul\":13448:13454   */\n      0x00\n        /* \"#utility.yul\":13499:13501   */\n      0x1f\n        /* \"#utility.yul\":13495:13502   */\n      not\n        /* \"#utility.yul\":13490:13492   */\n      0x1f\n        /* \"#utility.yul\":13483:13488   */\n      dup4\n        /* \"#utility.yul\":13479:13493   */\n      add\n        /* \"#utility.yul\":13475:13503   */\n      and\n        /* \"#utility.yul\":13465:13503   */\n      swap1\n      pop\n        /* \"#utility.yul\":13407:13509   */\n      swap2\n      swap1\n      pop\n      jump\t// out\n        /* \"#utility.yul\":13515:13679   */\n    tag_174:\n        /* \"#utility.yul\":13655:13671   */\n      0x496e76616c6964204d6174696321000000000000000000000000000000000000\n        /* \"#utility.yul\":13651:13652   */\n      0x00\n        /* \"#utility.yul\":13643:13649   */\n      dup3\n        /* \"#utility.yul\":13639:13653   */\n      add\n        /* \"#utility.yul\":13632:13672   */\n      mstore\n        /* \"#utility.yul\":13515:13679   */\n      pop\n      jump\t// out\n        /* \"#utility.yul\":13685:13807   */\n    tag_96:\n        /* \"#utility.yul\":13758:13782   */\n      tag_241\n        /* \"#utility.yul\":13776:13781   */\n      dup2\n        /* \"#utility.yul\":13758:13782   */\n      tag_154\n      jump\t// in\n    tag_241:\n        /* \"#utility.yul\":13751:13756   */\n      dup2\n        /* \"#utility.yul\":13748:13783   */\n      eq\n        /* \"#utility.yul\":13738:13801   */\n      tag_242\n      jumpi\n        /* \"#utility.yul\":13797:13798   */\n      0x00\n        /* \"#utility.yul\":13794:13795   */\n      dup1\n        /* \"#utility.yul\":13787:13799   */\n      revert\n        /* \"#utility.yul\":13738:13801   */\n    tag_242:\n        /* \"#utility.yul\":13685:13807   */\n      pop\n      jump\t// out\n        /* \"#utility.yul\":13813:13987   */\n    tag_116:\n        /* \"#utility.yul\":13912:13962   */\n      tag_244\n        /* \"#utility.yul\":13956:13961   */\n      dup2\n        /* \"#utility.yul\":13912:13962   */\n      tag_216\n      jump\t// in\n    tag_244:\n        /* \"#utility.yul\":13905:13910   */\n      dup2\n        /* \"#utility.yul\":13902:13963   */\n      eq\n        /* \"#utility.yul\":13892:13981   */\n      tag_245\n      jumpi\n        /* \"#utility.yul\":13977:13978   */\n      0x00\n        /* \"#utility.yul\":13974:13975   */\n      dup1\n        /* \"#utility.yul\":13967:13979   */\n      revert\n        /* \"#utility.yul\":13892:13981   */\n    tag_245:\n        /* \"#utility.yul\":13813:13987   */\n      pop\n      jump\t// out\n        /* \"#utility.yul\":13993:14115   */\n    tag_119:\n        /* \"#utility.yul\":14066:14090   */\n      tag_247\n        /* \"#utility.yul\":14084:14089   */\n      dup2\n        /* \"#utility.yul\":14066:14090   */\n      tag_178\n      jump\t// in\n    tag_247:\n        /* \"#utility.yul\":14059:14064   */\n      dup2\n        /* \"#utility.yul\":14056:14091   */\n      eq\n        /* \"#utility.yul\":14046:14109   */\n      tag_248\n      jumpi\n        /* \"#utility.yul\":14105:14106   */\n      0x00\n        /* \"#utility.yul\":14102:14103   */\n      dup1\n        /* \"#utility.yul\":14095:14107   */\n      revert\n        /* \"#utility.yul\":14046:14109   */\n    tag_248:\n        /* \"#utility.yul\":13993:14115   */\n      pop\n      jump\t// out\n\n    auxdata: 0xa264697066735822122074967278c87778aa43a5e563bfee9fbf9a1a8a07930b1614aeefd74d1b6d469064736f6c63430008070033\n}\n",
				"bytecode": {
					"linkReferences": {},
					"object": "608060405234801561001057600080fd5b50610c4e806100206000396000f3fe6080604052600436106100295760003560e01c806390482d721461002e578063f9d5d56014610057575b600080fd5b34801561003a57600080fd5b50610055600480360381019061005091906106f0565b610073565b005b610071600480360381019061006c9190610665565b610111565b005b8260019080519060200190610089929190610390565b5081600260006101000a81548173ffffffffffffffffffffffffffffffffffffffff021916908373ffffffffffffffffffffffffffffffffffffffff16021790555080600360006101000a81548173ffffffffffffffffffffffffffffffffffffffff021916908373ffffffffffffffffffffffffffffffffffffffff160217905550505050565b600083519050813414610159576040517f08c379a00000000000000000000000000000000000000000000000000000000081526004016101509061085f565b60405180910390fd5b60005b81811015610389576000600267ffffffffffffffff81111561018157610180610b56565b5b6040519080825280602002602001820160405280156101af5781602001602082028036833780820191505090505b509050600360009054906101000a900473ffffffffffffffffffffffffffffffffffffffff16816000815181106101e9576101e8610b27565b5b602002602001019073ffffffffffffffffffffffffffffffffffffffff16908173ffffffffffffffffffffffffffffffffffffffff168152505085828151811061023657610235610b27565b5b60200260200101518160018151811061025257610251610b27565b5b602002602001019073ffffffffffffffffffffffffffffffffffffffff16908173ffffffffffffffffffffffffffffffffffffffff16815250506000600260009054906101000a900473ffffffffffffffffffffffffffffffffffffffff1673ffffffffffffffffffffffffffffffffffffffff1663d06ca61f6127108886815181106102e2576102e1610b27565b5b6020026020010151886102f591906109a7565b6102ff9190610976565b846040518363ffffffff1660e01b815260040161031d92919061087f565b60006040518083038186803b15801561033557600080fd5b505afa158015610349573d6000803e3d6000fd5b505050506040513d6000823e3d601f19601f82011682018060405250810190610372919061075f565b90505050808061038190610a80565b91505061015c565b5050505050565b828054828255906000526020600020908101928215610409579160200282015b828111156104085782518260006101000a81548173ffffffffffffffffffffffffffffffffffffffff021916908373ffffffffffffffffffffffffffffffffffffffff160217905550916020019190600101906103b0565b5b509050610416919061041a565b5090565b5b8082111561043357600081600090555060010161041b565b5090565b600061044a610445846108d4565b6108af565b9050808382526020820190508285602086028201111561046d5761046c610b8a565b5b60005b8581101561049d57816104838882610587565b845260208401935060208301925050600181019050610470565b5050509392505050565b60006104ba6104b584610900565b6108af565b905080838252602082019050828560208602820111156104dd576104dc610b8a565b5b60005b8581101561050d57816104f3888261063b565b8452602084019350602083019250506001810190506104e0565b5050509392505050565b600061052a61052584610900565b6108af565b9050808382526020820190508285602086028201111561054d5761054c610b8a565b5b60005b8581101561057d57816105638882610650565b845260208401935060208301925050600181019050610550565b5050509392505050565b60008135905061059681610bd3565b92915050565b600082601f8301126105b1576105b0610b85565b5b81356105c1848260208601610437565b91505092915050565b600082601f8301126105df576105de610b85565b5b81356105ef8482602086016104a7565b91505092915050565b600082601f83011261060d5761060c610b85565b5b815161061d848260208601610517565b91505092915050565b60008135905061063581610bea565b92915050565b60008135905061064a81610c01565b92915050565b60008151905061065f81610c01565b92915050565b60008060006060848603121561067e5761067d610b94565b5b600084013567ffffffffffffffff81111561069c5761069b610b8f565b5b6106a88682870161059c565b935050602084013567ffffffffffffffff8111156106c9576106c8610b8f565b5b6106d5868287016105ca565b92505060406106e68682870161063b565b9150509250925092565b60008060006060848603121561070957610708610b94565b5b600084013567ffffffffffffffff81111561072757610726610b8f565b5b6107338682870161059c565b935050602061074486828701610626565b925050604061075586828701610587565b9150509250925092565b60006020828403121561077557610774610b94565b5b600082015167ffffffffffffffff81111561079357610792610b8f565b5b61079f848285016105f8565b91505092915050565b60006107b483836107c0565b60208301905092915050565b6107c981610a01565b82525050565b60006107da8261093c565b6107e48185610954565b93506107ef8361092c565b8060005b8381101561082057815161080788826107a8565b975061081283610947565b9250506001810190506107f3565b5085935050505092915050565b600061083a600e83610965565b915061084582610baa565b602082019050919050565b61085981610a45565b82525050565b600060208201905081810360008301526108788161082d565b9050919050565b60006040820190506108946000830185610850565b81810360208301526108a681846107cf565b90509392505050565b60006108b96108ca565b90506108c58282610a4f565b919050565b6000604051905090565b600067ffffffffffffffff8211156108ef576108ee610b56565b5b602082029050602081019050919050565b600067ffffffffffffffff82111561091b5761091a610b56565b5b602082029050602081019050919050565b6000819050602082019050919050565b600081519050919050565b6000602082019050919050565b600082825260208201905092915050565b600082825260208201905092915050565b600061098182610a45565b915061098c83610a45565b92508261099c5761099b610af8565b5b828204905092915050565b60006109b282610a45565b91506109bd83610a45565b9250817fffffffffffffffffffffffffffffffffffffffffffffffffffffffffffffffff04831182151516156109f6576109f5610ac9565b5b828202905092915050565b6000610a0c82610a25565b9050919050565b6000610a1e82610a01565b9050919050565b600073ffffffffffffffffffffffffffffffffffffffff82169050919050565b6000819050919050565b610a5882610b99565b810181811067ffffffffffffffff82111715610a7757610a76610b56565b5b80604052505050565b6000610a8b82610a45565b91507fffffffffffffffffffffffffffffffffffffffffffffffffffffffffffffffff821415610abe57610abd610ac9565b5b600182019050919050565b7f4e487b7100000000000000000000000000000000000000000000000000000000600052601160045260246000fd5b7f4e487b7100000000000000000000000000000000000000000000000000000000600052601260045260246000fd5b7f4e487b7100000000000000000000000000000000000000000000000000000000600052603260045260246000fd5b7f4e487b7100000000000000000000000000000000000000000000000000000000600052604160045260246000fd5b600080fd5b600080fd5b600080fd5b600080fd5b6000601f19601f8301169050919050565b7f496e76616c6964204d6174696321000000000000000000000000000000000000600082015250565b610bdc81610a01565b8114610be757600080fd5b50565b610bf381610a13565b8114610bfe57600080fd5b50565b610c0a81610a45565b8114610c1557600080fd5b5056fea264697066735822122074967278c87778aa43a5e563bfee9fbf9a1a8a07930b1614aeefd74d1b6d469064736f6c63430008070033",
					"opcodes": "PUSH1 0x80 PUSH1 0x40 MSTORE CALLVALUE DUP1 ISZERO PUSH2 0x10 JUMPI PUSH1 0x0 DUP1 REVERT JUMPDEST POP PUSH2 0xC4E DUP1 PUSH2 0x20 PUSH1 0x0 CODECOPY PUSH1 0x0 RETURN INVALID PUSH1 0x80 PUSH1 0x40 MSTORE PUSH1 0x4 CALLDATASIZE LT PUSH2 0x29 JUMPI PUSH1 0x0 CALLDATALOAD PUSH1 0xE0 SHR DUP1 PUSH4 0x90482D72 EQ PUSH2 0x2E JUMPI DUP1 PUSH4 0xF9D5D560 EQ PUSH2 0x57 JUMPI JUMPDEST PUSH1 0x0 DUP1 REVERT JUMPDEST CALLVALUE DUP1 ISZERO PUSH2 0x3A JUMPI PUSH1 0x0 DUP1 REVERT JUMPDEST POP PUSH2 0x55 PUSH1 0x4 DUP1 CALLDATASIZE SUB DUP2 ADD SWAP1 PUSH2 0x50 SWAP2 SWAP1 PUSH2 0x6F0 JUMP JUMPDEST PUSH2 0x73 JUMP JUMPDEST STOP JUMPDEST PUSH2 0x71 PUSH1 0x4 DUP1 CALLDATASIZE SUB DUP2 ADD SWAP1 PUSH2 0x6C SWAP2 SWAP1 PUSH2 0x665 JUMP JUMPDEST PUSH2 0x111 JUMP JUMPDEST STOP JUMPDEST DUP3 PUSH1 0x1 SWAP1 DUP1 MLOAD SWAP1 PUSH1 0x20 ADD SWAP1 PUSH2 0x89 SWAP3 SWAP2 SWAP1 PUSH2 0x390 JUMP JUMPDEST POP DUP2 PUSH1 0x2 PUSH1 0x0 PUSH2 0x100 EXP DUP2 SLOAD DUP2 PUSH20 0xFFFFFFFFFFFFFFFFFFFFFFFFFFFFFFFFFFFFFFFF MUL NOT AND SWAP1 DUP4 PUSH20 0xFFFFFFFFFFFFFFFFFFFFFFFFFFFFFFFFFFFFFFFF AND MUL OR SWAP1 SSTORE POP DUP1 PUSH1 0x3 PUSH1 0x0 PUSH2 0x100 EXP DUP2 SLOAD DUP2 PUSH20 0xFFFFFFFFFFFFFFFFFFFFFFFFFFFFFFFFFFFFFFFF MUL NOT AND SWAP1 DUP4 PUSH20 0xFFFFFFFFFFFFFFFFFFFFFFFFFFFFFFFFFFFFFFFF AND MUL OR SWAP1 SSTORE POP POP POP POP JUMP JUMPDEST PUSH1 0x0 DUP4 MLOAD SWAP1 POP DUP2 CALLVALUE EQ PUSH2 0x159 JUMPI PUSH1 0x40 MLOAD PUSH32 0x8C379A000000000000000000000000000000000000000000000000000000000 DUP2 MSTORE PUSH1 0x4 ADD PUSH2 0x150 SWAP1 PUSH2 0x85F JUMP JUMPDEST PUSH1 0x40 MLOAD DUP1 SWAP2 SUB SWAP1 REVERT JUMPDEST PUSH1 0x0 JUMPDEST DUP2 DUP2 LT ISZERO PUSH2 0x389 JUMPI PUSH1 0x0 PUSH1 0x2 PUSH8 0xFFFFFFFFFFFFFFFF DUP2 GT ISZERO PUSH2 0x181 JUMPI PUSH2 0x180 PUSH2 0xB56 JUMP JUMPDEST JUMPDEST PUSH1 0x40 MLOAD SWAP1 DUP1 DUP3 MSTORE DUP1 PUSH1 0x20 MUL PUSH1 0x20 ADD DUP3 ADD PUSH1 0x40 MSTORE DUP1 ISZERO PUSH2 0x1AF JUMPI DUP2 PUSH1 0x20 ADD PUSH1 0x20 DUP3 MUL DUP1 CALLDATASIZE DUP4 CALLDATACOPY DUP1 DUP3 ADD SWAP2 POP POP SWAP1 POP JUMPDEST POP SWAP1 POP PUSH1 0x3 PUSH1 0x0 SWAP1 SLOAD SWAP1 PUSH2 0x100 EXP SWAP1 DIV PUSH20 0xFFFFFFFFFFFFFFFFFFFFFFFFFFFFFFFFFFFFFFFF AND DUP2 PUSH1 0x0 DUP2 MLOAD DUP2 LT PUSH2 0x1E9 JUMPI PUSH2 0x1E8 PUSH2 0xB27 JUMP JUMPDEST JUMPDEST PUSH1 0x20 MUL PUSH1 0x20 ADD ADD SWAP1 PUSH20 0xFFFFFFFFFFFFFFFFFFFFFFFFFFFFFFFFFFFFFFFF AND SWAP1 DUP2 PUSH20 0xFFFFFFFFFFFFFFFFFFFFFFFFFFFFFFFFFFFFFFFF AND DUP2 MSTORE POP POP DUP6 DUP3 DUP2 MLOAD DUP2 LT PUSH2 0x236 JUMPI PUSH2 0x235 PUSH2 0xB27 JUMP JUMPDEST JUMPDEST PUSH1 0x20 MUL PUSH1 0x20 ADD ADD MLOAD DUP2 PUSH1 0x1 DUP2 MLOAD DUP2 LT PUSH2 0x252 JUMPI PUSH2 0x251 PUSH2 0xB27 JUMP JUMPDEST JUMPDEST PUSH1 0x20 MUL PUSH1 0x20 ADD ADD SWAP1 PUSH20 0xFFFFFFFFFFFFFFFFFFFFFFFFFFFFFFFFFFFFFFFF AND SWAP1 DUP2 PUSH20 0xFFFFFFFFFFFFFFFFFFFFFFFFFFFFFFFFFFFFFFFF AND DUP2 MSTORE POP POP PUSH1 0x0 PUSH1 0x2 PUSH1 0x0 SWAP1 SLOAD SWAP1 PUSH2 0x100 EXP SWAP1 DIV PUSH20 0xFFFFFFFFFFFFFFFFFFFFFFFFFFFFFFFFFFFFFFFF AND PUSH20 0xFFFFFFFFFFFFFFFFFFFFFFFFFFFFFFFFFFFFFFFF AND PUSH4 0xD06CA61F PUSH2 0x2710 DUP9 DUP7 DUP2 MLOAD DUP2 LT PUSH2 0x2E2 JUMPI PUSH2 0x2E1 PUSH2 0xB27 JUMP JUMPDEST JUMPDEST PUSH1 0x20 MUL PUSH1 0x20 ADD ADD MLOAD DUP9 PUSH2 0x2F5 SWAP2 SWAP1 PUSH2 0x9A7 JUMP JUMPDEST PUSH2 0x2FF SWAP2 SWAP1 PUSH2 0x976 JUMP JUMPDEST DUP5 PUSH1 0x40 MLOAD DUP4 PUSH4 0xFFFFFFFF AND PUSH1 0xE0 SHL DUP2 MSTORE PUSH1 0x4 ADD PUSH2 0x31D SWAP3 SWAP2 SWAP1 PUSH2 0x87F JUMP JUMPDEST PUSH1 0x0 PUSH1 0x40 MLOAD DUP1 DUP4 SUB DUP2 DUP7 DUP1 EXTCODESIZE ISZERO DUP1 ISZERO PUSH2 0x335 JUMPI PUSH1 0x0 DUP1 REVERT JUMPDEST POP GAS STATICCALL ISZERO DUP1 ISZERO PUSH2 0x349 JUMPI RETURNDATASIZE PUSH1 0x0 DUP1 RETURNDATACOPY RETURNDATASIZE PUSH1 0x0 REVERT JUMPDEST POP POP POP POP PUSH1 0x40 MLOAD RETURNDATASIZE PUSH1 0x0 DUP3 RETURNDATACOPY RETURNDATASIZE PUSH1 0x1F NOT PUSH1 0x1F DUP3 ADD AND DUP3 ADD DUP1 PUSH1 0x40 MSTORE POP DUP2 ADD SWAP1 PUSH2 0x372 SWAP2 SWAP1 PUSH2 0x75F JUMP JUMPDEST SWAP1 POP POP POP DUP1 DUP1 PUSH2 0x381 SWAP1 PUSH2 0xA80 JUMP JUMPDEST SWAP2 POP POP PUSH2 0x15C JUMP JUMPDEST POP POP POP POP POP JUMP JUMPDEST DUP3 DUP1 SLOAD DUP3 DUP3 SSTORE SWAP1 PUSH1 0x0 MSTORE PUSH1 0x20 PUSH1 0x0 KECCAK256 SWAP1 DUP2 ADD SWAP3 DUP3 ISZERO PUSH2 0x409 JUMPI SWAP2 PUSH1 0x20 MUL DUP3 ADD JUMPDEST DUP3 DUP2 GT ISZERO PUSH2 0x408 JUMPI DUP3 MLOAD DUP3 PUSH1 0x0 PUSH2 0x100 EXP DUP2 SLOAD DUP2 PUSH20 0xFFFFFFFFFFFFFFFFFFFFFFFFFFFFFFFFFFFFFFFF MUL NOT AND SWAP1 DUP4 PUSH20 0xFFFFFFFFFFFFFFFFFFFFFFFFFFFFFFFFFFFFFFFF AND MUL OR SWAP1 SSTORE POP SWAP2 PUSH1 0x20 ADD SWAP2 SWAP1 PUSH1 0x1 ADD SWAP1 PUSH2 0x3B0 JUMP JUMPDEST JUMPDEST POP SWAP1 POP PUSH2 0x416 SWAP2 SWAP1 PUSH2 0x41A JUMP JUMPDEST POP SWAP1 JUMP JUMPDEST JUMPDEST DUP1 DUP3 GT ISZERO PUSH2 0x433 JUMPI PUSH1 0x0 DUP2 PUSH1 0x0 SWAP1 SSTORE POP PUSH1 0x1 ADD PUSH2 0x41B JUMP JUMPDEST POP SWAP1 JUMP JUMPDEST PUSH1 0x0 PUSH2 0x44A PUSH2 0x445 DUP5 PUSH2 0x8D4 JUMP JUMPDEST PUSH2 0x8AF JUMP JUMPDEST SWAP1 POP DUP1 DUP4 DUP3 MSTORE PUSH1 0x20 DUP3 ADD SWAP1 POP DUP3 DUP6 PUSH1 0x20 DUP7 MUL DUP3 ADD GT ISZERO PUSH2 0x46D JUMPI PUSH2 0x46C PUSH2 0xB8A JUMP JUMPDEST JUMPDEST PUSH1 0x0 JUMPDEST DUP6 DUP2 LT ISZERO PUSH2 0x49D JUMPI DUP2 PUSH2 0x483 DUP9 DUP3 PUSH2 0x587 JUMP JUMPDEST DUP5 MSTORE PUSH1 0x20 DUP5 ADD SWAP4 POP PUSH1 0x20 DUP4 ADD SWAP3 POP POP PUSH1 0x1 DUP2 ADD SWAP1 POP PUSH2 0x470 JUMP JUMPDEST POP POP POP SWAP4 SWAP3 POP POP POP JUMP JUMPDEST PUSH1 0x0 PUSH2 0x4BA PUSH2 0x4B5 DUP5 PUSH2 0x900 JUMP JUMPDEST PUSH2 0x8AF JUMP JUMPDEST SWAP1 POP DUP1 DUP4 DUP3 MSTORE PUSH1 0x20 DUP3 ADD SWAP1 POP DUP3 DUP6 PUSH1 0x20 DUP7 MUL DUP3 ADD GT ISZERO PUSH2 0x4DD JUMPI PUSH2 0x4DC PUSH2 0xB8A JUMP JUMPDEST JUMPDEST PUSH1 0x0 JUMPDEST DUP6 DUP2 LT ISZERO PUSH2 0x50D JUMPI DUP2 PUSH2 0x4F3 DUP9 DUP3 PUSH2 0x63B JUMP JUMPDEST DUP5 MSTORE PUSH1 0x20 DUP5 ADD SWAP4 POP PUSH1 0x20 DUP4 ADD SWAP3 POP POP PUSH1 0x1 DUP2 ADD SWAP1 POP PUSH2 0x4E0 JUMP JUMPDEST POP POP POP SWAP4 SWAP3 POP POP POP JUMP JUMPDEST PUSH1 0x0 PUSH2 0x52A PUSH2 0x525 DUP5 PUSH2 0x900 JUMP JUMPDEST PUSH2 0x8AF JUMP JUMPDEST SWAP1 POP DUP1 DUP4 DUP3 MSTORE PUSH1 0x20 DUP3 ADD SWAP1 POP DUP3 DUP6 PUSH1 0x20 DUP7 MUL DUP3 ADD GT ISZERO PUSH2 0x54D JUMPI PUSH2 0x54C PUSH2 0xB8A JUMP JUMPDEST JUMPDEST PUSH1 0x0 JUMPDEST DUP6 DUP2 LT ISZERO PUSH2 0x57D JUMPI DUP2 PUSH2 0x563 DUP9 DUP3 PUSH2 0x650 JUMP JUMPDEST DUP5 MSTORE PUSH1 0x20 DUP5 ADD SWAP4 POP PUSH1 0x20 DUP4 ADD SWAP3 POP POP PUSH1 0x1 DUP2 ADD SWAP1 POP PUSH2 0x550 JUMP JUMPDEST POP POP POP SWAP4 SWAP3 POP POP POP JUMP JUMPDEST PUSH1 0x0 DUP2 CALLDATALOAD SWAP1 POP PUSH2 0x596 DUP2 PUSH2 0xBD3 JUMP JUMPDEST SWAP3 SWAP2 POP POP JUMP JUMPDEST PUSH1 0x0 DUP3 PUSH1 0x1F DUP4 ADD SLT PUSH2 0x5B1 JUMPI PUSH2 0x5B0 PUSH2 0xB85 JUMP JUMPDEST JUMPDEST DUP2 CALLDATALOAD PUSH2 0x5C1 DUP5 DUP3 PUSH1 0x20 DUP7 ADD PUSH2 0x437 JUMP JUMPDEST SWAP2 POP POP SWAP3 SWAP2 POP POP JUMP JUMPDEST PUSH1 0x0 DUP3 PUSH1 0x1F DUP4 ADD SLT PUSH2 0x5DF JUMPI PUSH2 0x5DE PUSH2 0xB85 JUMP JUMPDEST JUMPDEST DUP2 CALLDATALOAD PUSH2 0x5EF DUP5 DUP3 PUSH1 0x20 DUP7 ADD PUSH2 0x4A7 JUMP JUMPDEST SWAP2 POP POP SWAP3 SWAP2 POP POP JUMP JUMPDEST PUSH1 0x0 DUP3 PUSH1 0x1F DUP4 ADD SLT PUSH2 0x60D JUMPI PUSH2 0x60C PUSH2 0xB85 JUMP JUMPDEST JUMPDEST DUP2 MLOAD PUSH2 0x61D DUP5 DUP3 PUSH1 0x20 DUP7 ADD PUSH2 0x517 JUMP JUMPDEST SWAP2 POP POP SWAP3 SWAP2 POP POP JUMP JUMPDEST PUSH1 0x0 DUP2 CALLDATALOAD SWAP1 POP PUSH2 0x635 DUP2 PUSH2 0xBEA JUMP JUMPDEST SWAP3 SWAP2 POP POP JUMP JUMPDEST PUSH1 0x0 DUP2 CALLDATALOAD SWAP1 POP PUSH2 0x64A DUP2 PUSH2 0xC01 JUMP JUMPDEST SWAP3 SWAP2 POP POP JUMP JUMPDEST PUSH1 0x0 DUP2 MLOAD SWAP1 POP PUSH2 0x65F DUP2 PUSH2 0xC01 JUMP JUMPDEST SWAP3 SWAP2 POP POP JUMP JUMPDEST PUSH1 0x0 DUP1 PUSH1 0x0 PUSH1 0x60 DUP5 DUP7 SUB SLT ISZERO PUSH2 0x67E JUMPI PUSH2 0x67D PUSH2 0xB94 JUMP JUMPDEST JUMPDEST PUSH1 0x0 DUP5 ADD CALLDATALOAD PUSH8 0xFFFFFFFFFFFFFFFF DUP2 GT ISZERO PUSH2 0x69C JUMPI PUSH2 0x69B PUSH2 0xB8F JUMP JUMPDEST JUMPDEST PUSH2 0x6A8 DUP7 DUP3 DUP8 ADD PUSH2 0x59C JUMP JUMPDEST SWAP4 POP POP PUSH1 0x20 DUP5 ADD CALLDATALOAD PUSH8 0xFFFFFFFFFFFFFFFF DUP2 GT ISZERO PUSH2 0x6C9 JUMPI PUSH2 0x6C8 PUSH2 0xB8F JUMP JUMPDEST JUMPDEST PUSH2 0x6D5 DUP7 DUP3 DUP8 ADD PUSH2 0x5CA JUMP JUMPDEST SWAP3 POP POP PUSH1 0x40 PUSH2 0x6E6 DUP7 DUP3 DUP8 ADD PUSH2 0x63B JUMP JUMPDEST SWAP2 POP POP SWAP3 POP SWAP3 POP SWAP3 JUMP JUMPDEST PUSH1 0x0 DUP1 PUSH1 0x0 PUSH1 0x60 DUP5 DUP7 SUB SLT ISZERO PUSH2 0x709 JUMPI PUSH2 0x708 PUSH2 0xB94 JUMP JUMPDEST JUMPDEST PUSH1 0x0 DUP5 ADD CALLDATALOAD PUSH8 0xFFFFFFFFFFFFFFFF DUP2 GT ISZERO PUSH2 0x727 JUMPI PUSH2 0x726 PUSH2 0xB8F JUMP JUMPDEST JUMPDEST PUSH2 0x733 DUP7 DUP3 DUP8 ADD PUSH2 0x59C JUMP JUMPDEST SWAP4 POP POP PUSH1 0x20 PUSH2 0x744 DUP7 DUP3 DUP8 ADD PUSH2 0x626 JUMP JUMPDEST SWAP3 POP POP PUSH1 0x40 PUSH2 0x755 DUP7 DUP3 DUP8 ADD PUSH2 0x587 JUMP JUMPDEST SWAP2 POP POP SWAP3 POP SWAP3 POP SWAP3 JUMP JUMPDEST PUSH1 0x0 PUSH1 0x20 DUP3 DUP5 SUB SLT ISZERO PUSH2 0x775 JUMPI PUSH2 0x774 PUSH2 0xB94 JUMP JUMPDEST JUMPDEST PUSH1 0x0 DUP3 ADD MLOAD PUSH8 0xFFFFFFFFFFFFFFFF DUP2 GT ISZERO PUSH2 0x793 JUMPI PUSH2 0x792 PUSH2 0xB8F JUMP JUMPDEST JUMPDEST PUSH2 0x79F DUP5 DUP3 DUP6 ADD PUSH2 0x5F8 JUMP JUMPDEST SWAP2 POP POP SWAP3 SWAP2 POP POP JUMP JUMPDEST PUSH1 0x0 PUSH2 0x7B4 DUP4 DUP4 PUSH2 0x7C0 JUMP JUMPDEST PUSH1 0x20 DUP4 ADD SWAP1 POP SWAP3 SWAP2 POP POP JUMP JUMPDEST PUSH2 0x7C9 DUP2 PUSH2 0xA01 JUMP JUMPDEST DUP3 MSTORE POP POP JUMP JUMPDEST PUSH1 0x0 PUSH2 0x7DA DUP3 PUSH2 0x93C JUMP JUMPDEST PUSH2 0x7E4 DUP2 DUP6 PUSH2 0x954 JUMP JUMPDEST SWAP4 POP PUSH2 0x7EF DUP4 PUSH2 0x92C JUMP JUMPDEST DUP1 PUSH1 0x0 JUMPDEST DUP4 DUP2 LT ISZERO PUSH2 0x820 JUMPI DUP2 MLOAD PUSH2 0x807 DUP9 DUP3 PUSH2 0x7A8 JUMP JUMPDEST SWAP8 POP PUSH2 0x812 DUP4 PUSH2 0x947 JUMP JUMPDEST SWAP3 POP POP PUSH1 0x1 DUP2 ADD SWAP1 POP PUSH2 0x7F3 JUMP JUMPDEST POP DUP6 SWAP4 POP POP POP POP SWAP3 SWAP2 POP POP JUMP JUMPDEST PUSH1 0x0 PUSH2 0x83A PUSH1 0xE DUP4 PUSH2 0x965 JUMP JUMPDEST SWAP2 POP PUSH2 0x845 DUP3 PUSH2 0xBAA JUMP JUMPDEST PUSH1 0x20 DUP3 ADD SWAP1 POP SWAP2 SWAP1 POP JUMP JUMPDEST PUSH2 0x859 DUP2 PUSH2 0xA45 JUMP JUMPDEST DUP3 MSTORE POP POP JUMP JUMPDEST PUSH1 0x0 PUSH1 0x20 DUP3 ADD SWAP1 POP DUP2 DUP2 SUB PUSH1 0x0 DUP4 ADD MSTORE PUSH2 0x878 DUP2 PUSH2 0x82D JUMP JUMPDEST SWAP1 POP SWAP2 SWAP1 POP JUMP JUMPDEST PUSH1 0x0 PUSH1 0x40 DUP3 ADD SWAP1 POP PUSH2 0x894 PUSH1 0x0 DUP4 ADD DUP6 PUSH2 0x850 JUMP JUMPDEST DUP2 DUP2 SUB PUSH1 0x20 DUP4 ADD MSTORE PUSH2 0x8A6 DUP2 DUP5 PUSH2 0x7CF JUMP JUMPDEST SWAP1 POP SWAP4 SWAP3 POP POP POP JUMP JUMPDEST PUSH1 0x0 PUSH2 0x8B9 PUSH2 0x8CA JUMP JUMPDEST SWAP1 POP PUSH2 0x8C5 DUP3 DUP3 PUSH2 0xA4F JUMP JUMPDEST SWAP2 SWAP1 POP JUMP JUMPDEST PUSH1 0x0 PUSH1 0x40 MLOAD SWAP1 POP SWAP1 JUMP JUMPDEST PUSH1 0x0 PUSH8 0xFFFFFFFFFFFFFFFF DUP3 GT ISZERO PUSH2 0x8EF JUMPI PUSH2 0x8EE PUSH2 0xB56 JUMP JUMPDEST JUMPDEST PUSH1 0x20 DUP3 MUL SWAP1 POP PUSH1 0x20 DUP2 ADD SWAP1 POP SWAP2 SWAP1 POP JUMP JUMPDEST PUSH1 0x0 PUSH8 0xFFFFFFFFFFFFFFFF DUP3 GT ISZERO PUSH2 0x91B JUMPI PUSH2 0x91A PUSH2 0xB56 JUMP JUMPDEST JUMPDEST PUSH1 0x20 DUP3 MUL SWAP1 POP PUSH1 0x20 DUP2 ADD SWAP1 POP SWAP2 SWAP1 POP JUMP JUMPDEST PUSH1 0x0 DUP2 SWAP1 POP PUSH1 0x20 DUP3 ADD SWAP1 POP SWAP2 SWAP1 POP JUMP JUMPDEST PUSH1 0x0 DUP2 MLOAD SWAP1 POP SWAP2 SWAP1 POP JUMP JUMPDEST PUSH1 0x0 PUSH1 0x20 DUP3 ADD SWAP1 POP SWAP2 SWAP1 POP JUMP JUMPDEST PUSH1 0x0 DUP3 DUP3 MSTORE PUSH1 0x20 DUP3 ADD SWAP1 POP SWAP3 SWAP2 POP POP JUMP JUMPDEST PUSH1 0x0 DUP3 DUP3 MSTORE PUSH1 0x20 DUP3 ADD SWAP1 POP SWAP3 SWAP2 POP POP JUMP JUMPDEST PUSH1 0x0 PUSH2 0x981 DUP3 PUSH2 0xA45 JUMP JUMPDEST SWAP2 POP PUSH2 0x98C DUP4 PUSH2 0xA45 JUMP JUMPDEST SWAP3 POP DUP3 PUSH2 0x99C JUMPI PUSH2 0x99B PUSH2 0xAF8 JUMP JUMPDEST JUMPDEST DUP3 DUP3 DIV SWAP1 POP SWAP3 SWAP2 POP POP JUMP JUMPDEST PUSH1 0x0 PUSH2 0x9B2 DUP3 PUSH2 0xA45 JUMP JUMPDEST SWAP2 POP PUSH2 0x9BD DUP4 PUSH2 0xA45 JUMP JUMPDEST SWAP3 POP DUP2 PUSH32 0xFFFFFFFFFFFFFFFFFFFFFFFFFFFFFFFFFFFFFFFFFFFFFFFFFFFFFFFFFFFFFFFF DIV DUP4 GT DUP3 ISZERO ISZERO AND ISZERO PUSH2 0x9F6 JUMPI PUSH2 0x9F5 PUSH2 0xAC9 JUMP JUMPDEST JUMPDEST DUP3 DUP3 MUL SWAP1 POP SWAP3 SWAP2 POP POP JUMP JUMPDEST PUSH1 0x0 PUSH2 0xA0C DUP3 PUSH2 0xA25 JUMP JUMPDEST SWAP1 POP SWAP2 SWAP1 POP JUMP JUMPDEST PUSH1 0x0 PUSH2 0xA1E DUP3 PUSH2 0xA01 JUMP JUMPDEST SWAP1 POP SWAP2 SWAP1 POP JUMP JUMPDEST PUSH1 0x0 PUSH20 0xFFFFFFFFFFFFFFFFFFFFFFFFFFFFFFFFFFFFFFFF DUP3 AND SWAP1 POP SWAP2 SWAP1 POP JUMP JUMPDEST PUSH1 0x0 DUP2 SWAP1 POP SWAP2 SWAP1 POP JUMP JUMPDEST PUSH2 0xA58 DUP3 PUSH2 0xB99 JUMP JUMPDEST DUP2 ADD DUP2 DUP2 LT PUSH8 0xFFFFFFFFFFFFFFFF DUP3 GT OR ISZERO PUSH2 0xA77 JUMPI PUSH2 0xA76 PUSH2 0xB56 JUMP JUMPDEST JUMPDEST DUP1 PUSH1 0x40 MSTORE POP POP POP JUMP JUMPDEST PUSH1 0x0 PUSH2 0xA8B DUP3 PUSH2 0xA45 JUMP JUMPDEST SWAP2 POP PUSH32 0xFFFFFFFFFFFFFFFFFFFFFFFFFFFFFFFFFFFFFFFFFFFFFFFFFFFFFFFFFFFFFFFF DUP3 EQ ISZERO PUSH2 0xABE JUMPI PUSH2 0xABD PUSH2 0xAC9 JUMP JUMPDEST JUMPDEST PUSH1 0x1 DUP3 ADD SWAP1 POP SWAP2 SWAP1 POP JUMP JUMPDEST PUSH32 0x4E487B7100000000000000000000000000000000000000000000000000000000 PUSH1 0x0 MSTORE PUSH1 0x11 PUSH1 0x4 MSTORE PUSH1 0x24 PUSH1 0x0 REVERT JUMPDEST PUSH32 0x4E487B7100000000000000000000000000000000000000000000000000000000 PUSH1 0x0 MSTORE PUSH1 0x12 PUSH1 0x4 MSTORE PUSH1 0x24 PUSH1 0x0 REVERT JUMPDEST PUSH32 0x4E487B7100000000000000000000000000000000000000000000000000000000 PUSH1 0x0 MSTORE PUSH1 0x32 PUSH1 0x4 MSTORE PUSH1 0x24 PUSH1 0x0 REVERT JUMPDEST PUSH32 0x4E487B7100000000000000000000000000000000000000000000000000000000 PUSH1 0x0 MSTORE PUSH1 0x41 PUSH1 0x4 MSTORE PUSH1 0x24 PUSH1 0x0 REVERT JUMPDEST PUSH1 0x0 DUP1 REVERT JUMPDEST PUSH1 0x0 DUP1 REVERT JUMPDEST PUSH1 0x0 DUP1 REVERT JUMPDEST PUSH1 0x0 DUP1 REVERT JUMPDEST PUSH1 0x0 PUSH1 0x1F NOT PUSH1 0x1F DUP4 ADD AND SWAP1 POP SWAP2 SWAP1 POP JUMP JUMPDEST PUSH32 0x496E76616C6964204D6174696321000000000000000000000000000000000000 PUSH1 0x0 DUP3 ADD MSTORE POP JUMP JUMPDEST PUSH2 0xBDC DUP2 PUSH2 0xA01 JUMP JUMPDEST DUP2 EQ PUSH2 0xBE7 JUMPI PUSH1 0x0 DUP1 REVERT JUMPDEST POP JUMP JUMPDEST PUSH2 0xBF3 DUP2 PUSH2 0xA13 JUMP JUMPDEST DUP2 EQ PUSH2 0xBFE JUMPI PUSH1 0x0 DUP1 REVERT JUMPDEST POP JUMP JUMPDEST PUSH2 0xC0A DUP2 PUSH2 0xA45 JUMP JUMPDEST DUP2 EQ PUSH2 0xC15 JUMPI PUSH1 0x0 DUP1 REVERT JUMPDEST POP JUMP INVALID LOG2 PUSH5 0x6970667358 0x22 SLT KECCAK256 PUSH21 0x967278C87778AA43A5E563BFEE9FBF9A1A8A07930B AND EQ 0xAE 0xEF 0xD7 0x4D SHL PUSH14 0x469064736F6C6343000807003300 "
				},
				"gasEstimates": {
					"creation": {
						"codeDepositCost": "630000",
						"executionCost": "664",
						"totalCost": "630664"
					},
					"external": {
						"initialize(address[],address,address)": "infinite",
						"swapAndPay(address[],uint256[],uint256)": "infinite"
					}
				},
				"methodIdentifiers": {
					"initialize(address[],address,address)": "90482d72",
					"swapAndPay(address[],uint256[],uint256)": "f9d5d560"
				}
			},
			"storageLayout": {
				"storage": [
					{
						"astId": 6,
						"contract": "contracts/defi.sol:Cheddar",
						"label": "_initialized",
						"offset": 0,
						"slot": "0",
						"type": "t_bool"
					},
					{
						"astId": 9,
						"contract": "contracts/defi.sol:Cheddar",
						"label": "_initializing",
						"offset": 1,
						"slot": "0",
						"type": "t_bool"
					},
					{
						"astId": 456,
						"contract": "contracts/defi.sol:Cheddar",
						"label": "tokens",
						"offset": 0,
						"slot": "1",
						"type": "t_array(t_address)dyn_storage"
					},
					{
						"astId": 459,
						"contract": "contracts/defi.sol:Cheddar",
						"label": "router",
						"offset": 0,
						"slot": "2",
						"type": "t_contract(IUniswapV2Router02)968"
					},
					{
						"astId": 461,
						"contract": "contracts/defi.sol:Cheddar",
						"label": "wrappedMatic",
						"offset": 0,
						"slot": "3",
						"type": "t_address"
					}
				],
				"types": {
					"t_address": {
						"encoding": "inplace",
						"label": "address",
						"numberOfBytes": "20"
					},
					"t_array(t_address)dyn_storage": {
						"base": "t_address",
						"encoding": "dynamic_array",
						"label": "address[]",
						"numberOfBytes": "32"
					},
					"t_bool": {
						"encoding": "inplace",
						"label": "bool",
						"numberOfBytes": "1"
					},
					"t_contract(IUniswapV2Router02)968": {
						"encoding": "inplace",
						"label": "contract IUniswapV2Router02",
						"numberOfBytes": "20"
					}
				}
			},
			"userdoc": {
				"kind": "user",
				"methods": {},
				"version": 1
			}
		}
	}
}