{
	"contracts/defi.sol": {
		"Cheddar": {
			"abi": [
				{
					"inputs": [
						{
							"internalType": "address[]",
							"name": "_tokens",
							"type": "address[]"
						},
						{
							"internalType": "contract IUniswapV2Router02",
							"name": "_router",
							"type": "address"
						},
						{
							"internalType": "address",
							"name": "_wrappedMatic",
							"type": "address"
						}
					],
					"name": "initialize",
					"outputs": [],
					"stateMutability": "nonpayable",
					"type": "function"
				},
				{
					"inputs": [
						{
							"internalType": "address[]",
							"name": "_tokens",
							"type": "address[]"
						},
						{
							"internalType": "uint256[]",
							"name": "bp",
							"type": "uint256[]"
						}
					],
					"name": "swapAndPay",
					"outputs": [],
					"stateMutability": "payable",
					"type": "function"
				}
			],
			"devdoc": {
				"kind": "dev",
				"methods": {},
				"version": 1
			},
			"evm": {
				"assembly": "    /* \"contracts/defi.sol\":232:1388  contract Cheddar is Initializable {... */\n  mstore(0x40, 0x80)\n  callvalue\n  dup1\n  iszero\n  tag_1\n  jumpi\n  0x00\n  dup1\n  revert\ntag_1:\n  pop\n  dataSize(sub_0)\n  dup1\n  dataOffset(sub_0)\n  0x00\n  codecopy\n  0x00\n  return\nstop\n\nsub_0: assembly {\n        /* \"contracts/defi.sol\":232:1388  contract Cheddar is Initializable {... */\n      mstore(0x40, 0x80)\n      jumpi(tag_1, lt(calldatasize, 0x04))\n      shr(0xe0, calldataload(0x00))\n      dup1\n      0x90482d72\n      eq\n      tag_2\n      jumpi\n      dup1\n      0x9728d85f\n      eq\n      tag_3\n      jumpi\n    tag_1:\n      0x00\n      dup1\n      revert\n        /* \"contracts/defi.sol\":337:522  function initialize(address[] memory _tokens, IUniswapV2Router02 _router, address _wrappedMatic) public {... */\n    tag_2:\n      callvalue\n      dup1\n      iszero\n      tag_4\n      jumpi\n      0x00\n      dup1\n      revert\n    tag_4:\n      pop\n      tag_5\n      0x04\n      dup1\n      calldatasize\n      sub\n      dup2\n      add\n      swap1\n      tag_6\n      swap2\n      swap1\n      tag_7\n      jump\t// in\n    tag_6:\n      tag_8\n      jump\t// in\n    tag_5:\n      stop\n        /* \"contracts/defi.sol\":524:1385  function swapAndPay(address[] memory _tokens, uint[] memory bp) public payable {... */\n    tag_3:\n      tag_9\n      0x04\n      dup1\n      calldatasize\n      sub\n      dup2\n      add\n      swap1\n      tag_10\n      swap2\n      swap1\n      tag_11\n      jump\t// in\n    tag_10:\n      tag_12\n      jump\t// in\n    tag_9:\n      stop\n        /* \"contracts/defi.sol\":337:522  function initialize(address[] memory _tokens, IUniswapV2Router02 _router, address _wrappedMatic) public {... */\n    tag_8:\n        /* \"contracts/defi.sol\":456:463  _tokens */\n      dup3\n        /* \"contracts/defi.sol\":447:453  tokens */\n      0x01\n        /* \"contracts/defi.sol\":447:463  tokens = _tokens */\n      swap1\n      dup1\n      mload\n      swap1\n      0x20\n      add\n      swap1\n      tag_14\n      swap3\n      swap2\n      swap1\n      tag_15\n      jump\t// in\n    tag_14:\n      pop\n        /* \"contracts/defi.sol\":478:485  _router */\n      dup2\n        /* \"contracts/defi.sol\":469:475  router */\n      0x02\n      0x00\n        /* \"contracts/defi.sol\":469:485  router = _router */\n      0x0100\n      exp\n      dup2\n      sload\n      dup2\n      0xffffffffffffffffffffffffffffffffffffffff\n      mul\n      not\n      and\n      swap1\n      dup4\n      0xffffffffffffffffffffffffffffffffffffffff\n      and\n      mul\n      or\n      swap1\n      sstore\n      pop\n        /* \"contracts/defi.sol\":506:519  _wrappedMatic */\n      dup1\n        /* \"contracts/defi.sol\":491:503  wrappedMatic */\n      0x03\n      0x00\n        /* \"contracts/defi.sol\":491:519  wrappedMatic = _wrappedMatic */\n      0x0100\n      exp\n      dup2\n      sload\n      dup2\n      0xffffffffffffffffffffffffffffffffffffffff\n      mul\n      not\n      and\n      swap1\n      dup4\n      0xffffffffffffffffffffffffffffffffffffffff\n      and\n      mul\n      or\n      swap1\n      sstore\n      pop\n        /* \"contracts/defi.sol\":337:522  function initialize(address[] memory _tokens, IUniswapV2Router02 _router, address _wrappedMatic) public {... */\n      pop\n      pop\n      pop\n      jump\t// out\n        /* \"contracts/defi.sol\":524:1385  function swapAndPay(address[] memory _tokens, uint[] memory bp) public payable {... */\n    tag_12:\n        /* \"contracts/defi.sol\":610:626  uint totalTokens */\n      0x00\n        /* \"contracts/defi.sol\":629:636  _tokens */\n      dup3\n        /* \"contracts/defi.sol\":629:643  _tokens.length */\n      mload\n        /* \"contracts/defi.sol\":610:643  uint totalTokens = _tokens.length */\n      swap1\n      pop\n        /* \"contracts/defi.sol\":667:668  0 */\n      0x00\n        /* \"contracts/defi.sol\":657:666  msg.value */\n      callvalue\n        /* \"contracts/defi.sol\":657:668  msg.value>0 */\n      gt\n        /* \"contracts/defi.sol\":649:686  require(msg.value>0,\"Invalid Matic!\") */\n      tag_17\n      jumpi\n      mload(0x40)\n      0x08c379a000000000000000000000000000000000000000000000000000000000\n      dup2\n      mstore\n      0x04\n      add\n      tag_18\n      swap1\n      tag_19\n      jump\t// in\n    tag_18:\n      mload(0x40)\n      dup1\n      swap2\n      sub\n      swap1\n      revert\n    tag_17:\n        /* \"contracts/defi.sol\":696:702  uint i */\n      0x00\n        /* \"contracts/defi.sol\":692:1061  for(uint i=0; i<totalTokens; i++){... */\n    tag_20:\n        /* \"contracts/defi.sol\":708:719  totalTokens */\n      dup2\n        /* \"contracts/defi.sol\":706:707  i */\n      dup2\n        /* \"contracts/defi.sol\":706:719  i<totalTokens */\n      lt\n        /* \"contracts/defi.sol\":692:1061  for(uint i=0; i<totalTokens; i++){... */\n      iszero\n      tag_21\n      jumpi\n        /* \"contracts/defi.sol\":736:757  address[] memory path */\n      0x00\n        /* \"contracts/defi.sol\":774:775  2 */\n      0x02\n        /* \"contracts/defi.sol\":760:776  new address[](2) */\n      0xffffffffffffffff\n      dup2\n      gt\n      iszero\n      tag_23\n      jumpi\n      tag_24\n      tag_25\n      jump\t// in\n    tag_24:\n    tag_23:\n      mload(0x40)\n      swap1\n      dup1\n      dup3\n      mstore\n      dup1\n      0x20\n      mul\n      0x20\n      add\n      dup3\n      add\n      0x40\n      mstore\n      dup1\n      iszero\n      tag_26\n      jumpi\n      dup2\n      0x20\n      add\n      0x20\n      dup3\n      mul\n      dup1\n      calldatasize\n      dup4\n      calldatacopy\n      dup1\n      dup3\n      add\n      swap2\n      pop\n      pop\n      swap1\n      pop\n    tag_26:\n      pop\n        /* \"contracts/defi.sol\":736:776  address[] memory path = new address[](2) */\n      swap1\n      pop\n        /* \"contracts/defi.sol\":808:820  wrappedMatic */\n      0x03\n      0x00\n      swap1\n      sload\n      swap1\n      0x0100\n      exp\n      swap1\n      div\n      0xffffffffffffffffffffffffffffffffffffffff\n      and\n        /* \"contracts/defi.sol\":790:794  path */\n      dup2\n        /* \"contracts/defi.sol\":795:796  0 */\n      0x00\n        /* \"contracts/defi.sol\":790:797  path[0] */\n      dup2\n      mload\n      dup2\n      lt\n      tag_27\n      jumpi\n      tag_28\n      tag_29\n      jump\t// in\n    tag_28:\n    tag_27:\n      0x20\n      mul\n      0x20\n      add\n      add\n        /* \"contracts/defi.sol\":790:821  path[0] = address(wrappedMatic) */\n      swap1\n      0xffffffffffffffffffffffffffffffffffffffff\n      and\n      swap1\n      dup2\n      0xffffffffffffffffffffffffffffffffffffffff\n      and\n      dup2\n      mstore\n      pop\n      pop\n        /* \"contracts/defi.sol\":853:860  _tokens */\n      dup5\n        /* \"contracts/defi.sol\":861:862  i */\n      dup3\n        /* \"contracts/defi.sol\":853:863  _tokens[i] */\n      dup2\n      mload\n      dup2\n      lt\n      tag_30\n      jumpi\n      tag_31\n      tag_29\n      jump\t// in\n    tag_31:\n    tag_30:\n      0x20\n      mul\n      0x20\n      add\n      add\n      mload\n        /* \"contracts/defi.sol\":835:839  path */\n      dup2\n        /* \"contracts/defi.sol\":840:841  1 */\n      0x01\n        /* \"contracts/defi.sol\":835:842  path[1] */\n      dup2\n      mload\n      dup2\n      lt\n      tag_32\n      jumpi\n      tag_33\n      tag_29\n      jump\t// in\n    tag_33:\n    tag_32:\n      0x20\n      mul\n      0x20\n      add\n      add\n        /* \"contracts/defi.sol\":835:864  path[1] = address(_tokens[i]) */\n      swap1\n      0xffffffffffffffffffffffffffffffffffffffff\n      and\n      swap1\n      dup2\n      0xffffffffffffffffffffffffffffffffffffffff\n      and\n      dup2\n      mstore\n      pop\n      pop\n        /* \"contracts/defi.sol\":878:892  uint ethToSend */\n      0x00\n        /* \"contracts/defi.sol\":913:918  10000 */\n      0x2710\n        /* \"contracts/defi.sol\":906:908  bp */\n      dup6\n        /* \"contracts/defi.sol\":909:910  i */\n      dup5\n        /* \"contracts/defi.sol\":906:911  bp[i] */\n      dup2\n      mload\n      dup2\n      lt\n      tag_34\n      jumpi\n      tag_35\n      tag_29\n      jump\t// in\n    tag_35:\n    tag_34:\n      0x20\n      mul\n      0x20\n      add\n      add\n      mload\n        /* \"contracts/defi.sol\":895:904  msg.value */\n      callvalue\n        /* \"contracts/defi.sol\":895:912  msg.value*(bp[i]) */\n      tag_36\n      swap2\n      swap1\n      tag_37\n      jump\t// in\n    tag_36:\n        /* \"contracts/defi.sol\":895:918  msg.value*(bp[i])/10000 */\n      tag_38\n      swap2\n      swap1\n      tag_39\n      jump\t// in\n    tag_38:\n        /* \"contracts/defi.sol\":878:918  uint ethToSend = msg.value*(bp[i])/10000 */\n      swap1\n      pop\n        /* \"contracts/defi.sol\":940:946  router */\n      0x02\n      0x00\n      swap1\n      sload\n      swap1\n      0x0100\n      exp\n      swap1\n      pop\n      pop\n        /* \"contracts/defi.sol\":986:992  router */\n      0x02\n      0x00\n      swap1\n      sload\n      swap1\n      0x0100\n      exp\n      swap1\n      div\n      0xffffffffffffffffffffffffffffffffffffffff\n      and\n        /* \"contracts/defi.sol\":986:1014  router.swapExactETHForTokens */\n      0xffffffffffffffffffffffffffffffffffffffff\n      and\n      0x7ff36ab5\n        /* \"contracts/defi.sol\":1015:1016  0 */\n      0x00\n        /* \"contracts/defi.sol\":1018:1022  path */\n      dup5\n        /* \"contracts/defi.sol\":1024:1034  msg.sender */\n      caller\n        /* \"contracts/defi.sol\":1052:1056  3600 */\n      0x0e10\n        /* \"contracts/defi.sol\":1036:1051  block.timestamp */\n      timestamp\n        /* \"contracts/defi.sol\":1036:1056  block.timestamp+3600 */\n      tag_40\n      swap2\n      swap1\n      tag_41\n      jump\t// in\n    tag_40:\n        /* \"contracts/defi.sol\":986:1057  router.swapExactETHForTokens(0, path, msg.sender, block.timestamp+3600) */\n      mload(0x40)\n      dup6\n      0xffffffff\n      and\n      0xe0\n      shl\n      dup2\n      mstore\n      0x04\n      add\n      tag_42\n      swap5\n      swap4\n      swap3\n      swap2\n      swap1\n      tag_43\n      jump\t// in\n    tag_42:\n      0x00\n      mload(0x40)\n      dup1\n      dup4\n      sub\n      dup2\n      0x00\n      dup8\n      dup1\n      extcodesize\n      iszero\n      dup1\n      iszero\n      tag_44\n      jumpi\n      0x00\n      dup1\n      revert\n    tag_44:\n      pop\n      gas\n      call\n      iszero\n      dup1\n      iszero\n      tag_46\n      jumpi\n      returndatasize\n      0x00\n      dup1\n      returndatacopy\n      revert(0x00, returndatasize)\n    tag_46:\n      pop\n      pop\n      pop\n      pop\n      mload(0x40)\n      returndatasize\n      0x00\n      dup3\n      returndatacopy\n      returndatasize\n      not(0x1f)\n      0x1f\n      dup3\n      add\n      and\n      dup3\n      add\n      dup1\n      0x40\n      mstore\n      pop\n      dup2\n      add\n      swap1\n      tag_47\n      swap2\n      swap1\n      tag_48\n      jump\t// in\n    tag_47:\n      pop\n        /* \"contracts/defi.sol\":725:1061  {... */\n      pop\n      pop\n        /* \"contracts/defi.sol\":721:724  i++ */\n      dup1\n      dup1\n      tag_49\n      swap1\n      tag_50\n      jump\t// in\n    tag_49:\n      swap2\n      pop\n      pop\n        /* \"contracts/defi.sol\":692:1061  for(uint i=0; i<totalTokens; i++){... */\n      jump(tag_20)\n    tag_21:\n      pop\n        /* \"contracts/defi.sol\":603:1385  {... */\n      pop\n        /* \"contracts/defi.sol\":524:1385  function swapAndPay(address[] memory _tokens, uint[] memory bp) public payable {... */\n      pop\n      pop\n      jump\t// out\n    tag_15:\n      dup3\n      dup1\n      sload\n      dup3\n      dup3\n      sstore\n      swap1\n      0x00\n      mstore\n      keccak256(0x00, 0x20)\n      swap1\n      dup2\n      add\n      swap3\n      dup3\n      iszero\n      tag_51\n      jumpi\n      swap2\n      0x20\n      mul\n      dup3\n      add\n    tag_52:\n      dup3\n      dup2\n      gt\n      iszero\n      tag_53\n      jumpi\n      dup3\n      mload\n      dup3\n      exp(0x0100, 0x00)\n      dup2\n      sload\n      dup2\n      0xffffffffffffffffffffffffffffffffffffffff\n      mul\n      not\n      and\n      swap1\n      dup4\n      0xffffffffffffffffffffffffffffffffffffffff\n      and\n      mul\n      or\n      swap1\n      sstore\n      pop\n      swap2\n      0x20\n      add\n      swap2\n      swap1\n      0x01\n      add\n      swap1\n      jump(tag_52)\n    tag_53:\n    tag_51:\n      pop\n      swap1\n      pop\n      tag_54\n      swap2\n      swap1\n      tag_55\n      jump\t// in\n    tag_54:\n      pop\n      swap1\n      jump\t// out\n    tag_55:\n    tag_56:\n      dup1\n      dup3\n      gt\n      iszero\n      tag_57\n      jumpi\n      0x00\n      dup2\n      0x00\n      swap1\n      sstore\n      pop\n      0x01\n      add\n      jump(tag_56)\n    tag_57:\n      pop\n      swap1\n      jump\t// out\n        /* \"#utility.yul\":24:746   */\n    tag_59:\n        /* \"#utility.yul\":120:125   */\n      0x00\n        /* \"#utility.yul\":145:226   */\n      tag_61\n        /* \"#utility.yul\":161:225   */\n      tag_62\n        /* \"#utility.yul\":218:224   */\n      dup5\n        /* \"#utility.yul\":161:225   */\n      tag_63\n      jump\t// in\n    tag_62:\n        /* \"#utility.yul\":145:226   */\n      tag_64\n      jump\t// in\n    tag_61:\n        /* \"#utility.yul\":136:226   */\n      swap1\n      pop\n        /* \"#utility.yul\":246:251   */\n      dup1\n        /* \"#utility.yul\":275:281   */\n      dup4\n        /* \"#utility.yul\":268:273   */\n      dup3\n        /* \"#utility.yul\":261:282   */\n      mstore\n        /* \"#utility.yul\":309:313   */\n      0x20\n        /* \"#utility.yul\":302:307   */\n      dup3\n        /* \"#utility.yul\":298:314   */\n      add\n        /* \"#utility.yul\":291:314   */\n      swap1\n      pop\n        /* \"#utility.yul\":335:341   */\n      dup3\n        /* \"#utility.yul\":385:388   */\n      dup6\n        /* \"#utility.yul\":377:381   */\n      0x20\n        /* \"#utility.yul\":369:375   */\n      dup7\n        /* \"#utility.yul\":365:382   */\n      mul\n        /* \"#utility.yul\":360:363   */\n      dup3\n        /* \"#utility.yul\":356:383   */\n      add\n        /* \"#utility.yul\":353:389   */\n      gt\n        /* \"#utility.yul\":350:493   */\n      iszero\n      tag_65\n      jumpi\n        /* \"#utility.yul\":404:483   */\n      tag_66\n      tag_67\n      jump\t// in\n    tag_66:\n        /* \"#utility.yul\":350:493   */\n    tag_65:\n        /* \"#utility.yul\":517:518   */\n      0x00\n        /* \"#utility.yul\":502:740   */\n    tag_68:\n        /* \"#utility.yul\":527:533   */\n      dup6\n        /* \"#utility.yul\":524:525   */\n      dup2\n        /* \"#utility.yul\":521:534   */\n      lt\n        /* \"#utility.yul\":502:740   */\n      iszero\n      tag_70\n      jumpi\n        /* \"#utility.yul\":595:598   */\n      dup2\n        /* \"#utility.yul\":624:661   */\n      tag_71\n        /* \"#utility.yul\":657:660   */\n      dup9\n        /* \"#utility.yul\":645:655   */\n      dup3\n        /* \"#utility.yul\":624:661   */\n      tag_72\n      jump\t// in\n    tag_71:\n        /* \"#utility.yul\":619:622   */\n      dup5\n        /* \"#utility.yul\":612:662   */\n      mstore\n        /* \"#utility.yul\":691:695   */\n      0x20\n        /* \"#utility.yul\":686:689   */\n      dup5\n        /* \"#utility.yul\":682:696   */\n      add\n        /* \"#utility.yul\":675:696   */\n      swap4\n      pop\n        /* \"#utility.yul\":725:729   */\n      0x20\n        /* \"#utility.yul\":720:723   */\n      dup4\n        /* \"#utility.yul\":716:730   */\n      add\n        /* \"#utility.yul\":709:730   */\n      swap3\n      pop\n        /* \"#utility.yul\":562:740   */\n      pop\n        /* \"#utility.yul\":549:550   */\n      0x01\n        /* \"#utility.yul\":546:547   */\n      dup2\n        /* \"#utility.yul\":542:551   */\n      add\n        /* \"#utility.yul\":537:551   */\n      swap1\n      pop\n        /* \"#utility.yul\":502:740   */\n      jump(tag_68)\n    tag_70:\n        /* \"#utility.yul\":506:520   */\n      pop\n        /* \"#utility.yul\":126:746   */\n      pop\n      pop\n        /* \"#utility.yul\":24:746   */\n      swap4\n      swap3\n      pop\n      pop\n      pop\n      jump\t// out\n        /* \"#utility.yul\":769:1491   */\n    tag_73:\n        /* \"#utility.yul\":865:870   */\n      0x00\n        /* \"#utility.yul\":890:971   */\n      tag_75\n        /* \"#utility.yul\":906:970   */\n      tag_76\n        /* \"#utility.yul\":963:969   */\n      dup5\n        /* \"#utility.yul\":906:970   */\n      tag_77\n      jump\t// in\n    tag_76:\n        /* \"#utility.yul\":890:971   */\n      tag_64\n      jump\t// in\n    tag_75:\n        /* \"#utility.yul\":881:971   */\n      swap1\n      pop\n        /* \"#utility.yul\":991:996   */\n      dup1\n        /* \"#utility.yul\":1020:1026   */\n      dup4\n        /* \"#utility.yul\":1013:1018   */\n      dup3\n        /* \"#utility.yul\":1006:1027   */\n      mstore\n        /* \"#utility.yul\":1054:1058   */\n      0x20\n        /* \"#utility.yul\":1047:1052   */\n      dup3\n        /* \"#utility.yul\":1043:1059   */\n      add\n        /* \"#utility.yul\":1036:1059   */\n      swap1\n      pop\n        /* \"#utility.yul\":1080:1086   */\n      dup3\n        /* \"#utility.yul\":1130:1133   */\n      dup6\n        /* \"#utility.yul\":1122:1126   */\n      0x20\n        /* \"#utility.yul\":1114:1120   */\n      dup7\n        /* \"#utility.yul\":1110:1127   */\n      mul\n        /* \"#utility.yul\":1105:1108   */\n      dup3\n        /* \"#utility.yul\":1101:1128   */\n      add\n        /* \"#utility.yul\":1098:1134   */\n      gt\n        /* \"#utility.yul\":1095:1238   */\n      iszero\n      tag_78\n      jumpi\n        /* \"#utility.yul\":1149:1228   */\n      tag_79\n      tag_67\n      jump\t// in\n    tag_79:\n        /* \"#utility.yul\":1095:1238   */\n    tag_78:\n        /* \"#utility.yul\":1262:1263   */\n      0x00\n        /* \"#utility.yul\":1247:1485   */\n    tag_80:\n        /* \"#utility.yul\":1272:1278   */\n      dup6\n        /* \"#utility.yul\":1269:1270   */\n      dup2\n        /* \"#utility.yul\":1266:1279   */\n      lt\n        /* \"#utility.yul\":1247:1485   */\n      iszero\n      tag_82\n      jumpi\n        /* \"#utility.yul\":1340:1343   */\n      dup2\n        /* \"#utility.yul\":1369:1406   */\n      tag_83\n        /* \"#utility.yul\":1402:1405   */\n      dup9\n        /* \"#utility.yul\":1390:1400   */\n      dup3\n        /* \"#utility.yul\":1369:1406   */\n      tag_84\n      jump\t// in\n    tag_83:\n        /* \"#utility.yul\":1364:1367   */\n      dup5\n        /* \"#utility.yul\":1357:1407   */\n      mstore\n        /* \"#utility.yul\":1436:1440   */\n      0x20\n        /* \"#utility.yul\":1431:1434   */\n      dup5\n        /* \"#utility.yul\":1427:1441   */\n      add\n        /* \"#utility.yul\":1420:1441   */\n      swap4\n      pop\n        /* \"#utility.yul\":1470:1474   */\n      0x20\n        /* \"#utility.yul\":1465:1468   */\n      dup4\n        /* \"#utility.yul\":1461:1475   */\n      add\n        /* \"#utility.yul\":1454:1475   */\n      swap3\n      pop\n        /* \"#utility.yul\":1307:1485   */\n      pop\n        /* \"#utility.yul\":1294:1295   */\n      0x01\n        /* \"#utility.yul\":1291:1292   */\n      dup2\n        /* \"#utility.yul\":1287:1296   */\n      add\n        /* \"#utility.yul\":1282:1296   */\n      swap1\n      pop\n        /* \"#utility.yul\":1247:1485   */\n      jump(tag_80)\n    tag_82:\n        /* \"#utility.yul\":1251:1265   */\n      pop\n        /* \"#utility.yul\":871:1491   */\n      pop\n      pop\n        /* \"#utility.yul\":769:1491   */\n      swap4\n      swap3\n      pop\n      pop\n      pop\n      jump\t// out\n        /* \"#utility.yul\":1514:2258   */\n    tag_85:\n        /* \"#utility.yul\":1621:1626   */\n      0x00\n        /* \"#utility.yul\":1646:1727   */\n      tag_87\n        /* \"#utility.yul\":1662:1726   */\n      tag_88\n        /* \"#utility.yul\":1719:1725   */\n      dup5\n        /* \"#utility.yul\":1662:1726   */\n      tag_77\n      jump\t// in\n    tag_88:\n        /* \"#utility.yul\":1646:1727   */\n      tag_64\n      jump\t// in\n    tag_87:\n        /* \"#utility.yul\":1637:1727   */\n      swap1\n      pop\n        /* \"#utility.yul\":1747:1752   */\n      dup1\n        /* \"#utility.yul\":1776:1782   */\n      dup4\n        /* \"#utility.yul\":1769:1774   */\n      dup3\n        /* \"#utility.yul\":1762:1783   */\n      mstore\n        /* \"#utility.yul\":1810:1814   */\n      0x20\n        /* \"#utility.yul\":1803:1808   */\n      dup3\n        /* \"#utility.yul\":1799:1815   */\n      add\n        /* \"#utility.yul\":1792:1815   */\n      swap1\n      pop\n        /* \"#utility.yul\":1836:1842   */\n      dup3\n        /* \"#utility.yul\":1886:1889   */\n      dup6\n        /* \"#utility.yul\":1878:1882   */\n      0x20\n        /* \"#utility.yul\":1870:1876   */\n      dup7\n        /* \"#utility.yul\":1866:1883   */\n      mul\n        /* \"#utility.yul\":1861:1864   */\n      dup3\n        /* \"#utility.yul\":1857:1884   */\n      add\n        /* \"#utility.yul\":1854:1890   */\n      gt\n        /* \"#utility.yul\":1851:1994   */\n      iszero\n      tag_89\n      jumpi\n        /* \"#utility.yul\":1905:1984   */\n      tag_90\n      tag_67\n      jump\t// in\n    tag_90:\n        /* \"#utility.yul\":1851:1994   */\n    tag_89:\n        /* \"#utility.yul\":2018:2019   */\n      0x00\n        /* \"#utility.yul\":2003:2252   */\n    tag_91:\n        /* \"#utility.yul\":2028:2034   */\n      dup6\n        /* \"#utility.yul\":2025:2026   */\n      dup2\n        /* \"#utility.yul\":2022:2035   */\n      lt\n        /* \"#utility.yul\":2003:2252   */\n      iszero\n      tag_93\n      jumpi\n        /* \"#utility.yul\":2096:2099   */\n      dup2\n        /* \"#utility.yul\":2125:2173   */\n      tag_94\n        /* \"#utility.yul\":2169:2172   */\n      dup9\n        /* \"#utility.yul\":2157:2167   */\n      dup3\n        /* \"#utility.yul\":2125:2173   */\n      tag_95\n      jump\t// in\n    tag_94:\n        /* \"#utility.yul\":2120:2123   */\n      dup5\n        /* \"#utility.yul\":2113:2174   */\n      mstore\n        /* \"#utility.yul\":2203:2207   */\n      0x20\n        /* \"#utility.yul\":2198:2201   */\n      dup5\n        /* \"#utility.yul\":2194:2208   */\n      add\n        /* \"#utility.yul\":2187:2208   */\n      swap4\n      pop\n        /* \"#utility.yul\":2237:2241   */\n      0x20\n        /* \"#utility.yul\":2232:2235   */\n      dup4\n        /* \"#utility.yul\":2228:2242   */\n      add\n        /* \"#utility.yul\":2221:2242   */\n      swap3\n      pop\n        /* \"#utility.yul\":2063:2252   */\n      pop\n        /* \"#utility.yul\":2050:2051   */\n      0x01\n        /* \"#utility.yul\":2047:2048   */\n      dup2\n        /* \"#utility.yul\":2043:2052   */\n      add\n        /* \"#utility.yul\":2038:2052   */\n      swap1\n      pop\n        /* \"#utility.yul\":2003:2252   */\n      jump(tag_91)\n    tag_93:\n        /* \"#utility.yul\":2007:2021   */\n      pop\n        /* \"#utility.yul\":1627:2258   */\n      pop\n      pop\n        /* \"#utility.yul\":1514:2258   */\n      swap4\n      swap3\n      pop\n      pop\n      pop\n      jump\t// out\n        /* \"#utility.yul\":2264:2403   */\n    tag_72:\n        /* \"#utility.yul\":2310:2315   */\n      0x00\n        /* \"#utility.yul\":2348:2354   */\n      dup2\n        /* \"#utility.yul\":2335:2355   */\n      calldataload\n        /* \"#utility.yul\":2326:2355   */\n      swap1\n      pop\n        /* \"#utility.yul\":2364:2397   */\n      tag_97\n        /* \"#utility.yul\":2391:2396   */\n      dup2\n        /* \"#utility.yul\":2364:2397   */\n      tag_98\n      jump\t// in\n    tag_97:\n        /* \"#utility.yul\":2264:2403   */\n      swap3\n      swap2\n      pop\n      pop\n      jump\t// out\n        /* \"#utility.yul\":2426:2796   */\n    tag_99:\n        /* \"#utility.yul\":2497:2502   */\n      0x00\n        /* \"#utility.yul\":2546:2549   */\n      dup3\n        /* \"#utility.yul\":2539:2543   */\n      0x1f\n        /* \"#utility.yul\":2531:2537   */\n      dup4\n        /* \"#utility.yul\":2527:2544   */\n      add\n        /* \"#utility.yul\":2523:2550   */\n      slt\n        /* \"#utility.yul\":2513:2635   */\n      tag_101\n      jumpi\n        /* \"#utility.yul\":2554:2633   */\n      tag_102\n      tag_103\n      jump\t// in\n    tag_102:\n        /* \"#utility.yul\":2513:2635   */\n    tag_101:\n        /* \"#utility.yul\":2671:2677   */\n      dup2\n        /* \"#utility.yul\":2658:2678   */\n      calldataload\n        /* \"#utility.yul\":2696:2790   */\n      tag_104\n        /* \"#utility.yul\":2786:2789   */\n      dup5\n        /* \"#utility.yul\":2778:2784   */\n      dup3\n        /* \"#utility.yul\":2771:2775   */\n      0x20\n        /* \"#utility.yul\":2763:2769   */\n      dup7\n        /* \"#utility.yul\":2759:2776   */\n      add\n        /* \"#utility.yul\":2696:2790   */\n      tag_59\n      jump\t// in\n    tag_104:\n        /* \"#utility.yul\":2687:2790   */\n      swap2\n      pop\n        /* \"#utility.yul\":2503:2796   */\n      pop\n        /* \"#utility.yul\":2426:2796   */\n      swap3\n      swap2\n      pop\n      pop\n      jump\t// out\n        /* \"#utility.yul\":2819:3189   */\n    tag_105:\n        /* \"#utility.yul\":2890:2895   */\n      0x00\n        /* \"#utility.yul\":2939:2942   */\n      dup3\n        /* \"#utility.yul\":2932:2936   */\n      0x1f\n        /* \"#utility.yul\":2924:2930   */\n      dup4\n        /* \"#utility.yul\":2920:2937   */\n      add\n        /* \"#utility.yul\":2916:2943   */\n      slt\n        /* \"#utility.yul\":2906:3028   */\n      tag_107\n      jumpi\n        /* \"#utility.yul\":2947:3026   */\n      tag_108\n      tag_103\n      jump\t// in\n    tag_108:\n        /* \"#utility.yul\":2906:3028   */\n    tag_107:\n        /* \"#utility.yul\":3064:3070   */\n      dup2\n        /* \"#utility.yul\":3051:3071   */\n      calldataload\n        /* \"#utility.yul\":3089:3183   */\n      tag_109\n        /* \"#utility.yul\":3179:3182   */\n      dup5\n        /* \"#utility.yul\":3171:3177   */\n      dup3\n        /* \"#utility.yul\":3164:3168   */\n      0x20\n        /* \"#utility.yul\":3156:3162   */\n      dup7\n        /* \"#utility.yul\":3152:3169   */\n      add\n        /* \"#utility.yul\":3089:3183   */\n      tag_73\n      jump\t// in\n    tag_109:\n        /* \"#utility.yul\":3080:3183   */\n      swap2\n      pop\n        /* \"#utility.yul\":2896:3189   */\n      pop\n        /* \"#utility.yul\":2819:3189   */\n      swap3\n      swap2\n      pop\n      pop\n      jump\t// out\n        /* \"#utility.yul\":3212:3597   */\n    tag_110:\n        /* \"#utility.yul\":3294:3299   */\n      0x00\n        /* \"#utility.yul\":3343:3346   */\n      dup3\n        /* \"#utility.yul\":3336:3340   */\n      0x1f\n        /* \"#utility.yul\":3328:3334   */\n      dup4\n        /* \"#utility.yul\":3324:3341   */\n      add\n        /* \"#utility.yul\":3320:3347   */\n      slt\n        /* \"#utility.yul\":3310:3432   */\n      tag_112\n      jumpi\n        /* \"#utility.yul\":3351:3430   */\n      tag_113\n      tag_103\n      jump\t// in\n    tag_113:\n        /* \"#utility.yul\":3310:3432   */\n    tag_112:\n        /* \"#utility.yul\":3461:3467   */\n      dup2\n        /* \"#utility.yul\":3455:3468   */\n      mload\n        /* \"#utility.yul\":3486:3591   */\n      tag_114\n        /* \"#utility.yul\":3587:3590   */\n      dup5\n        /* \"#utility.yul\":3579:3585   */\n      dup3\n        /* \"#utility.yul\":3572:3576   */\n      0x20\n        /* \"#utility.yul\":3564:3570   */\n      dup7\n        /* \"#utility.yul\":3560:3577   */\n      add\n        /* \"#utility.yul\":3486:3591   */\n      tag_85\n      jump\t// in\n    tag_114:\n        /* \"#utility.yul\":3477:3591   */\n      swap2\n      pop\n        /* \"#utility.yul\":3300:3597   */\n      pop\n        /* \"#utility.yul\":3212:3597   */\n      swap3\n      swap2\n      pop\n      pop\n      jump\t// out\n        /* \"#utility.yul\":3603:3794   */\n    tag_115:\n        /* \"#utility.yul\":3675:3680   */\n      0x00\n        /* \"#utility.yul\":3713:3719   */\n      dup2\n        /* \"#utility.yul\":3700:3720   */\n      calldataload\n        /* \"#utility.yul\":3691:3720   */\n      swap1\n      pop\n        /* \"#utility.yul\":3729:3788   */\n      tag_117\n        /* \"#utility.yul\":3782:3787   */\n      dup2\n        /* \"#utility.yul\":3729:3788   */\n      tag_118\n      jump\t// in\n    tag_117:\n        /* \"#utility.yul\":3603:3794   */\n      swap3\n      swap2\n      pop\n      pop\n      jump\t// out\n        /* \"#utility.yul\":3800:3939   */\n    tag_84:\n        /* \"#utility.yul\":3846:3851   */\n      0x00\n        /* \"#utility.yul\":3884:3890   */\n      dup2\n        /* \"#utility.yul\":3871:3891   */\n      calldataload\n        /* \"#utility.yul\":3862:3891   */\n      swap1\n      pop\n        /* \"#utility.yul\":3900:3933   */\n      tag_120\n        /* \"#utility.yul\":3927:3932   */\n      dup2\n        /* \"#utility.yul\":3900:3933   */\n      tag_121\n      jump\t// in\n    tag_120:\n        /* \"#utility.yul\":3800:3939   */\n      swap3\n      swap2\n      pop\n      pop\n      jump\t// out\n        /* \"#utility.yul\":3945:4088   */\n    tag_95:\n        /* \"#utility.yul\":4002:4007   */\n      0x00\n        /* \"#utility.yul\":4033:4039   */\n      dup2\n        /* \"#utility.yul\":4027:4040   */\n      mload\n        /* \"#utility.yul\":4018:4040   */\n      swap1\n      pop\n        /* \"#utility.yul\":4049:4082   */\n      tag_123\n        /* \"#utility.yul\":4076:4081   */\n      dup2\n        /* \"#utility.yul\":4049:4082   */\n      tag_121\n      jump\t// in\n    tag_123:\n        /* \"#utility.yul\":3945:4088   */\n      swap3\n      swap2\n      pop\n      pop\n      jump\t// out\n        /* \"#utility.yul\":4094:4988   */\n    tag_11:\n        /* \"#utility.yul\":4212:4218   */\n      0x00\n        /* \"#utility.yul\":4220:4226   */\n      dup1\n        /* \"#utility.yul\":4269:4271   */\n      0x40\n        /* \"#utility.yul\":4257:4266   */\n      dup4\n        /* \"#utility.yul\":4248:4255   */\n      dup6\n        /* \"#utility.yul\":4244:4267   */\n      sub\n        /* \"#utility.yul\":4240:4272   */\n      slt\n        /* \"#utility.yul\":4237:4356   */\n      iszero\n      tag_125\n      jumpi\n        /* \"#utility.yul\":4275:4354   */\n      tag_126\n      tag_127\n      jump\t// in\n    tag_126:\n        /* \"#utility.yul\":4237:4356   */\n    tag_125:\n        /* \"#utility.yul\":4423:4424   */\n      0x00\n        /* \"#utility.yul\":4412:4421   */\n      dup4\n        /* \"#utility.yul\":4408:4425   */\n      add\n        /* \"#utility.yul\":4395:4426   */\n      calldataload\n        /* \"#utility.yul\":4453:4471   */\n      0xffffffffffffffff\n        /* \"#utility.yul\":4445:4451   */\n      dup2\n        /* \"#utility.yul\":4442:4472   */\n      gt\n        /* \"#utility.yul\":4439:4556   */\n      iszero\n      tag_128\n      jumpi\n        /* \"#utility.yul\":4475:4554   */\n      tag_129\n      tag_130\n      jump\t// in\n    tag_129:\n        /* \"#utility.yul\":4439:4556   */\n    tag_128:\n        /* \"#utility.yul\":4580:4658   */\n      tag_131\n        /* \"#utility.yul\":4650:4657   */\n      dup6\n        /* \"#utility.yul\":4641:4647   */\n      dup3\n        /* \"#utility.yul\":4630:4639   */\n      dup7\n        /* \"#utility.yul\":4626:4648   */\n      add\n        /* \"#utility.yul\":4580:4658   */\n      tag_99\n      jump\t// in\n    tag_131:\n        /* \"#utility.yul\":4570:4658   */\n      swap3\n      pop\n        /* \"#utility.yul\":4366:4668   */\n      pop\n        /* \"#utility.yul\":4735:4737   */\n      0x20\n        /* \"#utility.yul\":4724:4733   */\n      dup4\n        /* \"#utility.yul\":4720:4738   */\n      add\n        /* \"#utility.yul\":4707:4739   */\n      calldataload\n        /* \"#utility.yul\":4766:4784   */\n      0xffffffffffffffff\n        /* \"#utility.yul\":4758:4764   */\n      dup2\n        /* \"#utility.yul\":4755:4785   */\n      gt\n        /* \"#utility.yul\":4752:4869   */\n      iszero\n      tag_132\n      jumpi\n        /* \"#utility.yul\":4788:4867   */\n      tag_133\n      tag_130\n      jump\t// in\n    tag_133:\n        /* \"#utility.yul\":4752:4869   */\n    tag_132:\n        /* \"#utility.yul\":4893:4971   */\n      tag_134\n        /* \"#utility.yul\":4963:4970   */\n      dup6\n        /* \"#utility.yul\":4954:4960   */\n      dup3\n        /* \"#utility.yul\":4943:4952   */\n      dup7\n        /* \"#utility.yul\":4939:4961   */\n      add\n        /* \"#utility.yul\":4893:4971   */\n      tag_105\n      jump\t// in\n    tag_134:\n        /* \"#utility.yul\":4883:4971   */\n      swap2\n      pop\n        /* \"#utility.yul\":4678:4981   */\n      pop\n        /* \"#utility.yul\":4094:4988   */\n      swap3\n      pop\n      swap3\n      swap1\n      pop\n      jump\t// out\n        /* \"#utility.yul\":4994:5875   */\n    tag_7:\n        /* \"#utility.yul\":5122:5128   */\n      0x00\n        /* \"#utility.yul\":5130:5136   */\n      dup1\n        /* \"#utility.yul\":5138:5144   */\n      0x00\n        /* \"#utility.yul\":5187:5189   */\n      0x60\n        /* \"#utility.yul\":5175:5184   */\n      dup5\n        /* \"#utility.yul\":5166:5173   */\n      dup7\n        /* \"#utility.yul\":5162:5185   */\n      sub\n        /* \"#utility.yul\":5158:5190   */\n      slt\n        /* \"#utility.yul\":5155:5274   */\n      iszero\n      tag_136\n      jumpi\n        /* \"#utility.yul\":5193:5272   */\n      tag_137\n      tag_127\n      jump\t// in\n    tag_137:\n        /* \"#utility.yul\":5155:5274   */\n    tag_136:\n        /* \"#utility.yul\":5341:5342   */\n      0x00\n        /* \"#utility.yul\":5330:5339   */\n      dup5\n        /* \"#utility.yul\":5326:5343   */\n      add\n        /* \"#utility.yul\":5313:5344   */\n      calldataload\n        /* \"#utility.yul\":5371:5389   */\n      0xffffffffffffffff\n        /* \"#utility.yul\":5363:5369   */\n      dup2\n        /* \"#utility.yul\":5360:5390   */\n      gt\n        /* \"#utility.yul\":5357:5474   */\n      iszero\n      tag_138\n      jumpi\n        /* \"#utility.yul\":5393:5472   */\n      tag_139\n      tag_130\n      jump\t// in\n    tag_139:\n        /* \"#utility.yul\":5357:5474   */\n    tag_138:\n        /* \"#utility.yul\":5498:5576   */\n      tag_140\n        /* \"#utility.yul\":5568:5575   */\n      dup7\n        /* \"#utility.yul\":5559:5565   */\n      dup3\n        /* \"#utility.yul\":5548:5557   */\n      dup8\n        /* \"#utility.yul\":5544:5566   */\n      add\n        /* \"#utility.yul\":5498:5576   */\n      tag_99\n      jump\t// in\n    tag_140:\n        /* \"#utility.yul\":5488:5576   */\n      swap4\n      pop\n        /* \"#utility.yul\":5284:5586   */\n      pop\n        /* \"#utility.yul\":5625:5627   */\n      0x20\n        /* \"#utility.yul\":5651:5730   */\n      tag_141\n        /* \"#utility.yul\":5722:5729   */\n      dup7\n        /* \"#utility.yul\":5713:5719   */\n      dup3\n        /* \"#utility.yul\":5702:5711   */\n      dup8\n        /* \"#utility.yul\":5698:5720   */\n      add\n        /* \"#utility.yul\":5651:5730   */\n      tag_115\n      jump\t// in\n    tag_141:\n        /* \"#utility.yul\":5641:5730   */\n      swap3\n      pop\n        /* \"#utility.yul\":5596:5740   */\n      pop\n        /* \"#utility.yul\":5779:5781   */\n      0x40\n        /* \"#utility.yul\":5805:5858   */\n      tag_142\n        /* \"#utility.yul\":5850:5857   */\n      dup7\n        /* \"#utility.yul\":5841:5847   */\n      dup3\n        /* \"#utility.yul\":5830:5839   */\n      dup8\n        /* \"#utility.yul\":5826:5848   */\n      add\n        /* \"#utility.yul\":5805:5858   */\n      tag_72\n      jump\t// in\n    tag_142:\n        /* \"#utility.yul\":5795:5858   */\n      swap2\n      pop\n        /* \"#utility.yul\":5750:5868   */\n      pop\n        /* \"#utility.yul\":4994:5875   */\n      swap3\n      pop\n      swap3\n      pop\n      swap3\n      jump\t// out\n        /* \"#utility.yul\":5881:6435   */\n    tag_48:\n        /* \"#utility.yul\":5976:5982   */\n      0x00\n        /* \"#utility.yul\":6025:6027   */\n      0x20\n        /* \"#utility.yul\":6013:6022   */\n      dup3\n        /* \"#utility.yul\":6004:6011   */\n      dup5\n        /* \"#utility.yul\":6000:6023   */\n      sub\n        /* \"#utility.yul\":5996:6028   */\n      slt\n        /* \"#utility.yul\":5993:6112   */\n      iszero\n      tag_144\n      jumpi\n        /* \"#utility.yul\":6031:6110   */\n      tag_145\n      tag_127\n      jump\t// in\n    tag_145:\n        /* \"#utility.yul\":5993:6112   */\n    tag_144:\n        /* \"#utility.yul\":6172:6173   */\n      0x00\n        /* \"#utility.yul\":6161:6170   */\n      dup3\n        /* \"#utility.yul\":6157:6174   */\n      add\n        /* \"#utility.yul\":6151:6175   */\n      mload\n        /* \"#utility.yul\":6202:6220   */\n      0xffffffffffffffff\n        /* \"#utility.yul\":6194:6200   */\n      dup2\n        /* \"#utility.yul\":6191:6221   */\n      gt\n        /* \"#utility.yul\":6188:6305   */\n      iszero\n      tag_146\n      jumpi\n        /* \"#utility.yul\":6224:6303   */\n      tag_147\n      tag_130\n      jump\t// in\n    tag_147:\n        /* \"#utility.yul\":6188:6305   */\n    tag_146:\n        /* \"#utility.yul\":6329:6418   */\n      tag_148\n        /* \"#utility.yul\":6410:6417   */\n      dup5\n        /* \"#utility.yul\":6401:6407   */\n      dup3\n        /* \"#utility.yul\":6390:6399   */\n      dup6\n        /* \"#utility.yul\":6386:6408   */\n      add\n        /* \"#utility.yul\":6329:6418   */\n      tag_110\n      jump\t// in\n    tag_148:\n        /* \"#utility.yul\":6319:6418   */\n      swap2\n      pop\n        /* \"#utility.yul\":6122:6428   */\n      pop\n        /* \"#utility.yul\":5881:6435   */\n      swap3\n      swap2\n      pop\n      pop\n      jump\t// out\n        /* \"#utility.yul\":6441:6620   */\n    tag_149:\n        /* \"#utility.yul\":6510:6520   */\n      0x00\n        /* \"#utility.yul\":6531:6577   */\n      tag_151\n        /* \"#utility.yul\":6573:6576   */\n      dup4\n        /* \"#utility.yul\":6565:6571   */\n      dup4\n        /* \"#utility.yul\":6531:6577   */\n      tag_152\n      jump\t// in\n    tag_151:\n        /* \"#utility.yul\":6609:6613   */\n      0x20\n        /* \"#utility.yul\":6604:6607   */\n      dup4\n        /* \"#utility.yul\":6600:6614   */\n      add\n        /* \"#utility.yul\":6586:6614   */\n      swap1\n      pop\n        /* \"#utility.yul\":6441:6620   */\n      swap3\n      swap2\n      pop\n      pop\n      jump\t// out\n        /* \"#utility.yul\":6626:6734   */\n    tag_152:\n        /* \"#utility.yul\":6703:6727   */\n      tag_154\n        /* \"#utility.yul\":6721:6726   */\n      dup2\n        /* \"#utility.yul\":6703:6727   */\n      tag_155\n      jump\t// in\n    tag_154:\n        /* \"#utility.yul\":6698:6701   */\n      dup3\n        /* \"#utility.yul\":6691:6728   */\n      mstore\n        /* \"#utility.yul\":6626:6734   */\n      pop\n      pop\n      jump\t// out\n        /* \"#utility.yul\":6740:6858   */\n    tag_156:\n        /* \"#utility.yul\":6827:6851   */\n      tag_158\n        /* \"#utility.yul\":6845:6850   */\n      dup2\n        /* \"#utility.yul\":6827:6851   */\n      tag_155\n      jump\t// in\n    tag_158:\n        /* \"#utility.yul\":6822:6825   */\n      dup3\n        /* \"#utility.yul\":6815:6852   */\n      mstore\n        /* \"#utility.yul\":6740:6858   */\n      pop\n      pop\n      jump\t// out\n        /* \"#utility.yul\":6894:7626   */\n    tag_159:\n        /* \"#utility.yul\":7013:7016   */\n      0x00\n        /* \"#utility.yul\":7042:7096   */\n      tag_161\n        /* \"#utility.yul\":7090:7095   */\n      dup3\n        /* \"#utility.yul\":7042:7096   */\n      tag_162\n      jump\t// in\n    tag_161:\n        /* \"#utility.yul\":7112:7198   */\n      tag_163\n        /* \"#utility.yul\":7191:7197   */\n      dup2\n        /* \"#utility.yul\":7186:7189   */\n      dup6\n        /* \"#utility.yul\":7112:7198   */\n      tag_164\n      jump\t// in\n    tag_163:\n        /* \"#utility.yul\":7105:7198   */\n      swap4\n      pop\n        /* \"#utility.yul\":7222:7278   */\n      tag_165\n        /* \"#utility.yul\":7272:7277   */\n      dup4\n        /* \"#utility.yul\":7222:7278   */\n      tag_166\n      jump\t// in\n    tag_165:\n        /* \"#utility.yul\":7301:7308   */\n      dup1\n        /* \"#utility.yul\":7332:7333   */\n      0x00\n        /* \"#utility.yul\":7317:7601   */\n    tag_167:\n        /* \"#utility.yul\":7342:7348   */\n      dup4\n        /* \"#utility.yul\":7339:7340   */\n      dup2\n        /* \"#utility.yul\":7336:7349   */\n      lt\n        /* \"#utility.yul\":7317:7601   */\n      iszero\n      tag_169\n      jumpi\n        /* \"#utility.yul\":7418:7424   */\n      dup2\n        /* \"#utility.yul\":7412:7425   */\n      mload\n        /* \"#utility.yul\":7445:7508   */\n      tag_170\n        /* \"#utility.yul\":7504:7507   */\n      dup9\n        /* \"#utility.yul\":7489:7502   */\n      dup3\n        /* \"#utility.yul\":7445:7508   */\n      tag_149\n      jump\t// in\n    tag_170:\n        /* \"#utility.yul\":7438:7508   */\n      swap8\n      pop\n        /* \"#utility.yul\":7531:7591   */\n      tag_171\n        /* \"#utility.yul\":7584:7590   */\n      dup4\n        /* \"#utility.yul\":7531:7591   */\n      tag_172\n      jump\t// in\n    tag_171:\n        /* \"#utility.yul\":7521:7591   */\n      swap3\n      pop\n        /* \"#utility.yul\":7377:7601   */\n      pop\n        /* \"#utility.yul\":7364:7365   */\n      0x01\n        /* \"#utility.yul\":7361:7362   */\n      dup2\n        /* \"#utility.yul\":7357:7366   */\n      add\n        /* \"#utility.yul\":7352:7366   */\n      swap1\n      pop\n        /* \"#utility.yul\":7317:7601   */\n      jump(tag_167)\n    tag_169:\n        /* \"#utility.yul\":7321:7335   */\n      pop\n        /* \"#utility.yul\":7617:7620   */\n      dup6\n        /* \"#utility.yul\":7610:7620   */\n      swap4\n      pop\n        /* \"#utility.yul\":7018:7626   */\n      pop\n      pop\n      pop\n        /* \"#utility.yul\":6894:7626   */\n      swap3\n      swap2\n      pop\n      pop\n      jump\t// out\n        /* \"#utility.yul\":7632:7779   */\n    tag_173:\n        /* \"#utility.yul\":7727:7772   */\n      tag_175\n        /* \"#utility.yul\":7766:7771   */\n      dup2\n        /* \"#utility.yul\":7727:7772   */\n      tag_176\n      jump\t// in\n    tag_175:\n        /* \"#utility.yul\":7722:7725   */\n      dup3\n        /* \"#utility.yul\":7715:7773   */\n      mstore\n        /* \"#utility.yul\":7632:7779   */\n      pop\n      pop\n      jump\t// out\n        /* \"#utility.yul\":7785:8151   */\n    tag_177:\n        /* \"#utility.yul\":7927:7930   */\n      0x00\n        /* \"#utility.yul\":7948:8015   */\n      tag_179\n        /* \"#utility.yul\":8012:8014   */\n      0x0e\n        /* \"#utility.yul\":8007:8010   */\n      dup4\n        /* \"#utility.yul\":7948:8015   */\n      tag_180\n      jump\t// in\n    tag_179:\n        /* \"#utility.yul\":7941:8015   */\n      swap2\n      pop\n        /* \"#utility.yul\":8024:8117   */\n      tag_181\n        /* \"#utility.yul\":8113:8116   */\n      dup3\n        /* \"#utility.yul\":8024:8117   */\n      tag_182\n      jump\t// in\n    tag_181:\n        /* \"#utility.yul\":8142:8144   */\n      0x20\n        /* \"#utility.yul\":8137:8140   */\n      dup3\n        /* \"#utility.yul\":8133:8145   */\n      add\n        /* \"#utility.yul\":8126:8145   */\n      swap1\n      pop\n        /* \"#utility.yul\":7785:8151   */\n      swap2\n      swap1\n      pop\n      jump\t// out\n        /* \"#utility.yul\":8157:8275   */\n    tag_183:\n        /* \"#utility.yul\":8244:8268   */\n      tag_185\n        /* \"#utility.yul\":8262:8267   */\n      dup2\n        /* \"#utility.yul\":8244:8268   */\n      tag_186\n      jump\t// in\n    tag_185:\n        /* \"#utility.yul\":8239:8242   */\n      dup3\n        /* \"#utility.yul\":8232:8269   */\n      mstore\n        /* \"#utility.yul\":8157:8275   */\n      pop\n      pop\n      jump\t// out\n        /* \"#utility.yul\":8281:9001   */\n    tag_43:\n        /* \"#utility.yul\":8516:8520   */\n      0x00\n        /* \"#utility.yul\":8554:8557   */\n      0x80\n        /* \"#utility.yul\":8543:8552   */\n      dup3\n        /* \"#utility.yul\":8539:8558   */\n      add\n        /* \"#utility.yul\":8531:8558   */\n      swap1\n      pop\n        /* \"#utility.yul\":8568:8647   */\n      tag_188\n        /* \"#utility.yul\":8644:8645   */\n      0x00\n        /* \"#utility.yul\":8633:8642   */\n      dup4\n        /* \"#utility.yul\":8629:8646   */\n      add\n        /* \"#utility.yul\":8620:8626   */\n      dup8\n        /* \"#utility.yul\":8568:8647   */\n      tag_173\n      jump\t// in\n    tag_188:\n        /* \"#utility.yul\":8694:8703   */\n      dup2\n        /* \"#utility.yul\":8688:8692   */\n      dup2\n        /* \"#utility.yul\":8684:8704   */\n      sub\n        /* \"#utility.yul\":8679:8681   */\n      0x20\n        /* \"#utility.yul\":8668:8677   */\n      dup4\n        /* \"#utility.yul\":8664:8682   */\n      add\n        /* \"#utility.yul\":8657:8705   */\n      mstore\n        /* \"#utility.yul\":8722:8830   */\n      tag_189\n        /* \"#utility.yul\":8825:8829   */\n      dup2\n        /* \"#utility.yul\":8816:8822   */\n      dup7\n        /* \"#utility.yul\":8722:8830   */\n      tag_159\n      jump\t// in\n    tag_189:\n        /* \"#utility.yul\":8714:8830   */\n      swap1\n      pop\n        /* \"#utility.yul\":8840:8912   */\n      tag_190\n        /* \"#utility.yul\":8908:8910   */\n      0x40\n        /* \"#utility.yul\":8897:8906   */\n      dup4\n        /* \"#utility.yul\":8893:8911   */\n      add\n        /* \"#utility.yul\":8884:8890   */\n      dup6\n        /* \"#utility.yul\":8840:8912   */\n      tag_156\n      jump\t// in\n    tag_190:\n        /* \"#utility.yul\":8922:8994   */\n      tag_191\n        /* \"#utility.yul\":8990:8992   */\n      0x60\n        /* \"#utility.yul\":8979:8988   */\n      dup4\n        /* \"#utility.yul\":8975:8993   */\n      add\n        /* \"#utility.yul\":8966:8972   */\n      dup5\n        /* \"#utility.yul\":8922:8994   */\n      tag_183\n      jump\t// in\n    tag_191:\n        /* \"#utility.yul\":8281:9001   */\n      swap6\n      swap5\n      pop\n      pop\n      pop\n      pop\n      pop\n      jump\t// out\n        /* \"#utility.yul\":9007:9426   */\n    tag_19:\n        /* \"#utility.yul\":9173:9177   */\n      0x00\n        /* \"#utility.yul\":9211:9213   */\n      0x20\n        /* \"#utility.yul\":9200:9209   */\n      dup3\n        /* \"#utility.yul\":9196:9214   */\n      add\n        /* \"#utility.yul\":9188:9214   */\n      swap1\n      pop\n        /* \"#utility.yul\":9260:9269   */\n      dup2\n        /* \"#utility.yul\":9254:9258   */\n      dup2\n        /* \"#utility.yul\":9250:9270   */\n      sub\n        /* \"#utility.yul\":9246:9247   */\n      0x00\n        /* \"#utility.yul\":9235:9244   */\n      dup4\n        /* \"#utility.yul\":9231:9248   */\n      add\n        /* \"#utility.yul\":9224:9271   */\n      mstore\n        /* \"#utility.yul\":9288:9419   */\n      tag_193\n        /* \"#utility.yul\":9414:9418   */\n      dup2\n        /* \"#utility.yul\":9288:9419   */\n      tag_177\n      jump\t// in\n    tag_193:\n        /* \"#utility.yul\":9280:9419   */\n      swap1\n      pop\n        /* \"#utility.yul\":9007:9426   */\n      swap2\n      swap1\n      pop\n      jump\t// out\n        /* \"#utility.yul\":9432:9561   */\n    tag_64:\n        /* \"#utility.yul\":9466:9472   */\n      0x00\n        /* \"#utility.yul\":9493:9513   */\n      tag_195\n      tag_196\n      jump\t// in\n    tag_195:\n        /* \"#utility.yul\":9483:9513   */\n      swap1\n      pop\n        /* \"#utility.yul\":9522:9555   */\n      tag_197\n        /* \"#utility.yul\":9550:9554   */\n      dup3\n        /* \"#utility.yul\":9542:9548   */\n      dup3\n        /* \"#utility.yul\":9522:9555   */\n      tag_198\n      jump\t// in\n    tag_197:\n        /* \"#utility.yul\":9432:9561   */\n      swap2\n      swap1\n      pop\n      jump\t// out\n        /* \"#utility.yul\":9567:9642   */\n    tag_196:\n        /* \"#utility.yul\":9600:9606   */\n      0x00\n        /* \"#utility.yul\":9633:9635   */\n      0x40\n        /* \"#utility.yul\":9627:9636   */\n      mload\n        /* \"#utility.yul\":9617:9636   */\n      swap1\n      pop\n        /* \"#utility.yul\":9567:9642   */\n      swap1\n      jump\t// out\n        /* \"#utility.yul\":9648:9959   */\n    tag_63:\n        /* \"#utility.yul\":9725:9729   */\n      0x00\n        /* \"#utility.yul\":9815:9833   */\n      0xffffffffffffffff\n        /* \"#utility.yul\":9807:9813   */\n      dup3\n        /* \"#utility.yul\":9804:9834   */\n      gt\n        /* \"#utility.yul\":9801:9857   */\n      iszero\n      tag_201\n      jumpi\n        /* \"#utility.yul\":9837:9855   */\n      tag_202\n      tag_25\n      jump\t// in\n    tag_202:\n        /* \"#utility.yul\":9801:9857   */\n    tag_201:\n        /* \"#utility.yul\":9887:9891   */\n      0x20\n        /* \"#utility.yul\":9879:9885   */\n      dup3\n        /* \"#utility.yul\":9875:9892   */\n      mul\n        /* \"#utility.yul\":9867:9892   */\n      swap1\n      pop\n        /* \"#utility.yul\":9947:9951   */\n      0x20\n        /* \"#utility.yul\":9941:9945   */\n      dup2\n        /* \"#utility.yul\":9937:9952   */\n      add\n        /* \"#utility.yul\":9929:9952   */\n      swap1\n      pop\n        /* \"#utility.yul\":9648:9959   */\n      swap2\n      swap1\n      pop\n      jump\t// out\n        /* \"#utility.yul\":9965:10276   */\n    tag_77:\n        /* \"#utility.yul\":10042:10046   */\n      0x00\n        /* \"#utility.yul\":10132:10150   */\n      0xffffffffffffffff\n        /* \"#utility.yul\":10124:10130   */\n      dup3\n        /* \"#utility.yul\":10121:10151   */\n      gt\n        /* \"#utility.yul\":10118:10174   */\n      iszero\n      tag_204\n      jumpi\n        /* \"#utility.yul\":10154:10172   */\n      tag_205\n      tag_25\n      jump\t// in\n    tag_205:\n        /* \"#utility.yul\":10118:10174   */\n    tag_204:\n        /* \"#utility.yul\":10204:10208   */\n      0x20\n        /* \"#utility.yul\":10196:10202   */\n      dup3\n        /* \"#utility.yul\":10192:10209   */\n      mul\n        /* \"#utility.yul\":10184:10209   */\n      swap1\n      pop\n        /* \"#utility.yul\":10264:10268   */\n      0x20\n        /* \"#utility.yul\":10258:10262   */\n      dup2\n        /* \"#utility.yul\":10254:10269   */\n      add\n        /* \"#utility.yul\":10246:10269   */\n      swap1\n      pop\n        /* \"#utility.yul\":9965:10276   */\n      swap2\n      swap1\n      pop\n      jump\t// out\n        /* \"#utility.yul\":10282:10414   */\n    tag_166:\n        /* \"#utility.yul\":10349:10353   */\n      0x00\n        /* \"#utility.yul\":10372:10375   */\n      dup2\n        /* \"#utility.yul\":10364:10375   */\n      swap1\n      pop\n        /* \"#utility.yul\":10402:10406   */\n      0x20\n        /* \"#utility.yul\":10397:10400   */\n      dup3\n        /* \"#utility.yul\":10393:10407   */\n      add\n        /* \"#utility.yul\":10385:10407   */\n      swap1\n      pop\n        /* \"#utility.yul\":10282:10414   */\n      swap2\n      swap1\n      pop\n      jump\t// out\n        /* \"#utility.yul\":10420:10534   */\n    tag_162:\n        /* \"#utility.yul\":10487:10493   */\n      0x00\n        /* \"#utility.yul\":10521:10526   */\n      dup2\n        /* \"#utility.yul\":10515:10527   */\n      mload\n        /* \"#utility.yul\":10505:10527   */\n      swap1\n      pop\n        /* \"#utility.yul\":10420:10534   */\n      swap2\n      swap1\n      pop\n      jump\t// out\n        /* \"#utility.yul\":10540:10653   */\n    tag_172:\n        /* \"#utility.yul\":10610:10614   */\n      0x00\n        /* \"#utility.yul\":10642:10646   */\n      0x20\n        /* \"#utility.yul\":10637:10640   */\n      dup3\n        /* \"#utility.yul\":10633:10647   */\n      add\n        /* \"#utility.yul\":10625:10647   */\n      swap1\n      pop\n        /* \"#utility.yul\":10540:10653   */\n      swap2\n      swap1\n      pop\n      jump\t// out\n        /* \"#utility.yul\":10659:10843   */\n    tag_164:\n        /* \"#utility.yul\":10758:10769   */\n      0x00\n        /* \"#utility.yul\":10792:10798   */\n      dup3\n        /* \"#utility.yul\":10787:10790   */\n      dup3\n        /* \"#utility.yul\":10780:10799   */\n      mstore\n        /* \"#utility.yul\":10832:10836   */\n      0x20\n        /* \"#utility.yul\":10827:10830   */\n      dup3\n        /* \"#utility.yul\":10823:10837   */\n      add\n        /* \"#utility.yul\":10808:10837   */\n      swap1\n      pop\n        /* \"#utility.yul\":10659:10843   */\n      swap3\n      swap2\n      pop\n      pop\n      jump\t// out\n        /* \"#utility.yul\":10849:11018   */\n    tag_180:\n        /* \"#utility.yul\":10933:10944   */\n      0x00\n        /* \"#utility.yul\":10967:10973   */\n      dup3\n        /* \"#utility.yul\":10962:10965   */\n      dup3\n        /* \"#utility.yul\":10955:10974   */\n      mstore\n        /* \"#utility.yul\":11007:11011   */\n      0x20\n        /* \"#utility.yul\":11002:11005   */\n      dup3\n        /* \"#utility.yul\":10998:11012   */\n      add\n        /* \"#utility.yul\":10983:11012   */\n      swap1\n      pop\n        /* \"#utility.yul\":10849:11018   */\n      swap3\n      swap2\n      pop\n      pop\n      jump\t// out\n        /* \"#utility.yul\":11024:11329   */\n    tag_41:\n        /* \"#utility.yul\":11064:11067   */\n      0x00\n        /* \"#utility.yul\":11083:11103   */\n      tag_212\n        /* \"#utility.yul\":11101:11102   */\n      dup3\n        /* \"#utility.yul\":11083:11103   */\n      tag_186\n      jump\t// in\n    tag_212:\n        /* \"#utility.yul\":11078:11103   */\n      swap2\n      pop\n        /* \"#utility.yul\":11117:11137   */\n      tag_213\n        /* \"#utility.yul\":11135:11136   */\n      dup4\n        /* \"#utility.yul\":11117:11137   */\n      tag_186\n      jump\t// in\n    tag_213:\n        /* \"#utility.yul\":11112:11137   */\n      swap3\n      pop\n        /* \"#utility.yul\":11271:11272   */\n      dup3\n        /* \"#utility.yul\":11203:11269   */\n      0xffffffffffffffffffffffffffffffffffffffffffffffffffffffffffffffff\n        /* \"#utility.yul\":11199:11273   */\n      sub\n        /* \"#utility.yul\":11196:11197   */\n      dup3\n        /* \"#utility.yul\":11193:11274   */\n      gt\n        /* \"#utility.yul\":11190:11297   */\n      iszero\n      tag_214\n      jumpi\n        /* \"#utility.yul\":11277:11295   */\n      tag_215\n      tag_216\n      jump\t// in\n    tag_215:\n        /* \"#utility.yul\":11190:11297   */\n    tag_214:\n        /* \"#utility.yul\":11321:11322   */\n      dup3\n        /* \"#utility.yul\":11318:11319   */\n      dup3\n        /* \"#utility.yul\":11314:11323   */\n      add\n        /* \"#utility.yul\":11307:11323   */\n      swap1\n      pop\n        /* \"#utility.yul\":11024:11329   */\n      swap3\n      swap2\n      pop\n      pop\n      jump\t// out\n        /* \"#utility.yul\":11335:11520   */\n    tag_39:\n        /* \"#utility.yul\":11375:11376   */\n      0x00\n        /* \"#utility.yul\":11392:11412   */\n      tag_218\n        /* \"#utility.yul\":11410:11411   */\n      dup3\n        /* \"#utility.yul\":11392:11412   */\n      tag_186\n      jump\t// in\n    tag_218:\n        /* \"#utility.yul\":11387:11412   */\n      swap2\n      pop\n        /* \"#utility.yul\":11426:11446   */\n      tag_219\n        /* \"#utility.yul\":11444:11445   */\n      dup4\n        /* \"#utility.yul\":11426:11446   */\n      tag_186\n      jump\t// in\n    tag_219:\n        /* \"#utility.yul\":11421:11446   */\n      swap3\n      pop\n        /* \"#utility.yul\":11465:11466   */\n      dup3\n        /* \"#utility.yul\":11455:11490   */\n      tag_220\n      jumpi\n        /* \"#utility.yul\":11470:11488   */\n      tag_221\n      tag_222\n      jump\t// in\n    tag_221:\n        /* \"#utility.yul\":11455:11490   */\n    tag_220:\n        /* \"#utility.yul\":11512:11513   */\n      dup3\n        /* \"#utility.yul\":11509:11510   */\n      dup3\n        /* \"#utility.yul\":11505:11514   */\n      div\n        /* \"#utility.yul\":11500:11514   */\n      swap1\n      pop\n        /* \"#utility.yul\":11335:11520   */\n      swap3\n      swap2\n      pop\n      pop\n      jump\t// out\n        /* \"#utility.yul\":11526:11874   */\n    tag_37:\n        /* \"#utility.yul\":11566:11573   */\n      0x00\n        /* \"#utility.yul\":11589:11609   */\n      tag_224\n        /* \"#utility.yul\":11607:11608   */\n      dup3\n        /* \"#utility.yul\":11589:11609   */\n      tag_186\n      jump\t// in\n    tag_224:\n        /* \"#utility.yul\":11584:11609   */\n      swap2\n      pop\n        /* \"#utility.yul\":11623:11643   */\n      tag_225\n        /* \"#utility.yul\":11641:11642   */\n      dup4\n        /* \"#utility.yul\":11623:11643   */\n      tag_186\n      jump\t// in\n    tag_225:\n        /* \"#utility.yul\":11618:11643   */\n      swap3\n      pop\n        /* \"#utility.yul\":11811:11812   */\n      dup2\n        /* \"#utility.yul\":11743:11809   */\n      0xffffffffffffffffffffffffffffffffffffffffffffffffffffffffffffffff\n        /* \"#utility.yul\":11739:11813   */\n      div\n        /* \"#utility.yul\":11736:11737   */\n      dup4\n        /* \"#utility.yul\":11733:11814   */\n      gt\n        /* \"#utility.yul\":11728:11729   */\n      dup3\n        /* \"#utility.yul\":11721:11730   */\n      iszero\n        /* \"#utility.yul\":11714:11731   */\n      iszero\n        /* \"#utility.yul\":11710:11815   */\n      and\n        /* \"#utility.yul\":11707:11838   */\n      iszero\n      tag_226\n      jumpi\n        /* \"#utility.yul\":11818:11836   */\n      tag_227\n      tag_216\n      jump\t// in\n    tag_227:\n        /* \"#utility.yul\":11707:11838   */\n    tag_226:\n        /* \"#utility.yul\":11866:11867   */\n      dup3\n        /* \"#utility.yul\":11863:11864   */\n      dup3\n        /* \"#utility.yul\":11859:11868   */\n      mul\n        /* \"#utility.yul\":11848:11868   */\n      swap1\n      pop\n        /* \"#utility.yul\":11526:11874   */\n      swap3\n      swap2\n      pop\n      pop\n      jump\t// out\n        /* \"#utility.yul\":11880:11976   */\n    tag_155:\n        /* \"#utility.yul\":11917:11924   */\n      0x00\n        /* \"#utility.yul\":11946:11970   */\n      tag_229\n        /* \"#utility.yul\":11964:11969   */\n      dup3\n        /* \"#utility.yul\":11946:11970   */\n      tag_230\n      jump\t// in\n    tag_229:\n        /* \"#utility.yul\":11935:11970   */\n      swap1\n      pop\n        /* \"#utility.yul\":11880:11976   */\n      swap2\n      swap1\n      pop\n      jump\t// out\n        /* \"#utility.yul\":11982:12104   */\n    tag_231:\n        /* \"#utility.yul\":12045:12052   */\n      0x00\n        /* \"#utility.yul\":12074:12098   */\n      tag_233\n        /* \"#utility.yul\":12092:12097   */\n      dup3\n        /* \"#utility.yul\":12074:12098   */\n      tag_155\n      jump\t// in\n    tag_233:\n        /* \"#utility.yul\":12063:12098   */\n      swap1\n      pop\n        /* \"#utility.yul\":11982:12104   */\n      swap2\n      swap1\n      pop\n      jump\t// out\n        /* \"#utility.yul\":12110:12236   */\n    tag_230:\n        /* \"#utility.yul\":12147:12154   */\n      0x00\n        /* \"#utility.yul\":12187:12229   */\n      0xffffffffffffffffffffffffffffffffffffffff\n        /* \"#utility.yul\":12180:12185   */\n      dup3\n        /* \"#utility.yul\":12176:12230   */\n      and\n        /* \"#utility.yul\":12165:12230   */\n      swap1\n      pop\n        /* \"#utility.yul\":12110:12236   */\n      swap2\n      swap1\n      pop\n      jump\t// out\n        /* \"#utility.yul\":12242:12319   */\n    tag_186:\n        /* \"#utility.yul\":12279:12286   */\n      0x00\n        /* \"#utility.yul\":12308:12313   */\n      dup2\n        /* \"#utility.yul\":12297:12313   */\n      swap1\n      pop\n        /* \"#utility.yul\":12242:12319   */\n      swap2\n      swap1\n      pop\n      jump\t// out\n        /* \"#utility.yul\":12325:12446   */\n    tag_176:\n        /* \"#utility.yul\":12383:12392   */\n      0x00\n        /* \"#utility.yul\":12416:12440   */\n      tag_237\n        /* \"#utility.yul\":12434:12439   */\n      dup3\n        /* \"#utility.yul\":12416:12440   */\n      tag_186\n      jump\t// in\n    tag_237:\n        /* \"#utility.yul\":12403:12440   */\n      swap1\n      pop\n        /* \"#utility.yul\":12325:12446   */\n      swap2\n      swap1\n      pop\n      jump\t// out\n        /* \"#utility.yul\":12452:12733   */\n    tag_198:\n        /* \"#utility.yul\":12535:12562   */\n      tag_239\n        /* \"#utility.yul\":12557:12561   */\n      dup3\n        /* \"#utility.yul\":12535:12562   */\n      tag_240\n      jump\t// in\n    tag_239:\n        /* \"#utility.yul\":12527:12533   */\n      dup2\n        /* \"#utility.yul\":12523:12563   */\n      add\n        /* \"#utility.yul\":12665:12671   */\n      dup2\n        /* \"#utility.yul\":12653:12663   */\n      dup2\n        /* \"#utility.yul\":12650:12672   */\n      lt\n        /* \"#utility.yul\":12629:12647   */\n      0xffffffffffffffff\n        /* \"#utility.yul\":12617:12627   */\n      dup3\n        /* \"#utility.yul\":12614:12648   */\n      gt\n        /* \"#utility.yul\":12611:12673   */\n      or\n        /* \"#utility.yul\":12608:12696   */\n      iszero\n      tag_241\n      jumpi\n        /* \"#utility.yul\":12676:12694   */\n      tag_242\n      tag_25\n      jump\t// in\n    tag_242:\n        /* \"#utility.yul\":12608:12696   */\n    tag_241:\n        /* \"#utility.yul\":12716:12726   */\n      dup1\n        /* \"#utility.yul\":12712:12714   */\n      0x40\n        /* \"#utility.yul\":12705:12727   */\n      mstore\n        /* \"#utility.yul\":12495:12733   */\n      pop\n        /* \"#utility.yul\":12452:12733   */\n      pop\n      pop\n      jump\t// out\n        /* \"#utility.yul\":12739:12972   */\n    tag_50:\n        /* \"#utility.yul\":12778:12781   */\n      0x00\n        /* \"#utility.yul\":12801:12825   */\n      tag_244\n        /* \"#utility.yul\":12819:12824   */\n      dup3\n        /* \"#utility.yul\":12801:12825   */\n      tag_186\n      jump\t// in\n    tag_244:\n        /* \"#utility.yul\":12792:12825   */\n      swap2\n      pop\n        /* \"#utility.yul\":12847:12913   */\n      0xffffffffffffffffffffffffffffffffffffffffffffffffffffffffffffffff\n        /* \"#utility.yul\":12840:12845   */\n      dup3\n        /* \"#utility.yul\":12837:12914   */\n      eq\n        /* \"#utility.yul\":12834:12937   */\n      iszero\n      tag_245\n      jumpi\n        /* \"#utility.yul\":12917:12935   */\n      tag_246\n      tag_216\n      jump\t// in\n    tag_246:\n        /* \"#utility.yul\":12834:12937   */\n    tag_245:\n        /* \"#utility.yul\":12964:12965   */\n      0x01\n        /* \"#utility.yul\":12957:12962   */\n      dup3\n        /* \"#utility.yul\":12953:12966   */\n      add\n        /* \"#utility.yul\":12946:12966   */\n      swap1\n      pop\n        /* \"#utility.yul\":12739:12972   */\n      swap2\n      swap1\n      pop\n      jump\t// out\n        /* \"#utility.yul\":12978:13158   */\n    tag_216:\n        /* \"#utility.yul\":13026:13103   */\n      0x4e487b7100000000000000000000000000000000000000000000000000000000\n        /* \"#utility.yul\":13023:13024   */\n      0x00\n        /* \"#utility.yul\":13016:13104   */\n      mstore\n        /* \"#utility.yul\":13123:13127   */\n      0x11\n        /* \"#utility.yul\":13120:13121   */\n      0x04\n        /* \"#utility.yul\":13113:13128   */\n      mstore\n        /* \"#utility.yul\":13147:13151   */\n      0x24\n        /* \"#utility.yul\":13144:13145   */\n      0x00\n        /* \"#utility.yul\":13137:13152   */\n      revert\n        /* \"#utility.yul\":13164:13344   */\n    tag_222:\n        /* \"#utility.yul\":13212:13289   */\n      0x4e487b7100000000000000000000000000000000000000000000000000000000\n        /* \"#utility.yul\":13209:13210   */\n      0x00\n        /* \"#utility.yul\":13202:13290   */\n      mstore\n        /* \"#utility.yul\":13309:13313   */\n      0x12\n        /* \"#utility.yul\":13306:13307   */\n      0x04\n        /* \"#utility.yul\":13299:13314   */\n      mstore\n        /* \"#utility.yul\":13333:13337   */\n      0x24\n        /* \"#utility.yul\":13330:13331   */\n      0x00\n        /* \"#utility.yul\":13323:13338   */\n      revert\n        /* \"#utility.yul\":13350:13530   */\n    tag_29:\n        /* \"#utility.yul\":13398:13475   */\n      0x4e487b7100000000000000000000000000000000000000000000000000000000\n        /* \"#utility.yul\":13395:13396   */\n      0x00\n        /* \"#utility.yul\":13388:13476   */\n      mstore\n        /* \"#utility.yul\":13495:13499   */\n      0x32\n        /* \"#utility.yul\":13492:13493   */\n      0x04\n        /* \"#utility.yul\":13485:13500   */\n      mstore\n        /* \"#utility.yul\":13519:13523   */\n      0x24\n        /* \"#utility.yul\":13516:13517   */\n      0x00\n        /* \"#utility.yul\":13509:13524   */\n      revert\n        /* \"#utility.yul\":13536:13716   */\n    tag_25:\n        /* \"#utility.yul\":13584:13661   */\n      0x4e487b7100000000000000000000000000000000000000000000000000000000\n        /* \"#utility.yul\":13581:13582   */\n      0x00\n        /* \"#utility.yul\":13574:13662   */\n      mstore\n        /* \"#utility.yul\":13681:13685   */\n      0x41\n        /* \"#utility.yul\":13678:13679   */\n      0x04\n        /* \"#utility.yul\":13671:13686   */\n      mstore\n        /* \"#utility.yul\":13705:13709   */\n      0x24\n        /* \"#utility.yul\":13702:13703   */\n      0x00\n        /* \"#utility.yul\":13695:13710   */\n      revert\n        /* \"#utility.yul\":13722:13839   */\n    tag_103:\n        /* \"#utility.yul\":13831:13832   */\n      0x00\n        /* \"#utility.yul\":13828:13829   */\n      dup1\n        /* \"#utility.yul\":13821:13833   */\n      revert\n        /* \"#utility.yul\":13845:13962   */\n    tag_67:\n        /* \"#utility.yul\":13954:13955   */\n      0x00\n        /* \"#utility.yul\":13951:13952   */\n      dup1\n        /* \"#utility.yul\":13944:13956   */\n      revert\n        /* \"#utility.yul\":13968:14085   */\n    tag_130:\n        /* \"#utility.yul\":14077:14078   */\n      0x00\n        /* \"#utility.yul\":14074:14075   */\n      dup1\n        /* \"#utility.yul\":14067:14079   */\n      revert\n        /* \"#utility.yul\":14091:14208   */\n    tag_127:\n        /* \"#utility.yul\":14200:14201   */\n      0x00\n        /* \"#utility.yul\":14197:14198   */\n      dup1\n        /* \"#utility.yul\":14190:14202   */\n      revert\n        /* \"#utility.yul\":14214:14316   */\n    tag_240:\n        /* \"#utility.yul\":14255:14261   */\n      0x00\n        /* \"#utility.yul\":14306:14308   */\n      0x1f\n        /* \"#utility.yul\":14302:14309   */\n      not\n        /* \"#utility.yul\":14297:14299   */\n      0x1f\n        /* \"#utility.yul\":14290:14295   */\n      dup4\n        /* \"#utility.yul\":14286:14300   */\n      add\n        /* \"#utility.yul\":14282:14310   */\n      and\n        /* \"#utility.yul\":14272:14310   */\n      swap1\n      pop\n        /* \"#utility.yul\":14214:14316   */\n      swap2\n      swap1\n      pop\n      jump\t// out\n        /* \"#utility.yul\":14322:14486   */\n    tag_182:\n        /* \"#utility.yul\":14462:14478   */\n      0x496e76616c6964204d6174696321000000000000000000000000000000000000\n        /* \"#utility.yul\":14458:14459   */\n      0x00\n        /* \"#utility.yul\":14450:14456   */\n      dup3\n        /* \"#utility.yul\":14446:14460   */\n      add\n        /* \"#utility.yul\":14439:14479   */\n      mstore\n        /* \"#utility.yul\":14322:14486   */\n      pop\n      jump\t// out\n        /* \"#utility.yul\":14492:14614   */\n    tag_98:\n        /* \"#utility.yul\":14565:14589   */\n      tag_258\n        /* \"#utility.yul\":14583:14588   */\n      dup2\n        /* \"#utility.yul\":14565:14589   */\n      tag_155\n      jump\t// in\n    tag_258:\n        /* \"#utility.yul\":14558:14563   */\n      dup2\n        /* \"#utility.yul\":14555:14590   */\n      eq\n        /* \"#utility.yul\":14545:14608   */\n      tag_259\n      jumpi\n        /* \"#utility.yul\":14604:14605   */\n      0x00\n        /* \"#utility.yul\":14601:14602   */\n      dup1\n        /* \"#utility.yul\":14594:14606   */\n      revert\n        /* \"#utility.yul\":14545:14608   */\n    tag_259:\n        /* \"#utility.yul\":14492:14614   */\n      pop\n      jump\t// out\n        /* \"#utility.yul\":14620:14794   */\n    tag_118:\n        /* \"#utility.yul\":14719:14769   */\n      tag_261\n        /* \"#utility.yul\":14763:14768   */\n      dup2\n        /* \"#utility.yul\":14719:14769   */\n      tag_231\n      jump\t// in\n    tag_261:\n        /* \"#utility.yul\":14712:14717   */\n      dup2\n        /* \"#utility.yul\":14709:14770   */\n      eq\n        /* \"#utility.yul\":14699:14788   */\n      tag_262\n      jumpi\n        /* \"#utility.yul\":14784:14785   */\n      0x00\n        /* \"#utility.yul\":14781:14782   */\n      dup1\n        /* \"#utility.yul\":14774:14786   */\n      revert\n        /* \"#utility.yul\":14699:14788   */\n    tag_262:\n        /* \"#utility.yul\":14620:14794   */\n      pop\n      jump\t// out\n        /* \"#utility.yul\":14800:14922   */\n    tag_121:\n        /* \"#utility.yul\":14873:14897   */\n      tag_264\n        /* \"#utility.yul\":14891:14896   */\n      dup2\n        /* \"#utility.yul\":14873:14897   */\n      tag_186\n      jump\t// in\n    tag_264:\n        /* \"#utility.yul\":14866:14871   */\n      dup2\n        /* \"#utility.yul\":14863:14898   */\n      eq\n        /* \"#utility.yul\":14853:14916   */\n      tag_265\n      jumpi\n        /* \"#utility.yul\":14912:14913   */\n      0x00\n        /* \"#utility.yul\":14909:14910   */\n      dup1\n        /* \"#utility.yul\":14902:14914   */\n      revert\n        /* \"#utility.yul\":14853:14916   */\n    tag_265:\n        /* \"#utility.yul\":14800:14922   */\n      pop\n      jump\t// out\n\n    auxdata: 0xa26469706673582212206d2964fcb18df378df4f15b93e156c3f4d0d2c44d04f6af0c5061a24be165fae64736f6c63430008070033\n}\n",
				"bytecode": {
					"linkReferences": {},
					"object": "608060405234801561001057600080fd5b50610d01806100206000396000f3fe6080604052600436106100295760003560e01c806390482d721461002e5780639728d85f14610057575b600080fd5b34801561003a57600080fd5b5061005560048036038101906100509190610701565b610073565b005b610071600480360381019061006c9190610689565b610111565b005b82600190805190602001906100899291906103b4565b5081600260006101000a81548173ffffffffffffffffffffffffffffffffffffffff021916908373ffffffffffffffffffffffffffffffffffffffff16021790555080600360006101000a81548173ffffffffffffffffffffffffffffffffffffffff021916908373ffffffffffffffffffffffffffffffffffffffff160217905550505050565b6000825190506000341161015a576040517f08c379a0000000000000000000000000000000000000000000000000000000008152600401610151906108da565b60405180910390fd5b60005b818110156103ae576000600267ffffffffffffffff81111561018257610181610c09565b5b6040519080825280602002602001820160405280156101b05781602001602082028036833780820191505090505b509050600360009054906101000a900473ffffffffffffffffffffffffffffffffffffffff16816000815181106101ea576101e9610bda565b5b602002602001019073ffffffffffffffffffffffffffffffffffffffff16908173ffffffffffffffffffffffffffffffffffffffff168152505084828151811061023757610236610bda565b5b60200260200101518160018151811061025357610252610bda565b5b602002602001019073ffffffffffffffffffffffffffffffffffffffff16908173ffffffffffffffffffffffffffffffffffffffff168152505060006127108584815181106102a5576102a4610bda565b5b6020026020010151346102b89190610a48565b6102c29190610a17565b9050600260009054906101000a905050600260009054906101000a900473ffffffffffffffffffffffffffffffffffffffff1673ffffffffffffffffffffffffffffffffffffffff16637ff36ab560008433610e104261032291906109c1565b6040518563ffffffff1660e01b8152600401610341949392919061088e565b600060405180830381600087803b15801561035b57600080fd5b505af115801561036f573d6000803e3d6000fd5b505050506040513d6000823e3d601f19601f820116820180604052508101906103989190610770565b50505080806103a690610b33565b91505061015d565b50505050565b82805482825590600052602060002090810192821561042d579160200282015b8281111561042c5782518260006101000a81548173ffffffffffffffffffffffffffffffffffffffff021916908373ffffffffffffffffffffffffffffffffffffffff160217905550916020019190600101906103d4565b5b50905061043a919061043e565b5090565b5b8082111561045757600081600090555060010161043f565b5090565b600061046e6104698461091f565b6108fa565b9050808382526020820190508285602086028201111561049157610490610c3d565b5b60005b858110156104c157816104a788826105ab565b845260208401935060208301925050600181019050610494565b5050509392505050565b60006104de6104d98461094b565b6108fa565b9050808382526020820190508285602086028201111561050157610500610c3d565b5b60005b858110156105315781610517888261065f565b845260208401935060208301925050600181019050610504565b5050509392505050565b600061054e6105498461094b565b6108fa565b9050808382526020820190508285602086028201111561057157610570610c3d565b5b60005b858110156105a157816105878882610674565b845260208401935060208301925050600181019050610574565b5050509392505050565b6000813590506105ba81610c86565b92915050565b600082601f8301126105d5576105d4610c38565b5b81356105e584826020860161045b565b91505092915050565b600082601f83011261060357610602610c38565b5b81356106138482602086016104cb565b91505092915050565b600082601f83011261063157610630610c38565b5b815161064184826020860161053b565b91505092915050565b60008135905061065981610c9d565b92915050565b60008135905061066e81610cb4565b92915050565b60008151905061068381610cb4565b92915050565b600080604083850312156106a05761069f610c47565b5b600083013567ffffffffffffffff8111156106be576106bd610c42565b5b6106ca858286016105c0565b925050602083013567ffffffffffffffff8111156106eb576106ea610c42565b5b6106f7858286016105ee565b9150509250929050565b60008060006060848603121561071a57610719610c47565b5b600084013567ffffffffffffffff81111561073857610737610c42565b5b610744868287016105c0565b93505060206107558682870161064a565b9250506040610766868287016105ab565b9150509250925092565b60006020828403121561078657610785610c47565b5b600082015167ffffffffffffffff8111156107a4576107a3610c42565b5b6107b08482850161061c565b91505092915050565b60006107c583836107d1565b60208301905092915050565b6107da81610aa2565b82525050565b6107e981610aa2565b82525050565b60006107fa82610987565b610804818561099f565b935061080f83610977565b8060005b8381101561084057815161082788826107b9565b975061083283610992565b925050600181019050610813565b5085935050505092915050565b61085681610af0565b82525050565b6000610869600e836109b0565b915061087482610c5d565b602082019050919050565b61088881610ae6565b82525050565b60006080820190506108a3600083018761084d565b81810360208301526108b581866107ef565b90506108c460408301856107e0565b6108d1606083018461087f565b95945050505050565b600060208201905081810360008301526108f38161085c565b9050919050565b6000610904610915565b90506109108282610b02565b919050565b6000604051905090565b600067ffffffffffffffff82111561093a57610939610c09565b5b602082029050602081019050919050565b600067ffffffffffffffff82111561096657610965610c09565b5b602082029050602081019050919050565b6000819050602082019050919050565b600081519050919050565b6000602082019050919050565b600082825260208201905092915050565b600082825260208201905092915050565b60006109cc82610ae6565b91506109d783610ae6565b9250827fffffffffffffffffffffffffffffffffffffffffffffffffffffffffffffffff03821115610a0c57610a0b610b7c565b5b828201905092915050565b6000610a2282610ae6565b9150610a2d83610ae6565b925082610a3d57610a3c610bab565b5b828204905092915050565b6000610a5382610ae6565b9150610a5e83610ae6565b9250817fffffffffffffffffffffffffffffffffffffffffffffffffffffffffffffffff0483118215151615610a9757610a96610b7c565b5b828202905092915050565b6000610aad82610ac6565b9050919050565b6000610abf82610aa2565b9050919050565b600073ffffffffffffffffffffffffffffffffffffffff82169050919050565b6000819050919050565b6000610afb82610ae6565b9050919050565b610b0b82610c4c565b810181811067ffffffffffffffff82111715610b2a57610b29610c09565b5b80604052505050565b6000610b3e82610ae6565b91507fffffffffffffffffffffffffffffffffffffffffffffffffffffffffffffffff821415610b7157610b70610b7c565b5b600182019050919050565b7f4e487b7100000000000000000000000000000000000000000000000000000000600052601160045260246000fd5b7f4e487b7100000000000000000000000000000000000000000000000000000000600052601260045260246000fd5b7f4e487b7100000000000000000000000000000000000000000000000000000000600052603260045260246000fd5b7f4e487b7100000000000000000000000000000000000000000000000000000000600052604160045260246000fd5b600080fd5b600080fd5b600080fd5b600080fd5b6000601f19601f8301169050919050565b7f496e76616c6964204d6174696321000000000000000000000000000000000000600082015250565b610c8f81610aa2565b8114610c9a57600080fd5b50565b610ca681610ab4565b8114610cb157600080fd5b50565b610cbd81610ae6565b8114610cc857600080fd5b5056fea26469706673582212206d2964fcb18df378df4f15b93e156c3f4d0d2c44d04f6af0c5061a24be165fae64736f6c63430008070033",
					"opcodes": "PUSH1 0x80 PUSH1 0x40 MSTORE CALLVALUE DUP1 ISZERO PUSH2 0x10 JUMPI PUSH1 0x0 DUP1 REVERT JUMPDEST POP PUSH2 0xD01 DUP1 PUSH2 0x20 PUSH1 0x0 CODECOPY PUSH1 0x0 RETURN INVALID PUSH1 0x80 PUSH1 0x40 MSTORE PUSH1 0x4 CALLDATASIZE LT PUSH2 0x29 JUMPI PUSH1 0x0 CALLDATALOAD PUSH1 0xE0 SHR DUP1 PUSH4 0x90482D72 EQ PUSH2 0x2E JUMPI DUP1 PUSH4 0x9728D85F EQ PUSH2 0x57 JUMPI JUMPDEST PUSH1 0x0 DUP1 REVERT JUMPDEST CALLVALUE DUP1 ISZERO PUSH2 0x3A JUMPI PUSH1 0x0 DUP1 REVERT JUMPDEST POP PUSH2 0x55 PUSH1 0x4 DUP1 CALLDATASIZE SUB DUP2 ADD SWAP1 PUSH2 0x50 SWAP2 SWAP1 PUSH2 0x701 JUMP JUMPDEST PUSH2 0x73 JUMP JUMPDEST STOP JUMPDEST PUSH2 0x71 PUSH1 0x4 DUP1 CALLDATASIZE SUB DUP2 ADD SWAP1 PUSH2 0x6C SWAP2 SWAP1 PUSH2 0x689 JUMP JUMPDEST PUSH2 0x111 JUMP JUMPDEST STOP JUMPDEST DUP3 PUSH1 0x1 SWAP1 DUP1 MLOAD SWAP1 PUSH1 0x20 ADD SWAP1 PUSH2 0x89 SWAP3 SWAP2 SWAP1 PUSH2 0x3B4 JUMP JUMPDEST POP DUP2 PUSH1 0x2 PUSH1 0x0 PUSH2 0x100 EXP DUP2 SLOAD DUP2 PUSH20 0xFFFFFFFFFFFFFFFFFFFFFFFFFFFFFFFFFFFFFFFF MUL NOT AND SWAP1 DUP4 PUSH20 0xFFFFFFFFFFFFFFFFFFFFFFFFFFFFFFFFFFFFFFFF AND MUL OR SWAP1 SSTORE POP DUP1 PUSH1 0x3 PUSH1 0x0 PUSH2 0x100 EXP DUP2 SLOAD DUP2 PUSH20 0xFFFFFFFFFFFFFFFFFFFFFFFFFFFFFFFFFFFFFFFF MUL NOT AND SWAP1 DUP4 PUSH20 0xFFFFFFFFFFFFFFFFFFFFFFFFFFFFFFFFFFFFFFFF AND MUL OR SWAP1 SSTORE POP POP POP POP JUMP JUMPDEST PUSH1 0x0 DUP3 MLOAD SWAP1 POP PUSH1 0x0 CALLVALUE GT PUSH2 0x15A JUMPI PUSH1 0x40 MLOAD PUSH32 0x8C379A000000000000000000000000000000000000000000000000000000000 DUP2 MSTORE PUSH1 0x4 ADD PUSH2 0x151 SWAP1 PUSH2 0x8DA JUMP JUMPDEST PUSH1 0x40 MLOAD DUP1 SWAP2 SUB SWAP1 REVERT JUMPDEST PUSH1 0x0 JUMPDEST DUP2 DUP2 LT ISZERO PUSH2 0x3AE JUMPI PUSH1 0x0 PUSH1 0x2 PUSH8 0xFFFFFFFFFFFFFFFF DUP2 GT ISZERO PUSH2 0x182 JUMPI PUSH2 0x181 PUSH2 0xC09 JUMP JUMPDEST JUMPDEST PUSH1 0x40 MLOAD SWAP1 DUP1 DUP3 MSTORE DUP1 PUSH1 0x20 MUL PUSH1 0x20 ADD DUP3 ADD PUSH1 0x40 MSTORE DUP1 ISZERO PUSH2 0x1B0 JUMPI DUP2 PUSH1 0x20 ADD PUSH1 0x20 DUP3 MUL DUP1 CALLDATASIZE DUP4 CALLDATACOPY DUP1 DUP3 ADD SWAP2 POP POP SWAP1 POP JUMPDEST POP SWAP1 POP PUSH1 0x3 PUSH1 0x0 SWAP1 SLOAD SWAP1 PUSH2 0x100 EXP SWAP1 DIV PUSH20 0xFFFFFFFFFFFFFFFFFFFFFFFFFFFFFFFFFFFFFFFF AND DUP2 PUSH1 0x0 DUP2 MLOAD DUP2 LT PUSH2 0x1EA JUMPI PUSH2 0x1E9 PUSH2 0xBDA JUMP JUMPDEST JUMPDEST PUSH1 0x20 MUL PUSH1 0x20 ADD ADD SWAP1 PUSH20 0xFFFFFFFFFFFFFFFFFFFFFFFFFFFFFFFFFFFFFFFF AND SWAP1 DUP2 PUSH20 0xFFFFFFFFFFFFFFFFFFFFFFFFFFFFFFFFFFFFFFFF AND DUP2 MSTORE POP POP DUP5 DUP3 DUP2 MLOAD DUP2 LT PUSH2 0x237 JUMPI PUSH2 0x236 PUSH2 0xBDA JUMP JUMPDEST JUMPDEST PUSH1 0x20 MUL PUSH1 0x20 ADD ADD MLOAD DUP2 PUSH1 0x1 DUP2 MLOAD DUP2 LT PUSH2 0x253 JUMPI PUSH2 0x252 PUSH2 0xBDA JUMP JUMPDEST JUMPDEST PUSH1 0x20 MUL PUSH1 0x20 ADD ADD SWAP1 PUSH20 0xFFFFFFFFFFFFFFFFFFFFFFFFFFFFFFFFFFFFFFFF AND SWAP1 DUP2 PUSH20 0xFFFFFFFFFFFFFFFFFFFFFFFFFFFFFFFFFFFFFFFF AND DUP2 MSTORE POP POP PUSH1 0x0 PUSH2 0x2710 DUP6 DUP5 DUP2 MLOAD DUP2 LT PUSH2 0x2A5 JUMPI PUSH2 0x2A4 PUSH2 0xBDA JUMP JUMPDEST JUMPDEST PUSH1 0x20 MUL PUSH1 0x20 ADD ADD MLOAD CALLVALUE PUSH2 0x2B8 SWAP2 SWAP1 PUSH2 0xA48 JUMP JUMPDEST PUSH2 0x2C2 SWAP2 SWAP1 PUSH2 0xA17 JUMP JUMPDEST SWAP1 POP PUSH1 0x2 PUSH1 0x0 SWAP1 SLOAD SWAP1 PUSH2 0x100 EXP SWAP1 POP POP PUSH1 0x2 PUSH1 0x0 SWAP1 SLOAD SWAP1 PUSH2 0x100 EXP SWAP1 DIV PUSH20 0xFFFFFFFFFFFFFFFFFFFFFFFFFFFFFFFFFFFFFFFF AND PUSH20 0xFFFFFFFFFFFFFFFFFFFFFFFFFFFFFFFFFFFFFFFF AND PUSH4 0x7FF36AB5 PUSH1 0x0 DUP5 CALLER PUSH2 0xE10 TIMESTAMP PUSH2 0x322 SWAP2 SWAP1 PUSH2 0x9C1 JUMP JUMPDEST PUSH1 0x40 MLOAD DUP6 PUSH4 0xFFFFFFFF AND PUSH1 0xE0 SHL DUP2 MSTORE PUSH1 0x4 ADD PUSH2 0x341 SWAP5 SWAP4 SWAP3 SWAP2 SWAP1 PUSH2 0x88E JUMP JUMPDEST PUSH1 0x0 PUSH1 0x40 MLOAD DUP1 DUP4 SUB DUP2 PUSH1 0x0 DUP8 DUP1 EXTCODESIZE ISZERO DUP1 ISZERO PUSH2 0x35B JUMPI PUSH1 0x0 DUP1 REVERT JUMPDEST POP GAS CALL ISZERO DUP1 ISZERO PUSH2 0x36F JUMPI RETURNDATASIZE PUSH1 0x0 DUP1 RETURNDATACOPY RETURNDATASIZE PUSH1 0x0 REVERT JUMPDEST POP POP POP POP PUSH1 0x40 MLOAD RETURNDATASIZE PUSH1 0x0 DUP3 RETURNDATACOPY RETURNDATASIZE PUSH1 0x1F NOT PUSH1 0x1F DUP3 ADD AND DUP3 ADD DUP1 PUSH1 0x40 MSTORE POP DUP2 ADD SWAP1 PUSH2 0x398 SWAP2 SWAP1 PUSH2 0x770 JUMP JUMPDEST POP POP POP DUP1 DUP1 PUSH2 0x3A6 SWAP1 PUSH2 0xB33 JUMP JUMPDEST SWAP2 POP POP PUSH2 0x15D JUMP JUMPDEST POP POP POP POP JUMP JUMPDEST DUP3 DUP1 SLOAD DUP3 DUP3 SSTORE SWAP1 PUSH1 0x0 MSTORE PUSH1 0x20 PUSH1 0x0 KECCAK256 SWAP1 DUP2 ADD SWAP3 DUP3 ISZERO PUSH2 0x42D JUMPI SWAP2 PUSH1 0x20 MUL DUP3 ADD JUMPDEST DUP3 DUP2 GT ISZERO PUSH2 0x42C JUMPI DUP3 MLOAD DUP3 PUSH1 0x0 PUSH2 0x100 EXP DUP2 SLOAD DUP2 PUSH20 0xFFFFFFFFFFFFFFFFFFFFFFFFFFFFFFFFFFFFFFFF MUL NOT AND SWAP1 DUP4 PUSH20 0xFFFFFFFFFFFFFFFFFFFFFFFFFFFFFFFFFFFFFFFF AND MUL OR SWAP1 SSTORE POP SWAP2 PUSH1 0x20 ADD SWAP2 SWAP1 PUSH1 0x1 ADD SWAP1 PUSH2 0x3D4 JUMP JUMPDEST JUMPDEST POP SWAP1 POP PUSH2 0x43A SWAP2 SWAP1 PUSH2 0x43E JUMP JUMPDEST POP SWAP1 JUMP JUMPDEST JUMPDEST DUP1 DUP3 GT ISZERO PUSH2 0x457 JUMPI PUSH1 0x0 DUP2 PUSH1 0x0 SWAP1 SSTORE POP PUSH1 0x1 ADD PUSH2 0x43F JUMP JUMPDEST POP SWAP1 JUMP JUMPDEST PUSH1 0x0 PUSH2 0x46E PUSH2 0x469 DUP5 PUSH2 0x91F JUMP JUMPDEST PUSH2 0x8FA JUMP JUMPDEST SWAP1 POP DUP1 DUP4 DUP3 MSTORE PUSH1 0x20 DUP3 ADD SWAP1 POP DUP3 DUP6 PUSH1 0x20 DUP7 MUL DUP3 ADD GT ISZERO PUSH2 0x491 JUMPI PUSH2 0x490 PUSH2 0xC3D JUMP JUMPDEST JUMPDEST PUSH1 0x0 JUMPDEST DUP6 DUP2 LT ISZERO PUSH2 0x4C1 JUMPI DUP2 PUSH2 0x4A7 DUP9 DUP3 PUSH2 0x5AB JUMP JUMPDEST DUP5 MSTORE PUSH1 0x20 DUP5 ADD SWAP4 POP PUSH1 0x20 DUP4 ADD SWAP3 POP POP PUSH1 0x1 DUP2 ADD SWAP1 POP PUSH2 0x494 JUMP JUMPDEST POP POP POP SWAP4 SWAP3 POP POP POP JUMP JUMPDEST PUSH1 0x0 PUSH2 0x4DE PUSH2 0x4D9 DUP5 PUSH2 0x94B JUMP JUMPDEST PUSH2 0x8FA JUMP JUMPDEST SWAP1 POP DUP1 DUP4 DUP3 MSTORE PUSH1 0x20 DUP3 ADD SWAP1 POP DUP3 DUP6 PUSH1 0x20 DUP7 MUL DUP3 ADD GT ISZERO PUSH2 0x501 JUMPI PUSH2 0x500 PUSH2 0xC3D JUMP JUMPDEST JUMPDEST PUSH1 0x0 JUMPDEST DUP6 DUP2 LT ISZERO PUSH2 0x531 JUMPI DUP2 PUSH2 0x517 DUP9 DUP3 PUSH2 0x65F JUMP JUMPDEST DUP5 MSTORE PUSH1 0x20 DUP5 ADD SWAP4 POP PUSH1 0x20 DUP4 ADD SWAP3 POP POP PUSH1 0x1 DUP2 ADD SWAP1 POP PUSH2 0x504 JUMP JUMPDEST POP POP POP SWAP4 SWAP3 POP POP POP JUMP JUMPDEST PUSH1 0x0 PUSH2 0x54E PUSH2 0x549 DUP5 PUSH2 0x94B JUMP JUMPDEST PUSH2 0x8FA JUMP JUMPDEST SWAP1 POP DUP1 DUP4 DUP3 MSTORE PUSH1 0x20 DUP3 ADD SWAP1 POP DUP3 DUP6 PUSH1 0x20 DUP7 MUL DUP3 ADD GT ISZERO PUSH2 0x571 JUMPI PUSH2 0x570 PUSH2 0xC3D JUMP JUMPDEST JUMPDEST PUSH1 0x0 JUMPDEST DUP6 DUP2 LT ISZERO PUSH2 0x5A1 JUMPI DUP2 PUSH2 0x587 DUP9 DUP3 PUSH2 0x674 JUMP JUMPDEST DUP5 MSTORE PUSH1 0x20 DUP5 ADD SWAP4 POP PUSH1 0x20 DUP4 ADD SWAP3 POP POP PUSH1 0x1 DUP2 ADD SWAP1 POP PUSH2 0x574 JUMP JUMPDEST POP POP POP SWAP4 SWAP3 POP POP POP JUMP JUMPDEST PUSH1 0x0 DUP2 CALLDATALOAD SWAP1 POP PUSH2 0x5BA DUP2 PUSH2 0xC86 JUMP JUMPDEST SWAP3 SWAP2 POP POP JUMP JUMPDEST PUSH1 0x0 DUP3 PUSH1 0x1F DUP4 ADD SLT PUSH2 0x5D5 JUMPI PUSH2 0x5D4 PUSH2 0xC38 JUMP JUMPDEST JUMPDEST DUP2 CALLDATALOAD PUSH2 0x5E5 DUP5 DUP3 PUSH1 0x20 DUP7 ADD PUSH2 0x45B JUMP JUMPDEST SWAP2 POP POP SWAP3 SWAP2 POP POP JUMP JUMPDEST PUSH1 0x0 DUP3 PUSH1 0x1F DUP4 ADD SLT PUSH2 0x603 JUMPI PUSH2 0x602 PUSH2 0xC38 JUMP JUMPDEST JUMPDEST DUP2 CALLDATALOAD PUSH2 0x613 DUP5 DUP3 PUSH1 0x20 DUP7 ADD PUSH2 0x4CB JUMP JUMPDEST SWAP2 POP POP SWAP3 SWAP2 POP POP JUMP JUMPDEST PUSH1 0x0 DUP3 PUSH1 0x1F DUP4 ADD SLT PUSH2 0x631 JUMPI PUSH2 0x630 PUSH2 0xC38 JUMP JUMPDEST JUMPDEST DUP2 MLOAD PUSH2 0x641 DUP5 DUP3 PUSH1 0x20 DUP7 ADD PUSH2 0x53B JUMP JUMPDEST SWAP2 POP POP SWAP3 SWAP2 POP POP JUMP JUMPDEST PUSH1 0x0 DUP2 CALLDATALOAD SWAP1 POP PUSH2 0x659 DUP2 PUSH2 0xC9D JUMP JUMPDEST SWAP3 SWAP2 POP POP JUMP JUMPDEST PUSH1 0x0 DUP2 CALLDATALOAD SWAP1 POP PUSH2 0x66E DUP2 PUSH2 0xCB4 JUMP JUMPDEST SWAP3 SWAP2 POP POP JUMP JUMPDEST PUSH1 0x0 DUP2 MLOAD SWAP1 POP PUSH2 0x683 DUP2 PUSH2 0xCB4 JUMP JUMPDEST SWAP3 SWAP2 POP POP JUMP JUMPDEST PUSH1 0x0 DUP1 PUSH1 0x40 DUP4 DUP6 SUB SLT ISZERO PUSH2 0x6A0 JUMPI PUSH2 0x69F PUSH2 0xC47 JUMP JUMPDEST JUMPDEST PUSH1 0x0 DUP4 ADD CALLDATALOAD PUSH8 0xFFFFFFFFFFFFFFFF DUP2 GT ISZERO PUSH2 0x6BE JUMPI PUSH2 0x6BD PUSH2 0xC42 JUMP JUMPDEST JUMPDEST PUSH2 0x6CA DUP6 DUP3 DUP7 ADD PUSH2 0x5C0 JUMP JUMPDEST SWAP3 POP POP PUSH1 0x20 DUP4 ADD CALLDATALOAD PUSH8 0xFFFFFFFFFFFFFFFF DUP2 GT ISZERO PUSH2 0x6EB JUMPI PUSH2 0x6EA PUSH2 0xC42 JUMP JUMPDEST JUMPDEST PUSH2 0x6F7 DUP6 DUP3 DUP7 ADD PUSH2 0x5EE JUMP JUMPDEST SWAP2 POP POP SWAP3 POP SWAP3 SWAP1 POP JUMP JUMPDEST PUSH1 0x0 DUP1 PUSH1 0x0 PUSH1 0x60 DUP5 DUP7 SUB SLT ISZERO PUSH2 0x71A JUMPI PUSH2 0x719 PUSH2 0xC47 JUMP JUMPDEST JUMPDEST PUSH1 0x0 DUP5 ADD CALLDATALOAD PUSH8 0xFFFFFFFFFFFFFFFF DUP2 GT ISZERO PUSH2 0x738 JUMPI PUSH2 0x737 PUSH2 0xC42 JUMP JUMPDEST JUMPDEST PUSH2 0x744 DUP7 DUP3 DUP8 ADD PUSH2 0x5C0 JUMP JUMPDEST SWAP4 POP POP PUSH1 0x20 PUSH2 0x755 DUP7 DUP3 DUP8 ADD PUSH2 0x64A JUMP JUMPDEST SWAP3 POP POP PUSH1 0x40 PUSH2 0x766 DUP7 DUP3 DUP8 ADD PUSH2 0x5AB JUMP JUMPDEST SWAP2 POP POP SWAP3 POP SWAP3 POP SWAP3 JUMP JUMPDEST PUSH1 0x0 PUSH1 0x20 DUP3 DUP5 SUB SLT ISZERO PUSH2 0x786 JUMPI PUSH2 0x785 PUSH2 0xC47 JUMP JUMPDEST JUMPDEST PUSH1 0x0 DUP3 ADD MLOAD PUSH8 0xFFFFFFFFFFFFFFFF DUP2 GT ISZERO PUSH2 0x7A4 JUMPI PUSH2 0x7A3 PUSH2 0xC42 JUMP JUMPDEST JUMPDEST PUSH2 0x7B0 DUP5 DUP3 DUP6 ADD PUSH2 0x61C JUMP JUMPDEST SWAP2 POP POP SWAP3 SWAP2 POP POP JUMP JUMPDEST PUSH1 0x0 PUSH2 0x7C5 DUP4 DUP4 PUSH2 0x7D1 JUMP JUMPDEST PUSH1 0x20 DUP4 ADD SWAP1 POP SWAP3 SWAP2 POP POP JUMP JUMPDEST PUSH2 0x7DA DUP2 PUSH2 0xAA2 JUMP JUMPDEST DUP3 MSTORE POP POP JUMP JUMPDEST PUSH2 0x7E9 DUP2 PUSH2 0xAA2 JUMP JUMPDEST DUP3 MSTORE POP POP JUMP JUMPDEST PUSH1 0x0 PUSH2 0x7FA DUP3 PUSH2 0x987 JUMP JUMPDEST PUSH2 0x804 DUP2 DUP6 PUSH2 0x99F JUMP JUMPDEST SWAP4 POP PUSH2 0x80F DUP4 PUSH2 0x977 JUMP JUMPDEST DUP1 PUSH1 0x0 JUMPDEST DUP4 DUP2 LT ISZERO PUSH2 0x840 JUMPI DUP2 MLOAD PUSH2 0x827 DUP9 DUP3 PUSH2 0x7B9 JUMP JUMPDEST SWAP8 POP PUSH2 0x832 DUP4 PUSH2 0x992 JUMP JUMPDEST SWAP3 POP POP PUSH1 0x1 DUP2 ADD SWAP1 POP PUSH2 0x813 JUMP JUMPDEST POP DUP6 SWAP4 POP POP POP POP SWAP3 SWAP2 POP POP JUMP JUMPDEST PUSH2 0x856 DUP2 PUSH2 0xAF0 JUMP JUMPDEST DUP3 MSTORE POP POP JUMP JUMPDEST PUSH1 0x0 PUSH2 0x869 PUSH1 0xE DUP4 PUSH2 0x9B0 JUMP JUMPDEST SWAP2 POP PUSH2 0x874 DUP3 PUSH2 0xC5D JUMP JUMPDEST PUSH1 0x20 DUP3 ADD SWAP1 POP SWAP2 SWAP1 POP JUMP JUMPDEST PUSH2 0x888 DUP2 PUSH2 0xAE6 JUMP JUMPDEST DUP3 MSTORE POP POP JUMP JUMPDEST PUSH1 0x0 PUSH1 0x80 DUP3 ADD SWAP1 POP PUSH2 0x8A3 PUSH1 0x0 DUP4 ADD DUP8 PUSH2 0x84D JUMP JUMPDEST DUP2 DUP2 SUB PUSH1 0x20 DUP4 ADD MSTORE PUSH2 0x8B5 DUP2 DUP7 PUSH2 0x7EF JUMP JUMPDEST SWAP1 POP PUSH2 0x8C4 PUSH1 0x40 DUP4 ADD DUP6 PUSH2 0x7E0 JUMP JUMPDEST PUSH2 0x8D1 PUSH1 0x60 DUP4 ADD DUP5 PUSH2 0x87F JUMP JUMPDEST SWAP6 SWAP5 POP POP POP POP POP JUMP JUMPDEST PUSH1 0x0 PUSH1 0x20 DUP3 ADD SWAP1 POP DUP2 DUP2 SUB PUSH1 0x0 DUP4 ADD MSTORE PUSH2 0x8F3 DUP2 PUSH2 0x85C JUMP JUMPDEST SWAP1 POP SWAP2 SWAP1 POP JUMP JUMPDEST PUSH1 0x0 PUSH2 0x904 PUSH2 0x915 JUMP JUMPDEST SWAP1 POP PUSH2 0x910 DUP3 DUP3 PUSH2 0xB02 JUMP JUMPDEST SWAP2 SWAP1 POP JUMP JUMPDEST PUSH1 0x0 PUSH1 0x40 MLOAD SWAP1 POP SWAP1 JUMP JUMPDEST PUSH1 0x0 PUSH8 0xFFFFFFFFFFFFFFFF DUP3 GT ISZERO PUSH2 0x93A JUMPI PUSH2 0x939 PUSH2 0xC09 JUMP JUMPDEST JUMPDEST PUSH1 0x20 DUP3 MUL SWAP1 POP PUSH1 0x20 DUP2 ADD SWAP1 POP SWAP2 SWAP1 POP JUMP JUMPDEST PUSH1 0x0 PUSH8 0xFFFFFFFFFFFFFFFF DUP3 GT ISZERO PUSH2 0x966 JUMPI PUSH2 0x965 PUSH2 0xC09 JUMP JUMPDEST JUMPDEST PUSH1 0x20 DUP3 MUL SWAP1 POP PUSH1 0x20 DUP2 ADD SWAP1 POP SWAP2 SWAP1 POP JUMP JUMPDEST PUSH1 0x0 DUP2 SWAP1 POP PUSH1 0x20 DUP3 ADD SWAP1 POP SWAP2 SWAP1 POP JUMP JUMPDEST PUSH1 0x0 DUP2 MLOAD SWAP1 POP SWAP2 SWAP1 POP JUMP JUMPDEST PUSH1 0x0 PUSH1 0x20 DUP3 ADD SWAP1 POP SWAP2 SWAP1 POP JUMP JUMPDEST PUSH1 0x0 DUP3 DUP3 MSTORE PUSH1 0x20 DUP3 ADD SWAP1 POP SWAP3 SWAP2 POP POP JUMP JUMPDEST PUSH1 0x0 DUP3 DUP3 MSTORE PUSH1 0x20 DUP3 ADD SWAP1 POP SWAP3 SWAP2 POP POP JUMP JUMPDEST PUSH1 0x0 PUSH2 0x9CC DUP3 PUSH2 0xAE6 JUMP JUMPDEST SWAP2 POP PUSH2 0x9D7 DUP4 PUSH2 0xAE6 JUMP JUMPDEST SWAP3 POP DUP3 PUSH32 0xFFFFFFFFFFFFFFFFFFFFFFFFFFFFFFFFFFFFFFFFFFFFFFFFFFFFFFFFFFFFFFFF SUB DUP3 GT ISZERO PUSH2 0xA0C JUMPI PUSH2 0xA0B PUSH2 0xB7C JUMP JUMPDEST JUMPDEST DUP3 DUP3 ADD SWAP1 POP SWAP3 SWAP2 POP POP JUMP JUMPDEST PUSH1 0x0 PUSH2 0xA22 DUP3 PUSH2 0xAE6 JUMP JUMPDEST SWAP2 POP PUSH2 0xA2D DUP4 PUSH2 0xAE6 JUMP JUMPDEST SWAP3 POP DUP3 PUSH2 0xA3D JUMPI PUSH2 0xA3C PUSH2 0xBAB JUMP JUMPDEST JUMPDEST DUP3 DUP3 DIV SWAP1 POP SWAP3 SWAP2 POP POP JUMP JUMPDEST PUSH1 0x0 PUSH2 0xA53 DUP3 PUSH2 0xAE6 JUMP JUMPDEST SWAP2 POP PUSH2 0xA5E DUP4 PUSH2 0xAE6 JUMP JUMPDEST SWAP3 POP DUP2 PUSH32 0xFFFFFFFFFFFFFFFFFFFFFFFFFFFFFFFFFFFFFFFFFFFFFFFFFFFFFFFFFFFFFFFF DIV DUP4 GT DUP3 ISZERO ISZERO AND ISZERO PUSH2 0xA97 JUMPI PUSH2 0xA96 PUSH2 0xB7C JUMP JUMPDEST JUMPDEST DUP3 DUP3 MUL SWAP1 POP SWAP3 SWAP2 POP POP JUMP JUMPDEST PUSH1 0x0 PUSH2 0xAAD DUP3 PUSH2 0xAC6 JUMP JUMPDEST SWAP1 POP SWAP2 SWAP1 POP JUMP JUMPDEST PUSH1 0x0 PUSH2 0xABF DUP3 PUSH2 0xAA2 JUMP JUMPDEST SWAP1 POP SWAP2 SWAP1 POP JUMP JUMPDEST PUSH1 0x0 PUSH20 0xFFFFFFFFFFFFFFFFFFFFFFFFFFFFFFFFFFFFFFFF DUP3 AND SWAP1 POP SWAP2 SWAP1 POP JUMP JUMPDEST PUSH1 0x0 DUP2 SWAP1 POP SWAP2 SWAP1 POP JUMP JUMPDEST PUSH1 0x0 PUSH2 0xAFB DUP3 PUSH2 0xAE6 JUMP JUMPDEST SWAP1 POP SWAP2 SWAP1 POP JUMP JUMPDEST PUSH2 0xB0B DUP3 PUSH2 0xC4C JUMP JUMPDEST DUP2 ADD DUP2 DUP2 LT PUSH8 0xFFFFFFFFFFFFFFFF DUP3 GT OR ISZERO PUSH2 0xB2A JUMPI PUSH2 0xB29 PUSH2 0xC09 JUMP JUMPDEST JUMPDEST DUP1 PUSH1 0x40 MSTORE POP POP POP JUMP JUMPDEST PUSH1 0x0 PUSH2 0xB3E DUP3 PUSH2 0xAE6 JUMP JUMPDEST SWAP2 POP PUSH32 0xFFFFFFFFFFFFFFFFFFFFFFFFFFFFFFFFFFFFFFFFFFFFFFFFFFFFFFFFFFFFFFFF DUP3 EQ ISZERO PUSH2 0xB71 JUMPI PUSH2 0xB70 PUSH2 0xB7C JUMP JUMPDEST JUMPDEST PUSH1 0x1 DUP3 ADD SWAP1 POP SWAP2 SWAP1 POP JUMP JUMPDEST PUSH32 0x4E487B7100000000000000000000000000000000000000000000000000000000 PUSH1 0x0 MSTORE PUSH1 0x11 PUSH1 0x4 MSTORE PUSH1 0x24 PUSH1 0x0 REVERT JUMPDEST PUSH32 0x4E487B7100000000000000000000000000000000000000000000000000000000 PUSH1 0x0 MSTORE PUSH1 0x12 PUSH1 0x4 MSTORE PUSH1 0x24 PUSH1 0x0 REVERT JUMPDEST PUSH32 0x4E487B7100000000000000000000000000000000000000000000000000000000 PUSH1 0x0 MSTORE PUSH1 0x32 PUSH1 0x4 MSTORE PUSH1 0x24 PUSH1 0x0 REVERT JUMPDEST PUSH32 0x4E487B7100000000000000000000000000000000000000000000000000000000 PUSH1 0x0 MSTORE PUSH1 0x41 PUSH1 0x4 MSTORE PUSH1 0x24 PUSH1 0x0 REVERT JUMPDEST PUSH1 0x0 DUP1 REVERT JUMPDEST PUSH1 0x0 DUP1 REVERT JUMPDEST PUSH1 0x0 DUP1 REVERT JUMPDEST PUSH1 0x0 DUP1 REVERT JUMPDEST PUSH1 0x0 PUSH1 0x1F NOT PUSH1 0x1F DUP4 ADD AND SWAP1 POP SWAP2 SWAP1 POP JUMP JUMPDEST PUSH32 0x496E76616C6964204D6174696321000000000000000000000000000000000000 PUSH1 0x0 DUP3 ADD MSTORE POP JUMP JUMPDEST PUSH2 0xC8F DUP2 PUSH2 0xAA2 JUMP JUMPDEST DUP2 EQ PUSH2 0xC9A JUMPI PUSH1 0x0 DUP1 REVERT JUMPDEST POP JUMP JUMPDEST PUSH2 0xCA6 DUP2 PUSH2 0xAB4 JUMP JUMPDEST DUP2 EQ PUSH2 0xCB1 JUMPI PUSH1 0x0 DUP1 REVERT JUMPDEST POP JUMP JUMPDEST PUSH2 0xCBD DUP2 PUSH2 0xAE6 JUMP JUMPDEST DUP2 EQ PUSH2 0xCC8 JUMPI PUSH1 0x0 DUP1 REVERT JUMPDEST POP JUMP INVALID LOG2 PUSH5 0x6970667358 0x22 SLT KECCAK256 PUSH14 0x2964FCB18DF378DF4F15B93E156C EXTCODEHASH 0x4D 0xD 0x2C DIFFICULTY 0xD0 0x4F PUSH11 0xF0C5061A24BE165FAE6473 PUSH16 0x6C634300080700330000000000000000 "
				},
				"gasEstimates": {
					"creation": {
						"codeDepositCost": "665800",
						"executionCost": "702",
						"totalCost": "666502"
					},
					"external": {
						"initialize(address[],address,address)": "infinite",
						"swapAndPay(address[],uint256[])": "infinite"
					}
				},
				"methodIdentifiers": {
					"initialize(address[],address,address)": "90482d72",
					"swapAndPay(address[],uint256[])": "9728d85f"
				}
			},
			"storageLayout": {
				"storage": [
					{
						"astId": 6,
						"contract": "contracts/defi.sol:Cheddar",
						"label": "_initialized",
						"offset": 0,
						"slot": "0",
						"type": "t_bool"
					},
					{
						"astId": 9,
						"contract": "contracts/defi.sol:Cheddar",
						"label": "_initializing",
						"offset": 1,
						"slot": "0",
						"type": "t_bool"
					},
					{
						"astId": 456,
						"contract": "contracts/defi.sol:Cheddar",
						"label": "tokens",
						"offset": 0,
						"slot": "1",
						"type": "t_array(t_address)dyn_storage"
					},
					{
						"astId": 459,
						"contract": "contracts/defi.sol:Cheddar",
						"label": "router",
						"offset": 0,
						"slot": "2",
						"type": "t_contract(IUniswapV2Router02)982"
					},
					{
						"astId": 461,
						"contract": "contracts/defi.sol:Cheddar",
						"label": "wrappedMatic",
						"offset": 0,
						"slot": "3",
						"type": "t_address"
					}
				],
				"types": {
					"t_address": {
						"encoding": "inplace",
						"label": "address",
						"numberOfBytes": "20"
					},
					"t_array(t_address)dyn_storage": {
						"base": "t_address",
						"encoding": "dynamic_array",
						"label": "address[]",
						"numberOfBytes": "32"
					},
					"t_bool": {
						"encoding": "inplace",
						"label": "bool",
						"numberOfBytes": "1"
					},
					"t_contract(IUniswapV2Router02)982": {
						"encoding": "inplace",
						"label": "contract IUniswapV2Router02",
						"numberOfBytes": "20"
					}
				}
			},
			"userdoc": {
				"kind": "user",
				"methods": {},
				"version": 1
			}
		}
	}
}