{
	"contracts/defi.sol": {
		"Cheddar": {
			"abi": [
				{
					"inputs": [
						{
							"internalType": "address[]",
							"name": "_tokens",
							"type": "address[]"
						},
						{
							"internalType": "contract IUniswapV2Router02",
							"name": "_router",
							"type": "address"
						},
						{
							"internalType": "address",
							"name": "_wrappedMatic",
							"type": "address"
						}
					],
					"name": "initialize",
					"outputs": [],
					"stateMutability": "nonpayable",
					"type": "function"
				},
				{
					"inputs": [
						{
							"internalType": "address[]",
							"name": "_tokens",
							"type": "address[]"
						},
						{
							"internalType": "uint256[]",
							"name": "bp",
							"type": "uint256[]"
						}
					],
					"name": "swapAndPay",
					"outputs": [],
					"stateMutability": "payable",
					"type": "function"
				}
			],
			"devdoc": {
				"kind": "dev",
				"methods": {},
				"version": 1
			},
			"evm": {
				"assembly": "    /* \"contracts/defi.sol\":232:1295  contract Cheddar is Initializable {... */\n  mstore(0x40, 0x80)\n  callvalue\n  dup1\n  iszero\n  tag_1\n  jumpi\n  0x00\n  dup1\n  revert\ntag_1:\n  pop\n  dataSize(sub_0)\n  dup1\n  dataOffset(sub_0)\n  0x00\n  codecopy\n  0x00\n  return\nstop\n\nsub_0: assembly {\n        /* \"contracts/defi.sol\":232:1295  contract Cheddar is Initializable {... */\n      mstore(0x40, 0x80)\n      jumpi(tag_1, lt(calldatasize, 0x04))\n      shr(0xe0, calldataload(0x00))\n      dup1\n      0x90482d72\n      eq\n      tag_2\n      jumpi\n      dup1\n      0x9728d85f\n      eq\n      tag_3\n      jumpi\n    tag_1:\n      0x00\n      dup1\n      revert\n        /* \"contracts/defi.sol\":337:522  function initialize(address[] memory _tokens, IUniswapV2Router02 _router, address _wrappedMatic) public {... */\n    tag_2:\n      callvalue\n      dup1\n      iszero\n      tag_4\n      jumpi\n      0x00\n      dup1\n      revert\n    tag_4:\n      pop\n      tag_5\n      0x04\n      dup1\n      calldatasize\n      sub\n      dup2\n      add\n      swap1\n      tag_6\n      swap2\n      swap1\n      tag_7\n      jump\t// in\n    tag_6:\n      tag_8\n      jump\t// in\n    tag_5:\n      stop\n        /* \"contracts/defi.sol\":524:1292  function swapAndPay(address[] memory _tokens, uint[] memory bp) public payable {... */\n    tag_3:\n      tag_9\n      0x04\n      dup1\n      calldatasize\n      sub\n      dup2\n      add\n      swap1\n      tag_10\n      swap2\n      swap1\n      tag_11\n      jump\t// in\n    tag_10:\n      tag_12\n      jump\t// in\n    tag_9:\n      stop\n        /* \"contracts/defi.sol\":337:522  function initialize(address[] memory _tokens, IUniswapV2Router02 _router, address _wrappedMatic) public {... */\n    tag_8:\n        /* \"contracts/defi.sol\":456:463  _tokens */\n      dup3\n        /* \"contracts/defi.sol\":447:453  tokens */\n      0x01\n        /* \"contracts/defi.sol\":447:463  tokens = _tokens */\n      swap1\n      dup1\n      mload\n      swap1\n      0x20\n      add\n      swap1\n      tag_14\n      swap3\n      swap2\n      swap1\n      tag_15\n      jump\t// in\n    tag_14:\n      pop\n        /* \"contracts/defi.sol\":478:485  _router */\n      dup2\n        /* \"contracts/defi.sol\":469:475  router */\n      0x02\n      0x00\n        /* \"contracts/defi.sol\":469:485  router = _router */\n      0x0100\n      exp\n      dup2\n      sload\n      dup2\n      0xffffffffffffffffffffffffffffffffffffffff\n      mul\n      not\n      and\n      swap1\n      dup4\n      0xffffffffffffffffffffffffffffffffffffffff\n      and\n      mul\n      or\n      swap1\n      sstore\n      pop\n        /* \"contracts/defi.sol\":506:519  _wrappedMatic */\n      dup1\n        /* \"contracts/defi.sol\":491:503  wrappedMatic */\n      0x03\n      0x00\n        /* \"contracts/defi.sol\":491:519  wrappedMatic = _wrappedMatic */\n      0x0100\n      exp\n      dup2\n      sload\n      dup2\n      0xffffffffffffffffffffffffffffffffffffffff\n      mul\n      not\n      and\n      swap1\n      dup4\n      0xffffffffffffffffffffffffffffffffffffffff\n      and\n      mul\n      or\n      swap1\n      sstore\n      pop\n        /* \"contracts/defi.sol\":337:522  function initialize(address[] memory _tokens, IUniswapV2Router02 _router, address _wrappedMatic) public {... */\n      pop\n      pop\n      pop\n      jump\t// out\n        /* \"contracts/defi.sol\":524:1292  function swapAndPay(address[] memory _tokens, uint[] memory bp) public payable {... */\n    tag_12:\n        /* \"contracts/defi.sol\":610:626  uint totalTokens */\n      0x00\n        /* \"contracts/defi.sol\":629:636  _tokens */\n      dup3\n        /* \"contracts/defi.sol\":629:643  _tokens.length */\n      mload\n        /* \"contracts/defi.sol\":610:643  uint totalTokens = _tokens.length */\n      swap1\n      pop\n        /* \"contracts/defi.sol\":667:668  0 */\n      0x00\n        /* \"contracts/defi.sol\":657:666  msg.value */\n      callvalue\n        /* \"contracts/defi.sol\":657:668  msg.value>0 */\n      gt\n        /* \"contracts/defi.sol\":649:686  require(msg.value>0,\"Invalid Matic!\") */\n      tag_17\n      jumpi\n      mload(0x40)\n      0x08c379a000000000000000000000000000000000000000000000000000000000\n      dup2\n      mstore\n      0x04\n      add\n      tag_18\n      swap1\n      tag_19\n      jump\t// in\n    tag_18:\n      mload(0x40)\n      dup1\n      swap2\n      sub\n      swap1\n      revert\n    tag_17:\n        /* \"contracts/defi.sol\":696:702  uint i */\n      0x00\n        /* \"contracts/defi.sol\":692:968  for(uint i=0; i<totalTokens; i++){... */\n    tag_20:\n        /* \"contracts/defi.sol\":708:719  totalTokens */\n      dup2\n        /* \"contracts/defi.sol\":706:707  i */\n      dup2\n        /* \"contracts/defi.sol\":706:719  i<totalTokens */\n      lt\n        /* \"contracts/defi.sol\":692:968  for(uint i=0; i<totalTokens; i++){... */\n      iszero\n      tag_21\n      jumpi\n        /* \"contracts/defi.sol\":736:757  address[] memory path */\n      0x00\n        /* \"contracts/defi.sol\":774:775  2 */\n      0x02\n        /* \"contracts/defi.sol\":760:776  new address[](2) */\n      0xffffffffffffffff\n      dup2\n      gt\n      iszero\n      tag_23\n      jumpi\n      tag_24\n      tag_25\n      jump\t// in\n    tag_24:\n    tag_23:\n      mload(0x40)\n      swap1\n      dup1\n      dup3\n      mstore\n      dup1\n      0x20\n      mul\n      0x20\n      add\n      dup3\n      add\n      0x40\n      mstore\n      dup1\n      iszero\n      tag_26\n      jumpi\n      dup2\n      0x20\n      add\n      0x20\n      dup3\n      mul\n      dup1\n      calldatasize\n      dup4\n      calldatacopy\n      dup1\n      dup3\n      add\n      swap2\n      pop\n      pop\n      swap1\n      pop\n    tag_26:\n      pop\n        /* \"contracts/defi.sol\":736:776  address[] memory path = new address[](2) */\n      swap1\n      pop\n        /* \"contracts/defi.sol\":808:820  wrappedMatic */\n      0x03\n      0x00\n      swap1\n      sload\n      swap1\n      0x0100\n      exp\n      swap1\n      div\n      0xffffffffffffffffffffffffffffffffffffffff\n      and\n        /* \"contracts/defi.sol\":790:794  path */\n      dup2\n        /* \"contracts/defi.sol\":795:796  0 */\n      0x00\n        /* \"contracts/defi.sol\":790:797  path[0] */\n      dup2\n      mload\n      dup2\n      lt\n      tag_27\n      jumpi\n      tag_28\n      tag_29\n      jump\t// in\n    tag_28:\n    tag_27:\n      0x20\n      mul\n      0x20\n      add\n      add\n        /* \"contracts/defi.sol\":790:821  path[0] = address(wrappedMatic) */\n      swap1\n      0xffffffffffffffffffffffffffffffffffffffff\n      and\n      swap1\n      dup2\n      0xffffffffffffffffffffffffffffffffffffffff\n      and\n      dup2\n      mstore\n      pop\n      pop\n        /* \"contracts/defi.sol\":853:860  _tokens */\n      dup5\n        /* \"contracts/defi.sol\":861:862  i */\n      dup3\n        /* \"contracts/defi.sol\":853:863  _tokens[i] */\n      dup2\n      mload\n      dup2\n      lt\n      tag_30\n      jumpi\n      tag_31\n      tag_29\n      jump\t// in\n    tag_31:\n    tag_30:\n      0x20\n      mul\n      0x20\n      add\n      add\n      mload\n        /* \"contracts/defi.sol\":835:839  path */\n      dup2\n        /* \"contracts/defi.sol\":840:841  1 */\n      0x01\n        /* \"contracts/defi.sol\":835:842  path[1] */\n      dup2\n      mload\n      dup2\n      lt\n      tag_32\n      jumpi\n      tag_33\n      tag_29\n      jump\t// in\n    tag_33:\n    tag_32:\n      0x20\n      mul\n      0x20\n      add\n      add\n        /* \"contracts/defi.sol\":835:864  path[1] = address(_tokens[i]) */\n      swap1\n      0xffffffffffffffffffffffffffffffffffffffff\n      and\n      swap1\n      dup2\n      0xffffffffffffffffffffffffffffffffffffffff\n      and\n      dup2\n      mstore\n      pop\n      pop\n        /* \"contracts/defi.sol\":725:968  {... */\n      pop\n        /* \"contracts/defi.sol\":721:724  i++ */\n      dup1\n      dup1\n      tag_34\n      swap1\n      tag_35\n      jump\t// in\n    tag_34:\n      swap2\n      pop\n      pop\n        /* \"contracts/defi.sol\":692:968  for(uint i=0; i<totalTokens; i++){... */\n      jump(tag_20)\n    tag_21:\n      pop\n        /* \"contracts/defi.sol\":603:1292  {... */\n      pop\n        /* \"contracts/defi.sol\":524:1292  function swapAndPay(address[] memory _tokens, uint[] memory bp) public payable {... */\n      pop\n      pop\n      jump\t// out\n    tag_15:\n      dup3\n      dup1\n      sload\n      dup3\n      dup3\n      sstore\n      swap1\n      0x00\n      mstore\n      keccak256(0x00, 0x20)\n      swap1\n      dup2\n      add\n      swap3\n      dup3\n      iszero\n      tag_36\n      jumpi\n      swap2\n      0x20\n      mul\n      dup3\n      add\n    tag_37:\n      dup3\n      dup2\n      gt\n      iszero\n      tag_38\n      jumpi\n      dup3\n      mload\n      dup3\n      exp(0x0100, 0x00)\n      dup2\n      sload\n      dup2\n      0xffffffffffffffffffffffffffffffffffffffff\n      mul\n      not\n      and\n      swap1\n      dup4\n      0xffffffffffffffffffffffffffffffffffffffff\n      and\n      mul\n      or\n      swap1\n      sstore\n      pop\n      swap2\n      0x20\n      add\n      swap2\n      swap1\n      0x01\n      add\n      swap1\n      jump(tag_37)\n    tag_38:\n    tag_36:\n      pop\n      swap1\n      pop\n      tag_39\n      swap2\n      swap1\n      tag_40\n      jump\t// in\n    tag_39:\n      pop\n      swap1\n      jump\t// out\n    tag_40:\n    tag_41:\n      dup1\n      dup3\n      gt\n      iszero\n      tag_42\n      jumpi\n      0x00\n      dup2\n      0x00\n      swap1\n      sstore\n      pop\n      0x01\n      add\n      jump(tag_41)\n    tag_42:\n      pop\n      swap1\n      jump\t// out\n        /* \"#utility.yul\":24:746   */\n    tag_44:\n        /* \"#utility.yul\":120:125   */\n      0x00\n        /* \"#utility.yul\":145:226   */\n      tag_46\n        /* \"#utility.yul\":161:225   */\n      tag_47\n        /* \"#utility.yul\":218:224   */\n      dup5\n        /* \"#utility.yul\":161:225   */\n      tag_48\n      jump\t// in\n    tag_47:\n        /* \"#utility.yul\":145:226   */\n      tag_49\n      jump\t// in\n    tag_46:\n        /* \"#utility.yul\":136:226   */\n      swap1\n      pop\n        /* \"#utility.yul\":246:251   */\n      dup1\n        /* \"#utility.yul\":275:281   */\n      dup4\n        /* \"#utility.yul\":268:273   */\n      dup3\n        /* \"#utility.yul\":261:282   */\n      mstore\n        /* \"#utility.yul\":309:313   */\n      0x20\n        /* \"#utility.yul\":302:307   */\n      dup3\n        /* \"#utility.yul\":298:314   */\n      add\n        /* \"#utility.yul\":291:314   */\n      swap1\n      pop\n        /* \"#utility.yul\":335:341   */\n      dup3\n        /* \"#utility.yul\":385:388   */\n      dup6\n        /* \"#utility.yul\":377:381   */\n      0x20\n        /* \"#utility.yul\":369:375   */\n      dup7\n        /* \"#utility.yul\":365:382   */\n      mul\n        /* \"#utility.yul\":360:363   */\n      dup3\n        /* \"#utility.yul\":356:383   */\n      add\n        /* \"#utility.yul\":353:389   */\n      gt\n        /* \"#utility.yul\":350:493   */\n      iszero\n      tag_50\n      jumpi\n        /* \"#utility.yul\":404:483   */\n      tag_51\n      tag_52\n      jump\t// in\n    tag_51:\n        /* \"#utility.yul\":350:493   */\n    tag_50:\n        /* \"#utility.yul\":517:518   */\n      0x00\n        /* \"#utility.yul\":502:740   */\n    tag_53:\n        /* \"#utility.yul\":527:533   */\n      dup6\n        /* \"#utility.yul\":524:525   */\n      dup2\n        /* \"#utility.yul\":521:534   */\n      lt\n        /* \"#utility.yul\":502:740   */\n      iszero\n      tag_55\n      jumpi\n        /* \"#utility.yul\":595:598   */\n      dup2\n        /* \"#utility.yul\":624:661   */\n      tag_56\n        /* \"#utility.yul\":657:660   */\n      dup9\n        /* \"#utility.yul\":645:655   */\n      dup3\n        /* \"#utility.yul\":624:661   */\n      tag_57\n      jump\t// in\n    tag_56:\n        /* \"#utility.yul\":619:622   */\n      dup5\n        /* \"#utility.yul\":612:662   */\n      mstore\n        /* \"#utility.yul\":691:695   */\n      0x20\n        /* \"#utility.yul\":686:689   */\n      dup5\n        /* \"#utility.yul\":682:696   */\n      add\n        /* \"#utility.yul\":675:696   */\n      swap4\n      pop\n        /* \"#utility.yul\":725:729   */\n      0x20\n        /* \"#utility.yul\":720:723   */\n      dup4\n        /* \"#utility.yul\":716:730   */\n      add\n        /* \"#utility.yul\":709:730   */\n      swap3\n      pop\n        /* \"#utility.yul\":562:740   */\n      pop\n        /* \"#utility.yul\":549:550   */\n      0x01\n        /* \"#utility.yul\":546:547   */\n      dup2\n        /* \"#utility.yul\":542:551   */\n      add\n        /* \"#utility.yul\":537:551   */\n      swap1\n      pop\n        /* \"#utility.yul\":502:740   */\n      jump(tag_53)\n    tag_55:\n        /* \"#utility.yul\":506:520   */\n      pop\n        /* \"#utility.yul\":126:746   */\n      pop\n      pop\n        /* \"#utility.yul\":24:746   */\n      swap4\n      swap3\n      pop\n      pop\n      pop\n      jump\t// out\n        /* \"#utility.yul\":769:1491   */\n    tag_58:\n        /* \"#utility.yul\":865:870   */\n      0x00\n        /* \"#utility.yul\":890:971   */\n      tag_60\n        /* \"#utility.yul\":906:970   */\n      tag_61\n        /* \"#utility.yul\":963:969   */\n      dup5\n        /* \"#utility.yul\":906:970   */\n      tag_62\n      jump\t// in\n    tag_61:\n        /* \"#utility.yul\":890:971   */\n      tag_49\n      jump\t// in\n    tag_60:\n        /* \"#utility.yul\":881:971   */\n      swap1\n      pop\n        /* \"#utility.yul\":991:996   */\n      dup1\n        /* \"#utility.yul\":1020:1026   */\n      dup4\n        /* \"#utility.yul\":1013:1018   */\n      dup3\n        /* \"#utility.yul\":1006:1027   */\n      mstore\n        /* \"#utility.yul\":1054:1058   */\n      0x20\n        /* \"#utility.yul\":1047:1052   */\n      dup3\n        /* \"#utility.yul\":1043:1059   */\n      add\n        /* \"#utility.yul\":1036:1059   */\n      swap1\n      pop\n        /* \"#utility.yul\":1080:1086   */\n      dup3\n        /* \"#utility.yul\":1130:1133   */\n      dup6\n        /* \"#utility.yul\":1122:1126   */\n      0x20\n        /* \"#utility.yul\":1114:1120   */\n      dup7\n        /* \"#utility.yul\":1110:1127   */\n      mul\n        /* \"#utility.yul\":1105:1108   */\n      dup3\n        /* \"#utility.yul\":1101:1128   */\n      add\n        /* \"#utility.yul\":1098:1134   */\n      gt\n        /* \"#utility.yul\":1095:1238   */\n      iszero\n      tag_63\n      jumpi\n        /* \"#utility.yul\":1149:1228   */\n      tag_64\n      tag_52\n      jump\t// in\n    tag_64:\n        /* \"#utility.yul\":1095:1238   */\n    tag_63:\n        /* \"#utility.yul\":1262:1263   */\n      0x00\n        /* \"#utility.yul\":1247:1485   */\n    tag_65:\n        /* \"#utility.yul\":1272:1278   */\n      dup6\n        /* \"#utility.yul\":1269:1270   */\n      dup2\n        /* \"#utility.yul\":1266:1279   */\n      lt\n        /* \"#utility.yul\":1247:1485   */\n      iszero\n      tag_67\n      jumpi\n        /* \"#utility.yul\":1340:1343   */\n      dup2\n        /* \"#utility.yul\":1369:1406   */\n      tag_68\n        /* \"#utility.yul\":1402:1405   */\n      dup9\n        /* \"#utility.yul\":1390:1400   */\n      dup3\n        /* \"#utility.yul\":1369:1406   */\n      tag_69\n      jump\t// in\n    tag_68:\n        /* \"#utility.yul\":1364:1367   */\n      dup5\n        /* \"#utility.yul\":1357:1407   */\n      mstore\n        /* \"#utility.yul\":1436:1440   */\n      0x20\n        /* \"#utility.yul\":1431:1434   */\n      dup5\n        /* \"#utility.yul\":1427:1441   */\n      add\n        /* \"#utility.yul\":1420:1441   */\n      swap4\n      pop\n        /* \"#utility.yul\":1470:1474   */\n      0x20\n        /* \"#utility.yul\":1465:1468   */\n      dup4\n        /* \"#utility.yul\":1461:1475   */\n      add\n        /* \"#utility.yul\":1454:1475   */\n      swap3\n      pop\n        /* \"#utility.yul\":1307:1485   */\n      pop\n        /* \"#utility.yul\":1294:1295   */\n      0x01\n        /* \"#utility.yul\":1291:1292   */\n      dup2\n        /* \"#utility.yul\":1287:1296   */\n      add\n        /* \"#utility.yul\":1282:1296   */\n      swap1\n      pop\n        /* \"#utility.yul\":1247:1485   */\n      jump(tag_65)\n    tag_67:\n        /* \"#utility.yul\":1251:1265   */\n      pop\n        /* \"#utility.yul\":871:1491   */\n      pop\n      pop\n        /* \"#utility.yul\":769:1491   */\n      swap4\n      swap3\n      pop\n      pop\n      pop\n      jump\t// out\n        /* \"#utility.yul\":1497:1636   */\n    tag_57:\n        /* \"#utility.yul\":1543:1548   */\n      0x00\n        /* \"#utility.yul\":1581:1587   */\n      dup2\n        /* \"#utility.yul\":1568:1588   */\n      calldataload\n        /* \"#utility.yul\":1559:1588   */\n      swap1\n      pop\n        /* \"#utility.yul\":1597:1630   */\n      tag_71\n        /* \"#utility.yul\":1624:1629   */\n      dup2\n        /* \"#utility.yul\":1597:1630   */\n      tag_72\n      jump\t// in\n    tag_71:\n        /* \"#utility.yul\":1497:1636   */\n      swap3\n      swap2\n      pop\n      pop\n      jump\t// out\n        /* \"#utility.yul\":1659:2029   */\n    tag_73:\n        /* \"#utility.yul\":1730:1735   */\n      0x00\n        /* \"#utility.yul\":1779:1782   */\n      dup3\n        /* \"#utility.yul\":1772:1776   */\n      0x1f\n        /* \"#utility.yul\":1764:1770   */\n      dup4\n        /* \"#utility.yul\":1760:1777   */\n      add\n        /* \"#utility.yul\":1756:1783   */\n      slt\n        /* \"#utility.yul\":1746:1868   */\n      tag_75\n      jumpi\n        /* \"#utility.yul\":1787:1866   */\n      tag_76\n      tag_77\n      jump\t// in\n    tag_76:\n        /* \"#utility.yul\":1746:1868   */\n    tag_75:\n        /* \"#utility.yul\":1904:1910   */\n      dup2\n        /* \"#utility.yul\":1891:1911   */\n      calldataload\n        /* \"#utility.yul\":1929:2023   */\n      tag_78\n        /* \"#utility.yul\":2019:2022   */\n      dup5\n        /* \"#utility.yul\":2011:2017   */\n      dup3\n        /* \"#utility.yul\":2004:2008   */\n      0x20\n        /* \"#utility.yul\":1996:2002   */\n      dup7\n        /* \"#utility.yul\":1992:2009   */\n      add\n        /* \"#utility.yul\":1929:2023   */\n      tag_44\n      jump\t// in\n    tag_78:\n        /* \"#utility.yul\":1920:2023   */\n      swap2\n      pop\n        /* \"#utility.yul\":1736:2029   */\n      pop\n        /* \"#utility.yul\":1659:2029   */\n      swap3\n      swap2\n      pop\n      pop\n      jump\t// out\n        /* \"#utility.yul\":2052:2422   */\n    tag_79:\n        /* \"#utility.yul\":2123:2128   */\n      0x00\n        /* \"#utility.yul\":2172:2175   */\n      dup3\n        /* \"#utility.yul\":2165:2169   */\n      0x1f\n        /* \"#utility.yul\":2157:2163   */\n      dup4\n        /* \"#utility.yul\":2153:2170   */\n      add\n        /* \"#utility.yul\":2149:2176   */\n      slt\n        /* \"#utility.yul\":2139:2261   */\n      tag_81\n      jumpi\n        /* \"#utility.yul\":2180:2259   */\n      tag_82\n      tag_77\n      jump\t// in\n    tag_82:\n        /* \"#utility.yul\":2139:2261   */\n    tag_81:\n        /* \"#utility.yul\":2297:2303   */\n      dup2\n        /* \"#utility.yul\":2284:2304   */\n      calldataload\n        /* \"#utility.yul\":2322:2416   */\n      tag_83\n        /* \"#utility.yul\":2412:2415   */\n      dup5\n        /* \"#utility.yul\":2404:2410   */\n      dup3\n        /* \"#utility.yul\":2397:2401   */\n      0x20\n        /* \"#utility.yul\":2389:2395   */\n      dup7\n        /* \"#utility.yul\":2385:2402   */\n      add\n        /* \"#utility.yul\":2322:2416   */\n      tag_58\n      jump\t// in\n    tag_83:\n        /* \"#utility.yul\":2313:2416   */\n      swap2\n      pop\n        /* \"#utility.yul\":2129:2422   */\n      pop\n        /* \"#utility.yul\":2052:2422   */\n      swap3\n      swap2\n      pop\n      pop\n      jump\t// out\n        /* \"#utility.yul\":2428:2619   */\n    tag_84:\n        /* \"#utility.yul\":2500:2505   */\n      0x00\n        /* \"#utility.yul\":2538:2544   */\n      dup2\n        /* \"#utility.yul\":2525:2545   */\n      calldataload\n        /* \"#utility.yul\":2516:2545   */\n      swap1\n      pop\n        /* \"#utility.yul\":2554:2613   */\n      tag_86\n        /* \"#utility.yul\":2607:2612   */\n      dup2\n        /* \"#utility.yul\":2554:2613   */\n      tag_87\n      jump\t// in\n    tag_86:\n        /* \"#utility.yul\":2428:2619   */\n      swap3\n      swap2\n      pop\n      pop\n      jump\t// out\n        /* \"#utility.yul\":2625:2764   */\n    tag_69:\n        /* \"#utility.yul\":2671:2676   */\n      0x00\n        /* \"#utility.yul\":2709:2715   */\n      dup2\n        /* \"#utility.yul\":2696:2716   */\n      calldataload\n        /* \"#utility.yul\":2687:2716   */\n      swap1\n      pop\n        /* \"#utility.yul\":2725:2758   */\n      tag_89\n        /* \"#utility.yul\":2752:2757   */\n      dup2\n        /* \"#utility.yul\":2725:2758   */\n      tag_90\n      jump\t// in\n    tag_89:\n        /* \"#utility.yul\":2625:2764   */\n      swap3\n      swap2\n      pop\n      pop\n      jump\t// out\n        /* \"#utility.yul\":2770:3664   */\n    tag_11:\n        /* \"#utility.yul\":2888:2894   */\n      0x00\n        /* \"#utility.yul\":2896:2902   */\n      dup1\n        /* \"#utility.yul\":2945:2947   */\n      0x40\n        /* \"#utility.yul\":2933:2942   */\n      dup4\n        /* \"#utility.yul\":2924:2931   */\n      dup6\n        /* \"#utility.yul\":2920:2943   */\n      sub\n        /* \"#utility.yul\":2916:2948   */\n      slt\n        /* \"#utility.yul\":2913:3032   */\n      iszero\n      tag_92\n      jumpi\n        /* \"#utility.yul\":2951:3030   */\n      tag_93\n      tag_94\n      jump\t// in\n    tag_93:\n        /* \"#utility.yul\":2913:3032   */\n    tag_92:\n        /* \"#utility.yul\":3099:3100   */\n      0x00\n        /* \"#utility.yul\":3088:3097   */\n      dup4\n        /* \"#utility.yul\":3084:3101   */\n      add\n        /* \"#utility.yul\":3071:3102   */\n      calldataload\n        /* \"#utility.yul\":3129:3147   */\n      0xffffffffffffffff\n        /* \"#utility.yul\":3121:3127   */\n      dup2\n        /* \"#utility.yul\":3118:3148   */\n      gt\n        /* \"#utility.yul\":3115:3232   */\n      iszero\n      tag_95\n      jumpi\n        /* \"#utility.yul\":3151:3230   */\n      tag_96\n      tag_97\n      jump\t// in\n    tag_96:\n        /* \"#utility.yul\":3115:3232   */\n    tag_95:\n        /* \"#utility.yul\":3256:3334   */\n      tag_98\n        /* \"#utility.yul\":3326:3333   */\n      dup6\n        /* \"#utility.yul\":3317:3323   */\n      dup3\n        /* \"#utility.yul\":3306:3315   */\n      dup7\n        /* \"#utility.yul\":3302:3324   */\n      add\n        /* \"#utility.yul\":3256:3334   */\n      tag_73\n      jump\t// in\n    tag_98:\n        /* \"#utility.yul\":3246:3334   */\n      swap3\n      pop\n        /* \"#utility.yul\":3042:3344   */\n      pop\n        /* \"#utility.yul\":3411:3413   */\n      0x20\n        /* \"#utility.yul\":3400:3409   */\n      dup4\n        /* \"#utility.yul\":3396:3414   */\n      add\n        /* \"#utility.yul\":3383:3415   */\n      calldataload\n        /* \"#utility.yul\":3442:3460   */\n      0xffffffffffffffff\n        /* \"#utility.yul\":3434:3440   */\n      dup2\n        /* \"#utility.yul\":3431:3461   */\n      gt\n        /* \"#utility.yul\":3428:3545   */\n      iszero\n      tag_99\n      jumpi\n        /* \"#utility.yul\":3464:3543   */\n      tag_100\n      tag_97\n      jump\t// in\n    tag_100:\n        /* \"#utility.yul\":3428:3545   */\n    tag_99:\n        /* \"#utility.yul\":3569:3647   */\n      tag_101\n        /* \"#utility.yul\":3639:3646   */\n      dup6\n        /* \"#utility.yul\":3630:3636   */\n      dup3\n        /* \"#utility.yul\":3619:3628   */\n      dup7\n        /* \"#utility.yul\":3615:3637   */\n      add\n        /* \"#utility.yul\":3569:3647   */\n      tag_79\n      jump\t// in\n    tag_101:\n        /* \"#utility.yul\":3559:3647   */\n      swap2\n      pop\n        /* \"#utility.yul\":3354:3657   */\n      pop\n        /* \"#utility.yul\":2770:3664   */\n      swap3\n      pop\n      swap3\n      swap1\n      pop\n      jump\t// out\n        /* \"#utility.yul\":3670:4551   */\n    tag_7:\n        /* \"#utility.yul\":3798:3804   */\n      0x00\n        /* \"#utility.yul\":3806:3812   */\n      dup1\n        /* \"#utility.yul\":3814:3820   */\n      0x00\n        /* \"#utility.yul\":3863:3865   */\n      0x60\n        /* \"#utility.yul\":3851:3860   */\n      dup5\n        /* \"#utility.yul\":3842:3849   */\n      dup7\n        /* \"#utility.yul\":3838:3861   */\n      sub\n        /* \"#utility.yul\":3834:3866   */\n      slt\n        /* \"#utility.yul\":3831:3950   */\n      iszero\n      tag_103\n      jumpi\n        /* \"#utility.yul\":3869:3948   */\n      tag_104\n      tag_94\n      jump\t// in\n    tag_104:\n        /* \"#utility.yul\":3831:3950   */\n    tag_103:\n        /* \"#utility.yul\":4017:4018   */\n      0x00\n        /* \"#utility.yul\":4006:4015   */\n      dup5\n        /* \"#utility.yul\":4002:4019   */\n      add\n        /* \"#utility.yul\":3989:4020   */\n      calldataload\n        /* \"#utility.yul\":4047:4065   */\n      0xffffffffffffffff\n        /* \"#utility.yul\":4039:4045   */\n      dup2\n        /* \"#utility.yul\":4036:4066   */\n      gt\n        /* \"#utility.yul\":4033:4150   */\n      iszero\n      tag_105\n      jumpi\n        /* \"#utility.yul\":4069:4148   */\n      tag_106\n      tag_97\n      jump\t// in\n    tag_106:\n        /* \"#utility.yul\":4033:4150   */\n    tag_105:\n        /* \"#utility.yul\":4174:4252   */\n      tag_107\n        /* \"#utility.yul\":4244:4251   */\n      dup7\n        /* \"#utility.yul\":4235:4241   */\n      dup3\n        /* \"#utility.yul\":4224:4233   */\n      dup8\n        /* \"#utility.yul\":4220:4242   */\n      add\n        /* \"#utility.yul\":4174:4252   */\n      tag_73\n      jump\t// in\n    tag_107:\n        /* \"#utility.yul\":4164:4252   */\n      swap4\n      pop\n        /* \"#utility.yul\":3960:4262   */\n      pop\n        /* \"#utility.yul\":4301:4303   */\n      0x20\n        /* \"#utility.yul\":4327:4406   */\n      tag_108\n        /* \"#utility.yul\":4398:4405   */\n      dup7\n        /* \"#utility.yul\":4389:4395   */\n      dup3\n        /* \"#utility.yul\":4378:4387   */\n      dup8\n        /* \"#utility.yul\":4374:4396   */\n      add\n        /* \"#utility.yul\":4327:4406   */\n      tag_84\n      jump\t// in\n    tag_108:\n        /* \"#utility.yul\":4317:4406   */\n      swap3\n      pop\n        /* \"#utility.yul\":4272:4416   */\n      pop\n        /* \"#utility.yul\":4455:4457   */\n      0x40\n        /* \"#utility.yul\":4481:4534   */\n      tag_109\n        /* \"#utility.yul\":4526:4533   */\n      dup7\n        /* \"#utility.yul\":4517:4523   */\n      dup3\n        /* \"#utility.yul\":4506:4515   */\n      dup8\n        /* \"#utility.yul\":4502:4524   */\n      add\n        /* \"#utility.yul\":4481:4534   */\n      tag_57\n      jump\t// in\n    tag_109:\n        /* \"#utility.yul\":4471:4534   */\n      swap2\n      pop\n        /* \"#utility.yul\":4426:4544   */\n      pop\n        /* \"#utility.yul\":3670:4551   */\n      swap3\n      pop\n      swap3\n      pop\n      swap3\n      jump\t// out\n        /* \"#utility.yul\":4557:4923   */\n    tag_110:\n        /* \"#utility.yul\":4699:4702   */\n      0x00\n        /* \"#utility.yul\":4720:4787   */\n      tag_112\n        /* \"#utility.yul\":4784:4786   */\n      0x0e\n        /* \"#utility.yul\":4779:4782   */\n      dup4\n        /* \"#utility.yul\":4720:4787   */\n      tag_113\n      jump\t// in\n    tag_112:\n        /* \"#utility.yul\":4713:4787   */\n      swap2\n      pop\n        /* \"#utility.yul\":4796:4889   */\n      tag_114\n        /* \"#utility.yul\":4885:4888   */\n      dup3\n        /* \"#utility.yul\":4796:4889   */\n      tag_115\n      jump\t// in\n    tag_114:\n        /* \"#utility.yul\":4914:4916   */\n      0x20\n        /* \"#utility.yul\":4909:4912   */\n      dup3\n        /* \"#utility.yul\":4905:4917   */\n      add\n        /* \"#utility.yul\":4898:4917   */\n      swap1\n      pop\n        /* \"#utility.yul\":4557:4923   */\n      swap2\n      swap1\n      pop\n      jump\t// out\n        /* \"#utility.yul\":4929:5348   */\n    tag_19:\n        /* \"#utility.yul\":5095:5099   */\n      0x00\n        /* \"#utility.yul\":5133:5135   */\n      0x20\n        /* \"#utility.yul\":5122:5131   */\n      dup3\n        /* \"#utility.yul\":5118:5136   */\n      add\n        /* \"#utility.yul\":5110:5136   */\n      swap1\n      pop\n        /* \"#utility.yul\":5182:5191   */\n      dup2\n        /* \"#utility.yul\":5176:5180   */\n      dup2\n        /* \"#utility.yul\":5172:5192   */\n      sub\n        /* \"#utility.yul\":5168:5169   */\n      0x00\n        /* \"#utility.yul\":5157:5166   */\n      dup4\n        /* \"#utility.yul\":5153:5170   */\n      add\n        /* \"#utility.yul\":5146:5193   */\n      mstore\n        /* \"#utility.yul\":5210:5341   */\n      tag_117\n        /* \"#utility.yul\":5336:5340   */\n      dup2\n        /* \"#utility.yul\":5210:5341   */\n      tag_110\n      jump\t// in\n    tag_117:\n        /* \"#utility.yul\":5202:5341   */\n      swap1\n      pop\n        /* \"#utility.yul\":4929:5348   */\n      swap2\n      swap1\n      pop\n      jump\t// out\n        /* \"#utility.yul\":5354:5483   */\n    tag_49:\n        /* \"#utility.yul\":5388:5394   */\n      0x00\n        /* \"#utility.yul\":5415:5435   */\n      tag_119\n      tag_120\n      jump\t// in\n    tag_119:\n        /* \"#utility.yul\":5405:5435   */\n      swap1\n      pop\n        /* \"#utility.yul\":5444:5477   */\n      tag_121\n        /* \"#utility.yul\":5472:5476   */\n      dup3\n        /* \"#utility.yul\":5464:5470   */\n      dup3\n        /* \"#utility.yul\":5444:5477   */\n      tag_122\n      jump\t// in\n    tag_121:\n        /* \"#utility.yul\":5354:5483   */\n      swap2\n      swap1\n      pop\n      jump\t// out\n        /* \"#utility.yul\":5489:5564   */\n    tag_120:\n        /* \"#utility.yul\":5522:5528   */\n      0x00\n        /* \"#utility.yul\":5555:5557   */\n      0x40\n        /* \"#utility.yul\":5549:5558   */\n      mload\n        /* \"#utility.yul\":5539:5558   */\n      swap1\n      pop\n        /* \"#utility.yul\":5489:5564   */\n      swap1\n      jump\t// out\n        /* \"#utility.yul\":5570:5881   */\n    tag_48:\n        /* \"#utility.yul\":5647:5651   */\n      0x00\n        /* \"#utility.yul\":5737:5755   */\n      0xffffffffffffffff\n        /* \"#utility.yul\":5729:5735   */\n      dup3\n        /* \"#utility.yul\":5726:5756   */\n      gt\n        /* \"#utility.yul\":5723:5779   */\n      iszero\n      tag_125\n      jumpi\n        /* \"#utility.yul\":5759:5777   */\n      tag_126\n      tag_25\n      jump\t// in\n    tag_126:\n        /* \"#utility.yul\":5723:5779   */\n    tag_125:\n        /* \"#utility.yul\":5809:5813   */\n      0x20\n        /* \"#utility.yul\":5801:5807   */\n      dup3\n        /* \"#utility.yul\":5797:5814   */\n      mul\n        /* \"#utility.yul\":5789:5814   */\n      swap1\n      pop\n        /* \"#utility.yul\":5869:5873   */\n      0x20\n        /* \"#utility.yul\":5863:5867   */\n      dup2\n        /* \"#utility.yul\":5859:5874   */\n      add\n        /* \"#utility.yul\":5851:5874   */\n      swap1\n      pop\n        /* \"#utility.yul\":5570:5881   */\n      swap2\n      swap1\n      pop\n      jump\t// out\n        /* \"#utility.yul\":5887:6198   */\n    tag_62:\n        /* \"#utility.yul\":5964:5968   */\n      0x00\n        /* \"#utility.yul\":6054:6072   */\n      0xffffffffffffffff\n        /* \"#utility.yul\":6046:6052   */\n      dup3\n        /* \"#utility.yul\":6043:6073   */\n      gt\n        /* \"#utility.yul\":6040:6096   */\n      iszero\n      tag_128\n      jumpi\n        /* \"#utility.yul\":6076:6094   */\n      tag_129\n      tag_25\n      jump\t// in\n    tag_129:\n        /* \"#utility.yul\":6040:6096   */\n    tag_128:\n        /* \"#utility.yul\":6126:6130   */\n      0x20\n        /* \"#utility.yul\":6118:6124   */\n      dup3\n        /* \"#utility.yul\":6114:6131   */\n      mul\n        /* \"#utility.yul\":6106:6131   */\n      swap1\n      pop\n        /* \"#utility.yul\":6186:6190   */\n      0x20\n        /* \"#utility.yul\":6180:6184   */\n      dup2\n        /* \"#utility.yul\":6176:6191   */\n      add\n        /* \"#utility.yul\":6168:6191   */\n      swap1\n      pop\n        /* \"#utility.yul\":5887:6198   */\n      swap2\n      swap1\n      pop\n      jump\t// out\n        /* \"#utility.yul\":6204:6373   */\n    tag_113:\n        /* \"#utility.yul\":6288:6299   */\n      0x00\n        /* \"#utility.yul\":6322:6328   */\n      dup3\n        /* \"#utility.yul\":6317:6320   */\n      dup3\n        /* \"#utility.yul\":6310:6329   */\n      mstore\n        /* \"#utility.yul\":6362:6366   */\n      0x20\n        /* \"#utility.yul\":6357:6360   */\n      dup3\n        /* \"#utility.yul\":6353:6367   */\n      add\n        /* \"#utility.yul\":6338:6367   */\n      swap1\n      pop\n        /* \"#utility.yul\":6204:6373   */\n      swap3\n      swap2\n      pop\n      pop\n      jump\t// out\n        /* \"#utility.yul\":6379:6475   */\n    tag_131:\n        /* \"#utility.yul\":6416:6423   */\n      0x00\n        /* \"#utility.yul\":6445:6469   */\n      tag_133\n        /* \"#utility.yul\":6463:6468   */\n      dup3\n        /* \"#utility.yul\":6445:6469   */\n      tag_134\n      jump\t// in\n    tag_133:\n        /* \"#utility.yul\":6434:6469   */\n      swap1\n      pop\n        /* \"#utility.yul\":6379:6475   */\n      swap2\n      swap1\n      pop\n      jump\t// out\n        /* \"#utility.yul\":6481:6603   */\n    tag_135:\n        /* \"#utility.yul\":6544:6551   */\n      0x00\n        /* \"#utility.yul\":6573:6597   */\n      tag_137\n        /* \"#utility.yul\":6591:6596   */\n      dup3\n        /* \"#utility.yul\":6573:6597   */\n      tag_131\n      jump\t// in\n    tag_137:\n        /* \"#utility.yul\":6562:6597   */\n      swap1\n      pop\n        /* \"#utility.yul\":6481:6603   */\n      swap2\n      swap1\n      pop\n      jump\t// out\n        /* \"#utility.yul\":6609:6735   */\n    tag_134:\n        /* \"#utility.yul\":6646:6653   */\n      0x00\n        /* \"#utility.yul\":6686:6728   */\n      0xffffffffffffffffffffffffffffffffffffffff\n        /* \"#utility.yul\":6679:6684   */\n      dup3\n        /* \"#utility.yul\":6675:6729   */\n      and\n        /* \"#utility.yul\":6664:6729   */\n      swap1\n      pop\n        /* \"#utility.yul\":6609:6735   */\n      swap2\n      swap1\n      pop\n      jump\t// out\n        /* \"#utility.yul\":6741:6818   */\n    tag_139:\n        /* \"#utility.yul\":6778:6785   */\n      0x00\n        /* \"#utility.yul\":6807:6812   */\n      dup2\n        /* \"#utility.yul\":6796:6812   */\n      swap1\n      pop\n        /* \"#utility.yul\":6741:6818   */\n      swap2\n      swap1\n      pop\n      jump\t// out\n        /* \"#utility.yul\":6824:7105   */\n    tag_122:\n        /* \"#utility.yul\":6907:6934   */\n      tag_142\n        /* \"#utility.yul\":6929:6933   */\n      dup3\n        /* \"#utility.yul\":6907:6934   */\n      tag_143\n      jump\t// in\n    tag_142:\n        /* \"#utility.yul\":6899:6905   */\n      dup2\n        /* \"#utility.yul\":6895:6935   */\n      add\n        /* \"#utility.yul\":7037:7043   */\n      dup2\n        /* \"#utility.yul\":7025:7035   */\n      dup2\n        /* \"#utility.yul\":7022:7044   */\n      lt\n        /* \"#utility.yul\":7001:7019   */\n      0xffffffffffffffff\n        /* \"#utility.yul\":6989:6999   */\n      dup3\n        /* \"#utility.yul\":6986:7020   */\n      gt\n        /* \"#utility.yul\":6983:7045   */\n      or\n        /* \"#utility.yul\":6980:7068   */\n      iszero\n      tag_144\n      jumpi\n        /* \"#utility.yul\":7048:7066   */\n      tag_145\n      tag_25\n      jump\t// in\n    tag_145:\n        /* \"#utility.yul\":6980:7068   */\n    tag_144:\n        /* \"#utility.yul\":7088:7098   */\n      dup1\n        /* \"#utility.yul\":7084:7086   */\n      0x40\n        /* \"#utility.yul\":7077:7099   */\n      mstore\n        /* \"#utility.yul\":6867:7105   */\n      pop\n        /* \"#utility.yul\":6824:7105   */\n      pop\n      pop\n      jump\t// out\n        /* \"#utility.yul\":7111:7344   */\n    tag_35:\n        /* \"#utility.yul\":7150:7153   */\n      0x00\n        /* \"#utility.yul\":7173:7197   */\n      tag_147\n        /* \"#utility.yul\":7191:7196   */\n      dup3\n        /* \"#utility.yul\":7173:7197   */\n      tag_139\n      jump\t// in\n    tag_147:\n        /* \"#utility.yul\":7164:7197   */\n      swap2\n      pop\n        /* \"#utility.yul\":7219:7285   */\n      0xffffffffffffffffffffffffffffffffffffffffffffffffffffffffffffffff\n        /* \"#utility.yul\":7212:7217   */\n      dup3\n        /* \"#utility.yul\":7209:7286   */\n      eq\n        /* \"#utility.yul\":7206:7309   */\n      iszero\n      tag_148\n      jumpi\n        /* \"#utility.yul\":7289:7307   */\n      tag_149\n      tag_150\n      jump\t// in\n    tag_149:\n        /* \"#utility.yul\":7206:7309   */\n    tag_148:\n        /* \"#utility.yul\":7336:7337   */\n      0x01\n        /* \"#utility.yul\":7329:7334   */\n      dup3\n        /* \"#utility.yul\":7325:7338   */\n      add\n        /* \"#utility.yul\":7318:7338   */\n      swap1\n      pop\n        /* \"#utility.yul\":7111:7344   */\n      swap2\n      swap1\n      pop\n      jump\t// out\n        /* \"#utility.yul\":7350:7530   */\n    tag_150:\n        /* \"#utility.yul\":7398:7475   */\n      0x4e487b7100000000000000000000000000000000000000000000000000000000\n        /* \"#utility.yul\":7395:7396   */\n      0x00\n        /* \"#utility.yul\":7388:7476   */\n      mstore\n        /* \"#utility.yul\":7495:7499   */\n      0x11\n        /* \"#utility.yul\":7492:7493   */\n      0x04\n        /* \"#utility.yul\":7485:7500   */\n      mstore\n        /* \"#utility.yul\":7519:7523   */\n      0x24\n        /* \"#utility.yul\":7516:7517   */\n      0x00\n        /* \"#utility.yul\":7509:7524   */\n      revert\n        /* \"#utility.yul\":7536:7716   */\n    tag_29:\n        /* \"#utility.yul\":7584:7661   */\n      0x4e487b7100000000000000000000000000000000000000000000000000000000\n        /* \"#utility.yul\":7581:7582   */\n      0x00\n        /* \"#utility.yul\":7574:7662   */\n      mstore\n        /* \"#utility.yul\":7681:7685   */\n      0x32\n        /* \"#utility.yul\":7678:7679   */\n      0x04\n        /* \"#utility.yul\":7671:7686   */\n      mstore\n        /* \"#utility.yul\":7705:7709   */\n      0x24\n        /* \"#utility.yul\":7702:7703   */\n      0x00\n        /* \"#utility.yul\":7695:7710   */\n      revert\n        /* \"#utility.yul\":7722:7902   */\n    tag_25:\n        /* \"#utility.yul\":7770:7847   */\n      0x4e487b7100000000000000000000000000000000000000000000000000000000\n        /* \"#utility.yul\":7767:7768   */\n      0x00\n        /* \"#utility.yul\":7760:7848   */\n      mstore\n        /* \"#utility.yul\":7867:7871   */\n      0x41\n        /* \"#utility.yul\":7864:7865   */\n      0x04\n        /* \"#utility.yul\":7857:7872   */\n      mstore\n        /* \"#utility.yul\":7891:7895   */\n      0x24\n        /* \"#utility.yul\":7888:7889   */\n      0x00\n        /* \"#utility.yul\":7881:7896   */\n      revert\n        /* \"#utility.yul\":7908:8025   */\n    tag_77:\n        /* \"#utility.yul\":8017:8018   */\n      0x00\n        /* \"#utility.yul\":8014:8015   */\n      dup1\n        /* \"#utility.yul\":8007:8019   */\n      revert\n        /* \"#utility.yul\":8031:8148   */\n    tag_52:\n        /* \"#utility.yul\":8140:8141   */\n      0x00\n        /* \"#utility.yul\":8137:8138   */\n      dup1\n        /* \"#utility.yul\":8130:8142   */\n      revert\n        /* \"#utility.yul\":8154:8271   */\n    tag_97:\n        /* \"#utility.yul\":8263:8264   */\n      0x00\n        /* \"#utility.yul\":8260:8261   */\n      dup1\n        /* \"#utility.yul\":8253:8265   */\n      revert\n        /* \"#utility.yul\":8277:8394   */\n    tag_94:\n        /* \"#utility.yul\":8386:8387   */\n      0x00\n        /* \"#utility.yul\":8383:8384   */\n      dup1\n        /* \"#utility.yul\":8376:8388   */\n      revert\n        /* \"#utility.yul\":8400:8502   */\n    tag_143:\n        /* \"#utility.yul\":8441:8447   */\n      0x00\n        /* \"#utility.yul\":8492:8494   */\n      0x1f\n        /* \"#utility.yul\":8488:8495   */\n      not\n        /* \"#utility.yul\":8483:8485   */\n      0x1f\n        /* \"#utility.yul\":8476:8481   */\n      dup4\n        /* \"#utility.yul\":8472:8486   */\n      add\n        /* \"#utility.yul\":8468:8496   */\n      and\n        /* \"#utility.yul\":8458:8496   */\n      swap1\n      pop\n        /* \"#utility.yul\":8400:8502   */\n      swap2\n      swap1\n      pop\n      jump\t// out\n        /* \"#utility.yul\":8508:8672   */\n    tag_115:\n        /* \"#utility.yul\":8648:8664   */\n      0x496e76616c6964204d6174696321000000000000000000000000000000000000\n        /* \"#utility.yul\":8644:8645   */\n      0x00\n        /* \"#utility.yul\":8636:8642   */\n      dup3\n        /* \"#utility.yul\":8632:8646   */\n      add\n        /* \"#utility.yul\":8625:8665   */\n      mstore\n        /* \"#utility.yul\":8508:8672   */\n      pop\n      jump\t// out\n        /* \"#utility.yul\":8678:8800   */\n    tag_72:\n        /* \"#utility.yul\":8751:8775   */\n      tag_161\n        /* \"#utility.yul\":8769:8774   */\n      dup2\n        /* \"#utility.yul\":8751:8775   */\n      tag_131\n      jump\t// in\n    tag_161:\n        /* \"#utility.yul\":8744:8749   */\n      dup2\n        /* \"#utility.yul\":8741:8776   */\n      eq\n        /* \"#utility.yul\":8731:8794   */\n      tag_162\n      jumpi\n        /* \"#utility.yul\":8790:8791   */\n      0x00\n        /* \"#utility.yul\":8787:8788   */\n      dup1\n        /* \"#utility.yul\":8780:8792   */\n      revert\n        /* \"#utility.yul\":8731:8794   */\n    tag_162:\n        /* \"#utility.yul\":8678:8800   */\n      pop\n      jump\t// out\n        /* \"#utility.yul\":8806:8980   */\n    tag_87:\n        /* \"#utility.yul\":8905:8955   */\n      tag_164\n        /* \"#utility.yul\":8949:8954   */\n      dup2\n        /* \"#utility.yul\":8905:8955   */\n      tag_135\n      jump\t// in\n    tag_164:\n        /* \"#utility.yul\":8898:8903   */\n      dup2\n        /* \"#utility.yul\":8895:8956   */\n      eq\n        /* \"#utility.yul\":8885:8974   */\n      tag_165\n      jumpi\n        /* \"#utility.yul\":8970:8971   */\n      0x00\n        /* \"#utility.yul\":8967:8968   */\n      dup1\n        /* \"#utility.yul\":8960:8972   */\n      revert\n        /* \"#utility.yul\":8885:8974   */\n    tag_165:\n        /* \"#utility.yul\":8806:8980   */\n      pop\n      jump\t// out\n        /* \"#utility.yul\":8986:9108   */\n    tag_90:\n        /* \"#utility.yul\":9059:9083   */\n      tag_167\n        /* \"#utility.yul\":9077:9082   */\n      dup2\n        /* \"#utility.yul\":9059:9083   */\n      tag_139\n      jump\t// in\n    tag_167:\n        /* \"#utility.yul\":9052:9057   */\n      dup2\n        /* \"#utility.yul\":9049:9084   */\n      eq\n        /* \"#utility.yul\":9039:9102   */\n      tag_168\n      jumpi\n        /* \"#utility.yul\":9098:9099   */\n      0x00\n        /* \"#utility.yul\":9095:9096   */\n      dup1\n        /* \"#utility.yul\":9088:9100   */\n      revert\n        /* \"#utility.yul\":9039:9102   */\n    tag_168:\n        /* \"#utility.yul\":8986:9108   */\n      pop\n      jump\t// out\n\n    auxdata: 0xa2646970667358221220a115c8de8a0b2851c9ab94654875105d015622f4f60fd6b5d51b50727fda72c464736f6c63430008070033\n}\n",
				"bytecode": {
					"linkReferences": {},
					"object": "608060405234801561001057600080fd5b5061089f806100206000396000f3fe6080604052600436106100295760003560e01c806390482d721461002e5780639728d85f14610057575b600080fd5b34801561003a57600080fd5b5061005560048036038101906100509190610541565b610073565b005b610071600480360381019061006c91906104c9565b610111565b005b82600190805190602001906100899291906102a7565b5081600260006101000a81548173ffffffffffffffffffffffffffffffffffffffff021916908373ffffffffffffffffffffffffffffffffffffffff16021790555080600360006101000a81548173ffffffffffffffffffffffffffffffffffffffff021916908373ffffffffffffffffffffffffffffffffffffffff160217905550505050565b6000825190506000341161015a576040517f08c379a0000000000000000000000000000000000000000000000000000000008152600401610151906105d3565b60405180910390fd5b60005b818110156102a1576000600267ffffffffffffffff811115610182576101816107a7565b5b6040519080825280602002602001820160405280156101b05781602001602082028036833780820191505090505b509050600360009054906101000a900473ffffffffffffffffffffffffffffffffffffffff16816000815181106101ea576101e9610778565b5b602002602001019073ffffffffffffffffffffffffffffffffffffffff16908173ffffffffffffffffffffffffffffffffffffffff168152505084828151811061023757610236610778565b5b60200260200101518160018151811061025357610252610778565b5b602002602001019073ffffffffffffffffffffffffffffffffffffffff16908173ffffffffffffffffffffffffffffffffffffffff168152505050808061029990610700565b91505061015d565b50505050565b828054828255906000526020600020908101928215610320579160200282015b8281111561031f5782518260006101000a81548173ffffffffffffffffffffffffffffffffffffffff021916908373ffffffffffffffffffffffffffffffffffffffff160217905550916020019190600101906102c7565b5b50905061032d9190610331565b5090565b5b8082111561034a576000816000905550600101610332565b5090565b600061036161035c84610618565b6105f3565b90508083825260208201905082856020860282011115610384576103836107db565b5b60005b858110156103b4578161039a888261042e565b845260208401935060208301925050600181019050610387565b5050509392505050565b60006103d16103cc84610644565b6105f3565b905080838252602082019050828560208602820111156103f4576103f36107db565b5b60005b85811015610424578161040a88826104b4565b8452602084019350602083019250506001810190506103f7565b5050509392505050565b60008135905061043d81610824565b92915050565b600082601f830112610458576104576107d6565b5b813561046884826020860161034e565b91505092915050565b600082601f830112610486576104856107d6565b5b81356104968482602086016103be565b91505092915050565b6000813590506104ae8161083b565b92915050565b6000813590506104c381610852565b92915050565b600080604083850312156104e0576104df6107e5565b5b600083013567ffffffffffffffff8111156104fe576104fd6107e0565b5b61050a85828601610443565b925050602083013567ffffffffffffffff81111561052b5761052a6107e0565b5b61053785828601610471565b9150509250929050565b60008060006060848603121561055a576105596107e5565b5b600084013567ffffffffffffffff811115610578576105776107e0565b5b61058486828701610443565b93505060206105958682870161049f565b92505060406105a68682870161042e565b9150509250925092565b60006105bd600e83610670565b91506105c8826107fb565b602082019050919050565b600060208201905081810360008301526105ec816105b0565b9050919050565b60006105fd61060e565b905061060982826106cf565b919050565b6000604051905090565b600067ffffffffffffffff821115610633576106326107a7565b5b602082029050602081019050919050565b600067ffffffffffffffff82111561065f5761065e6107a7565b5b602082029050602081019050919050565b600082825260208201905092915050565b600061068c826106a5565b9050919050565b600061069e82610681565b9050919050565b600073ffffffffffffffffffffffffffffffffffffffff82169050919050565b6000819050919050565b6106d8826107ea565b810181811067ffffffffffffffff821117156106f7576106f66107a7565b5b80604052505050565b600061070b826106c5565b91507fffffffffffffffffffffffffffffffffffffffffffffffffffffffffffffffff82141561073e5761073d610749565b5b600182019050919050565b7f4e487b7100000000000000000000000000000000000000000000000000000000600052601160045260246000fd5b7f4e487b7100000000000000000000000000000000000000000000000000000000600052603260045260246000fd5b7f4e487b7100000000000000000000000000000000000000000000000000000000600052604160045260246000fd5b600080fd5b600080fd5b600080fd5b600080fd5b6000601f19601f8301169050919050565b7f496e76616c6964204d6174696321000000000000000000000000000000000000600082015250565b61082d81610681565b811461083857600080fd5b50565b61084481610693565b811461084f57600080fd5b50565b61085b816106c5565b811461086657600080fd5b5056fea2646970667358221220a115c8de8a0b2851c9ab94654875105d015622f4f60fd6b5d51b50727fda72c464736f6c63430008070033",
					"opcodes": "PUSH1 0x80 PUSH1 0x40 MSTORE CALLVALUE DUP1 ISZERO PUSH2 0x10 JUMPI PUSH1 0x0 DUP1 REVERT JUMPDEST POP PUSH2 0x89F DUP1 PUSH2 0x20 PUSH1 0x0 CODECOPY PUSH1 0x0 RETURN INVALID PUSH1 0x80 PUSH1 0x40 MSTORE PUSH1 0x4 CALLDATASIZE LT PUSH2 0x29 JUMPI PUSH1 0x0 CALLDATALOAD PUSH1 0xE0 SHR DUP1 PUSH4 0x90482D72 EQ PUSH2 0x2E JUMPI DUP1 PUSH4 0x9728D85F EQ PUSH2 0x57 JUMPI JUMPDEST PUSH1 0x0 DUP1 REVERT JUMPDEST CALLVALUE DUP1 ISZERO PUSH2 0x3A JUMPI PUSH1 0x0 DUP1 REVERT JUMPDEST POP PUSH2 0x55 PUSH1 0x4 DUP1 CALLDATASIZE SUB DUP2 ADD SWAP1 PUSH2 0x50 SWAP2 SWAP1 PUSH2 0x541 JUMP JUMPDEST PUSH2 0x73 JUMP JUMPDEST STOP JUMPDEST PUSH2 0x71 PUSH1 0x4 DUP1 CALLDATASIZE SUB DUP2 ADD SWAP1 PUSH2 0x6C SWAP2 SWAP1 PUSH2 0x4C9 JUMP JUMPDEST PUSH2 0x111 JUMP JUMPDEST STOP JUMPDEST DUP3 PUSH1 0x1 SWAP1 DUP1 MLOAD SWAP1 PUSH1 0x20 ADD SWAP1 PUSH2 0x89 SWAP3 SWAP2 SWAP1 PUSH2 0x2A7 JUMP JUMPDEST POP DUP2 PUSH1 0x2 PUSH1 0x0 PUSH2 0x100 EXP DUP2 SLOAD DUP2 PUSH20 0xFFFFFFFFFFFFFFFFFFFFFFFFFFFFFFFFFFFFFFFF MUL NOT AND SWAP1 DUP4 PUSH20 0xFFFFFFFFFFFFFFFFFFFFFFFFFFFFFFFFFFFFFFFF AND MUL OR SWAP1 SSTORE POP DUP1 PUSH1 0x3 PUSH1 0x0 PUSH2 0x100 EXP DUP2 SLOAD DUP2 PUSH20 0xFFFFFFFFFFFFFFFFFFFFFFFFFFFFFFFFFFFFFFFF MUL NOT AND SWAP1 DUP4 PUSH20 0xFFFFFFFFFFFFFFFFFFFFFFFFFFFFFFFFFFFFFFFF AND MUL OR SWAP1 SSTORE POP POP POP POP JUMP JUMPDEST PUSH1 0x0 DUP3 MLOAD SWAP1 POP PUSH1 0x0 CALLVALUE GT PUSH2 0x15A JUMPI PUSH1 0x40 MLOAD PUSH32 0x8C379A000000000000000000000000000000000000000000000000000000000 DUP2 MSTORE PUSH1 0x4 ADD PUSH2 0x151 SWAP1 PUSH2 0x5D3 JUMP JUMPDEST PUSH1 0x40 MLOAD DUP1 SWAP2 SUB SWAP1 REVERT JUMPDEST PUSH1 0x0 JUMPDEST DUP2 DUP2 LT ISZERO PUSH2 0x2A1 JUMPI PUSH1 0x0 PUSH1 0x2 PUSH8 0xFFFFFFFFFFFFFFFF DUP2 GT ISZERO PUSH2 0x182 JUMPI PUSH2 0x181 PUSH2 0x7A7 JUMP JUMPDEST JUMPDEST PUSH1 0x40 MLOAD SWAP1 DUP1 DUP3 MSTORE DUP1 PUSH1 0x20 MUL PUSH1 0x20 ADD DUP3 ADD PUSH1 0x40 MSTORE DUP1 ISZERO PUSH2 0x1B0 JUMPI DUP2 PUSH1 0x20 ADD PUSH1 0x20 DUP3 MUL DUP1 CALLDATASIZE DUP4 CALLDATACOPY DUP1 DUP3 ADD SWAP2 POP POP SWAP1 POP JUMPDEST POP SWAP1 POP PUSH1 0x3 PUSH1 0x0 SWAP1 SLOAD SWAP1 PUSH2 0x100 EXP SWAP1 DIV PUSH20 0xFFFFFFFFFFFFFFFFFFFFFFFFFFFFFFFFFFFFFFFF AND DUP2 PUSH1 0x0 DUP2 MLOAD DUP2 LT PUSH2 0x1EA JUMPI PUSH2 0x1E9 PUSH2 0x778 JUMP JUMPDEST JUMPDEST PUSH1 0x20 MUL PUSH1 0x20 ADD ADD SWAP1 PUSH20 0xFFFFFFFFFFFFFFFFFFFFFFFFFFFFFFFFFFFFFFFF AND SWAP1 DUP2 PUSH20 0xFFFFFFFFFFFFFFFFFFFFFFFFFFFFFFFFFFFFFFFF AND DUP2 MSTORE POP POP DUP5 DUP3 DUP2 MLOAD DUP2 LT PUSH2 0x237 JUMPI PUSH2 0x236 PUSH2 0x778 JUMP JUMPDEST JUMPDEST PUSH1 0x20 MUL PUSH1 0x20 ADD ADD MLOAD DUP2 PUSH1 0x1 DUP2 MLOAD DUP2 LT PUSH2 0x253 JUMPI PUSH2 0x252 PUSH2 0x778 JUMP JUMPDEST JUMPDEST PUSH1 0x20 MUL PUSH1 0x20 ADD ADD SWAP1 PUSH20 0xFFFFFFFFFFFFFFFFFFFFFFFFFFFFFFFFFFFFFFFF AND SWAP1 DUP2 PUSH20 0xFFFFFFFFFFFFFFFFFFFFFFFFFFFFFFFFFFFFFFFF AND DUP2 MSTORE POP POP POP DUP1 DUP1 PUSH2 0x299 SWAP1 PUSH2 0x700 JUMP JUMPDEST SWAP2 POP POP PUSH2 0x15D JUMP JUMPDEST POP POP POP POP JUMP JUMPDEST DUP3 DUP1 SLOAD DUP3 DUP3 SSTORE SWAP1 PUSH1 0x0 MSTORE PUSH1 0x20 PUSH1 0x0 KECCAK256 SWAP1 DUP2 ADD SWAP3 DUP3 ISZERO PUSH2 0x320 JUMPI SWAP2 PUSH1 0x20 MUL DUP3 ADD JUMPDEST DUP3 DUP2 GT ISZERO PUSH2 0x31F JUMPI DUP3 MLOAD DUP3 PUSH1 0x0 PUSH2 0x100 EXP DUP2 SLOAD DUP2 PUSH20 0xFFFFFFFFFFFFFFFFFFFFFFFFFFFFFFFFFFFFFFFF MUL NOT AND SWAP1 DUP4 PUSH20 0xFFFFFFFFFFFFFFFFFFFFFFFFFFFFFFFFFFFFFFFF AND MUL OR SWAP1 SSTORE POP SWAP2 PUSH1 0x20 ADD SWAP2 SWAP1 PUSH1 0x1 ADD SWAP1 PUSH2 0x2C7 JUMP JUMPDEST JUMPDEST POP SWAP1 POP PUSH2 0x32D SWAP2 SWAP1 PUSH2 0x331 JUMP JUMPDEST POP SWAP1 JUMP JUMPDEST JUMPDEST DUP1 DUP3 GT ISZERO PUSH2 0x34A JUMPI PUSH1 0x0 DUP2 PUSH1 0x0 SWAP1 SSTORE POP PUSH1 0x1 ADD PUSH2 0x332 JUMP JUMPDEST POP SWAP1 JUMP JUMPDEST PUSH1 0x0 PUSH2 0x361 PUSH2 0x35C DUP5 PUSH2 0x618 JUMP JUMPDEST PUSH2 0x5F3 JUMP JUMPDEST SWAP1 POP DUP1 DUP4 DUP3 MSTORE PUSH1 0x20 DUP3 ADD SWAP1 POP DUP3 DUP6 PUSH1 0x20 DUP7 MUL DUP3 ADD GT ISZERO PUSH2 0x384 JUMPI PUSH2 0x383 PUSH2 0x7DB JUMP JUMPDEST JUMPDEST PUSH1 0x0 JUMPDEST DUP6 DUP2 LT ISZERO PUSH2 0x3B4 JUMPI DUP2 PUSH2 0x39A DUP9 DUP3 PUSH2 0x42E JUMP JUMPDEST DUP5 MSTORE PUSH1 0x20 DUP5 ADD SWAP4 POP PUSH1 0x20 DUP4 ADD SWAP3 POP POP PUSH1 0x1 DUP2 ADD SWAP1 POP PUSH2 0x387 JUMP JUMPDEST POP POP POP SWAP4 SWAP3 POP POP POP JUMP JUMPDEST PUSH1 0x0 PUSH2 0x3D1 PUSH2 0x3CC DUP5 PUSH2 0x644 JUMP JUMPDEST PUSH2 0x5F3 JUMP JUMPDEST SWAP1 POP DUP1 DUP4 DUP3 MSTORE PUSH1 0x20 DUP3 ADD SWAP1 POP DUP3 DUP6 PUSH1 0x20 DUP7 MUL DUP3 ADD GT ISZERO PUSH2 0x3F4 JUMPI PUSH2 0x3F3 PUSH2 0x7DB JUMP JUMPDEST JUMPDEST PUSH1 0x0 JUMPDEST DUP6 DUP2 LT ISZERO PUSH2 0x424 JUMPI DUP2 PUSH2 0x40A DUP9 DUP3 PUSH2 0x4B4 JUMP JUMPDEST DUP5 MSTORE PUSH1 0x20 DUP5 ADD SWAP4 POP PUSH1 0x20 DUP4 ADD SWAP3 POP POP PUSH1 0x1 DUP2 ADD SWAP1 POP PUSH2 0x3F7 JUMP JUMPDEST POP POP POP SWAP4 SWAP3 POP POP POP JUMP JUMPDEST PUSH1 0x0 DUP2 CALLDATALOAD SWAP1 POP PUSH2 0x43D DUP2 PUSH2 0x824 JUMP JUMPDEST SWAP3 SWAP2 POP POP JUMP JUMPDEST PUSH1 0x0 DUP3 PUSH1 0x1F DUP4 ADD SLT PUSH2 0x458 JUMPI PUSH2 0x457 PUSH2 0x7D6 JUMP JUMPDEST JUMPDEST DUP2 CALLDATALOAD PUSH2 0x468 DUP5 DUP3 PUSH1 0x20 DUP7 ADD PUSH2 0x34E JUMP JUMPDEST SWAP2 POP POP SWAP3 SWAP2 POP POP JUMP JUMPDEST PUSH1 0x0 DUP3 PUSH1 0x1F DUP4 ADD SLT PUSH2 0x486 JUMPI PUSH2 0x485 PUSH2 0x7D6 JUMP JUMPDEST JUMPDEST DUP2 CALLDATALOAD PUSH2 0x496 DUP5 DUP3 PUSH1 0x20 DUP7 ADD PUSH2 0x3BE JUMP JUMPDEST SWAP2 POP POP SWAP3 SWAP2 POP POP JUMP JUMPDEST PUSH1 0x0 DUP2 CALLDATALOAD SWAP1 POP PUSH2 0x4AE DUP2 PUSH2 0x83B JUMP JUMPDEST SWAP3 SWAP2 POP POP JUMP JUMPDEST PUSH1 0x0 DUP2 CALLDATALOAD SWAP1 POP PUSH2 0x4C3 DUP2 PUSH2 0x852 JUMP JUMPDEST SWAP3 SWAP2 POP POP JUMP JUMPDEST PUSH1 0x0 DUP1 PUSH1 0x40 DUP4 DUP6 SUB SLT ISZERO PUSH2 0x4E0 JUMPI PUSH2 0x4DF PUSH2 0x7E5 JUMP JUMPDEST JUMPDEST PUSH1 0x0 DUP4 ADD CALLDATALOAD PUSH8 0xFFFFFFFFFFFFFFFF DUP2 GT ISZERO PUSH2 0x4FE JUMPI PUSH2 0x4FD PUSH2 0x7E0 JUMP JUMPDEST JUMPDEST PUSH2 0x50A DUP6 DUP3 DUP7 ADD PUSH2 0x443 JUMP JUMPDEST SWAP3 POP POP PUSH1 0x20 DUP4 ADD CALLDATALOAD PUSH8 0xFFFFFFFFFFFFFFFF DUP2 GT ISZERO PUSH2 0x52B JUMPI PUSH2 0x52A PUSH2 0x7E0 JUMP JUMPDEST JUMPDEST PUSH2 0x537 DUP6 DUP3 DUP7 ADD PUSH2 0x471 JUMP JUMPDEST SWAP2 POP POP SWAP3 POP SWAP3 SWAP1 POP JUMP JUMPDEST PUSH1 0x0 DUP1 PUSH1 0x0 PUSH1 0x60 DUP5 DUP7 SUB SLT ISZERO PUSH2 0x55A JUMPI PUSH2 0x559 PUSH2 0x7E5 JUMP JUMPDEST JUMPDEST PUSH1 0x0 DUP5 ADD CALLDATALOAD PUSH8 0xFFFFFFFFFFFFFFFF DUP2 GT ISZERO PUSH2 0x578 JUMPI PUSH2 0x577 PUSH2 0x7E0 JUMP JUMPDEST JUMPDEST PUSH2 0x584 DUP7 DUP3 DUP8 ADD PUSH2 0x443 JUMP JUMPDEST SWAP4 POP POP PUSH1 0x20 PUSH2 0x595 DUP7 DUP3 DUP8 ADD PUSH2 0x49F JUMP JUMPDEST SWAP3 POP POP PUSH1 0x40 PUSH2 0x5A6 DUP7 DUP3 DUP8 ADD PUSH2 0x42E JUMP JUMPDEST SWAP2 POP POP SWAP3 POP SWAP3 POP SWAP3 JUMP JUMPDEST PUSH1 0x0 PUSH2 0x5BD PUSH1 0xE DUP4 PUSH2 0x670 JUMP JUMPDEST SWAP2 POP PUSH2 0x5C8 DUP3 PUSH2 0x7FB JUMP JUMPDEST PUSH1 0x20 DUP3 ADD SWAP1 POP SWAP2 SWAP1 POP JUMP JUMPDEST PUSH1 0x0 PUSH1 0x20 DUP3 ADD SWAP1 POP DUP2 DUP2 SUB PUSH1 0x0 DUP4 ADD MSTORE PUSH2 0x5EC DUP2 PUSH2 0x5B0 JUMP JUMPDEST SWAP1 POP SWAP2 SWAP1 POP JUMP JUMPDEST PUSH1 0x0 PUSH2 0x5FD PUSH2 0x60E JUMP JUMPDEST SWAP1 POP PUSH2 0x609 DUP3 DUP3 PUSH2 0x6CF JUMP JUMPDEST SWAP2 SWAP1 POP JUMP JUMPDEST PUSH1 0x0 PUSH1 0x40 MLOAD SWAP1 POP SWAP1 JUMP JUMPDEST PUSH1 0x0 PUSH8 0xFFFFFFFFFFFFFFFF DUP3 GT ISZERO PUSH2 0x633 JUMPI PUSH2 0x632 PUSH2 0x7A7 JUMP JUMPDEST JUMPDEST PUSH1 0x20 DUP3 MUL SWAP1 POP PUSH1 0x20 DUP2 ADD SWAP1 POP SWAP2 SWAP1 POP JUMP JUMPDEST PUSH1 0x0 PUSH8 0xFFFFFFFFFFFFFFFF DUP3 GT ISZERO PUSH2 0x65F JUMPI PUSH2 0x65E PUSH2 0x7A7 JUMP JUMPDEST JUMPDEST PUSH1 0x20 DUP3 MUL SWAP1 POP PUSH1 0x20 DUP2 ADD SWAP1 POP SWAP2 SWAP1 POP JUMP JUMPDEST PUSH1 0x0 DUP3 DUP3 MSTORE PUSH1 0x20 DUP3 ADD SWAP1 POP SWAP3 SWAP2 POP POP JUMP JUMPDEST PUSH1 0x0 PUSH2 0x68C DUP3 PUSH2 0x6A5 JUMP JUMPDEST SWAP1 POP SWAP2 SWAP1 POP JUMP JUMPDEST PUSH1 0x0 PUSH2 0x69E DUP3 PUSH2 0x681 JUMP JUMPDEST SWAP1 POP SWAP2 SWAP1 POP JUMP JUMPDEST PUSH1 0x0 PUSH20 0xFFFFFFFFFFFFFFFFFFFFFFFFFFFFFFFFFFFFFFFF DUP3 AND SWAP1 POP SWAP2 SWAP1 POP JUMP JUMPDEST PUSH1 0x0 DUP2 SWAP1 POP SWAP2 SWAP1 POP JUMP JUMPDEST PUSH2 0x6D8 DUP3 PUSH2 0x7EA JUMP JUMPDEST DUP2 ADD DUP2 DUP2 LT PUSH8 0xFFFFFFFFFFFFFFFF DUP3 GT OR ISZERO PUSH2 0x6F7 JUMPI PUSH2 0x6F6 PUSH2 0x7A7 JUMP JUMPDEST JUMPDEST DUP1 PUSH1 0x40 MSTORE POP POP POP JUMP JUMPDEST PUSH1 0x0 PUSH2 0x70B DUP3 PUSH2 0x6C5 JUMP JUMPDEST SWAP2 POP PUSH32 0xFFFFFFFFFFFFFFFFFFFFFFFFFFFFFFFFFFFFFFFFFFFFFFFFFFFFFFFFFFFFFFFF DUP3 EQ ISZERO PUSH2 0x73E JUMPI PUSH2 0x73D PUSH2 0x749 JUMP JUMPDEST JUMPDEST PUSH1 0x1 DUP3 ADD SWAP1 POP SWAP2 SWAP1 POP JUMP JUMPDEST PUSH32 0x4E487B7100000000000000000000000000000000000000000000000000000000 PUSH1 0x0 MSTORE PUSH1 0x11 PUSH1 0x4 MSTORE PUSH1 0x24 PUSH1 0x0 REVERT JUMPDEST PUSH32 0x4E487B7100000000000000000000000000000000000000000000000000000000 PUSH1 0x0 MSTORE PUSH1 0x32 PUSH1 0x4 MSTORE PUSH1 0x24 PUSH1 0x0 REVERT JUMPDEST PUSH32 0x4E487B7100000000000000000000000000000000000000000000000000000000 PUSH1 0x0 MSTORE PUSH1 0x41 PUSH1 0x4 MSTORE PUSH1 0x24 PUSH1 0x0 REVERT JUMPDEST PUSH1 0x0 DUP1 REVERT JUMPDEST PUSH1 0x0 DUP1 REVERT JUMPDEST PUSH1 0x0 DUP1 REVERT JUMPDEST PUSH1 0x0 DUP1 REVERT JUMPDEST PUSH1 0x0 PUSH1 0x1F NOT PUSH1 0x1F DUP4 ADD AND SWAP1 POP SWAP2 SWAP1 POP JUMP JUMPDEST PUSH32 0x496E76616C6964204D6174696321000000000000000000000000000000000000 PUSH1 0x0 DUP3 ADD MSTORE POP JUMP JUMPDEST PUSH2 0x82D DUP2 PUSH2 0x681 JUMP JUMPDEST DUP2 EQ PUSH2 0x838 JUMPI PUSH1 0x0 DUP1 REVERT JUMPDEST POP JUMP JUMPDEST PUSH2 0x844 DUP2 PUSH2 0x693 JUMP JUMPDEST DUP2 EQ PUSH2 0x84F JUMPI PUSH1 0x0 DUP1 REVERT JUMPDEST POP JUMP JUMPDEST PUSH2 0x85B DUP2 PUSH2 0x6C5 JUMP JUMPDEST DUP2 EQ PUSH2 0x866 JUMPI PUSH1 0x0 DUP1 REVERT JUMPDEST POP JUMP INVALID LOG2 PUSH5 0x6970667358 0x22 SLT KECCAK256 LOG1 ISZERO 0xC8 0xDE DUP11 SIGNEXTEND 0x28 MLOAD 0xC9 0xAB SWAP5 PUSH6 0x4875105D0156 0x22 DELEGATECALL 0xF6 0xF 0xD6 0xB5 0xD5 SHL POP PUSH19 0x7FDA72C464736F6C6343000807003300000000 "
				},
				"gasEstimates": {
					"creation": {
						"codeDepositCost": "441400",
						"executionCost": "474",
						"totalCost": "441874"
					},
					"external": {
						"initialize(address[],address,address)": "infinite",
						"swapAndPay(address[],uint256[])": "infinite"
					}
				},
				"methodIdentifiers": {
					"initialize(address[],address,address)": "90482d72",
					"swapAndPay(address[],uint256[])": "9728d85f"
				}
			},
			"storageLayout": {
				"storage": [
					{
						"astId": 6,
						"contract": "contracts/defi.sol:Cheddar",
						"label": "_initialized",
						"offset": 0,
						"slot": "0",
						"type": "t_bool"
					},
					{
						"astId": 9,
						"contract": "contracts/defi.sol:Cheddar",
						"label": "_initializing",
						"offset": 1,
						"slot": "0",
						"type": "t_bool"
					},
					{
						"astId": 456,
						"contract": "contracts/defi.sol:Cheddar",
						"label": "tokens",
						"offset": 0,
						"slot": "1",
						"type": "t_array(t_address)dyn_storage"
					},
					{
						"astId": 459,
						"contract": "contracts/defi.sol:Cheddar",
						"label": "router",
						"offset": 0,
						"slot": "2",
						"type": "t_contract(IUniswapV2Router02)948"
					},
					{
						"astId": 461,
						"contract": "contracts/defi.sol:Cheddar",
						"label": "wrappedMatic",
						"offset": 0,
						"slot": "3",
						"type": "t_address"
					}
				],
				"types": {
					"t_address": {
						"encoding": "inplace",
						"label": "address",
						"numberOfBytes": "20"
					},
					"t_array(t_address)dyn_storage": {
						"base": "t_address",
						"encoding": "dynamic_array",
						"label": "address[]",
						"numberOfBytes": "32"
					},
					"t_bool": {
						"encoding": "inplace",
						"label": "bool",
						"numberOfBytes": "1"
					},
					"t_contract(IUniswapV2Router02)948": {
						"encoding": "inplace",
						"label": "contract IUniswapV2Router02",
						"numberOfBytes": "20"
					}
				}
			},
			"userdoc": {
				"kind": "user",
				"methods": {},
				"version": 1
			}
		}
	}
}