{
  "_format": "hh-sol-artifact-1",
  "contractName": "testuniswapliquidity",
  "sourceName": "contracts/ltwo.sol",
  "abi": [
    {
      "inputs": [
        {
          "internalType": "address",
          "name": "factory",
          "type": "address"
        },
        {
          "internalType": "address",
          "name": "router",
          "type": "address"
        }
      ],
      "stateMutability": "nonpayable",
      "type": "constructor"
    },
    {
      "anonymous": false,
      "inputs": [
        {
          "indexed": false,
          "internalType": "string",
          "name": "message",
          "type": "string"
        },
        {
          "indexed": false,
          "internalType": "uint256",
          "name": "value",
          "type": "uint256"
        }
      ],
      "name": "Log",
      "type": "event"
    },
    {
      "inputs": [
        {
          "internalType": "address",
          "name": "_tokenA",
          "type": "address"
        },
        {
          "internalType": "address",
          "name": "_tokenB",
          "type": "address"
        },
        {
          "internalType": "uint256",
          "name": "_amountA",
          "type": "uint256"
        },
        {
          "internalType": "uint256",
          "name": "_amountB",
          "type": "uint256"
        }
      ],
      "name": "addliquidity",
      "outputs": [],
      "stateMutability": "nonpayable",
      "type": "function"
    },
    {
      "inputs": [
        {
          "internalType": "address",
          "name": "tokenadrs",
          "type": "address"
        },
        {
          "internalType": "address",
          "name": "ltwoadrs",
          "type": "address"
        }
      ],
      "name": "collectedfee",
      "outputs": [
        {
          "internalType": "uint256",
          "name": "",
          "type": "uint256"
        }
      ],
      "stateMutability": "view",
      "type": "function"
    },
    {
      "inputs": [],
      "name": "feeprcnt",
      "outputs": [
        {
          "internalType": "uint256",
          "name": "",
          "type": "uint256"
        }
      ],
      "stateMutability": "view",
      "type": "function"
    },
    {
      "inputs": [
        {
          "internalType": "address",
          "name": "_tokenIn",
          "type": "address"
        },
        {
          "internalType": "address",
          "name": "_tokenOut",
          "type": "address"
        },
        {
          "internalType": "uint256",
          "name": "_amountIn",
          "type": "uint256"
        }
      ],
      "name": "getAmountOutMin",
      "outputs": [
        {
          "internalType": "uint256",
          "name": "",
          "type": "uint256"
        }
      ],
      "stateMutability": "view",
      "type": "function"
    },
    {
      "inputs": [],
      "name": "getreseves",
      "outputs": [
        {
          "internalType": "uint112",
          "name": "r1",
          "type": "uint112"
        },
        {
          "internalType": "uint112",
          "name": "r2",
          "type": "uint112"
        },
        {
          "internalType": "uint32",
          "name": "b",
          "type": "uint32"
        }
      ],
      "stateMutability": "view",
      "type": "function"
    },
    {
      "inputs": [
        {
          "internalType": "address",
          "name": "_tokenA",
          "type": "address"
        },
        {
          "internalType": "address",
          "name": "_tokenB",
          "type": "address"
        }
      ],
      "name": "removeLiquidity",
      "outputs": [],
      "stateMutability": "nonpayable",
      "type": "function"
    },
    {
      "inputs": [
        {
          "internalType": "uint256",
          "name": "_feeprcnt",
          "type": "uint256"
        }
      ],
      "name": "setperc",
      "outputs": [],
      "stateMutability": "nonpayable",
      "type": "function"
    },
    {
      "inputs": [
        {
          "internalType": "address[]",
          "name": "path",
          "type": "address[]"
        },
        {
          "internalType": "uint256",
          "name": "_amountIn",
          "type": "uint256"
        },
        {
          "internalType": "uint256",
          "name": "_amountOutMin",
          "type": "uint256"
        },
        {
          "internalType": "address",
          "name": "_to",
          "type": "address"
        }
      ],
      "name": "swap",
      "outputs": [],
      "stateMutability": "nonpayable",
      "type": "function"
    }
  ],
  "bytecode": "0x60806040523480156200001157600080fd5b50604051620023a4380380620023a48339818101604052810190620000379190620000d7565b816000806101000a81548173ffffffffffffffffffffffffffffffffffffffff021916908373ffffffffffffffffffffffffffffffffffffffff16021790555080600160006101000a81548173ffffffffffffffffffffffffffffffffffffffff021916908373ffffffffffffffffffffffffffffffffffffffff160217905550505062000171565b600081519050620000d18162000157565b92915050565b60008060408385031215620000f157620000f062000152565b5b60006200010185828601620000c0565b92505060206200011485828601620000c0565b9150509250929050565b60006200012b8262000132565b9050919050565b600073ffffffffffffffffffffffffffffffffffffffff82169050919050565b600080fd5b62000162816200011e565b81146200016e57600080fd5b50565b61222380620001816000396000f3fe608060405234801561001057600080fd5b50600436106100885760003560e01c80636023e9661161005b5780636023e966146101175780639cf38f7c14610133578063afee99681461014f578063e42c39871461016b57610088565b806302630a821461008d57806339e7ece1146100ad5780633c50eec1146100cb578063550c5478146100fb575b600080fd5b61009561019b565b6040516100a493929190611c44565b60405180910390f35b6100b5610251565b6040516100c29190611c7b565b60405180910390f35b6100e560048036038101906100e09190611580565b610257565b6040516100f29190611c7b565b60405180910390f35b610115600480360381019061011091906115d3565b610650565b005b610131600480360381019061012c919061163a565b6109a2565b005b61014d60048036038101906101489190611540565b610d02565b005b61016960048036038101906101649190611786565b611066565b005b61018560048036038101906101809190611540565b611070565b6040516101929190611c7b565b60405180910390f35b6000806000600360009054906101000a900473ffffffffffffffffffffffffffffffffffffffff1673ffffffffffffffffffffffffffffffffffffffff16630902f1ac6040518163ffffffff1660e01b815260040160606040518083038186803b15801561020857600080fd5b505afa15801561021c573d6000803e3d6000fd5b505050506040513d601f19601f820116820180604052508101906102409190611733565b809350819450829550505050909192565b60055481565b60006060600260009054906101000a900473ffffffffffffffffffffffffffffffffffffffff1673ffffffffffffffffffffffffffffffffffffffff168573ffffffffffffffffffffffffffffffffffffffff1614806103045750600260009054906101000a900473ffffffffffffffffffffffffffffffffffffffff1673ffffffffffffffffffffffffffffffffffffffff168473ffffffffffffffffffffffffffffffffffffffff16145b156103f857600267ffffffffffffffff8111156103245761032361207c565b5b6040519080825280602002602001820160405280156103525781602001602082028036833780820191505090505b509050848160008151811061036a5761036961204d565b5b602002602001019073ffffffffffffffffffffffffffffffffffffffff16908173ffffffffffffffffffffffffffffffffffffffff168152505083816001815181106103b9576103b861204d565b5b602002602001019073ffffffffffffffffffffffffffffffffffffffff16908173ffffffffffffffffffffffffffffffffffffffff1681525050610554565b600367ffffffffffffffff8111156104135761041261207c565b5b6040519080825280602002602001820160405280156104415781602001602082028036833780820191505090505b50905084816000815181106104595761045861204d565b5b602002602001019073ffffffffffffffffffffffffffffffffffffffff16908173ffffffffffffffffffffffffffffffffffffffff1681525050600260009054906101000a900473ffffffffffffffffffffffffffffffffffffffff16816001815181106104ca576104c961204d565b5b602002602001019073ffffffffffffffffffffffffffffffffffffffff16908173ffffffffffffffffffffffffffffffffffffffff168152505083816002815181106105195761051861204d565b5b602002602001019073ffffffffffffffffffffffffffffffffffffffff16908173ffffffffffffffffffffffffffffffffffffffff16815250505b6000600454846105649190611ed3565b90506000600160009054906101000a900473ffffffffffffffffffffffffffffffffffffffff1673ffffffffffffffffffffffffffffffffffffffff1663d06ca61f83856040518363ffffffff1660e01b81526004016105c5929190611c96565b60006040518083038186803b1580156105dd57600080fd5b505afa1580156105f1573d6000803e3d6000fd5b505050506040513d6000823e3d601f19601f8201168201806040525081019061061a91906116bd565b9050806001845161062b9190611ed3565b8151811061063c5761063b61204d565b5b602002602001015193505050509392505050565b8373ffffffffffffffffffffffffffffffffffffffff166323b872dd3330856040518463ffffffff1660e01b815260040161068d93929190611a29565b602060405180830381600087803b1580156106a757600080fd5b505af11580156106bb573d6000803e3d6000fd5b505050506040513d601f19601f820116820180604052508101906106df9190611706565b508273ffffffffffffffffffffffffffffffffffffffff166323b872dd3330846040518463ffffffff1660e01b815260040161071d93929190611a29565b602060405180830381600087803b15801561073757600080fd5b505af115801561074b573d6000803e3d6000fd5b505050506040513d601f19601f8201168201806040525081019061076f9190611706565b508373ffffffffffffffffffffffffffffffffffffffff1663095ea7b3600160009054906101000a900473ffffffffffffffffffffffffffffffffffffffff16846040518363ffffffff1660e01b81526004016107cd929190611b4d565b602060405180830381600087803b1580156107e757600080fd5b505af11580156107fb573d6000803e3d6000fd5b505050506040513d601f19601f8201168201806040525081019061081f9190611706565b508273ffffffffffffffffffffffffffffffffffffffff1663095ea7b3600160009054906101000a900473ffffffffffffffffffffffffffffffffffffffff16836040518363ffffffff1660e01b815260040161087d929190611b4d565b602060405180830381600087803b15801561089757600080fd5b505af11580156108ab573d6000803e3d6000fd5b505050506040513d601f19601f820116820180604052508101906108cf9190611706565b50600160009054906101000a900473ffffffffffffffffffffffffffffffffffffffff1673ffffffffffffffffffffffffffffffffffffffff1663e8e33700858585856001803061012c426109249190611df2565b6040518963ffffffff1660e01b8152600401610947989796959493929190611acf565b606060405180830381600087803b15801561096157600080fd5b505af1158015610975573d6000803e3d6000fd5b505050506040513d601f19601f820116820180604052508101906109999190611820565b50505050505050565b836000815181106109b6576109b561204d565b5b602002602001015173ffffffffffffffffffffffffffffffffffffffff166323b872dd3330866040518463ffffffff1660e01b81526004016109fa93929190611a29565b602060405180830381600087803b158015610a1457600080fd5b505af1158015610a28573d6000803e3d6000fd5b505050506040513d601f19601f82011682018060405250810190610a4c9190611706565b50610a8c6040518060400160405280600381526020017f6d7367000000000000000000000000000000000000000000000000000000000081525033611141565b610acb6040518060400160405280600481526020017f746869730000000000000000000000000000000000000000000000000000000081525030611141565b610ad4836111dd565b600481905550600060045484610aea9190611ed3565b905084600081518110610b0057610aff61204d565b5b602002602001015173ffffffffffffffffffffffffffffffffffffffff1663095ea7b3600160009054906101000a900473ffffffffffffffffffffffffffffffffffffffff16836040518363ffffffff1660e01b8152600401610b64929190611b4d565b602060405180830381600087803b158015610b7e57600080fd5b505af1158015610b92573d6000803e3d6000fd5b505050506040513d601f19601f82011682018060405250810190610bb69190611706565b50610bf56040518060400160405280600881526020017f616d6f756e74696e00000000000000000000000000000000000000000000000081525061125b565b600160009054906101000a900473ffffffffffffffffffffffffffffffffffffffff1673ffffffffffffffffffffffffffffffffffffffff166338ed17398285888661012c42610c459190611df2565b6040518663ffffffff1660e01b8152600401610c65959493929190611cc6565b600060405180830381600087803b158015610c7f57600080fd5b505af1158015610c93573d6000803e3d6000fd5b505050506040513d6000823e3d601f19601f82011682018060405250810190610cbc91906116bd565b50610cfb6040518060400160405280600581526020017f746573743400000000000000000000000000000000000000000000000000000081525061125b565b5050505050565b60008060009054906101000a900473ffffffffffffffffffffffffffffffffffffffff1673ffffffffffffffffffffffffffffffffffffffff1663e6a4390584846040518363ffffffff1660e01b8152600401610d60929190611a00565b60206040518083038186803b158015610d7857600080fd5b505afa158015610d8c573d6000803e3d6000fd5b505050506040513d601f19601f82011682018060405250810190610db09190611513565b905080600360006101000a81548173ffffffffffffffffffffffffffffffffffffffff021916908373ffffffffffffffffffffffffffffffffffffffff16021790555060008173ffffffffffffffffffffffffffffffffffffffff166370a08231306040518263ffffffff1660e01b8152600401610e2e91906119e5565b60206040518083038186803b158015610e4657600080fd5b505afa158015610e5a573d6000803e3d6000fd5b505050506040513d601f19601f82011682018060405250810190610e7e91906117b3565b90508173ffffffffffffffffffffffffffffffffffffffff1663095ea7b3600160009054906101000a900473ffffffffffffffffffffffffffffffffffffffff16836040518363ffffffff1660e01b8152600401610edd929190611b4d565b602060405180830381600087803b158015610ef757600080fd5b505af1158015610f0b573d6000803e3d6000fd5b505050506040513d601f19601f82011682018060405250810190610f2f9190611706565b50600080600160009054906101000a900473ffffffffffffffffffffffffffffffffffffffff1673ffffffffffffffffffffffffffffffffffffffff1663baa2abde87878660018033426040518863ffffffff1660e01b8152600401610f9b9796959493929190611a60565b6040805180830381600087803b158015610fb457600080fd5b505af1158015610fc8573d6000803e3d6000fd5b505050506040513d601f19601f82011682018060405250810190610fec91906117e0565b915091507fdd970dd9b5bfe707922155b058a407655cb18288b807e2216442bca8ad83d6b58260405161101f9190611bc8565b60405180910390a17fdd970dd9b5bfe707922155b058a407655cb18288b807e2216442bca8ad83d6b5816040516110569190611c16565b60405180910390a1505050505050565b8060058190555050565b60006110b06040518060400160405280600581526020017f746573743200000000000000000000000000000000000000000000000000000081525061125b565b8273ffffffffffffffffffffffffffffffffffffffff166370a08231836040518263ffffffff1660e01b81526004016110e991906119e5565b60206040518083038186803b15801561110157600080fd5b505afa158015611115573d6000803e3d6000fd5b505050506040513d601f19601f8201168201806040525081019061113991906117b3565b905092915050565b6111d98282604051602401611157929190611b98565b6040516020818303038152906040527f319af333000000000000000000000000000000000000000000000000000000007bffffffffffffffffffffffffffffffffffffffffffffffffffffffff19166020820180517bffffffffffffffffffffffffffffffffffffffffffffffffffffffff83818316178352505050506112f4565b5050565b60008161271080846111ef9190611e48565b6111f99190611e79565b14611239576040517f08c379a000000000000000000000000000000000000000000000000000000000815260040161123090611bf6565b60405180910390fd5b6127106005548361124a9190611e79565b6112549190611e48565b9050919050565b6112f18160405160240161126f9190611b76565b6040516020818303038152906040527f41304fac000000000000000000000000000000000000000000000000000000007bffffffffffffffffffffffffffffffffffffffffffffffffffffffff19166020820180517bffffffffffffffffffffffffffffffffffffffffffffffffffffffff83818316178352505050506112f4565b50565b61130b8161130361130e61132f565b63ffffffff16565b50565b60006a636f6e736f6c652e6c6f679050600080835160208501845afa505050565b61133a819050919050565b6113426120ab565b565b600061135761135284611d45565b611d20565b9050808382526020820190508285602086028201111561137a576113796120df565b5b60005b858110156113aa57816113908882611424565b84526020840193506020830192505060018101905061137d565b5050509392505050565b60006113c76113c284611d71565b611d20565b905080838252602082019050828560208602820111156113ea576113e96120df565b5b60005b8581101561141a578161140088826114e9565b8452602084019350602083019250506001810190506113ed565b5050509392505050565b6000813590506114338161217a565b92915050565b6000815190506114488161217a565b92915050565b600082601f830112611463576114626120da565b5b8135611473848260208601611344565b91505092915050565b600082601f830112611491576114906120da565b5b81516114a18482602086016113b4565b91505092915050565b6000815190506114b981612191565b92915050565b6000815190506114ce816121a8565b92915050565b6000813590506114e3816121bf565b92915050565b6000815190506114f8816121bf565b92915050565b60008151905061150d816121d6565b92915050565b600060208284031215611529576115286120e9565b5b600061153784828501611439565b91505092915050565b60008060408385031215611557576115566120e9565b5b600061156585828601611424565b925050602061157685828601611424565b9150509250929050565b600080600060608486031215611599576115986120e9565b5b60006115a786828701611424565b93505060206115b886828701611424565b92505060406115c9868287016114d4565b9150509250925092565b600080600080608085870312156115ed576115ec6120e9565b5b60006115fb87828801611424565b945050602061160c87828801611424565b935050604061161d878288016114d4565b925050606061162e878288016114d4565b91505092959194509250565b60008060008060808587031215611654576116536120e9565b5b600085013567ffffffffffffffff811115611672576116716120e4565b5b61167e8782880161144e565b945050602061168f878288016114d4565b93505060406116a0878288016114d4565b92505060606116b187828801611424565b91505092959194509250565b6000602082840312156116d3576116d26120e9565b5b600082015167ffffffffffffffff8111156116f1576116f06120e4565b5b6116fd8482850161147c565b91505092915050565b60006020828403121561171c5761171b6120e9565b5b600061172a848285016114aa565b91505092915050565b60008060006060848603121561174c5761174b6120e9565b5b600061175a868287016114bf565b935050602061176b868287016114bf565b925050604061177c868287016114fe565b9150509250925092565b60006020828403121561179c5761179b6120e9565b5b60006117aa848285016114d4565b91505092915050565b6000602082840312156117c9576117c86120e9565b5b60006117d7848285016114e9565b91505092915050565b600080604083850312156117f7576117f66120e9565b5b6000611805858286016114e9565b9250506020611816858286016114e9565b9150509250929050565b600080600060608486031215611839576118386120e9565b5b6000611847868287016114e9565b9350506020611858868287016114e9565b9250506040611869868287016114e9565b9150509250925092565b600061187f838361188b565b60208301905092915050565b61189481611f07565b82525050565b6118a381611f07565b82525050565b60006118b482611dad565b6118be8185611dd0565b93506118c983611d9d565b8060005b838110156118fa5781516118e18882611873565b97506118ec83611dc3565b9250506001810190506118cd565b5085935050505092915050565b61191081611f79565b82525050565b600061192182611db8565b61192b8185611de1565b935061193b818560208601611f8b565b611944816120ee565b840191505092915050565b600061195c600783611de1565b9150611967826120ff565b602082019050919050565b600061197f601083611de1565b915061198a82612128565b602082019050919050565b60006119a2600783611de1565b91506119ad82612151565b602082019050919050565b6119c181611f25565b82525050565b6119d081611f5f565b82525050565b6119df81611f69565b82525050565b60006020820190506119fa600083018461189a565b92915050565b6000604082019050611a15600083018561189a565b611a22602083018461189a565b9392505050565b6000606082019050611a3e600083018661189a565b611a4b602083018561189a565b611a5860408301846119c7565b949350505050565b600060e082019050611a75600083018a61189a565b611a82602083018961189a565b611a8f60408301886119c7565b611a9c6060830187611907565b611aa96080830186611907565b611ab660a083018561189a565b611ac360c08301846119c7565b98975050505050505050565b600061010082019050611ae5600083018b61189a565b611af2602083018a61189a565b611aff60408301896119c7565b611b0c60608301886119c7565b611b196080830187611907565b611b2660a0830186611907565b611b3360c083018561189a565b611b4060e08301846119c7565b9998505050505050505050565b6000604082019050611b62600083018561189a565b611b6f60208301846119c7565b9392505050565b60006020820190508181036000830152611b908184611916565b905092915050565b60006040820190508181036000830152611bb28185611916565b9050611bc1602083018461189a565b9392505050565b60006040820190508181036000830152611be18161194f565b9050611bf060208301846119c7565b92915050565b60006020820190508181036000830152611c0f81611972565b9050919050565b60006040820190508181036000830152611c2f81611995565b9050611c3e60208301846119c7565b92915050565b6000606082019050611c5960008301866119b8565b611c6660208301856119b8565b611c7360408301846119d6565b949350505050565b6000602082019050611c9060008301846119c7565b92915050565b6000604082019050611cab60008301856119c7565b8181036020830152611cbd81846118a9565b90509392505050565b600060a082019050611cdb60008301886119c7565b611ce860208301876119c7565b8181036040830152611cfa81866118a9565b9050611d09606083018561189a565b611d1660808301846119c7565b9695505050505050565b6000611d2a611d3b565b9050611d368282611fbe565b919050565b6000604051905090565b600067ffffffffffffffff821115611d6057611d5f61207c565b5b602082029050602081019050919050565b600067ffffffffffffffff821115611d8c57611d8b61207c565b5b602082029050602081019050919050565b6000819050602082019050919050565b600081519050919050565b600081519050919050565b6000602082019050919050565b600082825260208201905092915050565b600082825260208201905092915050565b6000611dfd82611f5f565b9150611e0883611f5f565b9250827fffffffffffffffffffffffffffffffffffffffffffffffffffffffffffffffff03821115611e3d57611e3c611fef565b5b828201905092915050565b6000611e5382611f5f565b9150611e5e83611f5f565b925082611e6e57611e6d61201e565b5b828204905092915050565b6000611e8482611f5f565b9150611e8f83611f5f565b9250817fffffffffffffffffffffffffffffffffffffffffffffffffffffffffffffffff0483118215151615611ec857611ec7611fef565b5b828202905092915050565b6000611ede82611f5f565b9150611ee983611f5f565b925082821015611efc57611efb611fef565b5b828203905092915050565b6000611f1282611f3f565b9050919050565b60008115159050919050565b60006dffffffffffffffffffffffffffff82169050919050565b600073ffffffffffffffffffffffffffffffffffffffff82169050919050565b6000819050919050565b600063ffffffff82169050919050565b6000611f8482611f5f565b9050919050565b60005b83811015611fa9578082015181840152602081019050611f8e565b83811115611fb8576000848401525b50505050565b611fc7826120ee565b810181811067ffffffffffffffff82111715611fe657611fe561207c565b5b80604052505050565b7f4e487b7100000000000000000000000000000000000000000000000000000000600052601160045260246000fd5b7f4e487b7100000000000000000000000000000000000000000000000000000000600052601260045260246000fd5b7f4e487b7100000000000000000000000000000000000000000000000000000000600052603260045260246000fd5b7f4e487b7100000000000000000000000000000000000000000000000000000000600052604160045260246000fd5b7f4e487b7100000000000000000000000000000000000000000000000000000000600052605160045260246000fd5b600080fd5b600080fd5b600080fd5b600080fd5b6000601f19601f8301169050919050565b7f616d6f756e744100000000000000000000000000000000000000000000000000600082015250565b7f746f6f20736d616c6c20616d6f756e7400000000000000000000000000000000600082015250565b7f616d6f756e744200000000000000000000000000000000000000000000000000600082015250565b61218381611f07565b811461218e57600080fd5b50565b61219a81611f19565b81146121a557600080fd5b50565b6121b181611f25565b81146121bc57600080fd5b50565b6121c881611f5f565b81146121d357600080fd5b50565b6121df81611f69565b81146121ea57600080fd5b5056fea26469706673582212202ae18cb0a338042b8821d94714c2b98bbfb74f5f744abbc38dc6b05d0249aa5f64736f6c63430008070033",
  "linkReferences": {},
  "deployedLinkReferences": {}
}