{
	"data": {
		"bytecode": {
			"linkReferences": {},
			"object": "60c060405234801562000010575f80fd5b506040516200393c3803806200393c833981016040819052620000339162000067565b6001600160a01b039182166080521660a0526200009d565b80516001600160a01b038116811462000062575f80fd5b919050565b5f806040838503121562000079575f80fd5b62000084836200004b565b915062000094602084016200004b565b90509250929050565b60805160a051613750620001ec5f395f8181610118015281816102a60152818161040e0152818161062c0152818161088401528181610c1801528181610cf801528181610da101528181610e2f01528181610f4b01528181610fd40152818161120c01528181611287015281816112f7015281816116b70152818161170c01528181611740015281816117d10152818161190401528181611a130152611a9c01525f81816103230152818161048a0152818161055a0152818161070d0152818161076401528181610900015281816109e401528181610ea9015281816110060152818161114a015281816113290152818161151c01528181611593015281816116ea0152818161197e01528181611ace01528181612169015281816121b901528181612553015281816126b20152818161297d015281816129f301528181612ac60152612b6f01526137505ff3fe608060405260043610610108575f3560e01c80638803dbee11610092578063c45a015511610062578063c45a015514610312578063d06ca61f14610345578063e8e3370014610364578063f305d7191461039e578063fb3bdb41146103b1575f80fd5b80638803dbee14610276578063ad5c464814610295578063ad615dec146102e0578063b6f9de95146102ff575f80fd5b80634a25d94a116100d85780634a25d94a146101e75780635c11d79514610206578063791ac947146102255780637ff36ab51461024457806385f8c25914610257575f80fd5b8063054d50d41461014b57806318cbafe51461017d5780631f00ca74146101a957806338ed1739146101c8575f80fd5b3661014757336001600160a01b037f0000000000000000000000000000000000000000000000000000000000000000161461014557610145612ff5565b005b5f80fd5b348015610156575f80fd5b5061016a610165366004613009565b6103c4565b6040519081526020015b60405180910390f35b348015610188575f80fd5b5061019c610197366004613097565b6103d8565b6040516101749190613105565b3480156101b4575f80fd5b5061019c6101c336600461315c565b610706565b3480156101d3575f80fd5b5061019c6101e2366004613097565b61073c565b3480156101f2575f80fd5b5061019c610201366004613097565b610857565b348015610211575f80fd5b50610145610220366004613097565b610993565b348015610230575f80fd5b5061014561023f366004613097565b610bed565b61019c610252366004613228565b610e0a565b348015610262575f80fd5b5061016a610271366004613009565b611116565b348015610281575f80fd5b5061019c610290366004613097565b611122565b3480156102a0575f80fd5b506102c87f000000000000000000000000000000000000000000000000000000000000000081565b6040516001600160a01b039091168152602001610174565b3480156102eb575f80fd5b5061016a6102fa366004613009565b6111dd565b61014561030d366004613228565b6111e9565b34801561031d575f80fd5b506102c87f000000000000000000000000000000000000000000000000000000000000000081565b348015610350575f80fd5b5061019c61035f36600461315c565b611515565b34801561036f575f80fd5b5061038361037e36600461328a565b611542565b60408051938452602084019290925290820152606001610174565b6103836103ac366004613301565b61168d565b61019c6103bf366004613228565b6118df565b5f6103d0848484611c1e565b949350505050565b606081428110156104045760405162461bcd60e51b81526004016103fb9061335b565b60405180910390fd5b6001600160a01b037f000000000000000000000000000000000000000000000000000000000000000016868661043b6001826133a6565b81811061044a5761044a6133b9565b905060200201602081019061045f91906133cd565b6001600160a01b0316146104855760405162461bcd60e51b81526004016103fb906133ef565b6104e27f0000000000000000000000000000000000000000000000000000000000000000898888808060200260200160405190810160405280939291908181526020018383602002808284375f92019190915250611cf692505050565b91508682600184516104f491906133a6565b81518110610504576105046133b9565b6020026020010151101561052a5760405162461bcd60e51b81526004016103fb90613426565b6105ec86865f81811061053f5761053f6133b9565b905060200201602081019061055491906133cd565b336105cd7f00000000000000000000000000000000000000000000000000000000000000008a8a5f81811061058b5761058b6133b9565b90506020020160208101906105a091906133cd565b8b8b60018181106105b3576105b36133b9565b90506020020160208101906105c891906133cd565b611e7e565b855f815181106105df576105df6133b9565b6020026020010151611f55565b61062a828787808060200260200160405190810160405280939291908181526020018383602002808284375f9201919091525030925061208e915050565b7f00000000000000000000000000000000000000000000000000000000000000006001600160a01b0316632e1a7d4d836001855161066891906133a6565b81518110610678576106786133b9565b60200260200101516040518263ffffffff1660e01b815260040161069e91815260200190565b5f604051808303815f87803b1580156106b5575f80fd5b505af11580156106c7573d5f803e3d5ffd5b505050506106fb8483600185516106de91906133a6565b815181106106ee576106ee6133b9565b6020026020010151612288565b509695505050505050565b60606107337f00000000000000000000000000000000000000000000000000000000000000008484612363565b90505b92915050565b6060814281101561075f5760405162461bcd60e51b81526004016103fb9061335b565b6107bc7f0000000000000000000000000000000000000000000000000000000000000000898888808060200260200160405190810160405280939291908181526020018383602002808284375f92019190915250611cf692505050565b91508682600184516107ce91906133a6565b815181106107de576107de6133b9565b602002602001015110156108045760405162461bcd60e51b81526004016103fb90613426565b61081986865f81811061053f5761053f6133b9565b6106fb828787808060200260200160405190810160405280939291908181526020018383602002808284375f9201919091525089925061208e915050565b6060814281101561087a5760405162461bcd60e51b81526004016103fb9061335b565b6001600160a01b037f00000000000000000000000000000000000000000000000000000000000000001686866108b16001826133a6565b8181106108c0576108c06133b9565b90506020020160208101906108d591906133cd565b6001600160a01b0316146108fb5760405162461bcd60e51b81526004016103fb906133ef565b6109587f0000000000000000000000000000000000000000000000000000000000000000898888808060200260200160405190810160405280939291908181526020018383602002808284375f9201919091525061236392505050565b915086825f8151811061096d5761096d6133b9565b6020026020010151111561052a5760405162461bcd60e51b81526004016103fb90613471565b80428110156109b45760405162461bcd60e51b81526004016103fb9061335b565b610a4385855f8181106109c9576109c96133b9565b90506020020160208101906109de91906133cd565b33610a3d7f000000000000000000000000000000000000000000000000000000000000000089895f818110610a1557610a156133b9565b9050602002016020810190610a2a91906133cd565b8a8a60018181106105b3576105b36133b9565b8a611f55565b5f8585610a516001826133a6565b818110610a6057610a606133b9565b9050602002016020810190610a7591906133cd565b6040516370a0823160e01b81526001600160a01b03868116600483015291909116906370a0823190602401602060405180830381865afa158015610abb573d5f803e3d5ffd5b505050506040513d601f19601f82011682018060405250810190610adf91906134b8565b9050610b1e8686808060200260200160405190810160405280939291908181526020018383602002808284375f920191909152508892506124e2915050565b86610bc5828888610b306001826133a6565b818110610b3f57610b3f6133b9565b9050602002016020810190610b5491906133cd565b6040516370a0823160e01b81526001600160a01b03898116600483015291909116906370a08231906024015b602060405180830381865afa158015610b9b573d5f803e3d5ffd5b505050506040513d601f19601f82011682018060405250810190610bbf91906134b8565b90612768565b1015610be35760405162461bcd60e51b81526004016103fb90613426565b5050505050505050565b8042811015610c0e5760405162461bcd60e51b81526004016103fb9061335b565b6001600160a01b037f0000000000000000000000000000000000000000000000000000000000000000168585610c456001826133a6565b818110610c5457610c546133b9565b9050602002016020810190610c6991906133cd565b6001600160a01b031614610c8f5760405162461bcd60e51b81526004016103fb906133ef565b610ca485855f8181106109c9576109c96133b9565b610ce18585808060200260200160405190810160405280939291908181526020018383602002808284375f920191909152503092506124e2915050565b6040516370a0823160e01b81523060048201525f907f00000000000000000000000000000000000000000000000000000000000000006001600160a01b0316906370a0823190602401602060405180830381865afa158015610d45573d5f803e3d5ffd5b505050506040513d601f19601f82011682018060405250810190610d6991906134b8565b905086811015610d8b5760405162461bcd60e51b81526004016103fb90613426565b604051632e1a7d4d60e01b8152600481018290527f00000000000000000000000000000000000000000000000000000000000000006001600160a01b031690632e1a7d4d906024015f604051808303815f87803b158015610dea575f80fd5b505af1158015610dfc573d5f803e3d5ffd5b50505050610be38482612288565b60608142811015610e2d5760405162461bcd60e51b81526004016103fb9061335b565b7f00000000000000000000000000000000000000000000000000000000000000006001600160a01b031686865f818110610e6957610e696133b9565b9050602002016020810190610e7e91906133cd565b6001600160a01b031614610ea45760405162461bcd60e51b81526004016103fb906133ef565b610f017f0000000000000000000000000000000000000000000000000000000000000000348888808060200260200160405190810160405280939291908181526020018383602002808284375f92019190915250611cf692505050565b9150868260018451610f1391906133a6565b81518110610f2357610f236133b9565b60200260200101511015610f495760405162461bcd60e51b81526004016103fb90613426565b7f00000000000000000000000000000000000000000000000000000000000000006001600160a01b031663d0e30db0835f81518110610f8a57610f8a6133b9565b60200260200101516040518263ffffffff1660e01b81526004015f604051808303818588803b158015610fbb575f80fd5b505af1158015610fcd573d5f803e3d5ffd5b50505050507f00000000000000000000000000000000000000000000000000000000000000006001600160a01b031663a9059cbb6110377f000000000000000000000000000000000000000000000000000000000000000089895f818110610a1557610a156133b9565b845f81518110611049576110496133b9565b60200260200101516040518363ffffffff1660e01b81526004016110829291906001600160a01b03929092168252602082015260400190565b6020604051808303815f875af115801561109e573d5f803e3d5ffd5b505050506040513d601f19601f820116820180604052508101906110c291906134cf565b6110ce576110ce612ff5565b61110c828787808060200260200160405190810160405280939291908181526020018383602002808284375f9201919091525089925061208e915050565b5095945050505050565b5f6103d08484846127bd565b606081428110156111455760405162461bcd60e51b81526004016103fb9061335b565b6111a27f0000000000000000000000000000000000000000000000000000000000000000898888808060200260200160405190810160405280939291908181526020018383602002808284375f9201919091525061236392505050565b915086825f815181106111b7576111b76133b9565b602002602001015111156108045760405162461bcd60e51b81526004016103fb90613471565b5f6103d0848484612891565b804281101561120a5760405162461bcd60e51b81526004016103fb9061335b565b7f00000000000000000000000000000000000000000000000000000000000000006001600160a01b031685855f818110611246576112466133b9565b905060200201602081019061125b91906133cd565b6001600160a01b0316146112815760405162461bcd60e51b81526004016103fb906133ef565b5f3490507f00000000000000000000000000000000000000000000000000000000000000006001600160a01b031663d0e30db0826040518263ffffffff1660e01b81526004015f604051808303818588803b1580156112de575f80fd5b505af11580156112f0573d5f803e3d5ffd5b50505050507f00000000000000000000000000000000000000000000000000000000000000006001600160a01b031663a9059cbb61135a7f000000000000000000000000000000000000000000000000000000000000000089895f818110610a1557610a156133b9565b6040516001600160e01b031960e084901b1681526001600160a01b039091166004820152602481018490526044016020604051808303815f875af11580156113a4573d5f803e3d5ffd5b505050506040513d601f19601f820116820180604052508101906113c891906134cf565b6113d4576113d4612ff5565b5f86866113e26001826133a6565b8181106113f1576113f16133b9565b905060200201602081019061140691906133cd565b6040516370a0823160e01b81526001600160a01b03878116600483015291909116906370a0823190602401602060405180830381865afa15801561144c573d5f803e3d5ffd5b505050506040513d601f19601f8201168201806040525081019061147091906134b8565b90506114af8787808060200260200160405190810160405280939291908181526020018383602002808284375f920191909152508992506124e2915050565b87610bc58289896114c16001826133a6565b8181106114d0576114d06133b9565b90506020020160208101906114e591906133cd565b6040516370a0823160e01b81526001600160a01b038a8116600483015291909116906370a0823190602401610b80565b60606107337f00000000000000000000000000000000000000000000000000000000000000008484611cf6565b5f805f83428110156115665760405162461bcd60e51b81526004016103fb9061335b565b611570600161292e565b61157e8c8c8c8c8c8c612976565b909450925061158d600161292e565b5f6115b97f00000000000000000000000000000000000000000000000000000000000000008e8e611e7e565b90506115c5600161292e565b6115d18d338388611f55565b6115db600161292e565b6115e78c338387611f55565b6115f1600161292e565b6040516335313c2160e11b81526001600160a01b038881166004830152821690636a627842906024016020604051808303815f875af1158015611636573d5f803e3d5ffd5b505050506040513d601f19601f8201168201806040525081019061165a91906134b8565b925061167d6040518060600160405280602881526020016136f360289139612cc7565b5050985098509895505050505050565b5f805f83428110156116b15760405162461bcd60e51b81526004016103fb9061335b565b6116df8a7f00000000000000000000000000000000000000000000000000000000000000008b348c8c612976565b90945092505f6117307f00000000000000000000000000000000000000000000000000000000000000008c7f0000000000000000000000000000000000000000000000000000000000000000611e7e565b905061173e8b338388611f55565b7f00000000000000000000000000000000000000000000000000000000000000006001600160a01b031663d0e30db0856040518263ffffffff1660e01b81526004015f604051808303818588803b158015611797575f80fd5b505af11580156117a9573d5f803e3d5ffd5b505060405163a9059cbb60e01b81526001600160a01b038581166004830152602482018990527f000000000000000000000000000000000000000000000000000000000000000016935063a9059cbb925060440190506020604051808303815f875af115801561181b573d5f803e3d5ffd5b505050506040513d601f19601f8201168201806040525081019061183f91906134cf565b61184b5761184b612ff5565b6040516335313c2160e11b81526001600160a01b038881166004830152821690636a627842906024016020604051808303815f875af1158015611890573d5f803e3d5ffd5b505050506040513d601f19601f820116820180604052508101906118b491906134b8565b9250833411156118d1576118d1336118cc86346133a6565b612288565b505096509650969350505050565b606081428110156119025760405162461bcd60e51b81526004016103fb9061335b565b7f00000000000000000000000000000000000000000000000000000000000000006001600160a01b031686865f81811061193e5761193e6133b9565b905060200201602081019061195391906133cd565b6001600160a01b0316146119795760405162461bcd60e51b81526004016103fb906133ef565b6119d67f0000000000000000000000000000000000000000000000000000000000000000888888808060200260200160405190810160405280939291908181526020018383602002808284375f9201919091525061236392505050565b915034825f815181106119eb576119eb6133b9565b60200260200101511115611a115760405162461bcd60e51b81526004016103fb90613471565b7f00000000000000000000000000000000000000000000000000000000000000006001600160a01b031663d0e30db0835f81518110611a5257611a526133b9565b60200260200101516040518263ffffffff1660e01b81526004015f604051808303818588803b158015611a83575f80fd5b505af1158015611a95573d5f803e3d5ffd5b50505050507f00000000000000000000000000000000000000000000000000000000000000006001600160a01b031663a9059cbb611aff7f000000000000000000000000000000000000000000000000000000000000000089895f818110610a1557610a156133b9565b845f81518110611b1157611b116133b9565b60200260200101516040518363ffffffff1660e01b8152600401611b4a9291906001600160a01b03929092168252602082015260400190565b6020604051808303815f875af1158015611b66573d5f803e3d5ffd5b505050506040513d601f19601f82011682018060405250810190611b8a91906134cf565b611b9657611b96612ff5565b611bd4828787808060200260200160405190810160405280939291908181526020018383602002808284375f9201919091525089925061208e915050565b815f81518110611be657611be66133b9565b602002602001015134111561110c5761110c33835f81518110611c0b57611c0b6133b9565b6020026020010151346118cc91906133a6565b5f808411611c825760405162461bcd60e51b815260206004820152602b60248201527f556e697377617056324c6962726172793a20494e53554646494349454e545f4960448201526a1394155517d05353d5539560aa1b60648201526084016103fb565b5f83118015611c9057505f82115b611cac5760405162461bcd60e51b81526004016103fb906134ee565b5f611cb9856103e5612d0a565b90505f611cc68285612d0a565b90505f611cdf83611cd9886103e8612d0a565b90612d70565b9050611ceb8183613536565b979650505050505050565b6060600282511015611d4a5760405162461bcd60e51b815260206004820152601e60248201527f556e697377617056324c6962726172793a20494e56414c49445f50415448000060448201526064016103fb565b815167ffffffffffffffff811115611d6457611d64613148565b604051908082528060200260200182016040528015611d8d578160200160208202803683370190505b50905082815f81518110611da357611da36133b9565b6020026020010181815250505f5b60018351611dbf91906133a6565b811015611e76575f80611e1187868581518110611dde57611dde6133b9565b602002602001015187866001611df49190613555565b81518110611e0457611e046133b9565b6020026020010151612dc4565b91509150611e39848481518110611e2a57611e2a6133b9565b60200260200101518383611c1e565b84611e45856001613555565b81518110611e5557611e556133b9565b60200260200101818152505050508080611e6e90613568565b915050611db1565b509392505050565b5f805f611e8b8585612e8e565b6040516bffffffffffffffffffffffff19606084811b8216602084015283901b1660348201529193509150869060480160405160208183030381529060405280519060200120604051602001611f339291906001600160f81b0319815260609290921b6bffffffffffffffffffffffff1916600183015260158201527fa694efdfd8032b8b5ba11645d3d6ec48544de26a22772cb10a50ebb5626c0a57603582015260550190565b60408051601f1981840301815291905280516020909101209695505050505050565b604080516001600160a01b0385811660248301528481166044830152606480830185905283518084039091018152608490920183526020820180516001600160e01b03166323b872dd60e01b17905291515f92839290881691611fb891906135a2565b5f604051808303815f865af19150503d805f8114611ff1576040519150601f19603f3d011682016040523d82523d5f602084013e611ff6565b606091505b509150915081801561202057508051158061202057508080602001905181019061202091906134cf565b6120865760405162461bcd60e51b815260206004820152603160248201527f5472616e7366657248656c7065723a3a7472616e7366657246726f6d3a207472604482015270185b9cd9995c919c9bdb4819985a5b1959607a1b60648201526084016103fb565b505050505050565b5f5b6001835161209e91906133a6565b811015612282575f808483815181106120b9576120b96133b9565b6020026020010151858460016120cf9190613555565b815181106120df576120df6133b9565b6020026020010151915091505f6120f68383612e8e565b5090505f87612106866001613555565b81518110612116576121166133b9565b602002602001015190505f80836001600160a01b0316866001600160a01b03161461214257825f612145565b5f835b915091505f60028a5161215891906133a6565b881061216457886121b2565b6121b27f0000000000000000000000000000000000000000000000000000000000000000878c6121958c6002613555565b815181106121a5576121a56133b9565b6020026020010151611e7e565b90506121df7f00000000000000000000000000000000000000000000000000000000000000008888611e7e565b6001600160a01b031663022c0d9f8484845f6040519080825280601f01601f19166020018201604052801561221b576020820181803683370190505b506040518563ffffffff1660e01b815260040161223b94939291906135e8565b5f604051808303815f87803b158015612252575f80fd5b505af1158015612264573d5f803e3d5ffd5b5050505050505050505050808061227a90613568565b915050612090565b50505050565b604080515f808252602082019092526001600160a01b0384169083906040516122b191906135a2565b5f6040518083038185875af1925050503d805f81146122eb576040519150601f19603f3d011682016040523d82523d5f602084013e6122f0565b606091505b505090508061235e5760405162461bcd60e51b815260206004820152603460248201527f5472616e7366657248656c7065723a3a736166655472616e736665724554483a60448201527308115512081d1c985b9cd9995c8819985a5b195960621b60648201526084016103fb565b505050565b60606002825110156123b75760405162461bcd60e51b815260206004820152601e60248201527f556e697377617056324c6962726172793a20494e56414c49445f50415448000060448201526064016103fb565b815167ffffffffffffffff8111156123d1576123d1613148565b6040519080825280602002602001820160405280156123fa578160200160208202803683370190505b50905082816001835161240d91906133a6565b8151811061241d5761241d6133b9565b6020026020010181815250505f6001835161243891906133a6565b90505b8015611e76575f8061247d87866124536001876133a6565b81518110612463576124636133b9565b6020026020010151878681518110611e0457611e046133b9565b915091506124a5848481518110612496576124966133b9565b602002602001015183836127bd565b846124b16001866133a6565b815181106124c1576124c16133b9565b602002602001018181525050505080806124da90613614565b91505061243b565b5f5b600183516124f291906133a6565b81101561235e575f8084838151811061250d5761250d6133b9565b6020026020010151858460016125239190613555565b81518110612533576125336133b9565b6020026020010151915091505f61254a8383612e8e565b5090505f6125797f00000000000000000000000000000000000000000000000000000000000000008585611e7e565b90505f805f80846001600160a01b0316630902f1ac6040518163ffffffff1660e01b8152600401606060405180830381865afa1580156125bb573d5f803e3d5ffd5b505050506040513d601f19601f820116820180604052508101906125df919061363f565b506001600160701b031691506001600160701b031691505f80876001600160a01b03168a6001600160a01b03161461261857828461261b565b83835b6040516370a0823160e01b81526001600160a01b038a81166004830152929450909250612656918491908d16906370a0823190602401610b80565b9550612663868383611c1e565b9450505050505f80856001600160a01b0316886001600160a01b03161461268b57825f61268e565b5f835b915091505f60028c516126a191906133a6565b8a106126ad578a6126de565b6126de7f0000000000000000000000000000000000000000000000000000000000000000898e6121958e6002613555565b604080515f8152602081019182905263022c0d9f60e01b9091529091506001600160a01b0387169063022c0d9f9061271f90869086908690602481016135e8565b5f604051808303815f87803b158015612736575f80fd5b505af1158015612748573d5f803e3d5ffd5b50505050505050505050505050808061276090613568565b9150506124e4565b5f8261277483826133a6565b91508111156107365760405162461bcd60e51b815260206004820152601560248201527464732d6d6174682d7375622d756e646572666c6f7760581b60448201526064016103fb565b5f8084116128225760405162461bcd60e51b815260206004820152602c60248201527f556e697377617056324c6962726172793a20494e53554646494349454e545f4f60448201526b155514155517d05353d5539560a21b60648201526084016103fb565b5f8311801561283057505f82115b61284c5760405162461bcd60e51b81526004016103fb906134ee565b5f6128636103e861285d8688612d0a565b90612d0a565b90505f6128766103e561285d8689612768565b90506128876001611cd98385613536565b9695505050505050565b5f8084116128ef5760405162461bcd60e51b815260206004820152602560248201527f556e697377617056324c6962726172793a20494e53554646494349454e545f416044820152641353d5539560da1b60648201526084016103fb565b5f831180156128fd57505f82115b6129195760405162461bcd60e51b81526004016103fb906134ee565b826129248584612d0a565b6103d09190613536565b6129738160405160240161294491815260200190565b60408051601f198184030181529190526020810180516001600160e01b031663f82c50f160e01b179052612f84565b50565b5f806129ca7f00000000000000000000000000000000000000000000000000000000000000006040518060400160405280601081526020016f0ccc2c6e8dee4f240c8cad6d0dcd240d60831b815250612f8d565b60405163e6a4390560e01b81526001600160a01b03898116600483015288811660248301525f917f00000000000000000000000000000000000000000000000000000000000000009091169063e6a4390590604401602060405180830381865afa158015612a3a573d5f803e3d5ffd5b505050506040513d601f19601f82011682018060405250810190612a5e919061368b565b6001600160a01b031603612b6857612a9f604051806040016040528060128152602001712d2d2d2d2d2d2d2d2d2d2d2d2d2d2d2d2d2d60701b815250612cc7565b6040516364e329cb60e11b81526001600160a01b03898116600483015288811660248301527f0000000000000000000000000000000000000000000000000000000000000000169063c9c65396906044016020604051808303815f875af1158015612b0c573d5f803e3d5ffd5b505050506040513d601f19601f82011682018060405250810190612b30919061368b565b50612b68604051806040016040528060168152602001751919191919191919191919191919191919191919191960511b815250612cc7565b5f80612b957f00000000000000000000000000000000000000000000000000000000000000008b8b612dc4565b91509150815f148015612ba6575080155b15612bb657879350869250612cba565b5f612bc2898484612891565b9050878111612c355785811015612c2a5760405162461bcd60e51b815260206004820152602660248201527f556e69737761705632526f757465723a20494e53554646494349454e545f425f604482015265105353d5539560d21b60648201526084016103fb565b889450925082612cb8565b5f612c41898486612891565b905089811115612c5357612c53612ff5565b87811015612cb25760405162461bcd60e51b815260206004820152602660248201527f556e69737761705632526f757465723a20494e53554646494349454e545f415f604482015265105353d5539560d21b60648201526084016103fb565b94508793505b505b5050965096945050505050565b61297381604051602401612cdb91906136a6565b60408051601f198184030181529190526020810180516001600160e01b031663104c13eb60e21b179052612f84565b5f811580612d2d57508282612d1f81836136b8565b9250612d2b9083613536565b145b6107365760405162461bcd60e51b815260206004820152601460248201527364732d6d6174682d6d756c2d6f766572666c6f7760601b60448201526064016103fb565b5f82612d7c8382613555565b91508110156107365760405162461bcd60e51b815260206004820152601460248201527364732d6d6174682d6164642d6f766572666c6f7760601b60448201526064016103fb565b5f805f612dd18585612e8e565b5090505f612de0878787611e7e565b90505f80826001600160a01b0316630902f1ac6040518163ffffffff1660e01b8152600401606060405180830381865afa158015612e20573d5f803e3d5ffd5b505050506040513d601f19601f82011682018060405250810190612e44919061363f565b506001600160701b031691506001600160701b03169150836001600160a01b0316886001600160a01b031614612e7b578082612e7e565b81815b909a909950975050505050505050565b5f80826001600160a01b0316846001600160a01b031603612eff5760405162461bcd60e51b815260206004820152602560248201527f556e697377617056324c6962726172793a204944454e544943414c5f41444452604482015264455353455360d81b60648201526084016103fb565b826001600160a01b0316846001600160a01b031610612f1f578284612f22565b83835b90925090506001600160a01b038216612f7d5760405162461bcd60e51b815260206004820152601e60248201527f556e697377617056324c6962726172793a205a45524f5f41444452455353000060448201526064016103fb565b9250929050565b61297381612fd6565b612fd28282604051602401612fa39291906136cf565b60408051601f198184030181529190526020810180516001600160e01b031663759f86bb60e01b179052612f84565b5050565b5f6a636f6e736f6c652e6c6f6790505f80835160208501845afa505050565b634e487b7160e01b5f52600160045260245ffd5b5f805f6060848603121561301b575f80fd5b505081359360208301359350604090920135919050565b5f8083601f840112613042575f80fd5b50813567ffffffffffffffff811115613059575f80fd5b6020830191508360208260051b8501011115612f7d575f80fd5b6001600160a01b0381168114612973575f80fd5b803561309281613073565b919050565b5f805f805f8060a087890312156130ac575f80fd5b8635955060208701359450604087013567ffffffffffffffff8111156130d0575f80fd5b6130dc89828a01613032565b90955093505060608701356130f081613073565b80925050608087013590509295509295509295565b602080825282518282018190525f9190848201906040850190845b8181101561313c57835183529284019291840191600101613120565b50909695505050505050565b634e487b7160e01b5f52604160045260245ffd5b5f806040838503121561316d575f80fd5b8235915060208084013567ffffffffffffffff8082111561318c575f80fd5b818601915086601f83011261319f575f80fd5b8135818111156131b1576131b1613148565b8060051b604051601f19603f830116810181811085821117156131d6576131d6613148565b6040529182528482019250838101850191898311156131f3575f80fd5b938501935b828510156132185761320985613087565b845293850193928501926131f8565b8096505050505050509250929050565b5f805f805f6080868803121561323c575f80fd5b85359450602086013567ffffffffffffffff811115613259575f80fd5b61326588828901613032565b909550935050604086013561327981613073565b949793965091946060013592915050565b5f805f805f805f80610100898b0312156132a2575f80fd5b88356132ad81613073565b975060208901356132bd81613073565b965060408901359550606089013594506080890135935060a0890135925060c08901356132e981613073565b8092505060e089013590509295985092959890939650565b5f805f805f8060c08789031215613316575f80fd5b863561332181613073565b9550602087013594506040870135935060608701359250608087013561334681613073565b8092505060a087013590509295509295509295565b60208082526018908201527f556e69737761705632526f757465723a20455850495245440000000000000000604082015260600190565b634e487b7160e01b5f52601160045260245ffd5b8181038181111561073657610736613392565b634e487b7160e01b5f52603260045260245ffd5b5f602082840312156133dd575f80fd5b81356133e881613073565b9392505050565b6020808252601d908201527f556e69737761705632526f757465723a20494e56414c49445f50415448000000604082015260600190565b6020808252602b908201527f556e69737761705632526f757465723a20494e53554646494349454e545f4f5560408201526a1514155517d05353d5539560aa1b606082015260800190565b60208082526027908201527f556e69737761705632526f757465723a204558434553534956455f494e50555460408201526617d05353d5539560ca1b606082015260800190565b5f602082840312156134c8575f80fd5b5051919050565b5f602082840312156134df575f80fd5b815180151581146133e8575f80fd5b60208082526028908201527f556e697377617056324c6962726172793a20494e53554646494349454e545f4c604082015267495155494449545960c01b606082015260800190565b5f8261355057634e487b7160e01b5f52601260045260245ffd5b500490565b8082018082111561073657610736613392565b5f6001820161357957613579613392565b5060010190565b5f5b8381101561359a578181015183820152602001613582565b50505f910152565b5f82516135b3818460208701613580565b9190910192915050565b5f81518084526135d4816020860160208601613580565b601f01601f19169290920160200192915050565b84815283602082015260018060a01b0383166040820152608060608201525f61288760808301846135bd565b5f8161362257613622613392565b505f190190565b80516001600160701b0381168114613092575f80fd5b5f805f60608486031215613651575f80fd5b61365a84613629565b925061366860208501613629565b9150604084015163ffffffff81168114613680575f80fd5b809150509250925092565b5f6020828403121561369b575f80fd5b81516133e881613073565b602081525f61073360208301846135bd565b808202811582820484141761073657610736613392565b6001600160a01b03831681526040602082018190525f906103d0908301846135bd56fe73756363657373737366756c6c6c792063726561746564204c697175696469747920546f6b656e73a2646970667358221220b64d6e1a9ce5cbfb40fed4453093853e06967cbdeb5d9b86feb7a0eae76a119164736f6c63430008150033",
			"opcodes": "PUSH1 0xC0 PUSH1 0x40 MSTORE CALLVALUE DUP1 ISZERO PUSH3 0x10 JUMPI PUSH0 DUP1 REVERT JUMPDEST POP PUSH1 0x40 MLOAD PUSH3 0x393C CODESIZE SUB DUP1 PUSH3 0x393C DUP4 CODECOPY DUP2 ADD PUSH1 0x40 DUP2 SWAP1 MSTORE PUSH3 0x33 SWAP2 PUSH3 0x67 JUMP JUMPDEST PUSH1 0x1 PUSH1 0x1 PUSH1 0xA0 SHL SUB SWAP2 DUP3 AND PUSH1 0x80 MSTORE AND PUSH1 0xA0 MSTORE PUSH3 0x9D JUMP JUMPDEST DUP1 MLOAD PUSH1 0x1 PUSH1 0x1 PUSH1 0xA0 SHL SUB DUP2 AND DUP2 EQ PUSH3 0x62 JUMPI PUSH0 DUP1 REVERT JUMPDEST SWAP2 SWAP1 POP JUMP JUMPDEST PUSH0 DUP1 PUSH1 0x40 DUP4 DUP6 SUB SLT ISZERO PUSH3 0x79 JUMPI PUSH0 DUP1 REVERT JUMPDEST PUSH3 0x84 DUP4 PUSH3 0x4B JUMP JUMPDEST SWAP2 POP PUSH3 0x94 PUSH1 0x20 DUP5 ADD PUSH3 0x4B JUMP JUMPDEST SWAP1 POP SWAP3 POP SWAP3 SWAP1 POP JUMP JUMPDEST PUSH1 0x80 MLOAD PUSH1 0xA0 MLOAD PUSH2 0x3750 PUSH3 0x1EC PUSH0 CODECOPY PUSH0 DUP2 DUP2 PUSH2 0x118 ADD MSTORE DUP2 DUP2 PUSH2 0x2A6 ADD MSTORE DUP2 DUP2 PUSH2 0x40E ADD MSTORE DUP2 DUP2 PUSH2 0x62C ADD MSTORE DUP2 DUP2 PUSH2 0x884 ADD MSTORE DUP2 DUP2 PUSH2 0xC18 ADD MSTORE DUP2 DUP2 PUSH2 0xCF8 ADD MSTORE DUP2 DUP2 PUSH2 0xDA1 ADD MSTORE DUP2 DUP2 PUSH2 0xE2F ADD MSTORE DUP2 DUP2 PUSH2 0xF4B ADD MSTORE DUP2 DUP2 PUSH2 0xFD4 ADD MSTORE DUP2 DUP2 PUSH2 0x120C ADD MSTORE DUP2 DUP2 PUSH2 0x1287 ADD MSTORE DUP2 DUP2 PUSH2 0x12F7 ADD MSTORE DUP2 DUP2 PUSH2 0x16B7 ADD MSTORE DUP2 DUP2 PUSH2 0x170C ADD MSTORE DUP2 DUP2 PUSH2 0x1740 ADD MSTORE DUP2 DUP2 PUSH2 0x17D1 ADD MSTORE DUP2 DUP2 PUSH2 0x1904 ADD MSTORE DUP2 DUP2 PUSH2 0x1A13 ADD MSTORE PUSH2 0x1A9C ADD MSTORE PUSH0 DUP2 DUP2 PUSH2 0x323 ADD MSTORE DUP2 DUP2 PUSH2 0x48A ADD MSTORE DUP2 DUP2 PUSH2 0x55A ADD MSTORE DUP2 DUP2 PUSH2 0x70D ADD MSTORE DUP2 DUP2 PUSH2 0x764 ADD MSTORE DUP2 DUP2 PUSH2 0x900 ADD MSTORE DUP2 DUP2 PUSH2 0x9E4 ADD MSTORE DUP2 DUP2 PUSH2 0xEA9 ADD MSTORE DUP2 DUP2 PUSH2 0x1006 ADD MSTORE DUP2 DUP2 PUSH2 0x114A ADD MSTORE DUP2 DUP2 PUSH2 0x1329 ADD MSTORE DUP2 DUP2 PUSH2 0x151C ADD MSTORE DUP2 DUP2 PUSH2 0x1593 ADD MSTORE DUP2 DUP2 PUSH2 0x16EA ADD MSTORE DUP2 DUP2 PUSH2 0x197E ADD MSTORE DUP2 DUP2 PUSH2 0x1ACE ADD MSTORE DUP2 DUP2 PUSH2 0x2169 ADD MSTORE DUP2 DUP2 PUSH2 0x21B9 ADD MSTORE DUP2 DUP2 PUSH2 0x2553 ADD MSTORE DUP2 DUP2 PUSH2 0x26B2 ADD MSTORE DUP2 DUP2 PUSH2 0x297D ADD MSTORE DUP2 DUP2 PUSH2 0x29F3 ADD MSTORE DUP2 DUP2 PUSH2 0x2AC6 ADD MSTORE PUSH2 0x2B6F ADD MSTORE PUSH2 0x3750 PUSH0 RETURN INVALID PUSH1 0x80 PUSH1 0x40 MSTORE PUSH1 0x4 CALLDATASIZE LT PUSH2 0x108 JUMPI PUSH0 CALLDATALOAD PUSH1 0xE0 SHR DUP1 PUSH4 0x8803DBEE GT PUSH2 0x92 JUMPI DUP1 PUSH4 0xC45A0155 GT PUSH2 0x62 JUMPI DUP1 PUSH4 0xC45A0155 EQ PUSH2 0x312 JUMPI DUP1 PUSH4 0xD06CA61F EQ PUSH2 0x345 JUMPI DUP1 PUSH4 0xE8E33700 EQ PUSH2 0x364 JUMPI DUP1 PUSH4 0xF305D719 EQ PUSH2 0x39E JUMPI DUP1 PUSH4 0xFB3BDB41 EQ PUSH2 0x3B1 JUMPI PUSH0 DUP1 REVERT JUMPDEST DUP1 PUSH4 0x8803DBEE EQ PUSH2 0x276 JUMPI DUP1 PUSH4 0xAD5C4648 EQ PUSH2 0x295 JUMPI DUP1 PUSH4 0xAD615DEC EQ PUSH2 0x2E0 JUMPI DUP1 PUSH4 0xB6F9DE95 EQ PUSH2 0x2FF JUMPI PUSH0 DUP1 REVERT JUMPDEST DUP1 PUSH4 0x4A25D94A GT PUSH2 0xD8 JUMPI DUP1 PUSH4 0x4A25D94A EQ PUSH2 0x1E7 JUMPI DUP1 PUSH4 0x5C11D795 EQ PUSH2 0x206 JUMPI DUP1 PUSH4 0x791AC947 EQ PUSH2 0x225 JUMPI DUP1 PUSH4 0x7FF36AB5 EQ PUSH2 0x244 JUMPI DUP1 PUSH4 0x85F8C259 EQ PUSH2 0x257 JUMPI PUSH0 DUP1 REVERT JUMPDEST DUP1 PUSH4 0x54D50D4 EQ PUSH2 0x14B JUMPI DUP1 PUSH4 0x18CBAFE5 EQ PUSH2 0x17D JUMPI DUP1 PUSH4 0x1F00CA74 EQ PUSH2 0x1A9 JUMPI DUP1 PUSH4 0x38ED1739 EQ PUSH2 0x1C8 JUMPI PUSH0 DUP1 REVERT JUMPDEST CALLDATASIZE PUSH2 0x147 JUMPI CALLER PUSH1 0x1 PUSH1 0x1 PUSH1 0xA0 SHL SUB PUSH32 0x0 AND EQ PUSH2 0x145 JUMPI PUSH2 0x145 PUSH2 0x2FF5 JUMP JUMPDEST STOP JUMPDEST PUSH0 DUP1 REVERT JUMPDEST CALLVALUE DUP1 ISZERO PUSH2 0x156 JUMPI PUSH0 DUP1 REVERT JUMPDEST POP PUSH2 0x16A PUSH2 0x165 CALLDATASIZE PUSH1 0x4 PUSH2 0x3009 JUMP JUMPDEST PUSH2 0x3C4 JUMP JUMPDEST PUSH1 0x40 MLOAD SWAP1 DUP2 MSTORE PUSH1 0x20 ADD JUMPDEST PUSH1 0x40 MLOAD DUP1 SWAP2 SUB SWAP1 RETURN JUMPDEST CALLVALUE DUP1 ISZERO PUSH2 0x188 JUMPI PUSH0 DUP1 REVERT JUMPDEST POP PUSH2 0x19C PUSH2 0x197 CALLDATASIZE PUSH1 0x4 PUSH2 0x3097 JUMP JUMPDEST PUSH2 0x3D8 JUMP JUMPDEST PUSH1 0x40 MLOAD PUSH2 0x174 SWAP2 SWAP1 PUSH2 0x3105 JUMP JUMPDEST CALLVALUE DUP1 ISZERO PUSH2 0x1B4 JUMPI PUSH0 DUP1 REVERT JUMPDEST POP PUSH2 0x19C PUSH2 0x1C3 CALLDATASIZE PUSH1 0x4 PUSH2 0x315C JUMP JUMPDEST PUSH2 0x706 JUMP JUMPDEST CALLVALUE DUP1 ISZERO PUSH2 0x1D3 JUMPI PUSH0 DUP1 REVERT JUMPDEST POP PUSH2 0x19C PUSH2 0x1E2 CALLDATASIZE PUSH1 0x4 PUSH2 0x3097 JUMP JUMPDEST PUSH2 0x73C JUMP JUMPDEST CALLVALUE DUP1 ISZERO PUSH2 0x1F2 JUMPI PUSH0 DUP1 REVERT JUMPDEST POP PUSH2 0x19C PUSH2 0x201 CALLDATASIZE PUSH1 0x4 PUSH2 0x3097 JUMP JUMPDEST PUSH2 0x857 JUMP JUMPDEST CALLVALUE DUP1 ISZERO PUSH2 0x211 JUMPI PUSH0 DUP1 REVERT JUMPDEST POP PUSH2 0x145 PUSH2 0x220 CALLDATASIZE PUSH1 0x4 PUSH2 0x3097 JUMP JUMPDEST PUSH2 0x993 JUMP JUMPDEST CALLVALUE DUP1 ISZERO PUSH2 0x230 JUMPI PUSH0 DUP1 REVERT JUMPDEST POP PUSH2 0x145 PUSH2 0x23F CALLDATASIZE PUSH1 0x4 PUSH2 0x3097 JUMP JUMPDEST PUSH2 0xBED JUMP JUMPDEST PUSH2 0x19C PUSH2 0x252 CALLDATASIZE PUSH1 0x4 PUSH2 0x3228 JUMP JUMPDEST PUSH2 0xE0A JUMP JUMPDEST CALLVALUE DUP1 ISZERO PUSH2 0x262 JUMPI PUSH0 DUP1 REVERT JUMPDEST POP PUSH2 0x16A PUSH2 0x271 CALLDATASIZE PUSH1 0x4 PUSH2 0x3009 JUMP JUMPDEST PUSH2 0x1116 JUMP JUMPDEST CALLVALUE DUP1 ISZERO PUSH2 0x281 JUMPI PUSH0 DUP1 REVERT JUMPDEST POP PUSH2 0x19C PUSH2 0x290 CALLDATASIZE PUSH1 0x4 PUSH2 0x3097 JUMP JUMPDEST PUSH2 0x1122 JUMP JUMPDEST CALLVALUE DUP1 ISZERO PUSH2 0x2A0 JUMPI PUSH0 DUP1 REVERT JUMPDEST POP PUSH2 0x2C8 PUSH32 0x0 DUP2 JUMP JUMPDEST PUSH1 0x40 MLOAD PUSH1 0x1 PUSH1 0x1 PUSH1 0xA0 SHL SUB SWAP1 SWAP2 AND DUP2 MSTORE PUSH1 0x20 ADD PUSH2 0x174 JUMP JUMPDEST CALLVALUE DUP1 ISZERO PUSH2 0x2EB JUMPI PUSH0 DUP1 REVERT JUMPDEST POP PUSH2 0x16A PUSH2 0x2FA CALLDATASIZE PUSH1 0x4 PUSH2 0x3009 JUMP JUMPDEST PUSH2 0x11DD JUMP JUMPDEST PUSH2 0x145 PUSH2 0x30D CALLDATASIZE PUSH1 0x4 PUSH2 0x3228 JUMP JUMPDEST PUSH2 0x11E9 JUMP JUMPDEST CALLVALUE DUP1 ISZERO PUSH2 0x31D JUMPI PUSH0 DUP1 REVERT JUMPDEST POP PUSH2 0x2C8 PUSH32 0x0 DUP2 JUMP JUMPDEST CALLVALUE DUP1 ISZERO PUSH2 0x350 JUMPI PUSH0 DUP1 REVERT JUMPDEST POP PUSH2 0x19C PUSH2 0x35F CALLDATASIZE PUSH1 0x4 PUSH2 0x315C JUMP JUMPDEST PUSH2 0x1515 JUMP JUMPDEST CALLVALUE DUP1 ISZERO PUSH2 0x36F JUMPI PUSH0 DUP1 REVERT JUMPDEST POP PUSH2 0x383 PUSH2 0x37E CALLDATASIZE PUSH1 0x4 PUSH2 0x328A JUMP JUMPDEST PUSH2 0x1542 JUMP JUMPDEST PUSH1 0x40 DUP1 MLOAD SWAP4 DUP5 MSTORE PUSH1 0x20 DUP5 ADD SWAP3 SWAP1 SWAP3 MSTORE SWAP1 DUP3 ADD MSTORE PUSH1 0x60 ADD PUSH2 0x174 JUMP JUMPDEST PUSH2 0x383 PUSH2 0x3AC CALLDATASIZE PUSH1 0x4 PUSH2 0x3301 JUMP JUMPDEST PUSH2 0x168D JUMP JUMPDEST PUSH2 0x19C PUSH2 0x3BF CALLDATASIZE PUSH1 0x4 PUSH2 0x3228 JUMP JUMPDEST PUSH2 0x18DF JUMP JUMPDEST PUSH0 PUSH2 0x3D0 DUP5 DUP5 DUP5 PUSH2 0x1C1E JUMP JUMPDEST SWAP5 SWAP4 POP POP POP POP JUMP JUMPDEST PUSH1 0x60 DUP2 TIMESTAMP DUP2 LT ISZERO PUSH2 0x404 JUMPI PUSH1 0x40 MLOAD PUSH3 0x461BCD PUSH1 0xE5 SHL DUP2 MSTORE PUSH1 0x4 ADD PUSH2 0x3FB SWAP1 PUSH2 0x335B JUMP JUMPDEST PUSH1 0x40 MLOAD DUP1 SWAP2 SUB SWAP1 REVERT JUMPDEST PUSH1 0x1 PUSH1 0x1 PUSH1 0xA0 SHL SUB PUSH32 0x0 AND DUP7 DUP7 PUSH2 0x43B PUSH1 0x1 DUP3 PUSH2 0x33A6 JUMP JUMPDEST DUP2 DUP2 LT PUSH2 0x44A JUMPI PUSH2 0x44A PUSH2 0x33B9 JUMP JUMPDEST SWAP1 POP PUSH1 0x20 MUL ADD PUSH1 0x20 DUP2 ADD SWAP1 PUSH2 0x45F SWAP2 SWAP1 PUSH2 0x33CD JUMP JUMPDEST PUSH1 0x1 PUSH1 0x1 PUSH1 0xA0 SHL SUB AND EQ PUSH2 0x485 JUMPI PUSH1 0x40 MLOAD PUSH3 0x461BCD PUSH1 0xE5 SHL DUP2 MSTORE PUSH1 0x4 ADD PUSH2 0x3FB SWAP1 PUSH2 0x33EF JUMP JUMPDEST PUSH2 0x4E2 PUSH32 0x0 DUP10 DUP9 DUP9 DUP1 DUP1 PUSH1 0x20 MUL PUSH1 0x20 ADD PUSH1 0x40 MLOAD SWAP1 DUP2 ADD PUSH1 0x40 MSTORE DUP1 SWAP4 SWAP3 SWAP2 SWAP1 DUP2 DUP2 MSTORE PUSH1 0x20 ADD DUP4 DUP4 PUSH1 0x20 MUL DUP1 DUP3 DUP5 CALLDATACOPY PUSH0 SWAP3 ADD SWAP2 SWAP1 SWAP2 MSTORE POP PUSH2 0x1CF6 SWAP3 POP POP POP JUMP JUMPDEST SWAP2 POP DUP7 DUP3 PUSH1 0x1 DUP5 MLOAD PUSH2 0x4F4 SWAP2 SWAP1 PUSH2 0x33A6 JUMP JUMPDEST DUP2 MLOAD DUP2 LT PUSH2 0x504 JUMPI PUSH2 0x504 PUSH2 0x33B9 JUMP JUMPDEST PUSH1 0x20 MUL PUSH1 0x20 ADD ADD MLOAD LT ISZERO PUSH2 0x52A JUMPI PUSH1 0x40 MLOAD PUSH3 0x461BCD PUSH1 0xE5 SHL DUP2 MSTORE PUSH1 0x4 ADD PUSH2 0x3FB SWAP1 PUSH2 0x3426 JUMP JUMPDEST PUSH2 0x5EC DUP7 DUP7 PUSH0 DUP2 DUP2 LT PUSH2 0x53F JUMPI PUSH2 0x53F PUSH2 0x33B9 JUMP JUMPDEST SWAP1 POP PUSH1 0x20 MUL ADD PUSH1 0x20 DUP2 ADD SWAP1 PUSH2 0x554 SWAP2 SWAP1 PUSH2 0x33CD JUMP JUMPDEST CALLER PUSH2 0x5CD PUSH32 0x0 DUP11 DUP11 PUSH0 DUP2 DUP2 LT PUSH2 0x58B JUMPI PUSH2 0x58B PUSH2 0x33B9 JUMP JUMPDEST SWAP1 POP PUSH1 0x20 MUL ADD PUSH1 0x20 DUP2 ADD SWAP1 PUSH2 0x5A0 SWAP2 SWAP1 PUSH2 0x33CD JUMP JUMPDEST DUP12 DUP12 PUSH1 0x1 DUP2 DUP2 LT PUSH2 0x5B3 JUMPI PUSH2 0x5B3 PUSH2 0x33B9 JUMP JUMPDEST SWAP1 POP PUSH1 0x20 MUL ADD PUSH1 0x20 DUP2 ADD SWAP1 PUSH2 0x5C8 SWAP2 SWAP1 PUSH2 0x33CD JUMP JUMPDEST PUSH2 0x1E7E JUMP JUMPDEST DUP6 PUSH0 DUP2 MLOAD DUP2 LT PUSH2 0x5DF JUMPI PUSH2 0x5DF PUSH2 0x33B9 JUMP JUMPDEST PUSH1 0x20 MUL PUSH1 0x20 ADD ADD MLOAD PUSH2 0x1F55 JUMP JUMPDEST PUSH2 0x62A DUP3 DUP8 DUP8 DUP1 DUP1 PUSH1 0x20 MUL PUSH1 0x20 ADD PUSH1 0x40 MLOAD SWAP1 DUP2 ADD PUSH1 0x40 MSTORE DUP1 SWAP4 SWAP3 SWAP2 SWAP1 DUP2 DUP2 MSTORE PUSH1 0x20 ADD DUP4 DUP4 PUSH1 0x20 MUL DUP1 DUP3 DUP5 CALLDATACOPY PUSH0 SWAP3 ADD SWAP2 SWAP1 SWAP2 MSTORE POP ADDRESS SWAP3 POP PUSH2 0x208E SWAP2 POP POP JUMP JUMPDEST PUSH32 0x0 PUSH1 0x1 PUSH1 0x1 PUSH1 0xA0 SHL SUB AND PUSH4 0x2E1A7D4D DUP4 PUSH1 0x1 DUP6 MLOAD PUSH2 0x668 SWAP2 SWAP1 PUSH2 0x33A6 JUMP JUMPDEST DUP2 MLOAD DUP2 LT PUSH2 0x678 JUMPI PUSH2 0x678 PUSH2 0x33B9 JUMP JUMPDEST PUSH1 0x20 MUL PUSH1 0x20 ADD ADD MLOAD PUSH1 0x40 MLOAD DUP3 PUSH4 0xFFFFFFFF AND PUSH1 0xE0 SHL DUP2 MSTORE PUSH1 0x4 ADD PUSH2 0x69E SWAP2 DUP2 MSTORE PUSH1 0x20 ADD SWAP1 JUMP JUMPDEST PUSH0 PUSH1 0x40 MLOAD DUP1 DUP4 SUB DUP2 PUSH0 DUP8 DUP1 EXTCODESIZE ISZERO DUP1 ISZERO PUSH2 0x6B5 JUMPI PUSH0 DUP1 REVERT JUMPDEST POP GAS CALL ISZERO DUP1 ISZERO PUSH2 0x6C7 JUMPI RETURNDATASIZE PUSH0 DUP1 RETURNDATACOPY RETURNDATASIZE PUSH0 REVERT JUMPDEST POP POP POP POP PUSH2 0x6FB DUP5 DUP4 PUSH1 0x1 DUP6 MLOAD PUSH2 0x6DE SWAP2 SWAP1 PUSH2 0x33A6 JUMP JUMPDEST DUP2 MLOAD DUP2 LT PUSH2 0x6EE JUMPI PUSH2 0x6EE PUSH2 0x33B9 JUMP JUMPDEST PUSH1 0x20 MUL PUSH1 0x20 ADD ADD MLOAD PUSH2 0x2288 JUMP JUMPDEST POP SWAP7 SWAP6 POP POP POP POP POP POP JUMP JUMPDEST PUSH1 0x60 PUSH2 0x733 PUSH32 0x0 DUP5 DUP5 PUSH2 0x2363 JUMP JUMPDEST SWAP1 POP JUMPDEST SWAP3 SWAP2 POP POP JUMP JUMPDEST PUSH1 0x60 DUP2 TIMESTAMP DUP2 LT ISZERO PUSH2 0x75F JUMPI PUSH1 0x40 MLOAD PUSH3 0x461BCD PUSH1 0xE5 SHL DUP2 MSTORE PUSH1 0x4 ADD PUSH2 0x3FB SWAP1 PUSH2 0x335B JUMP JUMPDEST PUSH2 0x7BC PUSH32 0x0 DUP10 DUP9 DUP9 DUP1 DUP1 PUSH1 0x20 MUL PUSH1 0x20 ADD PUSH1 0x40 MLOAD SWAP1 DUP2 ADD PUSH1 0x40 MSTORE DUP1 SWAP4 SWAP3 SWAP2 SWAP1 DUP2 DUP2 MSTORE PUSH1 0x20 ADD DUP4 DUP4 PUSH1 0x20 MUL DUP1 DUP3 DUP5 CALLDATACOPY PUSH0 SWAP3 ADD SWAP2 SWAP1 SWAP2 MSTORE POP PUSH2 0x1CF6 SWAP3 POP POP POP JUMP JUMPDEST SWAP2 POP DUP7 DUP3 PUSH1 0x1 DUP5 MLOAD PUSH2 0x7CE SWAP2 SWAP1 PUSH2 0x33A6 JUMP JUMPDEST DUP2 MLOAD DUP2 LT PUSH2 0x7DE JUMPI PUSH2 0x7DE PUSH2 0x33B9 JUMP JUMPDEST PUSH1 0x20 MUL PUSH1 0x20 ADD ADD MLOAD LT ISZERO PUSH2 0x804 JUMPI PUSH1 0x40 MLOAD PUSH3 0x461BCD PUSH1 0xE5 SHL DUP2 MSTORE PUSH1 0x4 ADD PUSH2 0x3FB SWAP1 PUSH2 0x3426 JUMP JUMPDEST PUSH2 0x819 DUP7 DUP7 PUSH0 DUP2 DUP2 LT PUSH2 0x53F JUMPI PUSH2 0x53F PUSH2 0x33B9 JUMP JUMPDEST PUSH2 0x6FB DUP3 DUP8 DUP8 DUP1 DUP1 PUSH1 0x20 MUL PUSH1 0x20 ADD PUSH1 0x40 MLOAD SWAP1 DUP2 ADD PUSH1 0x40 MSTORE DUP1 SWAP4 SWAP3 SWAP2 SWAP1 DUP2 DUP2 MSTORE PUSH1 0x20 ADD DUP4 DUP4 PUSH1 0x20 MUL DUP1 DUP3 DUP5 CALLDATACOPY PUSH0 SWAP3 ADD SWAP2 SWAP1 SWAP2 MSTORE POP DUP10 SWAP3 POP PUSH2 0x208E SWAP2 POP POP JUMP JUMPDEST PUSH1 0x60 DUP2 TIMESTAMP DUP2 LT ISZERO PUSH2 0x87A JUMPI PUSH1 0x40 MLOAD PUSH3 0x461BCD PUSH1 0xE5 SHL DUP2 MSTORE PUSH1 0x4 ADD PUSH2 0x3FB SWAP1 PUSH2 0x335B JUMP JUMPDEST PUSH1 0x1 PUSH1 0x1 PUSH1 0xA0 SHL SUB PUSH32 0x0 AND DUP7 DUP7 PUSH2 0x8B1 PUSH1 0x1 DUP3 PUSH2 0x33A6 JUMP JUMPDEST DUP2 DUP2 LT PUSH2 0x8C0 JUMPI PUSH2 0x8C0 PUSH2 0x33B9 JUMP JUMPDEST SWAP1 POP PUSH1 0x20 MUL ADD PUSH1 0x20 DUP2 ADD SWAP1 PUSH2 0x8D5 SWAP2 SWAP1 PUSH2 0x33CD JUMP JUMPDEST PUSH1 0x1 PUSH1 0x1 PUSH1 0xA0 SHL SUB AND EQ PUSH2 0x8FB JUMPI PUSH1 0x40 MLOAD PUSH3 0x461BCD PUSH1 0xE5 SHL DUP2 MSTORE PUSH1 0x4 ADD PUSH2 0x3FB SWAP1 PUSH2 0x33EF JUMP JUMPDEST PUSH2 0x958 PUSH32 0x0 DUP10 DUP9 DUP9 DUP1 DUP1 PUSH1 0x20 MUL PUSH1 0x20 ADD PUSH1 0x40 MLOAD SWAP1 DUP2 ADD PUSH1 0x40 MSTORE DUP1 SWAP4 SWAP3 SWAP2 SWAP1 DUP2 DUP2 MSTORE PUSH1 0x20 ADD DUP4 DUP4 PUSH1 0x20 MUL DUP1 DUP3 DUP5 CALLDATACOPY PUSH0 SWAP3 ADD SWAP2 SWAP1 SWAP2 MSTORE POP PUSH2 0x2363 SWAP3 POP POP POP JUMP JUMPDEST SWAP2 POP DUP7 DUP3 PUSH0 DUP2 MLOAD DUP2 LT PUSH2 0x96D JUMPI PUSH2 0x96D PUSH2 0x33B9 JUMP JUMPDEST PUSH1 0x20 MUL PUSH1 0x20 ADD ADD MLOAD GT ISZERO PUSH2 0x52A JUMPI PUSH1 0x40 MLOAD PUSH3 0x461BCD PUSH1 0xE5 SHL DUP2 MSTORE PUSH1 0x4 ADD PUSH2 0x3FB SWAP1 PUSH2 0x3471 JUMP JUMPDEST DUP1 TIMESTAMP DUP2 LT ISZERO PUSH2 0x9B4 JUMPI PUSH1 0x40 MLOAD PUSH3 0x461BCD PUSH1 0xE5 SHL DUP2 MSTORE PUSH1 0x4 ADD PUSH2 0x3FB SWAP1 PUSH2 0x335B JUMP JUMPDEST PUSH2 0xA43 DUP6 DUP6 PUSH0 DUP2 DUP2 LT PUSH2 0x9C9 JUMPI PUSH2 0x9C9 PUSH2 0x33B9 JUMP JUMPDEST SWAP1 POP PUSH1 0x20 MUL ADD PUSH1 0x20 DUP2 ADD SWAP1 PUSH2 0x9DE SWAP2 SWAP1 PUSH2 0x33CD JUMP JUMPDEST CALLER PUSH2 0xA3D PUSH32 0x0 DUP10 DUP10 PUSH0 DUP2 DUP2 LT PUSH2 0xA15 JUMPI PUSH2 0xA15 PUSH2 0x33B9 JUMP JUMPDEST SWAP1 POP PUSH1 0x20 MUL ADD PUSH1 0x20 DUP2 ADD SWAP1 PUSH2 0xA2A SWAP2 SWAP1 PUSH2 0x33CD JUMP JUMPDEST DUP11 DUP11 PUSH1 0x1 DUP2 DUP2 LT PUSH2 0x5B3 JUMPI PUSH2 0x5B3 PUSH2 0x33B9 JUMP JUMPDEST DUP11 PUSH2 0x1F55 JUMP JUMPDEST PUSH0 DUP6 DUP6 PUSH2 0xA51 PUSH1 0x1 DUP3 PUSH2 0x33A6 JUMP JUMPDEST DUP2 DUP2 LT PUSH2 0xA60 JUMPI PUSH2 0xA60 PUSH2 0x33B9 JUMP JUMPDEST SWAP1 POP PUSH1 0x20 MUL ADD PUSH1 0x20 DUP2 ADD SWAP1 PUSH2 0xA75 SWAP2 SWAP1 PUSH2 0x33CD JUMP JUMPDEST PUSH1 0x40 MLOAD PUSH4 0x70A08231 PUSH1 0xE0 SHL DUP2 MSTORE PUSH1 0x1 PUSH1 0x1 PUSH1 0xA0 SHL SUB DUP7 DUP2 AND PUSH1 0x4 DUP4 ADD MSTORE SWAP2 SWAP1 SWAP2 AND SWAP1 PUSH4 0x70A08231 SWAP1 PUSH1 0x24 ADD PUSH1 0x20 PUSH1 0x40 MLOAD DUP1 DUP4 SUB DUP2 DUP7 GAS STATICCALL ISZERO DUP1 ISZERO PUSH2 0xABB JUMPI RETURNDATASIZE PUSH0 DUP1 RETURNDATACOPY RETURNDATASIZE PUSH0 REVERT JUMPDEST POP POP POP POP PUSH1 0x40 MLOAD RETURNDATASIZE PUSH1 0x1F NOT PUSH1 0x1F DUP3 ADD AND DUP3 ADD DUP1 PUSH1 0x40 MSTORE POP DUP2 ADD SWAP1 PUSH2 0xADF SWAP2 SWAP1 PUSH2 0x34B8 JUMP JUMPDEST SWAP1 POP PUSH2 0xB1E DUP7 DUP7 DUP1 DUP1 PUSH1 0x20 MUL PUSH1 0x20 ADD PUSH1 0x40 MLOAD SWAP1 DUP2 ADD PUSH1 0x40 MSTORE DUP1 SWAP4 SWAP3 SWAP2 SWAP1 DUP2 DUP2 MSTORE PUSH1 0x20 ADD DUP4 DUP4 PUSH1 0x20 MUL DUP1 DUP3 DUP5 CALLDATACOPY PUSH0 SWAP3 ADD SWAP2 SWAP1 SWAP2 MSTORE POP DUP9 SWAP3 POP PUSH2 0x24E2 SWAP2 POP POP JUMP JUMPDEST DUP7 PUSH2 0xBC5 DUP3 DUP9 DUP9 PUSH2 0xB30 PUSH1 0x1 DUP3 PUSH2 0x33A6 JUMP JUMPDEST DUP2 DUP2 LT PUSH2 0xB3F JUMPI PUSH2 0xB3F PUSH2 0x33B9 JUMP JUMPDEST SWAP1 POP PUSH1 0x20 MUL ADD PUSH1 0x20 DUP2 ADD SWAP1 PUSH2 0xB54 SWAP2 SWAP1 PUSH2 0x33CD JUMP JUMPDEST PUSH1 0x40 MLOAD PUSH4 0x70A08231 PUSH1 0xE0 SHL DUP2 MSTORE PUSH1 0x1 PUSH1 0x1 PUSH1 0xA0 SHL SUB DUP10 DUP2 AND PUSH1 0x4 DUP4 ADD MSTORE SWAP2 SWAP1 SWAP2 AND SWAP1 PUSH4 0x70A08231 SWAP1 PUSH1 0x24 ADD JUMPDEST PUSH1 0x20 PUSH1 0x40 MLOAD DUP1 DUP4 SUB DUP2 DUP7 GAS STATICCALL ISZERO DUP1 ISZERO PUSH2 0xB9B JUMPI RETURNDATASIZE PUSH0 DUP1 RETURNDATACOPY RETURNDATASIZE PUSH0 REVERT JUMPDEST POP POP POP POP PUSH1 0x40 MLOAD RETURNDATASIZE PUSH1 0x1F NOT PUSH1 0x1F DUP3 ADD AND DUP3 ADD DUP1 PUSH1 0x40 MSTORE POP DUP2 ADD SWAP1 PUSH2 0xBBF SWAP2 SWAP1 PUSH2 0x34B8 JUMP JUMPDEST SWAP1 PUSH2 0x2768 JUMP JUMPDEST LT ISZERO PUSH2 0xBE3 JUMPI PUSH1 0x40 MLOAD PUSH3 0x461BCD PUSH1 0xE5 SHL DUP2 MSTORE PUSH1 0x4 ADD PUSH2 0x3FB SWAP1 PUSH2 0x3426 JUMP JUMPDEST POP POP POP POP POP POP POP POP JUMP JUMPDEST DUP1 TIMESTAMP DUP2 LT ISZERO PUSH2 0xC0E JUMPI PUSH1 0x40 MLOAD PUSH3 0x461BCD PUSH1 0xE5 SHL DUP2 MSTORE PUSH1 0x4 ADD PUSH2 0x3FB SWAP1 PUSH2 0x335B JUMP JUMPDEST PUSH1 0x1 PUSH1 0x1 PUSH1 0xA0 SHL SUB PUSH32 0x0 AND DUP6 DUP6 PUSH2 0xC45 PUSH1 0x1 DUP3 PUSH2 0x33A6 JUMP JUMPDEST DUP2 DUP2 LT PUSH2 0xC54 JUMPI PUSH2 0xC54 PUSH2 0x33B9 JUMP JUMPDEST SWAP1 POP PUSH1 0x20 MUL ADD PUSH1 0x20 DUP2 ADD SWAP1 PUSH2 0xC69 SWAP2 SWAP1 PUSH2 0x33CD JUMP JUMPDEST PUSH1 0x1 PUSH1 0x1 PUSH1 0xA0 SHL SUB AND EQ PUSH2 0xC8F JUMPI PUSH1 0x40 MLOAD PUSH3 0x461BCD PUSH1 0xE5 SHL DUP2 MSTORE PUSH1 0x4 ADD PUSH2 0x3FB SWAP1 PUSH2 0x33EF JUMP JUMPDEST PUSH2 0xCA4 DUP6 DUP6 PUSH0 DUP2 DUP2 LT PUSH2 0x9C9 JUMPI PUSH2 0x9C9 PUSH2 0x33B9 JUMP JUMPDEST PUSH2 0xCE1 DUP6 DUP6 DUP1 DUP1 PUSH1 0x20 MUL PUSH1 0x20 ADD PUSH1 0x40 MLOAD SWAP1 DUP2 ADD PUSH1 0x40 MSTORE DUP1 SWAP4 SWAP3 SWAP2 SWAP1 DUP2 DUP2 MSTORE PUSH1 0x20 ADD DUP4 DUP4 PUSH1 0x20 MUL DUP1 DUP3 DUP5 CALLDATACOPY PUSH0 SWAP3 ADD SWAP2 SWAP1 SWAP2 MSTORE POP ADDRESS SWAP3 POP PUSH2 0x24E2 SWAP2 POP POP JUMP JUMPDEST PUSH1 0x40 MLOAD PUSH4 0x70A08231 PUSH1 0xE0 SHL DUP2 MSTORE ADDRESS PUSH1 0x4 DUP3 ADD MSTORE PUSH0 SWAP1 PUSH32 0x0 PUSH1 0x1 PUSH1 0x1 PUSH1 0xA0 SHL SUB AND SWAP1 PUSH4 0x70A08231 SWAP1 PUSH1 0x24 ADD PUSH1 0x20 PUSH1 0x40 MLOAD DUP1 DUP4 SUB DUP2 DUP7 GAS STATICCALL ISZERO DUP1 ISZERO PUSH2 0xD45 JUMPI RETURNDATASIZE PUSH0 DUP1 RETURNDATACOPY RETURNDATASIZE PUSH0 REVERT JUMPDEST POP POP POP POP PUSH1 0x40 MLOAD RETURNDATASIZE PUSH1 0x1F NOT PUSH1 0x1F DUP3 ADD AND DUP3 ADD DUP1 PUSH1 0x40 MSTORE POP DUP2 ADD SWAP1 PUSH2 0xD69 SWAP2 SWAP1 PUSH2 0x34B8 JUMP JUMPDEST SWAP1 POP DUP7 DUP2 LT ISZERO PUSH2 0xD8B JUMPI PUSH1 0x40 MLOAD PUSH3 0x461BCD PUSH1 0xE5 SHL DUP2 MSTORE PUSH1 0x4 ADD PUSH2 0x3FB SWAP1 PUSH2 0x3426 JUMP JUMPDEST PUSH1 0x40 MLOAD PUSH4 0x2E1A7D4D PUSH1 0xE0 SHL DUP2 MSTORE PUSH1 0x4 DUP2 ADD DUP3 SWAP1 MSTORE PUSH32 0x0 PUSH1 0x1 PUSH1 0x1 PUSH1 0xA0 SHL SUB AND SWAP1 PUSH4 0x2E1A7D4D SWAP1 PUSH1 0x24 ADD PUSH0 PUSH1 0x40 MLOAD DUP1 DUP4 SUB DUP2 PUSH0 DUP8 DUP1 EXTCODESIZE ISZERO DUP1 ISZERO PUSH2 0xDEA JUMPI PUSH0 DUP1 REVERT JUMPDEST POP GAS CALL ISZERO DUP1 ISZERO PUSH2 0xDFC JUMPI RETURNDATASIZE PUSH0 DUP1 RETURNDATACOPY RETURNDATASIZE PUSH0 REVERT JUMPDEST POP POP POP POP PUSH2 0xBE3 DUP5 DUP3 PUSH2 0x2288 JUMP JUMPDEST PUSH1 0x60 DUP2 TIMESTAMP DUP2 LT ISZERO PUSH2 0xE2D JUMPI PUSH1 0x40 MLOAD PUSH3 0x461BCD PUSH1 0xE5 SHL DUP2 MSTORE PUSH1 0x4 ADD PUSH2 0x3FB SWAP1 PUSH2 0x335B JUMP JUMPDEST PUSH32 0x0 PUSH1 0x1 PUSH1 0x1 PUSH1 0xA0 SHL SUB AND DUP7 DUP7 PUSH0 DUP2 DUP2 LT PUSH2 0xE69 JUMPI PUSH2 0xE69 PUSH2 0x33B9 JUMP JUMPDEST SWAP1 POP PUSH1 0x20 MUL ADD PUSH1 0x20 DUP2 ADD SWAP1 PUSH2 0xE7E SWAP2 SWAP1 PUSH2 0x33CD JUMP JUMPDEST PUSH1 0x1 PUSH1 0x1 PUSH1 0xA0 SHL SUB AND EQ PUSH2 0xEA4 JUMPI PUSH1 0x40 MLOAD PUSH3 0x461BCD PUSH1 0xE5 SHL DUP2 MSTORE PUSH1 0x4 ADD PUSH2 0x3FB SWAP1 PUSH2 0x33EF JUMP JUMPDEST PUSH2 0xF01 PUSH32 0x0 CALLVALUE DUP9 DUP9 DUP1 DUP1 PUSH1 0x20 MUL PUSH1 0x20 ADD PUSH1 0x40 MLOAD SWAP1 DUP2 ADD PUSH1 0x40 MSTORE DUP1 SWAP4 SWAP3 SWAP2 SWAP1 DUP2 DUP2 MSTORE PUSH1 0x20 ADD DUP4 DUP4 PUSH1 0x20 MUL DUP1 DUP3 DUP5 CALLDATACOPY PUSH0 SWAP3 ADD SWAP2 SWAP1 SWAP2 MSTORE POP PUSH2 0x1CF6 SWAP3 POP POP POP JUMP JUMPDEST SWAP2 POP DUP7 DUP3 PUSH1 0x1 DUP5 MLOAD PUSH2 0xF13 SWAP2 SWAP1 PUSH2 0x33A6 JUMP JUMPDEST DUP2 MLOAD DUP2 LT PUSH2 0xF23 JUMPI PUSH2 0xF23 PUSH2 0x33B9 JUMP JUMPDEST PUSH1 0x20 MUL PUSH1 0x20 ADD ADD MLOAD LT ISZERO PUSH2 0xF49 JUMPI PUSH1 0x40 MLOAD PUSH3 0x461BCD PUSH1 0xE5 SHL DUP2 MSTORE PUSH1 0x4 ADD PUSH2 0x3FB SWAP1 PUSH2 0x3426 JUMP JUMPDEST PUSH32 0x0 PUSH1 0x1 PUSH1 0x1 PUSH1 0xA0 SHL SUB AND PUSH4 0xD0E30DB0 DUP4 PUSH0 DUP2 MLOAD DUP2 LT PUSH2 0xF8A JUMPI PUSH2 0xF8A PUSH2 0x33B9 JUMP JUMPDEST PUSH1 0x20 MUL PUSH1 0x20 ADD ADD MLOAD PUSH1 0x40 MLOAD DUP3 PUSH4 0xFFFFFFFF AND PUSH1 0xE0 SHL DUP2 MSTORE PUSH1 0x4 ADD PUSH0 PUSH1 0x40 MLOAD DUP1 DUP4 SUB DUP2 DUP6 DUP9 DUP1 EXTCODESIZE ISZERO DUP1 ISZERO PUSH2 0xFBB JUMPI PUSH0 DUP1 REVERT JUMPDEST POP GAS CALL ISZERO DUP1 ISZERO PUSH2 0xFCD JUMPI RETURNDATASIZE PUSH0 DUP1 RETURNDATACOPY RETURNDATASIZE PUSH0 REVERT JUMPDEST POP POP POP POP POP PUSH32 0x0 PUSH1 0x1 PUSH1 0x1 PUSH1 0xA0 SHL SUB AND PUSH4 0xA9059CBB PUSH2 0x1037 PUSH32 0x0 DUP10 DUP10 PUSH0 DUP2 DUP2 LT PUSH2 0xA15 JUMPI PUSH2 0xA15 PUSH2 0x33B9 JUMP JUMPDEST DUP5 PUSH0 DUP2 MLOAD DUP2 LT PUSH2 0x1049 JUMPI PUSH2 0x1049 PUSH2 0x33B9 JUMP JUMPDEST PUSH1 0x20 MUL PUSH1 0x20 ADD ADD MLOAD PUSH1 0x40 MLOAD DUP4 PUSH4 0xFFFFFFFF AND PUSH1 0xE0 SHL DUP2 MSTORE PUSH1 0x4 ADD PUSH2 0x1082 SWAP3 SWAP2 SWAP1 PUSH1 0x1 PUSH1 0x1 PUSH1 0xA0 SHL SUB SWAP3 SWAP1 SWAP3 AND DUP3 MSTORE PUSH1 0x20 DUP3 ADD MSTORE PUSH1 0x40 ADD SWAP1 JUMP JUMPDEST PUSH1 0x20 PUSH1 0x40 MLOAD DUP1 DUP4 SUB DUP2 PUSH0 DUP8 GAS CALL ISZERO DUP1 ISZERO PUSH2 0x109E JUMPI RETURNDATASIZE PUSH0 DUP1 RETURNDATACOPY RETURNDATASIZE PUSH0 REVERT JUMPDEST POP POP POP POP PUSH1 0x40 MLOAD RETURNDATASIZE PUSH1 0x1F NOT PUSH1 0x1F DUP3 ADD AND DUP3 ADD DUP1 PUSH1 0x40 MSTORE POP DUP2 ADD SWAP1 PUSH2 0x10C2 SWAP2 SWAP1 PUSH2 0x34CF JUMP JUMPDEST PUSH2 0x10CE JUMPI PUSH2 0x10CE PUSH2 0x2FF5 JUMP JUMPDEST PUSH2 0x110C DUP3 DUP8 DUP8 DUP1 DUP1 PUSH1 0x20 MUL PUSH1 0x20 ADD PUSH1 0x40 MLOAD SWAP1 DUP2 ADD PUSH1 0x40 MSTORE DUP1 SWAP4 SWAP3 SWAP2 SWAP1 DUP2 DUP2 MSTORE PUSH1 0x20 ADD DUP4 DUP4 PUSH1 0x20 MUL DUP1 DUP3 DUP5 CALLDATACOPY PUSH0 SWAP3 ADD SWAP2 SWAP1 SWAP2 MSTORE POP DUP10 SWAP3 POP PUSH2 0x208E SWAP2 POP POP JUMP JUMPDEST POP SWAP6 SWAP5 POP POP POP POP POP JUMP JUMPDEST PUSH0 PUSH2 0x3D0 DUP5 DUP5 DUP5 PUSH2 0x27BD JUMP JUMPDEST PUSH1 0x60 DUP2 TIMESTAMP DUP2 LT ISZERO PUSH2 0x1145 JUMPI PUSH1 0x40 MLOAD PUSH3 0x461BCD PUSH1 0xE5 SHL DUP2 MSTORE PUSH1 0x4 ADD PUSH2 0x3FB SWAP1 PUSH2 0x335B JUMP JUMPDEST PUSH2 0x11A2 PUSH32 0x0 DUP10 DUP9 DUP9 DUP1 DUP1 PUSH1 0x20 MUL PUSH1 0x20 ADD PUSH1 0x40 MLOAD SWAP1 DUP2 ADD PUSH1 0x40 MSTORE DUP1 SWAP4 SWAP3 SWAP2 SWAP1 DUP2 DUP2 MSTORE PUSH1 0x20 ADD DUP4 DUP4 PUSH1 0x20 MUL DUP1 DUP3 DUP5 CALLDATACOPY PUSH0 SWAP3 ADD SWAP2 SWAP1 SWAP2 MSTORE POP PUSH2 0x2363 SWAP3 POP POP POP JUMP JUMPDEST SWAP2 POP DUP7 DUP3 PUSH0 DUP2 MLOAD DUP2 LT PUSH2 0x11B7 JUMPI PUSH2 0x11B7 PUSH2 0x33B9 JUMP JUMPDEST PUSH1 0x20 MUL PUSH1 0x20 ADD ADD MLOAD GT ISZERO PUSH2 0x804 JUMPI PUSH1 0x40 MLOAD PUSH3 0x461BCD PUSH1 0xE5 SHL DUP2 MSTORE PUSH1 0x4 ADD PUSH2 0x3FB SWAP1 PUSH2 0x3471 JUMP JUMPDEST PUSH0 PUSH2 0x3D0 DUP5 DUP5 DUP5 PUSH2 0x2891 JUMP JUMPDEST DUP1 TIMESTAMP DUP2 LT ISZERO PUSH2 0x120A JUMPI PUSH1 0x40 MLOAD PUSH3 0x461BCD PUSH1 0xE5 SHL DUP2 MSTORE PUSH1 0x4 ADD PUSH2 0x3FB SWAP1 PUSH2 0x335B JUMP JUMPDEST PUSH32 0x0 PUSH1 0x1 PUSH1 0x1 PUSH1 0xA0 SHL SUB AND DUP6 DUP6 PUSH0 DUP2 DUP2 LT PUSH2 0x1246 JUMPI PUSH2 0x1246 PUSH2 0x33B9 JUMP JUMPDEST SWAP1 POP PUSH1 0x20 MUL ADD PUSH1 0x20 DUP2 ADD SWAP1 PUSH2 0x125B SWAP2 SWAP1 PUSH2 0x33CD JUMP JUMPDEST PUSH1 0x1 PUSH1 0x1 PUSH1 0xA0 SHL SUB AND EQ PUSH2 0x1281 JUMPI PUSH1 0x40 MLOAD PUSH3 0x461BCD PUSH1 0xE5 SHL DUP2 MSTORE PUSH1 0x4 ADD PUSH2 0x3FB SWAP1 PUSH2 0x33EF JUMP JUMPDEST PUSH0 CALLVALUE SWAP1 POP PUSH32 0x0 PUSH1 0x1 PUSH1 0x1 PUSH1 0xA0 SHL SUB AND PUSH4 0xD0E30DB0 DUP3 PUSH1 0x40 MLOAD DUP3 PUSH4 0xFFFFFFFF AND PUSH1 0xE0 SHL DUP2 MSTORE PUSH1 0x4 ADD PUSH0 PUSH1 0x40 MLOAD DUP1 DUP4 SUB DUP2 DUP6 DUP9 DUP1 EXTCODESIZE ISZERO DUP1 ISZERO PUSH2 0x12DE JUMPI PUSH0 DUP1 REVERT JUMPDEST POP GAS CALL ISZERO DUP1 ISZERO PUSH2 0x12F0 JUMPI RETURNDATASIZE PUSH0 DUP1 RETURNDATACOPY RETURNDATASIZE PUSH0 REVERT JUMPDEST POP POP POP POP POP PUSH32 0x0 PUSH1 0x1 PUSH1 0x1 PUSH1 0xA0 SHL SUB AND PUSH4 0xA9059CBB PUSH2 0x135A PUSH32 0x0 DUP10 DUP10 PUSH0 DUP2 DUP2 LT PUSH2 0xA15 JUMPI PUSH2 0xA15 PUSH2 0x33B9 JUMP JUMPDEST PUSH1 0x40 MLOAD PUSH1 0x1 PUSH1 0x1 PUSH1 0xE0 SHL SUB NOT PUSH1 0xE0 DUP5 SWAP1 SHL AND DUP2 MSTORE PUSH1 0x1 PUSH1 0x1 PUSH1 0xA0 SHL SUB SWAP1 SWAP2 AND PUSH1 0x4 DUP3 ADD MSTORE PUSH1 0x24 DUP2 ADD DUP5 SWAP1 MSTORE PUSH1 0x44 ADD PUSH1 0x20 PUSH1 0x40 MLOAD DUP1 DUP4 SUB DUP2 PUSH0 DUP8 GAS CALL ISZERO DUP1 ISZERO PUSH2 0x13A4 JUMPI RETURNDATASIZE PUSH0 DUP1 RETURNDATACOPY RETURNDATASIZE PUSH0 REVERT JUMPDEST POP POP POP POP PUSH1 0x40 MLOAD RETURNDATASIZE PUSH1 0x1F NOT PUSH1 0x1F DUP3 ADD AND DUP3 ADD DUP1 PUSH1 0x40 MSTORE POP DUP2 ADD SWAP1 PUSH2 0x13C8 SWAP2 SWAP1 PUSH2 0x34CF JUMP JUMPDEST PUSH2 0x13D4 JUMPI PUSH2 0x13D4 PUSH2 0x2FF5 JUMP JUMPDEST PUSH0 DUP7 DUP7 PUSH2 0x13E2 PUSH1 0x1 DUP3 PUSH2 0x33A6 JUMP JUMPDEST DUP2 DUP2 LT PUSH2 0x13F1 JUMPI PUSH2 0x13F1 PUSH2 0x33B9 JUMP JUMPDEST SWAP1 POP PUSH1 0x20 MUL ADD PUSH1 0x20 DUP2 ADD SWAP1 PUSH2 0x1406 SWAP2 SWAP1 PUSH2 0x33CD JUMP JUMPDEST PUSH1 0x40 MLOAD PUSH4 0x70A08231 PUSH1 0xE0 SHL DUP2 MSTORE PUSH1 0x1 PUSH1 0x1 PUSH1 0xA0 SHL SUB DUP8 DUP2 AND PUSH1 0x4 DUP4 ADD MSTORE SWAP2 SWAP1 SWAP2 AND SWAP1 PUSH4 0x70A08231 SWAP1 PUSH1 0x24 ADD PUSH1 0x20 PUSH1 0x40 MLOAD DUP1 DUP4 SUB DUP2 DUP7 GAS STATICCALL ISZERO DUP1 ISZERO PUSH2 0x144C JUMPI RETURNDATASIZE PUSH0 DUP1 RETURNDATACOPY RETURNDATASIZE PUSH0 REVERT JUMPDEST POP POP POP POP PUSH1 0x40 MLOAD RETURNDATASIZE PUSH1 0x1F NOT PUSH1 0x1F DUP3 ADD AND DUP3 ADD DUP1 PUSH1 0x40 MSTORE POP DUP2 ADD SWAP1 PUSH2 0x1470 SWAP2 SWAP1 PUSH2 0x34B8 JUMP JUMPDEST SWAP1 POP PUSH2 0x14AF DUP8 DUP8 DUP1 DUP1 PUSH1 0x20 MUL PUSH1 0x20 ADD PUSH1 0x40 MLOAD SWAP1 DUP2 ADD PUSH1 0x40 MSTORE DUP1 SWAP4 SWAP3 SWAP2 SWAP1 DUP2 DUP2 MSTORE PUSH1 0x20 ADD DUP4 DUP4 PUSH1 0x20 MUL DUP1 DUP3 DUP5 CALLDATACOPY PUSH0 SWAP3 ADD SWAP2 SWAP1 SWAP2 MSTORE POP DUP10 SWAP3 POP PUSH2 0x24E2 SWAP2 POP POP JUMP JUMPDEST DUP8 PUSH2 0xBC5 DUP3 DUP10 DUP10 PUSH2 0x14C1 PUSH1 0x1 DUP3 PUSH2 0x33A6 JUMP JUMPDEST DUP2 DUP2 LT PUSH2 0x14D0 JUMPI PUSH2 0x14D0 PUSH2 0x33B9 JUMP JUMPDEST SWAP1 POP PUSH1 0x20 MUL ADD PUSH1 0x20 DUP2 ADD SWAP1 PUSH2 0x14E5 SWAP2 SWAP1 PUSH2 0x33CD JUMP JUMPDEST PUSH1 0x40 MLOAD PUSH4 0x70A08231 PUSH1 0xE0 SHL DUP2 MSTORE PUSH1 0x1 PUSH1 0x1 PUSH1 0xA0 SHL SUB DUP11 DUP2 AND PUSH1 0x4 DUP4 ADD MSTORE SWAP2 SWAP1 SWAP2 AND SWAP1 PUSH4 0x70A08231 SWAP1 PUSH1 0x24 ADD PUSH2 0xB80 JUMP JUMPDEST PUSH1 0x60 PUSH2 0x733 PUSH32 0x0 DUP5 DUP5 PUSH2 0x1CF6 JUMP JUMPDEST PUSH0 DUP1 PUSH0 DUP4 TIMESTAMP DUP2 LT ISZERO PUSH2 0x1566 JUMPI PUSH1 0x40 MLOAD PUSH3 0x461BCD PUSH1 0xE5 SHL DUP2 MSTORE PUSH1 0x4 ADD PUSH2 0x3FB SWAP1 PUSH2 0x335B JUMP JUMPDEST PUSH2 0x1570 PUSH1 0x1 PUSH2 0x292E JUMP JUMPDEST PUSH2 0x157E DUP13 DUP13 DUP13 DUP13 DUP13 DUP13 PUSH2 0x2976 JUMP JUMPDEST SWAP1 SWAP5 POP SWAP3 POP PUSH2 0x158D PUSH1 0x1 PUSH2 0x292E JUMP JUMPDEST PUSH0 PUSH2 0x15B9 PUSH32 0x0 DUP15 DUP15 PUSH2 0x1E7E JUMP JUMPDEST SWAP1 POP PUSH2 0x15C5 PUSH1 0x1 PUSH2 0x292E JUMP JUMPDEST PUSH2 0x15D1 DUP14 CALLER DUP4 DUP9 PUSH2 0x1F55 JUMP JUMPDEST PUSH2 0x15DB PUSH1 0x1 PUSH2 0x292E JUMP JUMPDEST PUSH2 0x15E7 DUP13 CALLER DUP4 DUP8 PUSH2 0x1F55 JUMP JUMPDEST PUSH2 0x15F1 PUSH1 0x1 PUSH2 0x292E JUMP JUMPDEST PUSH1 0x40 MLOAD PUSH4 0x35313C21 PUSH1 0xE1 SHL DUP2 MSTORE PUSH1 0x1 PUSH1 0x1 PUSH1 0xA0 SHL SUB DUP9 DUP2 AND PUSH1 0x4 DUP4 ADD MSTORE DUP3 AND SWAP1 PUSH4 0x6A627842 SWAP1 PUSH1 0x24 ADD PUSH1 0x20 PUSH1 0x40 MLOAD DUP1 DUP4 SUB DUP2 PUSH0 DUP8 GAS CALL ISZERO DUP1 ISZERO PUSH2 0x1636 JUMPI RETURNDATASIZE PUSH0 DUP1 RETURNDATACOPY RETURNDATASIZE PUSH0 REVERT JUMPDEST POP POP POP POP PUSH1 0x40 MLOAD RETURNDATASIZE PUSH1 0x1F NOT PUSH1 0x1F DUP3 ADD AND DUP3 ADD DUP1 PUSH1 0x40 MSTORE POP DUP2 ADD SWAP1 PUSH2 0x165A SWAP2 SWAP1 PUSH2 0x34B8 JUMP JUMPDEST SWAP3 POP PUSH2 0x167D PUSH1 0x40 MLOAD DUP1 PUSH1 0x60 ADD PUSH1 0x40 MSTORE DUP1 PUSH1 0x28 DUP2 MSTORE PUSH1 0x20 ADD PUSH2 0x36F3 PUSH1 0x28 SWAP2 CODECOPY PUSH2 0x2CC7 JUMP JUMPDEST POP POP SWAP9 POP SWAP9 POP SWAP9 SWAP6 POP POP POP POP POP POP JUMP JUMPDEST PUSH0 DUP1 PUSH0 DUP4 TIMESTAMP DUP2 LT ISZERO PUSH2 0x16B1 JUMPI PUSH1 0x40 MLOAD PUSH3 0x461BCD PUSH1 0xE5 SHL DUP2 MSTORE PUSH1 0x4 ADD PUSH2 0x3FB SWAP1 PUSH2 0x335B JUMP JUMPDEST PUSH2 0x16DF DUP11 PUSH32 0x0 DUP12 CALLVALUE DUP13 DUP13 PUSH2 0x2976 JUMP JUMPDEST SWAP1 SWAP5 POP SWAP3 POP PUSH0 PUSH2 0x1730 PUSH32 0x0 DUP13 PUSH32 0x0 PUSH2 0x1E7E JUMP JUMPDEST SWAP1 POP PUSH2 0x173E DUP12 CALLER DUP4 DUP9 PUSH2 0x1F55 JUMP JUMPDEST PUSH32 0x0 PUSH1 0x1 PUSH1 0x1 PUSH1 0xA0 SHL SUB AND PUSH4 0xD0E30DB0 DUP6 PUSH1 0x40 MLOAD DUP3 PUSH4 0xFFFFFFFF AND PUSH1 0xE0 SHL DUP2 MSTORE PUSH1 0x4 ADD PUSH0 PUSH1 0x40 MLOAD DUP1 DUP4 SUB DUP2 DUP6 DUP9 DUP1 EXTCODESIZE ISZERO DUP1 ISZERO PUSH2 0x1797 JUMPI PUSH0 DUP1 REVERT JUMPDEST POP GAS CALL ISZERO DUP1 ISZERO PUSH2 0x17A9 JUMPI RETURNDATASIZE PUSH0 DUP1 RETURNDATACOPY RETURNDATASIZE PUSH0 REVERT JUMPDEST POP POP PUSH1 0x40 MLOAD PUSH4 0xA9059CBB PUSH1 0xE0 SHL DUP2 MSTORE PUSH1 0x1 PUSH1 0x1 PUSH1 0xA0 SHL SUB DUP6 DUP2 AND PUSH1 0x4 DUP4 ADD MSTORE PUSH1 0x24 DUP3 ADD DUP10 SWAP1 MSTORE PUSH32 0x0 AND SWAP4 POP PUSH4 0xA9059CBB SWAP3 POP PUSH1 0x44 ADD SWAP1 POP PUSH1 0x20 PUSH1 0x40 MLOAD DUP1 DUP4 SUB DUP2 PUSH0 DUP8 GAS CALL ISZERO DUP1 ISZERO PUSH2 0x181B JUMPI RETURNDATASIZE PUSH0 DUP1 RETURNDATACOPY RETURNDATASIZE PUSH0 REVERT JUMPDEST POP POP POP POP PUSH1 0x40 MLOAD RETURNDATASIZE PUSH1 0x1F NOT PUSH1 0x1F DUP3 ADD AND DUP3 ADD DUP1 PUSH1 0x40 MSTORE POP DUP2 ADD SWAP1 PUSH2 0x183F SWAP2 SWAP1 PUSH2 0x34CF JUMP JUMPDEST PUSH2 0x184B JUMPI PUSH2 0x184B PUSH2 0x2FF5 JUMP JUMPDEST PUSH1 0x40 MLOAD PUSH4 0x35313C21 PUSH1 0xE1 SHL DUP2 MSTORE PUSH1 0x1 PUSH1 0x1 PUSH1 0xA0 SHL SUB DUP9 DUP2 AND PUSH1 0x4 DUP4 ADD MSTORE DUP3 AND SWAP1 PUSH4 0x6A627842 SWAP1 PUSH1 0x24 ADD PUSH1 0x20 PUSH1 0x40 MLOAD DUP1 DUP4 SUB DUP2 PUSH0 DUP8 GAS CALL ISZERO DUP1 ISZERO PUSH2 0x1890 JUMPI RETURNDATASIZE PUSH0 DUP1 RETURNDATACOPY RETURNDATASIZE PUSH0 REVERT JUMPDEST POP POP POP POP PUSH1 0x40 MLOAD RETURNDATASIZE PUSH1 0x1F NOT PUSH1 0x1F DUP3 ADD AND DUP3 ADD DUP1 PUSH1 0x40 MSTORE POP DUP2 ADD SWAP1 PUSH2 0x18B4 SWAP2 SWAP1 PUSH2 0x34B8 JUMP JUMPDEST SWAP3 POP DUP4 CALLVALUE GT ISZERO PUSH2 0x18D1 JUMPI PUSH2 0x18D1 CALLER PUSH2 0x18CC DUP7 CALLVALUE PUSH2 0x33A6 JUMP JUMPDEST PUSH2 0x2288 JUMP JUMPDEST POP POP SWAP7 POP SWAP7 POP SWAP7 SWAP4 POP POP POP POP JUMP JUMPDEST PUSH1 0x60 DUP2 TIMESTAMP DUP2 LT ISZERO PUSH2 0x1902 JUMPI PUSH1 0x40 MLOAD PUSH3 0x461BCD PUSH1 0xE5 SHL DUP2 MSTORE PUSH1 0x4 ADD PUSH2 0x3FB SWAP1 PUSH2 0x335B JUMP JUMPDEST PUSH32 0x0 PUSH1 0x1 PUSH1 0x1 PUSH1 0xA0 SHL SUB AND DUP7 DUP7 PUSH0 DUP2 DUP2 LT PUSH2 0x193E JUMPI PUSH2 0x193E PUSH2 0x33B9 JUMP JUMPDEST SWAP1 POP PUSH1 0x20 MUL ADD PUSH1 0x20 DUP2 ADD SWAP1 PUSH2 0x1953 SWAP2 SWAP1 PUSH2 0x33CD JUMP JUMPDEST PUSH1 0x1 PUSH1 0x1 PUSH1 0xA0 SHL SUB AND EQ PUSH2 0x1979 JUMPI PUSH1 0x40 MLOAD PUSH3 0x461BCD PUSH1 0xE5 SHL DUP2 MSTORE PUSH1 0x4 ADD PUSH2 0x3FB SWAP1 PUSH2 0x33EF JUMP JUMPDEST PUSH2 0x19D6 PUSH32 0x0 DUP9 DUP9 DUP9 DUP1 DUP1 PUSH1 0x20 MUL PUSH1 0x20 ADD PUSH1 0x40 MLOAD SWAP1 DUP2 ADD PUSH1 0x40 MSTORE DUP1 SWAP4 SWAP3 SWAP2 SWAP1 DUP2 DUP2 MSTORE PUSH1 0x20 ADD DUP4 DUP4 PUSH1 0x20 MUL DUP1 DUP3 DUP5 CALLDATACOPY PUSH0 SWAP3 ADD SWAP2 SWAP1 SWAP2 MSTORE POP PUSH2 0x2363 SWAP3 POP POP POP JUMP JUMPDEST SWAP2 POP CALLVALUE DUP3 PUSH0 DUP2 MLOAD DUP2 LT PUSH2 0x19EB JUMPI PUSH2 0x19EB PUSH2 0x33B9 JUMP JUMPDEST PUSH1 0x20 MUL PUSH1 0x20 ADD ADD MLOAD GT ISZERO PUSH2 0x1A11 JUMPI PUSH1 0x40 MLOAD PUSH3 0x461BCD PUSH1 0xE5 SHL DUP2 MSTORE PUSH1 0x4 ADD PUSH2 0x3FB SWAP1 PUSH2 0x3471 JUMP JUMPDEST PUSH32 0x0 PUSH1 0x1 PUSH1 0x1 PUSH1 0xA0 SHL SUB AND PUSH4 0xD0E30DB0 DUP4 PUSH0 DUP2 MLOAD DUP2 LT PUSH2 0x1A52 JUMPI PUSH2 0x1A52 PUSH2 0x33B9 JUMP JUMPDEST PUSH1 0x20 MUL PUSH1 0x20 ADD ADD MLOAD PUSH1 0x40 MLOAD DUP3 PUSH4 0xFFFFFFFF AND PUSH1 0xE0 SHL DUP2 MSTORE PUSH1 0x4 ADD PUSH0 PUSH1 0x40 MLOAD DUP1 DUP4 SUB DUP2 DUP6 DUP9 DUP1 EXTCODESIZE ISZERO DUP1 ISZERO PUSH2 0x1A83 JUMPI PUSH0 DUP1 REVERT JUMPDEST POP GAS CALL ISZERO DUP1 ISZERO PUSH2 0x1A95 JUMPI RETURNDATASIZE PUSH0 DUP1 RETURNDATACOPY RETURNDATASIZE PUSH0 REVERT JUMPDEST POP POP POP POP POP PUSH32 0x0 PUSH1 0x1 PUSH1 0x1 PUSH1 0xA0 SHL SUB AND PUSH4 0xA9059CBB PUSH2 0x1AFF PUSH32 0x0 DUP10 DUP10 PUSH0 DUP2 DUP2 LT PUSH2 0xA15 JUMPI PUSH2 0xA15 PUSH2 0x33B9 JUMP JUMPDEST DUP5 PUSH0 DUP2 MLOAD DUP2 LT PUSH2 0x1B11 JUMPI PUSH2 0x1B11 PUSH2 0x33B9 JUMP JUMPDEST PUSH1 0x20 MUL PUSH1 0x20 ADD ADD MLOAD PUSH1 0x40 MLOAD DUP4 PUSH4 0xFFFFFFFF AND PUSH1 0xE0 SHL DUP2 MSTORE PUSH1 0x4 ADD PUSH2 0x1B4A SWAP3 SWAP2 SWAP1 PUSH1 0x1 PUSH1 0x1 PUSH1 0xA0 SHL SUB SWAP3 SWAP1 SWAP3 AND DUP3 MSTORE PUSH1 0x20 DUP3 ADD MSTORE PUSH1 0x40 ADD SWAP1 JUMP JUMPDEST PUSH1 0x20 PUSH1 0x40 MLOAD DUP1 DUP4 SUB DUP2 PUSH0 DUP8 GAS CALL ISZERO DUP1 ISZERO PUSH2 0x1B66 JUMPI RETURNDATASIZE PUSH0 DUP1 RETURNDATACOPY RETURNDATASIZE PUSH0 REVERT JUMPDEST POP POP POP POP PUSH1 0x40 MLOAD RETURNDATASIZE PUSH1 0x1F NOT PUSH1 0x1F DUP3 ADD AND DUP3 ADD DUP1 PUSH1 0x40 MSTORE POP DUP2 ADD SWAP1 PUSH2 0x1B8A SWAP2 SWAP1 PUSH2 0x34CF JUMP JUMPDEST PUSH2 0x1B96 JUMPI PUSH2 0x1B96 PUSH2 0x2FF5 JUMP JUMPDEST PUSH2 0x1BD4 DUP3 DUP8 DUP8 DUP1 DUP1 PUSH1 0x20 MUL PUSH1 0x20 ADD PUSH1 0x40 MLOAD SWAP1 DUP2 ADD PUSH1 0x40 MSTORE DUP1 SWAP4 SWAP3 SWAP2 SWAP1 DUP2 DUP2 MSTORE PUSH1 0x20 ADD DUP4 DUP4 PUSH1 0x20 MUL DUP1 DUP3 DUP5 CALLDATACOPY PUSH0 SWAP3 ADD SWAP2 SWAP1 SWAP2 MSTORE POP DUP10 SWAP3 POP PUSH2 0x208E SWAP2 POP POP JUMP JUMPDEST DUP2 PUSH0 DUP2 MLOAD DUP2 LT PUSH2 0x1BE6 JUMPI PUSH2 0x1BE6 PUSH2 0x33B9 JUMP JUMPDEST PUSH1 0x20 MUL PUSH1 0x20 ADD ADD MLOAD CALLVALUE GT ISZERO PUSH2 0x110C JUMPI PUSH2 0x110C CALLER DUP4 PUSH0 DUP2 MLOAD DUP2 LT PUSH2 0x1C0B JUMPI PUSH2 0x1C0B PUSH2 0x33B9 JUMP JUMPDEST PUSH1 0x20 MUL PUSH1 0x20 ADD ADD MLOAD CALLVALUE PUSH2 0x18CC SWAP2 SWAP1 PUSH2 0x33A6 JUMP JUMPDEST PUSH0 DUP1 DUP5 GT PUSH2 0x1C82 JUMPI PUSH1 0x40 MLOAD PUSH3 0x461BCD PUSH1 0xE5 SHL DUP2 MSTORE PUSH1 0x20 PUSH1 0x4 DUP3 ADD MSTORE PUSH1 0x2B PUSH1 0x24 DUP3 ADD MSTORE PUSH32 0x556E697377617056324C6962726172793A20494E53554646494349454E545F49 PUSH1 0x44 DUP3 ADD MSTORE PUSH11 0x1394155517D05353D55395 PUSH1 0xAA SHL PUSH1 0x64 DUP3 ADD MSTORE PUSH1 0x84 ADD PUSH2 0x3FB JUMP JUMPDEST PUSH0 DUP4 GT DUP1 ISZERO PUSH2 0x1C90 JUMPI POP PUSH0 DUP3 GT JUMPDEST PUSH2 0x1CAC JUMPI PUSH1 0x40 MLOAD PUSH3 0x461BCD PUSH1 0xE5 SHL DUP2 MSTORE PUSH1 0x4 ADD PUSH2 0x3FB SWAP1 PUSH2 0x34EE JUMP JUMPDEST PUSH0 PUSH2 0x1CB9 DUP6 PUSH2 0x3E5 PUSH2 0x2D0A JUMP JUMPDEST SWAP1 POP PUSH0 PUSH2 0x1CC6 DUP3 DUP6 PUSH2 0x2D0A JUMP JUMPDEST SWAP1 POP PUSH0 PUSH2 0x1CDF DUP4 PUSH2 0x1CD9 DUP9 PUSH2 0x3E8 PUSH2 0x2D0A JUMP JUMPDEST SWAP1 PUSH2 0x2D70 JUMP JUMPDEST SWAP1 POP PUSH2 0x1CEB DUP2 DUP4 PUSH2 0x3536 JUMP JUMPDEST SWAP8 SWAP7 POP POP POP POP POP POP POP JUMP JUMPDEST PUSH1 0x60 PUSH1 0x2 DUP3 MLOAD LT ISZERO PUSH2 0x1D4A JUMPI PUSH1 0x40 MLOAD PUSH3 0x461BCD PUSH1 0xE5 SHL DUP2 MSTORE PUSH1 0x20 PUSH1 0x4 DUP3 ADD MSTORE PUSH1 0x1E PUSH1 0x24 DUP3 ADD MSTORE PUSH32 0x556E697377617056324C6962726172793A20494E56414C49445F504154480000 PUSH1 0x44 DUP3 ADD MSTORE PUSH1 0x64 ADD PUSH2 0x3FB JUMP JUMPDEST DUP2 MLOAD PUSH8 0xFFFFFFFFFFFFFFFF DUP2 GT ISZERO PUSH2 0x1D64 JUMPI PUSH2 0x1D64 PUSH2 0x3148 JUMP JUMPDEST PUSH1 0x40 MLOAD SWAP1 DUP1 DUP3 MSTORE DUP1 PUSH1 0x20 MUL PUSH1 0x20 ADD DUP3 ADD PUSH1 0x40 MSTORE DUP1 ISZERO PUSH2 0x1D8D JUMPI DUP2 PUSH1 0x20 ADD PUSH1 0x20 DUP3 MUL DUP1 CALLDATASIZE DUP4 CALLDATACOPY ADD SWAP1 POP JUMPDEST POP SWAP1 POP DUP3 DUP2 PUSH0 DUP2 MLOAD DUP2 LT PUSH2 0x1DA3 JUMPI PUSH2 0x1DA3 PUSH2 0x33B9 JUMP JUMPDEST PUSH1 0x20 MUL PUSH1 0x20 ADD ADD DUP2 DUP2 MSTORE POP POP PUSH0 JUMPDEST PUSH1 0x1 DUP4 MLOAD PUSH2 0x1DBF SWAP2 SWAP1 PUSH2 0x33A6 JUMP JUMPDEST DUP2 LT ISZERO PUSH2 0x1E76 JUMPI PUSH0 DUP1 PUSH2 0x1E11 DUP8 DUP7 DUP6 DUP2 MLOAD DUP2 LT PUSH2 0x1DDE JUMPI PUSH2 0x1DDE PUSH2 0x33B9 JUMP JUMPDEST PUSH1 0x20 MUL PUSH1 0x20 ADD ADD MLOAD DUP8 DUP7 PUSH1 0x1 PUSH2 0x1DF4 SWAP2 SWAP1 PUSH2 0x3555 JUMP JUMPDEST DUP2 MLOAD DUP2 LT PUSH2 0x1E04 JUMPI PUSH2 0x1E04 PUSH2 0x33B9 JUMP JUMPDEST PUSH1 0x20 MUL PUSH1 0x20 ADD ADD MLOAD PUSH2 0x2DC4 JUMP JUMPDEST SWAP2 POP SWAP2 POP PUSH2 0x1E39 DUP5 DUP5 DUP2 MLOAD DUP2 LT PUSH2 0x1E2A JUMPI PUSH2 0x1E2A PUSH2 0x33B9 JUMP JUMPDEST PUSH1 0x20 MUL PUSH1 0x20 ADD ADD MLOAD DUP4 DUP4 PUSH2 0x1C1E JUMP JUMPDEST DUP5 PUSH2 0x1E45 DUP6 PUSH1 0x1 PUSH2 0x3555 JUMP JUMPDEST DUP2 MLOAD DUP2 LT PUSH2 0x1E55 JUMPI PUSH2 0x1E55 PUSH2 0x33B9 JUMP JUMPDEST PUSH1 0x20 MUL PUSH1 0x20 ADD ADD DUP2 DUP2 MSTORE POP POP POP POP DUP1 DUP1 PUSH2 0x1E6E SWAP1 PUSH2 0x3568 JUMP JUMPDEST SWAP2 POP POP PUSH2 0x1DB1 JUMP JUMPDEST POP SWAP4 SWAP3 POP POP POP JUMP JUMPDEST PUSH0 DUP1 PUSH0 PUSH2 0x1E8B DUP6 DUP6 PUSH2 0x2E8E JUMP JUMPDEST PUSH1 0x40 MLOAD PUSH12 0xFFFFFFFFFFFFFFFFFFFFFFFF NOT PUSH1 0x60 DUP5 DUP2 SHL DUP3 AND PUSH1 0x20 DUP5 ADD MSTORE DUP4 SWAP1 SHL AND PUSH1 0x34 DUP3 ADD MSTORE SWAP2 SWAP4 POP SWAP2 POP DUP7 SWAP1 PUSH1 0x48 ADD PUSH1 0x40 MLOAD PUSH1 0x20 DUP2 DUP4 SUB SUB DUP2 MSTORE SWAP1 PUSH1 0x40 MSTORE DUP1 MLOAD SWAP1 PUSH1 0x20 ADD KECCAK256 PUSH1 0x40 MLOAD PUSH1 0x20 ADD PUSH2 0x1F33 SWAP3 SWAP2 SWAP1 PUSH1 0x1 PUSH1 0x1 PUSH1 0xF8 SHL SUB NOT DUP2 MSTORE PUSH1 0x60 SWAP3 SWAP1 SWAP3 SHL PUSH12 0xFFFFFFFFFFFFFFFFFFFFFFFF NOT AND PUSH1 0x1 DUP4 ADD MSTORE PUSH1 0x15 DUP3 ADD MSTORE PUSH32 0xA694EFDFD8032B8B5BA11645D3D6EC48544DE26A22772CB10A50EBB5626C0A57 PUSH1 0x35 DUP3 ADD MSTORE PUSH1 0x55 ADD SWAP1 JUMP JUMPDEST PUSH1 0x40 DUP1 MLOAD PUSH1 0x1F NOT DUP2 DUP5 SUB ADD DUP2 MSTORE SWAP2 SWAP1 MSTORE DUP1 MLOAD PUSH1 0x20 SWAP1 SWAP2 ADD KECCAK256 SWAP7 SWAP6 POP POP POP POP POP POP JUMP JUMPDEST PUSH1 0x40 DUP1 MLOAD PUSH1 0x1 PUSH1 0x1 PUSH1 0xA0 SHL SUB DUP6 DUP2 AND PUSH1 0x24 DUP4 ADD MSTORE DUP5 DUP2 AND PUSH1 0x44 DUP4 ADD MSTORE PUSH1 0x64 DUP1 DUP4 ADD DUP6 SWAP1 MSTORE DUP4 MLOAD DUP1 DUP5 SUB SWAP1 SWAP2 ADD DUP2 MSTORE PUSH1 0x84 SWAP1 SWAP3 ADD DUP4 MSTORE PUSH1 0x20 DUP3 ADD DUP1 MLOAD PUSH1 0x1 PUSH1 0x1 PUSH1 0xE0 SHL SUB AND PUSH4 0x23B872DD PUSH1 0xE0 SHL OR SWAP1 MSTORE SWAP2 MLOAD PUSH0 SWAP3 DUP4 SWAP3 SWAP1 DUP9 AND SWAP2 PUSH2 0x1FB8 SWAP2 SWAP1 PUSH2 0x35A2 JUMP JUMPDEST PUSH0 PUSH1 0x40 MLOAD DUP1 DUP4 SUB DUP2 PUSH0 DUP7 GAS CALL SWAP2 POP POP RETURNDATASIZE DUP1 PUSH0 DUP2 EQ PUSH2 0x1FF1 JUMPI PUSH1 0x40 MLOAD SWAP2 POP PUSH1 0x1F NOT PUSH1 0x3F RETURNDATASIZE ADD AND DUP3 ADD PUSH1 0x40 MSTORE RETURNDATASIZE DUP3 MSTORE RETURNDATASIZE PUSH0 PUSH1 0x20 DUP5 ADD RETURNDATACOPY PUSH2 0x1FF6 JUMP JUMPDEST PUSH1 0x60 SWAP2 POP JUMPDEST POP SWAP2 POP SWAP2 POP DUP2 DUP1 ISZERO PUSH2 0x2020 JUMPI POP DUP1 MLOAD ISZERO DUP1 PUSH2 0x2020 JUMPI POP DUP1 DUP1 PUSH1 0x20 ADD SWAP1 MLOAD DUP2 ADD SWAP1 PUSH2 0x2020 SWAP2 SWAP1 PUSH2 0x34CF JUMP JUMPDEST PUSH2 0x2086 JUMPI PUSH1 0x40 MLOAD PUSH3 0x461BCD PUSH1 0xE5 SHL DUP2 MSTORE PUSH1 0x20 PUSH1 0x4 DUP3 ADD MSTORE PUSH1 0x31 PUSH1 0x24 DUP3 ADD MSTORE PUSH32 0x5472616E7366657248656C7065723A3A7472616E7366657246726F6D3A207472 PUSH1 0x44 DUP3 ADD MSTORE PUSH17 0x185B9CD9995C919C9BDB4819985A5B1959 PUSH1 0x7A SHL PUSH1 0x64 DUP3 ADD MSTORE PUSH1 0x84 ADD PUSH2 0x3FB JUMP JUMPDEST POP POP POP POP POP POP JUMP JUMPDEST PUSH0 JUMPDEST PUSH1 0x1 DUP4 MLOAD PUSH2 0x209E SWAP2 SWAP1 PUSH2 0x33A6 JUMP JUMPDEST DUP2 LT ISZERO PUSH2 0x2282 JUMPI PUSH0 DUP1 DUP5 DUP4 DUP2 MLOAD DUP2 LT PUSH2 0x20B9 JUMPI PUSH2 0x20B9 PUSH2 0x33B9 JUMP JUMPDEST PUSH1 0x20 MUL PUSH1 0x20 ADD ADD MLOAD DUP6 DUP5 PUSH1 0x1 PUSH2 0x20CF SWAP2 SWAP1 PUSH2 0x3555 JUMP JUMPDEST DUP2 MLOAD DUP2 LT PUSH2 0x20DF JUMPI PUSH2 0x20DF PUSH2 0x33B9 JUMP JUMPDEST PUSH1 0x20 MUL PUSH1 0x20 ADD ADD MLOAD SWAP2 POP SWAP2 POP PUSH0 PUSH2 0x20F6 DUP4 DUP4 PUSH2 0x2E8E JUMP JUMPDEST POP SWAP1 POP PUSH0 DUP8 PUSH2 0x2106 DUP7 PUSH1 0x1 PUSH2 0x3555 JUMP JUMPDEST DUP2 MLOAD DUP2 LT PUSH2 0x2116 JUMPI PUSH2 0x2116 PUSH2 0x33B9 JUMP JUMPDEST PUSH1 0x20 MUL PUSH1 0x20 ADD ADD MLOAD SWAP1 POP PUSH0 DUP1 DUP4 PUSH1 0x1 PUSH1 0x1 PUSH1 0xA0 SHL SUB AND DUP7 PUSH1 0x1 PUSH1 0x1 PUSH1 0xA0 SHL SUB AND EQ PUSH2 0x2142 JUMPI DUP3 PUSH0 PUSH2 0x2145 JUMP JUMPDEST PUSH0 DUP4 JUMPDEST SWAP2 POP SWAP2 POP PUSH0 PUSH1 0x2 DUP11 MLOAD PUSH2 0x2158 SWAP2 SWAP1 PUSH2 0x33A6 JUMP JUMPDEST DUP9 LT PUSH2 0x2164 JUMPI DUP9 PUSH2 0x21B2 JUMP JUMPDEST PUSH2 0x21B2 PUSH32 0x0 DUP8 DUP13 PUSH2 0x2195 DUP13 PUSH1 0x2 PUSH2 0x3555 JUMP JUMPDEST DUP2 MLOAD DUP2 LT PUSH2 0x21A5 JUMPI PUSH2 0x21A5 PUSH2 0x33B9 JUMP JUMPDEST PUSH1 0x20 MUL PUSH1 0x20 ADD ADD MLOAD PUSH2 0x1E7E JUMP JUMPDEST SWAP1 POP PUSH2 0x21DF PUSH32 0x0 DUP9 DUP9 PUSH2 0x1E7E JUMP JUMPDEST PUSH1 0x1 PUSH1 0x1 PUSH1 0xA0 SHL SUB AND PUSH4 0x22C0D9F DUP5 DUP5 DUP5 PUSH0 PUSH1 0x40 MLOAD SWAP1 DUP1 DUP3 MSTORE DUP1 PUSH1 0x1F ADD PUSH1 0x1F NOT AND PUSH1 0x20 ADD DUP3 ADD PUSH1 0x40 MSTORE DUP1 ISZERO PUSH2 0x221B JUMPI PUSH1 0x20 DUP3 ADD DUP2 DUP1 CALLDATASIZE DUP4 CALLDATACOPY ADD SWAP1 POP JUMPDEST POP PUSH1 0x40 MLOAD DUP6 PUSH4 0xFFFFFFFF AND PUSH1 0xE0 SHL DUP2 MSTORE PUSH1 0x4 ADD PUSH2 0x223B SWAP5 SWAP4 SWAP3 SWAP2 SWAP1 PUSH2 0x35E8 JUMP JUMPDEST PUSH0 PUSH1 0x40 MLOAD DUP1 DUP4 SUB DUP2 PUSH0 DUP8 DUP1 EXTCODESIZE ISZERO DUP1 ISZERO PUSH2 0x2252 JUMPI PUSH0 DUP1 REVERT JUMPDEST POP GAS CALL ISZERO DUP1 ISZERO PUSH2 0x2264 JUMPI RETURNDATASIZE PUSH0 DUP1 RETURNDATACOPY RETURNDATASIZE PUSH0 REVERT JUMPDEST POP POP POP POP POP POP POP POP POP POP POP DUP1 DUP1 PUSH2 0x227A SWAP1 PUSH2 0x3568 JUMP JUMPDEST SWAP2 POP POP PUSH2 0x2090 JUMP JUMPDEST POP POP POP POP JUMP JUMPDEST PUSH1 0x40 DUP1 MLOAD PUSH0 DUP1 DUP3 MSTORE PUSH1 0x20 DUP3 ADD SWAP1 SWAP3 MSTORE PUSH1 0x1 PUSH1 0x1 PUSH1 0xA0 SHL SUB DUP5 AND SWAP1 DUP4 SWAP1 PUSH1 0x40 MLOAD PUSH2 0x22B1 SWAP2 SWAP1 PUSH2 0x35A2 JUMP JUMPDEST PUSH0 PUSH1 0x40 MLOAD DUP1 DUP4 SUB DUP2 DUP6 DUP8 GAS CALL SWAP3 POP POP POP RETURNDATASIZE DUP1 PUSH0 DUP2 EQ PUSH2 0x22EB JUMPI PUSH1 0x40 MLOAD SWAP2 POP PUSH1 0x1F NOT PUSH1 0x3F RETURNDATASIZE ADD AND DUP3 ADD PUSH1 0x40 MSTORE RETURNDATASIZE DUP3 MSTORE RETURNDATASIZE PUSH0 PUSH1 0x20 DUP5 ADD RETURNDATACOPY PUSH2 0x22F0 JUMP JUMPDEST PUSH1 0x60 SWAP2 POP JUMPDEST POP POP SWAP1 POP DUP1 PUSH2 0x235E JUMPI PUSH1 0x40 MLOAD PUSH3 0x461BCD PUSH1 0xE5 SHL DUP2 MSTORE PUSH1 0x20 PUSH1 0x4 DUP3 ADD MSTORE PUSH1 0x34 PUSH1 0x24 DUP3 ADD MSTORE PUSH32 0x5472616E7366657248656C7065723A3A736166655472616E736665724554483A PUSH1 0x44 DUP3 ADD MSTORE PUSH20 0x8115512081D1C985B9CD9995C8819985A5B1959 PUSH1 0x62 SHL PUSH1 0x64 DUP3 ADD MSTORE PUSH1 0x84 ADD PUSH2 0x3FB JUMP JUMPDEST POP POP POP JUMP JUMPDEST PUSH1 0x60 PUSH1 0x2 DUP3 MLOAD LT ISZERO PUSH2 0x23B7 JUMPI PUSH1 0x40 MLOAD PUSH3 0x461BCD PUSH1 0xE5 SHL DUP2 MSTORE PUSH1 0x20 PUSH1 0x4 DUP3 ADD MSTORE PUSH1 0x1E PUSH1 0x24 DUP3 ADD MSTORE PUSH32 0x556E697377617056324C6962726172793A20494E56414C49445F504154480000 PUSH1 0x44 DUP3 ADD MSTORE PUSH1 0x64 ADD PUSH2 0x3FB JUMP JUMPDEST DUP2 MLOAD PUSH8 0xFFFFFFFFFFFFFFFF DUP2 GT ISZERO PUSH2 0x23D1 JUMPI PUSH2 0x23D1 PUSH2 0x3148 JUMP JUMPDEST PUSH1 0x40 MLOAD SWAP1 DUP1 DUP3 MSTORE DUP1 PUSH1 0x20 MUL PUSH1 0x20 ADD DUP3 ADD PUSH1 0x40 MSTORE DUP1 ISZERO PUSH2 0x23FA JUMPI DUP2 PUSH1 0x20 ADD PUSH1 0x20 DUP3 MUL DUP1 CALLDATASIZE DUP4 CALLDATACOPY ADD SWAP1 POP JUMPDEST POP SWAP1 POP DUP3 DUP2 PUSH1 0x1 DUP4 MLOAD PUSH2 0x240D SWAP2 SWAP1 PUSH2 0x33A6 JUMP JUMPDEST DUP2 MLOAD DUP2 LT PUSH2 0x241D JUMPI PUSH2 0x241D PUSH2 0x33B9 JUMP JUMPDEST PUSH1 0x20 MUL PUSH1 0x20 ADD ADD DUP2 DUP2 MSTORE POP POP PUSH0 PUSH1 0x1 DUP4 MLOAD PUSH2 0x2438 SWAP2 SWAP1 PUSH2 0x33A6 JUMP JUMPDEST SWAP1 POP JUMPDEST DUP1 ISZERO PUSH2 0x1E76 JUMPI PUSH0 DUP1 PUSH2 0x247D DUP8 DUP7 PUSH2 0x2453 PUSH1 0x1 DUP8 PUSH2 0x33A6 JUMP JUMPDEST DUP2 MLOAD DUP2 LT PUSH2 0x2463 JUMPI PUSH2 0x2463 PUSH2 0x33B9 JUMP JUMPDEST PUSH1 0x20 MUL PUSH1 0x20 ADD ADD MLOAD DUP8 DUP7 DUP2 MLOAD DUP2 LT PUSH2 0x1E04 JUMPI PUSH2 0x1E04 PUSH2 0x33B9 JUMP JUMPDEST SWAP2 POP SWAP2 POP PUSH2 0x24A5 DUP5 DUP5 DUP2 MLOAD DUP2 LT PUSH2 0x2496 JUMPI PUSH2 0x2496 PUSH2 0x33B9 JUMP JUMPDEST PUSH1 0x20 MUL PUSH1 0x20 ADD ADD MLOAD DUP4 DUP4 PUSH2 0x27BD JUMP JUMPDEST DUP5 PUSH2 0x24B1 PUSH1 0x1 DUP7 PUSH2 0x33A6 JUMP JUMPDEST DUP2 MLOAD DUP2 LT PUSH2 0x24C1 JUMPI PUSH2 0x24C1 PUSH2 0x33B9 JUMP JUMPDEST PUSH1 0x20 MUL PUSH1 0x20 ADD ADD DUP2 DUP2 MSTORE POP POP POP POP DUP1 DUP1 PUSH2 0x24DA SWAP1 PUSH2 0x3614 JUMP JUMPDEST SWAP2 POP POP PUSH2 0x243B JUMP JUMPDEST PUSH0 JUMPDEST PUSH1 0x1 DUP4 MLOAD PUSH2 0x24F2 SWAP2 SWAP1 PUSH2 0x33A6 JUMP JUMPDEST DUP2 LT ISZERO PUSH2 0x235E JUMPI PUSH0 DUP1 DUP5 DUP4 DUP2 MLOAD DUP2 LT PUSH2 0x250D JUMPI PUSH2 0x250D PUSH2 0x33B9 JUMP JUMPDEST PUSH1 0x20 MUL PUSH1 0x20 ADD ADD MLOAD DUP6 DUP5 PUSH1 0x1 PUSH2 0x2523 SWAP2 SWAP1 PUSH2 0x3555 JUMP JUMPDEST DUP2 MLOAD DUP2 LT PUSH2 0x2533 JUMPI PUSH2 0x2533 PUSH2 0x33B9 JUMP JUMPDEST PUSH1 0x20 MUL PUSH1 0x20 ADD ADD MLOAD SWAP2 POP SWAP2 POP PUSH0 PUSH2 0x254A DUP4 DUP4 PUSH2 0x2E8E JUMP JUMPDEST POP SWAP1 POP PUSH0 PUSH2 0x2579 PUSH32 0x0 DUP6 DUP6 PUSH2 0x1E7E JUMP JUMPDEST SWAP1 POP PUSH0 DUP1 PUSH0 DUP1 DUP5 PUSH1 0x1 PUSH1 0x1 PUSH1 0xA0 SHL SUB AND PUSH4 0x902F1AC PUSH1 0x40 MLOAD DUP2 PUSH4 0xFFFFFFFF AND PUSH1 0xE0 SHL DUP2 MSTORE PUSH1 0x4 ADD PUSH1 0x60 PUSH1 0x40 MLOAD DUP1 DUP4 SUB DUP2 DUP7 GAS STATICCALL ISZERO DUP1 ISZERO PUSH2 0x25BB JUMPI RETURNDATASIZE PUSH0 DUP1 RETURNDATACOPY RETURNDATASIZE PUSH0 REVERT JUMPDEST POP POP POP POP PUSH1 0x40 MLOAD RETURNDATASIZE PUSH1 0x1F NOT PUSH1 0x1F DUP3 ADD AND DUP3 ADD DUP1 PUSH1 0x40 MSTORE POP DUP2 ADD SWAP1 PUSH2 0x25DF SWAP2 SWAP1 PUSH2 0x363F JUMP JUMPDEST POP PUSH1 0x1 PUSH1 0x1 PUSH1 0x70 SHL SUB AND SWAP2 POP PUSH1 0x1 PUSH1 0x1 PUSH1 0x70 SHL SUB AND SWAP2 POP PUSH0 DUP1 DUP8 PUSH1 0x1 PUSH1 0x1 PUSH1 0xA0 SHL SUB AND DUP11 PUSH1 0x1 PUSH1 0x1 PUSH1 0xA0 SHL SUB AND EQ PUSH2 0x2618 JUMPI DUP3 DUP5 PUSH2 0x261B JUMP JUMPDEST DUP4 DUP4 JUMPDEST PUSH1 0x40 MLOAD PUSH4 0x70A08231 PUSH1 0xE0 SHL DUP2 MSTORE PUSH1 0x1 PUSH1 0x1 PUSH1 0xA0 SHL SUB DUP11 DUP2 AND PUSH1 0x4 DUP4 ADD MSTORE SWAP3 SWAP5 POP SWAP1 SWAP3 POP PUSH2 0x2656 SWAP2 DUP5 SWAP2 SWAP1 DUP14 AND SWAP1 PUSH4 0x70A08231 SWAP1 PUSH1 0x24 ADD PUSH2 0xB80 JUMP JUMPDEST SWAP6 POP PUSH2 0x2663 DUP7 DUP4 DUP4 PUSH2 0x1C1E JUMP JUMPDEST SWAP5 POP POP POP POP POP PUSH0 DUP1 DUP6 PUSH1 0x1 PUSH1 0x1 PUSH1 0xA0 SHL SUB AND DUP9 PUSH1 0x1 PUSH1 0x1 PUSH1 0xA0 SHL SUB AND EQ PUSH2 0x268B JUMPI DUP3 PUSH0 PUSH2 0x268E JUMP JUMPDEST PUSH0 DUP4 JUMPDEST SWAP2 POP SWAP2 POP PUSH0 PUSH1 0x2 DUP13 MLOAD PUSH2 0x26A1 SWAP2 SWAP1 PUSH2 0x33A6 JUMP JUMPDEST DUP11 LT PUSH2 0x26AD JUMPI DUP11 PUSH2 0x26DE JUMP JUMPDEST PUSH2 0x26DE PUSH32 0x0 DUP10 DUP15 PUSH2 0x2195 DUP15 PUSH1 0x2 PUSH2 0x3555 JUMP JUMPDEST PUSH1 0x40 DUP1 MLOAD PUSH0 DUP2 MSTORE PUSH1 0x20 DUP2 ADD SWAP2 DUP3 SWAP1 MSTORE PUSH4 0x22C0D9F PUSH1 0xE0 SHL SWAP1 SWAP2 MSTORE SWAP1 SWAP2 POP PUSH1 0x1 PUSH1 0x1 PUSH1 0xA0 SHL SUB DUP8 AND SWAP1 PUSH4 0x22C0D9F SWAP1 PUSH2 0x271F SWAP1 DUP7 SWAP1 DUP7 SWAP1 DUP7 SWAP1 PUSH1 0x24 DUP2 ADD PUSH2 0x35E8 JUMP JUMPDEST PUSH0 PUSH1 0x40 MLOAD DUP1 DUP4 SUB DUP2 PUSH0 DUP8 DUP1 EXTCODESIZE ISZERO DUP1 ISZERO PUSH2 0x2736 JUMPI PUSH0 DUP1 REVERT JUMPDEST POP GAS CALL ISZERO DUP1 ISZERO PUSH2 0x2748 JUMPI RETURNDATASIZE PUSH0 DUP1 RETURNDATACOPY RETURNDATASIZE PUSH0 REVERT JUMPDEST POP POP POP POP POP POP POP POP POP POP POP POP POP DUP1 DUP1 PUSH2 0x2760 SWAP1 PUSH2 0x3568 JUMP JUMPDEST SWAP2 POP POP PUSH2 0x24E4 JUMP JUMPDEST PUSH0 DUP3 PUSH2 0x2774 DUP4 DUP3 PUSH2 0x33A6 JUMP JUMPDEST SWAP2 POP DUP2 GT ISZERO PUSH2 0x736 JUMPI PUSH1 0x40 MLOAD PUSH3 0x461BCD PUSH1 0xE5 SHL DUP2 MSTORE PUSH1 0x20 PUSH1 0x4 DUP3 ADD MSTORE PUSH1 0x15 PUSH1 0x24 DUP3 ADD MSTORE PUSH21 0x64732D6D6174682D7375622D756E646572666C6F77 PUSH1 0x58 SHL PUSH1 0x44 DUP3 ADD MSTORE PUSH1 0x64 ADD PUSH2 0x3FB JUMP JUMPDEST PUSH0 DUP1 DUP5 GT PUSH2 0x2822 JUMPI PUSH1 0x40 MLOAD PUSH3 0x461BCD PUSH1 0xE5 SHL DUP2 MSTORE PUSH1 0x20 PUSH1 0x4 DUP3 ADD MSTORE PUSH1 0x2C PUSH1 0x24 DUP3 ADD MSTORE PUSH32 0x556E697377617056324C6962726172793A20494E53554646494349454E545F4F PUSH1 0x44 DUP3 ADD MSTORE PUSH12 0x155514155517D05353D55395 PUSH1 0xA2 SHL PUSH1 0x64 DUP3 ADD MSTORE PUSH1 0x84 ADD PUSH2 0x3FB JUMP JUMPDEST PUSH0 DUP4 GT DUP1 ISZERO PUSH2 0x2830 JUMPI POP PUSH0 DUP3 GT JUMPDEST PUSH2 0x284C JUMPI PUSH1 0x40 MLOAD PUSH3 0x461BCD PUSH1 0xE5 SHL DUP2 MSTORE PUSH1 0x4 ADD PUSH2 0x3FB SWAP1 PUSH2 0x34EE JUMP JUMPDEST PUSH0 PUSH2 0x2863 PUSH2 0x3E8 PUSH2 0x285D DUP7 DUP9 PUSH2 0x2D0A JUMP JUMPDEST SWAP1 PUSH2 0x2D0A JUMP JUMPDEST SWAP1 POP PUSH0 PUSH2 0x2876 PUSH2 0x3E5 PUSH2 0x285D DUP7 DUP10 PUSH2 0x2768 JUMP JUMPDEST SWAP1 POP PUSH2 0x2887 PUSH1 0x1 PUSH2 0x1CD9 DUP4 DUP6 PUSH2 0x3536 JUMP JUMPDEST SWAP7 SWAP6 POP POP POP POP POP POP JUMP JUMPDEST PUSH0 DUP1 DUP5 GT PUSH2 0x28EF JUMPI PUSH1 0x40 MLOAD PUSH3 0x461BCD PUSH1 0xE5 SHL DUP2 MSTORE PUSH1 0x20 PUSH1 0x4 DUP3 ADD MSTORE PUSH1 0x25 PUSH1 0x24 DUP3 ADD MSTORE PUSH32 0x556E697377617056324C6962726172793A20494E53554646494349454E545F41 PUSH1 0x44 DUP3 ADD MSTORE PUSH5 0x1353D55395 PUSH1 0xDA SHL PUSH1 0x64 DUP3 ADD MSTORE PUSH1 0x84 ADD PUSH2 0x3FB JUMP JUMPDEST PUSH0 DUP4 GT DUP1 ISZERO PUSH2 0x28FD JUMPI POP PUSH0 DUP3 GT JUMPDEST PUSH2 0x2919 JUMPI PUSH1 0x40 MLOAD PUSH3 0x461BCD PUSH1 0xE5 SHL DUP2 MSTORE PUSH1 0x4 ADD PUSH2 0x3FB SWAP1 PUSH2 0x34EE JUMP JUMPDEST DUP3 PUSH2 0x2924 DUP6 DUP5 PUSH2 0x2D0A JUMP JUMPDEST PUSH2 0x3D0 SWAP2 SWAP1 PUSH2 0x3536 JUMP JUMPDEST PUSH2 0x2973 DUP2 PUSH1 0x40 MLOAD PUSH1 0x24 ADD PUSH2 0x2944 SWAP2 DUP2 MSTORE PUSH1 0x20 ADD SWAP1 JUMP JUMPDEST PUSH1 0x40 DUP1 MLOAD PUSH1 0x1F NOT DUP2 DUP5 SUB ADD DUP2 MSTORE SWAP2 SWAP1 MSTORE PUSH1 0x20 DUP2 ADD DUP1 MLOAD PUSH1 0x1 PUSH1 0x1 PUSH1 0xE0 SHL SUB AND PUSH4 0xF82C50F1 PUSH1 0xE0 SHL OR SWAP1 MSTORE PUSH2 0x2F84 JUMP JUMPDEST POP JUMP JUMPDEST PUSH0 DUP1 PUSH2 0x29CA PUSH32 0x0 PUSH1 0x40 MLOAD DUP1 PUSH1 0x40 ADD PUSH1 0x40 MSTORE DUP1 PUSH1 0x10 DUP2 MSTORE PUSH1 0x20 ADD PUSH16 0xCCC2C6E8DEE4F240C8CAD6D0DCD240D PUSH1 0x83 SHL DUP2 MSTORE POP PUSH2 0x2F8D JUMP JUMPDEST PUSH1 0x40 MLOAD PUSH4 0xE6A43905 PUSH1 0xE0 SHL DUP2 MSTORE PUSH1 0x1 PUSH1 0x1 PUSH1 0xA0 SHL SUB DUP10 DUP2 AND PUSH1 0x4 DUP4 ADD MSTORE DUP9 DUP2 AND PUSH1 0x24 DUP4 ADD MSTORE PUSH0 SWAP2 PUSH32 0x0 SWAP1 SWAP2 AND SWAP1 PUSH4 0xE6A43905 SWAP1 PUSH1 0x44 ADD PUSH1 0x20 PUSH1 0x40 MLOAD DUP1 DUP4 SUB DUP2 DUP7 GAS STATICCALL ISZERO DUP1 ISZERO PUSH2 0x2A3A JUMPI RETURNDATASIZE PUSH0 DUP1 RETURNDATACOPY RETURNDATASIZE PUSH0 REVERT JUMPDEST POP POP POP POP PUSH1 0x40 MLOAD RETURNDATASIZE PUSH1 0x1F NOT PUSH1 0x1F DUP3 ADD AND DUP3 ADD DUP1 PUSH1 0x40 MSTORE POP DUP2 ADD SWAP1 PUSH2 0x2A5E SWAP2 SWAP1 PUSH2 0x368B JUMP JUMPDEST PUSH1 0x1 PUSH1 0x1 PUSH1 0xA0 SHL SUB AND SUB PUSH2 0x2B68 JUMPI PUSH2 0x2A9F PUSH1 0x40 MLOAD DUP1 PUSH1 0x40 ADD PUSH1 0x40 MSTORE DUP1 PUSH1 0x12 DUP2 MSTORE PUSH1 0x20 ADD PUSH18 0x2D2D2D2D2D2D2D2D2D2D2D2D2D2D2D2D2D2D PUSH1 0x70 SHL DUP2 MSTORE POP PUSH2 0x2CC7 JUMP JUMPDEST PUSH1 0x40 MLOAD PUSH4 0x64E329CB PUSH1 0xE1 SHL DUP2 MSTORE PUSH1 0x1 PUSH1 0x1 PUSH1 0xA0 SHL SUB DUP10 DUP2 AND PUSH1 0x4 DUP4 ADD MSTORE DUP9 DUP2 AND PUSH1 0x24 DUP4 ADD MSTORE PUSH32 0x0 AND SWAP1 PUSH4 0xC9C65396 SWAP1 PUSH1 0x44 ADD PUSH1 0x20 PUSH1 0x40 MLOAD DUP1 DUP4 SUB DUP2 PUSH0 DUP8 GAS CALL ISZERO DUP1 ISZERO PUSH2 0x2B0C JUMPI RETURNDATASIZE PUSH0 DUP1 RETURNDATACOPY RETURNDATASIZE PUSH0 REVERT JUMPDEST POP POP POP POP PUSH1 0x40 MLOAD RETURNDATASIZE PUSH1 0x1F NOT PUSH1 0x1F DUP3 ADD AND DUP3 ADD DUP1 PUSH1 0x40 MSTORE POP DUP2 ADD SWAP1 PUSH2 0x2B30 SWAP2 SWAP1 PUSH2 0x368B JUMP JUMPDEST POP PUSH2 0x2B68 PUSH1 0x40 MLOAD DUP1 PUSH1 0x40 ADD PUSH1 0x40 MSTORE DUP1 PUSH1 0x16 DUP2 MSTORE PUSH1 0x20 ADD PUSH22 0x19191919191919191919191919191919191919191919 PUSH1 0x51 SHL DUP2 MSTORE POP PUSH2 0x2CC7 JUMP JUMPDEST PUSH0 DUP1 PUSH2 0x2B95 PUSH32 0x0 DUP12 DUP12 PUSH2 0x2DC4 JUMP JUMPDEST SWAP2 POP SWAP2 POP DUP2 PUSH0 EQ DUP1 ISZERO PUSH2 0x2BA6 JUMPI POP DUP1 ISZERO JUMPDEST ISZERO PUSH2 0x2BB6 JUMPI DUP8 SWAP4 POP DUP7 SWAP3 POP PUSH2 0x2CBA JUMP JUMPDEST PUSH0 PUSH2 0x2BC2 DUP10 DUP5 DUP5 PUSH2 0x2891 JUMP JUMPDEST SWAP1 POP DUP8 DUP2 GT PUSH2 0x2C35 JUMPI DUP6 DUP2 LT ISZERO PUSH2 0x2C2A JUMPI PUSH1 0x40 MLOAD PUSH3 0x461BCD PUSH1 0xE5 SHL DUP2 MSTORE PUSH1 0x20 PUSH1 0x4 DUP3 ADD MSTORE PUSH1 0x26 PUSH1 0x24 DUP3 ADD MSTORE PUSH32 0x556E69737761705632526F757465723A20494E53554646494349454E545F425F PUSH1 0x44 DUP3 ADD MSTORE PUSH6 0x105353D55395 PUSH1 0xD2 SHL PUSH1 0x64 DUP3 ADD MSTORE PUSH1 0x84 ADD PUSH2 0x3FB JUMP JUMPDEST DUP9 SWAP5 POP SWAP3 POP DUP3 PUSH2 0x2CB8 JUMP JUMPDEST PUSH0 PUSH2 0x2C41 DUP10 DUP5 DUP7 PUSH2 0x2891 JUMP JUMPDEST SWAP1 POP DUP10 DUP2 GT ISZERO PUSH2 0x2C53 JUMPI PUSH2 0x2C53 PUSH2 0x2FF5 JUMP JUMPDEST DUP8 DUP2 LT ISZERO PUSH2 0x2CB2 JUMPI PUSH1 0x40 MLOAD PUSH3 0x461BCD PUSH1 0xE5 SHL DUP2 MSTORE PUSH1 0x20 PUSH1 0x4 DUP3 ADD MSTORE PUSH1 0x26 PUSH1 0x24 DUP3 ADD MSTORE PUSH32 0x556E69737761705632526F757465723A20494E53554646494349454E545F415F PUSH1 0x44 DUP3 ADD MSTORE PUSH6 0x105353D55395 PUSH1 0xD2 SHL PUSH1 0x64 DUP3 ADD MSTORE PUSH1 0x84 ADD PUSH2 0x3FB JUMP JUMPDEST SWAP5 POP DUP8 SWAP4 POP JUMPDEST POP JUMPDEST POP POP SWAP7 POP SWAP7 SWAP5 POP POP POP POP POP JUMP JUMPDEST PUSH2 0x2973 DUP2 PUSH1 0x40 MLOAD PUSH1 0x24 ADD PUSH2 0x2CDB SWAP2 SWAP1 PUSH2 0x36A6 JUMP JUMPDEST PUSH1 0x40 DUP1 MLOAD PUSH1 0x1F NOT DUP2 DUP5 SUB ADD DUP2 MSTORE SWAP2 SWAP1 MSTORE PUSH1 0x20 DUP2 ADD DUP1 MLOAD PUSH1 0x1 PUSH1 0x1 PUSH1 0xE0 SHL SUB AND PUSH4 0x104C13EB PUSH1 0xE2 SHL OR SWAP1 MSTORE PUSH2 0x2F84 JUMP JUMPDEST PUSH0 DUP2 ISZERO DUP1 PUSH2 0x2D2D JUMPI POP DUP3 DUP3 PUSH2 0x2D1F DUP2 DUP4 PUSH2 0x36B8 JUMP JUMPDEST SWAP3 POP PUSH2 0x2D2B SWAP1 DUP4 PUSH2 0x3536 JUMP JUMPDEST EQ JUMPDEST PUSH2 0x736 JUMPI PUSH1 0x40 MLOAD PUSH3 0x461BCD PUSH1 0xE5 SHL DUP2 MSTORE PUSH1 0x20 PUSH1 0x4 DUP3 ADD MSTORE PUSH1 0x14 PUSH1 0x24 DUP3 ADD MSTORE PUSH20 0x64732D6D6174682D6D756C2D6F766572666C6F77 PUSH1 0x60 SHL PUSH1 0x44 DUP3 ADD MSTORE PUSH1 0x64 ADD PUSH2 0x3FB JUMP JUMPDEST PUSH0 DUP3 PUSH2 0x2D7C DUP4 DUP3 PUSH2 0x3555 JUMP JUMPDEST SWAP2 POP DUP2 LT ISZERO PUSH2 0x736 JUMPI PUSH1 0x40 MLOAD PUSH3 0x461BCD PUSH1 0xE5 SHL DUP2 MSTORE PUSH1 0x20 PUSH1 0x4 DUP3 ADD MSTORE PUSH1 0x14 PUSH1 0x24 DUP3 ADD MSTORE PUSH20 0x64732D6D6174682D6164642D6F766572666C6F77 PUSH1 0x60 SHL PUSH1 0x44 DUP3 ADD MSTORE PUSH1 0x64 ADD PUSH2 0x3FB JUMP JUMPDEST PUSH0 DUP1 PUSH0 PUSH2 0x2DD1 DUP6 DUP6 PUSH2 0x2E8E JUMP JUMPDEST POP SWAP1 POP PUSH0 PUSH2 0x2DE0 DUP8 DUP8 DUP8 PUSH2 0x1E7E JUMP JUMPDEST SWAP1 POP PUSH0 DUP1 DUP3 PUSH1 0x1 PUSH1 0x1 PUSH1 0xA0 SHL SUB AND PUSH4 0x902F1AC PUSH1 0x40 MLOAD DUP2 PUSH4 0xFFFFFFFF AND PUSH1 0xE0 SHL DUP2 MSTORE PUSH1 0x4 ADD PUSH1 0x60 PUSH1 0x40 MLOAD DUP1 DUP4 SUB DUP2 DUP7 GAS STATICCALL ISZERO DUP1 ISZERO PUSH2 0x2E20 JUMPI RETURNDATASIZE PUSH0 DUP1 RETURNDATACOPY RETURNDATASIZE PUSH0 REVERT JUMPDEST POP POP POP POP PUSH1 0x40 MLOAD RETURNDATASIZE PUSH1 0x1F NOT PUSH1 0x1F DUP3 ADD AND DUP3 ADD DUP1 PUSH1 0x40 MSTORE POP DUP2 ADD SWAP1 PUSH2 0x2E44 SWAP2 SWAP1 PUSH2 0x363F JUMP JUMPDEST POP PUSH1 0x1 PUSH1 0x1 PUSH1 0x70 SHL SUB AND SWAP2 POP PUSH1 0x1 PUSH1 0x1 PUSH1 0x70 SHL SUB AND SWAP2 POP DUP4 PUSH1 0x1 PUSH1 0x1 PUSH1 0xA0 SHL SUB AND DUP9 PUSH1 0x1 PUSH1 0x1 PUSH1 0xA0 SHL SUB AND EQ PUSH2 0x2E7B JUMPI DUP1 DUP3 PUSH2 0x2E7E JUMP JUMPDEST DUP2 DUP2 JUMPDEST SWAP1 SWAP11 SWAP1 SWAP10 POP SWAP8 POP POP POP POP POP POP POP POP JUMP JUMPDEST PUSH0 DUP1 DUP3 PUSH1 0x1 PUSH1 0x1 PUSH1 0xA0 SHL SUB AND DUP5 PUSH1 0x1 PUSH1 0x1 PUSH1 0xA0 SHL SUB AND SUB PUSH2 0x2EFF JUMPI PUSH1 0x40 MLOAD PUSH3 0x461BCD PUSH1 0xE5 SHL DUP2 MSTORE PUSH1 0x20 PUSH1 0x4 DUP3 ADD MSTORE PUSH1 0x25 PUSH1 0x24 DUP3 ADD MSTORE PUSH32 0x556E697377617056324C6962726172793A204944454E544943414C5F41444452 PUSH1 0x44 DUP3 ADD MSTORE PUSH5 0x4553534553 PUSH1 0xD8 SHL PUSH1 0x64 DUP3 ADD MSTORE PUSH1 0x84 ADD PUSH2 0x3FB JUMP JUMPDEST DUP3 PUSH1 0x1 PUSH1 0x1 PUSH1 0xA0 SHL SUB AND DUP5 PUSH1 0x1 PUSH1 0x1 PUSH1 0xA0 SHL SUB AND LT PUSH2 0x2F1F JUMPI DUP3 DUP5 PUSH2 0x2F22 JUMP JUMPDEST DUP4 DUP4 JUMPDEST SWAP1 SWAP3 POP SWAP1 POP PUSH1 0x1 PUSH1 0x1 PUSH1 0xA0 SHL SUB DUP3 AND PUSH2 0x2F7D JUMPI PUSH1 0x40 MLOAD PUSH3 0x461BCD PUSH1 0xE5 SHL DUP2 MSTORE PUSH1 0x20 PUSH1 0x4 DUP3 ADD MSTORE PUSH1 0x1E PUSH1 0x24 DUP3 ADD MSTORE PUSH32 0x556E697377617056324C6962726172793A205A45524F5F414444524553530000 PUSH1 0x44 DUP3 ADD MSTORE PUSH1 0x64 ADD PUSH2 0x3FB JUMP JUMPDEST SWAP3 POP SWAP3 SWAP1 POP JUMP JUMPDEST PUSH2 0x2973 DUP2 PUSH2 0x2FD6 JUMP JUMPDEST PUSH2 0x2FD2 DUP3 DUP3 PUSH1 0x40 MLOAD PUSH1 0x24 ADD PUSH2 0x2FA3 SWAP3 SWAP2 SWAP1 PUSH2 0x36CF JUMP JUMPDEST PUSH1 0x40 DUP1 MLOAD PUSH1 0x1F NOT DUP2 DUP5 SUB ADD DUP2 MSTORE SWAP2 SWAP1 MSTORE PUSH1 0x20 DUP2 ADD DUP1 MLOAD PUSH1 0x1 PUSH1 0x1 PUSH1 0xE0 SHL SUB AND PUSH4 0x759F86BB PUSH1 0xE0 SHL OR SWAP1 MSTORE PUSH2 0x2F84 JUMP JUMPDEST POP POP JUMP JUMPDEST PUSH0 PUSH11 0x636F6E736F6C652E6C6F67 SWAP1 POP PUSH0 DUP1 DUP4 MLOAD PUSH1 0x20 DUP6 ADD DUP5 GAS STATICCALL POP POP POP JUMP JUMPDEST PUSH4 0x4E487B71 PUSH1 0xE0 SHL PUSH0 MSTORE PUSH1 0x1 PUSH1 0x4 MSTORE PUSH1 0x24 PUSH0 REVERT JUMPDEST PUSH0 DUP1 PUSH0 PUSH1 0x60 DUP5 DUP7 SUB SLT ISZERO PUSH2 0x301B JUMPI PUSH0 DUP1 REVERT JUMPDEST POP POP DUP2 CALLDATALOAD SWAP4 PUSH1 0x20 DUP4 ADD CALLDATALOAD SWAP4 POP PUSH1 0x40 SWAP1 SWAP3 ADD CALLDATALOAD SWAP2 SWAP1 POP JUMP JUMPDEST PUSH0 DUP1 DUP4 PUSH1 0x1F DUP5 ADD SLT PUSH2 0x3042 JUMPI PUSH0 DUP1 REVERT JUMPDEST POP DUP2 CALLDATALOAD PUSH8 0xFFFFFFFFFFFFFFFF DUP2 GT ISZERO PUSH2 0x3059 JUMPI PUSH0 DUP1 REVERT JUMPDEST PUSH1 0x20 DUP4 ADD SWAP2 POP DUP4 PUSH1 0x20 DUP3 PUSH1 0x5 SHL DUP6 ADD ADD GT ISZERO PUSH2 0x2F7D JUMPI PUSH0 DUP1 REVERT JUMPDEST PUSH1 0x1 PUSH1 0x1 PUSH1 0xA0 SHL SUB DUP2 AND DUP2 EQ PUSH2 0x2973 JUMPI PUSH0 DUP1 REVERT JUMPDEST DUP1 CALLDATALOAD PUSH2 0x3092 DUP2 PUSH2 0x3073 JUMP JUMPDEST SWAP2 SWAP1 POP JUMP JUMPDEST PUSH0 DUP1 PUSH0 DUP1 PUSH0 DUP1 PUSH1 0xA0 DUP8 DUP10 SUB SLT ISZERO PUSH2 0x30AC JUMPI PUSH0 DUP1 REVERT JUMPDEST DUP7 CALLDATALOAD SWAP6 POP PUSH1 0x20 DUP8 ADD CALLDATALOAD SWAP5 POP PUSH1 0x40 DUP8 ADD CALLDATALOAD PUSH8 0xFFFFFFFFFFFFFFFF DUP2 GT ISZERO PUSH2 0x30D0 JUMPI PUSH0 DUP1 REVERT JUMPDEST PUSH2 0x30DC DUP10 DUP3 DUP11 ADD PUSH2 0x3032 JUMP JUMPDEST SWAP1 SWAP6 POP SWAP4 POP POP PUSH1 0x60 DUP8 ADD CALLDATALOAD PUSH2 0x30F0 DUP2 PUSH2 0x3073 JUMP JUMPDEST DUP1 SWAP3 POP POP PUSH1 0x80 DUP8 ADD CALLDATALOAD SWAP1 POP SWAP3 SWAP6 POP SWAP3 SWAP6 POP SWAP3 SWAP6 JUMP JUMPDEST PUSH1 0x20 DUP1 DUP3 MSTORE DUP3 MLOAD DUP3 DUP3 ADD DUP2 SWAP1 MSTORE PUSH0 SWAP2 SWAP1 DUP5 DUP3 ADD SWAP1 PUSH1 0x40 DUP6 ADD SWAP1 DUP5 JUMPDEST DUP2 DUP2 LT ISZERO PUSH2 0x313C JUMPI DUP4 MLOAD DUP4 MSTORE SWAP3 DUP5 ADD SWAP3 SWAP2 DUP5 ADD SWAP2 PUSH1 0x1 ADD PUSH2 0x3120 JUMP JUMPDEST POP SWAP1 SWAP7 SWAP6 POP POP POP POP POP POP JUMP JUMPDEST PUSH4 0x4E487B71 PUSH1 0xE0 SHL PUSH0 MSTORE PUSH1 0x41 PUSH1 0x4 MSTORE PUSH1 0x24 PUSH0 REVERT JUMPDEST PUSH0 DUP1 PUSH1 0x40 DUP4 DUP6 SUB SLT ISZERO PUSH2 0x316D JUMPI PUSH0 DUP1 REVERT JUMPDEST DUP3 CALLDATALOAD SWAP2 POP PUSH1 0x20 DUP1 DUP5 ADD CALLDATALOAD PUSH8 0xFFFFFFFFFFFFFFFF DUP1 DUP3 GT ISZERO PUSH2 0x318C JUMPI PUSH0 DUP1 REVERT JUMPDEST DUP2 DUP7 ADD SWAP2 POP DUP7 PUSH1 0x1F DUP4 ADD SLT PUSH2 0x319F JUMPI PUSH0 DUP1 REVERT JUMPDEST DUP2 CALLDATALOAD DUP2 DUP2 GT ISZERO PUSH2 0x31B1 JUMPI PUSH2 0x31B1 PUSH2 0x3148 JUMP JUMPDEST DUP1 PUSH1 0x5 SHL PUSH1 0x40 MLOAD PUSH1 0x1F NOT PUSH1 0x3F DUP4 ADD AND DUP2 ADD DUP2 DUP2 LT DUP6 DUP3 GT OR ISZERO PUSH2 0x31D6 JUMPI PUSH2 0x31D6 PUSH2 0x3148 JUMP JUMPDEST PUSH1 0x40 MSTORE SWAP2 DUP3 MSTORE DUP5 DUP3 ADD SWAP3 POP DUP4 DUP2 ADD DUP6 ADD SWAP2 DUP10 DUP4 GT ISZERO PUSH2 0x31F3 JUMPI PUSH0 DUP1 REVERT JUMPDEST SWAP4 DUP6 ADD SWAP4 JUMPDEST DUP3 DUP6 LT ISZERO PUSH2 0x3218 JUMPI PUSH2 0x3209 DUP6 PUSH2 0x3087 JUMP JUMPDEST DUP5 MSTORE SWAP4 DUP6 ADD SWAP4 SWAP3 DUP6 ADD SWAP3 PUSH2 0x31F8 JUMP JUMPDEST DUP1 SWAP7 POP POP POP POP POP POP POP SWAP3 POP SWAP3 SWAP1 POP JUMP JUMPDEST PUSH0 DUP1 PUSH0 DUP1 PUSH0 PUSH1 0x80 DUP7 DUP9 SUB SLT ISZERO PUSH2 0x323C JUMPI PUSH0 DUP1 REVERT JUMPDEST DUP6 CALLDATALOAD SWAP5 POP PUSH1 0x20 DUP7 ADD CALLDATALOAD PUSH8 0xFFFFFFFFFFFFFFFF DUP2 GT ISZERO PUSH2 0x3259 JUMPI PUSH0 DUP1 REVERT JUMPDEST PUSH2 0x3265 DUP9 DUP3 DUP10 ADD PUSH2 0x3032 JUMP JUMPDEST SWAP1 SWAP6 POP SWAP4 POP POP PUSH1 0x40 DUP7 ADD CALLDATALOAD PUSH2 0x3279 DUP2 PUSH2 0x3073 JUMP JUMPDEST SWAP5 SWAP8 SWAP4 SWAP7 POP SWAP2 SWAP5 PUSH1 0x60 ADD CALLDATALOAD SWAP3 SWAP2 POP POP JUMP JUMPDEST PUSH0 DUP1 PUSH0 DUP1 PUSH0 DUP1 PUSH0 DUP1 PUSH2 0x100 DUP10 DUP12 SUB SLT ISZERO PUSH2 0x32A2 JUMPI PUSH0 DUP1 REVERT JUMPDEST DUP9 CALLDATALOAD PUSH2 0x32AD DUP2 PUSH2 0x3073 JUMP JUMPDEST SWAP8 POP PUSH1 0x20 DUP10 ADD CALLDATALOAD PUSH2 0x32BD DUP2 PUSH2 0x3073 JUMP JUMPDEST SWAP7 POP PUSH1 0x40 DUP10 ADD CALLDATALOAD SWAP6 POP PUSH1 0x60 DUP10 ADD CALLDATALOAD SWAP5 POP PUSH1 0x80 DUP10 ADD CALLDATALOAD SWAP4 POP PUSH1 0xA0 DUP10 ADD CALLDATALOAD SWAP3 POP PUSH1 0xC0 DUP10 ADD CALLDATALOAD PUSH2 0x32E9 DUP2 PUSH2 0x3073 JUMP JUMPDEST DUP1 SWAP3 POP POP PUSH1 0xE0 DUP10 ADD CALLDATALOAD SWAP1 POP SWAP3 SWAP6 SWAP9 POP SWAP3 SWAP6 SWAP9 SWAP1 SWAP4 SWAP7 POP JUMP JUMPDEST PUSH0 DUP1 PUSH0 DUP1 PUSH0 DUP1 PUSH1 0xC0 DUP8 DUP10 SUB SLT ISZERO PUSH2 0x3316 JUMPI PUSH0 DUP1 REVERT JUMPDEST DUP7 CALLDATALOAD PUSH2 0x3321 DUP2 PUSH2 0x3073 JUMP JUMPDEST SWAP6 POP PUSH1 0x20 DUP8 ADD CALLDATALOAD SWAP5 POP PUSH1 0x40 DUP8 ADD CALLDATALOAD SWAP4 POP PUSH1 0x60 DUP8 ADD CALLDATALOAD SWAP3 POP PUSH1 0x80 DUP8 ADD CALLDATALOAD PUSH2 0x3346 DUP2 PUSH2 0x3073 JUMP JUMPDEST DUP1 SWAP3 POP POP PUSH1 0xA0 DUP8 ADD CALLDATALOAD SWAP1 POP SWAP3 SWAP6 POP SWAP3 SWAP6 POP SWAP3 SWAP6 JUMP JUMPDEST PUSH1 0x20 DUP1 DUP3 MSTORE PUSH1 0x18 SWAP1 DUP3 ADD MSTORE PUSH32 0x556E69737761705632526F757465723A20455850495245440000000000000000 PUSH1 0x40 DUP3 ADD MSTORE PUSH1 0x60 ADD SWAP1 JUMP JUMPDEST PUSH4 0x4E487B71 PUSH1 0xE0 SHL PUSH0 MSTORE PUSH1 0x11 PUSH1 0x4 MSTORE PUSH1 0x24 PUSH0 REVERT JUMPDEST DUP2 DUP2 SUB DUP2 DUP2 GT ISZERO PUSH2 0x736 JUMPI PUSH2 0x736 PUSH2 0x3392 JUMP JUMPDEST PUSH4 0x4E487B71 PUSH1 0xE0 SHL PUSH0 MSTORE PUSH1 0x32 PUSH1 0x4 MSTORE PUSH1 0x24 PUSH0 REVERT JUMPDEST PUSH0 PUSH1 0x20 DUP3 DUP5 SUB SLT ISZERO PUSH2 0x33DD JUMPI PUSH0 DUP1 REVERT JUMPDEST DUP2 CALLDATALOAD PUSH2 0x33E8 DUP2 PUSH2 0x3073 JUMP JUMPDEST SWAP4 SWAP3 POP POP POP JUMP JUMPDEST PUSH1 0x20 DUP1 DUP3 MSTORE PUSH1 0x1D SWAP1 DUP3 ADD MSTORE PUSH32 0x556E69737761705632526F757465723A20494E56414C49445F50415448000000 PUSH1 0x40 DUP3 ADD MSTORE PUSH1 0x60 ADD SWAP1 JUMP JUMPDEST PUSH1 0x20 DUP1 DUP3 MSTORE PUSH1 0x2B SWAP1 DUP3 ADD MSTORE PUSH32 0x556E69737761705632526F757465723A20494E53554646494349454E545F4F55 PUSH1 0x40 DUP3 ADD MSTORE PUSH11 0x1514155517D05353D55395 PUSH1 0xAA SHL PUSH1 0x60 DUP3 ADD MSTORE PUSH1 0x80 ADD SWAP1 JUMP JUMPDEST PUSH1 0x20 DUP1 DUP3 MSTORE PUSH1 0x27 SWAP1 DUP3 ADD MSTORE PUSH32 0x556E69737761705632526F757465723A204558434553534956455F494E505554 PUSH1 0x40 DUP3 ADD MSTORE PUSH7 0x17D05353D55395 PUSH1 0xCA SHL PUSH1 0x60 DUP3 ADD MSTORE PUSH1 0x80 ADD SWAP1 JUMP JUMPDEST PUSH0 PUSH1 0x20 DUP3 DUP5 SUB SLT ISZERO PUSH2 0x34C8 JUMPI PUSH0 DUP1 REVERT JUMPDEST POP MLOAD SWAP2 SWAP1 POP JUMP JUMPDEST PUSH0 PUSH1 0x20 DUP3 DUP5 SUB SLT ISZERO PUSH2 0x34DF JUMPI PUSH0 DUP1 REVERT JUMPDEST DUP2 MLOAD DUP1 ISZERO ISZERO DUP2 EQ PUSH2 0x33E8 JUMPI PUSH0 DUP1 REVERT JUMPDEST PUSH1 0x20 DUP1 DUP3 MSTORE PUSH1 0x28 SWAP1 DUP3 ADD MSTORE PUSH32 0x556E697377617056324C6962726172793A20494E53554646494349454E545F4C PUSH1 0x40 DUP3 ADD MSTORE PUSH8 0x4951554944495459 PUSH1 0xC0 SHL PUSH1 0x60 DUP3 ADD MSTORE PUSH1 0x80 ADD SWAP1 JUMP JUMPDEST PUSH0 DUP3 PUSH2 0x3550 JUMPI PUSH4 0x4E487B71 PUSH1 0xE0 SHL PUSH0 MSTORE PUSH1 0x12 PUSH1 0x4 MSTORE PUSH1 0x24 PUSH0 REVERT JUMPDEST POP DIV SWAP1 JUMP JUMPDEST DUP1 DUP3 ADD DUP1 DUP3 GT ISZERO PUSH2 0x736 JUMPI PUSH2 0x736 PUSH2 0x3392 JUMP JUMPDEST PUSH0 PUSH1 0x1 DUP3 ADD PUSH2 0x3579 JUMPI PUSH2 0x3579 PUSH2 0x3392 JUMP JUMPDEST POP PUSH1 0x1 ADD SWAP1 JUMP JUMPDEST PUSH0 JUMPDEST DUP4 DUP2 LT ISZERO PUSH2 0x359A JUMPI DUP2 DUP2 ADD MLOAD DUP4 DUP3 ADD MSTORE PUSH1 0x20 ADD PUSH2 0x3582 JUMP JUMPDEST POP POP PUSH0 SWAP2 ADD MSTORE JUMP JUMPDEST PUSH0 DUP3 MLOAD PUSH2 0x35B3 DUP2 DUP5 PUSH1 0x20 DUP8 ADD PUSH2 0x3580 JUMP JUMPDEST SWAP2 SWAP1 SWAP2 ADD SWAP3 SWAP2 POP POP JUMP JUMPDEST PUSH0 DUP2 MLOAD DUP1 DUP5 MSTORE PUSH2 0x35D4 DUP2 PUSH1 0x20 DUP7 ADD PUSH1 0x20 DUP7 ADD PUSH2 0x3580 JUMP JUMPDEST PUSH1 0x1F ADD PUSH1 0x1F NOT AND SWAP3 SWAP1 SWAP3 ADD PUSH1 0x20 ADD SWAP3 SWAP2 POP POP JUMP JUMPDEST DUP5 DUP2 MSTORE DUP4 PUSH1 0x20 DUP3 ADD MSTORE PUSH1 0x1 DUP1 PUSH1 0xA0 SHL SUB DUP4 AND PUSH1 0x40 DUP3 ADD MSTORE PUSH1 0x80 PUSH1 0x60 DUP3 ADD MSTORE PUSH0 PUSH2 0x2887 PUSH1 0x80 DUP4 ADD DUP5 PUSH2 0x35BD JUMP JUMPDEST PUSH0 DUP2 PUSH2 0x3622 JUMPI PUSH2 0x3622 PUSH2 0x3392 JUMP JUMPDEST POP PUSH0 NOT ADD SWAP1 JUMP JUMPDEST DUP1 MLOAD PUSH1 0x1 PUSH1 0x1 PUSH1 0x70 SHL SUB DUP2 AND DUP2 EQ PUSH2 0x3092 JUMPI PUSH0 DUP1 REVERT JUMPDEST PUSH0 DUP1 PUSH0 PUSH1 0x60 DUP5 DUP7 SUB SLT ISZERO PUSH2 0x3651 JUMPI PUSH0 DUP1 REVERT JUMPDEST PUSH2 0x365A DUP5 PUSH2 0x3629 JUMP JUMPDEST SWAP3 POP PUSH2 0x3668 PUSH1 0x20 DUP6 ADD PUSH2 0x3629 JUMP JUMPDEST SWAP2 POP PUSH1 0x40 DUP5 ADD MLOAD PUSH4 0xFFFFFFFF DUP2 AND DUP2 EQ PUSH2 0x3680 JUMPI PUSH0 DUP1 REVERT JUMPDEST DUP1 SWAP2 POP POP SWAP3 POP SWAP3 POP SWAP3 JUMP JUMPDEST PUSH0 PUSH1 0x20 DUP3 DUP5 SUB SLT ISZERO PUSH2 0x369B JUMPI PUSH0 DUP1 REVERT JUMPDEST DUP2 MLOAD PUSH2 0x33E8 DUP2 PUSH2 0x3073 JUMP JUMPDEST PUSH1 0x20 DUP2 MSTORE PUSH0 PUSH2 0x733 PUSH1 0x20 DUP4 ADD DUP5 PUSH2 0x35BD JUMP JUMPDEST DUP1 DUP3 MUL DUP2 ISZERO DUP3 DUP3 DIV DUP5 EQ OR PUSH2 0x736 JUMPI PUSH2 0x736 PUSH2 0x3392 JUMP JUMPDEST PUSH1 0x1 PUSH1 0x1 PUSH1 0xA0 SHL SUB DUP4 AND DUP2 MSTORE PUSH1 0x40 PUSH1 0x20 DUP3 ADD DUP2 SWAP1 MSTORE PUSH0 SWAP1 PUSH2 0x3D0 SWAP1 DUP4 ADD DUP5 PUSH2 0x35BD JUMP INVALID PUSH20 0x756363657373737366756C6C6C79206372656174 PUSH6 0x64204C697175 PUSH10 0x6469747920546F6B656E PUSH20 0xA2646970667358221220B64D6E1A9CE5CBFB40FE 0xD4 GASLIMIT ADDRESS SWAP4 DUP6 RETURNDATACOPY MOD SWAP7 PUSH29 0xBDEB5D9B86FEB7A0EAE76A119164736F6C634300081500330000000000 "
		},
		"gasEstimates": {
			"creation": {
				"codeDepositCost": "2832000",
				"executionCost": "infinite",
				"totalCost": "infinite"
			},
			"external": {
				"WETH()": "infinite",
				"addLiquidity(address,address,uint256,uint256,uint256,uint256,address,uint256)": "infinite",
				"addLiquidityETH(address,uint256,uint256,uint256,address,uint256)": "infinite",
				"factory()": "infinite",
				"getAmountIn(uint256,uint256,uint256)": "infinite",
				"getAmountOut(uint256,uint256,uint256)": "infinite",
				"getAmountsIn(uint256,address[])": "infinite",
				"getAmountsOut(uint256,address[])": "infinite",
				"quote(uint256,uint256,uint256)": "infinite",
				"swapETHForExactTokens(uint256,address[],address,uint256)": "infinite",
				"swapExactETHForTokens(uint256,address[],address,uint256)": "infinite",
				"swapExactETHForTokensSupportingFeeOnTransferTokens(uint256,address[],address,uint256)": "infinite",
				"swapExactTokensForETH(uint256,uint256,address[],address,uint256)": "infinite",
				"swapExactTokensForETHSupportingFeeOnTransferTokens(uint256,uint256,address[],address,uint256)": "infinite",
				"swapExactTokensForTokens(uint256,uint256,address[],address,uint256)": "infinite",
				"swapExactTokensForTokensSupportingFeeOnTransferTokens(uint256,uint256,address[],address,uint256)": "infinite",
				"swapTokensForExactETH(uint256,uint256,address[],address,uint256)": "infinite",
				"swapTokensForExactTokens(uint256,uint256,address[],address,uint256)": "infinite"
			},
			"internal": {
				"_addLiquidity(address,address,uint256,uint256,uint256,uint256)": "infinite",
				"_swap(uint256[] memory,address[] memory,address)": "infinite",
				"_swapSupportingFeeOnTransferTokens(address[] memory,address)": "infinite"
			}
		},
		"methodIdentifiers": {
			"WETH()": "ad5c4648",
			"addLiquidity(address,address,uint256,uint256,uint256,uint256,address,uint256)": "e8e33700",
			"addLiquidityETH(address,uint256,uint256,uint256,address,uint256)": "f305d719",
			"factory()": "c45a0155",
			"getAmountIn(uint256,uint256,uint256)": "85f8c259",
			"getAmountOut(uint256,uint256,uint256)": "054d50d4",
			"getAmountsIn(uint256,address[])": "1f00ca74",
			"getAmountsOut(uint256,address[])": "d06ca61f",
			"quote(uint256,uint256,uint256)": "ad615dec",
			"swapETHForExactTokens(uint256,address[],address,uint256)": "fb3bdb41",
			"swapExactETHForTokens(uint256,address[],address,uint256)": "7ff36ab5",
			"swapExactETHForTokensSupportingFeeOnTransferTokens(uint256,address[],address,uint256)": "b6f9de95",
			"swapExactTokensForETH(uint256,uint256,address[],address,uint256)": "18cbafe5",
			"swapExactTokensForETHSupportingFeeOnTransferTokens(uint256,uint256,address[],address,uint256)": "791ac947",
			"swapExactTokensForTokens(uint256,uint256,address[],address,uint256)": "38ed1739",
			"swapExactTokensForTokensSupportingFeeOnTransferTokens(uint256,uint256,address[],address,uint256)": "5c11d795",
			"swapTokensForExactETH(uint256,uint256,address[],address,uint256)": "4a25d94a",
			"swapTokensForExactTokens(uint256,uint256,address[],address,uint256)": "8803dbee"
		}
	},
	"abi": [
		{
			"inputs": [
				{
					"internalType": "address",
					"name": "_factory",
					"type": "address"
				},
				{
					"internalType": "address",
					"name": "_WETH",
					"type": "address"
				}
			],
			"stateMutability": "nonpayable",
			"type": "constructor"
		},
		{
			"inputs": [],
			"name": "WETH",
			"outputs": [
				{
					"internalType": "address",
					"name": "",
					"type": "address"
				}
			],
			"stateMutability": "view",
			"type": "function"
		},
		{
			"inputs": [
				{
					"internalType": "address",
					"name": "tokenA",
					"type": "address"
				},
				{
					"internalType": "address",
					"name": "tokenB",
					"type": "address"
				},
				{
					"internalType": "uint256",
					"name": "amountADesired",
					"type": "uint256"
				},
				{
					"internalType": "uint256",
					"name": "amountBDesired",
					"type": "uint256"
				},
				{
					"internalType": "uint256",
					"name": "amountAMin",
					"type": "uint256"
				},
				{
					"internalType": "uint256",
					"name": "amountBMin",
					"type": "uint256"
				},
				{
					"internalType": "address",
					"name": "to",
					"type": "address"
				},
				{
					"internalType": "uint256",
					"name": "deadline",
					"type": "uint256"
				}
			],
			"name": "addLiquidity",
			"outputs": [
				{
					"internalType": "uint256",
					"name": "amountA",
					"type": "uint256"
				},
				{
					"internalType": "uint256",
					"name": "amountB",
					"type": "uint256"
				},
				{
					"internalType": "uint256",
					"name": "liquidity",
					"type": "uint256"
				}
			],
			"stateMutability": "nonpayable",
			"type": "function"
		},
		{
			"inputs": [
				{
					"internalType": "address",
					"name": "token",
					"type": "address"
				},
				{
					"internalType": "uint256",
					"name": "amountTokenDesired",
					"type": "uint256"
				},
				{
					"internalType": "uint256",
					"name": "amountTokenMin",
					"type": "uint256"
				},
				{
					"internalType": "uint256",
					"name": "amountETHMin",
					"type": "uint256"
				},
				{
					"internalType": "address",
					"name": "to",
					"type": "address"
				},
				{
					"internalType": "uint256",
					"name": "deadline",
					"type": "uint256"
				}
			],
			"name": "addLiquidityETH",
			"outputs": [
				{
					"internalType": "uint256",
					"name": "amountToken",
					"type": "uint256"
				},
				{
					"internalType": "uint256",
					"name": "amountETH",
					"type": "uint256"
				},
				{
					"internalType": "uint256",
					"name": "liquidity",
					"type": "uint256"
				}
			],
			"stateMutability": "payable",
			"type": "function"
		},
		{
			"inputs": [],
			"name": "factory",
			"outputs": [
				{
					"internalType": "address",
					"name": "",
					"type": "address"
				}
			],
			"stateMutability": "view",
			"type": "function"
		},
		{
			"inputs": [
				{
					"internalType": "uint256",
					"name": "amountOut",
					"type": "uint256"
				},
				{
					"internalType": "uint256",
					"name": "reserveIn",
					"type": "uint256"
				},
				{
					"internalType": "uint256",
					"name": "reserveOut",
					"type": "uint256"
				}
			],
			"name": "getAmountIn",
			"outputs": [
				{
					"internalType": "uint256",
					"name": "amountIn",
					"type": "uint256"
				}
			],
			"stateMutability": "view",
			"type": "function"
		},
		{
			"inputs": [
				{
					"internalType": "uint256",
					"name": "amountIn",
					"type": "uint256"
				},
				{
					"internalType": "uint256",
					"name": "reserveIn",
					"type": "uint256"
				},
				{
					"internalType": "uint256",
					"name": "reserveOut",
					"type": "uint256"
				}
			],
			"name": "getAmountOut",
			"outputs": [
				{
					"internalType": "uint256",
					"name": "amountOut",
					"type": "uint256"
				}
			],
			"stateMutability": "pure",
			"type": "function"
		},
		{
			"inputs": [
				{
					"internalType": "uint256",
					"name": "amountOut",
					"type": "uint256"
				},
				{
					"internalType": "address[]",
					"name": "path",
					"type": "address[]"
				}
			],
			"name": "getAmountsIn",
			"outputs": [
				{
					"internalType": "uint256[]",
					"name": "amounts",
					"type": "uint256[]"
				}
			],
			"stateMutability": "view",
			"type": "function"
		},
		{
			"inputs": [
				{
					"internalType": "uint256",
					"name": "amountIn",
					"type": "uint256"
				},
				{
					"internalType": "address[]",
					"name": "path",
					"type": "address[]"
				}
			],
			"name": "getAmountsOut",
			"outputs": [
				{
					"internalType": "uint256[]",
					"name": "amounts",
					"type": "uint256[]"
				}
			],
			"stateMutability": "view",
			"type": "function"
		},
		{
			"inputs": [
				{
					"internalType": "uint256",
					"name": "amountA",
					"type": "uint256"
				},
				{
					"internalType": "uint256",
					"name": "reserveA",
					"type": "uint256"
				},
				{
					"internalType": "uint256",
					"name": "reserveB",
					"type": "uint256"
				}
			],
			"name": "quote",
			"outputs": [
				{
					"internalType": "uint256",
					"name": "amountB",
					"type": "uint256"
				}
			],
			"stateMutability": "pure",
			"type": "function"
		},
		{
			"inputs": [
				{
					"internalType": "uint256",
					"name": "amountOut",
					"type": "uint256"
				},
				{
					"internalType": "address[]",
					"name": "path",
					"type": "address[]"
				},
				{
					"internalType": "address",
					"name": "to",
					"type": "address"
				},
				{
					"internalType": "uint256",
					"name": "deadline",
					"type": "uint256"
				}
			],
			"name": "swapETHForExactTokens",
			"outputs": [
				{
					"internalType": "uint256[]",
					"name": "amounts",
					"type": "uint256[]"
				}
			],
			"stateMutability": "payable",
			"type": "function"
		},
		{
			"inputs": [
				{
					"internalType": "uint256",
					"name": "amountOutMin",
					"type": "uint256"
				},
				{
					"internalType": "address[]",
					"name": "path",
					"type": "address[]"
				},
				{
					"internalType": "address",
					"name": "to",
					"type": "address"
				},
				{
					"internalType": "uint256",
					"name": "deadline",
					"type": "uint256"
				}
			],
			"name": "swapExactETHForTokens",
			"outputs": [
				{
					"internalType": "uint256[]",
					"name": "amounts",
					"type": "uint256[]"
				}
			],
			"stateMutability": "payable",
			"type": "function"
		},
		{
			"inputs": [
				{
					"internalType": "uint256",
					"name": "amountOutMin",
					"type": "uint256"
				},
				{
					"internalType": "address[]",
					"name": "path",
					"type": "address[]"
				},
				{
					"internalType": "address",
					"name": "to",
					"type": "address"
				},
				{
					"internalType": "uint256",
					"name": "deadline",
					"type": "uint256"
				}
			],
			"name": "swapExactETHForTokensSupportingFeeOnTransferTokens",
			"outputs": [],
			"stateMutability": "payable",
			"type": "function"
		},
		{
			"inputs": [
				{
					"internalType": "uint256",
					"name": "amountIn",
					"type": "uint256"
				},
				{
					"internalType": "uint256",
					"name": "amountOutMin",
					"type": "uint256"
				},
				{
					"internalType": "address[]",
					"name": "path",
					"type": "address[]"
				},
				{
					"internalType": "address",
					"name": "to",
					"type": "address"
				},
				{
					"internalType": "uint256",
					"name": "deadline",
					"type": "uint256"
				}
			],
			"name": "swapExactTokensForETH",
			"outputs": [
				{
					"internalType": "uint256[]",
					"name": "amounts",
					"type": "uint256[]"
				}
			],
			"stateMutability": "nonpayable",
			"type": "function"
		},
		{
			"inputs": [
				{
					"internalType": "uint256",
					"name": "amountIn",
					"type": "uint256"
				},
				{
					"internalType": "uint256",
					"name": "amountOutMin",
					"type": "uint256"
				},
				{
					"internalType": "address[]",
					"name": "path",
					"type": "address[]"
				},
				{
					"internalType": "address",
					"name": "to",
					"type": "address"
				},
				{
					"internalType": "uint256",
					"name": "deadline",
					"type": "uint256"
				}
			],
			"name": "swapExactTokensForETHSupportingFeeOnTransferTokens",
			"outputs": [],
			"stateMutability": "nonpayable",
			"type": "function"
		},
		{
			"inputs": [
				{
					"internalType": "uint256",
					"name": "amountIn",
					"type": "uint256"
				},
				{
					"internalType": "uint256",
					"name": "amountOutMin",
					"type": "uint256"
				},
				{
					"internalType": "address[]",
					"name": "path",
					"type": "address[]"
				},
				{
					"internalType": "address",
					"name": "to",
					"type": "address"
				},
				{
					"internalType": "uint256",
					"name": "deadline",
					"type": "uint256"
				}
			],
			"name": "swapExactTokensForTokens",
			"outputs": [
				{
					"internalType": "uint256[]",
					"name": "amounts",
					"type": "uint256[]"
				}
			],
			"stateMutability": "nonpayable",
			"type": "function"
		},
		{
			"inputs": [
				{
					"internalType": "uint256",
					"name": "amountIn",
					"type": "uint256"
				},
				{
					"internalType": "uint256",
					"name": "amountOutMin",
					"type": "uint256"
				},
				{
					"internalType": "address[]",
					"name": "path",
					"type": "address[]"
				},
				{
					"internalType": "address",
					"name": "to",
					"type": "address"
				},
				{
					"internalType": "uint256",
					"name": "deadline",
					"type": "uint256"
				}
			],
			"name": "swapExactTokensForTokensSupportingFeeOnTransferTokens",
			"outputs": [],
			"stateMutability": "nonpayable",
			"type": "function"
		},
		{
			"inputs": [
				{
					"internalType": "uint256",
					"name": "amountOut",
					"type": "uint256"
				},
				{
					"internalType": "uint256",
					"name": "amountInMax",
					"type": "uint256"
				},
				{
					"internalType": "address[]",
					"name": "path",
					"type": "address[]"
				},
				{
					"internalType": "address",
					"name": "to",
					"type": "address"
				},
				{
					"internalType": "uint256",
					"name": "deadline",
					"type": "uint256"
				}
			],
			"name": "swapTokensForExactETH",
			"outputs": [
				{
					"internalType": "uint256[]",
					"name": "amounts",
					"type": "uint256[]"
				}
			],
			"stateMutability": "nonpayable",
			"type": "function"
		},
		{
			"inputs": [
				{
					"internalType": "uint256",
					"name": "amountOut",
					"type": "uint256"
				},
				{
					"internalType": "uint256",
					"name": "amountInMax",
					"type": "uint256"
				},
				{
					"internalType": "address[]",
					"name": "path",
					"type": "address[]"
				},
				{
					"internalType": "address",
					"name": "to",
					"type": "address"
				},
				{
					"internalType": "uint256",
					"name": "deadline",
					"type": "uint256"
				}
			],
			"name": "swapTokensForExactTokens",
			"outputs": [
				{
					"internalType": "uint256[]",
					"name": "amounts",
					"type": "uint256[]"
				}
			],
			"stateMutability": "nonpayable",
			"type": "function"
		},
		{
			"stateMutability": "payable",
			"type": "receive"
		}
	]
}