{
	"data": {
		"bytecode": {
			"linkReferences": {},
			"object": "60c06040523480156200001157600080fd5b5060405162005535380380620055358339818101604052810190620000379190620000c4565b8173ffffffffffffffffffffffffffffffffffffffff1660808173ffffffffffffffffffffffffffffffffffffffff1660601b815250508073ffffffffffffffffffffffffffffffffffffffff1660a08173ffffffffffffffffffffffffffffffffffffffff1660601b8152505050506200015e565b600081519050620000be8162000144565b92915050565b60008060408385031215620000de57620000dd6200013f565b5b6000620000ee85828601620000ad565b92505060206200010185828601620000ad565b9150509250929050565b600062000118826200011f565b9050919050565b600073ffffffffffffffffffffffffffffffffffffffff82169050919050565b600080fd5b6200014f816200010b565b81146200015b57600080fd5b50565b60805160601c60a05160601c615285620002b06000396000818161011f015281816106110152818161064f0152818161074c015281816109fd01528181610ea70152818161114c015281816112800152818161140e015281816114aa0152818161189701528181611bd601528181611e5d01528181611eb601528181611eea01528181611f6b01528181612124015281816122a601526123420152600081816108130152818161091801528181610af001528181610b2801528181610c6c01528181610d7101528181610f6e0152818161106701528181611339015281816114e9015281816116ae015281816117a70152818161191d01528181611b5301528181611b7c01528181611bb401528181611d3101528181611e94015281816121dd0152818161238101528181612cd101528181612d25015281816131c80152818161328f015261334401526152856000f3fe6080604052600436106101185760003560e01c80638803dbee116100a0578063d06ca61f11610064578063d06ca61f146104a8578063ded9382a146104e5578063e8e3370014610523578063f305d71914610562578063fb3bdb41146105945761017b565b80638803dbee1461039a578063ad5c4648146103d7578063ad615dec14610402578063baa2abde1461043f578063c45a01551461047d5761017b565b80632195995c116100e75780632195995c1461027557806338ed1739146102b35780634a25d94a146102f05780637ff36ab51461032d57806385f8c2591461035d5761017b565b806302751cec14610180578063054d50d4146101be57806318cbafe5146101fb5780631f00ca74146102385761017b565b3661017b577f000000000000000000000000000000000000000000000000000000000000000073ffffffffffffffffffffffffffffffffffffffff163373ffffffffffffffffffffffffffffffffffffffff161461017957610178614bc6565b5b005b600080fd5b34801561018c57600080fd5b506101a760048036038101906101a29190613c2e565b6105c4565b6040516101b59291906147e3565b60405180910390f35b3480156101ca57600080fd5b506101e560048036038101906101e09190614005565b6106ee565b6040516101f291906147c8565b60405180910390f35b34801561020757600080fd5b50610222600480360381019061021d9190613f6b565b610704565b60405161022f9190614546565b60405180910390f35b34801561024457600080fd5b5061025f600480360381019061025a9190613ecf565b610ae9565b60405161026c9190614546565b60405180910390f35b34801561028157600080fd5b5061029c60048036038101906102979190613a84565b610b1e565b6040516102aa9291906147e3565b60405180910390f35b3480156102bf57600080fd5b506102da60048036038101906102d59190613f6b565b610c21565b6040516102e79190614546565b60405180910390f35b3480156102fc57600080fd5b5061031760048036038101906103129190613f6b565b610e5f565b6040516103249190614546565b60405180910390f35b61034760048036038101906103429190613e47565b611238565b6040516103549190614546565b60405180910390f35b34801561036957600080fd5b50610384600480360381019061037f9190614005565b61164d565b60405161039191906147c8565b60405180910390f35b3480156103a657600080fd5b506103c160048036038101906103bc9190613f6b565b611663565b6040516103ce9190614546565b60405180910390f35b3480156103e357600080fd5b506103ec611895565b6040516103f99190614433565b60405180910390f35b34801561040e57600080fd5b5061042960048036038101906104249190614005565b6118b9565b60405161043691906147c8565b60405180910390f35b34801561044b57600080fd5b50610466600480360381019061046191906139e2565b6118cf565b6040516104749291906147e3565b60405180910390f35b34801561048957600080fd5b50610492611b51565b60405161049f9190614433565b60405180910390f35b3480156104b457600080fd5b506104cf60048036038101906104ca9190613ecf565b611b75565b6040516104dc9190614546565b60405180910390f35b3480156104f157600080fd5b5061050c60048036038101906105079190613cbb565b611baa565b60405161051a9291906147e3565b60405180910390f35b34801561052f57600080fd5b5061054a60048036038101906105459190613b78565b611ccb565b60405161055993929190614858565b60405180910390f35b61057c60048036038101906105779190613c2e565b611e0e565b60405161058b93929190614858565b60405180910390f35b6105ae60048036038101906105a99190613e47565b6120dc565b6040516105bb9190614546565b60405180910390f35b600080824281101561060b576040517f08c379a000000000000000000000000000000000000000000000000000000000815260040161060290614588565b60405180910390fd5b61063a897f00000000000000000000000000000000000000000000000000000000000000008a8a8a308a6118cf565b809350819450505061064d898685612539565b7f000000000000000000000000000000000000000000000000000000000000000073ffffffffffffffffffffffffffffffffffffffff16632e1a7d4d836040518263ffffffff1660e01b81526004016106a691906147c8565b600060405180830381600087803b1580156106c057600080fd5b505af11580156106d4573d6000803e3d6000fd5b505050506106e2858361266f565b50965096945050505050565b60006106fb84848461276f565b90509392505050565b6060814281101561074a576040517f08c379a000000000000000000000000000000000000000000000000000000000815260040161074190614588565b60405180910390fd5b7f000000000000000000000000000000000000000000000000000000000000000073ffffffffffffffffffffffffffffffffffffffff1686866001898990506107939190614a32565b8181106107a3576107a2614c53565b5b90506020020160208101906107b89190613988565b73ffffffffffffffffffffffffffffffffffffffff161461080e576040517f08c379a000000000000000000000000000000000000000000000000000000000815260040161080590614688565b60405180910390fd5b61087a7f000000000000000000000000000000000000000000000000000000000000000089888880806020026020016040519081016040528093929190818152602001838360200280828437600081840152601f19601f82011690508083019250505050505050612875565b915086826001845161088c9190614a32565b8151811061089d5761089c614c53565b5b602002602001015110156108e6576040517f08c379a00000000000000000000000000000000000000000000000000000000081526004016108dd90614748565b60405180910390fd5b6109af868660008181106108fd576108fc614c53565b5b90506020020160208101906109129190613988565b3361098e7f00000000000000000000000000000000000000000000000000000000000000008a8a600081811061094b5761094a614c53565b5b90506020020160208101906109609190613988565b8b8b600181811061097457610973614c53565b5b90506020020160208101906109899190613988565b612a00565b856000815181106109a2576109a1614c53565b5b6020026020010151612a96565b6109fb82878780806020026020016040519081016040528093929190818152602001838360200280828437600081840152601f19601f8201169050808301925050505050505030612bcf565b7f000000000000000000000000000000000000000000000000000000000000000073ffffffffffffffffffffffffffffffffffffffff16632e1a7d4d8360018551610a469190614a32565b81518110610a5757610a56614c53565b5b60200260200101516040518263ffffffff1660e01b8152600401610a7b91906147c8565b600060405180830381600087803b158015610a9557600080fd5b505af1158015610aa9573d6000803e3d6000fd5b50505050610ade848360018551610ac09190614a32565b81518110610ad157610ad0614c53565b5b602002602001015161266f565b509695505050505050565b6060610b167f00000000000000000000000000000000000000000000000000000000000000008484612e28565b905092915050565b6000806000610b4e7f00000000000000000000000000000000000000000000000000000000000000008f8f612a00565b9050600087610b5d578c610b7f565b7fffffffffffffffffffffffffffffffffffffffffffffffffffffffffffffffff5b90508173ffffffffffffffffffffffffffffffffffffffff1663d505accf3330848d8c8c8c6040518863ffffffff1660e01b8152600401610bc697969594939291906144ae565b600060405180830381600087803b158015610be057600080fd5b505af1158015610bf4573d6000803e3d6000fd5b50505050610c078f8f8f8f8f8f8f6118cf565b809450819550505050509b509b9950505050505050505050565b60608142811015610c67576040517f08c379a0000000000000000000000000000000000000000000000000000000008152600401610c5e90614588565b60405180910390fd5b610cd37f000000000000000000000000000000000000000000000000000000000000000089888880806020026020016040519081016040528093929190818152602001838360200280828437600081840152601f19601f82011690508083019250505050505050612875565b9150868260018451610ce59190614a32565b81518110610cf657610cf5614c53565b5b60200260200101511015610d3f576040517f08c379a0000000000000000000000000000000000000000000000000000000008152600401610d3690614748565b60405180910390fd5b610e0886866000818110610d5657610d55614c53565b5b9050602002016020810190610d6b9190613988565b33610de77f00000000000000000000000000000000000000000000000000000000000000008a8a6000818110610da457610da3614c53565b5b9050602002016020810190610db99190613988565b8b8b6001818110610dcd57610dcc614c53565b5b9050602002016020810190610de29190613988565b612a00565b85600081518110610dfb57610dfa614c53565b5b6020026020010151612a96565b610e5482878780806020026020016040519081016040528093929190818152602001838360200280828437600081840152601f19601f8201169050808301925050505050505086612bcf565b509695505050505050565b60608142811015610ea5576040517f08c379a0000000000000000000000000000000000000000000000000000000008152600401610e9c90614588565b60405180910390fd5b7f000000000000000000000000000000000000000000000000000000000000000073ffffffffffffffffffffffffffffffffffffffff168686600189899050610eee9190614a32565b818110610efe57610efd614c53565b5b9050602002016020810190610f139190613988565b73ffffffffffffffffffffffffffffffffffffffff1614610f69576040517f08c379a0000000000000000000000000000000000000000000000000000000008152600401610f6090614688565b60405180910390fd5b610fd57f000000000000000000000000000000000000000000000000000000000000000089888880806020026020016040519081016040528093929190818152602001838360200280828437600081840152601f19601f82011690508083019250505050505050612e28565b91508682600081518110610fec57610feb614c53565b5b60200260200101511115611035576040517f08c379a000000000000000000000000000000000000000000000000000000000815260040161102c90614708565b60405180910390fd5b6110fe8686600081811061104c5761104b614c53565b5b90506020020160208101906110619190613988565b336110dd7f00000000000000000000000000000000000000000000000000000000000000008a8a600081811061109a57611099614c53565b5b90506020020160208101906110af9190613988565b8b8b60018181106110c3576110c2614c53565b5b90506020020160208101906110d89190613988565b612a00565b856000815181106110f1576110f0614c53565b5b6020026020010151612a96565b61114a82878780806020026020016040519081016040528093929190818152602001838360200280828437600081840152601f19601f8201169050808301925050505050505030612bcf565b7f000000000000000000000000000000000000000000000000000000000000000073ffffffffffffffffffffffffffffffffffffffff16632e1a7d4d83600185516111959190614a32565b815181106111a6576111a5614c53565b5b60200260200101516040518263ffffffff1660e01b81526004016111ca91906147c8565b600060405180830381600087803b1580156111e457600080fd5b505af11580156111f8573d6000803e3d6000fd5b5050505061122d84836001855161120f9190614a32565b815181106112205761121f614c53565b5b602002602001015161266f565b509695505050505050565b6060814281101561127e576040517f08c379a000000000000000000000000000000000000000000000000000000000815260040161127590614588565b60405180910390fd5b7f000000000000000000000000000000000000000000000000000000000000000073ffffffffffffffffffffffffffffffffffffffff16868660008181106112c9576112c8614c53565b5b90506020020160208101906112de9190613988565b73ffffffffffffffffffffffffffffffffffffffff1614611334576040517f08c379a000000000000000000000000000000000000000000000000000000000815260040161132b90614688565b60405180910390fd5b6113a07f000000000000000000000000000000000000000000000000000000000000000034888880806020026020016040519081016040528093929190818152602001838360200280828437600081840152601f19601f82011690508083019250505050505050612875565b91508682600184516113b29190614a32565b815181106113c3576113c2614c53565b5b6020026020010151101561140c576040517f08c379a000000000000000000000000000000000000000000000000000000000815260040161140390614748565b60405180910390fd5b7f000000000000000000000000000000000000000000000000000000000000000073ffffffffffffffffffffffffffffffffffffffff1663d0e30db08360008151811061145c5761145b614c53565b5b60200260200101516040518263ffffffff1660e01b81526004016000604051808303818588803b15801561148f57600080fd5b505af11580156114a3573d6000803e3d6000fd5b50505050507f000000000000000000000000000000000000000000000000000000000000000073ffffffffffffffffffffffffffffffffffffffff1663a9059cbb61155f7f00000000000000000000000000000000000000000000000000000000000000008989600081811061151c5761151b614c53565b5b90506020020160208101906115319190613988565b8a8a600181811061154557611544614c53565b5b905060200201602081019061155a9190613988565b612a00565b8460008151811061157357611572614c53565b5b60200260200101516040518363ffffffff1660e01b815260040161159892919061451d565b602060405180830381600087803b1580156115b257600080fd5b505af11580156115c6573d6000803e3d6000fd5b505050506040513d601f19601f820116820180604052508101906115ea9190613d9a565b6115f7576115f6614bc6565b5b61164382878780806020026020016040519081016040528093929190818152602001838360200280828437600081840152601f19601f8201169050808301925050505050505086612bcf565b5095945050505050565b600061165a84848461276f565b90509392505050565b606081428110156116a9576040517f08c379a00000000000000000000000000000000000000000000000000000000081526004016116a090614588565b60405180910390fd5b6117157f000000000000000000000000000000000000000000000000000000000000000089888880806020026020016040519081016040528093929190818152602001838360200280828437600081840152601f19601f82011690508083019250505050505050612e28565b9150868260008151811061172c5761172b614c53565b5b60200260200101511115611775576040517f08c379a000000000000000000000000000000000000000000000000000000000815260040161176c90614708565b60405180910390fd5b61183e8686600081811061178c5761178b614c53565b5b90506020020160208101906117a19190613988565b3361181d7f00000000000000000000000000000000000000000000000000000000000000008a8a60008181106117da576117d9614c53565b5b90506020020160208101906117ef9190613988565b8b8b600181811061180357611802614c53565b5b90506020020160208101906118189190613988565b612a00565b8560008151811061183157611830614c53565b5b6020026020010151612a96565b61188a82878780806020026020016040519081016040528093929190818152602001838360200280828437600081840152601f19601f8201169050808301925050505050505086612bcf565b509695505050505050565b7f000000000000000000000000000000000000000000000000000000000000000081565b60006118c6848484612fc3565b90509392505050565b6000808242811015611916576040517f08c379a000000000000000000000000000000000000000000000000000000000815260040161190d90614588565b60405180910390fd5b60006119437f00000000000000000000000000000000000000000000000000000000000000008c8c612a00565b90508073ffffffffffffffffffffffffffffffffffffffff166323b872dd33838c6040518463ffffffff1660e01b815260040161198293929190614477565b602060405180830381600087803b15801561199c57600080fd5b505af11580156119b0573d6000803e3d6000fd5b505050506040513d601f19601f820116820180604052508101906119d49190613d9a565b506000808273ffffffffffffffffffffffffffffffffffffffff166389afcb44896040518263ffffffff1660e01b8152600401611a119190614433565b6040805180830381600087803b158015611a2a57600080fd5b505af1158015611a3e573d6000803e3d6000fd5b505050506040513d601f19601f82011682018060405250810190611a629190613f2b565b915091506000611a728e8e61307d565b5090508073ffffffffffffffffffffffffffffffffffffffff168e73ffffffffffffffffffffffffffffffffffffffff1614611aaf578183611ab2565b82825b80975081985050508a871015611afd576040517f08c379a0000000000000000000000000000000000000000000000000000000008152600401611af490614728565b60405180910390fd5b89861015611b40576040517f08c379a0000000000000000000000000000000000000000000000000000000008152600401611b3790614668565b60405180910390fd5b505050505097509795505050505050565b7f000000000000000000000000000000000000000000000000000000000000000081565b6060611ba27f00000000000000000000000000000000000000000000000000000000000000008484612875565b905092915050565b6000806000611bfa7f00000000000000000000000000000000000000000000000000000000000000008e7f0000000000000000000000000000000000000000000000000000000000000000612a00565b9050600087611c09578c611c2b565b7fffffffffffffffffffffffffffffffffffffffffffffffffffffffffffffffff5b90508173ffffffffffffffffffffffffffffffffffffffff1663d505accf3330848d8c8c8c6040518863ffffffff1660e01b8152600401611c7297969594939291906144ae565b600060405180830381600087803b158015611c8c57600080fd5b505af1158015611ca0573d6000803e3d6000fd5b50505050611cb28e8e8e8e8e8e6105c4565b809450819550505050509a509a98505050505050505050565b60008060008342811015611d14576040517f08c379a0000000000000000000000000000000000000000000000000000000008152600401611d0b90614588565b60405180910390fd5b611d228c8c8c8c8c8c6131ab565b80945081955050506000611d577f00000000000000000000000000000000000000000000000000000000000000008e8e612a00565b9050611d658d338388612a96565b611d718c338387612a96565b8073ffffffffffffffffffffffffffffffffffffffff16636a627842886040518263ffffffff1660e01b8152600401611daa9190614433565b602060405180830381600087803b158015611dc457600080fd5b505af1158015611dd8573d6000803e3d6000fd5b505050506040513d601f19601f82011682018060405250810190611dfc9190613e1a565b92505050985098509895505050505050565b60008060008342811015611e57576040517f08c379a0000000000000000000000000000000000000000000000000000000008152600401611e4e90614588565b60405180910390fd5b611e858a7f00000000000000000000000000000000000000000000000000000000000000008b348c8c6131ab565b80945081955050506000611eda7f00000000000000000000000000000000000000000000000000000000000000008c7f0000000000000000000000000000000000000000000000000000000000000000612a00565b9050611ee88b338388612a96565b7f000000000000000000000000000000000000000000000000000000000000000073ffffffffffffffffffffffffffffffffffffffff1663d0e30db0856040518263ffffffff1660e01b81526004016000604051808303818588803b158015611f5057600080fd5b505af1158015611f64573d6000803e3d6000fd5b50505050507f000000000000000000000000000000000000000000000000000000000000000073ffffffffffffffffffffffffffffffffffffffff1663a9059cbb82866040518363ffffffff1660e01b8152600401611fc492919061451d565b602060405180830381600087803b158015611fde57600080fd5b505af1158015611ff2573d6000803e3d6000fd5b505050506040513d601f19601f820116820180604052508101906120169190613d9a565b61202357612022614bc6565b5b8073ffffffffffffffffffffffffffffffffffffffff16636a627842886040518263ffffffff1660e01b815260040161205c9190614433565b602060405180830381600087803b15801561207657600080fd5b505af115801561208a573d6000803e3d6000fd5b505050506040513d601f19601f820116820180604052508101906120ae9190613e1a565b9250833411156120ce576120cd3385346120c89190614a32565b61266f565b5b505096509650969350505050565b60608142811015612122576040517f08c379a000000000000000000000000000000000000000000000000000000000815260040161211990614588565b60405180910390fd5b7f000000000000000000000000000000000000000000000000000000000000000073ffffffffffffffffffffffffffffffffffffffff168686600081811061216d5761216c614c53565b5b90506020020160208101906121829190613988565b73ffffffffffffffffffffffffffffffffffffffff16146121d8576040517f08c379a00000000000000000000000000000000000000000000000000000000081526004016121cf90614688565b60405180910390fd5b6122447f000000000000000000000000000000000000000000000000000000000000000088888880806020026020016040519081016040528093929190818152602001838360200280828437600081840152601f19601f82011690508083019250505050505050612e28565b9150348260008151811061225b5761225a614c53565b5b602002602001015111156122a4576040517f08c379a000000000000000000000000000000000000000000000000000000000815260040161229b90614708565b60405180910390fd5b7f000000000000000000000000000000000000000000000000000000000000000073ffffffffffffffffffffffffffffffffffffffff1663d0e30db0836000815181106122f4576122f3614c53565b5b60200260200101516040518263ffffffff1660e01b81526004016000604051808303818588803b15801561232757600080fd5b505af115801561233b573d6000803e3d6000fd5b50505050507f000000000000000000000000000000000000000000000000000000000000000073ffffffffffffffffffffffffffffffffffffffff1663a9059cbb6123f77f0000000000000000000000000000000000000000000000000000000000000000898960008181106123b4576123b3614c53565b5b90506020020160208101906123c99190613988565b8a8a60018181106123dd576123dc614c53565b5b90506020020160208101906123f29190613988565b612a00565b8460008151811061240b5761240a614c53565b5b60200260200101516040518363ffffffff1660e01b815260040161243092919061451d565b602060405180830381600087803b15801561244a57600080fd5b505af115801561245e573d6000803e3d6000fd5b505050506040513d601f19601f820116820180604052508101906124829190613d9a565b61248f5761248e614bc6565b5b6124db82878780806020026020016040519081016040528093929190818152602001838360200280828437600081840152601f19601f8201169050808301925050505050505086612bcf565b816000815181106124ef576124ee614c53565b5b602002602001015134111561252f5761252e338360008151811061251657612515614c53565b5b6020026020010151346125299190614a32565b61266f565b5b5095945050505050565b6000808473ffffffffffffffffffffffffffffffffffffffff1663a9059cbb858560405160240161256b92919061451d565b6040516020818303038152906040529060e01b6020820180517bffffffffffffffffffffffffffffffffffffffffffffffffffffffff83818316178352505050506040516125b9919061441c565b6000604051808303816000865af19150503d80600081146125f6576040519150601f19603f3d011682016040523d82523d6000602084013e6125fb565b606091505b509150915081801561262957506000815114806126285750808060200190518101906126279190613d9a565b5b5b612668576040517f08c379a000000000000000000000000000000000000000000000000000000000815260040161265f90614768565b60405180910390fd5b5050505050565b60008273ffffffffffffffffffffffffffffffffffffffff1682600067ffffffffffffffff8111156126a4576126a3614c82565b5b6040519080825280601f01601f1916602001820160405280156126d65781602001600182028036833780820191505090505b506040516126e4919061441c565b60006040518083038185875af1925050503d8060008114612721576040519150601f19603f3d011682016040523d82523d6000602084013e612726565b606091505b505090508061276a576040517f08c379a000000000000000000000000000000000000000000000000000000000815260040161276190614628565b60405180910390fd5b505050565b60008084116127b3576040517f08c379a00000000000000000000000000000000000000000000000000000000081526004016127aa906147a8565b60405180910390fd5b6000831180156127c35750600082115b612802576040517f08c379a00000000000000000000000000000000000000000000000000000000081526004016127f9906146c8565b60405180910390fd5b60006128196103e58661347890919063ffffffff16565b90506000612830848361347890919063ffffffff16565b9050600061285b8361284d6103e88961347890919063ffffffff16565b6134e590919063ffffffff16565b9050808261286991906149a7565b93505050509392505050565b60606002825110156128bc576040517f08c379a00000000000000000000000000000000000000000000000000000000081526004016128b3906146a8565b60405180910390fd5b815167ffffffffffffffff8111156128d7576128d6614c82565b5b6040519080825280602002602001820160405280156129055781602001602082028036833780820191505090505b509050828160008151811061291d5761291c614c53565b5b60200260200101818152505060005b6001835161293a9190614a32565b8110156129f85760008061298f8786858151811061295b5761295a614c53565b5b6020026020010151876001876129719190614951565b8151811061298257612981614c53565b5b602002602001015161353e565b915091506129b88484815181106129a9576129a8614c53565b5b6020026020010151838361276f565b846001856129c69190614951565b815181106129d7576129d6614c53565b5b602002602001018181525050505080806129f090614b7d565b91505061292c565b509392505050565b60008373ffffffffffffffffffffffffffffffffffffffff1663e6a4390584846040518363ffffffff1660e01b8152600401612a3d92919061444e565b60206040518083038186803b158015612a5557600080fd5b505afa158015612a69573d6000803e3d6000fd5b505050506040513d601f19601f82011682018060405250810190612a8d91906139b5565b90509392505050565b6000808573ffffffffffffffffffffffffffffffffffffffff166323b872dd868686604051602401612aca93929190614477565b6040516020818303038152906040529060e01b6020820180517bffffffffffffffffffffffffffffffffffffffffffffffffffffffff8381831617835250505050604051612b18919061441c565b6000604051808303816000865af19150503d8060008114612b55576040519150601f19603f3d011682016040523d82523d6000602084013e612b5a565b606091505b5091509150818015612b885750600081511480612b87575080806020019051810190612b869190613d9a565b5b5b612bc7576040517f08c379a0000000000000000000000000000000000000000000000000000000008152600401612bbe90614608565b60405180910390fd5b505050505050565b60005b60018351612be09190614a32565b811015612e2257600080848381518110612bfd57612bfc614c53565b5b602002602001015185600185612c139190614951565b81518110612c2457612c23614c53565b5b6020026020010151915091506000612c3c838361307d565b509050600087600186612c4f9190614951565b81518110612c6057612c5f614c53565b5b602002602001015190506000808373ffffffffffffffffffffffffffffffffffffffff168673ffffffffffffffffffffffffffffffffffffffff1614612ca857826000612cac565b6000835b91509150600060028a51612cc09190614a32565b8810612ccc5788612d1e565b612d1d7f0000000000000000000000000000000000000000000000000000000000000000878c60028c612cff9190614951565b81518110612d1057612d0f614c53565b5b6020026020010151612a00565b5b9050612d4b7f00000000000000000000000000000000000000000000000000000000000000008888612a00565b73ffffffffffffffffffffffffffffffffffffffff1663022c0d9f848484600067ffffffffffffffff811115612d8457612d83614c82565b5b6040519080825280601f01601f191660200182016040528015612db65781602001600182028036833780820191505090505b506040518563ffffffff1660e01b8152600401612dd6949392919061480c565b600060405180830381600087803b158015612df057600080fd5b505af1158015612e04573d6000803e3d6000fd5b50505050505050505050508080612e1a90614b7d565b915050612bd2565b50505050565b6060600282511015612e6f576040517f08c379a0000000000000000000000000000000000000000000000000000000008152600401612e66906146a8565b60405180910390fd5b815167ffffffffffffffff811115612e8a57612e89614c82565b5b604051908082528060200260200182016040528015612eb85781602001602082028036833780820191505090505b509050828160018351612ecb9190614a32565b81518110612edc57612edb614c53565b5b602002602001018181525050600060018351612ef89190614a32565b90505b6000811115612fbb57600080612f528786600186612f199190614a32565b81518110612f2a57612f29614c53565b5b6020026020010151878681518110612f4557612f44614c53565b5b602002602001015161353e565b91509150612f7b848481518110612f6c57612f6b614c53565b5b60200260200101518383613656565b84600185612f899190614a32565b81518110612f9a57612f99614c53565b5b60200260200101818152505050508080612fb390614b22565b915050612efb565b509392505050565b6000808411613007576040517f08c379a0000000000000000000000000000000000000000000000000000000008152600401612ffe906146e8565b60405180910390fd5b6000831180156130175750600082115b613056576040517f08c379a000000000000000000000000000000000000000000000000000000000815260040161304d906146c8565b60405180910390fd5b8261306a838661347890919063ffffffff16565b61307491906149a7565b90509392505050565b6000808273ffffffffffffffffffffffffffffffffffffffff168473ffffffffffffffffffffffffffffffffffffffff1614156130ef576040517f08c379a00000000000000000000000000000000000000000000000000000000081526004016130e690614648565b60405180910390fd5b8273ffffffffffffffffffffffffffffffffffffffff168473ffffffffffffffffffffffffffffffffffffffff161061312957828461312c565b83835b8092508193505050600073ffffffffffffffffffffffffffffffffffffffff168273ffffffffffffffffffffffffffffffffffffffff1614156131a4576040517f08c379a000000000000000000000000000000000000000000000000000000000815260040161319b90614788565b60405180910390fd5b9250929050565b600080600073ffffffffffffffffffffffffffffffffffffffff167f000000000000000000000000000000000000000000000000000000000000000073ffffffffffffffffffffffffffffffffffffffff1663e6a439058a8a6040518363ffffffff1660e01b815260040161322192919061444e565b60206040518083038186803b15801561323957600080fd5b505afa15801561324d573d6000803e3d6000fd5b505050506040513d601f19601f8201168201806040525081019061327191906139b5565b73ffffffffffffffffffffffffffffffffffffffff16141561333c577f000000000000000000000000000000000000000000000000000000000000000073ffffffffffffffffffffffffffffffffffffffff1663c9c6539689896040518363ffffffff1660e01b81526004016132e892919061444e565b602060405180830381600087803b15801561330257600080fd5b505af1158015613316573d6000803e3d6000fd5b505050506040513d601f19601f8201168201806040525081019061333a91906139b5565b505b60008061336a7f00000000000000000000000000000000000000000000000000000000000000008b8b61353e565b9150915060008214801561337e5750600081145b15613392578787809450819550505061346b565b600061339f898484612fc3565b90508781116133fa57858110156133eb576040517f08c379a00000000000000000000000000000000000000000000000000000000081526004016133e290614668565b60405180910390fd5b88818095508196505050613469565b6000613407898486612fc3565b90508981111561341a57613419614bc6565b5b8781101561345d576040517f08c379a000000000000000000000000000000000000000000000000000000000815260040161345490614728565b60405180910390fd5b80898096508197505050505b505b5050965096945050505050565b6000808214806134a057508282838561349191906149d8565b92508261349e91906149a7565b145b6134df576040517f08c379a00000000000000000000000000000000000000000000000000000000081526004016134d6906145a8565b60405180910390fd5b92915050565b60008282846134f49190614951565b9150811015613538576040517f08c379a000000000000000000000000000000000000000000000000000000000815260040161352f906145e8565b60405180910390fd5b92915050565b600080600061354d858561307d565b509050600061355d878787612a00565b90506000808273ffffffffffffffffffffffffffffffffffffffff16630902f1ac6040518163ffffffff1660e01b815260040160606040518083038186803b1580156135a857600080fd5b505afa1580156135bc573d6000803e3d6000fd5b505050506040513d601f19601f820116820180604052508101906135e09190613dc7565b506dffffffffffffffffffffffffffff1691506dffffffffffffffffffffffffffff1691508373ffffffffffffffffffffffffffffffffffffffff168873ffffffffffffffffffffffffffffffffffffffff161461363f578082613642565b81815b809650819750505050505050935093915050565b600080841161369a576040517f08c379a0000000000000000000000000000000000000000000000000000000008152600401613691906145c8565b60405180910390fd5b6000831180156136aa5750600082115b6136e9576040517f08c379a00000000000000000000000000000000000000000000000000000000081526004016136e0906146c8565b60405180910390fd5b60006137126103e8613704878761347890919063ffffffff16565b61347890919063ffffffff16565b9050600061373d6103e561372f888761376990919063ffffffff16565b61347890919063ffffffff16565b905061375e6001828461375091906149a7565b6134e590919063ffffffff16565b925050509392505050565b60008282846137789190614a32565b91508111156137bc576040517f08c379a00000000000000000000000000000000000000000000000000000000081526004016137b390614568565b60405180910390fd5b92915050565b60006137d56137d0846148b4565b61488f565b905080838252602082019050828560208602820111156137f8576137f7614cbb565b5b60005b85811015613828578161380e8882613832565b8452602084019350602083019250506001810190506137fb565b5050509392505050565b600081359050613841816151ae565b92915050565b600081519050613856816151ae565b92915050565b60008083601f84011261387257613871614cb6565b5b8235905067ffffffffffffffff81111561388f5761388e614cb1565b5b6020830191508360208202830111156138ab576138aa614cbb565b5b9250929050565b600082601f8301126138c7576138c6614cb6565b5b81356138d78482602086016137c2565b91505092915050565b6000813590506138ef816151c5565b92915050565b600081519050613904816151c5565b92915050565b600081359050613919816151dc565b92915050565b60008151905061392e816151f3565b92915050565b6000813590506139438161520a565b92915050565b6000815190506139588161520a565b92915050565b60008151905061396d81615221565b92915050565b60008135905061398281615238565b92915050565b60006020828403121561399e5761399d614cc5565b5b60006139ac84828501613832565b91505092915050565b6000602082840312156139cb576139ca614cc5565b5b60006139d984828501613847565b91505092915050565b600080600080600080600060e0888a031215613a0157613a00614cc5565b5b6000613a0f8a828b01613832565b9750506020613a208a828b01613832565b9650506040613a318a828b01613934565b9550506060613a428a828b01613934565b9450506080613a538a828b01613934565b93505060a0613a648a828b01613832565b92505060c0613a758a828b01613934565b91505092959891949750929550565b60008060008060008060008060008060006101608c8e031215613aaa57613aa9614cc5565b5b6000613ab88e828f01613832565b9b50506020613ac98e828f01613832565b9a50506040613ada8e828f01613934565b9950506060613aeb8e828f01613934565b9850506080613afc8e828f01613934565b97505060a0613b0d8e828f01613832565b96505060c0613b1e8e828f01613934565b95505060e0613b2f8e828f016138e0565b945050610100613b418e828f01613973565b935050610120613b538e828f0161390a565b925050610140613b658e828f0161390a565b9150509295989b509295989b9093969950565b600080600080600080600080610100898b031215613b9957613b98614cc5565b5b6000613ba78b828c01613832565b9850506020613bb88b828c01613832565b9750506040613bc98b828c01613934565b9650506060613bda8b828c01613934565b9550506080613beb8b828c01613934565b94505060a0613bfc8b828c01613934565b93505060c0613c0d8b828c01613832565b92505060e0613c1e8b828c01613934565b9150509295985092959890939650565b60008060008060008060c08789031215613c4b57613c4a614cc5565b5b6000613c5989828a01613832565b9650506020613c6a89828a01613934565b9550506040613c7b89828a01613934565b9450506060613c8c89828a01613934565b9350506080613c9d89828a01613832565b92505060a0613cae89828a01613934565b9150509295509295509295565b6000806000806000806000806000806101408b8d031215613cdf57613cde614cc5565b5b6000613ced8d828e01613832565b9a50506020613cfe8d828e01613934565b9950506040613d0f8d828e01613934565b9850506060613d208d828e01613934565b9750506080613d318d828e01613832565b96505060a0613d428d828e01613934565b95505060c0613d538d828e016138e0565b94505060e0613d648d828e01613973565b935050610100613d768d828e0161390a565b925050610120613d888d828e0161390a565b9150509295989b9194979a5092959850565b600060208284031215613db057613daf614cc5565b5b6000613dbe848285016138f5565b91505092915050565b600080600060608486031215613de057613ddf614cc5565b5b6000613dee8682870161391f565b9350506020613dff8682870161391f565b9250506040613e108682870161395e565b9150509250925092565b600060208284031215613e3057613e2f614cc5565b5b6000613e3e84828501613949565b91505092915050565b600080600080600060808688031215613e6357613e62614cc5565b5b6000613e7188828901613934565b955050602086013567ffffffffffffffff811115613e9257613e91614cc0565b5b613e9e8882890161385c565b94509450506040613eb188828901613832565b9250506060613ec288828901613934565b9150509295509295909350565b60008060408385031215613ee657613ee5614cc5565b5b6000613ef485828601613934565b925050602083013567ffffffffffffffff811115613f1557613f14614cc0565b5b613f21858286016138b2565b9150509250929050565b60008060408385031215613f4257613f41614cc5565b5b6000613f5085828601613949565b9250506020613f6185828601613949565b9150509250929050565b60008060008060008060a08789031215613f8857613f87614cc5565b5b6000613f9689828a01613934565b9650506020613fa789828a01613934565b955050604087013567ffffffffffffffff811115613fc857613fc7614cc0565b5b613fd489828a0161385c565b94509450506060613fe789828a01613832565b9250506080613ff889828a01613934565b9150509295509295509295565b60008060006060848603121561401e5761401d614cc5565b5b600061402c86828701613934565b935050602061403d86828701613934565b925050604061404e86828701613934565b9150509250925092565b600061406483836143ef565b60208301905092915050565b61407981614a66565b82525050565b600061408a826148f0565b6140948185614913565b935061409f836148e0565b8060005b838110156140d05781516140b78882614058565b97506140c283614906565b9250506001810190506140a3565b5085935050505092915050565b6140e681614a84565b82525050565b60006140f7826148fb565b6141018185614924565b9350614111818560208601614aef565b61411a81614cca565b840191505092915050565b6000614130826148fb565b61413a8185614935565b935061414a818560208601614aef565b80840191505092915050565b6000614163601583614940565b915061416e82614cdb565b602082019050919050565b6000614186601883614940565b915061419182614d04565b602082019050919050565b60006141a9601483614940565b91506141b482614d2d565b602082019050919050565b60006141cc602c83614940565b91506141d782614d56565b604082019050919050565b60006141ef601483614940565b91506141fa82614da5565b602082019050919050565b6000614212603183614940565b915061421d82614dce565b604082019050919050565b6000614235603483614940565b915061424082614e1d565b604082019050919050565b6000614258602583614940565b915061426382614e6c565b604082019050919050565b600061427b602683614940565b915061428682614ebb565b604082019050919050565b600061429e601d83614940565b91506142a982614f0a565b602082019050919050565b60006142c1601e83614940565b91506142cc82614f33565b602082019050919050565b60006142e4602883614940565b91506142ef82614f5c565b604082019050919050565b6000614307602583614940565b915061431282614fab565b604082019050919050565b600061432a602783614940565b915061433582614ffa565b604082019050919050565b600061434d602683614940565b915061435882615049565b604082019050919050565b6000614370602b83614940565b915061437b82615098565b604082019050919050565b6000614393602d83614940565b915061439e826150e7565b604082019050919050565b60006143b6601e83614940565b91506143c182615136565b602082019050919050565b60006143d9602b83614940565b91506143e48261515f565b604082019050919050565b6143f881614ac8565b82525050565b61440781614ac8565b82525050565b61441681614ae2565b82525050565b60006144288284614125565b915081905092915050565b60006020820190506144486000830184614070565b92915050565b60006040820190506144636000830185614070565b6144706020830184614070565b9392505050565b600060608201905061448c6000830186614070565b6144996020830185614070565b6144a660408301846143fe565b949350505050565b600060e0820190506144c3600083018a614070565b6144d06020830189614070565b6144dd60408301886143fe565b6144ea60608301876143fe565b6144f7608083018661440d565b61450460a08301856140dd565b61451160c08301846140dd565b98975050505050505050565b60006040820190506145326000830185614070565b61453f60208301846143fe565b9392505050565b60006020820190508181036000830152614560818461407f565b905092915050565b6000602082019050818103600083015261458181614156565b9050919050565b600060208201905081810360008301526145a181614179565b9050919050565b600060208201905081810360008301526145c18161419c565b9050919050565b600060208201905081810360008301526145e1816141bf565b9050919050565b60006020820190508181036000830152614601816141e2565b9050919050565b6000602082019050818103600083015261462181614205565b9050919050565b6000602082019050818103600083015261464181614228565b9050919050565b600060208201905081810360008301526146618161424b565b9050919050565b600060208201905081810360008301526146818161426e565b9050919050565b600060208201905081810360008301526146a181614291565b9050919050565b600060208201905081810360008301526146c1816142b4565b9050919050565b600060208201905081810360008301526146e1816142d7565b9050919050565b60006020820190508181036000830152614701816142fa565b9050919050565b600060208201905081810360008301526147218161431d565b9050919050565b6000602082019050818103600083015261474181614340565b9050919050565b6000602082019050818103600083015261476181614363565b9050919050565b6000602082019050818103600083015261478181614386565b9050919050565b600060208201905081810360008301526147a1816143a9565b9050919050565b600060208201905081810360008301526147c1816143cc565b9050919050565b60006020820190506147dd60008301846143fe565b92915050565b60006040820190506147f860008301856143fe565b61480560208301846143fe565b9392505050565b600060808201905061482160008301876143fe565b61482e60208301866143fe565b61483b6040830185614070565b818103606083015261484d81846140ec565b905095945050505050565b600060608201905061486d60008301866143fe565b61487a60208301856143fe565b61488760408301846143fe565b949350505050565b60006148996148aa565b90506148a58282614b4c565b919050565b6000604051905090565b600067ffffffffffffffff8211156148cf576148ce614c82565b5b602082029050602081019050919050565b6000819050602082019050919050565b600081519050919050565b600081519050919050565b6000602082019050919050565b600082825260208201905092915050565b600082825260208201905092915050565b600081905092915050565b600082825260208201905092915050565b600061495c82614ac8565b915061496783614ac8565b9250827fffffffffffffffffffffffffffffffffffffffffffffffffffffffffffffffff0382111561499c5761499b614bf5565b5b828201905092915050565b60006149b282614ac8565b91506149bd83614ac8565b9250826149cd576149cc614c24565b5b828204905092915050565b60006149e382614ac8565b91506149ee83614ac8565b9250817fffffffffffffffffffffffffffffffffffffffffffffffffffffffffffffffff0483118215151615614a2757614a26614bf5565b5b828202905092915050565b6000614a3d82614ac8565b9150614a4883614ac8565b925082821015614a5b57614a5a614bf5565b5b828203905092915050565b6000614a7182614aa8565b9050919050565b60008115159050919050565b6000819050919050565b60006dffffffffffffffffffffffffffff82169050919050565b600073ffffffffffffffffffffffffffffffffffffffff82169050919050565b6000819050919050565b600063ffffffff82169050919050565b600060ff82169050919050565b60005b83811015614b0d578082015181840152602081019050614af2565b83811115614b1c576000848401525b50505050565b6000614b2d82614ac8565b91506000821415614b4157614b40614bf5565b5b600182039050919050565b614b5582614cca565b810181811067ffffffffffffffff82111715614b7457614b73614c82565b5b80604052505050565b6000614b8882614ac8565b91507fffffffffffffffffffffffffffffffffffffffffffffffffffffffffffffffff821415614bbb57614bba614bf5565b5b600182019050919050565b7f4e487b7100000000000000000000000000000000000000000000000000000000600052600160045260246000fd5b7f4e487b7100000000000000000000000000000000000000000000000000000000600052601160045260246000fd5b7f4e487b7100000000000000000000000000000000000000000000000000000000600052601260045260246000fd5b7f4e487b7100000000000000000000000000000000000000000000000000000000600052603260045260246000fd5b7f4e487b7100000000000000000000000000000000000000000000000000000000600052604160045260246000fd5b600080fd5b600080fd5b600080fd5b600080fd5b600080fd5b6000601f19601f8301169050919050565b7f64732d6d6174682d7375622d756e646572666c6f770000000000000000000000600082015250565b7f556e69737761705632526f757465723a20455850495245440000000000000000600082015250565b7f64732d6d6174682d6d756c2d6f766572666c6f77000000000000000000000000600082015250565b7f556e697377617056324c6962726172793a20494e53554646494349454e545f4f60008201527f55545055545f414d4f554e540000000000000000000000000000000000000000602082015250565b7f64732d6d6174682d6164642d6f766572666c6f77000000000000000000000000600082015250565b7f5472616e7366657248656c7065723a3a7472616e7366657246726f6d3a20747260008201527f616e7366657246726f6d206661696c6564000000000000000000000000000000602082015250565b7f5472616e7366657248656c7065723a3a736166655472616e736665724554483a60008201527f20455448207472616e73666572206661696c6564000000000000000000000000602082015250565b7f556e697377617056324c6962726172793a204944454e544943414c5f4144445260008201527f4553534553000000000000000000000000000000000000000000000000000000602082015250565b7f556e69737761705632526f757465723a20494e53554646494349454e545f425f60008201527f414d4f554e540000000000000000000000000000000000000000000000000000602082015250565b7f556e69737761705632526f757465723a20494e56414c49445f50415448000000600082015250565b7f556e697377617056324c6962726172793a20494e56414c49445f504154480000600082015250565b7f556e697377617056324c6962726172793a20494e53554646494349454e545f4c60008201527f4951554944495459000000000000000000000000000000000000000000000000602082015250565b7f556e697377617056324c6962726172793a20494e53554646494349454e545f4160008201527f4d4f554e54000000000000000000000000000000000000000000000000000000602082015250565b7f556e69737761705632526f757465723a204558434553534956455f494e50555460008201527f5f414d4f554e5400000000000000000000000000000000000000000000000000602082015250565b7f556e69737761705632526f757465723a20494e53554646494349454e545f415f60008201527f414d4f554e540000000000000000000000000000000000000000000000000000602082015250565b7f556e69737761705632526f757465723a20494e53554646494349454e545f4f5560008201527f545055545f414d4f554e54000000000000000000000000000000000000000000602082015250565b7f5472616e7366657248656c7065723a3a736166655472616e736665723a20747260008201527f616e73666572206661696c656400000000000000000000000000000000000000602082015250565b7f556e697377617056324c6962726172793a205a45524f5f414444524553530000600082015250565b7f556e697377617056324c6962726172793a20494e53554646494349454e545f4960008201527f4e5055545f414d4f554e54000000000000000000000000000000000000000000602082015250565b6151b781614a66565b81146151c257600080fd5b50565b6151ce81614a78565b81146151d957600080fd5b50565b6151e581614a84565b81146151f057600080fd5b50565b6151fc81614a8e565b811461520757600080fd5b50565b61521381614ac8565b811461521e57600080fd5b50565b61522a81614ad2565b811461523557600080fd5b50565b61524181614ae2565b811461524c57600080fd5b5056fea26469706673582212204c79698716c09a1b641ec3198bc9d45689aec88f3b8d37b5545457c8b29f421f64736f6c63430008070033",
			"opcodes": "PUSH1 0xC0 PUSH1 0x40 MSTORE CALLVALUE DUP1 ISZERO PUSH3 0x11 JUMPI PUSH1 0x0 DUP1 REVERT JUMPDEST POP PUSH1 0x40 MLOAD PUSH3 0x5535 CODESIZE SUB DUP1 PUSH3 0x5535 DUP4 CODECOPY DUP2 DUP2 ADD PUSH1 0x40 MSTORE DUP2 ADD SWAP1 PUSH3 0x37 SWAP2 SWAP1 PUSH3 0xC4 JUMP JUMPDEST DUP2 PUSH20 0xFFFFFFFFFFFFFFFFFFFFFFFFFFFFFFFFFFFFFFFF AND PUSH1 0x80 DUP2 PUSH20 0xFFFFFFFFFFFFFFFFFFFFFFFFFFFFFFFFFFFFFFFF AND PUSH1 0x60 SHL DUP2 MSTORE POP POP DUP1 PUSH20 0xFFFFFFFFFFFFFFFFFFFFFFFFFFFFFFFFFFFFFFFF AND PUSH1 0xA0 DUP2 PUSH20 0xFFFFFFFFFFFFFFFFFFFFFFFFFFFFFFFFFFFFFFFF AND PUSH1 0x60 SHL DUP2 MSTORE POP POP POP POP PUSH3 0x15E JUMP JUMPDEST PUSH1 0x0 DUP2 MLOAD SWAP1 POP PUSH3 0xBE DUP2 PUSH3 0x144 JUMP JUMPDEST SWAP3 SWAP2 POP POP JUMP JUMPDEST PUSH1 0x0 DUP1 PUSH1 0x40 DUP4 DUP6 SUB SLT ISZERO PUSH3 0xDE JUMPI PUSH3 0xDD PUSH3 0x13F JUMP JUMPDEST JUMPDEST PUSH1 0x0 PUSH3 0xEE DUP6 DUP3 DUP7 ADD PUSH3 0xAD JUMP JUMPDEST SWAP3 POP POP PUSH1 0x20 PUSH3 0x101 DUP6 DUP3 DUP7 ADD PUSH3 0xAD JUMP JUMPDEST SWAP2 POP POP SWAP3 POP SWAP3 SWAP1 POP JUMP JUMPDEST PUSH1 0x0 PUSH3 0x118 DUP3 PUSH3 0x11F JUMP JUMPDEST SWAP1 POP SWAP2 SWAP1 POP JUMP JUMPDEST PUSH1 0x0 PUSH20 0xFFFFFFFFFFFFFFFFFFFFFFFFFFFFFFFFFFFFFFFF DUP3 AND SWAP1 POP SWAP2 SWAP1 POP JUMP JUMPDEST PUSH1 0x0 DUP1 REVERT JUMPDEST PUSH3 0x14F DUP2 PUSH3 0x10B JUMP JUMPDEST DUP2 EQ PUSH3 0x15B JUMPI PUSH1 0x0 DUP1 REVERT JUMPDEST POP JUMP JUMPDEST PUSH1 0x80 MLOAD PUSH1 0x60 SHR PUSH1 0xA0 MLOAD PUSH1 0x60 SHR PUSH2 0x5285 PUSH3 0x2B0 PUSH1 0x0 CODECOPY PUSH1 0x0 DUP2 DUP2 PUSH2 0x11F ADD MSTORE DUP2 DUP2 PUSH2 0x611 ADD MSTORE DUP2 DUP2 PUSH2 0x64F ADD MSTORE DUP2 DUP2 PUSH2 0x74C ADD MSTORE DUP2 DUP2 PUSH2 0x9FD ADD MSTORE DUP2 DUP2 PUSH2 0xEA7 ADD MSTORE DUP2 DUP2 PUSH2 0x114C ADD MSTORE DUP2 DUP2 PUSH2 0x1280 ADD MSTORE DUP2 DUP2 PUSH2 0x140E ADD MSTORE DUP2 DUP2 PUSH2 0x14AA ADD MSTORE DUP2 DUP2 PUSH2 0x1897 ADD MSTORE DUP2 DUP2 PUSH2 0x1BD6 ADD MSTORE DUP2 DUP2 PUSH2 0x1E5D ADD MSTORE DUP2 DUP2 PUSH2 0x1EB6 ADD MSTORE DUP2 DUP2 PUSH2 0x1EEA ADD MSTORE DUP2 DUP2 PUSH2 0x1F6B ADD MSTORE DUP2 DUP2 PUSH2 0x2124 ADD MSTORE DUP2 DUP2 PUSH2 0x22A6 ADD MSTORE PUSH2 0x2342 ADD MSTORE PUSH1 0x0 DUP2 DUP2 PUSH2 0x813 ADD MSTORE DUP2 DUP2 PUSH2 0x918 ADD MSTORE DUP2 DUP2 PUSH2 0xAF0 ADD MSTORE DUP2 DUP2 PUSH2 0xB28 ADD MSTORE DUP2 DUP2 PUSH2 0xC6C ADD MSTORE DUP2 DUP2 PUSH2 0xD71 ADD MSTORE DUP2 DUP2 PUSH2 0xF6E ADD MSTORE DUP2 DUP2 PUSH2 0x1067 ADD MSTORE DUP2 DUP2 PUSH2 0x1339 ADD MSTORE DUP2 DUP2 PUSH2 0x14E9 ADD MSTORE DUP2 DUP2 PUSH2 0x16AE ADD MSTORE DUP2 DUP2 PUSH2 0x17A7 ADD MSTORE DUP2 DUP2 PUSH2 0x191D ADD MSTORE DUP2 DUP2 PUSH2 0x1B53 ADD MSTORE DUP2 DUP2 PUSH2 0x1B7C ADD MSTORE DUP2 DUP2 PUSH2 0x1BB4 ADD MSTORE DUP2 DUP2 PUSH2 0x1D31 ADD MSTORE DUP2 DUP2 PUSH2 0x1E94 ADD MSTORE DUP2 DUP2 PUSH2 0x21DD ADD MSTORE DUP2 DUP2 PUSH2 0x2381 ADD MSTORE DUP2 DUP2 PUSH2 0x2CD1 ADD MSTORE DUP2 DUP2 PUSH2 0x2D25 ADD MSTORE DUP2 DUP2 PUSH2 0x31C8 ADD MSTORE DUP2 DUP2 PUSH2 0x328F ADD MSTORE PUSH2 0x3344 ADD MSTORE PUSH2 0x5285 PUSH1 0x0 RETURN INVALID PUSH1 0x80 PUSH1 0x40 MSTORE PUSH1 0x4 CALLDATASIZE LT PUSH2 0x118 JUMPI PUSH1 0x0 CALLDATALOAD PUSH1 0xE0 SHR DUP1 PUSH4 0x8803DBEE GT PUSH2 0xA0 JUMPI DUP1 PUSH4 0xD06CA61F GT PUSH2 0x64 JUMPI DUP1 PUSH4 0xD06CA61F EQ PUSH2 0x4A8 JUMPI DUP1 PUSH4 0xDED9382A EQ PUSH2 0x4E5 JUMPI DUP1 PUSH4 0xE8E33700 EQ PUSH2 0x523 JUMPI DUP1 PUSH4 0xF305D719 EQ PUSH2 0x562 JUMPI DUP1 PUSH4 0xFB3BDB41 EQ PUSH2 0x594 JUMPI PUSH2 0x17B JUMP JUMPDEST DUP1 PUSH4 0x8803DBEE EQ PUSH2 0x39A JUMPI DUP1 PUSH4 0xAD5C4648 EQ PUSH2 0x3D7 JUMPI DUP1 PUSH4 0xAD615DEC EQ PUSH2 0x402 JUMPI DUP1 PUSH4 0xBAA2ABDE EQ PUSH2 0x43F JUMPI DUP1 PUSH4 0xC45A0155 EQ PUSH2 0x47D JUMPI PUSH2 0x17B JUMP JUMPDEST DUP1 PUSH4 0x2195995C GT PUSH2 0xE7 JUMPI DUP1 PUSH4 0x2195995C EQ PUSH2 0x275 JUMPI DUP1 PUSH4 0x38ED1739 EQ PUSH2 0x2B3 JUMPI DUP1 PUSH4 0x4A25D94A EQ PUSH2 0x2F0 JUMPI DUP1 PUSH4 0x7FF36AB5 EQ PUSH2 0x32D JUMPI DUP1 PUSH4 0x85F8C259 EQ PUSH2 0x35D JUMPI PUSH2 0x17B JUMP JUMPDEST DUP1 PUSH4 0x2751CEC EQ PUSH2 0x180 JUMPI DUP1 PUSH4 0x54D50D4 EQ PUSH2 0x1BE JUMPI DUP1 PUSH4 0x18CBAFE5 EQ PUSH2 0x1FB JUMPI DUP1 PUSH4 0x1F00CA74 EQ PUSH2 0x238 JUMPI PUSH2 0x17B JUMP JUMPDEST CALLDATASIZE PUSH2 0x17B JUMPI PUSH32 0x0 PUSH20 0xFFFFFFFFFFFFFFFFFFFFFFFFFFFFFFFFFFFFFFFF AND CALLER PUSH20 0xFFFFFFFFFFFFFFFFFFFFFFFFFFFFFFFFFFFFFFFF AND EQ PUSH2 0x179 JUMPI PUSH2 0x178 PUSH2 0x4BC6 JUMP JUMPDEST JUMPDEST STOP JUMPDEST PUSH1 0x0 DUP1 REVERT JUMPDEST CALLVALUE DUP1 ISZERO PUSH2 0x18C JUMPI PUSH1 0x0 DUP1 REVERT JUMPDEST POP PUSH2 0x1A7 PUSH1 0x4 DUP1 CALLDATASIZE SUB DUP2 ADD SWAP1 PUSH2 0x1A2 SWAP2 SWAP1 PUSH2 0x3C2E JUMP JUMPDEST PUSH2 0x5C4 JUMP JUMPDEST PUSH1 0x40 MLOAD PUSH2 0x1B5 SWAP3 SWAP2 SWAP1 PUSH2 0x47E3 JUMP JUMPDEST PUSH1 0x40 MLOAD DUP1 SWAP2 SUB SWAP1 RETURN JUMPDEST CALLVALUE DUP1 ISZERO PUSH2 0x1CA JUMPI PUSH1 0x0 DUP1 REVERT JUMPDEST POP PUSH2 0x1E5 PUSH1 0x4 DUP1 CALLDATASIZE SUB DUP2 ADD SWAP1 PUSH2 0x1E0 SWAP2 SWAP1 PUSH2 0x4005 JUMP JUMPDEST PUSH2 0x6EE JUMP JUMPDEST PUSH1 0x40 MLOAD PUSH2 0x1F2 SWAP2 SWAP1 PUSH2 0x47C8 JUMP JUMPDEST PUSH1 0x40 MLOAD DUP1 SWAP2 SUB SWAP1 RETURN JUMPDEST CALLVALUE DUP1 ISZERO PUSH2 0x207 JUMPI PUSH1 0x0 DUP1 REVERT JUMPDEST POP PUSH2 0x222 PUSH1 0x4 DUP1 CALLDATASIZE SUB DUP2 ADD SWAP1 PUSH2 0x21D SWAP2 SWAP1 PUSH2 0x3F6B JUMP JUMPDEST PUSH2 0x704 JUMP JUMPDEST PUSH1 0x40 MLOAD PUSH2 0x22F SWAP2 SWAP1 PUSH2 0x4546 JUMP JUMPDEST PUSH1 0x40 MLOAD DUP1 SWAP2 SUB SWAP1 RETURN JUMPDEST CALLVALUE DUP1 ISZERO PUSH2 0x244 JUMPI PUSH1 0x0 DUP1 REVERT JUMPDEST POP PUSH2 0x25F PUSH1 0x4 DUP1 CALLDATASIZE SUB DUP2 ADD SWAP1 PUSH2 0x25A SWAP2 SWAP1 PUSH2 0x3ECF JUMP JUMPDEST PUSH2 0xAE9 JUMP JUMPDEST PUSH1 0x40 MLOAD PUSH2 0x26C SWAP2 SWAP1 PUSH2 0x4546 JUMP JUMPDEST PUSH1 0x40 MLOAD DUP1 SWAP2 SUB SWAP1 RETURN JUMPDEST CALLVALUE DUP1 ISZERO PUSH2 0x281 JUMPI PUSH1 0x0 DUP1 REVERT JUMPDEST POP PUSH2 0x29C PUSH1 0x4 DUP1 CALLDATASIZE SUB DUP2 ADD SWAP1 PUSH2 0x297 SWAP2 SWAP1 PUSH2 0x3A84 JUMP JUMPDEST PUSH2 0xB1E JUMP JUMPDEST PUSH1 0x40 MLOAD PUSH2 0x2AA SWAP3 SWAP2 SWAP1 PUSH2 0x47E3 JUMP JUMPDEST PUSH1 0x40 MLOAD DUP1 SWAP2 SUB SWAP1 RETURN JUMPDEST CALLVALUE DUP1 ISZERO PUSH2 0x2BF JUMPI PUSH1 0x0 DUP1 REVERT JUMPDEST POP PUSH2 0x2DA PUSH1 0x4 DUP1 CALLDATASIZE SUB DUP2 ADD SWAP1 PUSH2 0x2D5 SWAP2 SWAP1 PUSH2 0x3F6B JUMP JUMPDEST PUSH2 0xC21 JUMP JUMPDEST PUSH1 0x40 MLOAD PUSH2 0x2E7 SWAP2 SWAP1 PUSH2 0x4546 JUMP JUMPDEST PUSH1 0x40 MLOAD DUP1 SWAP2 SUB SWAP1 RETURN JUMPDEST CALLVALUE DUP1 ISZERO PUSH2 0x2FC JUMPI PUSH1 0x0 DUP1 REVERT JUMPDEST POP PUSH2 0x317 PUSH1 0x4 DUP1 CALLDATASIZE SUB DUP2 ADD SWAP1 PUSH2 0x312 SWAP2 SWAP1 PUSH2 0x3F6B JUMP JUMPDEST PUSH2 0xE5F JUMP JUMPDEST PUSH1 0x40 MLOAD PUSH2 0x324 SWAP2 SWAP1 PUSH2 0x4546 JUMP JUMPDEST PUSH1 0x40 MLOAD DUP1 SWAP2 SUB SWAP1 RETURN JUMPDEST PUSH2 0x347 PUSH1 0x4 DUP1 CALLDATASIZE SUB DUP2 ADD SWAP1 PUSH2 0x342 SWAP2 SWAP1 PUSH2 0x3E47 JUMP JUMPDEST PUSH2 0x1238 JUMP JUMPDEST PUSH1 0x40 MLOAD PUSH2 0x354 SWAP2 SWAP1 PUSH2 0x4546 JUMP JUMPDEST PUSH1 0x40 MLOAD DUP1 SWAP2 SUB SWAP1 RETURN JUMPDEST CALLVALUE DUP1 ISZERO PUSH2 0x369 JUMPI PUSH1 0x0 DUP1 REVERT JUMPDEST POP PUSH2 0x384 PUSH1 0x4 DUP1 CALLDATASIZE SUB DUP2 ADD SWAP1 PUSH2 0x37F SWAP2 SWAP1 PUSH2 0x4005 JUMP JUMPDEST PUSH2 0x164D JUMP JUMPDEST PUSH1 0x40 MLOAD PUSH2 0x391 SWAP2 SWAP1 PUSH2 0x47C8 JUMP JUMPDEST PUSH1 0x40 MLOAD DUP1 SWAP2 SUB SWAP1 RETURN JUMPDEST CALLVALUE DUP1 ISZERO PUSH2 0x3A6 JUMPI PUSH1 0x0 DUP1 REVERT JUMPDEST POP PUSH2 0x3C1 PUSH1 0x4 DUP1 CALLDATASIZE SUB DUP2 ADD SWAP1 PUSH2 0x3BC SWAP2 SWAP1 PUSH2 0x3F6B JUMP JUMPDEST PUSH2 0x1663 JUMP JUMPDEST PUSH1 0x40 MLOAD PUSH2 0x3CE SWAP2 SWAP1 PUSH2 0x4546 JUMP JUMPDEST PUSH1 0x40 MLOAD DUP1 SWAP2 SUB SWAP1 RETURN JUMPDEST CALLVALUE DUP1 ISZERO PUSH2 0x3E3 JUMPI PUSH1 0x0 DUP1 REVERT JUMPDEST POP PUSH2 0x3EC PUSH2 0x1895 JUMP JUMPDEST PUSH1 0x40 MLOAD PUSH2 0x3F9 SWAP2 SWAP1 PUSH2 0x4433 JUMP JUMPDEST PUSH1 0x40 MLOAD DUP1 SWAP2 SUB SWAP1 RETURN JUMPDEST CALLVALUE DUP1 ISZERO PUSH2 0x40E JUMPI PUSH1 0x0 DUP1 REVERT JUMPDEST POP PUSH2 0x429 PUSH1 0x4 DUP1 CALLDATASIZE SUB DUP2 ADD SWAP1 PUSH2 0x424 SWAP2 SWAP1 PUSH2 0x4005 JUMP JUMPDEST PUSH2 0x18B9 JUMP JUMPDEST PUSH1 0x40 MLOAD PUSH2 0x436 SWAP2 SWAP1 PUSH2 0x47C8 JUMP JUMPDEST PUSH1 0x40 MLOAD DUP1 SWAP2 SUB SWAP1 RETURN JUMPDEST CALLVALUE DUP1 ISZERO PUSH2 0x44B JUMPI PUSH1 0x0 DUP1 REVERT JUMPDEST POP PUSH2 0x466 PUSH1 0x4 DUP1 CALLDATASIZE SUB DUP2 ADD SWAP1 PUSH2 0x461 SWAP2 SWAP1 PUSH2 0x39E2 JUMP JUMPDEST PUSH2 0x18CF JUMP JUMPDEST PUSH1 0x40 MLOAD PUSH2 0x474 SWAP3 SWAP2 SWAP1 PUSH2 0x47E3 JUMP JUMPDEST PUSH1 0x40 MLOAD DUP1 SWAP2 SUB SWAP1 RETURN JUMPDEST CALLVALUE DUP1 ISZERO PUSH2 0x489 JUMPI PUSH1 0x0 DUP1 REVERT JUMPDEST POP PUSH2 0x492 PUSH2 0x1B51 JUMP JUMPDEST PUSH1 0x40 MLOAD PUSH2 0x49F SWAP2 SWAP1 PUSH2 0x4433 JUMP JUMPDEST PUSH1 0x40 MLOAD DUP1 SWAP2 SUB SWAP1 RETURN JUMPDEST CALLVALUE DUP1 ISZERO PUSH2 0x4B4 JUMPI PUSH1 0x0 DUP1 REVERT JUMPDEST POP PUSH2 0x4CF PUSH1 0x4 DUP1 CALLDATASIZE SUB DUP2 ADD SWAP1 PUSH2 0x4CA SWAP2 SWAP1 PUSH2 0x3ECF JUMP JUMPDEST PUSH2 0x1B75 JUMP JUMPDEST PUSH1 0x40 MLOAD PUSH2 0x4DC SWAP2 SWAP1 PUSH2 0x4546 JUMP JUMPDEST PUSH1 0x40 MLOAD DUP1 SWAP2 SUB SWAP1 RETURN JUMPDEST CALLVALUE DUP1 ISZERO PUSH2 0x4F1 JUMPI PUSH1 0x0 DUP1 REVERT JUMPDEST POP PUSH2 0x50C PUSH1 0x4 DUP1 CALLDATASIZE SUB DUP2 ADD SWAP1 PUSH2 0x507 SWAP2 SWAP1 PUSH2 0x3CBB JUMP JUMPDEST PUSH2 0x1BAA JUMP JUMPDEST PUSH1 0x40 MLOAD PUSH2 0x51A SWAP3 SWAP2 SWAP1 PUSH2 0x47E3 JUMP JUMPDEST PUSH1 0x40 MLOAD DUP1 SWAP2 SUB SWAP1 RETURN JUMPDEST CALLVALUE DUP1 ISZERO PUSH2 0x52F JUMPI PUSH1 0x0 DUP1 REVERT JUMPDEST POP PUSH2 0x54A PUSH1 0x4 DUP1 CALLDATASIZE SUB DUP2 ADD SWAP1 PUSH2 0x545 SWAP2 SWAP1 PUSH2 0x3B78 JUMP JUMPDEST PUSH2 0x1CCB JUMP JUMPDEST PUSH1 0x40 MLOAD PUSH2 0x559 SWAP4 SWAP3 SWAP2 SWAP1 PUSH2 0x4858 JUMP JUMPDEST PUSH1 0x40 MLOAD DUP1 SWAP2 SUB SWAP1 RETURN JUMPDEST PUSH2 0x57C PUSH1 0x4 DUP1 CALLDATASIZE SUB DUP2 ADD SWAP1 PUSH2 0x577 SWAP2 SWAP1 PUSH2 0x3C2E JUMP JUMPDEST PUSH2 0x1E0E JUMP JUMPDEST PUSH1 0x40 MLOAD PUSH2 0x58B SWAP4 SWAP3 SWAP2 SWAP1 PUSH2 0x4858 JUMP JUMPDEST PUSH1 0x40 MLOAD DUP1 SWAP2 SUB SWAP1 RETURN JUMPDEST PUSH2 0x5AE PUSH1 0x4 DUP1 CALLDATASIZE SUB DUP2 ADD SWAP1 PUSH2 0x5A9 SWAP2 SWAP1 PUSH2 0x3E47 JUMP JUMPDEST PUSH2 0x20DC JUMP JUMPDEST PUSH1 0x40 MLOAD PUSH2 0x5BB SWAP2 SWAP1 PUSH2 0x4546 JUMP JUMPDEST PUSH1 0x40 MLOAD DUP1 SWAP2 SUB SWAP1 RETURN JUMPDEST PUSH1 0x0 DUP1 DUP3 TIMESTAMP DUP2 LT ISZERO PUSH2 0x60B JUMPI PUSH1 0x40 MLOAD PUSH32 0x8C379A000000000000000000000000000000000000000000000000000000000 DUP2 MSTORE PUSH1 0x4 ADD PUSH2 0x602 SWAP1 PUSH2 0x4588 JUMP JUMPDEST PUSH1 0x40 MLOAD DUP1 SWAP2 SUB SWAP1 REVERT JUMPDEST PUSH2 0x63A DUP10 PUSH32 0x0 DUP11 DUP11 DUP11 ADDRESS DUP11 PUSH2 0x18CF JUMP JUMPDEST DUP1 SWAP4 POP DUP2 SWAP5 POP POP POP PUSH2 0x64D DUP10 DUP7 DUP6 PUSH2 0x2539 JUMP JUMPDEST PUSH32 0x0 PUSH20 0xFFFFFFFFFFFFFFFFFFFFFFFFFFFFFFFFFFFFFFFF AND PUSH4 0x2E1A7D4D DUP4 PUSH1 0x40 MLOAD DUP3 PUSH4 0xFFFFFFFF AND PUSH1 0xE0 SHL DUP2 MSTORE PUSH1 0x4 ADD PUSH2 0x6A6 SWAP2 SWAP1 PUSH2 0x47C8 JUMP JUMPDEST PUSH1 0x0 PUSH1 0x40 MLOAD DUP1 DUP4 SUB DUP2 PUSH1 0x0 DUP8 DUP1 EXTCODESIZE ISZERO DUP1 ISZERO PUSH2 0x6C0 JUMPI PUSH1 0x0 DUP1 REVERT JUMPDEST POP GAS CALL ISZERO DUP1 ISZERO PUSH2 0x6D4 JUMPI RETURNDATASIZE PUSH1 0x0 DUP1 RETURNDATACOPY RETURNDATASIZE PUSH1 0x0 REVERT JUMPDEST POP POP POP POP PUSH2 0x6E2 DUP6 DUP4 PUSH2 0x266F JUMP JUMPDEST POP SWAP7 POP SWAP7 SWAP5 POP POP POP POP POP JUMP JUMPDEST PUSH1 0x0 PUSH2 0x6FB DUP5 DUP5 DUP5 PUSH2 0x276F JUMP JUMPDEST SWAP1 POP SWAP4 SWAP3 POP POP POP JUMP JUMPDEST PUSH1 0x60 DUP2 TIMESTAMP DUP2 LT ISZERO PUSH2 0x74A JUMPI PUSH1 0x40 MLOAD PUSH32 0x8C379A000000000000000000000000000000000000000000000000000000000 DUP2 MSTORE PUSH1 0x4 ADD PUSH2 0x741 SWAP1 PUSH2 0x4588 JUMP JUMPDEST PUSH1 0x40 MLOAD DUP1 SWAP2 SUB SWAP1 REVERT JUMPDEST PUSH32 0x0 PUSH20 0xFFFFFFFFFFFFFFFFFFFFFFFFFFFFFFFFFFFFFFFF AND DUP7 DUP7 PUSH1 0x1 DUP10 DUP10 SWAP1 POP PUSH2 0x793 SWAP2 SWAP1 PUSH2 0x4A32 JUMP JUMPDEST DUP2 DUP2 LT PUSH2 0x7A3 JUMPI PUSH2 0x7A2 PUSH2 0x4C53 JUMP JUMPDEST JUMPDEST SWAP1 POP PUSH1 0x20 MUL ADD PUSH1 0x20 DUP2 ADD SWAP1 PUSH2 0x7B8 SWAP2 SWAP1 PUSH2 0x3988 JUMP JUMPDEST PUSH20 0xFFFFFFFFFFFFFFFFFFFFFFFFFFFFFFFFFFFFFFFF AND EQ PUSH2 0x80E JUMPI PUSH1 0x40 MLOAD PUSH32 0x8C379A000000000000000000000000000000000000000000000000000000000 DUP2 MSTORE PUSH1 0x4 ADD PUSH2 0x805 SWAP1 PUSH2 0x4688 JUMP JUMPDEST PUSH1 0x40 MLOAD DUP1 SWAP2 SUB SWAP1 REVERT JUMPDEST PUSH2 0x87A PUSH32 0x0 DUP10 DUP9 DUP9 DUP1 DUP1 PUSH1 0x20 MUL PUSH1 0x20 ADD PUSH1 0x40 MLOAD SWAP1 DUP2 ADD PUSH1 0x40 MSTORE DUP1 SWAP4 SWAP3 SWAP2 SWAP1 DUP2 DUP2 MSTORE PUSH1 0x20 ADD DUP4 DUP4 PUSH1 0x20 MUL DUP1 DUP3 DUP5 CALLDATACOPY PUSH1 0x0 DUP2 DUP5 ADD MSTORE PUSH1 0x1F NOT PUSH1 0x1F DUP3 ADD AND SWAP1 POP DUP1 DUP4 ADD SWAP3 POP POP POP POP POP POP POP PUSH2 0x2875 JUMP JUMPDEST SWAP2 POP DUP7 DUP3 PUSH1 0x1 DUP5 MLOAD PUSH2 0x88C SWAP2 SWAP1 PUSH2 0x4A32 JUMP JUMPDEST DUP2 MLOAD DUP2 LT PUSH2 0x89D JUMPI PUSH2 0x89C PUSH2 0x4C53 JUMP JUMPDEST JUMPDEST PUSH1 0x20 MUL PUSH1 0x20 ADD ADD MLOAD LT ISZERO PUSH2 0x8E6 JUMPI PUSH1 0x40 MLOAD PUSH32 0x8C379A000000000000000000000000000000000000000000000000000000000 DUP2 MSTORE PUSH1 0x4 ADD PUSH2 0x8DD SWAP1 PUSH2 0x4748 JUMP JUMPDEST PUSH1 0x40 MLOAD DUP1 SWAP2 SUB SWAP1 REVERT JUMPDEST PUSH2 0x9AF DUP7 DUP7 PUSH1 0x0 DUP2 DUP2 LT PUSH2 0x8FD JUMPI PUSH2 0x8FC PUSH2 0x4C53 JUMP JUMPDEST JUMPDEST SWAP1 POP PUSH1 0x20 MUL ADD PUSH1 0x20 DUP2 ADD SWAP1 PUSH2 0x912 SWAP2 SWAP1 PUSH2 0x3988 JUMP JUMPDEST CALLER PUSH2 0x98E PUSH32 0x0 DUP11 DUP11 PUSH1 0x0 DUP2 DUP2 LT PUSH2 0x94B JUMPI PUSH2 0x94A PUSH2 0x4C53 JUMP JUMPDEST JUMPDEST SWAP1 POP PUSH1 0x20 MUL ADD PUSH1 0x20 DUP2 ADD SWAP1 PUSH2 0x960 SWAP2 SWAP1 PUSH2 0x3988 JUMP JUMPDEST DUP12 DUP12 PUSH1 0x1 DUP2 DUP2 LT PUSH2 0x974 JUMPI PUSH2 0x973 PUSH2 0x4C53 JUMP JUMPDEST JUMPDEST SWAP1 POP PUSH1 0x20 MUL ADD PUSH1 0x20 DUP2 ADD SWAP1 PUSH2 0x989 SWAP2 SWAP1 PUSH2 0x3988 JUMP JUMPDEST PUSH2 0x2A00 JUMP JUMPDEST DUP6 PUSH1 0x0 DUP2 MLOAD DUP2 LT PUSH2 0x9A2 JUMPI PUSH2 0x9A1 PUSH2 0x4C53 JUMP JUMPDEST JUMPDEST PUSH1 0x20 MUL PUSH1 0x20 ADD ADD MLOAD PUSH2 0x2A96 JUMP JUMPDEST PUSH2 0x9FB DUP3 DUP8 DUP8 DUP1 DUP1 PUSH1 0x20 MUL PUSH1 0x20 ADD PUSH1 0x40 MLOAD SWAP1 DUP2 ADD PUSH1 0x40 MSTORE DUP1 SWAP4 SWAP3 SWAP2 SWAP1 DUP2 DUP2 MSTORE PUSH1 0x20 ADD DUP4 DUP4 PUSH1 0x20 MUL DUP1 DUP3 DUP5 CALLDATACOPY PUSH1 0x0 DUP2 DUP5 ADD MSTORE PUSH1 0x1F NOT PUSH1 0x1F DUP3 ADD AND SWAP1 POP DUP1 DUP4 ADD SWAP3 POP POP POP POP POP POP POP ADDRESS PUSH2 0x2BCF JUMP JUMPDEST PUSH32 0x0 PUSH20 0xFFFFFFFFFFFFFFFFFFFFFFFFFFFFFFFFFFFFFFFF AND PUSH4 0x2E1A7D4D DUP4 PUSH1 0x1 DUP6 MLOAD PUSH2 0xA46 SWAP2 SWAP1 PUSH2 0x4A32 JUMP JUMPDEST DUP2 MLOAD DUP2 LT PUSH2 0xA57 JUMPI PUSH2 0xA56 PUSH2 0x4C53 JUMP JUMPDEST JUMPDEST PUSH1 0x20 MUL PUSH1 0x20 ADD ADD MLOAD PUSH1 0x40 MLOAD DUP3 PUSH4 0xFFFFFFFF AND PUSH1 0xE0 SHL DUP2 MSTORE PUSH1 0x4 ADD PUSH2 0xA7B SWAP2 SWAP1 PUSH2 0x47C8 JUMP JUMPDEST PUSH1 0x0 PUSH1 0x40 MLOAD DUP1 DUP4 SUB DUP2 PUSH1 0x0 DUP8 DUP1 EXTCODESIZE ISZERO DUP1 ISZERO PUSH2 0xA95 JUMPI PUSH1 0x0 DUP1 REVERT JUMPDEST POP GAS CALL ISZERO DUP1 ISZERO PUSH2 0xAA9 JUMPI RETURNDATASIZE PUSH1 0x0 DUP1 RETURNDATACOPY RETURNDATASIZE PUSH1 0x0 REVERT JUMPDEST POP POP POP POP PUSH2 0xADE DUP5 DUP4 PUSH1 0x1 DUP6 MLOAD PUSH2 0xAC0 SWAP2 SWAP1 PUSH2 0x4A32 JUMP JUMPDEST DUP2 MLOAD DUP2 LT PUSH2 0xAD1 JUMPI PUSH2 0xAD0 PUSH2 0x4C53 JUMP JUMPDEST JUMPDEST PUSH1 0x20 MUL PUSH1 0x20 ADD ADD MLOAD PUSH2 0x266F JUMP JUMPDEST POP SWAP7 SWAP6 POP POP POP POP POP POP JUMP JUMPDEST PUSH1 0x60 PUSH2 0xB16 PUSH32 0x0 DUP5 DUP5 PUSH2 0x2E28 JUMP JUMPDEST SWAP1 POP SWAP3 SWAP2 POP POP JUMP JUMPDEST PUSH1 0x0 DUP1 PUSH1 0x0 PUSH2 0xB4E PUSH32 0x0 DUP16 DUP16 PUSH2 0x2A00 JUMP JUMPDEST SWAP1 POP PUSH1 0x0 DUP8 PUSH2 0xB5D JUMPI DUP13 PUSH2 0xB7F JUMP JUMPDEST PUSH32 0xFFFFFFFFFFFFFFFFFFFFFFFFFFFFFFFFFFFFFFFFFFFFFFFFFFFFFFFFFFFFFFFF JUMPDEST SWAP1 POP DUP2 PUSH20 0xFFFFFFFFFFFFFFFFFFFFFFFFFFFFFFFFFFFFFFFF AND PUSH4 0xD505ACCF CALLER ADDRESS DUP5 DUP14 DUP13 DUP13 DUP13 PUSH1 0x40 MLOAD DUP9 PUSH4 0xFFFFFFFF AND PUSH1 0xE0 SHL DUP2 MSTORE PUSH1 0x4 ADD PUSH2 0xBC6 SWAP8 SWAP7 SWAP6 SWAP5 SWAP4 SWAP3 SWAP2 SWAP1 PUSH2 0x44AE JUMP JUMPDEST PUSH1 0x0 PUSH1 0x40 MLOAD DUP1 DUP4 SUB DUP2 PUSH1 0x0 DUP8 DUP1 EXTCODESIZE ISZERO DUP1 ISZERO PUSH2 0xBE0 JUMPI PUSH1 0x0 DUP1 REVERT JUMPDEST POP GAS CALL ISZERO DUP1 ISZERO PUSH2 0xBF4 JUMPI RETURNDATASIZE PUSH1 0x0 DUP1 RETURNDATACOPY RETURNDATASIZE PUSH1 0x0 REVERT JUMPDEST POP POP POP POP PUSH2 0xC07 DUP16 DUP16 DUP16 DUP16 DUP16 DUP16 DUP16 PUSH2 0x18CF JUMP JUMPDEST DUP1 SWAP5 POP DUP2 SWAP6 POP POP POP POP POP SWAP12 POP SWAP12 SWAP10 POP POP POP POP POP POP POP POP POP POP JUMP JUMPDEST PUSH1 0x60 DUP2 TIMESTAMP DUP2 LT ISZERO PUSH2 0xC67 JUMPI PUSH1 0x40 MLOAD PUSH32 0x8C379A000000000000000000000000000000000000000000000000000000000 DUP2 MSTORE PUSH1 0x4 ADD PUSH2 0xC5E SWAP1 PUSH2 0x4588 JUMP JUMPDEST PUSH1 0x40 MLOAD DUP1 SWAP2 SUB SWAP1 REVERT JUMPDEST PUSH2 0xCD3 PUSH32 0x0 DUP10 DUP9 DUP9 DUP1 DUP1 PUSH1 0x20 MUL PUSH1 0x20 ADD PUSH1 0x40 MLOAD SWAP1 DUP2 ADD PUSH1 0x40 MSTORE DUP1 SWAP4 SWAP3 SWAP2 SWAP1 DUP2 DUP2 MSTORE PUSH1 0x20 ADD DUP4 DUP4 PUSH1 0x20 MUL DUP1 DUP3 DUP5 CALLDATACOPY PUSH1 0x0 DUP2 DUP5 ADD MSTORE PUSH1 0x1F NOT PUSH1 0x1F DUP3 ADD AND SWAP1 POP DUP1 DUP4 ADD SWAP3 POP POP POP POP POP POP POP PUSH2 0x2875 JUMP JUMPDEST SWAP2 POP DUP7 DUP3 PUSH1 0x1 DUP5 MLOAD PUSH2 0xCE5 SWAP2 SWAP1 PUSH2 0x4A32 JUMP JUMPDEST DUP2 MLOAD DUP2 LT PUSH2 0xCF6 JUMPI PUSH2 0xCF5 PUSH2 0x4C53 JUMP JUMPDEST JUMPDEST PUSH1 0x20 MUL PUSH1 0x20 ADD ADD MLOAD LT ISZERO PUSH2 0xD3F JUMPI PUSH1 0x40 MLOAD PUSH32 0x8C379A000000000000000000000000000000000000000000000000000000000 DUP2 MSTORE PUSH1 0x4 ADD PUSH2 0xD36 SWAP1 PUSH2 0x4748 JUMP JUMPDEST PUSH1 0x40 MLOAD DUP1 SWAP2 SUB SWAP1 REVERT JUMPDEST PUSH2 0xE08 DUP7 DUP7 PUSH1 0x0 DUP2 DUP2 LT PUSH2 0xD56 JUMPI PUSH2 0xD55 PUSH2 0x4C53 JUMP JUMPDEST JUMPDEST SWAP1 POP PUSH1 0x20 MUL ADD PUSH1 0x20 DUP2 ADD SWAP1 PUSH2 0xD6B SWAP2 SWAP1 PUSH2 0x3988 JUMP JUMPDEST CALLER PUSH2 0xDE7 PUSH32 0x0 DUP11 DUP11 PUSH1 0x0 DUP2 DUP2 LT PUSH2 0xDA4 JUMPI PUSH2 0xDA3 PUSH2 0x4C53 JUMP JUMPDEST JUMPDEST SWAP1 POP PUSH1 0x20 MUL ADD PUSH1 0x20 DUP2 ADD SWAP1 PUSH2 0xDB9 SWAP2 SWAP1 PUSH2 0x3988 JUMP JUMPDEST DUP12 DUP12 PUSH1 0x1 DUP2 DUP2 LT PUSH2 0xDCD JUMPI PUSH2 0xDCC PUSH2 0x4C53 JUMP JUMPDEST JUMPDEST SWAP1 POP PUSH1 0x20 MUL ADD PUSH1 0x20 DUP2 ADD SWAP1 PUSH2 0xDE2 SWAP2 SWAP1 PUSH2 0x3988 JUMP JUMPDEST PUSH2 0x2A00 JUMP JUMPDEST DUP6 PUSH1 0x0 DUP2 MLOAD DUP2 LT PUSH2 0xDFB JUMPI PUSH2 0xDFA PUSH2 0x4C53 JUMP JUMPDEST JUMPDEST PUSH1 0x20 MUL PUSH1 0x20 ADD ADD MLOAD PUSH2 0x2A96 JUMP JUMPDEST PUSH2 0xE54 DUP3 DUP8 DUP8 DUP1 DUP1 PUSH1 0x20 MUL PUSH1 0x20 ADD PUSH1 0x40 MLOAD SWAP1 DUP2 ADD PUSH1 0x40 MSTORE DUP1 SWAP4 SWAP3 SWAP2 SWAP1 DUP2 DUP2 MSTORE PUSH1 0x20 ADD DUP4 DUP4 PUSH1 0x20 MUL DUP1 DUP3 DUP5 CALLDATACOPY PUSH1 0x0 DUP2 DUP5 ADD MSTORE PUSH1 0x1F NOT PUSH1 0x1F DUP3 ADD AND SWAP1 POP DUP1 DUP4 ADD SWAP3 POP POP POP POP POP POP POP DUP7 PUSH2 0x2BCF JUMP JUMPDEST POP SWAP7 SWAP6 POP POP POP POP POP POP JUMP JUMPDEST PUSH1 0x60 DUP2 TIMESTAMP DUP2 LT ISZERO PUSH2 0xEA5 JUMPI PUSH1 0x40 MLOAD PUSH32 0x8C379A000000000000000000000000000000000000000000000000000000000 DUP2 MSTORE PUSH1 0x4 ADD PUSH2 0xE9C SWAP1 PUSH2 0x4588 JUMP JUMPDEST PUSH1 0x40 MLOAD DUP1 SWAP2 SUB SWAP1 REVERT JUMPDEST PUSH32 0x0 PUSH20 0xFFFFFFFFFFFFFFFFFFFFFFFFFFFFFFFFFFFFFFFF AND DUP7 DUP7 PUSH1 0x1 DUP10 DUP10 SWAP1 POP PUSH2 0xEEE SWAP2 SWAP1 PUSH2 0x4A32 JUMP JUMPDEST DUP2 DUP2 LT PUSH2 0xEFE JUMPI PUSH2 0xEFD PUSH2 0x4C53 JUMP JUMPDEST JUMPDEST SWAP1 POP PUSH1 0x20 MUL ADD PUSH1 0x20 DUP2 ADD SWAP1 PUSH2 0xF13 SWAP2 SWAP1 PUSH2 0x3988 JUMP JUMPDEST PUSH20 0xFFFFFFFFFFFFFFFFFFFFFFFFFFFFFFFFFFFFFFFF AND EQ PUSH2 0xF69 JUMPI PUSH1 0x40 MLOAD PUSH32 0x8C379A000000000000000000000000000000000000000000000000000000000 DUP2 MSTORE PUSH1 0x4 ADD PUSH2 0xF60 SWAP1 PUSH2 0x4688 JUMP JUMPDEST PUSH1 0x40 MLOAD DUP1 SWAP2 SUB SWAP1 REVERT JUMPDEST PUSH2 0xFD5 PUSH32 0x0 DUP10 DUP9 DUP9 DUP1 DUP1 PUSH1 0x20 MUL PUSH1 0x20 ADD PUSH1 0x40 MLOAD SWAP1 DUP2 ADD PUSH1 0x40 MSTORE DUP1 SWAP4 SWAP3 SWAP2 SWAP1 DUP2 DUP2 MSTORE PUSH1 0x20 ADD DUP4 DUP4 PUSH1 0x20 MUL DUP1 DUP3 DUP5 CALLDATACOPY PUSH1 0x0 DUP2 DUP5 ADD MSTORE PUSH1 0x1F NOT PUSH1 0x1F DUP3 ADD AND SWAP1 POP DUP1 DUP4 ADD SWAP3 POP POP POP POP POP POP POP PUSH2 0x2E28 JUMP JUMPDEST SWAP2 POP DUP7 DUP3 PUSH1 0x0 DUP2 MLOAD DUP2 LT PUSH2 0xFEC JUMPI PUSH2 0xFEB PUSH2 0x4C53 JUMP JUMPDEST JUMPDEST PUSH1 0x20 MUL PUSH1 0x20 ADD ADD MLOAD GT ISZERO PUSH2 0x1035 JUMPI PUSH1 0x40 MLOAD PUSH32 0x8C379A000000000000000000000000000000000000000000000000000000000 DUP2 MSTORE PUSH1 0x4 ADD PUSH2 0x102C SWAP1 PUSH2 0x4708 JUMP JUMPDEST PUSH1 0x40 MLOAD DUP1 SWAP2 SUB SWAP1 REVERT JUMPDEST PUSH2 0x10FE DUP7 DUP7 PUSH1 0x0 DUP2 DUP2 LT PUSH2 0x104C JUMPI PUSH2 0x104B PUSH2 0x4C53 JUMP JUMPDEST JUMPDEST SWAP1 POP PUSH1 0x20 MUL ADD PUSH1 0x20 DUP2 ADD SWAP1 PUSH2 0x1061 SWAP2 SWAP1 PUSH2 0x3988 JUMP JUMPDEST CALLER PUSH2 0x10DD PUSH32 0x0 DUP11 DUP11 PUSH1 0x0 DUP2 DUP2 LT PUSH2 0x109A JUMPI PUSH2 0x1099 PUSH2 0x4C53 JUMP JUMPDEST JUMPDEST SWAP1 POP PUSH1 0x20 MUL ADD PUSH1 0x20 DUP2 ADD SWAP1 PUSH2 0x10AF SWAP2 SWAP1 PUSH2 0x3988 JUMP JUMPDEST DUP12 DUP12 PUSH1 0x1 DUP2 DUP2 LT PUSH2 0x10C3 JUMPI PUSH2 0x10C2 PUSH2 0x4C53 JUMP JUMPDEST JUMPDEST SWAP1 POP PUSH1 0x20 MUL ADD PUSH1 0x20 DUP2 ADD SWAP1 PUSH2 0x10D8 SWAP2 SWAP1 PUSH2 0x3988 JUMP JUMPDEST PUSH2 0x2A00 JUMP JUMPDEST DUP6 PUSH1 0x0 DUP2 MLOAD DUP2 LT PUSH2 0x10F1 JUMPI PUSH2 0x10F0 PUSH2 0x4C53 JUMP JUMPDEST JUMPDEST PUSH1 0x20 MUL PUSH1 0x20 ADD ADD MLOAD PUSH2 0x2A96 JUMP JUMPDEST PUSH2 0x114A DUP3 DUP8 DUP8 DUP1 DUP1 PUSH1 0x20 MUL PUSH1 0x20 ADD PUSH1 0x40 MLOAD SWAP1 DUP2 ADD PUSH1 0x40 MSTORE DUP1 SWAP4 SWAP3 SWAP2 SWAP1 DUP2 DUP2 MSTORE PUSH1 0x20 ADD DUP4 DUP4 PUSH1 0x20 MUL DUP1 DUP3 DUP5 CALLDATACOPY PUSH1 0x0 DUP2 DUP5 ADD MSTORE PUSH1 0x1F NOT PUSH1 0x1F DUP3 ADD AND SWAP1 POP DUP1 DUP4 ADD SWAP3 POP POP POP POP POP POP POP ADDRESS PUSH2 0x2BCF JUMP JUMPDEST PUSH32 0x0 PUSH20 0xFFFFFFFFFFFFFFFFFFFFFFFFFFFFFFFFFFFFFFFF AND PUSH4 0x2E1A7D4D DUP4 PUSH1 0x1 DUP6 MLOAD PUSH2 0x1195 SWAP2 SWAP1 PUSH2 0x4A32 JUMP JUMPDEST DUP2 MLOAD DUP2 LT PUSH2 0x11A6 JUMPI PUSH2 0x11A5 PUSH2 0x4C53 JUMP JUMPDEST JUMPDEST PUSH1 0x20 MUL PUSH1 0x20 ADD ADD MLOAD PUSH1 0x40 MLOAD DUP3 PUSH4 0xFFFFFFFF AND PUSH1 0xE0 SHL DUP2 MSTORE PUSH1 0x4 ADD PUSH2 0x11CA SWAP2 SWAP1 PUSH2 0x47C8 JUMP JUMPDEST PUSH1 0x0 PUSH1 0x40 MLOAD DUP1 DUP4 SUB DUP2 PUSH1 0x0 DUP8 DUP1 EXTCODESIZE ISZERO DUP1 ISZERO PUSH2 0x11E4 JUMPI PUSH1 0x0 DUP1 REVERT JUMPDEST POP GAS CALL ISZERO DUP1 ISZERO PUSH2 0x11F8 JUMPI RETURNDATASIZE PUSH1 0x0 DUP1 RETURNDATACOPY RETURNDATASIZE PUSH1 0x0 REVERT JUMPDEST POP POP POP POP PUSH2 0x122D DUP5 DUP4 PUSH1 0x1 DUP6 MLOAD PUSH2 0x120F SWAP2 SWAP1 PUSH2 0x4A32 JUMP JUMPDEST DUP2 MLOAD DUP2 LT PUSH2 0x1220 JUMPI PUSH2 0x121F PUSH2 0x4C53 JUMP JUMPDEST JUMPDEST PUSH1 0x20 MUL PUSH1 0x20 ADD ADD MLOAD PUSH2 0x266F JUMP JUMPDEST POP SWAP7 SWAP6 POP POP POP POP POP POP JUMP JUMPDEST PUSH1 0x60 DUP2 TIMESTAMP DUP2 LT ISZERO PUSH2 0x127E JUMPI PUSH1 0x40 MLOAD PUSH32 0x8C379A000000000000000000000000000000000000000000000000000000000 DUP2 MSTORE PUSH1 0x4 ADD PUSH2 0x1275 SWAP1 PUSH2 0x4588 JUMP JUMPDEST PUSH1 0x40 MLOAD DUP1 SWAP2 SUB SWAP1 REVERT JUMPDEST PUSH32 0x0 PUSH20 0xFFFFFFFFFFFFFFFFFFFFFFFFFFFFFFFFFFFFFFFF AND DUP7 DUP7 PUSH1 0x0 DUP2 DUP2 LT PUSH2 0x12C9 JUMPI PUSH2 0x12C8 PUSH2 0x4C53 JUMP JUMPDEST JUMPDEST SWAP1 POP PUSH1 0x20 MUL ADD PUSH1 0x20 DUP2 ADD SWAP1 PUSH2 0x12DE SWAP2 SWAP1 PUSH2 0x3988 JUMP JUMPDEST PUSH20 0xFFFFFFFFFFFFFFFFFFFFFFFFFFFFFFFFFFFFFFFF AND EQ PUSH2 0x1334 JUMPI PUSH1 0x40 MLOAD PUSH32 0x8C379A000000000000000000000000000000000000000000000000000000000 DUP2 MSTORE PUSH1 0x4 ADD PUSH2 0x132B SWAP1 PUSH2 0x4688 JUMP JUMPDEST PUSH1 0x40 MLOAD DUP1 SWAP2 SUB SWAP1 REVERT JUMPDEST PUSH2 0x13A0 PUSH32 0x0 CALLVALUE DUP9 DUP9 DUP1 DUP1 PUSH1 0x20 MUL PUSH1 0x20 ADD PUSH1 0x40 MLOAD SWAP1 DUP2 ADD PUSH1 0x40 MSTORE DUP1 SWAP4 SWAP3 SWAP2 SWAP1 DUP2 DUP2 MSTORE PUSH1 0x20 ADD DUP4 DUP4 PUSH1 0x20 MUL DUP1 DUP3 DUP5 CALLDATACOPY PUSH1 0x0 DUP2 DUP5 ADD MSTORE PUSH1 0x1F NOT PUSH1 0x1F DUP3 ADD AND SWAP1 POP DUP1 DUP4 ADD SWAP3 POP POP POP POP POP POP POP PUSH2 0x2875 JUMP JUMPDEST SWAP2 POP DUP7 DUP3 PUSH1 0x1 DUP5 MLOAD PUSH2 0x13B2 SWAP2 SWAP1 PUSH2 0x4A32 JUMP JUMPDEST DUP2 MLOAD DUP2 LT PUSH2 0x13C3 JUMPI PUSH2 0x13C2 PUSH2 0x4C53 JUMP JUMPDEST JUMPDEST PUSH1 0x20 MUL PUSH1 0x20 ADD ADD MLOAD LT ISZERO PUSH2 0x140C JUMPI PUSH1 0x40 MLOAD PUSH32 0x8C379A000000000000000000000000000000000000000000000000000000000 DUP2 MSTORE PUSH1 0x4 ADD PUSH2 0x1403 SWAP1 PUSH2 0x4748 JUMP JUMPDEST PUSH1 0x40 MLOAD DUP1 SWAP2 SUB SWAP1 REVERT JUMPDEST PUSH32 0x0 PUSH20 0xFFFFFFFFFFFFFFFFFFFFFFFFFFFFFFFFFFFFFFFF AND PUSH4 0xD0E30DB0 DUP4 PUSH1 0x0 DUP2 MLOAD DUP2 LT PUSH2 0x145C JUMPI PUSH2 0x145B PUSH2 0x4C53 JUMP JUMPDEST JUMPDEST PUSH1 0x20 MUL PUSH1 0x20 ADD ADD MLOAD PUSH1 0x40 MLOAD DUP3 PUSH4 0xFFFFFFFF AND PUSH1 0xE0 SHL DUP2 MSTORE PUSH1 0x4 ADD PUSH1 0x0 PUSH1 0x40 MLOAD DUP1 DUP4 SUB DUP2 DUP6 DUP9 DUP1 EXTCODESIZE ISZERO DUP1 ISZERO PUSH2 0x148F JUMPI PUSH1 0x0 DUP1 REVERT JUMPDEST POP GAS CALL ISZERO DUP1 ISZERO PUSH2 0x14A3 JUMPI RETURNDATASIZE PUSH1 0x0 DUP1 RETURNDATACOPY RETURNDATASIZE PUSH1 0x0 REVERT JUMPDEST POP POP POP POP POP PUSH32 0x0 PUSH20 0xFFFFFFFFFFFFFFFFFFFFFFFFFFFFFFFFFFFFFFFF AND PUSH4 0xA9059CBB PUSH2 0x155F PUSH32 0x0 DUP10 DUP10 PUSH1 0x0 DUP2 DUP2 LT PUSH2 0x151C JUMPI PUSH2 0x151B PUSH2 0x4C53 JUMP JUMPDEST JUMPDEST SWAP1 POP PUSH1 0x20 MUL ADD PUSH1 0x20 DUP2 ADD SWAP1 PUSH2 0x1531 SWAP2 SWAP1 PUSH2 0x3988 JUMP JUMPDEST DUP11 DUP11 PUSH1 0x1 DUP2 DUP2 LT PUSH2 0x1545 JUMPI PUSH2 0x1544 PUSH2 0x4C53 JUMP JUMPDEST JUMPDEST SWAP1 POP PUSH1 0x20 MUL ADD PUSH1 0x20 DUP2 ADD SWAP1 PUSH2 0x155A SWAP2 SWAP1 PUSH2 0x3988 JUMP JUMPDEST PUSH2 0x2A00 JUMP JUMPDEST DUP5 PUSH1 0x0 DUP2 MLOAD DUP2 LT PUSH2 0x1573 JUMPI PUSH2 0x1572 PUSH2 0x4C53 JUMP JUMPDEST JUMPDEST PUSH1 0x20 MUL PUSH1 0x20 ADD ADD MLOAD PUSH1 0x40 MLOAD DUP4 PUSH4 0xFFFFFFFF AND PUSH1 0xE0 SHL DUP2 MSTORE PUSH1 0x4 ADD PUSH2 0x1598 SWAP3 SWAP2 SWAP1 PUSH2 0x451D JUMP JUMPDEST PUSH1 0x20 PUSH1 0x40 MLOAD DUP1 DUP4 SUB DUP2 PUSH1 0x0 DUP8 DUP1 EXTCODESIZE ISZERO DUP1 ISZERO PUSH2 0x15B2 JUMPI PUSH1 0x0 DUP1 REVERT JUMPDEST POP GAS CALL ISZERO DUP1 ISZERO PUSH2 0x15C6 JUMPI RETURNDATASIZE PUSH1 0x0 DUP1 RETURNDATACOPY RETURNDATASIZE PUSH1 0x0 REVERT JUMPDEST POP POP POP POP PUSH1 0x40 MLOAD RETURNDATASIZE PUSH1 0x1F NOT PUSH1 0x1F DUP3 ADD AND DUP3 ADD DUP1 PUSH1 0x40 MSTORE POP DUP2 ADD SWAP1 PUSH2 0x15EA SWAP2 SWAP1 PUSH2 0x3D9A JUMP JUMPDEST PUSH2 0x15F7 JUMPI PUSH2 0x15F6 PUSH2 0x4BC6 JUMP JUMPDEST JUMPDEST PUSH2 0x1643 DUP3 DUP8 DUP8 DUP1 DUP1 PUSH1 0x20 MUL PUSH1 0x20 ADD PUSH1 0x40 MLOAD SWAP1 DUP2 ADD PUSH1 0x40 MSTORE DUP1 SWAP4 SWAP3 SWAP2 SWAP1 DUP2 DUP2 MSTORE PUSH1 0x20 ADD DUP4 DUP4 PUSH1 0x20 MUL DUP1 DUP3 DUP5 CALLDATACOPY PUSH1 0x0 DUP2 DUP5 ADD MSTORE PUSH1 0x1F NOT PUSH1 0x1F DUP3 ADD AND SWAP1 POP DUP1 DUP4 ADD SWAP3 POP POP POP POP POP POP POP DUP7 PUSH2 0x2BCF JUMP JUMPDEST POP SWAP6 SWAP5 POP POP POP POP POP JUMP JUMPDEST PUSH1 0x0 PUSH2 0x165A DUP5 DUP5 DUP5 PUSH2 0x276F JUMP JUMPDEST SWAP1 POP SWAP4 SWAP3 POP POP POP JUMP JUMPDEST PUSH1 0x60 DUP2 TIMESTAMP DUP2 LT ISZERO PUSH2 0x16A9 JUMPI PUSH1 0x40 MLOAD PUSH32 0x8C379A000000000000000000000000000000000000000000000000000000000 DUP2 MSTORE PUSH1 0x4 ADD PUSH2 0x16A0 SWAP1 PUSH2 0x4588 JUMP JUMPDEST PUSH1 0x40 MLOAD DUP1 SWAP2 SUB SWAP1 REVERT JUMPDEST PUSH2 0x1715 PUSH32 0x0 DUP10 DUP9 DUP9 DUP1 DUP1 PUSH1 0x20 MUL PUSH1 0x20 ADD PUSH1 0x40 MLOAD SWAP1 DUP2 ADD PUSH1 0x40 MSTORE DUP1 SWAP4 SWAP3 SWAP2 SWAP1 DUP2 DUP2 MSTORE PUSH1 0x20 ADD DUP4 DUP4 PUSH1 0x20 MUL DUP1 DUP3 DUP5 CALLDATACOPY PUSH1 0x0 DUP2 DUP5 ADD MSTORE PUSH1 0x1F NOT PUSH1 0x1F DUP3 ADD AND SWAP1 POP DUP1 DUP4 ADD SWAP3 POP POP POP POP POP POP POP PUSH2 0x2E28 JUMP JUMPDEST SWAP2 POP DUP7 DUP3 PUSH1 0x0 DUP2 MLOAD DUP2 LT PUSH2 0x172C JUMPI PUSH2 0x172B PUSH2 0x4C53 JUMP JUMPDEST JUMPDEST PUSH1 0x20 MUL PUSH1 0x20 ADD ADD MLOAD GT ISZERO PUSH2 0x1775 JUMPI PUSH1 0x40 MLOAD PUSH32 0x8C379A000000000000000000000000000000000000000000000000000000000 DUP2 MSTORE PUSH1 0x4 ADD PUSH2 0x176C SWAP1 PUSH2 0x4708 JUMP JUMPDEST PUSH1 0x40 MLOAD DUP1 SWAP2 SUB SWAP1 REVERT JUMPDEST PUSH2 0x183E DUP7 DUP7 PUSH1 0x0 DUP2 DUP2 LT PUSH2 0x178C JUMPI PUSH2 0x178B PUSH2 0x4C53 JUMP JUMPDEST JUMPDEST SWAP1 POP PUSH1 0x20 MUL ADD PUSH1 0x20 DUP2 ADD SWAP1 PUSH2 0x17A1 SWAP2 SWAP1 PUSH2 0x3988 JUMP JUMPDEST CALLER PUSH2 0x181D PUSH32 0x0 DUP11 DUP11 PUSH1 0x0 DUP2 DUP2 LT PUSH2 0x17DA JUMPI PUSH2 0x17D9 PUSH2 0x4C53 JUMP JUMPDEST JUMPDEST SWAP1 POP PUSH1 0x20 MUL ADD PUSH1 0x20 DUP2 ADD SWAP1 PUSH2 0x17EF SWAP2 SWAP1 PUSH2 0x3988 JUMP JUMPDEST DUP12 DUP12 PUSH1 0x1 DUP2 DUP2 LT PUSH2 0x1803 JUMPI PUSH2 0x1802 PUSH2 0x4C53 JUMP JUMPDEST JUMPDEST SWAP1 POP PUSH1 0x20 MUL ADD PUSH1 0x20 DUP2 ADD SWAP1 PUSH2 0x1818 SWAP2 SWAP1 PUSH2 0x3988 JUMP JUMPDEST PUSH2 0x2A00 JUMP JUMPDEST DUP6 PUSH1 0x0 DUP2 MLOAD DUP2 LT PUSH2 0x1831 JUMPI PUSH2 0x1830 PUSH2 0x4C53 JUMP JUMPDEST JUMPDEST PUSH1 0x20 MUL PUSH1 0x20 ADD ADD MLOAD PUSH2 0x2A96 JUMP JUMPDEST PUSH2 0x188A DUP3 DUP8 DUP8 DUP1 DUP1 PUSH1 0x20 MUL PUSH1 0x20 ADD PUSH1 0x40 MLOAD SWAP1 DUP2 ADD PUSH1 0x40 MSTORE DUP1 SWAP4 SWAP3 SWAP2 SWAP1 DUP2 DUP2 MSTORE PUSH1 0x20 ADD DUP4 DUP4 PUSH1 0x20 MUL DUP1 DUP3 DUP5 CALLDATACOPY PUSH1 0x0 DUP2 DUP5 ADD MSTORE PUSH1 0x1F NOT PUSH1 0x1F DUP3 ADD AND SWAP1 POP DUP1 DUP4 ADD SWAP3 POP POP POP POP POP POP POP DUP7 PUSH2 0x2BCF JUMP JUMPDEST POP SWAP7 SWAP6 POP POP POP POP POP POP JUMP JUMPDEST PUSH32 0x0 DUP2 JUMP JUMPDEST PUSH1 0x0 PUSH2 0x18C6 DUP5 DUP5 DUP5 PUSH2 0x2FC3 JUMP JUMPDEST SWAP1 POP SWAP4 SWAP3 POP POP POP JUMP JUMPDEST PUSH1 0x0 DUP1 DUP3 TIMESTAMP DUP2 LT ISZERO PUSH2 0x1916 JUMPI PUSH1 0x40 MLOAD PUSH32 0x8C379A000000000000000000000000000000000000000000000000000000000 DUP2 MSTORE PUSH1 0x4 ADD PUSH2 0x190D SWAP1 PUSH2 0x4588 JUMP JUMPDEST PUSH1 0x40 MLOAD DUP1 SWAP2 SUB SWAP1 REVERT JUMPDEST PUSH1 0x0 PUSH2 0x1943 PUSH32 0x0 DUP13 DUP13 PUSH2 0x2A00 JUMP JUMPDEST SWAP1 POP DUP1 PUSH20 0xFFFFFFFFFFFFFFFFFFFFFFFFFFFFFFFFFFFFFFFF AND PUSH4 0x23B872DD CALLER DUP4 DUP13 PUSH1 0x40 MLOAD DUP5 PUSH4 0xFFFFFFFF AND PUSH1 0xE0 SHL DUP2 MSTORE PUSH1 0x4 ADD PUSH2 0x1982 SWAP4 SWAP3 SWAP2 SWAP1 PUSH2 0x4477 JUMP JUMPDEST PUSH1 0x20 PUSH1 0x40 MLOAD DUP1 DUP4 SUB DUP2 PUSH1 0x0 DUP8 DUP1 EXTCODESIZE ISZERO DUP1 ISZERO PUSH2 0x199C JUMPI PUSH1 0x0 DUP1 REVERT JUMPDEST POP GAS CALL ISZERO DUP1 ISZERO PUSH2 0x19B0 JUMPI RETURNDATASIZE PUSH1 0x0 DUP1 RETURNDATACOPY RETURNDATASIZE PUSH1 0x0 REVERT JUMPDEST POP POP POP POP PUSH1 0x40 MLOAD RETURNDATASIZE PUSH1 0x1F NOT PUSH1 0x1F DUP3 ADD AND DUP3 ADD DUP1 PUSH1 0x40 MSTORE POP DUP2 ADD SWAP1 PUSH2 0x19D4 SWAP2 SWAP1 PUSH2 0x3D9A JUMP JUMPDEST POP PUSH1 0x0 DUP1 DUP3 PUSH20 0xFFFFFFFFFFFFFFFFFFFFFFFFFFFFFFFFFFFFFFFF AND PUSH4 0x89AFCB44 DUP10 PUSH1 0x40 MLOAD DUP3 PUSH4 0xFFFFFFFF AND PUSH1 0xE0 SHL DUP2 MSTORE PUSH1 0x4 ADD PUSH2 0x1A11 SWAP2 SWAP1 PUSH2 0x4433 JUMP JUMPDEST PUSH1 0x40 DUP1 MLOAD DUP1 DUP4 SUB DUP2 PUSH1 0x0 DUP8 DUP1 EXTCODESIZE ISZERO DUP1 ISZERO PUSH2 0x1A2A JUMPI PUSH1 0x0 DUP1 REVERT JUMPDEST POP GAS CALL ISZERO DUP1 ISZERO PUSH2 0x1A3E JUMPI RETURNDATASIZE PUSH1 0x0 DUP1 RETURNDATACOPY RETURNDATASIZE PUSH1 0x0 REVERT JUMPDEST POP POP POP POP PUSH1 0x40 MLOAD RETURNDATASIZE PUSH1 0x1F NOT PUSH1 0x1F DUP3 ADD AND DUP3 ADD DUP1 PUSH1 0x40 MSTORE POP DUP2 ADD SWAP1 PUSH2 0x1A62 SWAP2 SWAP1 PUSH2 0x3F2B JUMP JUMPDEST SWAP2 POP SWAP2 POP PUSH1 0x0 PUSH2 0x1A72 DUP15 DUP15 PUSH2 0x307D JUMP JUMPDEST POP SWAP1 POP DUP1 PUSH20 0xFFFFFFFFFFFFFFFFFFFFFFFFFFFFFFFFFFFFFFFF AND DUP15 PUSH20 0xFFFFFFFFFFFFFFFFFFFFFFFFFFFFFFFFFFFFFFFF AND EQ PUSH2 0x1AAF JUMPI DUP2 DUP4 PUSH2 0x1AB2 JUMP JUMPDEST DUP3 DUP3 JUMPDEST DUP1 SWAP8 POP DUP2 SWAP9 POP POP POP DUP11 DUP8 LT ISZERO PUSH2 0x1AFD JUMPI PUSH1 0x40 MLOAD PUSH32 0x8C379A000000000000000000000000000000000000000000000000000000000 DUP2 MSTORE PUSH1 0x4 ADD PUSH2 0x1AF4 SWAP1 PUSH2 0x4728 JUMP JUMPDEST PUSH1 0x40 MLOAD DUP1 SWAP2 SUB SWAP1 REVERT JUMPDEST DUP10 DUP7 LT ISZERO PUSH2 0x1B40 JUMPI PUSH1 0x40 MLOAD PUSH32 0x8C379A000000000000000000000000000000000000000000000000000000000 DUP2 MSTORE PUSH1 0x4 ADD PUSH2 0x1B37 SWAP1 PUSH2 0x4668 JUMP JUMPDEST PUSH1 0x40 MLOAD DUP1 SWAP2 SUB SWAP1 REVERT JUMPDEST POP POP POP POP POP SWAP8 POP SWAP8 SWAP6 POP POP POP POP POP POP JUMP JUMPDEST PUSH32 0x0 DUP2 JUMP JUMPDEST PUSH1 0x60 PUSH2 0x1BA2 PUSH32 0x0 DUP5 DUP5 PUSH2 0x2875 JUMP JUMPDEST SWAP1 POP SWAP3 SWAP2 POP POP JUMP JUMPDEST PUSH1 0x0 DUP1 PUSH1 0x0 PUSH2 0x1BFA PUSH32 0x0 DUP15 PUSH32 0x0 PUSH2 0x2A00 JUMP JUMPDEST SWAP1 POP PUSH1 0x0 DUP8 PUSH2 0x1C09 JUMPI DUP13 PUSH2 0x1C2B JUMP JUMPDEST PUSH32 0xFFFFFFFFFFFFFFFFFFFFFFFFFFFFFFFFFFFFFFFFFFFFFFFFFFFFFFFFFFFFFFFF JUMPDEST SWAP1 POP DUP2 PUSH20 0xFFFFFFFFFFFFFFFFFFFFFFFFFFFFFFFFFFFFFFFF AND PUSH4 0xD505ACCF CALLER ADDRESS DUP5 DUP14 DUP13 DUP13 DUP13 PUSH1 0x40 MLOAD DUP9 PUSH4 0xFFFFFFFF AND PUSH1 0xE0 SHL DUP2 MSTORE PUSH1 0x4 ADD PUSH2 0x1C72 SWAP8 SWAP7 SWAP6 SWAP5 SWAP4 SWAP3 SWAP2 SWAP1 PUSH2 0x44AE JUMP JUMPDEST PUSH1 0x0 PUSH1 0x40 MLOAD DUP1 DUP4 SUB DUP2 PUSH1 0x0 DUP8 DUP1 EXTCODESIZE ISZERO DUP1 ISZERO PUSH2 0x1C8C JUMPI PUSH1 0x0 DUP1 REVERT JUMPDEST POP GAS CALL ISZERO DUP1 ISZERO PUSH2 0x1CA0 JUMPI RETURNDATASIZE PUSH1 0x0 DUP1 RETURNDATACOPY RETURNDATASIZE PUSH1 0x0 REVERT JUMPDEST POP POP POP POP PUSH2 0x1CB2 DUP15 DUP15 DUP15 DUP15 DUP15 DUP15 PUSH2 0x5C4 JUMP JUMPDEST DUP1 SWAP5 POP DUP2 SWAP6 POP POP POP POP POP SWAP11 POP SWAP11 SWAP9 POP POP POP POP POP POP POP POP POP JUMP JUMPDEST PUSH1 0x0 DUP1 PUSH1 0x0 DUP4 TIMESTAMP DUP2 LT ISZERO PUSH2 0x1D14 JUMPI PUSH1 0x40 MLOAD PUSH32 0x8C379A000000000000000000000000000000000000000000000000000000000 DUP2 MSTORE PUSH1 0x4 ADD PUSH2 0x1D0B SWAP1 PUSH2 0x4588 JUMP JUMPDEST PUSH1 0x40 MLOAD DUP1 SWAP2 SUB SWAP1 REVERT JUMPDEST PUSH2 0x1D22 DUP13 DUP13 DUP13 DUP13 DUP13 DUP13 PUSH2 0x31AB JUMP JUMPDEST DUP1 SWAP5 POP DUP2 SWAP6 POP POP POP PUSH1 0x0 PUSH2 0x1D57 PUSH32 0x0 DUP15 DUP15 PUSH2 0x2A00 JUMP JUMPDEST SWAP1 POP PUSH2 0x1D65 DUP14 CALLER DUP4 DUP9 PUSH2 0x2A96 JUMP JUMPDEST PUSH2 0x1D71 DUP13 CALLER DUP4 DUP8 PUSH2 0x2A96 JUMP JUMPDEST DUP1 PUSH20 0xFFFFFFFFFFFFFFFFFFFFFFFFFFFFFFFFFFFFFFFF AND PUSH4 0x6A627842 DUP9 PUSH1 0x40 MLOAD DUP3 PUSH4 0xFFFFFFFF AND PUSH1 0xE0 SHL DUP2 MSTORE PUSH1 0x4 ADD PUSH2 0x1DAA SWAP2 SWAP1 PUSH2 0x4433 JUMP JUMPDEST PUSH1 0x20 PUSH1 0x40 MLOAD DUP1 DUP4 SUB DUP2 PUSH1 0x0 DUP8 DUP1 EXTCODESIZE ISZERO DUP1 ISZERO PUSH2 0x1DC4 JUMPI PUSH1 0x0 DUP1 REVERT JUMPDEST POP GAS CALL ISZERO DUP1 ISZERO PUSH2 0x1DD8 JUMPI RETURNDATASIZE PUSH1 0x0 DUP1 RETURNDATACOPY RETURNDATASIZE PUSH1 0x0 REVERT JUMPDEST POP POP POP POP PUSH1 0x40 MLOAD RETURNDATASIZE PUSH1 0x1F NOT PUSH1 0x1F DUP3 ADD AND DUP3 ADD DUP1 PUSH1 0x40 MSTORE POP DUP2 ADD SWAP1 PUSH2 0x1DFC SWAP2 SWAP1 PUSH2 0x3E1A JUMP JUMPDEST SWAP3 POP POP POP SWAP9 POP SWAP9 POP SWAP9 SWAP6 POP POP POP POP POP POP JUMP JUMPDEST PUSH1 0x0 DUP1 PUSH1 0x0 DUP4 TIMESTAMP DUP2 LT ISZERO PUSH2 0x1E57 JUMPI PUSH1 0x40 MLOAD PUSH32 0x8C379A000000000000000000000000000000000000000000000000000000000 DUP2 MSTORE PUSH1 0x4 ADD PUSH2 0x1E4E SWAP1 PUSH2 0x4588 JUMP JUMPDEST PUSH1 0x40 MLOAD DUP1 SWAP2 SUB SWAP1 REVERT JUMPDEST PUSH2 0x1E85 DUP11 PUSH32 0x0 DUP12 CALLVALUE DUP13 DUP13 PUSH2 0x31AB JUMP JUMPDEST DUP1 SWAP5 POP DUP2 SWAP6 POP POP POP PUSH1 0x0 PUSH2 0x1EDA PUSH32 0x0 DUP13 PUSH32 0x0 PUSH2 0x2A00 JUMP JUMPDEST SWAP1 POP PUSH2 0x1EE8 DUP12 CALLER DUP4 DUP9 PUSH2 0x2A96 JUMP JUMPDEST PUSH32 0x0 PUSH20 0xFFFFFFFFFFFFFFFFFFFFFFFFFFFFFFFFFFFFFFFF AND PUSH4 0xD0E30DB0 DUP6 PUSH1 0x40 MLOAD DUP3 PUSH4 0xFFFFFFFF AND PUSH1 0xE0 SHL DUP2 MSTORE PUSH1 0x4 ADD PUSH1 0x0 PUSH1 0x40 MLOAD DUP1 DUP4 SUB DUP2 DUP6 DUP9 DUP1 EXTCODESIZE ISZERO DUP1 ISZERO PUSH2 0x1F50 JUMPI PUSH1 0x0 DUP1 REVERT JUMPDEST POP GAS CALL ISZERO DUP1 ISZERO PUSH2 0x1F64 JUMPI RETURNDATASIZE PUSH1 0x0 DUP1 RETURNDATACOPY RETURNDATASIZE PUSH1 0x0 REVERT JUMPDEST POP POP POP POP POP PUSH32 0x0 PUSH20 0xFFFFFFFFFFFFFFFFFFFFFFFFFFFFFFFFFFFFFFFF AND PUSH4 0xA9059CBB DUP3 DUP7 PUSH1 0x40 MLOAD DUP4 PUSH4 0xFFFFFFFF AND PUSH1 0xE0 SHL DUP2 MSTORE PUSH1 0x4 ADD PUSH2 0x1FC4 SWAP3 SWAP2 SWAP1 PUSH2 0x451D JUMP JUMPDEST PUSH1 0x20 PUSH1 0x40 MLOAD DUP1 DUP4 SUB DUP2 PUSH1 0x0 DUP8 DUP1 EXTCODESIZE ISZERO DUP1 ISZERO PUSH2 0x1FDE JUMPI PUSH1 0x0 DUP1 REVERT JUMPDEST POP GAS CALL ISZERO DUP1 ISZERO PUSH2 0x1FF2 JUMPI RETURNDATASIZE PUSH1 0x0 DUP1 RETURNDATACOPY RETURNDATASIZE PUSH1 0x0 REVERT JUMPDEST POP POP POP POP PUSH1 0x40 MLOAD RETURNDATASIZE PUSH1 0x1F NOT PUSH1 0x1F DUP3 ADD AND DUP3 ADD DUP1 PUSH1 0x40 MSTORE POP DUP2 ADD SWAP1 PUSH2 0x2016 SWAP2 SWAP1 PUSH2 0x3D9A JUMP JUMPDEST PUSH2 0x2023 JUMPI PUSH2 0x2022 PUSH2 0x4BC6 JUMP JUMPDEST JUMPDEST DUP1 PUSH20 0xFFFFFFFFFFFFFFFFFFFFFFFFFFFFFFFFFFFFFFFF AND PUSH4 0x6A627842 DUP9 PUSH1 0x40 MLOAD DUP3 PUSH4 0xFFFFFFFF AND PUSH1 0xE0 SHL DUP2 MSTORE PUSH1 0x4 ADD PUSH2 0x205C SWAP2 SWAP1 PUSH2 0x4433 JUMP JUMPDEST PUSH1 0x20 PUSH1 0x40 MLOAD DUP1 DUP4 SUB DUP2 PUSH1 0x0 DUP8 DUP1 EXTCODESIZE ISZERO DUP1 ISZERO PUSH2 0x2076 JUMPI PUSH1 0x0 DUP1 REVERT JUMPDEST POP GAS CALL ISZERO DUP1 ISZERO PUSH2 0x208A JUMPI RETURNDATASIZE PUSH1 0x0 DUP1 RETURNDATACOPY RETURNDATASIZE PUSH1 0x0 REVERT JUMPDEST POP POP POP POP PUSH1 0x40 MLOAD RETURNDATASIZE PUSH1 0x1F NOT PUSH1 0x1F DUP3 ADD AND DUP3 ADD DUP1 PUSH1 0x40 MSTORE POP DUP2 ADD SWAP1 PUSH2 0x20AE SWAP2 SWAP1 PUSH2 0x3E1A JUMP JUMPDEST SWAP3 POP DUP4 CALLVALUE GT ISZERO PUSH2 0x20CE JUMPI PUSH2 0x20CD CALLER DUP6 CALLVALUE PUSH2 0x20C8 SWAP2 SWAP1 PUSH2 0x4A32 JUMP JUMPDEST PUSH2 0x266F JUMP JUMPDEST JUMPDEST POP POP SWAP7 POP SWAP7 POP SWAP7 SWAP4 POP POP POP POP JUMP JUMPDEST PUSH1 0x60 DUP2 TIMESTAMP DUP2 LT ISZERO PUSH2 0x2122 JUMPI PUSH1 0x40 MLOAD PUSH32 0x8C379A000000000000000000000000000000000000000000000000000000000 DUP2 MSTORE PUSH1 0x4 ADD PUSH2 0x2119 SWAP1 PUSH2 0x4588 JUMP JUMPDEST PUSH1 0x40 MLOAD DUP1 SWAP2 SUB SWAP1 REVERT JUMPDEST PUSH32 0x0 PUSH20 0xFFFFFFFFFFFFFFFFFFFFFFFFFFFFFFFFFFFFFFFF AND DUP7 DUP7 PUSH1 0x0 DUP2 DUP2 LT PUSH2 0x216D JUMPI PUSH2 0x216C PUSH2 0x4C53 JUMP JUMPDEST JUMPDEST SWAP1 POP PUSH1 0x20 MUL ADD PUSH1 0x20 DUP2 ADD SWAP1 PUSH2 0x2182 SWAP2 SWAP1 PUSH2 0x3988 JUMP JUMPDEST PUSH20 0xFFFFFFFFFFFFFFFFFFFFFFFFFFFFFFFFFFFFFFFF AND EQ PUSH2 0x21D8 JUMPI PUSH1 0x40 MLOAD PUSH32 0x8C379A000000000000000000000000000000000000000000000000000000000 DUP2 MSTORE PUSH1 0x4 ADD PUSH2 0x21CF SWAP1 PUSH2 0x4688 JUMP JUMPDEST PUSH1 0x40 MLOAD DUP1 SWAP2 SUB SWAP1 REVERT JUMPDEST PUSH2 0x2244 PUSH32 0x0 DUP9 DUP9 DUP9 DUP1 DUP1 PUSH1 0x20 MUL PUSH1 0x20 ADD PUSH1 0x40 MLOAD SWAP1 DUP2 ADD PUSH1 0x40 MSTORE DUP1 SWAP4 SWAP3 SWAP2 SWAP1 DUP2 DUP2 MSTORE PUSH1 0x20 ADD DUP4 DUP4 PUSH1 0x20 MUL DUP1 DUP3 DUP5 CALLDATACOPY PUSH1 0x0 DUP2 DUP5 ADD MSTORE PUSH1 0x1F NOT PUSH1 0x1F DUP3 ADD AND SWAP1 POP DUP1 DUP4 ADD SWAP3 POP POP POP POP POP POP POP PUSH2 0x2E28 JUMP JUMPDEST SWAP2 POP CALLVALUE DUP3 PUSH1 0x0 DUP2 MLOAD DUP2 LT PUSH2 0x225B JUMPI PUSH2 0x225A PUSH2 0x4C53 JUMP JUMPDEST JUMPDEST PUSH1 0x20 MUL PUSH1 0x20 ADD ADD MLOAD GT ISZERO PUSH2 0x22A4 JUMPI PUSH1 0x40 MLOAD PUSH32 0x8C379A000000000000000000000000000000000000000000000000000000000 DUP2 MSTORE PUSH1 0x4 ADD PUSH2 0x229B SWAP1 PUSH2 0x4708 JUMP JUMPDEST PUSH1 0x40 MLOAD DUP1 SWAP2 SUB SWAP1 REVERT JUMPDEST PUSH32 0x0 PUSH20 0xFFFFFFFFFFFFFFFFFFFFFFFFFFFFFFFFFFFFFFFF AND PUSH4 0xD0E30DB0 DUP4 PUSH1 0x0 DUP2 MLOAD DUP2 LT PUSH2 0x22F4 JUMPI PUSH2 0x22F3 PUSH2 0x4C53 JUMP JUMPDEST JUMPDEST PUSH1 0x20 MUL PUSH1 0x20 ADD ADD MLOAD PUSH1 0x40 MLOAD DUP3 PUSH4 0xFFFFFFFF AND PUSH1 0xE0 SHL DUP2 MSTORE PUSH1 0x4 ADD PUSH1 0x0 PUSH1 0x40 MLOAD DUP1 DUP4 SUB DUP2 DUP6 DUP9 DUP1 EXTCODESIZE ISZERO DUP1 ISZERO PUSH2 0x2327 JUMPI PUSH1 0x0 DUP1 REVERT JUMPDEST POP GAS CALL ISZERO DUP1 ISZERO PUSH2 0x233B JUMPI RETURNDATASIZE PUSH1 0x0 DUP1 RETURNDATACOPY RETURNDATASIZE PUSH1 0x0 REVERT JUMPDEST POP POP POP POP POP PUSH32 0x0 PUSH20 0xFFFFFFFFFFFFFFFFFFFFFFFFFFFFFFFFFFFFFFFF AND PUSH4 0xA9059CBB PUSH2 0x23F7 PUSH32 0x0 DUP10 DUP10 PUSH1 0x0 DUP2 DUP2 LT PUSH2 0x23B4 JUMPI PUSH2 0x23B3 PUSH2 0x4C53 JUMP JUMPDEST JUMPDEST SWAP1 POP PUSH1 0x20 MUL ADD PUSH1 0x20 DUP2 ADD SWAP1 PUSH2 0x23C9 SWAP2 SWAP1 PUSH2 0x3988 JUMP JUMPDEST DUP11 DUP11 PUSH1 0x1 DUP2 DUP2 LT PUSH2 0x23DD JUMPI PUSH2 0x23DC PUSH2 0x4C53 JUMP JUMPDEST JUMPDEST SWAP1 POP PUSH1 0x20 MUL ADD PUSH1 0x20 DUP2 ADD SWAP1 PUSH2 0x23F2 SWAP2 SWAP1 PUSH2 0x3988 JUMP JUMPDEST PUSH2 0x2A00 JUMP JUMPDEST DUP5 PUSH1 0x0 DUP2 MLOAD DUP2 LT PUSH2 0x240B JUMPI PUSH2 0x240A PUSH2 0x4C53 JUMP JUMPDEST JUMPDEST PUSH1 0x20 MUL PUSH1 0x20 ADD ADD MLOAD PUSH1 0x40 MLOAD DUP4 PUSH4 0xFFFFFFFF AND PUSH1 0xE0 SHL DUP2 MSTORE PUSH1 0x4 ADD PUSH2 0x2430 SWAP3 SWAP2 SWAP1 PUSH2 0x451D JUMP JUMPDEST PUSH1 0x20 PUSH1 0x40 MLOAD DUP1 DUP4 SUB DUP2 PUSH1 0x0 DUP8 DUP1 EXTCODESIZE ISZERO DUP1 ISZERO PUSH2 0x244A JUMPI PUSH1 0x0 DUP1 REVERT JUMPDEST POP GAS CALL ISZERO DUP1 ISZERO PUSH2 0x245E JUMPI RETURNDATASIZE PUSH1 0x0 DUP1 RETURNDATACOPY RETURNDATASIZE PUSH1 0x0 REVERT JUMPDEST POP POP POP POP PUSH1 0x40 MLOAD RETURNDATASIZE PUSH1 0x1F NOT PUSH1 0x1F DUP3 ADD AND DUP3 ADD DUP1 PUSH1 0x40 MSTORE POP DUP2 ADD SWAP1 PUSH2 0x2482 SWAP2 SWAP1 PUSH2 0x3D9A JUMP JUMPDEST PUSH2 0x248F JUMPI PUSH2 0x248E PUSH2 0x4BC6 JUMP JUMPDEST JUMPDEST PUSH2 0x24DB DUP3 DUP8 DUP8 DUP1 DUP1 PUSH1 0x20 MUL PUSH1 0x20 ADD PUSH1 0x40 MLOAD SWAP1 DUP2 ADD PUSH1 0x40 MSTORE DUP1 SWAP4 SWAP3 SWAP2 SWAP1 DUP2 DUP2 MSTORE PUSH1 0x20 ADD DUP4 DUP4 PUSH1 0x20 MUL DUP1 DUP3 DUP5 CALLDATACOPY PUSH1 0x0 DUP2 DUP5 ADD MSTORE PUSH1 0x1F NOT PUSH1 0x1F DUP3 ADD AND SWAP1 POP DUP1 DUP4 ADD SWAP3 POP POP POP POP POP POP POP DUP7 PUSH2 0x2BCF JUMP JUMPDEST DUP2 PUSH1 0x0 DUP2 MLOAD DUP2 LT PUSH2 0x24EF JUMPI PUSH2 0x24EE PUSH2 0x4C53 JUMP JUMPDEST JUMPDEST PUSH1 0x20 MUL PUSH1 0x20 ADD ADD MLOAD CALLVALUE GT ISZERO PUSH2 0x252F JUMPI PUSH2 0x252E CALLER DUP4 PUSH1 0x0 DUP2 MLOAD DUP2 LT PUSH2 0x2516 JUMPI PUSH2 0x2515 PUSH2 0x4C53 JUMP JUMPDEST JUMPDEST PUSH1 0x20 MUL PUSH1 0x20 ADD ADD MLOAD CALLVALUE PUSH2 0x2529 SWAP2 SWAP1 PUSH2 0x4A32 JUMP JUMPDEST PUSH2 0x266F JUMP JUMPDEST JUMPDEST POP SWAP6 SWAP5 POP POP POP POP POP JUMP JUMPDEST PUSH1 0x0 DUP1 DUP5 PUSH20 0xFFFFFFFFFFFFFFFFFFFFFFFFFFFFFFFFFFFFFFFF AND PUSH4 0xA9059CBB DUP6 DUP6 PUSH1 0x40 MLOAD PUSH1 0x24 ADD PUSH2 0x256B SWAP3 SWAP2 SWAP1 PUSH2 0x451D JUMP JUMPDEST PUSH1 0x40 MLOAD PUSH1 0x20 DUP2 DUP4 SUB SUB DUP2 MSTORE SWAP1 PUSH1 0x40 MSTORE SWAP1 PUSH1 0xE0 SHL PUSH1 0x20 DUP3 ADD DUP1 MLOAD PUSH28 0xFFFFFFFFFFFFFFFFFFFFFFFFFFFFFFFFFFFFFFFFFFFFFFFFFFFFFFFF DUP4 DUP2 DUP4 AND OR DUP4 MSTORE POP POP POP POP PUSH1 0x40 MLOAD PUSH2 0x25B9 SWAP2 SWAP1 PUSH2 0x441C JUMP JUMPDEST PUSH1 0x0 PUSH1 0x40 MLOAD DUP1 DUP4 SUB DUP2 PUSH1 0x0 DUP7 GAS CALL SWAP2 POP POP RETURNDATASIZE DUP1 PUSH1 0x0 DUP2 EQ PUSH2 0x25F6 JUMPI PUSH1 0x40 MLOAD SWAP2 POP PUSH1 0x1F NOT PUSH1 0x3F RETURNDATASIZE ADD AND DUP3 ADD PUSH1 0x40 MSTORE RETURNDATASIZE DUP3 MSTORE RETURNDATASIZE PUSH1 0x0 PUSH1 0x20 DUP5 ADD RETURNDATACOPY PUSH2 0x25FB JUMP JUMPDEST PUSH1 0x60 SWAP2 POP JUMPDEST POP SWAP2 POP SWAP2 POP DUP2 DUP1 ISZERO PUSH2 0x2629 JUMPI POP PUSH1 0x0 DUP2 MLOAD EQ DUP1 PUSH2 0x2628 JUMPI POP DUP1 DUP1 PUSH1 0x20 ADD SWAP1 MLOAD DUP2 ADD SWAP1 PUSH2 0x2627 SWAP2 SWAP1 PUSH2 0x3D9A JUMP JUMPDEST JUMPDEST JUMPDEST PUSH2 0x2668 JUMPI PUSH1 0x40 MLOAD PUSH32 0x8C379A000000000000000000000000000000000000000000000000000000000 DUP2 MSTORE PUSH1 0x4 ADD PUSH2 0x265F SWAP1 PUSH2 0x4768 JUMP JUMPDEST PUSH1 0x40 MLOAD DUP1 SWAP2 SUB SWAP1 REVERT JUMPDEST POP POP POP POP POP JUMP JUMPDEST PUSH1 0x0 DUP3 PUSH20 0xFFFFFFFFFFFFFFFFFFFFFFFFFFFFFFFFFFFFFFFF AND DUP3 PUSH1 0x0 PUSH8 0xFFFFFFFFFFFFFFFF DUP2 GT ISZERO PUSH2 0x26A4 JUMPI PUSH2 0x26A3 PUSH2 0x4C82 JUMP JUMPDEST JUMPDEST PUSH1 0x40 MLOAD SWAP1 DUP1 DUP3 MSTORE DUP1 PUSH1 0x1F ADD PUSH1 0x1F NOT AND PUSH1 0x20 ADD DUP3 ADD PUSH1 0x40 MSTORE DUP1 ISZERO PUSH2 0x26D6 JUMPI DUP2 PUSH1 0x20 ADD PUSH1 0x1 DUP3 MUL DUP1 CALLDATASIZE DUP4 CALLDATACOPY DUP1 DUP3 ADD SWAP2 POP POP SWAP1 POP JUMPDEST POP PUSH1 0x40 MLOAD PUSH2 0x26E4 SWAP2 SWAP1 PUSH2 0x441C JUMP JUMPDEST PUSH1 0x0 PUSH1 0x40 MLOAD DUP1 DUP4 SUB DUP2 DUP6 DUP8 GAS CALL SWAP3 POP POP POP RETURNDATASIZE DUP1 PUSH1 0x0 DUP2 EQ PUSH2 0x2721 JUMPI PUSH1 0x40 MLOAD SWAP2 POP PUSH1 0x1F NOT PUSH1 0x3F RETURNDATASIZE ADD AND DUP3 ADD PUSH1 0x40 MSTORE RETURNDATASIZE DUP3 MSTORE RETURNDATASIZE PUSH1 0x0 PUSH1 0x20 DUP5 ADD RETURNDATACOPY PUSH2 0x2726 JUMP JUMPDEST PUSH1 0x60 SWAP2 POP JUMPDEST POP POP SWAP1 POP DUP1 PUSH2 0x276A JUMPI PUSH1 0x40 MLOAD PUSH32 0x8C379A000000000000000000000000000000000000000000000000000000000 DUP2 MSTORE PUSH1 0x4 ADD PUSH2 0x2761 SWAP1 PUSH2 0x4628 JUMP JUMPDEST PUSH1 0x40 MLOAD DUP1 SWAP2 SUB SWAP1 REVERT JUMPDEST POP POP POP JUMP JUMPDEST PUSH1 0x0 DUP1 DUP5 GT PUSH2 0x27B3 JUMPI PUSH1 0x40 MLOAD PUSH32 0x8C379A000000000000000000000000000000000000000000000000000000000 DUP2 MSTORE PUSH1 0x4 ADD PUSH2 0x27AA SWAP1 PUSH2 0x47A8 JUMP JUMPDEST PUSH1 0x40 MLOAD DUP1 SWAP2 SUB SWAP1 REVERT JUMPDEST PUSH1 0x0 DUP4 GT DUP1 ISZERO PUSH2 0x27C3 JUMPI POP PUSH1 0x0 DUP3 GT JUMPDEST PUSH2 0x2802 JUMPI PUSH1 0x40 MLOAD PUSH32 0x8C379A000000000000000000000000000000000000000000000000000000000 DUP2 MSTORE PUSH1 0x4 ADD PUSH2 0x27F9 SWAP1 PUSH2 0x46C8 JUMP JUMPDEST PUSH1 0x40 MLOAD DUP1 SWAP2 SUB SWAP1 REVERT JUMPDEST PUSH1 0x0 PUSH2 0x2819 PUSH2 0x3E5 DUP7 PUSH2 0x3478 SWAP1 SWAP2 SWAP1 PUSH4 0xFFFFFFFF AND JUMP JUMPDEST SWAP1 POP PUSH1 0x0 PUSH2 0x2830 DUP5 DUP4 PUSH2 0x3478 SWAP1 SWAP2 SWAP1 PUSH4 0xFFFFFFFF AND JUMP JUMPDEST SWAP1 POP PUSH1 0x0 PUSH2 0x285B DUP4 PUSH2 0x284D PUSH2 0x3E8 DUP10 PUSH2 0x3478 SWAP1 SWAP2 SWAP1 PUSH4 0xFFFFFFFF AND JUMP JUMPDEST PUSH2 0x34E5 SWAP1 SWAP2 SWAP1 PUSH4 0xFFFFFFFF AND JUMP JUMPDEST SWAP1 POP DUP1 DUP3 PUSH2 0x2869 SWAP2 SWAP1 PUSH2 0x49A7 JUMP JUMPDEST SWAP4 POP POP POP POP SWAP4 SWAP3 POP POP POP JUMP JUMPDEST PUSH1 0x60 PUSH1 0x2 DUP3 MLOAD LT ISZERO PUSH2 0x28BC JUMPI PUSH1 0x40 MLOAD PUSH32 0x8C379A000000000000000000000000000000000000000000000000000000000 DUP2 MSTORE PUSH1 0x4 ADD PUSH2 0x28B3 SWAP1 PUSH2 0x46A8 JUMP JUMPDEST PUSH1 0x40 MLOAD DUP1 SWAP2 SUB SWAP1 REVERT JUMPDEST DUP2 MLOAD PUSH8 0xFFFFFFFFFFFFFFFF DUP2 GT ISZERO PUSH2 0x28D7 JUMPI PUSH2 0x28D6 PUSH2 0x4C82 JUMP JUMPDEST JUMPDEST PUSH1 0x40 MLOAD SWAP1 DUP1 DUP3 MSTORE DUP1 PUSH1 0x20 MUL PUSH1 0x20 ADD DUP3 ADD PUSH1 0x40 MSTORE DUP1 ISZERO PUSH2 0x2905 JUMPI DUP2 PUSH1 0x20 ADD PUSH1 0x20 DUP3 MUL DUP1 CALLDATASIZE DUP4 CALLDATACOPY DUP1 DUP3 ADD SWAP2 POP POP SWAP1 POP JUMPDEST POP SWAP1 POP DUP3 DUP2 PUSH1 0x0 DUP2 MLOAD DUP2 LT PUSH2 0x291D JUMPI PUSH2 0x291C PUSH2 0x4C53 JUMP JUMPDEST JUMPDEST PUSH1 0x20 MUL PUSH1 0x20 ADD ADD DUP2 DUP2 MSTORE POP POP PUSH1 0x0 JUMPDEST PUSH1 0x1 DUP4 MLOAD PUSH2 0x293A SWAP2 SWAP1 PUSH2 0x4A32 JUMP JUMPDEST DUP2 LT ISZERO PUSH2 0x29F8 JUMPI PUSH1 0x0 DUP1 PUSH2 0x298F DUP8 DUP7 DUP6 DUP2 MLOAD DUP2 LT PUSH2 0x295B JUMPI PUSH2 0x295A PUSH2 0x4C53 JUMP JUMPDEST JUMPDEST PUSH1 0x20 MUL PUSH1 0x20 ADD ADD MLOAD DUP8 PUSH1 0x1 DUP8 PUSH2 0x2971 SWAP2 SWAP1 PUSH2 0x4951 JUMP JUMPDEST DUP2 MLOAD DUP2 LT PUSH2 0x2982 JUMPI PUSH2 0x2981 PUSH2 0x4C53 JUMP JUMPDEST JUMPDEST PUSH1 0x20 MUL PUSH1 0x20 ADD ADD MLOAD PUSH2 0x353E JUMP JUMPDEST SWAP2 POP SWAP2 POP PUSH2 0x29B8 DUP5 DUP5 DUP2 MLOAD DUP2 LT PUSH2 0x29A9 JUMPI PUSH2 0x29A8 PUSH2 0x4C53 JUMP JUMPDEST JUMPDEST PUSH1 0x20 MUL PUSH1 0x20 ADD ADD MLOAD DUP4 DUP4 PUSH2 0x276F JUMP JUMPDEST DUP5 PUSH1 0x1 DUP6 PUSH2 0x29C6 SWAP2 SWAP1 PUSH2 0x4951 JUMP JUMPDEST DUP2 MLOAD DUP2 LT PUSH2 0x29D7 JUMPI PUSH2 0x29D6 PUSH2 0x4C53 JUMP JUMPDEST JUMPDEST PUSH1 0x20 MUL PUSH1 0x20 ADD ADD DUP2 DUP2 MSTORE POP POP POP POP DUP1 DUP1 PUSH2 0x29F0 SWAP1 PUSH2 0x4B7D JUMP JUMPDEST SWAP2 POP POP PUSH2 0x292C JUMP JUMPDEST POP SWAP4 SWAP3 POP POP POP JUMP JUMPDEST PUSH1 0x0 DUP4 PUSH20 0xFFFFFFFFFFFFFFFFFFFFFFFFFFFFFFFFFFFFFFFF AND PUSH4 0xE6A43905 DUP5 DUP5 PUSH1 0x40 MLOAD DUP4 PUSH4 0xFFFFFFFF AND PUSH1 0xE0 SHL DUP2 MSTORE PUSH1 0x4 ADD PUSH2 0x2A3D SWAP3 SWAP2 SWAP1 PUSH2 0x444E JUMP JUMPDEST PUSH1 0x20 PUSH1 0x40 MLOAD DUP1 DUP4 SUB DUP2 DUP7 DUP1 EXTCODESIZE ISZERO DUP1 ISZERO PUSH2 0x2A55 JUMPI PUSH1 0x0 DUP1 REVERT JUMPDEST POP GAS STATICCALL ISZERO DUP1 ISZERO PUSH2 0x2A69 JUMPI RETURNDATASIZE PUSH1 0x0 DUP1 RETURNDATACOPY RETURNDATASIZE PUSH1 0x0 REVERT JUMPDEST POP POP POP POP PUSH1 0x40 MLOAD RETURNDATASIZE PUSH1 0x1F NOT PUSH1 0x1F DUP3 ADD AND DUP3 ADD DUP1 PUSH1 0x40 MSTORE POP DUP2 ADD SWAP1 PUSH2 0x2A8D SWAP2 SWAP1 PUSH2 0x39B5 JUMP JUMPDEST SWAP1 POP SWAP4 SWAP3 POP POP POP JUMP JUMPDEST PUSH1 0x0 DUP1 DUP6 PUSH20 0xFFFFFFFFFFFFFFFFFFFFFFFFFFFFFFFFFFFFFFFF AND PUSH4 0x23B872DD DUP7 DUP7 DUP7 PUSH1 0x40 MLOAD PUSH1 0x24 ADD PUSH2 0x2ACA SWAP4 SWAP3 SWAP2 SWAP1 PUSH2 0x4477 JUMP JUMPDEST PUSH1 0x40 MLOAD PUSH1 0x20 DUP2 DUP4 SUB SUB DUP2 MSTORE SWAP1 PUSH1 0x40 MSTORE SWAP1 PUSH1 0xE0 SHL PUSH1 0x20 DUP3 ADD DUP1 MLOAD PUSH28 0xFFFFFFFFFFFFFFFFFFFFFFFFFFFFFFFFFFFFFFFFFFFFFFFFFFFFFFFF DUP4 DUP2 DUP4 AND OR DUP4 MSTORE POP POP POP POP PUSH1 0x40 MLOAD PUSH2 0x2B18 SWAP2 SWAP1 PUSH2 0x441C JUMP JUMPDEST PUSH1 0x0 PUSH1 0x40 MLOAD DUP1 DUP4 SUB DUP2 PUSH1 0x0 DUP7 GAS CALL SWAP2 POP POP RETURNDATASIZE DUP1 PUSH1 0x0 DUP2 EQ PUSH2 0x2B55 JUMPI PUSH1 0x40 MLOAD SWAP2 POP PUSH1 0x1F NOT PUSH1 0x3F RETURNDATASIZE ADD AND DUP3 ADD PUSH1 0x40 MSTORE RETURNDATASIZE DUP3 MSTORE RETURNDATASIZE PUSH1 0x0 PUSH1 0x20 DUP5 ADD RETURNDATACOPY PUSH2 0x2B5A JUMP JUMPDEST PUSH1 0x60 SWAP2 POP JUMPDEST POP SWAP2 POP SWAP2 POP DUP2 DUP1 ISZERO PUSH2 0x2B88 JUMPI POP PUSH1 0x0 DUP2 MLOAD EQ DUP1 PUSH2 0x2B87 JUMPI POP DUP1 DUP1 PUSH1 0x20 ADD SWAP1 MLOAD DUP2 ADD SWAP1 PUSH2 0x2B86 SWAP2 SWAP1 PUSH2 0x3D9A JUMP JUMPDEST JUMPDEST JUMPDEST PUSH2 0x2BC7 JUMPI PUSH1 0x40 MLOAD PUSH32 0x8C379A000000000000000000000000000000000000000000000000000000000 DUP2 MSTORE PUSH1 0x4 ADD PUSH2 0x2BBE SWAP1 PUSH2 0x4608 JUMP JUMPDEST PUSH1 0x40 MLOAD DUP1 SWAP2 SUB SWAP1 REVERT JUMPDEST POP POP POP POP POP POP JUMP JUMPDEST PUSH1 0x0 JUMPDEST PUSH1 0x1 DUP4 MLOAD PUSH2 0x2BE0 SWAP2 SWAP1 PUSH2 0x4A32 JUMP JUMPDEST DUP2 LT ISZERO PUSH2 0x2E22 JUMPI PUSH1 0x0 DUP1 DUP5 DUP4 DUP2 MLOAD DUP2 LT PUSH2 0x2BFD JUMPI PUSH2 0x2BFC PUSH2 0x4C53 JUMP JUMPDEST JUMPDEST PUSH1 0x20 MUL PUSH1 0x20 ADD ADD MLOAD DUP6 PUSH1 0x1 DUP6 PUSH2 0x2C13 SWAP2 SWAP1 PUSH2 0x4951 JUMP JUMPDEST DUP2 MLOAD DUP2 LT PUSH2 0x2C24 JUMPI PUSH2 0x2C23 PUSH2 0x4C53 JUMP JUMPDEST JUMPDEST PUSH1 0x20 MUL PUSH1 0x20 ADD ADD MLOAD SWAP2 POP SWAP2 POP PUSH1 0x0 PUSH2 0x2C3C DUP4 DUP4 PUSH2 0x307D JUMP JUMPDEST POP SWAP1 POP PUSH1 0x0 DUP8 PUSH1 0x1 DUP7 PUSH2 0x2C4F SWAP2 SWAP1 PUSH2 0x4951 JUMP JUMPDEST DUP2 MLOAD DUP2 LT PUSH2 0x2C60 JUMPI PUSH2 0x2C5F PUSH2 0x4C53 JUMP JUMPDEST JUMPDEST PUSH1 0x20 MUL PUSH1 0x20 ADD ADD MLOAD SWAP1 POP PUSH1 0x0 DUP1 DUP4 PUSH20 0xFFFFFFFFFFFFFFFFFFFFFFFFFFFFFFFFFFFFFFFF AND DUP7 PUSH20 0xFFFFFFFFFFFFFFFFFFFFFFFFFFFFFFFFFFFFFFFF AND EQ PUSH2 0x2CA8 JUMPI DUP3 PUSH1 0x0 PUSH2 0x2CAC JUMP JUMPDEST PUSH1 0x0 DUP4 JUMPDEST SWAP2 POP SWAP2 POP PUSH1 0x0 PUSH1 0x2 DUP11 MLOAD PUSH2 0x2CC0 SWAP2 SWAP1 PUSH2 0x4A32 JUMP JUMPDEST DUP9 LT PUSH2 0x2CCC JUMPI DUP9 PUSH2 0x2D1E JUMP JUMPDEST PUSH2 0x2D1D PUSH32 0x0 DUP8 DUP13 PUSH1 0x2 DUP13 PUSH2 0x2CFF SWAP2 SWAP1 PUSH2 0x4951 JUMP JUMPDEST DUP2 MLOAD DUP2 LT PUSH2 0x2D10 JUMPI PUSH2 0x2D0F PUSH2 0x4C53 JUMP JUMPDEST JUMPDEST PUSH1 0x20 MUL PUSH1 0x20 ADD ADD MLOAD PUSH2 0x2A00 JUMP JUMPDEST JUMPDEST SWAP1 POP PUSH2 0x2D4B PUSH32 0x0 DUP9 DUP9 PUSH2 0x2A00 JUMP JUMPDEST PUSH20 0xFFFFFFFFFFFFFFFFFFFFFFFFFFFFFFFFFFFFFFFF AND PUSH4 0x22C0D9F DUP5 DUP5 DUP5 PUSH1 0x0 PUSH8 0xFFFFFFFFFFFFFFFF DUP2 GT ISZERO PUSH2 0x2D84 JUMPI PUSH2 0x2D83 PUSH2 0x4C82 JUMP JUMPDEST JUMPDEST PUSH1 0x40 MLOAD SWAP1 DUP1 DUP3 MSTORE DUP1 PUSH1 0x1F ADD PUSH1 0x1F NOT AND PUSH1 0x20 ADD DUP3 ADD PUSH1 0x40 MSTORE DUP1 ISZERO PUSH2 0x2DB6 JUMPI DUP2 PUSH1 0x20 ADD PUSH1 0x1 DUP3 MUL DUP1 CALLDATASIZE DUP4 CALLDATACOPY DUP1 DUP3 ADD SWAP2 POP POP SWAP1 POP JUMPDEST POP PUSH1 0x40 MLOAD DUP6 PUSH4 0xFFFFFFFF AND PUSH1 0xE0 SHL DUP2 MSTORE PUSH1 0x4 ADD PUSH2 0x2DD6 SWAP5 SWAP4 SWAP3 SWAP2 SWAP1 PUSH2 0x480C JUMP JUMPDEST PUSH1 0x0 PUSH1 0x40 MLOAD DUP1 DUP4 SUB DUP2 PUSH1 0x0 DUP8 DUP1 EXTCODESIZE ISZERO DUP1 ISZERO PUSH2 0x2DF0 JUMPI PUSH1 0x0 DUP1 REVERT JUMPDEST POP GAS CALL ISZERO DUP1 ISZERO PUSH2 0x2E04 JUMPI RETURNDATASIZE PUSH1 0x0 DUP1 RETURNDATACOPY RETURNDATASIZE PUSH1 0x0 REVERT JUMPDEST POP POP POP POP POP POP POP POP POP POP POP DUP1 DUP1 PUSH2 0x2E1A SWAP1 PUSH2 0x4B7D JUMP JUMPDEST SWAP2 POP POP PUSH2 0x2BD2 JUMP JUMPDEST POP POP POP POP JUMP JUMPDEST PUSH1 0x60 PUSH1 0x2 DUP3 MLOAD LT ISZERO PUSH2 0x2E6F JUMPI PUSH1 0x40 MLOAD PUSH32 0x8C379A000000000000000000000000000000000000000000000000000000000 DUP2 MSTORE PUSH1 0x4 ADD PUSH2 0x2E66 SWAP1 PUSH2 0x46A8 JUMP JUMPDEST PUSH1 0x40 MLOAD DUP1 SWAP2 SUB SWAP1 REVERT JUMPDEST DUP2 MLOAD PUSH8 0xFFFFFFFFFFFFFFFF DUP2 GT ISZERO PUSH2 0x2E8A JUMPI PUSH2 0x2E89 PUSH2 0x4C82 JUMP JUMPDEST JUMPDEST PUSH1 0x40 MLOAD SWAP1 DUP1 DUP3 MSTORE DUP1 PUSH1 0x20 MUL PUSH1 0x20 ADD DUP3 ADD PUSH1 0x40 MSTORE DUP1 ISZERO PUSH2 0x2EB8 JUMPI DUP2 PUSH1 0x20 ADD PUSH1 0x20 DUP3 MUL DUP1 CALLDATASIZE DUP4 CALLDATACOPY DUP1 DUP3 ADD SWAP2 POP POP SWAP1 POP JUMPDEST POP SWAP1 POP DUP3 DUP2 PUSH1 0x1 DUP4 MLOAD PUSH2 0x2ECB SWAP2 SWAP1 PUSH2 0x4A32 JUMP JUMPDEST DUP2 MLOAD DUP2 LT PUSH2 0x2EDC JUMPI PUSH2 0x2EDB PUSH2 0x4C53 JUMP JUMPDEST JUMPDEST PUSH1 0x20 MUL PUSH1 0x20 ADD ADD DUP2 DUP2 MSTORE POP POP PUSH1 0x0 PUSH1 0x1 DUP4 MLOAD PUSH2 0x2EF8 SWAP2 SWAP1 PUSH2 0x4A32 JUMP JUMPDEST SWAP1 POP JUMPDEST PUSH1 0x0 DUP2 GT ISZERO PUSH2 0x2FBB JUMPI PUSH1 0x0 DUP1 PUSH2 0x2F52 DUP8 DUP7 PUSH1 0x1 DUP7 PUSH2 0x2F19 SWAP2 SWAP1 PUSH2 0x4A32 JUMP JUMPDEST DUP2 MLOAD DUP2 LT PUSH2 0x2F2A JUMPI PUSH2 0x2F29 PUSH2 0x4C53 JUMP JUMPDEST JUMPDEST PUSH1 0x20 MUL PUSH1 0x20 ADD ADD MLOAD DUP8 DUP7 DUP2 MLOAD DUP2 LT PUSH2 0x2F45 JUMPI PUSH2 0x2F44 PUSH2 0x4C53 JUMP JUMPDEST JUMPDEST PUSH1 0x20 MUL PUSH1 0x20 ADD ADD MLOAD PUSH2 0x353E JUMP JUMPDEST SWAP2 POP SWAP2 POP PUSH2 0x2F7B DUP5 DUP5 DUP2 MLOAD DUP2 LT PUSH2 0x2F6C JUMPI PUSH2 0x2F6B PUSH2 0x4C53 JUMP JUMPDEST JUMPDEST PUSH1 0x20 MUL PUSH1 0x20 ADD ADD MLOAD DUP4 DUP4 PUSH2 0x3656 JUMP JUMPDEST DUP5 PUSH1 0x1 DUP6 PUSH2 0x2F89 SWAP2 SWAP1 PUSH2 0x4A32 JUMP JUMPDEST DUP2 MLOAD DUP2 LT PUSH2 0x2F9A JUMPI PUSH2 0x2F99 PUSH2 0x4C53 JUMP JUMPDEST JUMPDEST PUSH1 0x20 MUL PUSH1 0x20 ADD ADD DUP2 DUP2 MSTORE POP POP POP POP DUP1 DUP1 PUSH2 0x2FB3 SWAP1 PUSH2 0x4B22 JUMP JUMPDEST SWAP2 POP POP PUSH2 0x2EFB JUMP JUMPDEST POP SWAP4 SWAP3 POP POP POP JUMP JUMPDEST PUSH1 0x0 DUP1 DUP5 GT PUSH2 0x3007 JUMPI PUSH1 0x40 MLOAD PUSH32 0x8C379A000000000000000000000000000000000000000000000000000000000 DUP2 MSTORE PUSH1 0x4 ADD PUSH2 0x2FFE SWAP1 PUSH2 0x46E8 JUMP JUMPDEST PUSH1 0x40 MLOAD DUP1 SWAP2 SUB SWAP1 REVERT JUMPDEST PUSH1 0x0 DUP4 GT DUP1 ISZERO PUSH2 0x3017 JUMPI POP PUSH1 0x0 DUP3 GT JUMPDEST PUSH2 0x3056 JUMPI PUSH1 0x40 MLOAD PUSH32 0x8C379A000000000000000000000000000000000000000000000000000000000 DUP2 MSTORE PUSH1 0x4 ADD PUSH2 0x304D SWAP1 PUSH2 0x46C8 JUMP JUMPDEST PUSH1 0x40 MLOAD DUP1 SWAP2 SUB SWAP1 REVERT JUMPDEST DUP3 PUSH2 0x306A DUP4 DUP7 PUSH2 0x3478 SWAP1 SWAP2 SWAP1 PUSH4 0xFFFFFFFF AND JUMP JUMPDEST PUSH2 0x3074 SWAP2 SWAP1 PUSH2 0x49A7 JUMP JUMPDEST SWAP1 POP SWAP4 SWAP3 POP POP POP JUMP JUMPDEST PUSH1 0x0 DUP1 DUP3 PUSH20 0xFFFFFFFFFFFFFFFFFFFFFFFFFFFFFFFFFFFFFFFF AND DUP5 PUSH20 0xFFFFFFFFFFFFFFFFFFFFFFFFFFFFFFFFFFFFFFFF AND EQ ISZERO PUSH2 0x30EF JUMPI PUSH1 0x40 MLOAD PUSH32 0x8C379A000000000000000000000000000000000000000000000000000000000 DUP2 MSTORE PUSH1 0x4 ADD PUSH2 0x30E6 SWAP1 PUSH2 0x4648 JUMP JUMPDEST PUSH1 0x40 MLOAD DUP1 SWAP2 SUB SWAP1 REVERT JUMPDEST DUP3 PUSH20 0xFFFFFFFFFFFFFFFFFFFFFFFFFFFFFFFFFFFFFFFF AND DUP5 PUSH20 0xFFFFFFFFFFFFFFFFFFFFFFFFFFFFFFFFFFFFFFFF AND LT PUSH2 0x3129 JUMPI DUP3 DUP5 PUSH2 0x312C JUMP JUMPDEST DUP4 DUP4 JUMPDEST DUP1 SWAP3 POP DUP2 SWAP4 POP POP POP PUSH1 0x0 PUSH20 0xFFFFFFFFFFFFFFFFFFFFFFFFFFFFFFFFFFFFFFFF AND DUP3 PUSH20 0xFFFFFFFFFFFFFFFFFFFFFFFFFFFFFFFFFFFFFFFF AND EQ ISZERO PUSH2 0x31A4 JUMPI PUSH1 0x40 MLOAD PUSH32 0x8C379A000000000000000000000000000000000000000000000000000000000 DUP2 MSTORE PUSH1 0x4 ADD PUSH2 0x319B SWAP1 PUSH2 0x4788 JUMP JUMPDEST PUSH1 0x40 MLOAD DUP1 SWAP2 SUB SWAP1 REVERT JUMPDEST SWAP3 POP SWAP3 SWAP1 POP JUMP JUMPDEST PUSH1 0x0 DUP1 PUSH1 0x0 PUSH20 0xFFFFFFFFFFFFFFFFFFFFFFFFFFFFFFFFFFFFFFFF AND PUSH32 0x0 PUSH20 0xFFFFFFFFFFFFFFFFFFFFFFFFFFFFFFFFFFFFFFFF AND PUSH4 0xE6A43905 DUP11 DUP11 PUSH1 0x40 MLOAD DUP4 PUSH4 0xFFFFFFFF AND PUSH1 0xE0 SHL DUP2 MSTORE PUSH1 0x4 ADD PUSH2 0x3221 SWAP3 SWAP2 SWAP1 PUSH2 0x444E JUMP JUMPDEST PUSH1 0x20 PUSH1 0x40 MLOAD DUP1 DUP4 SUB DUP2 DUP7 DUP1 EXTCODESIZE ISZERO DUP1 ISZERO PUSH2 0x3239 JUMPI PUSH1 0x0 DUP1 REVERT JUMPDEST POP GAS STATICCALL ISZERO DUP1 ISZERO PUSH2 0x324D JUMPI RETURNDATASIZE PUSH1 0x0 DUP1 RETURNDATACOPY RETURNDATASIZE PUSH1 0x0 REVERT JUMPDEST POP POP POP POP PUSH1 0x40 MLOAD RETURNDATASIZE PUSH1 0x1F NOT PUSH1 0x1F DUP3 ADD AND DUP3 ADD DUP1 PUSH1 0x40 MSTORE POP DUP2 ADD SWAP1 PUSH2 0x3271 SWAP2 SWAP1 PUSH2 0x39B5 JUMP JUMPDEST PUSH20 0xFFFFFFFFFFFFFFFFFFFFFFFFFFFFFFFFFFFFFFFF AND EQ ISZERO PUSH2 0x333C JUMPI PUSH32 0x0 PUSH20 0xFFFFFFFFFFFFFFFFFFFFFFFFFFFFFFFFFFFFFFFF AND PUSH4 0xC9C65396 DUP10 DUP10 PUSH1 0x40 MLOAD DUP4 PUSH4 0xFFFFFFFF AND PUSH1 0xE0 SHL DUP2 MSTORE PUSH1 0x4 ADD PUSH2 0x32E8 SWAP3 SWAP2 SWAP1 PUSH2 0x444E JUMP JUMPDEST PUSH1 0x20 PUSH1 0x40 MLOAD DUP1 DUP4 SUB DUP2 PUSH1 0x0 DUP8 DUP1 EXTCODESIZE ISZERO DUP1 ISZERO PUSH2 0x3302 JUMPI PUSH1 0x0 DUP1 REVERT JUMPDEST POP GAS CALL ISZERO DUP1 ISZERO PUSH2 0x3316 JUMPI RETURNDATASIZE PUSH1 0x0 DUP1 RETURNDATACOPY RETURNDATASIZE PUSH1 0x0 REVERT JUMPDEST POP POP POP POP PUSH1 0x40 MLOAD RETURNDATASIZE PUSH1 0x1F NOT PUSH1 0x1F DUP3 ADD AND DUP3 ADD DUP1 PUSH1 0x40 MSTORE POP DUP2 ADD SWAP1 PUSH2 0x333A SWAP2 SWAP1 PUSH2 0x39B5 JUMP JUMPDEST POP JUMPDEST PUSH1 0x0 DUP1 PUSH2 0x336A PUSH32 0x0 DUP12 DUP12 PUSH2 0x353E JUMP JUMPDEST SWAP2 POP SWAP2 POP PUSH1 0x0 DUP3 EQ DUP1 ISZERO PUSH2 0x337E JUMPI POP PUSH1 0x0 DUP2 EQ JUMPDEST ISZERO PUSH2 0x3392 JUMPI DUP8 DUP8 DUP1 SWAP5 POP DUP2 SWAP6 POP POP POP PUSH2 0x346B JUMP JUMPDEST PUSH1 0x0 PUSH2 0x339F DUP10 DUP5 DUP5 PUSH2 0x2FC3 JUMP JUMPDEST SWAP1 POP DUP8 DUP2 GT PUSH2 0x33FA JUMPI DUP6 DUP2 LT ISZERO PUSH2 0x33EB JUMPI PUSH1 0x40 MLOAD PUSH32 0x8C379A000000000000000000000000000000000000000000000000000000000 DUP2 MSTORE PUSH1 0x4 ADD PUSH2 0x33E2 SWAP1 PUSH2 0x4668 JUMP JUMPDEST PUSH1 0x40 MLOAD DUP1 SWAP2 SUB SWAP1 REVERT JUMPDEST DUP9 DUP2 DUP1 SWAP6 POP DUP2 SWAP7 POP POP POP PUSH2 0x3469 JUMP JUMPDEST PUSH1 0x0 PUSH2 0x3407 DUP10 DUP5 DUP7 PUSH2 0x2FC3 JUMP JUMPDEST SWAP1 POP DUP10 DUP2 GT ISZERO PUSH2 0x341A JUMPI PUSH2 0x3419 PUSH2 0x4BC6 JUMP JUMPDEST JUMPDEST DUP8 DUP2 LT ISZERO PUSH2 0x345D JUMPI PUSH1 0x40 MLOAD PUSH32 0x8C379A000000000000000000000000000000000000000000000000000000000 DUP2 MSTORE PUSH1 0x4 ADD PUSH2 0x3454 SWAP1 PUSH2 0x4728 JUMP JUMPDEST PUSH1 0x40 MLOAD DUP1 SWAP2 SUB SWAP1 REVERT JUMPDEST DUP1 DUP10 DUP1 SWAP7 POP DUP2 SWAP8 POP POP POP POP JUMPDEST POP JUMPDEST POP POP SWAP7 POP SWAP7 SWAP5 POP POP POP POP POP JUMP JUMPDEST PUSH1 0x0 DUP1 DUP3 EQ DUP1 PUSH2 0x34A0 JUMPI POP DUP3 DUP3 DUP4 DUP6 PUSH2 0x3491 SWAP2 SWAP1 PUSH2 0x49D8 JUMP JUMPDEST SWAP3 POP DUP3 PUSH2 0x349E SWAP2 SWAP1 PUSH2 0x49A7 JUMP JUMPDEST EQ JUMPDEST PUSH2 0x34DF JUMPI PUSH1 0x40 MLOAD PUSH32 0x8C379A000000000000000000000000000000000000000000000000000000000 DUP2 MSTORE PUSH1 0x4 ADD PUSH2 0x34D6 SWAP1 PUSH2 0x45A8 JUMP JUMPDEST PUSH1 0x40 MLOAD DUP1 SWAP2 SUB SWAP1 REVERT JUMPDEST SWAP3 SWAP2 POP POP JUMP JUMPDEST PUSH1 0x0 DUP3 DUP3 DUP5 PUSH2 0x34F4 SWAP2 SWAP1 PUSH2 0x4951 JUMP JUMPDEST SWAP2 POP DUP2 LT ISZERO PUSH2 0x3538 JUMPI PUSH1 0x40 MLOAD PUSH32 0x8C379A000000000000000000000000000000000000000000000000000000000 DUP2 MSTORE PUSH1 0x4 ADD PUSH2 0x352F SWAP1 PUSH2 0x45E8 JUMP JUMPDEST PUSH1 0x40 MLOAD DUP1 SWAP2 SUB SWAP1 REVERT JUMPDEST SWAP3 SWAP2 POP POP JUMP JUMPDEST PUSH1 0x0 DUP1 PUSH1 0x0 PUSH2 0x354D DUP6 DUP6 PUSH2 0x307D JUMP JUMPDEST POP SWAP1 POP PUSH1 0x0 PUSH2 0x355D DUP8 DUP8 DUP8 PUSH2 0x2A00 JUMP JUMPDEST SWAP1 POP PUSH1 0x0 DUP1 DUP3 PUSH20 0xFFFFFFFFFFFFFFFFFFFFFFFFFFFFFFFFFFFFFFFF AND PUSH4 0x902F1AC PUSH1 0x40 MLOAD DUP2 PUSH4 0xFFFFFFFF AND PUSH1 0xE0 SHL DUP2 MSTORE PUSH1 0x4 ADD PUSH1 0x60 PUSH1 0x40 MLOAD DUP1 DUP4 SUB DUP2 DUP7 DUP1 EXTCODESIZE ISZERO DUP1 ISZERO PUSH2 0x35A8 JUMPI PUSH1 0x0 DUP1 REVERT JUMPDEST POP GAS STATICCALL ISZERO DUP1 ISZERO PUSH2 0x35BC JUMPI RETURNDATASIZE PUSH1 0x0 DUP1 RETURNDATACOPY RETURNDATASIZE PUSH1 0x0 REVERT JUMPDEST POP POP POP POP PUSH1 0x40 MLOAD RETURNDATASIZE PUSH1 0x1F NOT PUSH1 0x1F DUP3 ADD AND DUP3 ADD DUP1 PUSH1 0x40 MSTORE POP DUP2 ADD SWAP1 PUSH2 0x35E0 SWAP2 SWAP1 PUSH2 0x3DC7 JUMP JUMPDEST POP PUSH14 0xFFFFFFFFFFFFFFFFFFFFFFFFFFFF AND SWAP2 POP PUSH14 0xFFFFFFFFFFFFFFFFFFFFFFFFFFFF AND SWAP2 POP DUP4 PUSH20 0xFFFFFFFFFFFFFFFFFFFFFFFFFFFFFFFFFFFFFFFF AND DUP9 PUSH20 0xFFFFFFFFFFFFFFFFFFFFFFFFFFFFFFFFFFFFFFFF AND EQ PUSH2 0x363F JUMPI DUP1 DUP3 PUSH2 0x3642 JUMP JUMPDEST DUP2 DUP2 JUMPDEST DUP1 SWAP7 POP DUP2 SWAP8 POP POP POP POP POP POP POP SWAP4 POP SWAP4 SWAP2 POP POP JUMP JUMPDEST PUSH1 0x0 DUP1 DUP5 GT PUSH2 0x369A JUMPI PUSH1 0x40 MLOAD PUSH32 0x8C379A000000000000000000000000000000000000000000000000000000000 DUP2 MSTORE PUSH1 0x4 ADD PUSH2 0x3691 SWAP1 PUSH2 0x45C8 JUMP JUMPDEST PUSH1 0x40 MLOAD DUP1 SWAP2 SUB SWAP1 REVERT JUMPDEST PUSH1 0x0 DUP4 GT DUP1 ISZERO PUSH2 0x36AA JUMPI POP PUSH1 0x0 DUP3 GT JUMPDEST PUSH2 0x36E9 JUMPI PUSH1 0x40 MLOAD PUSH32 0x8C379A000000000000000000000000000000000000000000000000000000000 DUP2 MSTORE PUSH1 0x4 ADD PUSH2 0x36E0 SWAP1 PUSH2 0x46C8 JUMP JUMPDEST PUSH1 0x40 MLOAD DUP1 SWAP2 SUB SWAP1 REVERT JUMPDEST PUSH1 0x0 PUSH2 0x3712 PUSH2 0x3E8 PUSH2 0x3704 DUP8 DUP8 PUSH2 0x3478 SWAP1 SWAP2 SWAP1 PUSH4 0xFFFFFFFF AND JUMP JUMPDEST PUSH2 0x3478 SWAP1 SWAP2 SWAP1 PUSH4 0xFFFFFFFF AND JUMP JUMPDEST SWAP1 POP PUSH1 0x0 PUSH2 0x373D PUSH2 0x3E5 PUSH2 0x372F DUP9 DUP8 PUSH2 0x3769 SWAP1 SWAP2 SWAP1 PUSH4 0xFFFFFFFF AND JUMP JUMPDEST PUSH2 0x3478 SWAP1 SWAP2 SWAP1 PUSH4 0xFFFFFFFF AND JUMP JUMPDEST SWAP1 POP PUSH2 0x375E PUSH1 0x1 DUP3 DUP5 PUSH2 0x3750 SWAP2 SWAP1 PUSH2 0x49A7 JUMP JUMPDEST PUSH2 0x34E5 SWAP1 SWAP2 SWAP1 PUSH4 0xFFFFFFFF AND JUMP JUMPDEST SWAP3 POP POP POP SWAP4 SWAP3 POP POP POP JUMP JUMPDEST PUSH1 0x0 DUP3 DUP3 DUP5 PUSH2 0x3778 SWAP2 SWAP1 PUSH2 0x4A32 JUMP JUMPDEST SWAP2 POP DUP2 GT ISZERO PUSH2 0x37BC JUMPI PUSH1 0x40 MLOAD PUSH32 0x8C379A000000000000000000000000000000000000000000000000000000000 DUP2 MSTORE PUSH1 0x4 ADD PUSH2 0x37B3 SWAP1 PUSH2 0x4568 JUMP JUMPDEST PUSH1 0x40 MLOAD DUP1 SWAP2 SUB SWAP1 REVERT JUMPDEST SWAP3 SWAP2 POP POP JUMP JUMPDEST PUSH1 0x0 PUSH2 0x37D5 PUSH2 0x37D0 DUP5 PUSH2 0x48B4 JUMP JUMPDEST PUSH2 0x488F JUMP JUMPDEST SWAP1 POP DUP1 DUP4 DUP3 MSTORE PUSH1 0x20 DUP3 ADD SWAP1 POP DUP3 DUP6 PUSH1 0x20 DUP7 MUL DUP3 ADD GT ISZERO PUSH2 0x37F8 JUMPI PUSH2 0x37F7 PUSH2 0x4CBB JUMP JUMPDEST JUMPDEST PUSH1 0x0 JUMPDEST DUP6 DUP2 LT ISZERO PUSH2 0x3828 JUMPI DUP2 PUSH2 0x380E DUP9 DUP3 PUSH2 0x3832 JUMP JUMPDEST DUP5 MSTORE PUSH1 0x20 DUP5 ADD SWAP4 POP PUSH1 0x20 DUP4 ADD SWAP3 POP POP PUSH1 0x1 DUP2 ADD SWAP1 POP PUSH2 0x37FB JUMP JUMPDEST POP POP POP SWAP4 SWAP3 POP POP POP JUMP JUMPDEST PUSH1 0x0 DUP2 CALLDATALOAD SWAP1 POP PUSH2 0x3841 DUP2 PUSH2 0x51AE JUMP JUMPDEST SWAP3 SWAP2 POP POP JUMP JUMPDEST PUSH1 0x0 DUP2 MLOAD SWAP1 POP PUSH2 0x3856 DUP2 PUSH2 0x51AE JUMP JUMPDEST SWAP3 SWAP2 POP POP JUMP JUMPDEST PUSH1 0x0 DUP1 DUP4 PUSH1 0x1F DUP5 ADD SLT PUSH2 0x3872 JUMPI PUSH2 0x3871 PUSH2 0x4CB6 JUMP JUMPDEST JUMPDEST DUP3 CALLDATALOAD SWAP1 POP PUSH8 0xFFFFFFFFFFFFFFFF DUP2 GT ISZERO PUSH2 0x388F JUMPI PUSH2 0x388E PUSH2 0x4CB1 JUMP JUMPDEST JUMPDEST PUSH1 0x20 DUP4 ADD SWAP2 POP DUP4 PUSH1 0x20 DUP3 MUL DUP4 ADD GT ISZERO PUSH2 0x38AB JUMPI PUSH2 0x38AA PUSH2 0x4CBB JUMP JUMPDEST JUMPDEST SWAP3 POP SWAP3 SWAP1 POP JUMP JUMPDEST PUSH1 0x0 DUP3 PUSH1 0x1F DUP4 ADD SLT PUSH2 0x38C7 JUMPI PUSH2 0x38C6 PUSH2 0x4CB6 JUMP JUMPDEST JUMPDEST DUP2 CALLDATALOAD PUSH2 0x38D7 DUP5 DUP3 PUSH1 0x20 DUP7 ADD PUSH2 0x37C2 JUMP JUMPDEST SWAP2 POP POP SWAP3 SWAP2 POP POP JUMP JUMPDEST PUSH1 0x0 DUP2 CALLDATALOAD SWAP1 POP PUSH2 0x38EF DUP2 PUSH2 0x51C5 JUMP JUMPDEST SWAP3 SWAP2 POP POP JUMP JUMPDEST PUSH1 0x0 DUP2 MLOAD SWAP1 POP PUSH2 0x3904 DUP2 PUSH2 0x51C5 JUMP JUMPDEST SWAP3 SWAP2 POP POP JUMP JUMPDEST PUSH1 0x0 DUP2 CALLDATALOAD SWAP1 POP PUSH2 0x3919 DUP2 PUSH2 0x51DC JUMP JUMPDEST SWAP3 SWAP2 POP POP JUMP JUMPDEST PUSH1 0x0 DUP2 MLOAD SWAP1 POP PUSH2 0x392E DUP2 PUSH2 0x51F3 JUMP JUMPDEST SWAP3 SWAP2 POP POP JUMP JUMPDEST PUSH1 0x0 DUP2 CALLDATALOAD SWAP1 POP PUSH2 0x3943 DUP2 PUSH2 0x520A JUMP JUMPDEST SWAP3 SWAP2 POP POP JUMP JUMPDEST PUSH1 0x0 DUP2 MLOAD SWAP1 POP PUSH2 0x3958 DUP2 PUSH2 0x520A JUMP JUMPDEST SWAP3 SWAP2 POP POP JUMP JUMPDEST PUSH1 0x0 DUP2 MLOAD SWAP1 POP PUSH2 0x396D DUP2 PUSH2 0x5221 JUMP JUMPDEST SWAP3 SWAP2 POP POP JUMP JUMPDEST PUSH1 0x0 DUP2 CALLDATALOAD SWAP1 POP PUSH2 0x3982 DUP2 PUSH2 0x5238 JUMP JUMPDEST SWAP3 SWAP2 POP POP JUMP JUMPDEST PUSH1 0x0 PUSH1 0x20 DUP3 DUP5 SUB SLT ISZERO PUSH2 0x399E JUMPI PUSH2 0x399D PUSH2 0x4CC5 JUMP JUMPDEST JUMPDEST PUSH1 0x0 PUSH2 0x39AC DUP5 DUP3 DUP6 ADD PUSH2 0x3832 JUMP JUMPDEST SWAP2 POP POP SWAP3 SWAP2 POP POP JUMP JUMPDEST PUSH1 0x0 PUSH1 0x20 DUP3 DUP5 SUB SLT ISZERO PUSH2 0x39CB JUMPI PUSH2 0x39CA PUSH2 0x4CC5 JUMP JUMPDEST JUMPDEST PUSH1 0x0 PUSH2 0x39D9 DUP5 DUP3 DUP6 ADD PUSH2 0x3847 JUMP JUMPDEST SWAP2 POP POP SWAP3 SWAP2 POP POP JUMP JUMPDEST PUSH1 0x0 DUP1 PUSH1 0x0 DUP1 PUSH1 0x0 DUP1 PUSH1 0x0 PUSH1 0xE0 DUP9 DUP11 SUB SLT ISZERO PUSH2 0x3A01 JUMPI PUSH2 0x3A00 PUSH2 0x4CC5 JUMP JUMPDEST JUMPDEST PUSH1 0x0 PUSH2 0x3A0F DUP11 DUP3 DUP12 ADD PUSH2 0x3832 JUMP JUMPDEST SWAP8 POP POP PUSH1 0x20 PUSH2 0x3A20 DUP11 DUP3 DUP12 ADD PUSH2 0x3832 JUMP JUMPDEST SWAP7 POP POP PUSH1 0x40 PUSH2 0x3A31 DUP11 DUP3 DUP12 ADD PUSH2 0x3934 JUMP JUMPDEST SWAP6 POP POP PUSH1 0x60 PUSH2 0x3A42 DUP11 DUP3 DUP12 ADD PUSH2 0x3934 JUMP JUMPDEST SWAP5 POP POP PUSH1 0x80 PUSH2 0x3A53 DUP11 DUP3 DUP12 ADD PUSH2 0x3934 JUMP JUMPDEST SWAP4 POP POP PUSH1 0xA0 PUSH2 0x3A64 DUP11 DUP3 DUP12 ADD PUSH2 0x3832 JUMP JUMPDEST SWAP3 POP POP PUSH1 0xC0 PUSH2 0x3A75 DUP11 DUP3 DUP12 ADD PUSH2 0x3934 JUMP JUMPDEST SWAP2 POP POP SWAP3 SWAP6 SWAP9 SWAP2 SWAP5 SWAP8 POP SWAP3 SWAP6 POP JUMP JUMPDEST PUSH1 0x0 DUP1 PUSH1 0x0 DUP1 PUSH1 0x0 DUP1 PUSH1 0x0 DUP1 PUSH1 0x0 DUP1 PUSH1 0x0 PUSH2 0x160 DUP13 DUP15 SUB SLT ISZERO PUSH2 0x3AAA JUMPI PUSH2 0x3AA9 PUSH2 0x4CC5 JUMP JUMPDEST JUMPDEST PUSH1 0x0 PUSH2 0x3AB8 DUP15 DUP3 DUP16 ADD PUSH2 0x3832 JUMP JUMPDEST SWAP12 POP POP PUSH1 0x20 PUSH2 0x3AC9 DUP15 DUP3 DUP16 ADD PUSH2 0x3832 JUMP JUMPDEST SWAP11 POP POP PUSH1 0x40 PUSH2 0x3ADA DUP15 DUP3 DUP16 ADD PUSH2 0x3934 JUMP JUMPDEST SWAP10 POP POP PUSH1 0x60 PUSH2 0x3AEB DUP15 DUP3 DUP16 ADD PUSH2 0x3934 JUMP JUMPDEST SWAP9 POP POP PUSH1 0x80 PUSH2 0x3AFC DUP15 DUP3 DUP16 ADD PUSH2 0x3934 JUMP JUMPDEST SWAP8 POP POP PUSH1 0xA0 PUSH2 0x3B0D DUP15 DUP3 DUP16 ADD PUSH2 0x3832 JUMP JUMPDEST SWAP7 POP POP PUSH1 0xC0 PUSH2 0x3B1E DUP15 DUP3 DUP16 ADD PUSH2 0x3934 JUMP JUMPDEST SWAP6 POP POP PUSH1 0xE0 PUSH2 0x3B2F DUP15 DUP3 DUP16 ADD PUSH2 0x38E0 JUMP JUMPDEST SWAP5 POP POP PUSH2 0x100 PUSH2 0x3B41 DUP15 DUP3 DUP16 ADD PUSH2 0x3973 JUMP JUMPDEST SWAP4 POP POP PUSH2 0x120 PUSH2 0x3B53 DUP15 DUP3 DUP16 ADD PUSH2 0x390A JUMP JUMPDEST SWAP3 POP POP PUSH2 0x140 PUSH2 0x3B65 DUP15 DUP3 DUP16 ADD PUSH2 0x390A JUMP JUMPDEST SWAP2 POP POP SWAP3 SWAP6 SWAP9 SWAP12 POP SWAP3 SWAP6 SWAP9 SWAP12 SWAP1 SWAP4 SWAP7 SWAP10 POP JUMP JUMPDEST PUSH1 0x0 DUP1 PUSH1 0x0 DUP1 PUSH1 0x0 DUP1 PUSH1 0x0 DUP1 PUSH2 0x100 DUP10 DUP12 SUB SLT ISZERO PUSH2 0x3B99 JUMPI PUSH2 0x3B98 PUSH2 0x4CC5 JUMP JUMPDEST JUMPDEST PUSH1 0x0 PUSH2 0x3BA7 DUP12 DUP3 DUP13 ADD PUSH2 0x3832 JUMP JUMPDEST SWAP9 POP POP PUSH1 0x20 PUSH2 0x3BB8 DUP12 DUP3 DUP13 ADD PUSH2 0x3832 JUMP JUMPDEST SWAP8 POP POP PUSH1 0x40 PUSH2 0x3BC9 DUP12 DUP3 DUP13 ADD PUSH2 0x3934 JUMP JUMPDEST SWAP7 POP POP PUSH1 0x60 PUSH2 0x3BDA DUP12 DUP3 DUP13 ADD PUSH2 0x3934 JUMP JUMPDEST SWAP6 POP POP PUSH1 0x80 PUSH2 0x3BEB DUP12 DUP3 DUP13 ADD PUSH2 0x3934 JUMP JUMPDEST SWAP5 POP POP PUSH1 0xA0 PUSH2 0x3BFC DUP12 DUP3 DUP13 ADD PUSH2 0x3934 JUMP JUMPDEST SWAP4 POP POP PUSH1 0xC0 PUSH2 0x3C0D DUP12 DUP3 DUP13 ADD PUSH2 0x3832 JUMP JUMPDEST SWAP3 POP POP PUSH1 0xE0 PUSH2 0x3C1E DUP12 DUP3 DUP13 ADD PUSH2 0x3934 JUMP JUMPDEST SWAP2 POP POP SWAP3 SWAP6 SWAP9 POP SWAP3 SWAP6 SWAP9 SWAP1 SWAP4 SWAP7 POP JUMP JUMPDEST PUSH1 0x0 DUP1 PUSH1 0x0 DUP1 PUSH1 0x0 DUP1 PUSH1 0xC0 DUP8 DUP10 SUB SLT ISZERO PUSH2 0x3C4B JUMPI PUSH2 0x3C4A PUSH2 0x4CC5 JUMP JUMPDEST JUMPDEST PUSH1 0x0 PUSH2 0x3C59 DUP10 DUP3 DUP11 ADD PUSH2 0x3832 JUMP JUMPDEST SWAP7 POP POP PUSH1 0x20 PUSH2 0x3C6A DUP10 DUP3 DUP11 ADD PUSH2 0x3934 JUMP JUMPDEST SWAP6 POP POP PUSH1 0x40 PUSH2 0x3C7B DUP10 DUP3 DUP11 ADD PUSH2 0x3934 JUMP JUMPDEST SWAP5 POP POP PUSH1 0x60 PUSH2 0x3C8C DUP10 DUP3 DUP11 ADD PUSH2 0x3934 JUMP JUMPDEST SWAP4 POP POP PUSH1 0x80 PUSH2 0x3C9D DUP10 DUP3 DUP11 ADD PUSH2 0x3832 JUMP JUMPDEST SWAP3 POP POP PUSH1 0xA0 PUSH2 0x3CAE DUP10 DUP3 DUP11 ADD PUSH2 0x3934 JUMP JUMPDEST SWAP2 POP POP SWAP3 SWAP6 POP SWAP3 SWAP6 POP SWAP3 SWAP6 JUMP JUMPDEST PUSH1 0x0 DUP1 PUSH1 0x0 DUP1 PUSH1 0x0 DUP1 PUSH1 0x0 DUP1 PUSH1 0x0 DUP1 PUSH2 0x140 DUP12 DUP14 SUB SLT ISZERO PUSH2 0x3CDF JUMPI PUSH2 0x3CDE PUSH2 0x4CC5 JUMP JUMPDEST JUMPDEST PUSH1 0x0 PUSH2 0x3CED DUP14 DUP3 DUP15 ADD PUSH2 0x3832 JUMP JUMPDEST SWAP11 POP POP PUSH1 0x20 PUSH2 0x3CFE DUP14 DUP3 DUP15 ADD PUSH2 0x3934 JUMP JUMPDEST SWAP10 POP POP PUSH1 0x40 PUSH2 0x3D0F DUP14 DUP3 DUP15 ADD PUSH2 0x3934 JUMP JUMPDEST SWAP9 POP POP PUSH1 0x60 PUSH2 0x3D20 DUP14 DUP3 DUP15 ADD PUSH2 0x3934 JUMP JUMPDEST SWAP8 POP POP PUSH1 0x80 PUSH2 0x3D31 DUP14 DUP3 DUP15 ADD PUSH2 0x3832 JUMP JUMPDEST SWAP7 POP POP PUSH1 0xA0 PUSH2 0x3D42 DUP14 DUP3 DUP15 ADD PUSH2 0x3934 JUMP JUMPDEST SWAP6 POP POP PUSH1 0xC0 PUSH2 0x3D53 DUP14 DUP3 DUP15 ADD PUSH2 0x38E0 JUMP JUMPDEST SWAP5 POP POP PUSH1 0xE0 PUSH2 0x3D64 DUP14 DUP3 DUP15 ADD PUSH2 0x3973 JUMP JUMPDEST SWAP4 POP POP PUSH2 0x100 PUSH2 0x3D76 DUP14 DUP3 DUP15 ADD PUSH2 0x390A JUMP JUMPDEST SWAP3 POP POP PUSH2 0x120 PUSH2 0x3D88 DUP14 DUP3 DUP15 ADD PUSH2 0x390A JUMP JUMPDEST SWAP2 POP POP SWAP3 SWAP6 SWAP9 SWAP12 SWAP2 SWAP5 SWAP8 SWAP11 POP SWAP3 SWAP6 SWAP9 POP JUMP JUMPDEST PUSH1 0x0 PUSH1 0x20 DUP3 DUP5 SUB SLT ISZERO PUSH2 0x3DB0 JUMPI PUSH2 0x3DAF PUSH2 0x4CC5 JUMP JUMPDEST JUMPDEST PUSH1 0x0 PUSH2 0x3DBE DUP5 DUP3 DUP6 ADD PUSH2 0x38F5 JUMP JUMPDEST SWAP2 POP POP SWAP3 SWAP2 POP POP JUMP JUMPDEST PUSH1 0x0 DUP1 PUSH1 0x0 PUSH1 0x60 DUP5 DUP7 SUB SLT ISZERO PUSH2 0x3DE0 JUMPI PUSH2 0x3DDF PUSH2 0x4CC5 JUMP JUMPDEST JUMPDEST PUSH1 0x0 PUSH2 0x3DEE DUP7 DUP3 DUP8 ADD PUSH2 0x391F JUMP JUMPDEST SWAP4 POP POP PUSH1 0x20 PUSH2 0x3DFF DUP7 DUP3 DUP8 ADD PUSH2 0x391F JUMP JUMPDEST SWAP3 POP POP PUSH1 0x40 PUSH2 0x3E10 DUP7 DUP3 DUP8 ADD PUSH2 0x395E JUMP JUMPDEST SWAP2 POP POP SWAP3 POP SWAP3 POP SWAP3 JUMP JUMPDEST PUSH1 0x0 PUSH1 0x20 DUP3 DUP5 SUB SLT ISZERO PUSH2 0x3E30 JUMPI PUSH2 0x3E2F PUSH2 0x4CC5 JUMP JUMPDEST JUMPDEST PUSH1 0x0 PUSH2 0x3E3E DUP5 DUP3 DUP6 ADD PUSH2 0x3949 JUMP JUMPDEST SWAP2 POP POP SWAP3 SWAP2 POP POP JUMP JUMPDEST PUSH1 0x0 DUP1 PUSH1 0x0 DUP1 PUSH1 0x0 PUSH1 0x80 DUP7 DUP9 SUB SLT ISZERO PUSH2 0x3E63 JUMPI PUSH2 0x3E62 PUSH2 0x4CC5 JUMP JUMPDEST JUMPDEST PUSH1 0x0 PUSH2 0x3E71 DUP9 DUP3 DUP10 ADD PUSH2 0x3934 JUMP JUMPDEST SWAP6 POP POP PUSH1 0x20 DUP7 ADD CALLDATALOAD PUSH8 0xFFFFFFFFFFFFFFFF DUP2 GT ISZERO PUSH2 0x3E92 JUMPI PUSH2 0x3E91 PUSH2 0x4CC0 JUMP JUMPDEST JUMPDEST PUSH2 0x3E9E DUP9 DUP3 DUP10 ADD PUSH2 0x385C JUMP JUMPDEST SWAP5 POP SWAP5 POP POP PUSH1 0x40 PUSH2 0x3EB1 DUP9 DUP3 DUP10 ADD PUSH2 0x3832 JUMP JUMPDEST SWAP3 POP POP PUSH1 0x60 PUSH2 0x3EC2 DUP9 DUP3 DUP10 ADD PUSH2 0x3934 JUMP JUMPDEST SWAP2 POP POP SWAP3 SWAP6 POP SWAP3 SWAP6 SWAP1 SWAP4 POP JUMP JUMPDEST PUSH1 0x0 DUP1 PUSH1 0x40 DUP4 DUP6 SUB SLT ISZERO PUSH2 0x3EE6 JUMPI PUSH2 0x3EE5 PUSH2 0x4CC5 JUMP JUMPDEST JUMPDEST PUSH1 0x0 PUSH2 0x3EF4 DUP6 DUP3 DUP7 ADD PUSH2 0x3934 JUMP JUMPDEST SWAP3 POP POP PUSH1 0x20 DUP4 ADD CALLDATALOAD PUSH8 0xFFFFFFFFFFFFFFFF DUP2 GT ISZERO PUSH2 0x3F15 JUMPI PUSH2 0x3F14 PUSH2 0x4CC0 JUMP JUMPDEST JUMPDEST PUSH2 0x3F21 DUP6 DUP3 DUP7 ADD PUSH2 0x38B2 JUMP JUMPDEST SWAP2 POP POP SWAP3 POP SWAP3 SWAP1 POP JUMP JUMPDEST PUSH1 0x0 DUP1 PUSH1 0x40 DUP4 DUP6 SUB SLT ISZERO PUSH2 0x3F42 JUMPI PUSH2 0x3F41 PUSH2 0x4CC5 JUMP JUMPDEST JUMPDEST PUSH1 0x0 PUSH2 0x3F50 DUP6 DUP3 DUP7 ADD PUSH2 0x3949 JUMP JUMPDEST SWAP3 POP POP PUSH1 0x20 PUSH2 0x3F61 DUP6 DUP3 DUP7 ADD PUSH2 0x3949 JUMP JUMPDEST SWAP2 POP POP SWAP3 POP SWAP3 SWAP1 POP JUMP JUMPDEST PUSH1 0x0 DUP1 PUSH1 0x0 DUP1 PUSH1 0x0 DUP1 PUSH1 0xA0 DUP8 DUP10 SUB SLT ISZERO PUSH2 0x3F88 JUMPI PUSH2 0x3F87 PUSH2 0x4CC5 JUMP JUMPDEST JUMPDEST PUSH1 0x0 PUSH2 0x3F96 DUP10 DUP3 DUP11 ADD PUSH2 0x3934 JUMP JUMPDEST SWAP7 POP POP PUSH1 0x20 PUSH2 0x3FA7 DUP10 DUP3 DUP11 ADD PUSH2 0x3934 JUMP JUMPDEST SWAP6 POP POP PUSH1 0x40 DUP8 ADD CALLDATALOAD PUSH8 0xFFFFFFFFFFFFFFFF DUP2 GT ISZERO PUSH2 0x3FC8 JUMPI PUSH2 0x3FC7 PUSH2 0x4CC0 JUMP JUMPDEST JUMPDEST PUSH2 0x3FD4 DUP10 DUP3 DUP11 ADD PUSH2 0x385C JUMP JUMPDEST SWAP5 POP SWAP5 POP POP PUSH1 0x60 PUSH2 0x3FE7 DUP10 DUP3 DUP11 ADD PUSH2 0x3832 JUMP JUMPDEST SWAP3 POP POP PUSH1 0x80 PUSH2 0x3FF8 DUP10 DUP3 DUP11 ADD PUSH2 0x3934 JUMP JUMPDEST SWAP2 POP POP SWAP3 SWAP6 POP SWAP3 SWAP6 POP SWAP3 SWAP6 JUMP JUMPDEST PUSH1 0x0 DUP1 PUSH1 0x0 PUSH1 0x60 DUP5 DUP7 SUB SLT ISZERO PUSH2 0x401E JUMPI PUSH2 0x401D PUSH2 0x4CC5 JUMP JUMPDEST JUMPDEST PUSH1 0x0 PUSH2 0x402C DUP7 DUP3 DUP8 ADD PUSH2 0x3934 JUMP JUMPDEST SWAP4 POP POP PUSH1 0x20 PUSH2 0x403D DUP7 DUP3 DUP8 ADD PUSH2 0x3934 JUMP JUMPDEST SWAP3 POP POP PUSH1 0x40 PUSH2 0x404E DUP7 DUP3 DUP8 ADD PUSH2 0x3934 JUMP JUMPDEST SWAP2 POP POP SWAP3 POP SWAP3 POP SWAP3 JUMP JUMPDEST PUSH1 0x0 PUSH2 0x4064 DUP4 DUP4 PUSH2 0x43EF JUMP JUMPDEST PUSH1 0x20 DUP4 ADD SWAP1 POP SWAP3 SWAP2 POP POP JUMP JUMPDEST PUSH2 0x4079 DUP2 PUSH2 0x4A66 JUMP JUMPDEST DUP3 MSTORE POP POP JUMP JUMPDEST PUSH1 0x0 PUSH2 0x408A DUP3 PUSH2 0x48F0 JUMP JUMPDEST PUSH2 0x4094 DUP2 DUP6 PUSH2 0x4913 JUMP JUMPDEST SWAP4 POP PUSH2 0x409F DUP4 PUSH2 0x48E0 JUMP JUMPDEST DUP1 PUSH1 0x0 JUMPDEST DUP4 DUP2 LT ISZERO PUSH2 0x40D0 JUMPI DUP2 MLOAD PUSH2 0x40B7 DUP9 DUP3 PUSH2 0x4058 JUMP JUMPDEST SWAP8 POP PUSH2 0x40C2 DUP4 PUSH2 0x4906 JUMP JUMPDEST SWAP3 POP POP PUSH1 0x1 DUP2 ADD SWAP1 POP PUSH2 0x40A3 JUMP JUMPDEST POP DUP6 SWAP4 POP POP POP POP SWAP3 SWAP2 POP POP JUMP JUMPDEST PUSH2 0x40E6 DUP2 PUSH2 0x4A84 JUMP JUMPDEST DUP3 MSTORE POP POP JUMP JUMPDEST PUSH1 0x0 PUSH2 0x40F7 DUP3 PUSH2 0x48FB JUMP JUMPDEST PUSH2 0x4101 DUP2 DUP6 PUSH2 0x4924 JUMP JUMPDEST SWAP4 POP PUSH2 0x4111 DUP2 DUP6 PUSH1 0x20 DUP7 ADD PUSH2 0x4AEF JUMP JUMPDEST PUSH2 0x411A DUP2 PUSH2 0x4CCA JUMP JUMPDEST DUP5 ADD SWAP2 POP POP SWAP3 SWAP2 POP POP JUMP JUMPDEST PUSH1 0x0 PUSH2 0x4130 DUP3 PUSH2 0x48FB JUMP JUMPDEST PUSH2 0x413A DUP2 DUP6 PUSH2 0x4935 JUMP JUMPDEST SWAP4 POP PUSH2 0x414A DUP2 DUP6 PUSH1 0x20 DUP7 ADD PUSH2 0x4AEF JUMP JUMPDEST DUP1 DUP5 ADD SWAP2 POP POP SWAP3 SWAP2 POP POP JUMP JUMPDEST PUSH1 0x0 PUSH2 0x4163 PUSH1 0x15 DUP4 PUSH2 0x4940 JUMP JUMPDEST SWAP2 POP PUSH2 0x416E DUP3 PUSH2 0x4CDB JUMP JUMPDEST PUSH1 0x20 DUP3 ADD SWAP1 POP SWAP2 SWAP1 POP JUMP JUMPDEST PUSH1 0x0 PUSH2 0x4186 PUSH1 0x18 DUP4 PUSH2 0x4940 JUMP JUMPDEST SWAP2 POP PUSH2 0x4191 DUP3 PUSH2 0x4D04 JUMP JUMPDEST PUSH1 0x20 DUP3 ADD SWAP1 POP SWAP2 SWAP1 POP JUMP JUMPDEST PUSH1 0x0 PUSH2 0x41A9 PUSH1 0x14 DUP4 PUSH2 0x4940 JUMP JUMPDEST SWAP2 POP PUSH2 0x41B4 DUP3 PUSH2 0x4D2D JUMP JUMPDEST PUSH1 0x20 DUP3 ADD SWAP1 POP SWAP2 SWAP1 POP JUMP JUMPDEST PUSH1 0x0 PUSH2 0x41CC PUSH1 0x2C DUP4 PUSH2 0x4940 JUMP JUMPDEST SWAP2 POP PUSH2 0x41D7 DUP3 PUSH2 0x4D56 JUMP JUMPDEST PUSH1 0x40 DUP3 ADD SWAP1 POP SWAP2 SWAP1 POP JUMP JUMPDEST PUSH1 0x0 PUSH2 0x41EF PUSH1 0x14 DUP4 PUSH2 0x4940 JUMP JUMPDEST SWAP2 POP PUSH2 0x41FA DUP3 PUSH2 0x4DA5 JUMP JUMPDEST PUSH1 0x20 DUP3 ADD SWAP1 POP SWAP2 SWAP1 POP JUMP JUMPDEST PUSH1 0x0 PUSH2 0x4212 PUSH1 0x31 DUP4 PUSH2 0x4940 JUMP JUMPDEST SWAP2 POP PUSH2 0x421D DUP3 PUSH2 0x4DCE JUMP JUMPDEST PUSH1 0x40 DUP3 ADD SWAP1 POP SWAP2 SWAP1 POP JUMP JUMPDEST PUSH1 0x0 PUSH2 0x4235 PUSH1 0x34 DUP4 PUSH2 0x4940 JUMP JUMPDEST SWAP2 POP PUSH2 0x4240 DUP3 PUSH2 0x4E1D JUMP JUMPDEST PUSH1 0x40 DUP3 ADD SWAP1 POP SWAP2 SWAP1 POP JUMP JUMPDEST PUSH1 0x0 PUSH2 0x4258 PUSH1 0x25 DUP4 PUSH2 0x4940 JUMP JUMPDEST SWAP2 POP PUSH2 0x4263 DUP3 PUSH2 0x4E6C JUMP JUMPDEST PUSH1 0x40 DUP3 ADD SWAP1 POP SWAP2 SWAP1 POP JUMP JUMPDEST PUSH1 0x0 PUSH2 0x427B PUSH1 0x26 DUP4 PUSH2 0x4940 JUMP JUMPDEST SWAP2 POP PUSH2 0x4286 DUP3 PUSH2 0x4EBB JUMP JUMPDEST PUSH1 0x40 DUP3 ADD SWAP1 POP SWAP2 SWAP1 POP JUMP JUMPDEST PUSH1 0x0 PUSH2 0x429E PUSH1 0x1D DUP4 PUSH2 0x4940 JUMP JUMPDEST SWAP2 POP PUSH2 0x42A9 DUP3 PUSH2 0x4F0A JUMP JUMPDEST PUSH1 0x20 DUP3 ADD SWAP1 POP SWAP2 SWAP1 POP JUMP JUMPDEST PUSH1 0x0 PUSH2 0x42C1 PUSH1 0x1E DUP4 PUSH2 0x4940 JUMP JUMPDEST SWAP2 POP PUSH2 0x42CC DUP3 PUSH2 0x4F33 JUMP JUMPDEST PUSH1 0x20 DUP3 ADD SWAP1 POP SWAP2 SWAP1 POP JUMP JUMPDEST PUSH1 0x0 PUSH2 0x42E4 PUSH1 0x28 DUP4 PUSH2 0x4940 JUMP JUMPDEST SWAP2 POP PUSH2 0x42EF DUP3 PUSH2 0x4F5C JUMP JUMPDEST PUSH1 0x40 DUP3 ADD SWAP1 POP SWAP2 SWAP1 POP JUMP JUMPDEST PUSH1 0x0 PUSH2 0x4307 PUSH1 0x25 DUP4 PUSH2 0x4940 JUMP JUMPDEST SWAP2 POP PUSH2 0x4312 DUP3 PUSH2 0x4FAB JUMP JUMPDEST PUSH1 0x40 DUP3 ADD SWAP1 POP SWAP2 SWAP1 POP JUMP JUMPDEST PUSH1 0x0 PUSH2 0x432A PUSH1 0x27 DUP4 PUSH2 0x4940 JUMP JUMPDEST SWAP2 POP PUSH2 0x4335 DUP3 PUSH2 0x4FFA JUMP JUMPDEST PUSH1 0x40 DUP3 ADD SWAP1 POP SWAP2 SWAP1 POP JUMP JUMPDEST PUSH1 0x0 PUSH2 0x434D PUSH1 0x26 DUP4 PUSH2 0x4940 JUMP JUMPDEST SWAP2 POP PUSH2 0x4358 DUP3 PUSH2 0x5049 JUMP JUMPDEST PUSH1 0x40 DUP3 ADD SWAP1 POP SWAP2 SWAP1 POP JUMP JUMPDEST PUSH1 0x0 PUSH2 0x4370 PUSH1 0x2B DUP4 PUSH2 0x4940 JUMP JUMPDEST SWAP2 POP PUSH2 0x437B DUP3 PUSH2 0x5098 JUMP JUMPDEST PUSH1 0x40 DUP3 ADD SWAP1 POP SWAP2 SWAP1 POP JUMP JUMPDEST PUSH1 0x0 PUSH2 0x4393 PUSH1 0x2D DUP4 PUSH2 0x4940 JUMP JUMPDEST SWAP2 POP PUSH2 0x439E DUP3 PUSH2 0x50E7 JUMP JUMPDEST PUSH1 0x40 DUP3 ADD SWAP1 POP SWAP2 SWAP1 POP JUMP JUMPDEST PUSH1 0x0 PUSH2 0x43B6 PUSH1 0x1E DUP4 PUSH2 0x4940 JUMP JUMPDEST SWAP2 POP PUSH2 0x43C1 DUP3 PUSH2 0x5136 JUMP JUMPDEST PUSH1 0x20 DUP3 ADD SWAP1 POP SWAP2 SWAP1 POP JUMP JUMPDEST PUSH1 0x0 PUSH2 0x43D9 PUSH1 0x2B DUP4 PUSH2 0x4940 JUMP JUMPDEST SWAP2 POP PUSH2 0x43E4 DUP3 PUSH2 0x515F JUMP JUMPDEST PUSH1 0x40 DUP3 ADD SWAP1 POP SWAP2 SWAP1 POP JUMP JUMPDEST PUSH2 0x43F8 DUP2 PUSH2 0x4AC8 JUMP JUMPDEST DUP3 MSTORE POP POP JUMP JUMPDEST PUSH2 0x4407 DUP2 PUSH2 0x4AC8 JUMP JUMPDEST DUP3 MSTORE POP POP JUMP JUMPDEST PUSH2 0x4416 DUP2 PUSH2 0x4AE2 JUMP JUMPDEST DUP3 MSTORE POP POP JUMP JUMPDEST PUSH1 0x0 PUSH2 0x4428 DUP3 DUP5 PUSH2 0x4125 JUMP JUMPDEST SWAP2 POP DUP2 SWAP1 POP SWAP3 SWAP2 POP POP JUMP JUMPDEST PUSH1 0x0 PUSH1 0x20 DUP3 ADD SWAP1 POP PUSH2 0x4448 PUSH1 0x0 DUP4 ADD DUP5 PUSH2 0x4070 JUMP JUMPDEST SWAP3 SWAP2 POP POP JUMP JUMPDEST PUSH1 0x0 PUSH1 0x40 DUP3 ADD SWAP1 POP PUSH2 0x4463 PUSH1 0x0 DUP4 ADD DUP6 PUSH2 0x4070 JUMP JUMPDEST PUSH2 0x4470 PUSH1 0x20 DUP4 ADD DUP5 PUSH2 0x4070 JUMP JUMPDEST SWAP4 SWAP3 POP POP POP JUMP JUMPDEST PUSH1 0x0 PUSH1 0x60 DUP3 ADD SWAP1 POP PUSH2 0x448C PUSH1 0x0 DUP4 ADD DUP7 PUSH2 0x4070 JUMP JUMPDEST PUSH2 0x4499 PUSH1 0x20 DUP4 ADD DUP6 PUSH2 0x4070 JUMP JUMPDEST PUSH2 0x44A6 PUSH1 0x40 DUP4 ADD DUP5 PUSH2 0x43FE JUMP JUMPDEST SWAP5 SWAP4 POP POP POP POP JUMP JUMPDEST PUSH1 0x0 PUSH1 0xE0 DUP3 ADD SWAP1 POP PUSH2 0x44C3 PUSH1 0x0 DUP4 ADD DUP11 PUSH2 0x4070 JUMP JUMPDEST PUSH2 0x44D0 PUSH1 0x20 DUP4 ADD DUP10 PUSH2 0x4070 JUMP JUMPDEST PUSH2 0x44DD PUSH1 0x40 DUP4 ADD DUP9 PUSH2 0x43FE JUMP JUMPDEST PUSH2 0x44EA PUSH1 0x60 DUP4 ADD DUP8 PUSH2 0x43FE JUMP JUMPDEST PUSH2 0x44F7 PUSH1 0x80 DUP4 ADD DUP7 PUSH2 0x440D JUMP JUMPDEST PUSH2 0x4504 PUSH1 0xA0 DUP4 ADD DUP6 PUSH2 0x40DD JUMP JUMPDEST PUSH2 0x4511 PUSH1 0xC0 DUP4 ADD DUP5 PUSH2 0x40DD JUMP JUMPDEST SWAP9 SWAP8 POP POP POP POP POP POP POP POP JUMP JUMPDEST PUSH1 0x0 PUSH1 0x40 DUP3 ADD SWAP1 POP PUSH2 0x4532 PUSH1 0x0 DUP4 ADD DUP6 PUSH2 0x4070 JUMP JUMPDEST PUSH2 0x453F PUSH1 0x20 DUP4 ADD DUP5 PUSH2 0x43FE JUMP JUMPDEST SWAP4 SWAP3 POP POP POP JUMP JUMPDEST PUSH1 0x0 PUSH1 0x20 DUP3 ADD SWAP1 POP DUP2 DUP2 SUB PUSH1 0x0 DUP4 ADD MSTORE PUSH2 0x4560 DUP2 DUP5 PUSH2 0x407F JUMP JUMPDEST SWAP1 POP SWAP3 SWAP2 POP POP JUMP JUMPDEST PUSH1 0x0 PUSH1 0x20 DUP3 ADD SWAP1 POP DUP2 DUP2 SUB PUSH1 0x0 DUP4 ADD MSTORE PUSH2 0x4581 DUP2 PUSH2 0x4156 JUMP JUMPDEST SWAP1 POP SWAP2 SWAP1 POP JUMP JUMPDEST PUSH1 0x0 PUSH1 0x20 DUP3 ADD SWAP1 POP DUP2 DUP2 SUB PUSH1 0x0 DUP4 ADD MSTORE PUSH2 0x45A1 DUP2 PUSH2 0x4179 JUMP JUMPDEST SWAP1 POP SWAP2 SWAP1 POP JUMP JUMPDEST PUSH1 0x0 PUSH1 0x20 DUP3 ADD SWAP1 POP DUP2 DUP2 SUB PUSH1 0x0 DUP4 ADD MSTORE PUSH2 0x45C1 DUP2 PUSH2 0x419C JUMP JUMPDEST SWAP1 POP SWAP2 SWAP1 POP JUMP JUMPDEST PUSH1 0x0 PUSH1 0x20 DUP3 ADD SWAP1 POP DUP2 DUP2 SUB PUSH1 0x0 DUP4 ADD MSTORE PUSH2 0x45E1 DUP2 PUSH2 0x41BF JUMP JUMPDEST SWAP1 POP SWAP2 SWAP1 POP JUMP JUMPDEST PUSH1 0x0 PUSH1 0x20 DUP3 ADD SWAP1 POP DUP2 DUP2 SUB PUSH1 0x0 DUP4 ADD MSTORE PUSH2 0x4601 DUP2 PUSH2 0x41E2 JUMP JUMPDEST SWAP1 POP SWAP2 SWAP1 POP JUMP JUMPDEST PUSH1 0x0 PUSH1 0x20 DUP3 ADD SWAP1 POP DUP2 DUP2 SUB PUSH1 0x0 DUP4 ADD MSTORE PUSH2 0x4621 DUP2 PUSH2 0x4205 JUMP JUMPDEST SWAP1 POP SWAP2 SWAP1 POP JUMP JUMPDEST PUSH1 0x0 PUSH1 0x20 DUP3 ADD SWAP1 POP DUP2 DUP2 SUB PUSH1 0x0 DUP4 ADD MSTORE PUSH2 0x4641 DUP2 PUSH2 0x4228 JUMP JUMPDEST SWAP1 POP SWAP2 SWAP1 POP JUMP JUMPDEST PUSH1 0x0 PUSH1 0x20 DUP3 ADD SWAP1 POP DUP2 DUP2 SUB PUSH1 0x0 DUP4 ADD MSTORE PUSH2 0x4661 DUP2 PUSH2 0x424B JUMP JUMPDEST SWAP1 POP SWAP2 SWAP1 POP JUMP JUMPDEST PUSH1 0x0 PUSH1 0x20 DUP3 ADD SWAP1 POP DUP2 DUP2 SUB PUSH1 0x0 DUP4 ADD MSTORE PUSH2 0x4681 DUP2 PUSH2 0x426E JUMP JUMPDEST SWAP1 POP SWAP2 SWAP1 POP JUMP JUMPDEST PUSH1 0x0 PUSH1 0x20 DUP3 ADD SWAP1 POP DUP2 DUP2 SUB PUSH1 0x0 DUP4 ADD MSTORE PUSH2 0x46A1 DUP2 PUSH2 0x4291 JUMP JUMPDEST SWAP1 POP SWAP2 SWAP1 POP JUMP JUMPDEST PUSH1 0x0 PUSH1 0x20 DUP3 ADD SWAP1 POP DUP2 DUP2 SUB PUSH1 0x0 DUP4 ADD MSTORE PUSH2 0x46C1 DUP2 PUSH2 0x42B4 JUMP JUMPDEST SWAP1 POP SWAP2 SWAP1 POP JUMP JUMPDEST PUSH1 0x0 PUSH1 0x20 DUP3 ADD SWAP1 POP DUP2 DUP2 SUB PUSH1 0x0 DUP4 ADD MSTORE PUSH2 0x46E1 DUP2 PUSH2 0x42D7 JUMP JUMPDEST SWAP1 POP SWAP2 SWAP1 POP JUMP JUMPDEST PUSH1 0x0 PUSH1 0x20 DUP3 ADD SWAP1 POP DUP2 DUP2 SUB PUSH1 0x0 DUP4 ADD MSTORE PUSH2 0x4701 DUP2 PUSH2 0x42FA JUMP JUMPDEST SWAP1 POP SWAP2 SWAP1 POP JUMP JUMPDEST PUSH1 0x0 PUSH1 0x20 DUP3 ADD SWAP1 POP DUP2 DUP2 SUB PUSH1 0x0 DUP4 ADD MSTORE PUSH2 0x4721 DUP2 PUSH2 0x431D JUMP JUMPDEST SWAP1 POP SWAP2 SWAP1 POP JUMP JUMPDEST PUSH1 0x0 PUSH1 0x20 DUP3 ADD SWAP1 POP DUP2 DUP2 SUB PUSH1 0x0 DUP4 ADD MSTORE PUSH2 0x4741 DUP2 PUSH2 0x4340 JUMP JUMPDEST SWAP1 POP SWAP2 SWAP1 POP JUMP JUMPDEST PUSH1 0x0 PUSH1 0x20 DUP3 ADD SWAP1 POP DUP2 DUP2 SUB PUSH1 0x0 DUP4 ADD MSTORE PUSH2 0x4761 DUP2 PUSH2 0x4363 JUMP JUMPDEST SWAP1 POP SWAP2 SWAP1 POP JUMP JUMPDEST PUSH1 0x0 PUSH1 0x20 DUP3 ADD SWAP1 POP DUP2 DUP2 SUB PUSH1 0x0 DUP4 ADD MSTORE PUSH2 0x4781 DUP2 PUSH2 0x4386 JUMP JUMPDEST SWAP1 POP SWAP2 SWAP1 POP JUMP JUMPDEST PUSH1 0x0 PUSH1 0x20 DUP3 ADD SWAP1 POP DUP2 DUP2 SUB PUSH1 0x0 DUP4 ADD MSTORE PUSH2 0x47A1 DUP2 PUSH2 0x43A9 JUMP JUMPDEST SWAP1 POP SWAP2 SWAP1 POP JUMP JUMPDEST PUSH1 0x0 PUSH1 0x20 DUP3 ADD SWAP1 POP DUP2 DUP2 SUB PUSH1 0x0 DUP4 ADD MSTORE PUSH2 0x47C1 DUP2 PUSH2 0x43CC JUMP JUMPDEST SWAP1 POP SWAP2 SWAP1 POP JUMP JUMPDEST PUSH1 0x0 PUSH1 0x20 DUP3 ADD SWAP1 POP PUSH2 0x47DD PUSH1 0x0 DUP4 ADD DUP5 PUSH2 0x43FE JUMP JUMPDEST SWAP3 SWAP2 POP POP JUMP JUMPDEST PUSH1 0x0 PUSH1 0x40 DUP3 ADD SWAP1 POP PUSH2 0x47F8 PUSH1 0x0 DUP4 ADD DUP6 PUSH2 0x43FE JUMP JUMPDEST PUSH2 0x4805 PUSH1 0x20 DUP4 ADD DUP5 PUSH2 0x43FE JUMP JUMPDEST SWAP4 SWAP3 POP POP POP JUMP JUMPDEST PUSH1 0x0 PUSH1 0x80 DUP3 ADD SWAP1 POP PUSH2 0x4821 PUSH1 0x0 DUP4 ADD DUP8 PUSH2 0x43FE JUMP JUMPDEST PUSH2 0x482E PUSH1 0x20 DUP4 ADD DUP7 PUSH2 0x43FE JUMP JUMPDEST PUSH2 0x483B PUSH1 0x40 DUP4 ADD DUP6 PUSH2 0x4070 JUMP JUMPDEST DUP2 DUP2 SUB PUSH1 0x60 DUP4 ADD MSTORE PUSH2 0x484D DUP2 DUP5 PUSH2 0x40EC JUMP JUMPDEST SWAP1 POP SWAP6 SWAP5 POP POP POP POP POP JUMP JUMPDEST PUSH1 0x0 PUSH1 0x60 DUP3 ADD SWAP1 POP PUSH2 0x486D PUSH1 0x0 DUP4 ADD DUP7 PUSH2 0x43FE JUMP JUMPDEST PUSH2 0x487A PUSH1 0x20 DUP4 ADD DUP6 PUSH2 0x43FE JUMP JUMPDEST PUSH2 0x4887 PUSH1 0x40 DUP4 ADD DUP5 PUSH2 0x43FE JUMP JUMPDEST SWAP5 SWAP4 POP POP POP POP JUMP JUMPDEST PUSH1 0x0 PUSH2 0x4899 PUSH2 0x48AA JUMP JUMPDEST SWAP1 POP PUSH2 0x48A5 DUP3 DUP3 PUSH2 0x4B4C JUMP JUMPDEST SWAP2 SWAP1 POP JUMP JUMPDEST PUSH1 0x0 PUSH1 0x40 MLOAD SWAP1 POP SWAP1 JUMP JUMPDEST PUSH1 0x0 PUSH8 0xFFFFFFFFFFFFFFFF DUP3 GT ISZERO PUSH2 0x48CF JUMPI PUSH2 0x48CE PUSH2 0x4C82 JUMP JUMPDEST JUMPDEST PUSH1 0x20 DUP3 MUL SWAP1 POP PUSH1 0x20 DUP2 ADD SWAP1 POP SWAP2 SWAP1 POP JUMP JUMPDEST PUSH1 0x0 DUP2 SWAP1 POP PUSH1 0x20 DUP3 ADD SWAP1 POP SWAP2 SWAP1 POP JUMP JUMPDEST PUSH1 0x0 DUP2 MLOAD SWAP1 POP SWAP2 SWAP1 POP JUMP JUMPDEST PUSH1 0x0 DUP2 MLOAD SWAP1 POP SWAP2 SWAP1 POP JUMP JUMPDEST PUSH1 0x0 PUSH1 0x20 DUP3 ADD SWAP1 POP SWAP2 SWAP1 POP JUMP JUMPDEST PUSH1 0x0 DUP3 DUP3 MSTORE PUSH1 0x20 DUP3 ADD SWAP1 POP SWAP3 SWAP2 POP POP JUMP JUMPDEST PUSH1 0x0 DUP3 DUP3 MSTORE PUSH1 0x20 DUP3 ADD SWAP1 POP SWAP3 SWAP2 POP POP JUMP JUMPDEST PUSH1 0x0 DUP2 SWAP1 POP SWAP3 SWAP2 POP POP JUMP JUMPDEST PUSH1 0x0 DUP3 DUP3 MSTORE PUSH1 0x20 DUP3 ADD SWAP1 POP SWAP3 SWAP2 POP POP JUMP JUMPDEST PUSH1 0x0 PUSH2 0x495C DUP3 PUSH2 0x4AC8 JUMP JUMPDEST SWAP2 POP PUSH2 0x4967 DUP4 PUSH2 0x4AC8 JUMP JUMPDEST SWAP3 POP DUP3 PUSH32 0xFFFFFFFFFFFFFFFFFFFFFFFFFFFFFFFFFFFFFFFFFFFFFFFFFFFFFFFFFFFFFFFF SUB DUP3 GT ISZERO PUSH2 0x499C JUMPI PUSH2 0x499B PUSH2 0x4BF5 JUMP JUMPDEST JUMPDEST DUP3 DUP3 ADD SWAP1 POP SWAP3 SWAP2 POP POP JUMP JUMPDEST PUSH1 0x0 PUSH2 0x49B2 DUP3 PUSH2 0x4AC8 JUMP JUMPDEST SWAP2 POP PUSH2 0x49BD DUP4 PUSH2 0x4AC8 JUMP JUMPDEST SWAP3 POP DUP3 PUSH2 0x49CD JUMPI PUSH2 0x49CC PUSH2 0x4C24 JUMP JUMPDEST JUMPDEST DUP3 DUP3 DIV SWAP1 POP SWAP3 SWAP2 POP POP JUMP JUMPDEST PUSH1 0x0 PUSH2 0x49E3 DUP3 PUSH2 0x4AC8 JUMP JUMPDEST SWAP2 POP PUSH2 0x49EE DUP4 PUSH2 0x4AC8 JUMP JUMPDEST SWAP3 POP DUP2 PUSH32 0xFFFFFFFFFFFFFFFFFFFFFFFFFFFFFFFFFFFFFFFFFFFFFFFFFFFFFFFFFFFFFFFF DIV DUP4 GT DUP3 ISZERO ISZERO AND ISZERO PUSH2 0x4A27 JUMPI PUSH2 0x4A26 PUSH2 0x4BF5 JUMP JUMPDEST JUMPDEST DUP3 DUP3 MUL SWAP1 POP SWAP3 SWAP2 POP POP JUMP JUMPDEST PUSH1 0x0 PUSH2 0x4A3D DUP3 PUSH2 0x4AC8 JUMP JUMPDEST SWAP2 POP PUSH2 0x4A48 DUP4 PUSH2 0x4AC8 JUMP JUMPDEST SWAP3 POP DUP3 DUP3 LT ISZERO PUSH2 0x4A5B JUMPI PUSH2 0x4A5A PUSH2 0x4BF5 JUMP JUMPDEST JUMPDEST DUP3 DUP3 SUB SWAP1 POP SWAP3 SWAP2 POP POP JUMP JUMPDEST PUSH1 0x0 PUSH2 0x4A71 DUP3 PUSH2 0x4AA8 JUMP JUMPDEST SWAP1 POP SWAP2 SWAP1 POP JUMP JUMPDEST PUSH1 0x0 DUP2 ISZERO ISZERO SWAP1 POP SWAP2 SWAP1 POP JUMP JUMPDEST PUSH1 0x0 DUP2 SWAP1 POP SWAP2 SWAP1 POP JUMP JUMPDEST PUSH1 0x0 PUSH14 0xFFFFFFFFFFFFFFFFFFFFFFFFFFFF DUP3 AND SWAP1 POP SWAP2 SWAP1 POP JUMP JUMPDEST PUSH1 0x0 PUSH20 0xFFFFFFFFFFFFFFFFFFFFFFFFFFFFFFFFFFFFFFFF DUP3 AND SWAP1 POP SWAP2 SWAP1 POP JUMP JUMPDEST PUSH1 0x0 DUP2 SWAP1 POP SWAP2 SWAP1 POP JUMP JUMPDEST PUSH1 0x0 PUSH4 0xFFFFFFFF DUP3 AND SWAP1 POP SWAP2 SWAP1 POP JUMP JUMPDEST PUSH1 0x0 PUSH1 0xFF DUP3 AND SWAP1 POP SWAP2 SWAP1 POP JUMP JUMPDEST PUSH1 0x0 JUMPDEST DUP4 DUP2 LT ISZERO PUSH2 0x4B0D JUMPI DUP1 DUP3 ADD MLOAD DUP2 DUP5 ADD MSTORE PUSH1 0x20 DUP2 ADD SWAP1 POP PUSH2 0x4AF2 JUMP JUMPDEST DUP4 DUP2 GT ISZERO PUSH2 0x4B1C JUMPI PUSH1 0x0 DUP5 DUP5 ADD MSTORE JUMPDEST POP POP POP POP JUMP JUMPDEST PUSH1 0x0 PUSH2 0x4B2D DUP3 PUSH2 0x4AC8 JUMP JUMPDEST SWAP2 POP PUSH1 0x0 DUP3 EQ ISZERO PUSH2 0x4B41 JUMPI PUSH2 0x4B40 PUSH2 0x4BF5 JUMP JUMPDEST JUMPDEST PUSH1 0x1 DUP3 SUB SWAP1 POP SWAP2 SWAP1 POP JUMP JUMPDEST PUSH2 0x4B55 DUP3 PUSH2 0x4CCA JUMP JUMPDEST DUP2 ADD DUP2 DUP2 LT PUSH8 0xFFFFFFFFFFFFFFFF DUP3 GT OR ISZERO PUSH2 0x4B74 JUMPI PUSH2 0x4B73 PUSH2 0x4C82 JUMP JUMPDEST JUMPDEST DUP1 PUSH1 0x40 MSTORE POP POP POP JUMP JUMPDEST PUSH1 0x0 PUSH2 0x4B88 DUP3 PUSH2 0x4AC8 JUMP JUMPDEST SWAP2 POP PUSH32 0xFFFFFFFFFFFFFFFFFFFFFFFFFFFFFFFFFFFFFFFFFFFFFFFFFFFFFFFFFFFFFFFF DUP3 EQ ISZERO PUSH2 0x4BBB JUMPI PUSH2 0x4BBA PUSH2 0x4BF5 JUMP JUMPDEST JUMPDEST PUSH1 0x1 DUP3 ADD SWAP1 POP SWAP2 SWAP1 POP JUMP JUMPDEST PUSH32 0x4E487B7100000000000000000000000000000000000000000000000000000000 PUSH1 0x0 MSTORE PUSH1 0x1 PUSH1 0x4 MSTORE PUSH1 0x24 PUSH1 0x0 REVERT JUMPDEST PUSH32 0x4E487B7100000000000000000000000000000000000000000000000000000000 PUSH1 0x0 MSTORE PUSH1 0x11 PUSH1 0x4 MSTORE PUSH1 0x24 PUSH1 0x0 REVERT JUMPDEST PUSH32 0x4E487B7100000000000000000000000000000000000000000000000000000000 PUSH1 0x0 MSTORE PUSH1 0x12 PUSH1 0x4 MSTORE PUSH1 0x24 PUSH1 0x0 REVERT JUMPDEST PUSH32 0x4E487B7100000000000000000000000000000000000000000000000000000000 PUSH1 0x0 MSTORE PUSH1 0x32 PUSH1 0x4 MSTORE PUSH1 0x24 PUSH1 0x0 REVERT JUMPDEST PUSH32 0x4E487B7100000000000000000000000000000000000000000000000000000000 PUSH1 0x0 MSTORE PUSH1 0x41 PUSH1 0x4 MSTORE PUSH1 0x24 PUSH1 0x0 REVERT JUMPDEST PUSH1 0x0 DUP1 REVERT JUMPDEST PUSH1 0x0 DUP1 REVERT JUMPDEST PUSH1 0x0 DUP1 REVERT JUMPDEST PUSH1 0x0 DUP1 REVERT JUMPDEST PUSH1 0x0 DUP1 REVERT JUMPDEST PUSH1 0x0 PUSH1 0x1F NOT PUSH1 0x1F DUP4 ADD AND SWAP1 POP SWAP2 SWAP1 POP JUMP JUMPDEST PUSH32 0x64732D6D6174682D7375622D756E646572666C6F770000000000000000000000 PUSH1 0x0 DUP3 ADD MSTORE POP JUMP JUMPDEST PUSH32 0x556E69737761705632526F757465723A20455850495245440000000000000000 PUSH1 0x0 DUP3 ADD MSTORE POP JUMP JUMPDEST PUSH32 0x64732D6D6174682D6D756C2D6F766572666C6F77000000000000000000000000 PUSH1 0x0 DUP3 ADD MSTORE POP JUMP JUMPDEST PUSH32 0x556E697377617056324C6962726172793A20494E53554646494349454E545F4F PUSH1 0x0 DUP3 ADD MSTORE PUSH32 0x55545055545F414D4F554E540000000000000000000000000000000000000000 PUSH1 0x20 DUP3 ADD MSTORE POP JUMP JUMPDEST PUSH32 0x64732D6D6174682D6164642D6F766572666C6F77000000000000000000000000 PUSH1 0x0 DUP3 ADD MSTORE POP JUMP JUMPDEST PUSH32 0x5472616E7366657248656C7065723A3A7472616E7366657246726F6D3A207472 PUSH1 0x0 DUP3 ADD MSTORE PUSH32 0x616E7366657246726F6D206661696C6564000000000000000000000000000000 PUSH1 0x20 DUP3 ADD MSTORE POP JUMP JUMPDEST PUSH32 0x5472616E7366657248656C7065723A3A736166655472616E736665724554483A PUSH1 0x0 DUP3 ADD MSTORE PUSH32 0x20455448207472616E73666572206661696C6564000000000000000000000000 PUSH1 0x20 DUP3 ADD MSTORE POP JUMP JUMPDEST PUSH32 0x556E697377617056324C6962726172793A204944454E544943414C5F41444452 PUSH1 0x0 DUP3 ADD MSTORE PUSH32 0x4553534553000000000000000000000000000000000000000000000000000000 PUSH1 0x20 DUP3 ADD MSTORE POP JUMP JUMPDEST PUSH32 0x556E69737761705632526F757465723A20494E53554646494349454E545F425F PUSH1 0x0 DUP3 ADD MSTORE PUSH32 0x414D4F554E540000000000000000000000000000000000000000000000000000 PUSH1 0x20 DUP3 ADD MSTORE POP JUMP JUMPDEST PUSH32 0x556E69737761705632526F757465723A20494E56414C49445F50415448000000 PUSH1 0x0 DUP3 ADD MSTORE POP JUMP JUMPDEST PUSH32 0x556E697377617056324C6962726172793A20494E56414C49445F504154480000 PUSH1 0x0 DUP3 ADD MSTORE POP JUMP JUMPDEST PUSH32 0x556E697377617056324C6962726172793A20494E53554646494349454E545F4C PUSH1 0x0 DUP3 ADD MSTORE PUSH32 0x4951554944495459000000000000000000000000000000000000000000000000 PUSH1 0x20 DUP3 ADD MSTORE POP JUMP JUMPDEST PUSH32 0x556E697377617056324C6962726172793A20494E53554646494349454E545F41 PUSH1 0x0 DUP3 ADD MSTORE PUSH32 0x4D4F554E54000000000000000000000000000000000000000000000000000000 PUSH1 0x20 DUP3 ADD MSTORE POP JUMP JUMPDEST PUSH32 0x556E69737761705632526F757465723A204558434553534956455F494E505554 PUSH1 0x0 DUP3 ADD MSTORE PUSH32 0x5F414D4F554E5400000000000000000000000000000000000000000000000000 PUSH1 0x20 DUP3 ADD MSTORE POP JUMP JUMPDEST PUSH32 0x556E69737761705632526F757465723A20494E53554646494349454E545F415F PUSH1 0x0 DUP3 ADD MSTORE PUSH32 0x414D4F554E540000000000000000000000000000000000000000000000000000 PUSH1 0x20 DUP3 ADD MSTORE POP JUMP JUMPDEST PUSH32 0x556E69737761705632526F757465723A20494E53554646494349454E545F4F55 PUSH1 0x0 DUP3 ADD MSTORE PUSH32 0x545055545F414D4F554E54000000000000000000000000000000000000000000 PUSH1 0x20 DUP3 ADD MSTORE POP JUMP JUMPDEST PUSH32 0x5472616E7366657248656C7065723A3A736166655472616E736665723A207472 PUSH1 0x0 DUP3 ADD MSTORE PUSH32 0x616E73666572206661696C656400000000000000000000000000000000000000 PUSH1 0x20 DUP3 ADD MSTORE POP JUMP JUMPDEST PUSH32 0x556E697377617056324C6962726172793A205A45524F5F414444524553530000 PUSH1 0x0 DUP3 ADD MSTORE POP JUMP JUMPDEST PUSH32 0x556E697377617056324C6962726172793A20494E53554646494349454E545F49 PUSH1 0x0 DUP3 ADD MSTORE PUSH32 0x4E5055545F414D4F554E54000000000000000000000000000000000000000000 PUSH1 0x20 DUP3 ADD MSTORE POP JUMP JUMPDEST PUSH2 0x51B7 DUP2 PUSH2 0x4A66 JUMP JUMPDEST DUP2 EQ PUSH2 0x51C2 JUMPI PUSH1 0x0 DUP1 REVERT JUMPDEST POP JUMP JUMPDEST PUSH2 0x51CE DUP2 PUSH2 0x4A78 JUMP JUMPDEST DUP2 EQ PUSH2 0x51D9 JUMPI PUSH1 0x0 DUP1 REVERT JUMPDEST POP JUMP JUMPDEST PUSH2 0x51E5 DUP2 PUSH2 0x4A84 JUMP JUMPDEST DUP2 EQ PUSH2 0x51F0 JUMPI PUSH1 0x0 DUP1 REVERT JUMPDEST POP JUMP JUMPDEST PUSH2 0x51FC DUP2 PUSH2 0x4A8E JUMP JUMPDEST DUP2 EQ PUSH2 0x5207 JUMPI PUSH1 0x0 DUP1 REVERT JUMPDEST POP JUMP JUMPDEST PUSH2 0x5213 DUP2 PUSH2 0x4AC8 JUMP JUMPDEST DUP2 EQ PUSH2 0x521E JUMPI PUSH1 0x0 DUP1 REVERT JUMPDEST POP JUMP JUMPDEST PUSH2 0x522A DUP2 PUSH2 0x4AD2 JUMP JUMPDEST DUP2 EQ PUSH2 0x5235 JUMPI PUSH1 0x0 DUP1 REVERT JUMPDEST POP JUMP JUMPDEST PUSH2 0x5241 DUP2 PUSH2 0x4AE2 JUMP JUMPDEST DUP2 EQ PUSH2 0x524C JUMPI PUSH1 0x0 DUP1 REVERT JUMPDEST POP JUMP INVALID LOG2 PUSH5 0x6970667358 0x22 SLT KECCAK256 0x4C PUSH26 0x698716C09A1B641EC3198BC9D45689AEC88F3B8D37B5545457C8 0xB2 SWAP16 TIMESTAMP 0x1F PUSH5 0x736F6C6343 STOP ADDMOD SMOD STOP CALLER "
		},
		"gasEstimates": {
			"creation": {
				"codeDepositCost": "4225000",
				"executionCost": "infinite",
				"totalCost": "infinite"
			},
			"external": {
				"WETH()": "infinite",
				"addLiquidity(address,address,uint256,uint256,uint256,uint256,address,uint256)": "infinite",
				"addLiquidityETH(address,uint256,uint256,uint256,address,uint256)": "infinite",
				"factory()": "infinite",
				"getAmountIn(uint256,uint256,uint256)": "infinite",
				"getAmountOut(uint256,uint256,uint256)": "infinite",
				"getAmountsIn(uint256,address[])": "infinite",
				"getAmountsOut(uint256,address[])": "infinite",
				"quote(uint256,uint256,uint256)": "infinite",
				"removeLiquidity(address,address,uint256,uint256,uint256,address,uint256)": "infinite",
				"removeLiquidityETH(address,uint256,uint256,uint256,address,uint256)": "infinite",
				"removeLiquidityETHWithPermit(address,uint256,uint256,uint256,address,uint256,bool,uint8,bytes32,bytes32)": "infinite",
				"removeLiquidityWithPermit(address,address,uint256,uint256,uint256,address,uint256,bool,uint8,bytes32,bytes32)": "infinite",
				"swapETHForExactTokens(uint256,address[],address,uint256)": "infinite",
				"swapExactETHForTokens(uint256,address[],address,uint256)": "infinite",
				"swapExactTokensForETH(uint256,uint256,address[],address,uint256)": "infinite",
				"swapExactTokensForTokens(uint256,uint256,address[],address,uint256)": "infinite",
				"swapTokensForExactETH(uint256,uint256,address[],address,uint256)": "infinite",
				"swapTokensForExactTokens(uint256,uint256,address[],address,uint256)": "infinite"
			},
			"internal": {
				"_addLiquidity(address,address,uint256,uint256,uint256,uint256)": "infinite",
				"_swap(uint256[] memory,address[] memory,address)": "infinite"
			}
		},
		"methodIdentifiers": {
			"WETH()": "ad5c4648",
			"addLiquidity(address,address,uint256,uint256,uint256,uint256,address,uint256)": "e8e33700",
			"addLiquidityETH(address,uint256,uint256,uint256,address,uint256)": "f305d719",
			"factory()": "c45a0155",
			"getAmountIn(uint256,uint256,uint256)": "85f8c259",
			"getAmountOut(uint256,uint256,uint256)": "054d50d4",
			"getAmountsIn(uint256,address[])": "1f00ca74",
			"getAmountsOut(uint256,address[])": "d06ca61f",
			"quote(uint256,uint256,uint256)": "ad615dec",
			"removeLiquidity(address,address,uint256,uint256,uint256,address,uint256)": "baa2abde",
			"removeLiquidityETH(address,uint256,uint256,uint256,address,uint256)": "02751cec",
			"removeLiquidityETHWithPermit(address,uint256,uint256,uint256,address,uint256,bool,uint8,bytes32,bytes32)": "ded9382a",
			"removeLiquidityWithPermit(address,address,uint256,uint256,uint256,address,uint256,bool,uint8,bytes32,bytes32)": "2195995c",
			"swapETHForExactTokens(uint256,address[],address,uint256)": "fb3bdb41",
			"swapExactETHForTokens(uint256,address[],address,uint256)": "7ff36ab5",
			"swapExactTokensForETH(uint256,uint256,address[],address,uint256)": "18cbafe5",
			"swapExactTokensForTokens(uint256,uint256,address[],address,uint256)": "38ed1739",
			"swapTokensForExactETH(uint256,uint256,address[],address,uint256)": "4a25d94a",
			"swapTokensForExactTokens(uint256,uint256,address[],address,uint256)": "8803dbee"
		}
	},
	"abi": [
		{
			"inputs": [
				{
					"internalType": "address",
					"name": "_factory",
					"type": "address"
				},
				{
					"internalType": "address",
					"name": "_WETH",
					"type": "address"
				}
			],
			"stateMutability": "nonpayable",
			"type": "constructor"
		},
		{
			"inputs": [],
			"name": "WETH",
			"outputs": [
				{
					"internalType": "address",
					"name": "",
					"type": "address"
				}
			],
			"stateMutability": "view",
			"type": "function"
		},
		{
			"inputs": [
				{
					"internalType": "address",
					"name": "tokenA",
					"type": "address"
				},
				{
					"internalType": "address",
					"name": "tokenB",
					"type": "address"
				},
				{
					"internalType": "uint256",
					"name": "amountADesired",
					"type": "uint256"
				},
				{
					"internalType": "uint256",
					"name": "amountBDesired",
					"type": "uint256"
				},
				{
					"internalType": "uint256",
					"name": "amountAMin",
					"type": "uint256"
				},
				{
					"internalType": "uint256",
					"name": "amountBMin",
					"type": "uint256"
				},
				{
					"internalType": "address",
					"name": "to",
					"type": "address"
				},
				{
					"internalType": "uint256",
					"name": "deadline",
					"type": "uint256"
				}
			],
			"name": "addLiquidity",
			"outputs": [
				{
					"internalType": "uint256",
					"name": "amountA",
					"type": "uint256"
				},
				{
					"internalType": "uint256",
					"name": "amountB",
					"type": "uint256"
				},
				{
					"internalType": "uint256",
					"name": "liquidity",
					"type": "uint256"
				}
			],
			"stateMutability": "nonpayable",
			"type": "function"
		},
		{
			"inputs": [
				{
					"internalType": "address",
					"name": "token",
					"type": "address"
				},
				{
					"internalType": "uint256",
					"name": "amountTokenDesired",
					"type": "uint256"
				},
				{
					"internalType": "uint256",
					"name": "amountTokenMin",
					"type": "uint256"
				},
				{
					"internalType": "uint256",
					"name": "amountETHMin",
					"type": "uint256"
				},
				{
					"internalType": "address",
					"name": "to",
					"type": "address"
				},
				{
					"internalType": "uint256",
					"name": "deadline",
					"type": "uint256"
				}
			],
			"name": "addLiquidityETH",
			"outputs": [
				{
					"internalType": "uint256",
					"name": "amountToken",
					"type": "uint256"
				},
				{
					"internalType": "uint256",
					"name": "amountETH",
					"type": "uint256"
				},
				{
					"internalType": "uint256",
					"name": "liquidity",
					"type": "uint256"
				}
			],
			"stateMutability": "payable",
			"type": "function"
		},
		{
			"inputs": [],
			"name": "factory",
			"outputs": [
				{
					"internalType": "address",
					"name": "",
					"type": "address"
				}
			],
			"stateMutability": "view",
			"type": "function"
		},
		{
			"inputs": [
				{
					"internalType": "uint256",
					"name": "amountOut",
					"type": "uint256"
				},
				{
					"internalType": "uint256",
					"name": "reserveIn",
					"type": "uint256"
				},
				{
					"internalType": "uint256",
					"name": "reserveOut",
					"type": "uint256"
				}
			],
			"name": "getAmountIn",
			"outputs": [
				{
					"internalType": "uint256",
					"name": "amountIn",
					"type": "uint256"
				}
			],
			"stateMutability": "pure",
			"type": "function"
		},
		{
			"inputs": [
				{
					"internalType": "uint256",
					"name": "amountIn",
					"type": "uint256"
				},
				{
					"internalType": "uint256",
					"name": "reserveIn",
					"type": "uint256"
				},
				{
					"internalType": "uint256",
					"name": "reserveOut",
					"type": "uint256"
				}
			],
			"name": "getAmountOut",
			"outputs": [
				{
					"internalType": "uint256",
					"name": "amountOut",
					"type": "uint256"
				}
			],
			"stateMutability": "pure",
			"type": "function"
		},
		{
			"inputs": [
				{
					"internalType": "uint256",
					"name": "amountOut",
					"type": "uint256"
				},
				{
					"internalType": "address[]",
					"name": "path",
					"type": "address[]"
				}
			],
			"name": "getAmountsIn",
			"outputs": [
				{
					"internalType": "uint256[]",
					"name": "amounts",
					"type": "uint256[]"
				}
			],
			"stateMutability": "view",
			"type": "function"
		},
		{
			"inputs": [
				{
					"internalType": "uint256",
					"name": "amountIn",
					"type": "uint256"
				},
				{
					"internalType": "address[]",
					"name": "path",
					"type": "address[]"
				}
			],
			"name": "getAmountsOut",
			"outputs": [
				{
					"internalType": "uint256[]",
					"name": "amounts",
					"type": "uint256[]"
				}
			],
			"stateMutability": "view",
			"type": "function"
		},
		{
			"inputs": [
				{
					"internalType": "uint256",
					"name": "amountA",
					"type": "uint256"
				},
				{
					"internalType": "uint256",
					"name": "reserveA",
					"type": "uint256"
				},
				{
					"internalType": "uint256",
					"name": "reserveB",
					"type": "uint256"
				}
			],
			"name": "quote",
			"outputs": [
				{
					"internalType": "uint256",
					"name": "amountB",
					"type": "uint256"
				}
			],
			"stateMutability": "pure",
			"type": "function"
		},
		{
			"inputs": [
				{
					"internalType": "address",
					"name": "tokenA",
					"type": "address"
				},
				{
					"internalType": "address",
					"name": "tokenB",
					"type": "address"
				},
				{
					"internalType": "uint256",
					"name": "liquidity",
					"type": "uint256"
				},
				{
					"internalType": "uint256",
					"name": "amountAMin",
					"type": "uint256"
				},
				{
					"internalType": "uint256",
					"name": "amountBMin",
					"type": "uint256"
				},
				{
					"internalType": "address",
					"name": "to",
					"type": "address"
				},
				{
					"internalType": "uint256",
					"name": "deadline",
					"type": "uint256"
				}
			],
			"name": "removeLiquidity",
			"outputs": [
				{
					"internalType": "uint256",
					"name": "amountA",
					"type": "uint256"
				},
				{
					"internalType": "uint256",
					"name": "amountB",
					"type": "uint256"
				}
			],
			"stateMutability": "nonpayable",
			"type": "function"
		},
		{
			"inputs": [
				{
					"internalType": "address",
					"name": "token",
					"type": "address"
				},
				{
					"internalType": "uint256",
					"name": "liquidity",
					"type": "uint256"
				},
				{
					"internalType": "uint256",
					"name": "amountTokenMin",
					"type": "uint256"
				},
				{
					"internalType": "uint256",
					"name": "amountETHMin",
					"type": "uint256"
				},
				{
					"internalType": "address",
					"name": "to",
					"type": "address"
				},
				{
					"internalType": "uint256",
					"name": "deadline",
					"type": "uint256"
				}
			],
			"name": "removeLiquidityETH",
			"outputs": [
				{
					"internalType": "uint256",
					"name": "amountToken",
					"type": "uint256"
				},
				{
					"internalType": "uint256",
					"name": "amountETH",
					"type": "uint256"
				}
			],
			"stateMutability": "nonpayable",
			"type": "function"
		},
		{
			"inputs": [
				{
					"internalType": "address",
					"name": "token",
					"type": "address"
				},
				{
					"internalType": "uint256",
					"name": "liquidity",
					"type": "uint256"
				},
				{
					"internalType": "uint256",
					"name": "amountTokenMin",
					"type": "uint256"
				},
				{
					"internalType": "uint256",
					"name": "amountETHMin",
					"type": "uint256"
				},
				{
					"internalType": "address",
					"name": "to",
					"type": "address"
				},
				{
					"internalType": "uint256",
					"name": "deadline",
					"type": "uint256"
				},
				{
					"internalType": "bool",
					"name": "approveMax",
					"type": "bool"
				},
				{
					"internalType": "uint8",
					"name": "v",
					"type": "uint8"
				},
				{
					"internalType": "bytes32",
					"name": "r",
					"type": "bytes32"
				},
				{
					"internalType": "bytes32",
					"name": "s",
					"type": "bytes32"
				}
			],
			"name": "removeLiquidityETHWithPermit",
			"outputs": [
				{
					"internalType": "uint256",
					"name": "amountToken",
					"type": "uint256"
				},
				{
					"internalType": "uint256",
					"name": "amountETH",
					"type": "uint256"
				}
			],
			"stateMutability": "nonpayable",
			"type": "function"
		},
		{
			"inputs": [
				{
					"internalType": "address",
					"name": "tokenA",
					"type": "address"
				},
				{
					"internalType": "address",
					"name": "tokenB",
					"type": "address"
				},
				{
					"internalType": "uint256",
					"name": "liquidity",
					"type": "uint256"
				},
				{
					"internalType": "uint256",
					"name": "amountAMin",
					"type": "uint256"
				},
				{
					"internalType": "uint256",
					"name": "amountBMin",
					"type": "uint256"
				},
				{
					"internalType": "address",
					"name": "to",
					"type": "address"
				},
				{
					"internalType": "uint256",
					"name": "deadline",
					"type": "uint256"
				},
				{
					"internalType": "bool",
					"name": "approveMax",
					"type": "bool"
				},
				{
					"internalType": "uint8",
					"name": "v",
					"type": "uint8"
				},
				{
					"internalType": "bytes32",
					"name": "r",
					"type": "bytes32"
				},
				{
					"internalType": "bytes32",
					"name": "s",
					"type": "bytes32"
				}
			],
			"name": "removeLiquidityWithPermit",
			"outputs": [
				{
					"internalType": "uint256",
					"name": "amountA",
					"type": "uint256"
				},
				{
					"internalType": "uint256",
					"name": "amountB",
					"type": "uint256"
				}
			],
			"stateMutability": "nonpayable",
			"type": "function"
		},
		{
			"inputs": [
				{
					"internalType": "uint256",
					"name": "amountOut",
					"type": "uint256"
				},
				{
					"internalType": "address[]",
					"name": "path",
					"type": "address[]"
				},
				{
					"internalType": "address",
					"name": "to",
					"type": "address"
				},
				{
					"internalType": "uint256",
					"name": "deadline",
					"type": "uint256"
				}
			],
			"name": "swapETHForExactTokens",
			"outputs": [
				{
					"internalType": "uint256[]",
					"name": "amounts",
					"type": "uint256[]"
				}
			],
			"stateMutability": "payable",
			"type": "function"
		},
		{
			"inputs": [
				{
					"internalType": "uint256",
					"name": "amountOutMin",
					"type": "uint256"
				},
				{
					"internalType": "address[]",
					"name": "path",
					"type": "address[]"
				},
				{
					"internalType": "address",
					"name": "to",
					"type": "address"
				},
				{
					"internalType": "uint256",
					"name": "deadline",
					"type": "uint256"
				}
			],
			"name": "swapExactETHForTokens",
			"outputs": [
				{
					"internalType": "uint256[]",
					"name": "amounts",
					"type": "uint256[]"
				}
			],
			"stateMutability": "payable",
			"type": "function"
		},
		{
			"inputs": [
				{
					"internalType": "uint256",
					"name": "amountIn",
					"type": "uint256"
				},
				{
					"internalType": "uint256",
					"name": "amountOutMin",
					"type": "uint256"
				},
				{
					"internalType": "address[]",
					"name": "path",
					"type": "address[]"
				},
				{
					"internalType": "address",
					"name": "to",
					"type": "address"
				},
				{
					"internalType": "uint256",
					"name": "deadline",
					"type": "uint256"
				}
			],
			"name": "swapExactTokensForETH",
			"outputs": [
				{
					"internalType": "uint256[]",
					"name": "amounts",
					"type": "uint256[]"
				}
			],
			"stateMutability": "nonpayable",
			"type": "function"
		},
		{
			"inputs": [
				{
					"internalType": "uint256",
					"name": "amountIn",
					"type": "uint256"
				},
				{
					"internalType": "uint256",
					"name": "amountOutMin",
					"type": "uint256"
				},
				{
					"internalType": "address[]",
					"name": "path",
					"type": "address[]"
				},
				{
					"internalType": "address",
					"name": "to",
					"type": "address"
				},
				{
					"internalType": "uint256",
					"name": "deadline",
					"type": "uint256"
				}
			],
			"name": "swapExactTokensForTokens",
			"outputs": [
				{
					"internalType": "uint256[]",
					"name": "amounts",
					"type": "uint256[]"
				}
			],
			"stateMutability": "nonpayable",
			"type": "function"
		},
		{
			"inputs": [
				{
					"internalType": "uint256",
					"name": "amountOut",
					"type": "uint256"
				},
				{
					"internalType": "uint256",
					"name": "amountInMax",
					"type": "uint256"
				},
				{
					"internalType": "address[]",
					"name": "path",
					"type": "address[]"
				},
				{
					"internalType": "address",
					"name": "to",
					"type": "address"
				},
				{
					"internalType": "uint256",
					"name": "deadline",
					"type": "uint256"
				}
			],
			"name": "swapTokensForExactETH",
			"outputs": [
				{
					"internalType": "uint256[]",
					"name": "amounts",
					"type": "uint256[]"
				}
			],
			"stateMutability": "nonpayable",
			"type": "function"
		},
		{
			"inputs": [
				{
					"internalType": "uint256",
					"name": "amountOut",
					"type": "uint256"
				},
				{
					"internalType": "uint256",
					"name": "amountInMax",
					"type": "uint256"
				},
				{
					"internalType": "address[]",
					"name": "path",
					"type": "address[]"
				},
				{
					"internalType": "address",
					"name": "to",
					"type": "address"
				},
				{
					"internalType": "uint256",
					"name": "deadline",
					"type": "uint256"
				}
			],
			"name": "swapTokensForExactTokens",
			"outputs": [
				{
					"internalType": "uint256[]",
					"name": "amounts",
					"type": "uint256[]"
				}
			],
			"stateMutability": "nonpayable",
			"type": "function"
		},
		{
			"stateMutability": "payable",
			"type": "receive"
		}
	]
}